{
  "_format": "hh-sol-artifact-1",
  "contractName": "Plinko",
  "sourceName": "contracts/casino/Plinko.sol",
  "abi": [
    {
      "inputs": [
        {
          "internalType": "address",
          "name": "_owner",
          "type": "address"
        },
        {
          "internalType": "address",
          "name": "_token",
          "type": "address"
        },
        {
          "internalType": "address",
          "name": "_pythVRF",
          "type": "address"
        }
      ],
      "stateMutability": "nonpayable",
      "type": "constructor"
    },
    {
      "inputs": [],
      "name": "BetTooHigh",
      "type": "error"
    },
    {
      "inputs": [],
      "name": "BetTooLow",
      "type": "error"
    },
    {
      "inputs": [
        {
          "internalType": "address",
          "name": "owner",
          "type": "address"
        }
      ],
      "name": "OwnableInvalidOwner",
      "type": "error"
    },
    {
      "inputs": [
        {
          "internalType": "address",
          "name": "account",
          "type": "address"
        }
      ],
      "name": "OwnableUnauthorizedAccount",
      "type": "error"
    },
    {
      "inputs": [],
      "name": "ReentrancyGuardReentrantCall",
      "type": "error"
    },
    {
      "inputs": [
        {
          "internalType": "address",
          "name": "token",
          "type": "address"
        }
      ],
      "name": "SafeERC20FailedOperation",
      "type": "error"
    },
    {
      "anonymous": false,
      "inputs": [
        {
          "indexed": true,
          "internalType": "uint256",
          "name": "gameId",
          "type": "uint256"
        },
        {
          "indexed": false,
          "internalType": "int256",
          "name": "position",
          "type": "int256"
        },
        {
          "indexed": false,
          "internalType": "uint256",
          "name": "multiplier",
          "type": "uint256"
        },
        {
          "indexed": false,
          "internalType": "uint256",
          "name": "reward",
          "type": "uint256"
        },
        {
          "indexed": false,
          "internalType": "uint256",
          "name": "lootRarity",
          "type": "uint256"
        }
      ],
      "name": "GameSettled",
      "type": "event"
    },
    {
      "anonymous": false,
      "inputs": [
        {
          "indexed": true,
          "internalType": "uint256",
          "name": "gameId",
          "type": "uint256"
        },
        {
          "indexed": true,
          "internalType": "address",
          "name": "player",
          "type": "address"
        }
      ],
      "name": "GameStarted",
      "type": "event"
    },
    {
      "anonymous": false,
      "inputs": [
        {
          "indexed": true,
          "internalType": "address",
          "name": "previousOwner",
          "type": "address"
        },
        {
          "indexed": true,
          "internalType": "address",
          "name": "newOwner",
          "type": "address"
        }
      ],
      "name": "OwnershipTransferred",
      "type": "event"
    },
    {
      "inputs": [],
      "name": "config",
      "outputs": [
        {
          "internalType": "address",
          "name": "treasury",
          "type": "address"
        },
        {
          "internalType": "uint256",
          "name": "minPlay",
          "type": "uint256"
        },
        {
          "internalType": "uint256",
          "name": "maxPlay",
          "type": "uint256"
        },
        {
          "internalType": "uint16",
          "name": "houseEdgeBps",
          "type": "uint16"
        },
        {
          "internalType": "bool",
          "name": "paused",
          "type": "bool"
        }
      ],
      "stateMutability": "view",
      "type": "function"
    },
    {
      "inputs": [
        {
          "internalType": "bytes32",
          "name": "requestId",
          "type": "bytes32"
        },
        {
          "internalType": "uint256",
          "name": "randomness",
          "type": "uint256"
        }
      ],
      "name": "fulfillRandomness",
      "outputs": [],
      "stateMutability": "nonpayable",
      "type": "function"
    },
    {
      "inputs": [],
      "name": "gameCounter",
      "outputs": [
        {
          "internalType": "uint256",
          "name": "",
          "type": "uint256"
        }
      ],
      "stateMutability": "view",
      "type": "function"
    },
    {
      "inputs": [
        {
          "internalType": "uint256",
          "name": "",
          "type": "uint256"
        }
      ],
      "name": "games",
      "outputs": [
        {
          "internalType": "address",
          "name": "player",
          "type": "address"
        },
        {
          "internalType": "uint256",
          "name": "gameId",
          "type": "uint256"
        },
        {
          "internalType": "int256",
          "name": "position",
          "type": "int256"
        },
        {
          "internalType": "uint256",
          "name": "multiplier",
          "type": "uint256"
        },
        {
          "internalType": "uint256",
          "name": "reward",
          "type": "uint256"
        },
        {
          "internalType": "uint256",
          "name": "lootRarity",
          "type": "uint256"
        }
      ],
      "stateMutability": "view",
      "type": "function"
    },
    {
      "inputs": [
        {
          "internalType": "uint256",
          "name": "gameId",
          "type": "uint256"
        }
      ],
      "name": "getGame",
      "outputs": [
        {
          "components": [
            {
              "internalType": "address",
              "name": "player",
              "type": "address"
            },
            {
              "internalType": "uint256",
              "name": "gameId",
              "type": "uint256"
            },
            {
              "internalType": "int256",
              "name": "position",
              "type": "int256"
            },
            {
              "internalType": "uint256",
              "name": "multiplier",
              "type": "uint256"
            },
            {
              "internalType": "uint256",
              "name": "reward",
              "type": "uint256"
            },
            {
              "internalType": "uint256",
              "name": "lootRarity",
              "type": "uint256"
            }
          ],
          "internalType": "struct Plinko.GameResult",
          "name": "",
          "type": "tuple"
        }
      ],
      "stateMutability": "view",
      "type": "function"
    },
    {
      "inputs": [
        {
          "internalType": "uint256",
          "name": "gameId",
          "type": "uint256"
        }
      ],
      "name": "getPendingGame",
      "outputs": [
        {
          "components": [
            {
              "internalType": "address",
              "name": "player",
              "type": "address"
            },
            {
              "internalType": "uint256",
              "name": "amount",
              "type": "uint256"
            },
            {
              "internalType": "uint8",
              "name": "rows",
              "type": "uint8"
            }
          ],
          "internalType": "struct Plinko.PendingGame",
          "name": "",
          "type": "tuple"
        }
      ],
      "stateMutability": "view",
      "type": "function"
    },
    {
      "inputs": [],
      "name": "getPrizePool",
      "outputs": [
        {
          "internalType": "uint256",
          "name": "",
          "type": "uint256"
        }
      ],
      "stateMutability": "view",
      "type": "function"
    },
    {
      "inputs": [
        {
          "internalType": "address",
          "name": "treasury",
          "type": "address"
        },
        {
          "internalType": "uint256",
          "name": "minPlay",
          "type": "uint256"
        },
        {
          "internalType": "uint256",
          "name": "maxPlay",
          "type": "uint256"
        },
        {
          "internalType": "uint16",
          "name": "houseEdgeBps",
          "type": "uint16"
        }
      ],
      "name": "initialize",
      "outputs": [],
      "stateMutability": "nonpayable",
      "type": "function"
    },
    {
      "inputs": [],
      "name": "owner",
      "outputs": [
        {
          "internalType": "address",
          "name": "",
          "type": "address"
        }
      ],
      "stateMutability": "view",
      "type": "function"
    },
    {
      "inputs": [],
      "name": "pause",
      "outputs": [],
      "stateMutability": "nonpayable",
      "type": "function"
    },
    {
      "inputs": [
        {
          "internalType": "uint256",
          "name": "",
          "type": "uint256"
        }
      ],
      "name": "pendingGames",
      "outputs": [
        {
          "internalType": "address",
          "name": "player",
          "type": "address"
        },
        {
          "internalType": "uint256",
          "name": "amount",
          "type": "uint256"
        },
        {
          "internalType": "uint8",
          "name": "rows",
          "type": "uint8"
        }
      ],
      "stateMutability": "view",
      "type": "function"
    },
    {
      "inputs": [
        {
          "internalType": "uint256",
          "name": "amount",
          "type": "uint256"
        },
        {
          "internalType": "uint8",
          "name": "rows",
          "type": "uint8"
        }
      ],
      "name": "play",
      "outputs": [],
      "stateMutability": "payable",
      "type": "function"
    },
    {
      "inputs": [],
      "name": "prizePool",
      "outputs": [
        {
          "internalType": "uint256",
          "name": "",
          "type": "uint256"
        }
      ],
      "stateMutability": "view",
      "type": "function"
    },
    {
      "inputs": [],
      "name": "pythVRF",
      "outputs": [
        {
          "internalType": "contract IPythVRF",
          "name": "",
          "type": "address"
        }
      ],
      "stateMutability": "view",
      "type": "function"
    },
    {
      "inputs": [],
      "name": "renounceOwnership",
      "outputs": [],
      "stateMutability": "nonpayable",
      "type": "function"
    },
    {
      "inputs": [
        {
          "internalType": "address",
          "name": "_pythVRF",
          "type": "address"
        }
      ],
      "name": "setPythVRF",
      "outputs": [],
      "stateMutability": "nonpayable",
      "type": "function"
    },
    {
      "inputs": [],
      "name": "token",
      "outputs": [
        {
          "internalType": "address",
          "name": "",
          "type": "address"
        }
      ],
      "stateMutability": "view",
      "type": "function"
    },
    {
      "inputs": [
        {
          "internalType": "address",
          "name": "newOwner",
          "type": "address"
        }
      ],
      "name": "transferOwnership",
      "outputs": [],
      "stateMutability": "nonpayable",
      "type": "function"
    },
    {
      "inputs": [],
      "name": "unpause",
      "outputs": [],
      "stateMutability": "nonpayable",
      "type": "function"
    },
    {
      "inputs": [
        {
          "internalType": "bytes32",
          "name": "",
          "type": "bytes32"
        }
      ],
      "name": "vrfRequestToGame",
      "outputs": [
        {
          "internalType": "uint256",
          "name": "",
          "type": "uint256"
        }
      ],
      "stateMutability": "view",
      "type": "function"
    }
  ],
  "bytecode": "0x6080346100f057601f61112538819003918201601f19168301916001600160401b038311848410176100f5578084926060946040528339810103126100f0576100478161010b565b61005f60406100586020850161010b565b930161010b565b6001600160a01b03918216919082156100d757816000549460018060a01b03199480868816176000558260405197167f8be0079c531659141344cd1fd0a4f28419497f9722a3daafe3b4186f6b6457e0600080a360018055168360075416176007551690600654161760065561100590816101208239f35b604051631e4fbdf760e01b815260006004820152602490fd5b600080fd5b634e487b7160e01b600052604160045260246000fd5b51906001600160a01b03821682036100f05756fe608060408181526004918236101561001657600080fd5b600092833560e01c918263117a5b9014610db8575081631f1f897f146109c65781632e0be39a146109a75781633d598f80146109265781633f4ba83a146108fe578163579e94ee146108b55781635cd7692e146104ff578163715018a6146104a5578163719ce73e1461039c578163772d84c41461047c57816379502c551461042b57816383ba98ae146103eb5781638456cb59146103bb578163884bf67c1461039c5781638a7626d1146103745781638da5cb5b1461034c578163a2f77bcc14610288578163cbb6d6bd146101bc578163f2fde38b1461012c575063fc0c546a1461010157600080fd5b3461012857816003193601126101285760075490516001600160a01b039091168152602090f35b5080fd5b9050346101b85760203660031901126101b857610147610e20565b90610150610fa3565b6001600160a01b039182169283156101a2575050600054826001600160601b0360a01b821617600055167f8be0079c531659141344cd1fd0a4f28419497f9722a3daafe3b4186f6b6457e0600080a380f35b51631e4fbdf760e01b8152908101849052602490fd5b8280fd5b919050346101b85760803660031901126101b8576101d8610e20565b91602435604435926064359461ffff8616809603610284576101f8610fa3565b81519060a0820182811067ffffffffffffffff82111761026f5783526001600160a01b03168082526020820184905291810185905260608101869052608001869052600280546001600160a01b0319169091179055600355556005805462ffffff191690911782151560101b62ff00001617905580f35b604186634e487b7160e01b6000525260246000fd5b8680fd5b9050346101b85760203660031901126101b857818360c09460a083516102ad81610e3b565b8281528260208201528285820152826060820152826080820152015282358152600c602052208251916102df83610e3b565b60018060a01b038254169384845260018301546020850190815260028401549082860191825260a0600560038701549560608901968752870154966080890197885201549601958652825196875251602087015251908501525160608401525160808301525160a0820152f35b505034610128578160031936011261012857905490516001600160a01b039091168152602090f35b9050346101b85760203660031901126101b8576020928291358152600b845220549051908152f35b5050346101285781600319360112610128576020906009549051908152f35b83346103e857806003193601126103e8576103d4610fa3565b6201000062ff000019600554161760055580f35b80fd5b83346103e85760203660031901126103e857610405610e20565b61040d610fa3565b60018060a01b03166001600160601b0360a01b600654161760065580f35b8284346103e857806003193601126103e8575060ff60a092600180851b036002541692600354915490600554928151958652602086015284015261ffff8116606084015260101c1615156080820152f35b50503461012857816003193601126101285760065490516001600160a01b039091168152602090f35b83346103e857806003193601126103e8576104be610fa3565b600080546001600160a01b0319811682556001600160a01b03167f8be0079c531659141344cd1fd0a4f28419497f9722a3daafe3b4186f6b6457e08280a380f35b8391508260031936011261012857803560249384359260ff84168094036108b15760019360028554146108a2576002855560ff60055460101c166108775760088110158061086c575b1561083b57600354825490851061082b57841161081c576007546001600160a01b039790881680610773575084340361073f5761058a600a8604600954610ee1565b60095586808080888c600254165af13d1561073a573d67ffffffffffffffff8111610728578551906105c6601f8201601f191660200183610e89565b81528860203d92013e5b156106f4575b6008549060001982146106e35750918697879260ff600289889701988960085587519061060282610e6d565b338252856020998a998a85019384528185019788528d8152600a8b52209251166001600160601b0360a01b835416178255518b8201550191511660ff19825416179055600654169084518098819363f8413b0760e01b83525af180156106d95783949587916106a1575b508652600b905284205533907ffadb9547847a0c2c31f4c02590545e318d33d7aae99071caecf3fa4ce3cd7dca8480a3805580f35b82809550819392503d83116106d2575b6106bb8183610e89565b810103126106ce5751839290600b61066c565b8580fd5b503d6106b1565b82513d88823e3d90fd5b634e487b7160e01b88526011845287fd5b600f91506020606494519362461bcd60e51b85528401528201526e151c985b9cd9995c8819985a5b1959608a1b6044820152fd5b634e487b7160e01b8952604185528289fd5b6105d0565b600f91506020606494519362461bcd60e51b85528401528201526e082dadeeadce840dad2e6dac2e8c6d608b1b6044820152fd5b610782600a8704600954610ee1565b60095560025485516323b872dd60e01b602080830191825233868401908152938d166001600160a01b031684820152604084018a9052928b92906107d390829060600103601f198101835282610e89565b519082855af11561081257875187903d61080b575050803b155b6107f757506105d6565b9150925191635274afe760e01b8352820152fd5b14156107ed565b84513d89823e3d90fd5b509051631765320160e11b8152fd5b835163989e301760e01b81528390fd5b50600c866020606494519362461bcd60e51b85528401528201526b496e76616c696420726f777360a01b6044820152fd5b506010811115610548565b506006866020606494519362461bcd60e51b85528401528201526514185d5cd95960d21b6044820152fd5b509051633ee5aeb560e01b8152fd5b8480fd5b9050346101b85760203660031901126101b8576060928291358152600a6020522060018060a01b038154169160ff60026001840154930154169181519384526020840152820152f35b83346103e857806003193601126103e857610917610fa3565b62ff0000196005541660055580f35b9050346101b85760203660031901126101b85782829160609483805161094b81610e6d565b8281528260208201520152358152600a602052209060ff815161096d81610e6d565b60018060a01b0384541693848252838360026001840154936020860194855201541692019182528351948552516020850152511690820152f35b5050346101285781600319360112610128576020906008549051908152f35b919050346101b857806003193601126101b85781359160249182359060018060a01b0380600654163303610d8b578587526020600b81528288205496878952600a8252838920958387541615610d5a5789978a60ff9060ff60028b015416915b8d8382841610610ce757505050610a3d908a610eee565b946103e8610a7260018b015488610a6b61ffff6005541692610a63612710938492610eab565b049283610eab565b0490610ed4565b98069860058a108d8d818d8415610c9b5750505050600a8a028a8104600a148b151715610c895791610abb8f969594928f9460649004905b80610c7e575b610c5b575b8c610ee1565b9384610b99575b509389979593898e7fa1a9c34b0ade82ee96ed960c9d5d7ea6299e81b7021ed017c5f0e3f260726ced9f9d9b99979560809f9d958e968160059954169981519a610b0b8c610e3b565b8b528c8b0193808552828c0195865260608c0196875260808c0197885260a08c01998a528152600c8d52209851166001600160601b0360a01b895416178855516001880155516002870155516003860155519084015551910155600a82528a600285822082815582600182015501558a52600b8152898381205582519586528501528301526060820152a280f35b90925081600296929495965416918460075416928585541690803b156101b8578c5163a00c695160e01b81526001600160a01b039586168a820190815292909516602083015260408201889052849182908490829060600103925af18015610c4f57610c0d575b50918c918e959493610ac2565b67ffffffffffffffff989e929594939b999c9a988211610c3e57508b529b9799969895979591929091908982610c00565b634e487b7160e01b83526041855282fd5b8f8b51903d90823e3d90fd5b610c799060095490610c71600a83048093610ed4565b600955610ee1565b610ab5565b506009541515610ab0565b634e487b7160e01b8f5260118652848ffd5b60149098979694919295939810610cb7575b90610abb91610aaa565b929495965050915060058a028a81046005148b151715610c895791610abb8f969594928f94606490049150610cad565b90919b8c8a51898101918d835260ff60f81b9060f81b168c82015260218152610d0f81610e6d565b5190206001908116610d545750600019915b8282019283129112908015821691151617610d42579a600101811690610a26565b634e487b7160e01b8e5260118552838efd5b91610d21565b845162461bcd60e51b8152908101839052600c818901526b496e76616c69642067616d6560a01b6044820152606490fd5b815162461bcd60e51b81526020818601526008818701526727b7363c902b292360c11b6044820152606490fd5b92915034610e1c576020366003190112610e1c578160c09482358152600c602052209060018060a01b0382541692600183015490600284015491600560038601549486015495015495875260208701528501526060840152608083015260a0820152f35b8380fd5b600435906001600160a01b0382168203610e3657565b600080fd5b60c0810190811067ffffffffffffffff821117610e5757604052565b634e487b7160e01b600052604160045260246000fd5b6060810190811067ffffffffffffffff821117610e5757604052565b90601f8019910116810190811067ffffffffffffffff821117610e5757604052565b81810292918115918404141715610ebe57565b634e487b7160e01b600052601160045260246000fd5b91908203918211610ebe57565b91908201809211610ebe57565b6000811215610f9e57600160ff1b8114610ebe576000035b80610f1357505061c35090565b619c4080820291820503610ebe578115610f8857600160ff1b8114600019831416610ebe5761c3509082900580821115610f7d578103908111610ebe57905b6101f480820291820403610ebe57610f6991610ee1565b620186a0808211610f78575090565b905090565b50506107d090610f52565b634e487b7160e01b600052601260045260246000fd5b610f06565b6000546001600160a01b03163303610fb757565b60405163118cdaa760e01b8152336004820152602490fdfea264697066735822122069fda3bfa439c1d3d791f0b254d91ea68d1e6d65f31dc6c65c5bff95c6e9c81564736f6c63430008180033",
  "linkReferences": {},
  "deployedLinkReferences": {}
}