{"contracts/casino/Jackpot.sol":{"Jackpot":{"abi":[{"inputs":[{"internalType":"address","name":"_owner","type":"address"},{"internalType":"address","name":"_token","type":"address"},{"internalType":"address","name":"_pythVRF","type":"address"}],"stateMutability":"nonpayable","type":"constructor"},{"inputs":[{"internalType":"address","name":"owner","type":"address"}],"name":"OwnableInvalidOwner","type":"error"},{"inputs":[{"internalType":"address","name":"account","type":"address"}],"name":"OwnableUnauthorizedAccount","type":"error"},{"inputs":[],"name":"ReentrancyGuardReentrantCall","type":"error"},{"inputs":[{"internalType":"address","name":"token","type":"address"}],"name":"SafeERC20FailedOperation","type":"error"},{"anonymous":false,"inputs":[{"indexed":true,"internalType":"uint256","name":"raffleId","type":"uint256"},{"indexed":true,"internalType":"address","name":"player","type":"address"},{"indexed":false,"internalType":"uint256","name":"amount","type":"uint256"},{"indexed":false,"internalType":"uint256","name":"poolContribution","type":"uint256"}],"name":"EntryPlaced","type":"event"},{"anonymous":false,"inputs":[{"indexed":true,"internalType":"address","name":"previousOwner","type":"address"},{"indexed":true,"internalType":"address","name":"newOwner","type":"address"}],"name":"OwnershipTransferred","type":"event"},{"anonymous":false,"inputs":[{"indexed":true,"internalType":"uint256","name":"raffleId","type":"uint256"}],"name":"RaffleCreated","type":"event"},{"anonymous":false,"inputs":[{"indexed":true,"internalType":"uint256","name":"raffleId","type":"uint256"},{"indexed":true,"internalType":"address","name":"winner","type":"address"},{"indexed":false,"internalType":"uint256","name":"prize","type":"uint256"}],"name":"WinnerDrawn","type":"event"},{"inputs":[{"internalType":"uint256","name":"raffleId","type":"uint256"}],"name":"drawWinner","outputs":[],"stateMutability":"nonpayable","type":"function"},{"inputs":[{"internalType":"uint256","name":"","type":"uint256"},{"internalType":"uint256","name":"","type":"uint256"}],"name":"entries","outputs":[{"internalType":"address","name":"player","type":"address"},{"internalType":"uint256","name":"amount","type":"uint256"},{"internalType":"uint256","name":"timestamp","type":"uint256"}],"stateMutability":"view","type":"function"},{"inputs":[{"internalType":"bytes32","name":"requestId","type":"bytes32"},{"internalType":"uint256","name":"randomness","type":"uint256"}],"name":"fulfillRandomness","outputs":[],"stateMutability":"nonpayable","type":"function"},{"inputs":[{"internalType":"uint256","name":"raffleId","type":"uint256"}],"name":"getRaffle","outputs":[{"components":[{"internalType":"uint256","name":"raffleId","type":"uint256"},{"internalType":"uint256","name":"totalPool","type":"uint256"},{"internalType":"uint256","name":"totalEntries","type":"uint256"},{"internalType":"address","name":"winner","type":"address"},{"internalType":"bool","name":"drawn","type":"bool"},{"internalType":"bytes32","name":"vrfRequestId","type":"bytes32"}],"internalType":"struct Jackpot.Raffle","name":"","type":"tuple"}],"stateMutability":"view","type":"function"},{"inputs":[{"internalType":"uint256","name":"raffleId","type":"uint256"}],"name":"getRaffleEntries","outputs":[{"components":[{"internalType":"address","name":"player","type":"address"},{"internalType":"uint256","name":"amount","type":"uint256"},{"internalType":"uint256","name":"timestamp","type":"uint256"}],"internalType":"struct Jackpot.Entry[]","name":"","type":"tuple[]"}],"stateMutability":"view","type":"function"},{"inputs":[],"name":"owner","outputs":[{"internalType":"address","name":"","type":"address"}],"stateMutability":"view","type":"function"},{"inputs":[{"internalType":"uint256","name":"amount","type":"uint256"}],"name":"placeBet","outputs":[],"stateMutability":"payable","type":"function"},{"inputs":[],"name":"pythVRF","outputs":[{"internalType":"contract IPythVRF","name":"","type":"address"}],"stateMutability":"view","type":"function"},{"inputs":[],"name":"raffleCounter","outputs":[{"internalType":"uint256","name":"","type":"uint256"}],"stateMutability":"view","type":"function"},{"inputs":[{"internalType":"uint256","name":"","type":"uint256"}],"name":"raffles","outputs":[{"internalType":"uint256","name":"raffleId","type":"uint256"},{"internalType":"uint256","name":"totalPool","type":"uint256"},{"internalType":"uint256","name":"totalEntries","type":"uint256"},{"internalType":"address","name":"winner","type":"address"},{"internalType":"bool","name":"drawn","type":"bool"},{"internalType":"bytes32","name":"vrfRequestId","type":"bytes32"}],"stateMutability":"view","type":"function"},{"inputs":[],"name":"rakeBps","outputs":[{"internalType":"uint16","name":"","type":"uint16"}],"stateMutability":"view","type":"function"},{"inputs":[],"name":"renounceOwnership","outputs":[],"stateMutability":"nonpayable","type":"function"},{"inputs":[{"internalType":"address","name":"_pythVRF","type":"address"}],"name":"setPythVRF","outputs":[],"stateMutability":"nonpayable","type":"function"},{"inputs":[{"internalType":"uint16","name":"newRakeBps","type":"uint16"}],"name":"setRake","outputs":[],"stateMutability":"nonpayable","type":"function"},{"inputs":[],"name":"startNewRaffle","outputs":[],"stateMutability":"nonpayable","type":"function"},{"inputs":[],"name":"token","outputs":[{"internalType":"address","name":"","type":"address"}],"stateMutability":"view","type":"function"},{"inputs":[],"name":"totalEntries","outputs":[{"internalType":"uint256","name":"","type":"uint256"}],"stateMutability":"view","type":"function"},{"inputs":[],"name":"totalPool","outputs":[{"internalType":"uint256","name":"","type":"uint256"}],"stateMutability":"view","type":"function"},{"inputs":[{"internalType":"address","name":"newOwner","type":"address"}],"name":"transferOwnership","outputs":[],"stateMutability":"nonpayable","type":"function"},{"inputs":[{"internalType":"bytes32","name":"","type":"bytes32"}],"name":"vrfRequestToRaffle","outputs":[{"internalType":"uint256","name":"","type":"uint256"}],"stateMutability":"view","type":"function"}],"evm":{"bytecode":{"linkReferences":{},"object":"6080346100ff57601f61111138819003918201601f19168301916001600160401b03831184841017610104578084926060946040528339810103126100ff576100478161011a565b61005f60406100586020850161011a565b930161011a565b6001600160a01b03918216919082156100e657816000549460018060a01b03199480868816176000558260405197167f8be0079c531659141344cd1fd0a4f28419497f9722a3daafe3b4186f6b6457e0600080a36001805516836003541617600355169060025416176002556101f461ffff196006541617600655610fe2908161012f8239f35b604051631e4fbdf760e01b815260006004820152602490fd5b600080fd5b634e487b7160e01b600052604160045260246000fd5b51906001600160a01b03821682036100ff5756fe608060408181526004918236101561001657600080fd5b600092833560e01c91826310fe7c4814610a3f5750816317b937e6146109e15781631f1f897f1461076d57816321c9c44a1461074a5781635d4bc0ce146106e157816360b2a56a146105cc578163715018a61461057257816373c7da8c146104f7578163772d84c4146104ce5781637fef036e146104af57816383ba98ae146104665781638cf855181461043e5781638da5cb5b14610416578163a91f3e56146103d2578163c2f306a5146103b3578163dea3f335146102a8578163e4dafec9146101dd578163ecfb49a3146101bf578163f2fde38b1461012c575063fc0c546a1461010157600080fd5b3461012857816003193601126101285760035490516001600160a01b039091168152602090f35b5080fd5b919050346101bb5760203660031901126101bb576001600160a01b038235818116939192908490036101b757610160610f18565b83156101a157505082546001600160a01b0319811683178455167f8be0079c531659141344cd1fd0a4f28419497f9722a3daafe3b4186f6b6457e08380a380f35b51631e4fbdf760e01b8152908101849052602490fd5b8480fd5b8280fd5b9050346101bb57826003193601126101bb5760209250549051908152f35b9050346101bb5760203660031901126101bb57818360c09460a0835161020281610de9565b82815282602082015282858201528260608201528260808201520152823581526009602052209180519161023583610de9565b83549384845260018101549260208501938452600282015481860190815260038301549460a0600180821b03956060890195878916875260ff60808b0199841c161515895201549701968752825197885251602088015251908601525116606084015251151560808301525160a0820152f35b8391503461012857602090816003193601126101bb5780358352600882528383209182549167ffffffffffffffff83116103a0575092908451906102f1858260051b0183610e37565b8082528482018094845285842084915b83831061035d5750505050845193808501918186525180925285850193925b82811061032d5785850386f35b835180516001600160a01b0316865280830151868401528701518786015260609094019392810192600101610320565b6003886001928b9a97989a5161037281610e1b565b848060a01b038654168152848601548382015260028601548d82015281520192019201919096949396610301565b634e487b7160e01b855260419052602484fd5b5050346101285781600319360112610128576020906007549051908152f35b83346104135780600319360112610413576103eb610f18565b60075460001981146104005760010160075580f35b506011602492634e487b7160e01b835252fd5b80fd5b505034610128578160031936011261012857905490516001600160a01b039091168152602090f35b9050346101bb5760203660031901126101bb576020928291358152600a845220549051908152f35b83903461012857602036600319011261012857356001600160a01b0381169081900361012857610494610f18565b6bffffffffffffffffffffffff60a01b600254161760025580f35b5050346101285781600319360112610128576020906005549051908152f35b50503461012857816003193601126101285760025490516001600160a01b039091168152602090f35b9050346101bb5760203660031901126101bb5780359161ffff831680930361056e57610521610f18565b6103e8831161053b57505061ffff19600654161760065580f35b906020606492519162461bcd60e51b8352820152600d60248201526c0a4c2d6ca40e8dede40d0d2ced609b1b6044820152fd5b8380fd5b833461041357806003193601126104135761058b610f18565b80546001600160a01b03198116825581906001600160a01b03167f8be0079c531659141344cd1fd0a4f28419497f9722a3daafe3b4186f6b6457e08280a380f35b919050346101bb5760208060031936011261056e578235926105ec610f18565b8385526009825282852061060285825414610e66565b61061660ff600383015460a01c1615610ea3565b6001810154156106b5579081610633600288959401541515610edf565b600254855163f8413b0760e01b8152948491869185918391906001600160a01b03165af19384156106ab578794610677575b50928091600a94015585525282205580f35b93508284813d83116106a4575b61068e8183610e37565b810103126106a057600a935193610665565b8680fd5b503d610684565b85513d89823e3d90fd5b50915162461bcd60e51b8152918201526007602482015266139bc81c1bdbdb60ca1b6044820152606490fd5b919050346101bb5760203660031901126101bb5760ff8160c094843581526009602052208054936001820154936002830154916003840154930154948151968752602087015285015260018060a01b038116606085015260a01c161515608083015260a0820152f35b50503461012857816003193601126101285760209061ffff600654169051908152f35b9050346101bb57816003193601126101bb576002546001600160a01b039282359160249190851633036109b457828652602092600a8452818720549485885260098552828820936107c087865414610e66565b60038501978854956107d860ff8860a01c1615610ea3565b888b5260088852858b20805480156107f08115610edf565b6109a25791836108096002936108459588350690610d94565b5054169b6001820154998d600160a01b916affffffffffffffffffffff60a81b1617179055610839898754610dc6565b86550154600554610dc6565b600555600354168061091a575088808080888c5af13d15610915573d67ffffffffffffffff811161090357855190610886601f8201601f19168a0183610e37565b81528a883d92013e5b156108cf575050907f9c1e776cbdf221420917b223eb09503e61c8e990a1c09065cbf15bdff06a555e9392915b8752600a8352868181205551908152a380f35b835162461bcd60e51b8152918201869052600f908201526e151c985b9cd9995c8819985a5b1959608a1b6044820152606490fd5b634e487b7160e01b8b5260418452828bfd5b61088f565b90989796959493929183519963a9059cbb60e01b878c015288818c01528560448c015260448b5260808b01918b831067ffffffffffffffff8411176109915750509861098c917f9c1e776cbdf221420917b223eb09503e61c8e990a1c09065cbf15bdff06a555e9798999a8552610f44565b6108bc565b634e487b7160e01b8b526041905289fd5b634e487b7160e01b8d5260128652848dfd5b600860649260208693519362461bcd60e51b85528401528201526727b7363c902b292360c11b6044820152fd5b8284346104135781600319360112610413576024359235815260086020528181209081548410156104135750606092610a1991610d94565b5060018060a01b0381541691600260018301549201549181519384526020840152820152f35b84908460208060031936011261056e578435916001936002855414610d865750600284556003546001600160a01b039290831680610d265750833403610cf2575b61ffff60065416808502908582041485151715610cdf57612710610aa5910485610dc6565b9060075493848852600982528388205415610c37575b83882060ff600382015460a01c16610bfd57808860029201610ade868254610e59565b905501805490888201809211610bea575584885260088252838820845191610b0583610e1b565b338352838301908582528684019242845280549068010000000000000000821015610bd65790610b39918c82018155610d94565b949094610bc4575184546001600160a01b0319169116178355518883015551600291909101558754610b6c908390610e59565b8855600554868101809111610bb157600555825194855284015233927fb0ba8b4c814caa46eeb64521dde09ebd848abcd48587091cf9680813a89a64489190a3805580f35b634e487b7160e01b885260118952602488fd5b634e487b7160e01b8c528b8d5260248cfd5b50634e487b7160e01b8c5260418d5260248cfd5b634e487b7160e01b8a5260118b5260248afd5b845162461bcd60e51b8152808b0184905260146024820152732930b33336329030b63932b0b23c90323930bbb760611b6044820152606490fd5b8351610c4281610de9565b858152898984830181815287840190828252606085019183835260808601918483528a60a08801958087528d815260098b522096518755518d870155516002860155856003860192511682549160ff60a01b9051151560a01b16916affffffffffffffffffffff60a81b161717905551910155847f0b5745354685a046e72f24602bcf00fa0ee07f0bf511afb5f2d3ab636241e41b8980a2610abb565b634e487b7160e01b875260118852602487fd5b8690606492519162461bcd60e51b8352820152600f60248201526e082dadeeadce840dad2e6dac2e8c6d608b1b6044820152fd5b82516323b872dd60e01b83820152336024820152306044820152606480820187905281529060a0820167ffffffffffffffff811183821017610d73578452610d6e9190610f44565b610a80565b634e487b7160e01b895260418a52602489fd5b633ee5aeb560e01b81528690fd5b8054821015610db0576000526003602060002091020190600090565b634e487b7160e01b600052603260045260246000fd5b91908203918211610dd357565b634e487b7160e01b600052601160045260246000fd5b60c0810190811067ffffffffffffffff821117610e0557604052565b634e487b7160e01b600052604160045260246000fd5b6060810190811067ffffffffffffffff821117610e0557604052565b90601f8019910116810190811067ffffffffffffffff821117610e0557604052565b91908201809211610dd357565b15610e6d57565b60405162461bcd60e51b815260206004820152600e60248201526d496e76616c696420726166666c6560901b6044820152606490fd5b15610eaa57565b60405162461bcd60e51b815260206004820152600d60248201526c20b63932b0b23c90323930bbb760991b6044820152606490fd5b15610ee657565b60405162461bcd60e51b815260206004820152600a6024820152694e6f20656e747269657360b01b6044820152606490fd5b6000546001600160a01b03163303610f2c57565b60405163118cdaa760e01b8152336004820152602490fd5b906000602091828151910182855af115610fa0576000513d610f9757506001600160a01b0381163b155b610f755750565b604051635274afe760e01b81526001600160a01b039091166004820152602490fd5b60011415610f6e565b6040513d6000823e3d90fdfea2646970667358221220ec9e7327fb4482b29ed9e4293cd0e3af8ed08229ce0e0a35c522fd2f64ccd6fe64736f6c63430008180033","opcodes":"PUSH1 0x80 CALLVALUE PUSH2 0xFF JUMPI PUSH1 0x1F PUSH2 0x1111 CODESIZE DUP2 SWAP1 SUB SWAP2 DUP3 ADD PUSH1 0x1F NOT AND DUP4 ADD SWAP2 PUSH1 0x1 PUSH1 0x1 PUSH1 0x40 SHL SUB DUP4 GT DUP5 DUP5 LT OR PUSH2 0x104 JUMPI DUP1 DUP5 SWAP3 PUSH1 0x60 SWAP5 PUSH1 0x40 MSTORE DUP4 CODECOPY DUP2 ADD SUB SLT PUSH2 0xFF JUMPI PUSH2 0x47 DUP2 PUSH2 0x11A JUMP JUMPDEST PUSH2 0x5F PUSH1 0x40 PUSH2 0x58 PUSH1 0x20 DUP6 ADD PUSH2 0x11A JUMP JUMPDEST SWAP4 ADD PUSH2 0x11A JUMP JUMPDEST PUSH1 0x1 PUSH1 0x1 PUSH1 0xA0 SHL SUB SWAP2 DUP3 AND SWAP2 SWAP1 DUP3 ISZERO PUSH2 0xE6 JUMPI DUP2 PUSH1 0x0 SLOAD SWAP5 PUSH1 0x1 DUP1 PUSH1 0xA0 SHL SUB NOT SWAP5 DUP1 DUP7 DUP9 AND OR PUSH1 0x0 SSTORE DUP3 PUSH1 0x40 MLOAD SWAP8 AND PUSH32 0x8BE0079C531659141344CD1FD0A4F28419497F9722A3DAAFE3B4186F6B6457E0 PUSH1 0x0 DUP1 LOG3 PUSH1 0x1 DUP1 SSTORE AND DUP4 PUSH1 0x3 SLOAD AND OR PUSH1 0x3 SSTORE AND SWAP1 PUSH1 0x2 SLOAD AND OR PUSH1 0x2 SSTORE PUSH2 0x1F4 PUSH2 0xFFFF NOT PUSH1 0x6 SLOAD AND OR PUSH1 0x6 SSTORE PUSH2 0xFE2 SWAP1 DUP2 PUSH2 0x12F DUP3 CODECOPY RETURN JUMPDEST PUSH1 0x40 MLOAD PUSH4 0x1E4FBDF7 PUSH1 0xE0 SHL DUP2 MSTORE PUSH1 0x0 PUSH1 0x4 DUP3 ADD MSTORE PUSH1 0x24 SWAP1 REVERT JUMPDEST PUSH1 0x0 DUP1 REVERT JUMPDEST PUSH4 0x4E487B71 PUSH1 0xE0 SHL PUSH1 0x0 MSTORE PUSH1 0x41 PUSH1 0x4 MSTORE PUSH1 0x24 PUSH1 0x0 REVERT JUMPDEST MLOAD SWAP1 PUSH1 0x1 PUSH1 0x1 PUSH1 0xA0 SHL SUB DUP3 AND DUP3 SUB PUSH2 0xFF JUMPI JUMP INVALID PUSH1 0x80 PUSH1 0x40 DUP2 DUP2 MSTORE PUSH1 0x4 SWAP2 DUP3 CALLDATASIZE LT ISZERO PUSH2 0x16 JUMPI PUSH1 0x0 DUP1 REVERT JUMPDEST PUSH1 0x0 SWAP3 DUP4 CALLDATALOAD PUSH1 0xE0 SHR SWAP2 DUP3 PUSH4 0x10FE7C48 EQ PUSH2 0xA3F JUMPI POP DUP2 PUSH4 0x17B937E6 EQ PUSH2 0x9E1 JUMPI DUP2 PUSH4 0x1F1F897F EQ PUSH2 0x76D JUMPI DUP2 PUSH4 0x21C9C44A EQ PUSH2 0x74A JUMPI DUP2 PUSH4 0x5D4BC0CE EQ PUSH2 0x6E1 JUMPI DUP2 PUSH4 0x60B2A56A EQ PUSH2 0x5CC JUMPI DUP2 PUSH4 0x715018A6 EQ PUSH2 0x572 JUMPI DUP2 PUSH4 0x73C7DA8C EQ PUSH2 0x4F7 JUMPI DUP2 PUSH4 0x772D84C4 EQ PUSH2 0x4CE JUMPI DUP2 PUSH4 0x7FEF036E EQ PUSH2 0x4AF JUMPI DUP2 PUSH4 0x83BA98AE EQ PUSH2 0x466 JUMPI DUP2 PUSH4 0x8CF85518 EQ PUSH2 0x43E JUMPI DUP2 PUSH4 0x8DA5CB5B EQ PUSH2 0x416 JUMPI DUP2 PUSH4 0xA91F3E56 EQ PUSH2 0x3D2 JUMPI DUP2 PUSH4 0xC2F306A5 EQ PUSH2 0x3B3 JUMPI DUP2 PUSH4 0xDEA3F335 EQ PUSH2 0x2A8 JUMPI DUP2 PUSH4 0xE4DAFEC9 EQ PUSH2 0x1DD JUMPI DUP2 PUSH4 0xECFB49A3 EQ PUSH2 0x1BF JUMPI DUP2 PUSH4 0xF2FDE38B EQ PUSH2 0x12C JUMPI POP PUSH4 0xFC0C546A EQ PUSH2 0x101 JUMPI PUSH1 0x0 DUP1 REVERT JUMPDEST CALLVALUE PUSH2 0x128 JUMPI DUP2 PUSH1 0x3 NOT CALLDATASIZE ADD SLT PUSH2 0x128 JUMPI PUSH1 0x3 SLOAD SWAP1 MLOAD PUSH1 0x1 PUSH1 0x1 PUSH1 0xA0 SHL SUB SWAP1 SWAP2 AND DUP2 MSTORE PUSH1 0x20 SWAP1 RETURN JUMPDEST POP DUP1 REVERT JUMPDEST SWAP2 SWAP1 POP CALLVALUE PUSH2 0x1BB JUMPI PUSH1 0x20 CALLDATASIZE PUSH1 0x3 NOT ADD SLT PUSH2 0x1BB JUMPI PUSH1 0x1 PUSH1 0x1 PUSH1 0xA0 SHL SUB DUP3 CALLDATALOAD DUP2 DUP2 AND SWAP4 SWAP2 SWAP3 SWAP1 DUP5 SWAP1 SUB PUSH2 0x1B7 JUMPI PUSH2 0x160 PUSH2 0xF18 JUMP JUMPDEST DUP4 ISZERO PUSH2 0x1A1 JUMPI POP POP DUP3 SLOAD PUSH1 0x1 PUSH1 0x1 PUSH1 0xA0 SHL SUB NOT DUP2 AND DUP4 OR DUP5 SSTORE AND PUSH32 0x8BE0079C531659141344CD1FD0A4F28419497F9722A3DAAFE3B4186F6B6457E0 DUP4 DUP1 LOG3 DUP1 RETURN JUMPDEST MLOAD PUSH4 0x1E4FBDF7 PUSH1 0xE0 SHL DUP2 MSTORE SWAP1 DUP2 ADD DUP5 SWAP1 MSTORE PUSH1 0x24 SWAP1 REVERT JUMPDEST DUP5 DUP1 REVERT JUMPDEST DUP3 DUP1 REVERT JUMPDEST SWAP1 POP CALLVALUE PUSH2 0x1BB JUMPI DUP3 PUSH1 0x3 NOT CALLDATASIZE ADD SLT PUSH2 0x1BB JUMPI PUSH1 0x20 SWAP3 POP SLOAD SWAP1 MLOAD SWAP1 DUP2 MSTORE RETURN JUMPDEST SWAP1 POP CALLVALUE PUSH2 0x1BB JUMPI PUSH1 0x20 CALLDATASIZE PUSH1 0x3 NOT ADD SLT PUSH2 0x1BB JUMPI DUP2 DUP4 PUSH1 0xC0 SWAP5 PUSH1 0xA0 DUP4 MLOAD PUSH2 0x202 DUP2 PUSH2 0xDE9 JUMP JUMPDEST DUP3 DUP2 MSTORE DUP3 PUSH1 0x20 DUP3 ADD MSTORE DUP3 DUP6 DUP3 ADD MSTORE DUP3 PUSH1 0x60 DUP3 ADD MSTORE DUP3 PUSH1 0x80 DUP3 ADD MSTORE ADD MSTORE DUP3 CALLDATALOAD DUP2 MSTORE PUSH1 0x9 PUSH1 0x20 MSTORE KECCAK256 SWAP2 DUP1 MLOAD SWAP2 PUSH2 0x235 DUP4 PUSH2 0xDE9 JUMP JUMPDEST DUP4 SLOAD SWAP4 DUP5 DUP5 MSTORE PUSH1 0x1 DUP2 ADD SLOAD SWAP3 PUSH1 0x20 DUP6 ADD SWAP4 DUP5 MSTORE PUSH1 0x2 DUP3 ADD SLOAD DUP2 DUP7 ADD SWAP1 DUP2 MSTORE PUSH1 0x3 DUP4 ADD SLOAD SWAP5 PUSH1 0xA0 PUSH1 0x1 DUP1 DUP3 SHL SUB SWAP6 PUSH1 0x60 DUP10 ADD SWAP6 DUP8 DUP10 AND DUP8 MSTORE PUSH1 0xFF PUSH1 0x80 DUP12 ADD SWAP10 DUP5 SHR AND ISZERO ISZERO DUP10 MSTORE ADD SLOAD SWAP8 ADD SWAP7 DUP8 MSTORE DUP3 MLOAD SWAP8 DUP9 MSTORE MLOAD PUSH1 0x20 DUP9 ADD MSTORE MLOAD SWAP1 DUP7 ADD MSTORE MLOAD AND PUSH1 0x60 DUP5 ADD MSTORE MLOAD ISZERO ISZERO PUSH1 0x80 DUP4 ADD MSTORE MLOAD PUSH1 0xA0 DUP3 ADD MSTORE RETURN JUMPDEST DUP4 SWAP2 POP CALLVALUE PUSH2 0x128 JUMPI PUSH1 0x20 SWAP1 DUP2 PUSH1 0x3 NOT CALLDATASIZE ADD SLT PUSH2 0x1BB JUMPI DUP1 CALLDATALOAD DUP4 MSTORE PUSH1 0x8 DUP3 MSTORE DUP4 DUP4 KECCAK256 SWAP2 DUP3 SLOAD SWAP2 PUSH8 0xFFFFFFFFFFFFFFFF DUP4 GT PUSH2 0x3A0 JUMPI POP SWAP3 SWAP1 DUP5 MLOAD SWAP1 PUSH2 0x2F1 DUP6 DUP3 PUSH1 0x5 SHL ADD DUP4 PUSH2 0xE37 JUMP JUMPDEST DUP1 DUP3 MSTORE DUP5 DUP3 ADD DUP1 SWAP5 DUP5 MSTORE DUP6 DUP5 KECCAK256 DUP5 SWAP2 JUMPDEST DUP4 DUP4 LT PUSH2 0x35D JUMPI POP POP POP POP DUP5 MLOAD SWAP4 DUP1 DUP6 ADD SWAP2 DUP2 DUP7 MSTORE MLOAD DUP1 SWAP3 MSTORE DUP6 DUP6 ADD SWAP4 SWAP3 JUMPDEST DUP3 DUP2 LT PUSH2 0x32D JUMPI DUP6 DUP6 SUB DUP7 RETURN JUMPDEST DUP4 MLOAD DUP1 MLOAD PUSH1 0x1 PUSH1 0x1 PUSH1 0xA0 SHL SUB AND DUP7 MSTORE DUP1 DUP4 ADD MLOAD DUP7 DUP5 ADD MSTORE DUP8 ADD MLOAD DUP8 DUP7 ADD MSTORE PUSH1 0x60 SWAP1 SWAP5 ADD SWAP4 SWAP3 DUP2 ADD SWAP3 PUSH1 0x1 ADD PUSH2 0x320 JUMP JUMPDEST PUSH1 0x3 DUP9 PUSH1 0x1 SWAP3 DUP12 SWAP11 SWAP8 SWAP9 SWAP11 MLOAD PUSH2 0x372 DUP2 PUSH2 0xE1B JUMP JUMPDEST DUP5 DUP1 PUSH1 0xA0 SHL SUB DUP7 SLOAD AND DUP2 MSTORE DUP5 DUP7 ADD SLOAD DUP4 DUP3 ADD MSTORE PUSH1 0x2 DUP7 ADD SLOAD DUP14 DUP3 ADD MSTORE DUP2 MSTORE ADD SWAP3 ADD SWAP3 ADD SWAP2 SWAP1 SWAP7 SWAP5 SWAP4 SWAP7 PUSH2 0x301 JUMP JUMPDEST PUSH4 0x4E487B71 PUSH1 0xE0 SHL DUP6 MSTORE PUSH1 0x41 SWAP1 MSTORE PUSH1 0x24 DUP5 REVERT JUMPDEST POP POP CALLVALUE PUSH2 0x128 JUMPI DUP2 PUSH1 0x3 NOT CALLDATASIZE ADD SLT PUSH2 0x128 JUMPI PUSH1 0x20 SWAP1 PUSH1 0x7 SLOAD SWAP1 MLOAD SWAP1 DUP2 MSTORE RETURN JUMPDEST DUP4 CALLVALUE PUSH2 0x413 JUMPI DUP1 PUSH1 0x3 NOT CALLDATASIZE ADD SLT PUSH2 0x413 JUMPI PUSH2 0x3EB PUSH2 0xF18 JUMP JUMPDEST PUSH1 0x7 SLOAD PUSH1 0x0 NOT DUP2 EQ PUSH2 0x400 JUMPI PUSH1 0x1 ADD PUSH1 0x7 SSTORE DUP1 RETURN JUMPDEST POP PUSH1 0x11 PUSH1 0x24 SWAP3 PUSH4 0x4E487B71 PUSH1 0xE0 SHL DUP4 MSTORE MSTORE REVERT JUMPDEST DUP1 REVERT JUMPDEST POP POP CALLVALUE PUSH2 0x128 JUMPI DUP2 PUSH1 0x3 NOT CALLDATASIZE ADD SLT PUSH2 0x128 JUMPI SWAP1 SLOAD SWAP1 MLOAD PUSH1 0x1 PUSH1 0x1 PUSH1 0xA0 SHL SUB SWAP1 SWAP2 AND DUP2 MSTORE PUSH1 0x20 SWAP1 RETURN JUMPDEST SWAP1 POP CALLVALUE PUSH2 0x1BB JUMPI PUSH1 0x20 CALLDATASIZE PUSH1 0x3 NOT ADD SLT PUSH2 0x1BB JUMPI PUSH1 0x20 SWAP3 DUP3 SWAP2 CALLDATALOAD DUP2 MSTORE PUSH1 0xA DUP5 MSTORE KECCAK256 SLOAD SWAP1 MLOAD SWAP1 DUP2 MSTORE RETURN JUMPDEST DUP4 SWAP1 CALLVALUE PUSH2 0x128 JUMPI PUSH1 0x20 CALLDATASIZE PUSH1 0x3 NOT ADD SLT PUSH2 0x128 JUMPI CALLDATALOAD PUSH1 0x1 PUSH1 0x1 PUSH1 0xA0 SHL SUB DUP2 AND SWAP1 DUP2 SWAP1 SUB PUSH2 0x128 JUMPI PUSH2 0x494 PUSH2 0xF18 JUMP JUMPDEST PUSH12 0xFFFFFFFFFFFFFFFFFFFFFFFF PUSH1 0xA0 SHL PUSH1 0x2 SLOAD AND OR PUSH1 0x2 SSTORE DUP1 RETURN JUMPDEST POP POP CALLVALUE PUSH2 0x128 JUMPI DUP2 PUSH1 0x3 NOT CALLDATASIZE ADD SLT PUSH2 0x128 JUMPI PUSH1 0x20 SWAP1 PUSH1 0x5 SLOAD SWAP1 MLOAD SWAP1 DUP2 MSTORE RETURN JUMPDEST POP POP CALLVALUE PUSH2 0x128 JUMPI DUP2 PUSH1 0x3 NOT CALLDATASIZE ADD SLT PUSH2 0x128 JUMPI PUSH1 0x2 SLOAD SWAP1 MLOAD PUSH1 0x1 PUSH1 0x1 PUSH1 0xA0 SHL SUB SWAP1 SWAP2 AND DUP2 MSTORE PUSH1 0x20 SWAP1 RETURN JUMPDEST SWAP1 POP CALLVALUE PUSH2 0x1BB JUMPI PUSH1 0x20 CALLDATASIZE PUSH1 0x3 NOT ADD SLT PUSH2 0x1BB JUMPI DUP1 CALLDATALOAD SWAP2 PUSH2 0xFFFF DUP4 AND DUP1 SWAP4 SUB PUSH2 0x56E JUMPI PUSH2 0x521 PUSH2 0xF18 JUMP JUMPDEST PUSH2 0x3E8 DUP4 GT PUSH2 0x53B JUMPI POP POP PUSH2 0xFFFF NOT PUSH1 0x6 SLOAD AND OR PUSH1 0x6 SSTORE DUP1 RETURN JUMPDEST SWAP1 PUSH1 0x20 PUSH1 0x64 SWAP3 MLOAD SWAP2 PUSH3 0x461BCD PUSH1 0xE5 SHL DUP4 MSTORE DUP3 ADD MSTORE PUSH1 0xD PUSH1 0x24 DUP3 ADD MSTORE PUSH13 0xA4C2D6CA40E8DEDE40D0D2CED PUSH1 0x9B SHL PUSH1 0x44 DUP3 ADD MSTORE REVERT JUMPDEST DUP4 DUP1 REVERT JUMPDEST DUP4 CALLVALUE PUSH2 0x413 JUMPI DUP1 PUSH1 0x3 NOT CALLDATASIZE ADD SLT PUSH2 0x413 JUMPI PUSH2 0x58B PUSH2 0xF18 JUMP JUMPDEST DUP1 SLOAD PUSH1 0x1 PUSH1 0x1 PUSH1 0xA0 SHL SUB NOT DUP2 AND DUP3 SSTORE DUP2 SWAP1 PUSH1 0x1 PUSH1 0x1 PUSH1 0xA0 SHL SUB AND PUSH32 0x8BE0079C531659141344CD1FD0A4F28419497F9722A3DAAFE3B4186F6B6457E0 DUP3 DUP1 LOG3 DUP1 RETURN JUMPDEST SWAP2 SWAP1 POP CALLVALUE PUSH2 0x1BB JUMPI PUSH1 0x20 DUP1 PUSH1 0x3 NOT CALLDATASIZE ADD SLT PUSH2 0x56E JUMPI DUP3 CALLDATALOAD SWAP3 PUSH2 0x5EC PUSH2 0xF18 JUMP JUMPDEST DUP4 DUP6 MSTORE PUSH1 0x9 DUP3 MSTORE DUP3 DUP6 KECCAK256 PUSH2 0x602 DUP6 DUP3 SLOAD EQ PUSH2 0xE66 JUMP JUMPDEST PUSH2 0x616 PUSH1 0xFF PUSH1 0x3 DUP4 ADD SLOAD PUSH1 0xA0 SHR AND ISZERO PUSH2 0xEA3 JUMP JUMPDEST PUSH1 0x1 DUP2 ADD SLOAD ISZERO PUSH2 0x6B5 JUMPI SWAP1 DUP2 PUSH2 0x633 PUSH1 0x2 DUP9 SWAP6 SWAP5 ADD SLOAD ISZERO ISZERO PUSH2 0xEDF JUMP JUMPDEST PUSH1 0x2 SLOAD DUP6 MLOAD PUSH4 0xF8413B07 PUSH1 0xE0 SHL DUP2 MSTORE SWAP5 DUP5 SWAP2 DUP7 SWAP2 DUP6 SWAP2 DUP4 SWAP2 SWAP1 PUSH1 0x1 PUSH1 0x1 PUSH1 0xA0 SHL SUB AND GAS CALL SWAP4 DUP5 ISZERO PUSH2 0x6AB JUMPI DUP8 SWAP5 PUSH2 0x677 JUMPI JUMPDEST POP SWAP3 DUP1 SWAP2 PUSH1 0xA SWAP5 ADD SSTORE DUP6 MSTORE MSTORE DUP3 KECCAK256 SSTORE DUP1 RETURN JUMPDEST SWAP4 POP DUP3 DUP5 DUP2 RETURNDATASIZE DUP4 GT PUSH2 0x6A4 JUMPI JUMPDEST PUSH2 0x68E DUP2 DUP4 PUSH2 0xE37 JUMP JUMPDEST DUP2 ADD SUB SLT PUSH2 0x6A0 JUMPI PUSH1 0xA SWAP4 MLOAD SWAP4 PUSH2 0x665 JUMP JUMPDEST DUP7 DUP1 REVERT JUMPDEST POP RETURNDATASIZE PUSH2 0x684 JUMP JUMPDEST DUP6 MLOAD RETURNDATASIZE DUP10 DUP3 RETURNDATACOPY RETURNDATASIZE SWAP1 REVERT JUMPDEST POP SWAP2 MLOAD PUSH3 0x461BCD PUSH1 0xE5 SHL DUP2 MSTORE SWAP2 DUP3 ADD MSTORE PUSH1 0x7 PUSH1 0x24 DUP3 ADD MSTORE PUSH7 0x139BC81C1BDBDB PUSH1 0xCA SHL PUSH1 0x44 DUP3 ADD MSTORE PUSH1 0x64 SWAP1 REVERT JUMPDEST SWAP2 SWAP1 POP CALLVALUE PUSH2 0x1BB JUMPI PUSH1 0x20 CALLDATASIZE PUSH1 0x3 NOT ADD SLT PUSH2 0x1BB JUMPI PUSH1 0xFF DUP2 PUSH1 0xC0 SWAP5 DUP5 CALLDATALOAD DUP2 MSTORE PUSH1 0x9 PUSH1 0x20 MSTORE KECCAK256 DUP1 SLOAD SWAP4 PUSH1 0x1 DUP3 ADD SLOAD SWAP4 PUSH1 0x2 DUP4 ADD SLOAD SWAP2 PUSH1 0x3 DUP5 ADD SLOAD SWAP4 ADD SLOAD SWAP5 DUP2 MLOAD SWAP7 DUP8 MSTORE PUSH1 0x20 DUP8 ADD MSTORE DUP6 ADD MSTORE PUSH1 0x1 DUP1 PUSH1 0xA0 SHL SUB DUP2 AND PUSH1 0x60 DUP6 ADD MSTORE PUSH1 0xA0 SHR AND ISZERO ISZERO PUSH1 0x80 DUP4 ADD MSTORE PUSH1 0xA0 DUP3 ADD MSTORE RETURN JUMPDEST POP POP CALLVALUE PUSH2 0x128 JUMPI DUP2 PUSH1 0x3 NOT CALLDATASIZE ADD SLT PUSH2 0x128 JUMPI PUSH1 0x20 SWAP1 PUSH2 0xFFFF PUSH1 0x6 SLOAD AND SWAP1 MLOAD SWAP1 DUP2 MSTORE RETURN JUMPDEST SWAP1 POP CALLVALUE PUSH2 0x1BB JUMPI DUP2 PUSH1 0x3 NOT CALLDATASIZE ADD SLT PUSH2 0x1BB JUMPI PUSH1 0x2 SLOAD PUSH1 0x1 PUSH1 0x1 PUSH1 0xA0 SHL SUB SWAP3 DUP3 CALLDATALOAD SWAP2 PUSH1 0x24 SWAP2 SWAP1 DUP6 AND CALLER SUB PUSH2 0x9B4 JUMPI DUP3 DUP7 MSTORE PUSH1 0x20 SWAP3 PUSH1 0xA DUP5 MSTORE DUP2 DUP8 KECCAK256 SLOAD SWAP5 DUP6 DUP9 MSTORE PUSH1 0x9 DUP6 MSTORE DUP3 DUP9 KECCAK256 SWAP4 PUSH2 0x7C0 DUP8 DUP7 SLOAD EQ PUSH2 0xE66 JUMP JUMPDEST PUSH1 0x3 DUP6 ADD SWAP8 DUP9 SLOAD SWAP6 PUSH2 0x7D8 PUSH1 0xFF DUP9 PUSH1 0xA0 SHR AND ISZERO PUSH2 0xEA3 JUMP JUMPDEST DUP9 DUP12 MSTORE PUSH1 0x8 DUP9 MSTORE DUP6 DUP12 KECCAK256 DUP1 SLOAD DUP1 ISZERO PUSH2 0x7F0 DUP2 ISZERO PUSH2 0xEDF JUMP JUMPDEST PUSH2 0x9A2 JUMPI SWAP2 DUP4 PUSH2 0x809 PUSH1 0x2 SWAP4 PUSH2 0x845 SWAP6 DUP9 CALLDATALOAD MOD SWAP1 PUSH2 0xD94 JUMP JUMPDEST POP SLOAD AND SWAP12 PUSH1 0x1 DUP3 ADD SLOAD SWAP10 DUP14 PUSH1 0x1 PUSH1 0xA0 SHL SWAP2 PUSH11 0xFFFFFFFFFFFFFFFFFFFFFF PUSH1 0xA8 SHL AND OR OR SWAP1 SSTORE PUSH2 0x839 DUP10 DUP8 SLOAD PUSH2 0xDC6 JUMP JUMPDEST DUP7 SSTORE ADD SLOAD PUSH1 0x5 SLOAD PUSH2 0xDC6 JUMP JUMPDEST PUSH1 0x5 SSTORE PUSH1 0x3 SLOAD AND DUP1 PUSH2 0x91A JUMPI POP DUP9 DUP1 DUP1 DUP1 DUP9 DUP13 GAS CALL RETURNDATASIZE ISZERO PUSH2 0x915 JUMPI RETURNDATASIZE PUSH8 0xFFFFFFFFFFFFFFFF DUP2 GT PUSH2 0x903 JUMPI DUP6 MLOAD SWAP1 PUSH2 0x886 PUSH1 0x1F DUP3 ADD PUSH1 0x1F NOT AND DUP11 ADD DUP4 PUSH2 0xE37 JUMP JUMPDEST DUP2 MSTORE DUP11 DUP9 RETURNDATASIZE SWAP3 ADD RETURNDATACOPY JUMPDEST ISZERO PUSH2 0x8CF JUMPI POP POP SWAP1 PUSH32 0x9C1E776CBDF221420917B223EB09503E61C8E990A1C09065CBF15BDFF06A555E SWAP4 SWAP3 SWAP2 JUMPDEST DUP8 MSTORE PUSH1 0xA DUP4 MSTORE DUP7 DUP2 DUP2 KECCAK256 SSTORE MLOAD SWAP1 DUP2 MSTORE LOG3 DUP1 RETURN JUMPDEST DUP4 MLOAD PUSH3 0x461BCD PUSH1 0xE5 SHL DUP2 MSTORE SWAP2 DUP3 ADD DUP7 SWAP1 MSTORE PUSH1 0xF SWAP1 DUP3 ADD MSTORE PUSH15 0x151C985B9CD9995C8819985A5B1959 PUSH1 0x8A SHL PUSH1 0x44 DUP3 ADD MSTORE PUSH1 0x64 SWAP1 REVERT JUMPDEST PUSH4 0x4E487B71 PUSH1 0xE0 SHL DUP12 MSTORE PUSH1 0x41 DUP5 MSTORE DUP3 DUP12 REVERT JUMPDEST PUSH2 0x88F JUMP JUMPDEST SWAP1 SWAP9 SWAP8 SWAP7 SWAP6 SWAP5 SWAP4 SWAP3 SWAP2 DUP4 MLOAD SWAP10 PUSH4 0xA9059CBB PUSH1 0xE0 SHL DUP8 DUP13 ADD MSTORE DUP9 DUP2 DUP13 ADD MSTORE DUP6 PUSH1 0x44 DUP13 ADD MSTORE PUSH1 0x44 DUP12 MSTORE PUSH1 0x80 DUP12 ADD SWAP2 DUP12 DUP4 LT PUSH8 0xFFFFFFFFFFFFFFFF DUP5 GT OR PUSH2 0x991 JUMPI POP POP SWAP9 PUSH2 0x98C SWAP2 PUSH32 0x9C1E776CBDF221420917B223EB09503E61C8E990A1C09065CBF15BDFF06A555E SWAP8 SWAP9 SWAP10 SWAP11 DUP6 MSTORE PUSH2 0xF44 JUMP JUMPDEST PUSH2 0x8BC JUMP JUMPDEST PUSH4 0x4E487B71 PUSH1 0xE0 SHL DUP12 MSTORE PUSH1 0x41 SWAP1 MSTORE DUP10 REVERT JUMPDEST PUSH4 0x4E487B71 PUSH1 0xE0 SHL DUP14 MSTORE PUSH1 0x12 DUP7 MSTORE DUP5 DUP14 REVERT JUMPDEST PUSH1 0x8 PUSH1 0x64 SWAP3 PUSH1 0x20 DUP7 SWAP4 MLOAD SWAP4 PUSH3 0x461BCD PUSH1 0xE5 SHL DUP6 MSTORE DUP5 ADD MSTORE DUP3 ADD MSTORE PUSH8 0x27B7363C902B2923 PUSH1 0xC1 SHL PUSH1 0x44 DUP3 ADD MSTORE REVERT JUMPDEST DUP3 DUP5 CALLVALUE PUSH2 0x413 JUMPI DUP2 PUSH1 0x3 NOT CALLDATASIZE ADD SLT PUSH2 0x413 JUMPI PUSH1 0x24 CALLDATALOAD SWAP3 CALLDATALOAD DUP2 MSTORE PUSH1 0x8 PUSH1 0x20 MSTORE DUP2 DUP2 KECCAK256 SWAP1 DUP2 SLOAD DUP5 LT ISZERO PUSH2 0x413 JUMPI POP PUSH1 0x60 SWAP3 PUSH2 0xA19 SWAP2 PUSH2 0xD94 JUMP JUMPDEST POP PUSH1 0x1 DUP1 PUSH1 0xA0 SHL SUB DUP2 SLOAD AND SWAP2 PUSH1 0x2 PUSH1 0x1 DUP4 ADD SLOAD SWAP3 ADD SLOAD SWAP2 DUP2 MLOAD SWAP4 DUP5 MSTORE PUSH1 0x20 DUP5 ADD MSTORE DUP3 ADD MSTORE RETURN JUMPDEST DUP5 SWAP1 DUP5 PUSH1 0x20 DUP1 PUSH1 0x3 NOT CALLDATASIZE ADD SLT PUSH2 0x56E JUMPI DUP5 CALLDATALOAD SWAP2 PUSH1 0x1 SWAP4 PUSH1 0x2 DUP6 SLOAD EQ PUSH2 0xD86 JUMPI POP PUSH1 0x2 DUP5 SSTORE PUSH1 0x3 SLOAD PUSH1 0x1 PUSH1 0x1 PUSH1 0xA0 SHL SUB SWAP3 SWAP1 DUP4 AND DUP1 PUSH2 0xD26 JUMPI POP DUP4 CALLVALUE SUB PUSH2 0xCF2 JUMPI JUMPDEST PUSH2 0xFFFF PUSH1 0x6 SLOAD AND DUP1 DUP6 MUL SWAP1 DUP6 DUP3 DIV EQ DUP6 ISZERO OR ISZERO PUSH2 0xCDF JUMPI PUSH2 0x2710 PUSH2 0xAA5 SWAP2 DIV DUP6 PUSH2 0xDC6 JUMP JUMPDEST SWAP1 PUSH1 0x7 SLOAD SWAP4 DUP5 DUP9 MSTORE PUSH1 0x9 DUP3 MSTORE DUP4 DUP9 KECCAK256 SLOAD ISZERO PUSH2 0xC37 JUMPI JUMPDEST DUP4 DUP9 KECCAK256 PUSH1 0xFF PUSH1 0x3 DUP3 ADD SLOAD PUSH1 0xA0 SHR AND PUSH2 0xBFD JUMPI DUP1 DUP9 PUSH1 0x2 SWAP3 ADD PUSH2 0xADE DUP7 DUP3 SLOAD PUSH2 0xE59 JUMP JUMPDEST SWAP1 SSTORE ADD DUP1 SLOAD SWAP1 DUP9 DUP3 ADD DUP1 SWAP3 GT PUSH2 0xBEA JUMPI SSTORE DUP5 DUP9 MSTORE PUSH1 0x8 DUP3 MSTORE DUP4 DUP9 KECCAK256 DUP5 MLOAD SWAP2 PUSH2 0xB05 DUP4 PUSH2 0xE1B JUMP JUMPDEST CALLER DUP4 MSTORE DUP4 DUP4 ADD SWAP1 DUP6 DUP3 MSTORE DUP7 DUP5 ADD SWAP3 TIMESTAMP DUP5 MSTORE DUP1 SLOAD SWAP1 PUSH9 0x10000000000000000 DUP3 LT ISZERO PUSH2 0xBD6 JUMPI SWAP1 PUSH2 0xB39 SWAP2 DUP13 DUP3 ADD DUP2 SSTORE PUSH2 0xD94 JUMP JUMPDEST SWAP5 SWAP1 SWAP5 PUSH2 0xBC4 JUMPI MLOAD DUP5 SLOAD PUSH1 0x1 PUSH1 0x1 PUSH1 0xA0 SHL SUB NOT AND SWAP2 AND OR DUP4 SSTORE MLOAD DUP9 DUP4 ADD SSTORE MLOAD PUSH1 0x2 SWAP2 SWAP1 SWAP2 ADD SSTORE DUP8 SLOAD PUSH2 0xB6C SWAP1 DUP4 SWAP1 PUSH2 0xE59 JUMP JUMPDEST DUP9 SSTORE PUSH1 0x5 SLOAD DUP7 DUP2 ADD DUP1 SWAP2 GT PUSH2 0xBB1 JUMPI PUSH1 0x5 SSTORE DUP3 MLOAD SWAP5 DUP6 MSTORE DUP5 ADD MSTORE CALLER SWAP3 PUSH32 0xB0BA8B4C814CAA46EEB64521DDE09EBD848ABCD48587091CF9680813A89A6448 SWAP2 SWAP1 LOG3 DUP1 SSTORE DUP1 RETURN JUMPDEST PUSH4 0x4E487B71 PUSH1 0xE0 SHL DUP9 MSTORE PUSH1 0x11 DUP10 MSTORE PUSH1 0x24 DUP9 REVERT JUMPDEST PUSH4 0x4E487B71 PUSH1 0xE0 SHL DUP13 MSTORE DUP12 DUP14 MSTORE PUSH1 0x24 DUP13 REVERT JUMPDEST POP PUSH4 0x4E487B71 PUSH1 0xE0 SHL DUP13 MSTORE PUSH1 0x41 DUP14 MSTORE PUSH1 0x24 DUP13 REVERT JUMPDEST PUSH4 0x4E487B71 PUSH1 0xE0 SHL DUP11 MSTORE PUSH1 0x11 DUP12 MSTORE PUSH1 0x24 DUP11 REVERT JUMPDEST DUP5 MLOAD PUSH3 0x461BCD PUSH1 0xE5 SHL DUP2 MSTORE DUP1 DUP12 ADD DUP5 SWAP1 MSTORE PUSH1 0x14 PUSH1 0x24 DUP3 ADD MSTORE PUSH20 0x2930B33336329030B63932B0B23C90323930BBB7 PUSH1 0x61 SHL PUSH1 0x44 DUP3 ADD MSTORE PUSH1 0x64 SWAP1 REVERT JUMPDEST DUP4 MLOAD PUSH2 0xC42 DUP2 PUSH2 0xDE9 JUMP JUMPDEST DUP6 DUP2 MSTORE DUP10 DUP10 DUP5 DUP4 ADD DUP2 DUP2 MSTORE DUP8 DUP5 ADD SWAP1 DUP3 DUP3 MSTORE PUSH1 0x60 DUP6 ADD SWAP2 DUP4 DUP4 MSTORE PUSH1 0x80 DUP7 ADD SWAP2 DUP5 DUP4 MSTORE DUP11 PUSH1 0xA0 DUP9 ADD SWAP6 DUP1 DUP8 MSTORE DUP14 DUP2 MSTORE PUSH1 0x9 DUP12 MSTORE KECCAK256 SWAP7 MLOAD DUP8 SSTORE MLOAD DUP14 DUP8 ADD SSTORE MLOAD PUSH1 0x2 DUP7 ADD SSTORE DUP6 PUSH1 0x3 DUP7 ADD SWAP3 MLOAD AND DUP3 SLOAD SWAP2 PUSH1 0xFF PUSH1 0xA0 SHL SWAP1 MLOAD ISZERO ISZERO PUSH1 0xA0 SHL AND SWAP2 PUSH11 0xFFFFFFFFFFFFFFFFFFFFFF PUSH1 0xA8 SHL AND OR OR SWAP1 SSTORE MLOAD SWAP2 ADD SSTORE DUP5 PUSH32 0xB5745354685A046E72F24602BCF00FA0EE07F0BF511AFB5F2D3AB636241E41B DUP10 DUP1 LOG2 PUSH2 0xABB JUMP JUMPDEST PUSH4 0x4E487B71 PUSH1 0xE0 SHL DUP8 MSTORE PUSH1 0x11 DUP9 MSTORE PUSH1 0x24 DUP8 REVERT JUMPDEST DUP7 SWAP1 PUSH1 0x64 SWAP3 MLOAD SWAP2 PUSH3 0x461BCD PUSH1 0xE5 SHL DUP4 MSTORE DUP3 ADD MSTORE PUSH1 0xF PUSH1 0x24 DUP3 ADD MSTORE PUSH15 0x82DADEEADCE840DAD2E6DAC2E8C6D PUSH1 0x8B SHL PUSH1 0x44 DUP3 ADD MSTORE REVERT JUMPDEST DUP3 MLOAD PUSH4 0x23B872DD PUSH1 0xE0 SHL DUP4 DUP3 ADD MSTORE CALLER PUSH1 0x24 DUP3 ADD MSTORE ADDRESS PUSH1 0x44 DUP3 ADD MSTORE PUSH1 0x64 DUP1 DUP3 ADD DUP8 SWAP1 MSTORE DUP2 MSTORE SWAP1 PUSH1 0xA0 DUP3 ADD PUSH8 0xFFFFFFFFFFFFFFFF DUP2 GT DUP4 DUP3 LT OR PUSH2 0xD73 JUMPI DUP5 MSTORE PUSH2 0xD6E SWAP2 SWAP1 PUSH2 0xF44 JUMP JUMPDEST PUSH2 0xA80 JUMP JUMPDEST PUSH4 0x4E487B71 PUSH1 0xE0 SHL DUP10 MSTORE PUSH1 0x41 DUP11 MSTORE PUSH1 0x24 DUP10 REVERT JUMPDEST PUSH4 0x3EE5AEB5 PUSH1 0xE0 SHL DUP2 MSTORE DUP7 SWAP1 REVERT JUMPDEST DUP1 SLOAD DUP3 LT ISZERO PUSH2 0xDB0 JUMPI PUSH1 0x0 MSTORE PUSH1 0x3 PUSH1 0x20 PUSH1 0x0 KECCAK256 SWAP2 MUL ADD SWAP1 PUSH1 0x0 SWAP1 JUMP JUMPDEST PUSH4 0x4E487B71 PUSH1 0xE0 SHL PUSH1 0x0 MSTORE PUSH1 0x32 PUSH1 0x4 MSTORE PUSH1 0x24 PUSH1 0x0 REVERT JUMPDEST SWAP2 SWAP1 DUP3 SUB SWAP2 DUP3 GT PUSH2 0xDD3 JUMPI JUMP JUMPDEST PUSH4 0x4E487B71 PUSH1 0xE0 SHL PUSH1 0x0 MSTORE PUSH1 0x11 PUSH1 0x4 MSTORE PUSH1 0x24 PUSH1 0x0 REVERT JUMPDEST PUSH1 0xC0 DUP2 ADD SWAP1 DUP2 LT PUSH8 0xFFFFFFFFFFFFFFFF DUP3 GT OR PUSH2 0xE05 JUMPI PUSH1 0x40 MSTORE JUMP JUMPDEST PUSH4 0x4E487B71 PUSH1 0xE0 SHL PUSH1 0x0 MSTORE PUSH1 0x41 PUSH1 0x4 MSTORE PUSH1 0x24 PUSH1 0x0 REVERT JUMPDEST PUSH1 0x60 DUP2 ADD SWAP1 DUP2 LT PUSH8 0xFFFFFFFFFFFFFFFF DUP3 GT OR PUSH2 0xE05 JUMPI PUSH1 0x40 MSTORE JUMP JUMPDEST SWAP1 PUSH1 0x1F DUP1 NOT SWAP2 ADD AND DUP2 ADD SWAP1 DUP2 LT PUSH8 0xFFFFFFFFFFFFFFFF DUP3 GT OR PUSH2 0xE05 JUMPI PUSH1 0x40 MSTORE JUMP JUMPDEST SWAP2 SWAP1 DUP3 ADD DUP1 SWAP3 GT PUSH2 0xDD3 JUMPI JUMP JUMPDEST ISZERO PUSH2 0xE6D JUMPI JUMP JUMPDEST PUSH1 0x40 MLOAD PUSH3 0x461BCD PUSH1 0xE5 SHL DUP2 MSTORE PUSH1 0x20 PUSH1 0x4 DUP3 ADD MSTORE PUSH1 0xE PUSH1 0x24 DUP3 ADD MSTORE PUSH14 0x496E76616C696420726166666C65 PUSH1 0x90 SHL PUSH1 0x44 DUP3 ADD MSTORE PUSH1 0x64 SWAP1 REVERT JUMPDEST ISZERO PUSH2 0xEAA JUMPI JUMP JUMPDEST PUSH1 0x40 MLOAD PUSH3 0x461BCD PUSH1 0xE5 SHL DUP2 MSTORE PUSH1 0x20 PUSH1 0x4 DUP3 ADD MSTORE PUSH1 0xD PUSH1 0x24 DUP3 ADD MSTORE PUSH13 0x20B63932B0B23C90323930BBB7 PUSH1 0x99 SHL PUSH1 0x44 DUP3 ADD MSTORE PUSH1 0x64 SWAP1 REVERT JUMPDEST ISZERO PUSH2 0xEE6 JUMPI JUMP JUMPDEST PUSH1 0x40 MLOAD PUSH3 0x461BCD PUSH1 0xE5 SHL DUP2 MSTORE PUSH1 0x20 PUSH1 0x4 DUP3 ADD MSTORE PUSH1 0xA PUSH1 0x24 DUP3 ADD MSTORE PUSH10 0x4E6F20656E7472696573 PUSH1 0xB0 SHL PUSH1 0x44 DUP3 ADD MSTORE PUSH1 0x64 SWAP1 REVERT JUMPDEST PUSH1 0x0 SLOAD PUSH1 0x1 PUSH1 0x1 PUSH1 0xA0 SHL SUB AND CALLER SUB PUSH2 0xF2C JUMPI JUMP JUMPDEST PUSH1 0x40 MLOAD PUSH4 0x118CDAA7 PUSH1 0xE0 SHL DUP2 MSTORE CALLER PUSH1 0x4 DUP3 ADD MSTORE PUSH1 0x24 SWAP1 REVERT JUMPDEST SWAP1 PUSH1 0x0 PUSH1 0x20 SWAP2 DUP3 DUP2 MLOAD SWAP2 ADD DUP3 DUP6 GAS CALL ISZERO PUSH2 0xFA0 JUMPI PUSH1 0x0 MLOAD RETURNDATASIZE PUSH2 0xF97 JUMPI POP PUSH1 0x1 PUSH1 0x1 PUSH1 0xA0 SHL SUB DUP2 AND EXTCODESIZE ISZERO JUMPDEST PUSH2 0xF75 JUMPI POP JUMP JUMPDEST PUSH1 0x40 MLOAD PUSH4 0x5274AFE7 PUSH1 0xE0 SHL DUP2 MSTORE PUSH1 0x1 PUSH1 0x1 PUSH1 0xA0 SHL SUB SWAP1 SWAP2 AND PUSH1 0x4 DUP3 ADD MSTORE PUSH1 0x24 SWAP1 REVERT JUMPDEST PUSH1 0x1 EQ ISZERO PUSH2 0xF6E JUMP JUMPDEST PUSH1 0x40 MLOAD RETURNDATASIZE PUSH1 0x0 DUP3 RETURNDATACOPY RETURNDATASIZE SWAP1 REVERT INVALID LOG2 PUSH5 0x6970667358 0x22 SLT KECCAK256 0xEC SWAP15 PUSH20 0x27FB4482B29ED9E4293CD0E3AF8ED08229CE0E0A CALLDATALOAD 0xC5 0x22 REVERT 0x2F PUSH5 0xCCD6FE6473 PUSH16 0x6C634300081800330000000000000000 "},"methodIdentifiers":{"drawWinner(uint256)":"60b2a56a","entries(uint256,uint256)":"17b937e6","fulfillRandomness(bytes32,uint256)":"1f1f897f","getRaffle(uint256)":"e4dafec9","getRaffleEntries(uint256)":"dea3f335","owner()":"8da5cb5b","placeBet(uint256)":"10fe7c48","pythVRF()":"772d84c4","raffleCounter()":"c2f306a5","raffles(uint256)":"5d4bc0ce","rakeBps()":"21c9c44a","renounceOwnership()":"715018a6","setPythVRF(address)":"83ba98ae","setRake(uint16)":"73c7da8c","startNewRaffle()":"a91f3e56","token()":"fc0c546a","totalEntries()":"7fef036e","totalPool()":"ecfb49a3","transferOwnership(address)":"f2fde38b","vrfRequestToRaffle(bytes32)":"8cf85518"}}}}}