{"contracts/casino/Crash.sol":{"Crash":{"abi":[{"inputs":[{"internalType":"address","name":"_owner","type":"address"},{"internalType":"address","name":"_token","type":"address"},{"internalType":"address","name":"_pythVRF","type":"address"}],"stateMutability":"nonpayable","type":"constructor"},{"inputs":[],"name":"BetTooHigh","type":"error"},{"inputs":[],"name":"BetTooLow","type":"error"},{"inputs":[{"internalType":"address","name":"owner","type":"address"}],"name":"OwnableInvalidOwner","type":"error"},{"inputs":[{"internalType":"address","name":"account","type":"address"}],"name":"OwnableUnauthorizedAccount","type":"error"},{"inputs":[],"name":"ReentrancyGuardReentrantCall","type":"error"},{"inputs":[{"internalType":"address","name":"token","type":"address"}],"name":"SafeERC20FailedOperation","type":"error"},{"anonymous":false,"inputs":[{"indexed":true,"internalType":"uint256","name":"gameId","type":"uint256"},{"indexed":false,"internalType":"uint256","name":"multiplier","type":"uint256"},{"indexed":false,"internalType":"uint256","name":"payout","type":"uint256"}],"name":"Cashout","type":"event"},{"anonymous":false,"inputs":[{"indexed":true,"internalType":"uint256","name":"gameId","type":"uint256"},{"indexed":false,"internalType":"uint256","name":"crashPoint","type":"uint256"},{"indexed":false,"internalType":"uint256","name":"cashoutPoint","type":"uint256"},{"indexed":false,"internalType":"uint256","name":"reward","type":"uint256"},{"indexed":false,"internalType":"uint256","name":"lootRarity","type":"uint256"}],"name":"GameSettled","type":"event"},{"anonymous":false,"inputs":[{"indexed":true,"internalType":"uint256","name":"gameId","type":"uint256"},{"indexed":true,"internalType":"address","name":"player","type":"address"}],"name":"GameStarted","type":"event"},{"anonymous":false,"inputs":[{"indexed":true,"internalType":"address","name":"previousOwner","type":"address"},{"indexed":true,"internalType":"address","name":"newOwner","type":"address"}],"name":"OwnershipTransferred","type":"event"},{"inputs":[{"internalType":"uint256","name":"gameId","type":"uint256"}],"name":"cashout","outputs":[],"stateMutability":"nonpayable","type":"function"},{"inputs":[],"name":"config","outputs":[{"internalType":"address","name":"treasury","type":"address"},{"internalType":"uint256","name":"minPlay","type":"uint256"},{"internalType":"uint256","name":"maxPlay","type":"uint256"},{"internalType":"uint16","name":"houseEdgeBps","type":"uint16"},{"internalType":"bool","name":"paused","type":"bool"}],"stateMutability":"view","type":"function"},{"inputs":[{"internalType":"bytes32","name":"requestId","type":"bytes32"},{"internalType":"uint256","name":"randomness","type":"uint256"}],"name":"fulfillRandomness","outputs":[],"stateMutability":"nonpayable","type":"function"},{"inputs":[],"name":"gameCounter","outputs":[{"internalType":"uint256","name":"","type":"uint256"}],"stateMutability":"view","type":"function"},{"inputs":[{"internalType":"uint256","name":"","type":"uint256"}],"name":"gameToVrfRequest","outputs":[{"internalType":"bytes32","name":"","type":"bytes32"}],"stateMutability":"view","type":"function"},{"inputs":[{"internalType":"uint256","name":"","type":"uint256"}],"name":"games","outputs":[{"internalType":"address","name":"player","type":"address"},{"internalType":"uint256","name":"gameId","type":"uint256"},{"internalType":"uint256","name":"crashPoint","type":"uint256"},{"internalType":"uint256","name":"cashoutPoint","type":"uint256"},{"internalType":"uint256","name":"reward","type":"uint256"},{"internalType":"uint256","name":"lootRarity","type":"uint256"}],"stateMutability":"view","type":"function"},{"inputs":[{"internalType":"uint256","name":"gameId","type":"uint256"}],"name":"getGame","outputs":[{"components":[{"internalType":"address","name":"player","type":"address"},{"internalType":"uint256","name":"gameId","type":"uint256"},{"internalType":"uint256","name":"crashPoint","type":"uint256"},{"internalType":"uint256","name":"cashoutPoint","type":"uint256"},{"internalType":"uint256","name":"reward","type":"uint256"},{"internalType":"uint256","name":"lootRarity","type":"uint256"}],"internalType":"struct Crash.GameResult","name":"","type":"tuple"}],"stateMutability":"view","type":"function"},{"inputs":[{"internalType":"uint256","name":"gameId","type":"uint256"}],"name":"getPendingGame","outputs":[{"components":[{"internalType":"address","name":"player","type":"address"},{"internalType":"uint256","name":"amount","type":"uint256"},{"internalType":"uint256","name":"autoCashout","type":"uint256"},{"internalType":"bool","name":"cashedOut","type":"bool"}],"internalType":"struct Crash.PendingGame","name":"","type":"tuple"}],"stateMutability":"view","type":"function"},{"inputs":[],"name":"getPrizePool","outputs":[{"internalType":"uint256","name":"","type":"uint256"}],"stateMutability":"view","type":"function"},{"inputs":[{"internalType":"address","name":"treasury","type":"address"},{"internalType":"uint256","name":"minPlay","type":"uint256"},{"internalType":"uint256","name":"maxPlay","type":"uint256"},{"internalType":"uint16","name":"houseEdgeBps","type":"uint16"}],"name":"initialize","outputs":[],"stateMutability":"nonpayable","type":"function"},{"inputs":[],"name":"owner","outputs":[{"internalType":"address","name":"","type":"address"}],"stateMutability":"view","type":"function"},{"inputs":[],"name":"pause","outputs":[],"stateMutability":"nonpayable","type":"function"},{"inputs":[{"internalType":"uint256","name":"","type":"uint256"}],"name":"pendingGames","outputs":[{"internalType":"address","name":"player","type":"address"},{"internalType":"uint256","name":"amount","type":"uint256"},{"internalType":"uint256","name":"autoCashout","type":"uint256"},{"internalType":"bool","name":"cashedOut","type":"bool"}],"stateMutability":"view","type":"function"},{"inputs":[{"internalType":"uint256","name":"amount","type":"uint256"},{"internalType":"uint256","name":"autoCashout","type":"uint256"}],"name":"placeBet","outputs":[],"stateMutability":"payable","type":"function"},{"inputs":[],"name":"prizePool","outputs":[{"internalType":"uint256","name":"","type":"uint256"}],"stateMutability":"view","type":"function"},{"inputs":[],"name":"pythVRF","outputs":[{"internalType":"contract IPythVRF","name":"","type":"address"}],"stateMutability":"view","type":"function"},{"inputs":[],"name":"renounceOwnership","outputs":[],"stateMutability":"nonpayable","type":"function"},{"inputs":[{"internalType":"address","name":"_pythVRF","type":"address"}],"name":"setPythVRF","outputs":[],"stateMutability":"nonpayable","type":"function"},{"inputs":[],"name":"token","outputs":[{"internalType":"address","name":"","type":"address"}],"stateMutability":"view","type":"function"},{"inputs":[{"internalType":"address","name":"newOwner","type":"address"}],"name":"transferOwnership","outputs":[],"stateMutability":"nonpayable","type":"function"},{"inputs":[],"name":"unpause","outputs":[],"stateMutability":"nonpayable","type":"function"},{"inputs":[{"internalType":"bytes32","name":"","type":"bytes32"}],"name":"vrfRequestToGame","outputs":[{"internalType":"uint256","name":"","type":"uint256"}],"stateMutability":"view","type":"function"}],"evm":{"bytecode":{"linkReferences":{},"object":"6080346100f257601f6200153538819003918201601f19168301916001600160401b038311848410176100f7578084926060946040528339810103126100f2576100488161010d565b61006060406100596020850161010d565b930161010d565b6001600160a01b03918216919082156100d957816000549460018060a01b03199480868816176000558260405197167f8be0079c531659141344cd1fd0a4f28419497f9722a3daafe3b4186f6b6457e0600080a36001805516836007541617600755169060065416176006556114139081620001228239f35b604051631e4fbdf760e01b815260006004820152602490fd5b600080fd5b634e487b7160e01b600052604160045260246000fd5b51906001600160a01b03821682036100f25756fe608080604052600436101561001357600080fd5b600090813560e01c908163117a5b901461121e575080631f1f897f14610ef05780632e0be39a14610ed25780633d598f8014610e335780633f4ba83a14610e0b5780634afe62b514610a3f578063579e94ee146109e5578063715018a61461098b578063719ce73e14610887578063772d84c41461096257806379502c551461091257806383ba98ae146108d25780638456cb59146108a5578063884bf67c146108875780638a7626d11461085d5780638da5cb5b14610836578063a2f77bcc1461076d578063a9e732bb146102c0578063cbb6d6bd146101f3578063e2d0d617146101c9578063f2fde38b1461013e5763fc0c546a1461011357600080fd5b3461013b578060031936011261013b576007546040516001600160a01b039091168152602090f35b80fd5b503461013b57602036600319011261013b57610158611284565b61016061136e565b6001600160a01b039081169081156101b057600054826001600160601b0360a01b821617600055167f8be0079c531659141344cd1fd0a4f28419497f9722a3daafe3b4186f6b6457e0600080a380f35b604051631e4fbdf760e01b815260048101849052602490fd5b503461013b57602036600319011261013b5760406020916004358152600c83522054604051908152f35b503461013b57608036600319011261013b5761020d611284565b602435604435906064359261ffff84168094036102bc5761022c61136e565b6040519060a0820182811067ffffffffffffffff8211176102a657869160809160405260018060a01b03169283815284602082015285604082015286606082015201526001600160601b0360a01b60025416176002556003556004556005549062ff000083151560101b169162ffffff1916171760055580f35b634e487b7160e01b600052604160045260246000fd5b8480fd5b503461013b5760208060031936011261076957600435906102df61139a565b818352600a81526040832080549092906001600160a01b0390811633810361073457600385019081549260ff84166106fa57848852600c865260408820549384156106c45781600654169760405180996302d8ca0160e11b825287600483015281602460609c8d935afa80156106b9578b918c91610671575b5015610638576127109462015f908206860180961161062457908b9160028401948786541060001461056c57505061039d6001840154855461ffff6005541691611343565b96600160ff19825416179055846002541685600754168685541690823b156102bc5760405163a00c695160e01b81526001600160a01b03918216600482015291166024820152604481018990529083908290606490829084905af180156105615761053a575b5092600c9a60056104f294898c8a8f8b6040849f9d9a6000805160206113be8339815191529f9d6103e8600d91069c8d995416948c549784519c8d97610448896112d6565b88528583890198838a52019889528d0198895260808d01998a5260a08d019a8b52835252209751166001600160601b0360a01b885416178755516001870155516002860155516003850155516004840155519101555493867fd66dbc1b5a153f9d6f370eabb4d4e003a977e0eaf0b4208d3aaa5643adadaec660408c848251918a8352820152a2604051948594859094939260609260808301968352602083015260408201520152565b0390a25b818552600a835261051c6040862060036000918281558260018201558260028201550155565b8452600b825260006040852055835252600060408220556001805580f35b9161054c8198969397959294976112c2565b61055d579294913896919496610403565b8680fd5b6040513d85823e3d90fd5b6000805160206113be833981519152979550600c9c939450958a8c6103e860059495839c600160809c60ff191617905506968793604051966105ad886112d6565b8752828701908482526040808901938c8552600d8b8b01968288528f8c0198838a5260a08d019a8b52835252209751166001600160601b0360a01b885416178755516001870155516002860155516003850155516004840155519101556040519283528a898401528a6040840152820152a26104f6565b634e487b7160e01b8c52601160045260248cfd5b60405162461bcd60e51b8152600481018a90526011602482015270159491881b9bdd08199d5b199a5b1b1959607a1b6044820152606490fd5b8092508b8092503d83116106b2575b61068a818361130e565b810103126106ae57604081519101519081151582036106aa579038610358565b8b80fd5b8a80fd5b503d610680565b6040513d8d823e3d90fd5b60405162461bcd60e51b815260048101889052600e60248201526d11d85b59481b9bdd08199bdd5b9960921b6044820152606490fd5b60405162461bcd60e51b8152600481018790526012602482015271105b1c9958591e4818d85cda1959081bdd5d60721b6044820152606490fd5b60405162461bcd60e51b815260048101859052600d60248201526c4e6f7420796f75722067616d6560981b6044820152606490fd5b5080fd5b503461013b57602036600319011261013b5760408160c09260a08351610792816112d6565b828152826020820152828582015282606082015282608082015201526004358152600d602052206040516107c5816112d6565b60018060a01b03825416918282526001810154602083019081526002820154604084019081526003830154916060850192835260a0600560048601549560808801968752015495019485526040519586525160208601525160408501525160608401525160808301525160a0820152f35b503461013b578060031936011261013b57546040516001600160a01b039091168152602090f35b503461013b57602036600319011261013b5760406020916004358152600b83522054604051908152f35b503461013b578060031936011261013b576020600954604051908152f35b503461013b578060031936011261013b576108be61136e565b6201000062ff000019600554161760055580f35b503461013b57602036600319011261013b576108ec611284565b6108f461136e565b60018060a01b03166001600160601b0360a01b600654161760065580f35b503461013b578060031936011261013b5760a0600180821b036002541660ff600354600454600554916040519485526020850152604084015261ffff8116606084015260101c1615156080820152f35b503461013b578060031936011261013b576006546040516001600160a01b039091168152602090f35b503461013b578060031936011261013b576109a461136e565b600080546001600160a01b0319811682556001600160a01b03167f8be0079c531659141344cd1fd0a4f28419497f9722a3daafe3b4186f6b6457e08280a380f35b503461013b57602036600319011261013b5760406080916004358152600a6020522060018060a01b038154169060018101549060ff6003600283015492015416916040519384526020840152604083015215156060820152f35b50604036600319011261013b5760246004358135610a5b61139a565b60ff60055460101c16610dde5761271081101580610dd1575b15610d9b57600354600454908310610d89578211610d77576007546001600160a01b039390841680610cca5750823403610c9457610ab7600a840460095461129f565b600955848080808688600254165af13d15610c8f573d67ffffffffffffffff8111610c7c5760405190610af4601f8201601f19166020018361130e565b81528660203d92013e5b15610c46575b600854906000198214610c34575090600185939201938460085560405192610b2b846112f2565b33845260036020948594858201938452604082019081526060820193888552898952600a87528560408a209351166001600160601b0360a01b845416178355516001830155516002820155019051151560ff801983541691161790556006541660046040518095819363f8413b0760e01b83525af1918215610c29578492610bf5575b50600c90828552600b815283604086205583855252604083205533907ffadb9547847a0c2c31f4c02590545e318d33d7aae99071caecf3fa4ce3cd7dca8380a36001805580f35b9080925081813d8311610c22575b610c0d818361130e565b81010312610c1e575190600c610bae565b8380fd5b503d610c03565b6040513d86823e3d90fd5b634e487b7160e01b8652601160045285fd5b606490600f6040519162461bcd60e51b8352602060048401528201526e151c985b9cd9995c8819985a5b1959608a1b6044820152fd5b634e487b7160e01b875260416004528287fd5b610afe565b606490600f6040519162461bcd60e51b8352602060048401528201526e082dadeeadce840dad2e6dac2e8c6d608b1b6044820152fd5b610cd9600a850460095461129f565b600955600254604080516323b872dd60e01b602080830191825233878401908152948a166001600160a01b031685820152928401889052919289929190610d2d90829060600103601f19810183528261130e565b519082855af115610d6c5785513d610d635750803b155b610d4e5750610b04565b60405190635274afe760e01b82526004820152fd5b60011415610d44565b6040513d87823e3d90fd5b604051631765320160e11b8152600490fd5b60405163989e301760e01b8152600490fd5b60405162461bcd60e51b815260206004820152600f818501526e125b9d985b1a590818d85cda1bdd5d608a1b6044820152606490fd5b50620186a0811115610a74565b60405162461bcd60e51b8152602060048201526006818501526514185d5cd95960d21b6044820152606490fd5b503461013b578060031936011261013b57610e2461136e565b62ff0000196005541660055580f35b503461013b57602036600319011261013b5760408160809260608351610e58816112f2565b828152826020820152828582015201526004358152600a60205220604051610e7f816112f2565b60018060a01b0382541691828252600181015460208301908152606060ff600360028501549460408701958652015416930192151583526040519384525160208401525160408301525115156060820152f35b503461013b578060031936011261013b576020600854604051908152f35b503461013b57604036600319011261013b5760065460243591906001600160a01b031633036111ee576004358152600b6020526040812054808252600a602052604082209260018060a01b038454169081156111ba576127109062015f908106820182116111a6578492600287015462015f9083068401811080611197575b6110d1575b50506110b9906000805160206113be83398151915294959660018060a01b0381541660ff6003830154166000146110c7576005888a60028501545b60405194610fbc866112d6565b855260208501838152604086019062015f9089068b01825260608701928352604060808801948d865260a08901966103e88c0688528152600d602052209660018060a01b039051166001600160601b0360a01b88541617875551600187015551600286015551600385015551600484015551910155600a6020526110556040892060036000918281558260018201558260028201550155565b6004358852600b60205260006040892055868852600c6020526000604089205560ff6003820154166000146110bf5760020154935b60405194859462015f906103e88506940601859094939260609260808301968352602083015260408201520152565b0390a280f35b50869361108a565b6005888a80610faf565b6110ea91945060018801549061ffff6005541691611343565b60038701805460ff1916600117905560025460075491946001600160a01b0391821692909116823b156111935760405163a00c695160e01b81526001600160a01b03918216600482015291166024820152604481018590529086908290606490829084905af1801561118857611161575b80610f74565b906000805160206113be833981519152949561117f6110b9936112c2565b9594509061115b565b6040513d88823e3d90fd5b8780fd5b5060ff60038901541615610f6f565b634e487b7160e01b85526011600452602485fd5b60405162461bcd60e51b815260206004820152600c60248201526b496e76616c69642067616d6560a01b6044820152606490fd5b60405162461bcd60e51b815260206004820152600860248201526727b7363c902b292360c11b6044820152606490fd5b90503461076957602036600319011261076957604060c0926004358152600d6020522060018060a01b03815416906001810154600282015460038301549160056004850154940154948652602086015260408501526060840152608083015260a0820152f35b600435906001600160a01b038216820361129a57565b600080fd5b919082018092116112ac57565b634e487b7160e01b600052601160045260246000fd5b67ffffffffffffffff81116102a657604052565b60c0810190811067ffffffffffffffff8211176102a657604052565b6080810190811067ffffffffffffffff8211176102a657604052565b90601f8019910116810190811067ffffffffffffffff8211176102a657604052565b818102929181159184041417156112ac57565b61ffff61136191611358612710948592611330565b04931683611330565b0481039081116112ac5790565b6000546001600160a01b0316330361138257565b60405163118cdaa760e01b8152336004820152602490fd5b6002600154146113ab576002600155565b604051633ee5aeb560e01b8152600490fdfedfd2ae5741f838130f78e33ffd1d53a7b06c3a5980162496b945d7f09f37aa7da2646970667358221220be64f7282f07b8c856369cf5070eb51036079b968861cfdba607f85701d2354a64736f6c63430008180033","opcodes":"PUSH1 0x80 CALLVALUE PUSH2 0xF2 JUMPI PUSH1 0x1F PUSH3 0x1535 CODESIZE DUP2 SWAP1 SUB SWAP2 DUP3 ADD PUSH1 0x1F NOT AND DUP4 ADD SWAP2 PUSH1 0x1 PUSH1 0x1 PUSH1 0x40 SHL SUB DUP4 GT DUP5 DUP5 LT OR PUSH2 0xF7 JUMPI DUP1 DUP5 SWAP3 PUSH1 0x60 SWAP5 PUSH1 0x40 MSTORE DUP4 CODECOPY DUP2 ADD SUB SLT PUSH2 0xF2 JUMPI PUSH2 0x48 DUP2 PUSH2 0x10D JUMP JUMPDEST PUSH2 0x60 PUSH1 0x40 PUSH2 0x59 PUSH1 0x20 DUP6 ADD PUSH2 0x10D JUMP JUMPDEST SWAP4 ADD PUSH2 0x10D JUMP JUMPDEST PUSH1 0x1 PUSH1 0x1 PUSH1 0xA0 SHL SUB SWAP2 DUP3 AND SWAP2 SWAP1 DUP3 ISZERO PUSH2 0xD9 JUMPI DUP2 PUSH1 0x0 SLOAD SWAP5 PUSH1 0x1 DUP1 PUSH1 0xA0 SHL SUB NOT SWAP5 DUP1 DUP7 DUP9 AND OR PUSH1 0x0 SSTORE DUP3 PUSH1 0x40 MLOAD SWAP8 AND PUSH32 0x8BE0079C531659141344CD1FD0A4F28419497F9722A3DAAFE3B4186F6B6457E0 PUSH1 0x0 DUP1 LOG3 PUSH1 0x1 DUP1 SSTORE AND DUP4 PUSH1 0x7 SLOAD AND OR PUSH1 0x7 SSTORE AND SWAP1 PUSH1 0x6 SLOAD AND OR PUSH1 0x6 SSTORE PUSH2 0x1413 SWAP1 DUP2 PUSH3 0x122 DUP3 CODECOPY RETURN JUMPDEST PUSH1 0x40 MLOAD PUSH4 0x1E4FBDF7 PUSH1 0xE0 SHL DUP2 MSTORE PUSH1 0x0 PUSH1 0x4 DUP3 ADD MSTORE PUSH1 0x24 SWAP1 REVERT JUMPDEST PUSH1 0x0 DUP1 REVERT JUMPDEST PUSH4 0x4E487B71 PUSH1 0xE0 SHL PUSH1 0x0 MSTORE PUSH1 0x41 PUSH1 0x4 MSTORE PUSH1 0x24 PUSH1 0x0 REVERT JUMPDEST MLOAD SWAP1 PUSH1 0x1 PUSH1 0x1 PUSH1 0xA0 SHL SUB DUP3 AND DUP3 SUB PUSH2 0xF2 JUMPI JUMP INVALID PUSH1 0x80 DUP1 PUSH1 0x40 MSTORE PUSH1 0x4 CALLDATASIZE LT ISZERO PUSH2 0x13 JUMPI PUSH1 0x0 DUP1 REVERT JUMPDEST PUSH1 0x0 SWAP1 DUP2 CALLDATALOAD PUSH1 0xE0 SHR SWAP1 DUP2 PUSH4 0x117A5B90 EQ PUSH2 0x121E JUMPI POP DUP1 PUSH4 0x1F1F897F EQ PUSH2 0xEF0 JUMPI DUP1 PUSH4 0x2E0BE39A EQ PUSH2 0xED2 JUMPI DUP1 PUSH4 0x3D598F80 EQ PUSH2 0xE33 JUMPI DUP1 PUSH4 0x3F4BA83A EQ PUSH2 0xE0B JUMPI DUP1 PUSH4 0x4AFE62B5 EQ PUSH2 0xA3F JUMPI DUP1 PUSH4 0x579E94EE EQ PUSH2 0x9E5 JUMPI DUP1 PUSH4 0x715018A6 EQ PUSH2 0x98B JUMPI DUP1 PUSH4 0x719CE73E EQ PUSH2 0x887 JUMPI DUP1 PUSH4 0x772D84C4 EQ PUSH2 0x962 JUMPI DUP1 PUSH4 0x79502C55 EQ PUSH2 0x912 JUMPI DUP1 PUSH4 0x83BA98AE EQ PUSH2 0x8D2 JUMPI DUP1 PUSH4 0x8456CB59 EQ PUSH2 0x8A5 JUMPI DUP1 PUSH4 0x884BF67C EQ PUSH2 0x887 JUMPI DUP1 PUSH4 0x8A7626D1 EQ PUSH2 0x85D JUMPI DUP1 PUSH4 0x8DA5CB5B EQ PUSH2 0x836 JUMPI DUP1 PUSH4 0xA2F77BCC EQ PUSH2 0x76D JUMPI DUP1 PUSH4 0xA9E732BB EQ PUSH2 0x2C0 JUMPI DUP1 PUSH4 0xCBB6D6BD EQ PUSH2 0x1F3 JUMPI DUP1 PUSH4 0xE2D0D617 EQ PUSH2 0x1C9 JUMPI DUP1 PUSH4 0xF2FDE38B EQ PUSH2 0x13E JUMPI PUSH4 0xFC0C546A EQ PUSH2 0x113 JUMPI PUSH1 0x0 DUP1 REVERT JUMPDEST CALLVALUE PUSH2 0x13B JUMPI DUP1 PUSH1 0x3 NOT CALLDATASIZE ADD SLT PUSH2 0x13B JUMPI PUSH1 0x7 SLOAD PUSH1 0x40 MLOAD PUSH1 0x1 PUSH1 0x1 PUSH1 0xA0 SHL SUB SWAP1 SWAP2 AND DUP2 MSTORE PUSH1 0x20 SWAP1 RETURN JUMPDEST DUP1 REVERT JUMPDEST POP CALLVALUE PUSH2 0x13B JUMPI PUSH1 0x20 CALLDATASIZE PUSH1 0x3 NOT ADD SLT PUSH2 0x13B JUMPI PUSH2 0x158 PUSH2 0x1284 JUMP JUMPDEST PUSH2 0x160 PUSH2 0x136E JUMP JUMPDEST PUSH1 0x1 PUSH1 0x1 PUSH1 0xA0 SHL SUB SWAP1 DUP2 AND SWAP1 DUP2 ISZERO PUSH2 0x1B0 JUMPI PUSH1 0x0 SLOAD DUP3 PUSH1 0x1 PUSH1 0x1 PUSH1 0x60 SHL SUB PUSH1 0xA0 SHL DUP3 AND OR PUSH1 0x0 SSTORE AND PUSH32 0x8BE0079C531659141344CD1FD0A4F28419497F9722A3DAAFE3B4186F6B6457E0 PUSH1 0x0 DUP1 LOG3 DUP1 RETURN JUMPDEST PUSH1 0x40 MLOAD PUSH4 0x1E4FBDF7 PUSH1 0xE0 SHL DUP2 MSTORE PUSH1 0x4 DUP2 ADD DUP5 SWAP1 MSTORE PUSH1 0x24 SWAP1 REVERT JUMPDEST POP CALLVALUE PUSH2 0x13B JUMPI PUSH1 0x20 CALLDATASIZE PUSH1 0x3 NOT ADD SLT PUSH2 0x13B JUMPI PUSH1 0x40 PUSH1 0x20 SWAP2 PUSH1 0x4 CALLDATALOAD DUP2 MSTORE PUSH1 0xC DUP4 MSTORE KECCAK256 SLOAD PUSH1 0x40 MLOAD SWAP1 DUP2 MSTORE RETURN JUMPDEST POP CALLVALUE PUSH2 0x13B JUMPI PUSH1 0x80 CALLDATASIZE PUSH1 0x3 NOT ADD SLT PUSH2 0x13B JUMPI PUSH2 0x20D PUSH2 0x1284 JUMP JUMPDEST PUSH1 0x24 CALLDATALOAD PUSH1 0x44 CALLDATALOAD SWAP1 PUSH1 0x64 CALLDATALOAD SWAP3 PUSH2 0xFFFF DUP5 AND DUP1 SWAP5 SUB PUSH2 0x2BC JUMPI PUSH2 0x22C PUSH2 0x136E JUMP JUMPDEST PUSH1 0x40 MLOAD SWAP1 PUSH1 0xA0 DUP3 ADD DUP3 DUP2 LT PUSH8 0xFFFFFFFFFFFFFFFF DUP3 GT OR PUSH2 0x2A6 JUMPI DUP7 SWAP2 PUSH1 0x80 SWAP2 PUSH1 0x40 MSTORE PUSH1 0x1 DUP1 PUSH1 0xA0 SHL SUB AND SWAP3 DUP4 DUP2 MSTORE DUP5 PUSH1 0x20 DUP3 ADD MSTORE DUP6 PUSH1 0x40 DUP3 ADD MSTORE DUP7 PUSH1 0x60 DUP3 ADD MSTORE ADD MSTORE PUSH1 0x1 PUSH1 0x1 PUSH1 0x60 SHL SUB PUSH1 0xA0 SHL PUSH1 0x2 SLOAD AND OR PUSH1 0x2 SSTORE PUSH1 0x3 SSTORE PUSH1 0x4 SSTORE PUSH1 0x5 SLOAD SWAP1 PUSH3 0xFF0000 DUP4 ISZERO ISZERO PUSH1 0x10 SHL AND SWAP2 PUSH3 0xFFFFFF NOT AND OR OR PUSH1 0x5 SSTORE DUP1 RETURN JUMPDEST PUSH4 0x4E487B71 PUSH1 0xE0 SHL PUSH1 0x0 MSTORE PUSH1 0x41 PUSH1 0x4 MSTORE PUSH1 0x24 PUSH1 0x0 REVERT JUMPDEST DUP5 DUP1 REVERT JUMPDEST POP CALLVALUE PUSH2 0x13B JUMPI PUSH1 0x20 DUP1 PUSH1 0x3 NOT CALLDATASIZE ADD SLT PUSH2 0x769 JUMPI PUSH1 0x4 CALLDATALOAD SWAP1 PUSH2 0x2DF PUSH2 0x139A JUMP JUMPDEST DUP2 DUP4 MSTORE PUSH1 0xA DUP2 MSTORE PUSH1 0x40 DUP4 KECCAK256 DUP1 SLOAD SWAP1 SWAP3 SWAP1 PUSH1 0x1 PUSH1 0x1 PUSH1 0xA0 SHL SUB SWAP1 DUP2 AND CALLER DUP2 SUB PUSH2 0x734 JUMPI PUSH1 0x3 DUP6 ADD SWAP1 DUP2 SLOAD SWAP3 PUSH1 0xFF DUP5 AND PUSH2 0x6FA JUMPI DUP5 DUP9 MSTORE PUSH1 0xC DUP7 MSTORE PUSH1 0x40 DUP9 KECCAK256 SLOAD SWAP4 DUP5 ISZERO PUSH2 0x6C4 JUMPI DUP2 PUSH1 0x6 SLOAD AND SWAP8 PUSH1 0x40 MLOAD DUP1 SWAP10 PUSH4 0x2D8CA01 PUSH1 0xE1 SHL DUP3 MSTORE DUP8 PUSH1 0x4 DUP4 ADD MSTORE DUP2 PUSH1 0x24 PUSH1 0x60 SWAP13 DUP14 SWAP4 GAS STATICCALL DUP1 ISZERO PUSH2 0x6B9 JUMPI DUP12 SWAP2 DUP13 SWAP2 PUSH2 0x671 JUMPI JUMPDEST POP ISZERO PUSH2 0x638 JUMPI PUSH2 0x2710 SWAP5 PUSH3 0x15F90 DUP3 MOD DUP7 ADD DUP1 SWAP7 GT PUSH2 0x624 JUMPI SWAP1 DUP12 SWAP2 PUSH1 0x2 DUP5 ADD SWAP5 DUP8 DUP7 SLOAD LT PUSH1 0x0 EQ PUSH2 0x56C JUMPI POP POP PUSH2 0x39D PUSH1 0x1 DUP5 ADD SLOAD DUP6 SLOAD PUSH2 0xFFFF PUSH1 0x5 SLOAD AND SWAP2 PUSH2 0x1343 JUMP JUMPDEST SWAP7 PUSH1 0x1 PUSH1 0xFF NOT DUP3 SLOAD AND OR SWAP1 SSTORE DUP5 PUSH1 0x2 SLOAD AND DUP6 PUSH1 0x7 SLOAD AND DUP7 DUP6 SLOAD AND SWAP1 DUP3 EXTCODESIZE ISZERO PUSH2 0x2BC JUMPI PUSH1 0x40 MLOAD PUSH4 0xA00C6951 PUSH1 0xE0 SHL DUP2 MSTORE PUSH1 0x1 PUSH1 0x1 PUSH1 0xA0 SHL SUB SWAP2 DUP3 AND PUSH1 0x4 DUP3 ADD MSTORE SWAP2 AND PUSH1 0x24 DUP3 ADD MSTORE PUSH1 0x44 DUP2 ADD DUP10 SWAP1 MSTORE SWAP1 DUP4 SWAP1 DUP3 SWAP1 PUSH1 0x64 SWAP1 DUP3 SWAP1 DUP5 SWAP1 GAS CALL DUP1 ISZERO PUSH2 0x561 JUMPI PUSH2 0x53A JUMPI JUMPDEST POP SWAP3 PUSH1 0xC SWAP11 PUSH1 0x5 PUSH2 0x4F2 SWAP5 DUP10 DUP13 DUP11 DUP16 DUP12 PUSH1 0x40 DUP5 SWAP16 SWAP14 SWAP11 PUSH1 0x0 DUP1 MLOAD PUSH1 0x20 PUSH2 0x13BE DUP4 CODECOPY DUP2 MLOAD SWAP2 MSTORE SWAP16 SWAP14 PUSH2 0x3E8 PUSH1 0xD SWAP2 MOD SWAP13 DUP14 SWAP10 SLOAD AND SWAP5 DUP13 SLOAD SWAP8 DUP5 MLOAD SWAP13 DUP14 SWAP8 PUSH2 0x448 DUP10 PUSH2 0x12D6 JUMP JUMPDEST DUP9 MSTORE DUP6 DUP4 DUP10 ADD SWAP9 DUP4 DUP11 MSTORE ADD SWAP9 DUP10 MSTORE DUP14 ADD SWAP9 DUP10 MSTORE PUSH1 0x80 DUP14 ADD SWAP10 DUP11 MSTORE PUSH1 0xA0 DUP14 ADD SWAP11 DUP12 MSTORE DUP4 MSTORE MSTORE KECCAK256 SWAP8 MLOAD AND PUSH1 0x1 PUSH1 0x1 PUSH1 0x60 SHL SUB PUSH1 0xA0 SHL DUP9 SLOAD AND OR DUP8 SSTORE MLOAD PUSH1 0x1 DUP8 ADD SSTORE MLOAD PUSH1 0x2 DUP7 ADD SSTORE MLOAD PUSH1 0x3 DUP6 ADD SSTORE MLOAD PUSH1 0x4 DUP5 ADD SSTORE MLOAD SWAP2 ADD SSTORE SLOAD SWAP4 DUP7 PUSH32 0xD66DBC1B5A153F9D6F370EABB4D4E003A977E0EAF0B4208D3AAA5643ADADAEC6 PUSH1 0x40 DUP13 DUP5 DUP3 MLOAD SWAP2 DUP11 DUP4 MSTORE DUP3 ADD MSTORE LOG2 PUSH1 0x40 MLOAD SWAP5 DUP6 SWAP5 DUP6 SWAP1 SWAP5 SWAP4 SWAP3 PUSH1 0x60 SWAP3 PUSH1 0x80 DUP4 ADD SWAP7 DUP4 MSTORE PUSH1 0x20 DUP4 ADD MSTORE PUSH1 0x40 DUP3 ADD MSTORE ADD MSTORE JUMP JUMPDEST SUB SWAP1 LOG2 JUMPDEST DUP2 DUP6 MSTORE PUSH1 0xA DUP4 MSTORE PUSH2 0x51C PUSH1 0x40 DUP7 KECCAK256 PUSH1 0x3 PUSH1 0x0 SWAP2 DUP3 DUP2 SSTORE DUP3 PUSH1 0x1 DUP3 ADD SSTORE DUP3 PUSH1 0x2 DUP3 ADD SSTORE ADD SSTORE JUMP JUMPDEST DUP5 MSTORE PUSH1 0xB DUP3 MSTORE PUSH1 0x0 PUSH1 0x40 DUP6 KECCAK256 SSTORE DUP4 MSTORE MSTORE PUSH1 0x0 PUSH1 0x40 DUP3 KECCAK256 SSTORE PUSH1 0x1 DUP1 SSTORE DUP1 RETURN JUMPDEST SWAP2 PUSH2 0x54C DUP2 SWAP9 SWAP7 SWAP4 SWAP8 SWAP6 SWAP3 SWAP5 SWAP8 PUSH2 0x12C2 JUMP JUMPDEST PUSH2 0x55D JUMPI SWAP3 SWAP5 SWAP2 CODESIZE SWAP7 SWAP2 SWAP5 SWAP7 PUSH2 0x403 JUMP JUMPDEST DUP7 DUP1 REVERT JUMPDEST PUSH1 0x40 MLOAD RETURNDATASIZE DUP6 DUP3 RETURNDATACOPY RETURNDATASIZE SWAP1 REVERT JUMPDEST PUSH1 0x0 DUP1 MLOAD PUSH1 0x20 PUSH2 0x13BE DUP4 CODECOPY DUP2 MLOAD SWAP2 MSTORE SWAP8 SWAP6 POP PUSH1 0xC SWAP13 SWAP4 SWAP5 POP SWAP6 DUP11 DUP13 PUSH2 0x3E8 PUSH1 0x5 SWAP5 SWAP6 DUP4 SWAP13 PUSH1 0x1 PUSH1 0x80 SWAP13 PUSH1 0xFF NOT AND OR SWAP1 SSTORE MOD SWAP7 DUP8 SWAP4 PUSH1 0x40 MLOAD SWAP7 PUSH2 0x5AD DUP9 PUSH2 0x12D6 JUMP JUMPDEST DUP8 MSTORE DUP3 DUP8 ADD SWAP1 DUP5 DUP3 MSTORE PUSH1 0x40 DUP1 DUP10 ADD SWAP4 DUP13 DUP6 MSTORE PUSH1 0xD DUP12 DUP12 ADD SWAP7 DUP3 DUP9 MSTORE DUP16 DUP13 ADD SWAP9 DUP4 DUP11 MSTORE PUSH1 0xA0 DUP14 ADD SWAP11 DUP12 MSTORE DUP4 MSTORE MSTORE KECCAK256 SWAP8 MLOAD AND PUSH1 0x1 PUSH1 0x1 PUSH1 0x60 SHL SUB PUSH1 0xA0 SHL DUP9 SLOAD AND OR DUP8 SSTORE MLOAD PUSH1 0x1 DUP8 ADD SSTORE MLOAD PUSH1 0x2 DUP7 ADD SSTORE MLOAD PUSH1 0x3 DUP6 ADD SSTORE MLOAD PUSH1 0x4 DUP5 ADD SSTORE MLOAD SWAP2 ADD SSTORE PUSH1 0x40 MLOAD SWAP3 DUP4 MSTORE DUP11 DUP10 DUP5 ADD MSTORE DUP11 PUSH1 0x40 DUP5 ADD MSTORE DUP3 ADD MSTORE LOG2 PUSH2 0x4F6 JUMP JUMPDEST PUSH4 0x4E487B71 PUSH1 0xE0 SHL DUP13 MSTORE PUSH1 0x11 PUSH1 0x4 MSTORE PUSH1 0x24 DUP13 REVERT JUMPDEST PUSH1 0x40 MLOAD PUSH3 0x461BCD PUSH1 0xE5 SHL DUP2 MSTORE PUSH1 0x4 DUP2 ADD DUP11 SWAP1 MSTORE PUSH1 0x11 PUSH1 0x24 DUP3 ADD MSTORE PUSH17 0x159491881B9BDD08199D5B199A5B1B1959 PUSH1 0x7A SHL PUSH1 0x44 DUP3 ADD MSTORE PUSH1 0x64 SWAP1 REVERT JUMPDEST DUP1 SWAP3 POP DUP12 DUP1 SWAP3 POP RETURNDATASIZE DUP4 GT PUSH2 0x6B2 JUMPI JUMPDEST PUSH2 0x68A DUP2 DUP4 PUSH2 0x130E JUMP JUMPDEST DUP2 ADD SUB SLT PUSH2 0x6AE JUMPI PUSH1 0x40 DUP2 MLOAD SWAP2 ADD MLOAD SWAP1 DUP2 ISZERO ISZERO DUP3 SUB PUSH2 0x6AA JUMPI SWAP1 CODESIZE PUSH2 0x358 JUMP JUMPDEST DUP12 DUP1 REVERT JUMPDEST DUP11 DUP1 REVERT JUMPDEST POP RETURNDATASIZE PUSH2 0x680 JUMP JUMPDEST PUSH1 0x40 MLOAD RETURNDATASIZE DUP14 DUP3 RETURNDATACOPY RETURNDATASIZE SWAP1 REVERT JUMPDEST PUSH1 0x40 MLOAD PUSH3 0x461BCD PUSH1 0xE5 SHL DUP2 MSTORE PUSH1 0x4 DUP2 ADD DUP9 SWAP1 MSTORE PUSH1 0xE PUSH1 0x24 DUP3 ADD MSTORE PUSH14 0x11D85B59481B9BDD08199BDD5B99 PUSH1 0x92 SHL PUSH1 0x44 DUP3 ADD MSTORE PUSH1 0x64 SWAP1 REVERT JUMPDEST PUSH1 0x40 MLOAD PUSH3 0x461BCD PUSH1 0xE5 SHL DUP2 MSTORE PUSH1 0x4 DUP2 ADD DUP8 SWAP1 MSTORE PUSH1 0x12 PUSH1 0x24 DUP3 ADD MSTORE PUSH18 0x105B1C9958591E4818D85CDA1959081BDD5D PUSH1 0x72 SHL PUSH1 0x44 DUP3 ADD MSTORE PUSH1 0x64 SWAP1 REVERT JUMPDEST PUSH1 0x40 MLOAD PUSH3 0x461BCD PUSH1 0xE5 SHL DUP2 MSTORE PUSH1 0x4 DUP2 ADD DUP6 SWAP1 MSTORE PUSH1 0xD PUSH1 0x24 DUP3 ADD MSTORE PUSH13 0x4E6F7420796F75722067616D65 PUSH1 0x98 SHL PUSH1 0x44 DUP3 ADD MSTORE PUSH1 0x64 SWAP1 REVERT JUMPDEST POP DUP1 REVERT JUMPDEST POP CALLVALUE PUSH2 0x13B JUMPI PUSH1 0x20 CALLDATASIZE PUSH1 0x3 NOT ADD SLT PUSH2 0x13B JUMPI PUSH1 0x40 DUP2 PUSH1 0xC0 SWAP3 PUSH1 0xA0 DUP4 MLOAD PUSH2 0x792 DUP2 PUSH2 0x12D6 JUMP JUMPDEST DUP3 DUP2 MSTORE DUP3 PUSH1 0x20 DUP3 ADD MSTORE DUP3 DUP6 DUP3 ADD MSTORE DUP3 PUSH1 0x60 DUP3 ADD MSTORE DUP3 PUSH1 0x80 DUP3 ADD MSTORE ADD MSTORE PUSH1 0x4 CALLDATALOAD DUP2 MSTORE PUSH1 0xD PUSH1 0x20 MSTORE KECCAK256 PUSH1 0x40 MLOAD PUSH2 0x7C5 DUP2 PUSH2 0x12D6 JUMP JUMPDEST PUSH1 0x1 DUP1 PUSH1 0xA0 SHL SUB DUP3 SLOAD AND SWAP2 DUP3 DUP3 MSTORE PUSH1 0x1 DUP2 ADD SLOAD PUSH1 0x20 DUP4 ADD SWAP1 DUP2 MSTORE PUSH1 0x2 DUP3 ADD SLOAD PUSH1 0x40 DUP5 ADD SWAP1 DUP2 MSTORE PUSH1 0x3 DUP4 ADD SLOAD SWAP2 PUSH1 0x60 DUP6 ADD SWAP3 DUP4 MSTORE PUSH1 0xA0 PUSH1 0x5 PUSH1 0x4 DUP7 ADD SLOAD SWAP6 PUSH1 0x80 DUP9 ADD SWAP7 DUP8 MSTORE ADD SLOAD SWAP6 ADD SWAP5 DUP6 MSTORE PUSH1 0x40 MLOAD SWAP6 DUP7 MSTORE MLOAD PUSH1 0x20 DUP7 ADD MSTORE MLOAD PUSH1 0x40 DUP6 ADD MSTORE MLOAD PUSH1 0x60 DUP5 ADD MSTORE MLOAD PUSH1 0x80 DUP4 ADD MSTORE MLOAD PUSH1 0xA0 DUP3 ADD MSTORE RETURN JUMPDEST POP CALLVALUE PUSH2 0x13B JUMPI DUP1 PUSH1 0x3 NOT CALLDATASIZE ADD SLT PUSH2 0x13B JUMPI SLOAD PUSH1 0x40 MLOAD PUSH1 0x1 PUSH1 0x1 PUSH1 0xA0 SHL SUB SWAP1 SWAP2 AND DUP2 MSTORE PUSH1 0x20 SWAP1 RETURN JUMPDEST POP CALLVALUE PUSH2 0x13B JUMPI PUSH1 0x20 CALLDATASIZE PUSH1 0x3 NOT ADD SLT PUSH2 0x13B JUMPI PUSH1 0x40 PUSH1 0x20 SWAP2 PUSH1 0x4 CALLDATALOAD DUP2 MSTORE PUSH1 0xB DUP4 MSTORE KECCAK256 SLOAD PUSH1 0x40 MLOAD SWAP1 DUP2 MSTORE RETURN JUMPDEST POP CALLVALUE PUSH2 0x13B JUMPI DUP1 PUSH1 0x3 NOT CALLDATASIZE ADD SLT PUSH2 0x13B JUMPI PUSH1 0x20 PUSH1 0x9 SLOAD PUSH1 0x40 MLOAD SWAP1 DUP2 MSTORE RETURN JUMPDEST POP CALLVALUE PUSH2 0x13B JUMPI DUP1 PUSH1 0x3 NOT CALLDATASIZE ADD SLT PUSH2 0x13B JUMPI PUSH2 0x8BE PUSH2 0x136E JUMP JUMPDEST PUSH3 0x10000 PUSH3 0xFF0000 NOT PUSH1 0x5 SLOAD AND OR PUSH1 0x5 SSTORE DUP1 RETURN JUMPDEST POP CALLVALUE PUSH2 0x13B JUMPI PUSH1 0x20 CALLDATASIZE PUSH1 0x3 NOT ADD SLT PUSH2 0x13B JUMPI PUSH2 0x8EC PUSH2 0x1284 JUMP JUMPDEST PUSH2 0x8F4 PUSH2 0x136E JUMP JUMPDEST PUSH1 0x1 DUP1 PUSH1 0xA0 SHL SUB AND PUSH1 0x1 PUSH1 0x1 PUSH1 0x60 SHL SUB PUSH1 0xA0 SHL PUSH1 0x6 SLOAD AND OR PUSH1 0x6 SSTORE DUP1 RETURN JUMPDEST POP CALLVALUE PUSH2 0x13B JUMPI DUP1 PUSH1 0x3 NOT CALLDATASIZE ADD SLT PUSH2 0x13B JUMPI PUSH1 0xA0 PUSH1 0x1 DUP1 DUP3 SHL SUB PUSH1 0x2 SLOAD AND PUSH1 0xFF PUSH1 0x3 SLOAD PUSH1 0x4 SLOAD PUSH1 0x5 SLOAD SWAP2 PUSH1 0x40 MLOAD SWAP5 DUP6 MSTORE PUSH1 0x20 DUP6 ADD MSTORE PUSH1 0x40 DUP5 ADD MSTORE PUSH2 0xFFFF DUP2 AND PUSH1 0x60 DUP5 ADD MSTORE PUSH1 0x10 SHR AND ISZERO ISZERO PUSH1 0x80 DUP3 ADD MSTORE RETURN JUMPDEST POP CALLVALUE PUSH2 0x13B JUMPI DUP1 PUSH1 0x3 NOT CALLDATASIZE ADD SLT PUSH2 0x13B JUMPI PUSH1 0x6 SLOAD PUSH1 0x40 MLOAD PUSH1 0x1 PUSH1 0x1 PUSH1 0xA0 SHL SUB SWAP1 SWAP2 AND DUP2 MSTORE PUSH1 0x20 SWAP1 RETURN JUMPDEST POP CALLVALUE PUSH2 0x13B JUMPI DUP1 PUSH1 0x3 NOT CALLDATASIZE ADD SLT PUSH2 0x13B JUMPI PUSH2 0x9A4 PUSH2 0x136E JUMP JUMPDEST PUSH1 0x0 DUP1 SLOAD PUSH1 0x1 PUSH1 0x1 PUSH1 0xA0 SHL SUB NOT DUP2 AND DUP3 SSTORE PUSH1 0x1 PUSH1 0x1 PUSH1 0xA0 SHL SUB AND PUSH32 0x8BE0079C531659141344CD1FD0A4F28419497F9722A3DAAFE3B4186F6B6457E0 DUP3 DUP1 LOG3 DUP1 RETURN JUMPDEST POP CALLVALUE PUSH2 0x13B JUMPI PUSH1 0x20 CALLDATASIZE PUSH1 0x3 NOT ADD SLT PUSH2 0x13B JUMPI PUSH1 0x40 PUSH1 0x80 SWAP2 PUSH1 0x4 CALLDATALOAD DUP2 MSTORE PUSH1 0xA PUSH1 0x20 MSTORE KECCAK256 PUSH1 0x1 DUP1 PUSH1 0xA0 SHL SUB DUP2 SLOAD AND SWAP1 PUSH1 0x1 DUP2 ADD SLOAD SWAP1 PUSH1 0xFF PUSH1 0x3 PUSH1 0x2 DUP4 ADD SLOAD SWAP3 ADD SLOAD AND SWAP2 PUSH1 0x40 MLOAD SWAP4 DUP5 MSTORE PUSH1 0x20 DUP5 ADD MSTORE PUSH1 0x40 DUP4 ADD MSTORE ISZERO ISZERO PUSH1 0x60 DUP3 ADD MSTORE RETURN JUMPDEST POP PUSH1 0x40 CALLDATASIZE PUSH1 0x3 NOT ADD SLT PUSH2 0x13B JUMPI PUSH1 0x24 PUSH1 0x4 CALLDATALOAD DUP2 CALLDATALOAD PUSH2 0xA5B PUSH2 0x139A JUMP JUMPDEST PUSH1 0xFF PUSH1 0x5 SLOAD PUSH1 0x10 SHR AND PUSH2 0xDDE JUMPI PUSH2 0x2710 DUP2 LT ISZERO DUP1 PUSH2 0xDD1 JUMPI JUMPDEST ISZERO PUSH2 0xD9B JUMPI PUSH1 0x3 SLOAD PUSH1 0x4 SLOAD SWAP1 DUP4 LT PUSH2 0xD89 JUMPI DUP3 GT PUSH2 0xD77 JUMPI PUSH1 0x7 SLOAD PUSH1 0x1 PUSH1 0x1 PUSH1 0xA0 SHL SUB SWAP4 SWAP1 DUP5 AND DUP1 PUSH2 0xCCA JUMPI POP DUP3 CALLVALUE SUB PUSH2 0xC94 JUMPI PUSH2 0xAB7 PUSH1 0xA DUP5 DIV PUSH1 0x9 SLOAD PUSH2 0x129F JUMP JUMPDEST PUSH1 0x9 SSTORE DUP5 DUP1 DUP1 DUP1 DUP7 DUP9 PUSH1 0x2 SLOAD AND GAS CALL RETURNDATASIZE ISZERO PUSH2 0xC8F JUMPI RETURNDATASIZE PUSH8 0xFFFFFFFFFFFFFFFF DUP2 GT PUSH2 0xC7C JUMPI PUSH1 0x40 MLOAD SWAP1 PUSH2 0xAF4 PUSH1 0x1F DUP3 ADD PUSH1 0x1F NOT AND PUSH1 0x20 ADD DUP4 PUSH2 0x130E JUMP JUMPDEST DUP2 MSTORE DUP7 PUSH1 0x20 RETURNDATASIZE SWAP3 ADD RETURNDATACOPY JUMPDEST ISZERO PUSH2 0xC46 JUMPI JUMPDEST PUSH1 0x8 SLOAD SWAP1 PUSH1 0x0 NOT DUP3 EQ PUSH2 0xC34 JUMPI POP SWAP1 PUSH1 0x1 DUP6 SWAP4 SWAP3 ADD SWAP4 DUP5 PUSH1 0x8 SSTORE PUSH1 0x40 MLOAD SWAP3 PUSH2 0xB2B DUP5 PUSH2 0x12F2 JUMP JUMPDEST CALLER DUP5 MSTORE PUSH1 0x3 PUSH1 0x20 SWAP5 DUP6 SWAP5 DUP6 DUP3 ADD SWAP4 DUP5 MSTORE PUSH1 0x40 DUP3 ADD SWAP1 DUP2 MSTORE PUSH1 0x60 DUP3 ADD SWAP4 DUP9 DUP6 MSTORE DUP10 DUP10 MSTORE PUSH1 0xA DUP8 MSTORE DUP6 PUSH1 0x40 DUP11 KECCAK256 SWAP4 MLOAD AND PUSH1 0x1 PUSH1 0x1 PUSH1 0x60 SHL SUB PUSH1 0xA0 SHL DUP5 SLOAD AND OR DUP4 SSTORE MLOAD PUSH1 0x1 DUP4 ADD SSTORE MLOAD PUSH1 0x2 DUP3 ADD SSTORE ADD SWAP1 MLOAD ISZERO ISZERO PUSH1 0xFF DUP1 NOT DUP4 SLOAD AND SWAP2 AND OR SWAP1 SSTORE PUSH1 0x6 SLOAD AND PUSH1 0x4 PUSH1 0x40 MLOAD DUP1 SWAP6 DUP2 SWAP4 PUSH4 0xF8413B07 PUSH1 0xE0 SHL DUP4 MSTORE GAS CALL SWAP2 DUP3 ISZERO PUSH2 0xC29 JUMPI DUP5 SWAP3 PUSH2 0xBF5 JUMPI JUMPDEST POP PUSH1 0xC SWAP1 DUP3 DUP6 MSTORE PUSH1 0xB DUP2 MSTORE DUP4 PUSH1 0x40 DUP7 KECCAK256 SSTORE DUP4 DUP6 MSTORE MSTORE PUSH1 0x40 DUP4 KECCAK256 SSTORE CALLER SWAP1 PUSH32 0xFADB9547847A0C2C31F4C02590545E318D33D7AAE99071CAECF3FA4CE3CD7DCA DUP4 DUP1 LOG3 PUSH1 0x1 DUP1 SSTORE DUP1 RETURN JUMPDEST SWAP1 DUP1 SWAP3 POP DUP2 DUP2 RETURNDATASIZE DUP4 GT PUSH2 0xC22 JUMPI JUMPDEST PUSH2 0xC0D DUP2 DUP4 PUSH2 0x130E JUMP JUMPDEST DUP2 ADD SUB SLT PUSH2 0xC1E JUMPI MLOAD SWAP1 PUSH1 0xC PUSH2 0xBAE JUMP JUMPDEST DUP4 DUP1 REVERT JUMPDEST POP RETURNDATASIZE PUSH2 0xC03 JUMP JUMPDEST PUSH1 0x40 MLOAD RETURNDATASIZE DUP7 DUP3 RETURNDATACOPY RETURNDATASIZE SWAP1 REVERT JUMPDEST PUSH4 0x4E487B71 PUSH1 0xE0 SHL DUP7 MSTORE PUSH1 0x11 PUSH1 0x4 MSTORE DUP6 REVERT JUMPDEST PUSH1 0x64 SWAP1 PUSH1 0xF PUSH1 0x40 MLOAD SWAP2 PUSH3 0x461BCD PUSH1 0xE5 SHL DUP4 MSTORE PUSH1 0x20 PUSH1 0x4 DUP5 ADD MSTORE DUP3 ADD MSTORE PUSH15 0x151C985B9CD9995C8819985A5B1959 PUSH1 0x8A SHL PUSH1 0x44 DUP3 ADD MSTORE REVERT JUMPDEST PUSH4 0x4E487B71 PUSH1 0xE0 SHL DUP8 MSTORE PUSH1 0x41 PUSH1 0x4 MSTORE DUP3 DUP8 REVERT JUMPDEST PUSH2 0xAFE JUMP JUMPDEST PUSH1 0x64 SWAP1 PUSH1 0xF PUSH1 0x40 MLOAD SWAP2 PUSH3 0x461BCD PUSH1 0xE5 SHL DUP4 MSTORE PUSH1 0x20 PUSH1 0x4 DUP5 ADD MSTORE DUP3 ADD MSTORE PUSH15 0x82DADEEADCE840DAD2E6DAC2E8C6D PUSH1 0x8B SHL PUSH1 0x44 DUP3 ADD MSTORE REVERT JUMPDEST PUSH2 0xCD9 PUSH1 0xA DUP6 DIV PUSH1 0x9 SLOAD PUSH2 0x129F JUMP JUMPDEST PUSH1 0x9 SSTORE PUSH1 0x2 SLOAD PUSH1 0x40 DUP1 MLOAD PUSH4 0x23B872DD PUSH1 0xE0 SHL PUSH1 0x20 DUP1 DUP4 ADD SWAP2 DUP3 MSTORE CALLER DUP8 DUP5 ADD SWAP1 DUP2 MSTORE SWAP5 DUP11 AND PUSH1 0x1 PUSH1 0x1 PUSH1 0xA0 SHL SUB AND DUP6 DUP3 ADD MSTORE SWAP3 DUP5 ADD DUP9 SWAP1 MSTORE SWAP2 SWAP3 DUP10 SWAP3 SWAP2 SWAP1 PUSH2 0xD2D SWAP1 DUP3 SWAP1 PUSH1 0x60 ADD SUB PUSH1 0x1F NOT DUP2 ADD DUP4 MSTORE DUP3 PUSH2 0x130E JUMP JUMPDEST MLOAD SWAP1 DUP3 DUP6 GAS CALL ISZERO PUSH2 0xD6C JUMPI DUP6 MLOAD RETURNDATASIZE PUSH2 0xD63 JUMPI POP DUP1 EXTCODESIZE ISZERO JUMPDEST PUSH2 0xD4E JUMPI POP PUSH2 0xB04 JUMP JUMPDEST PUSH1 0x40 MLOAD SWAP1 PUSH4 0x5274AFE7 PUSH1 0xE0 SHL DUP3 MSTORE PUSH1 0x4 DUP3 ADD MSTORE REVERT JUMPDEST PUSH1 0x1 EQ ISZERO PUSH2 0xD44 JUMP JUMPDEST PUSH1 0x40 MLOAD RETURNDATASIZE DUP8 DUP3 RETURNDATACOPY RETURNDATASIZE SWAP1 REVERT JUMPDEST PUSH1 0x40 MLOAD PUSH4 0x17653201 PUSH1 0xE1 SHL DUP2 MSTORE PUSH1 0x4 SWAP1 REVERT JUMPDEST PUSH1 0x40 MLOAD PUSH4 0x989E3017 PUSH1 0xE0 SHL DUP2 MSTORE PUSH1 0x4 SWAP1 REVERT JUMPDEST PUSH1 0x40 MLOAD PUSH3 0x461BCD PUSH1 0xE5 SHL DUP2 MSTORE PUSH1 0x20 PUSH1 0x4 DUP3 ADD MSTORE PUSH1 0xF DUP2 DUP6 ADD MSTORE PUSH15 0x125B9D985B1A590818D85CDA1BDD5D PUSH1 0x8A SHL PUSH1 0x44 DUP3 ADD MSTORE PUSH1 0x64 SWAP1 REVERT JUMPDEST POP PUSH3 0x186A0 DUP2 GT ISZERO PUSH2 0xA74 JUMP JUMPDEST PUSH1 0x40 MLOAD PUSH3 0x461BCD PUSH1 0xE5 SHL DUP2 MSTORE PUSH1 0x20 PUSH1 0x4 DUP3 ADD MSTORE PUSH1 0x6 DUP2 DUP6 ADD MSTORE PUSH6 0x14185D5CD959 PUSH1 0xD2 SHL PUSH1 0x44 DUP3 ADD MSTORE PUSH1 0x64 SWAP1 REVERT JUMPDEST POP CALLVALUE PUSH2 0x13B JUMPI DUP1 PUSH1 0x3 NOT CALLDATASIZE ADD SLT PUSH2 0x13B JUMPI PUSH2 0xE24 PUSH2 0x136E JUMP JUMPDEST PUSH3 0xFF0000 NOT PUSH1 0x5 SLOAD AND PUSH1 0x5 SSTORE DUP1 RETURN JUMPDEST POP CALLVALUE PUSH2 0x13B JUMPI PUSH1 0x20 CALLDATASIZE PUSH1 0x3 NOT ADD SLT PUSH2 0x13B JUMPI PUSH1 0x40 DUP2 PUSH1 0x80 SWAP3 PUSH1 0x60 DUP4 MLOAD PUSH2 0xE58 DUP2 PUSH2 0x12F2 JUMP JUMPDEST DUP3 DUP2 MSTORE DUP3 PUSH1 0x20 DUP3 ADD MSTORE DUP3 DUP6 DUP3 ADD MSTORE ADD MSTORE PUSH1 0x4 CALLDATALOAD DUP2 MSTORE PUSH1 0xA PUSH1 0x20 MSTORE KECCAK256 PUSH1 0x40 MLOAD PUSH2 0xE7F DUP2 PUSH2 0x12F2 JUMP JUMPDEST PUSH1 0x1 DUP1 PUSH1 0xA0 SHL SUB DUP3 SLOAD AND SWAP2 DUP3 DUP3 MSTORE PUSH1 0x1 DUP2 ADD SLOAD PUSH1 0x20 DUP4 ADD SWAP1 DUP2 MSTORE PUSH1 0x60 PUSH1 0xFF PUSH1 0x3 PUSH1 0x2 DUP6 ADD SLOAD SWAP5 PUSH1 0x40 DUP8 ADD SWAP6 DUP7 MSTORE ADD SLOAD AND SWAP4 ADD SWAP3 ISZERO ISZERO DUP4 MSTORE PUSH1 0x40 MLOAD SWAP4 DUP5 MSTORE MLOAD PUSH1 0x20 DUP5 ADD MSTORE MLOAD PUSH1 0x40 DUP4 ADD MSTORE MLOAD ISZERO ISZERO PUSH1 0x60 DUP3 ADD MSTORE RETURN JUMPDEST POP CALLVALUE PUSH2 0x13B JUMPI DUP1 PUSH1 0x3 NOT CALLDATASIZE ADD SLT PUSH2 0x13B JUMPI PUSH1 0x20 PUSH1 0x8 SLOAD PUSH1 0x40 MLOAD SWAP1 DUP2 MSTORE RETURN JUMPDEST POP CALLVALUE PUSH2 0x13B JUMPI PUSH1 0x40 CALLDATASIZE PUSH1 0x3 NOT ADD SLT PUSH2 0x13B JUMPI PUSH1 0x6 SLOAD PUSH1 0x24 CALLDATALOAD SWAP2 SWAP1 PUSH1 0x1 PUSH1 0x1 PUSH1 0xA0 SHL SUB AND CALLER SUB PUSH2 0x11EE JUMPI PUSH1 0x4 CALLDATALOAD DUP2 MSTORE PUSH1 0xB PUSH1 0x20 MSTORE PUSH1 0x40 DUP2 KECCAK256 SLOAD DUP1 DUP3 MSTORE PUSH1 0xA PUSH1 0x20 MSTORE PUSH1 0x40 DUP3 KECCAK256 SWAP3 PUSH1 0x1 DUP1 PUSH1 0xA0 SHL SUB DUP5 SLOAD AND SWAP1 DUP2 ISZERO PUSH2 0x11BA JUMPI PUSH2 0x2710 SWAP1 PUSH3 0x15F90 DUP2 MOD DUP3 ADD DUP3 GT PUSH2 0x11A6 JUMPI DUP5 SWAP3 PUSH1 0x2 DUP8 ADD SLOAD PUSH3 0x15F90 DUP4 MOD DUP5 ADD DUP2 LT DUP1 PUSH2 0x1197 JUMPI JUMPDEST PUSH2 0x10D1 JUMPI JUMPDEST POP POP PUSH2 0x10B9 SWAP1 PUSH1 0x0 DUP1 MLOAD PUSH1 0x20 PUSH2 0x13BE DUP4 CODECOPY DUP2 MLOAD SWAP2 MSTORE SWAP5 SWAP6 SWAP7 PUSH1 0x1 DUP1 PUSH1 0xA0 SHL SUB DUP2 SLOAD AND PUSH1 0xFF PUSH1 0x3 DUP4 ADD SLOAD AND PUSH1 0x0 EQ PUSH2 0x10C7 JUMPI PUSH1 0x5 DUP9 DUP11 PUSH1 0x2 DUP6 ADD SLOAD JUMPDEST PUSH1 0x40 MLOAD SWAP5 PUSH2 0xFBC DUP7 PUSH2 0x12D6 JUMP JUMPDEST DUP6 MSTORE PUSH1 0x20 DUP6 ADD DUP4 DUP2 MSTORE PUSH1 0x40 DUP7 ADD SWAP1 PUSH3 0x15F90 DUP10 MOD DUP12 ADD DUP3 MSTORE PUSH1 0x60 DUP8 ADD SWAP3 DUP4 MSTORE PUSH1 0x40 PUSH1 0x80 DUP9 ADD SWAP5 DUP14 DUP7 MSTORE PUSH1 0xA0 DUP10 ADD SWAP7 PUSH2 0x3E8 DUP13 MOD DUP9 MSTORE DUP2 MSTORE PUSH1 0xD PUSH1 0x20 MSTORE KECCAK256 SWAP7 PUSH1 0x1 DUP1 PUSH1 0xA0 SHL SUB SWAP1 MLOAD AND PUSH1 0x1 PUSH1 0x1 PUSH1 0x60 SHL SUB PUSH1 0xA0 SHL DUP9 SLOAD AND OR DUP8 SSTORE MLOAD PUSH1 0x1 DUP8 ADD SSTORE MLOAD PUSH1 0x2 DUP7 ADD SSTORE MLOAD PUSH1 0x3 DUP6 ADD SSTORE MLOAD PUSH1 0x4 DUP5 ADD SSTORE MLOAD SWAP2 ADD SSTORE PUSH1 0xA PUSH1 0x20 MSTORE PUSH2 0x1055 PUSH1 0x40 DUP10 KECCAK256 PUSH1 0x3 PUSH1 0x0 SWAP2 DUP3 DUP2 SSTORE DUP3 PUSH1 0x1 DUP3 ADD SSTORE DUP3 PUSH1 0x2 DUP3 ADD SSTORE ADD SSTORE JUMP JUMPDEST PUSH1 0x4 CALLDATALOAD DUP9 MSTORE PUSH1 0xB PUSH1 0x20 MSTORE PUSH1 0x0 PUSH1 0x40 DUP10 KECCAK256 SSTORE DUP7 DUP9 MSTORE PUSH1 0xC PUSH1 0x20 MSTORE PUSH1 0x0 PUSH1 0x40 DUP10 KECCAK256 SSTORE PUSH1 0xFF PUSH1 0x3 DUP3 ADD SLOAD AND PUSH1 0x0 EQ PUSH2 0x10BF JUMPI PUSH1 0x2 ADD SLOAD SWAP4 JUMPDEST PUSH1 0x40 MLOAD SWAP5 DUP6 SWAP5 PUSH3 0x15F90 PUSH2 0x3E8 DUP6 MOD SWAP5 MOD ADD DUP6 SWAP1 SWAP5 SWAP4 SWAP3 PUSH1 0x60 SWAP3 PUSH1 0x80 DUP4 ADD SWAP7 DUP4 MSTORE PUSH1 0x20 DUP4 ADD MSTORE PUSH1 0x40 DUP3 ADD MSTORE ADD MSTORE JUMP JUMPDEST SUB SWAP1 LOG2 DUP1 RETURN JUMPDEST POP DUP7 SWAP4 PUSH2 0x108A JUMP JUMPDEST PUSH1 0x5 DUP9 DUP11 DUP1 PUSH2 0xFAF JUMP JUMPDEST PUSH2 0x10EA SWAP2 SWAP5 POP PUSH1 0x1 DUP9 ADD SLOAD SWAP1 PUSH2 0xFFFF PUSH1 0x5 SLOAD AND SWAP2 PUSH2 0x1343 JUMP JUMPDEST PUSH1 0x3 DUP8 ADD DUP1 SLOAD PUSH1 0xFF NOT AND PUSH1 0x1 OR SWAP1 SSTORE PUSH1 0x2 SLOAD PUSH1 0x7 SLOAD SWAP2 SWAP5 PUSH1 0x1 PUSH1 0x1 PUSH1 0xA0 SHL SUB SWAP2 DUP3 AND SWAP3 SWAP1 SWAP2 AND DUP3 EXTCODESIZE ISZERO PUSH2 0x1193 JUMPI PUSH1 0x40 MLOAD PUSH4 0xA00C6951 PUSH1 0xE0 SHL DUP2 MSTORE PUSH1 0x1 PUSH1 0x1 PUSH1 0xA0 SHL SUB SWAP2 DUP3 AND PUSH1 0x4 DUP3 ADD MSTORE SWAP2 AND PUSH1 0x24 DUP3 ADD MSTORE PUSH1 0x44 DUP2 ADD DUP6 SWAP1 MSTORE SWAP1 DUP7 SWAP1 DUP3 SWAP1 PUSH1 0x64 SWAP1 DUP3 SWAP1 DUP5 SWAP1 GAS CALL DUP1 ISZERO PUSH2 0x1188 JUMPI PUSH2 0x1161 JUMPI JUMPDEST DUP1 PUSH2 0xF74 JUMP JUMPDEST SWAP1 PUSH1 0x0 DUP1 MLOAD PUSH1 0x20 PUSH2 0x13BE DUP4 CODECOPY DUP2 MLOAD SWAP2 MSTORE SWAP5 SWAP6 PUSH2 0x117F PUSH2 0x10B9 SWAP4 PUSH2 0x12C2 JUMP JUMPDEST SWAP6 SWAP5 POP SWAP1 PUSH2 0x115B JUMP JUMPDEST PUSH1 0x40 MLOAD RETURNDATASIZE DUP9 DUP3 RETURNDATACOPY RETURNDATASIZE SWAP1 REVERT JUMPDEST DUP8 DUP1 REVERT JUMPDEST POP PUSH1 0xFF PUSH1 0x3 DUP10 ADD SLOAD AND ISZERO PUSH2 0xF6F JUMP JUMPDEST PUSH4 0x4E487B71 PUSH1 0xE0 SHL DUP6 MSTORE PUSH1 0x11 PUSH1 0x4 MSTORE PUSH1 0x24 DUP6 REVERT JUMPDEST PUSH1 0x40 MLOAD PUSH3 0x461BCD PUSH1 0xE5 SHL DUP2 MSTORE PUSH1 0x20 PUSH1 0x4 DUP3 ADD MSTORE PUSH1 0xC PUSH1 0x24 DUP3 ADD MSTORE PUSH12 0x496E76616C69642067616D65 PUSH1 0xA0 SHL PUSH1 0x44 DUP3 ADD MSTORE PUSH1 0x64 SWAP1 REVERT JUMPDEST PUSH1 0x40 MLOAD PUSH3 0x461BCD PUSH1 0xE5 SHL DUP2 MSTORE PUSH1 0x20 PUSH1 0x4 DUP3 ADD MSTORE PUSH1 0x8 PUSH1 0x24 DUP3 ADD MSTORE PUSH8 0x27B7363C902B2923 PUSH1 0xC1 SHL PUSH1 0x44 DUP3 ADD MSTORE PUSH1 0x64 SWAP1 REVERT JUMPDEST SWAP1 POP CALLVALUE PUSH2 0x769 JUMPI PUSH1 0x20 CALLDATASIZE PUSH1 0x3 NOT ADD SLT PUSH2 0x769 JUMPI PUSH1 0x40 PUSH1 0xC0 SWAP3 PUSH1 0x4 CALLDATALOAD DUP2 MSTORE PUSH1 0xD PUSH1 0x20 MSTORE KECCAK256 PUSH1 0x1 DUP1 PUSH1 0xA0 SHL SUB DUP2 SLOAD AND SWAP1 PUSH1 0x1 DUP2 ADD SLOAD PUSH1 0x2 DUP3 ADD SLOAD PUSH1 0x3 DUP4 ADD SLOAD SWAP2 PUSH1 0x5 PUSH1 0x4 DUP6 ADD SLOAD SWAP5 ADD SLOAD SWAP5 DUP7 MSTORE PUSH1 0x20 DUP7 ADD MSTORE PUSH1 0x40 DUP6 ADD MSTORE PUSH1 0x60 DUP5 ADD MSTORE PUSH1 0x80 DUP4 ADD MSTORE PUSH1 0xA0 DUP3 ADD MSTORE RETURN JUMPDEST PUSH1 0x4 CALLDATALOAD SWAP1 PUSH1 0x1 PUSH1 0x1 PUSH1 0xA0 SHL SUB DUP3 AND DUP3 SUB PUSH2 0x129A JUMPI JUMP JUMPDEST PUSH1 0x0 DUP1 REVERT JUMPDEST SWAP2 SWAP1 DUP3 ADD DUP1 SWAP3 GT PUSH2 0x12AC JUMPI JUMP JUMPDEST PUSH4 0x4E487B71 PUSH1 0xE0 SHL PUSH1 0x0 MSTORE PUSH1 0x11 PUSH1 0x4 MSTORE PUSH1 0x24 PUSH1 0x0 REVERT JUMPDEST PUSH8 0xFFFFFFFFFFFFFFFF DUP2 GT PUSH2 0x2A6 JUMPI PUSH1 0x40 MSTORE JUMP JUMPDEST PUSH1 0xC0 DUP2 ADD SWAP1 DUP2 LT PUSH8 0xFFFFFFFFFFFFFFFF DUP3 GT OR PUSH2 0x2A6 JUMPI PUSH1 0x40 MSTORE JUMP JUMPDEST PUSH1 0x80 DUP2 ADD SWAP1 DUP2 LT PUSH8 0xFFFFFFFFFFFFFFFF DUP3 GT OR PUSH2 0x2A6 JUMPI PUSH1 0x40 MSTORE JUMP JUMPDEST SWAP1 PUSH1 0x1F DUP1 NOT SWAP2 ADD AND DUP2 ADD SWAP1 DUP2 LT PUSH8 0xFFFFFFFFFFFFFFFF DUP3 GT OR PUSH2 0x2A6 JUMPI PUSH1 0x40 MSTORE JUMP JUMPDEST DUP2 DUP2 MUL SWAP3 SWAP2 DUP2 ISZERO SWAP2 DUP5 DIV EQ OR ISZERO PUSH2 0x12AC JUMPI JUMP JUMPDEST PUSH2 0xFFFF PUSH2 0x1361 SWAP2 PUSH2 0x1358 PUSH2 0x2710 SWAP5 DUP6 SWAP3 PUSH2 0x1330 JUMP JUMPDEST DIV SWAP4 AND DUP4 PUSH2 0x1330 JUMP JUMPDEST DIV DUP2 SUB SWAP1 DUP2 GT PUSH2 0x12AC JUMPI SWAP1 JUMP JUMPDEST PUSH1 0x0 SLOAD PUSH1 0x1 PUSH1 0x1 PUSH1 0xA0 SHL SUB AND CALLER SUB PUSH2 0x1382 JUMPI JUMP JUMPDEST PUSH1 0x40 MLOAD PUSH4 0x118CDAA7 PUSH1 0xE0 SHL DUP2 MSTORE CALLER PUSH1 0x4 DUP3 ADD MSTORE PUSH1 0x24 SWAP1 REVERT JUMPDEST PUSH1 0x2 PUSH1 0x1 SLOAD EQ PUSH2 0x13AB JUMPI PUSH1 0x2 PUSH1 0x1 SSTORE JUMP JUMPDEST PUSH1 0x40 MLOAD PUSH4 0x3EE5AEB5 PUSH1 0xE0 SHL DUP2 MSTORE PUSH1 0x4 SWAP1 REVERT INVALID 0xDF 0xD2 0xAE JUMPI COINBASE 0xF8 CODESIZE SGT 0xF PUSH25 0xE33FFD1D53A7B06C3A5980162496B945D7F09F37AA7DA26469 PUSH17 0x667358221220BE64F7282F07B8C856369C CREATE2 SMOD 0xE 0xB5 LT CALLDATASIZE SMOD SWAP12 SWAP7 DUP9 PUSH2 0xCFDB 0xA6 SMOD 0xF8 JUMPI ADD 0xD2 CALLDATALOAD BLOBBASEFEE PUSH5 0x736F6C6343 STOP ADDMOD XOR STOP CALLER "},"methodIdentifiers":{"cashout(uint256)":"a9e732bb","config()":"79502c55","fulfillRandomness(bytes32,uint256)":"1f1f897f","gameCounter()":"2e0be39a","gameToVrfRequest(uint256)":"e2d0d617","games(uint256)":"117a5b90","getGame(uint256)":"a2f77bcc","getPendingGame(uint256)":"3d598f80","getPrizePool()":"884bf67c","initialize(address,uint256,uint256,uint16)":"cbb6d6bd","owner()":"8da5cb5b","pause()":"8456cb59","pendingGames(uint256)":"579e94ee","placeBet(uint256,uint256)":"4afe62b5","prizePool()":"719ce73e","pythVRF()":"772d84c4","renounceOwnership()":"715018a6","setPythVRF(address)":"83ba98ae","token()":"fc0c546a","transferOwnership(address)":"f2fde38b","unpause()":"3f4ba83a","vrfRequestToGame(bytes32)":"8a7626d1"}}}}}