{"contracts/FlipMatch.sol":{"FlipMatch":{"abi":[{"inputs":[{"internalType":"address","name":"_aiAddress","type":"address"},{"internalType":"address","name":"_pythVRF","type":"address"}],"stateMutability":"nonpayable","type":"constructor"},{"inputs":[{"internalType":"address","name":"owner","type":"address"}],"name":"OwnableInvalidOwner","type":"error"},{"inputs":[{"internalType":"address","name":"account","type":"address"}],"name":"OwnableUnauthorizedAccount","type":"error"},{"inputs":[],"name":"ReentrancyGuardReentrantCall","type":"error"},{"anonymous":false,"inputs":[{"indexed":true,"internalType":"uint256","name":"gameId","type":"uint256"},{"indexed":true,"internalType":"address","name":"player","type":"address"},{"indexed":false,"internalType":"uint256","name":"cardId","type":"uint256"}],"name":"BonusCard","type":"event"},{"anonymous":false,"inputs":[{"indexed":true,"internalType":"address","name":"player","type":"address"},{"indexed":false,"internalType":"uint256","name":"newLevel","type":"uint256"}],"name":"CosmeticLevelUp","type":"event"},{"anonymous":false,"inputs":[{"indexed":true,"internalType":"uint256","name":"day","type":"uint256"},{"indexed":false,"internalType":"uint256","name":"seed","type":"uint256"}],"name":"DailyChallengeCreated","type":"event"},{"anonymous":false,"inputs":[{"indexed":true,"internalType":"uint256","name":"gameId","type":"uint256"},{"indexed":true,"internalType":"address","name":"player","type":"address"},{"indexed":false,"internalType":"uint256","name":"refundAmount","type":"uint256"},{"indexed":false,"internalType":"uint256","name":"refundPct","type":"uint256"}],"name":"EarlyExit","type":"event"},{"anonymous":false,"inputs":[{"indexed":true,"internalType":"uint256","name":"gameId","type":"uint256"},{"indexed":true,"internalType":"address","name":"creator","type":"address"}],"name":"GameCancelled","type":"event"},{"anonymous":false,"inputs":[{"indexed":true,"internalType":"uint256","name":"gameId","type":"uint256"},{"indexed":true,"internalType":"address","name":"winner","type":"address"},{"indexed":false,"internalType":"uint256","name":"prize","type":"uint256"},{"indexed":false,"internalType":"uint256","name":"finalScore","type":"uint256"},{"indexed":false,"internalType":"bytes32","name":"vrfRequestId","type":"bytes32"}],"name":"GameCompleted","type":"event"},{"anonymous":false,"inputs":[{"indexed":true,"internalType":"uint256","name":"gameId","type":"uint256"},{"indexed":false,"internalType":"string","name":"name","type":"string"},{"indexed":true,"internalType":"address","name":"creator","type":"address"},{"indexed":false,"internalType":"enum FlipMatch.GameType","name":"gameType","type":"uint8"},{"indexed":false,"internalType":"uint256","name":"stake","type":"uint256"},{"indexed":false,"internalType":"uint256","name":"maxPlayers","type":"uint256"}],"name":"GameCreated","type":"event"},{"anonymous":false,"inputs":[{"indexed":true,"internalType":"uint256","name":"gameId","type":"uint256"},{"indexed":true,"internalType":"address","name":"winner","type":"address"},{"indexed":false,"internalType":"uint256","name":"finalScore","type":"uint256"}],"name":"GameFinished","type":"event"},{"anonymous":false,"inputs":[{"indexed":true,"internalType":"uint256","name":"gameId","type":"uint256"},{"indexed":true,"internalType":"bytes32","name":"vrfRequestId","type":"bytes32"}],"name":"GameStarted","type":"event"},{"anonymous":false,"inputs":[{"indexed":true,"internalType":"uint256","name":"gameId","type":"uint256"}],"name":"GameTied","type":"event"},{"anonymous":false,"inputs":[{"indexed":false,"internalType":"uint256","name":"amount","type":"uint256"},{"indexed":false,"internalType":"uint256","name":"newBalance","type":"uint256"}],"name":"HouseBalanceDeposited","type":"event"},{"anonymous":false,"inputs":[{"indexed":false,"internalType":"uint256","name":"amount","type":"uint256"},{"indexed":false,"internalType":"uint256","name":"newBalance","type":"uint256"}],"name":"HouseBalanceWithdrawn","type":"event"},{"anonymous":false,"inputs":[{"indexed":true,"internalType":"uint256","name":"gameId","type":"uint256"},{"indexed":false,"internalType":"uint256","name":"edgePct","type":"uint256"},{"indexed":false,"internalType":"uint256","name":"houseAmount","type":"uint256"}],"name":"HouseEdgeApplied","type":"event"},{"anonymous":false,"inputs":[{"indexed":true,"internalType":"uint256","name":"gameId","type":"uint256"},{"indexed":true,"internalType":"address","name":"player","type":"address"},{"indexed":false,"internalType":"uint256","name":"bonus","type":"uint256"}],"name":"LuckyFlip","type":"event"},{"anonymous":false,"inputs":[{"indexed":true,"internalType":"address","name":"previousOwner","type":"address"},{"indexed":true,"internalType":"address","name":"newOwner","type":"address"}],"name":"OwnershipTransferred","type":"event"},{"anonymous":false,"inputs":[{"indexed":true,"internalType":"address","name":"player","type":"address"},{"indexed":false,"internalType":"uint256","name":"passType","type":"uint256"}],"name":"PassPurchased","type":"event"},{"anonymous":false,"inputs":[{"indexed":true,"internalType":"uint256","name":"gameId","type":"uint256"},{"indexed":true,"internalType":"address","name":"player","type":"address"},{"indexed":false,"internalType":"uint256","name":"flipCount","type":"uint256"},{"indexed":false,"internalType":"uint256","name":"finalScore","type":"uint256"},{"indexed":false,"internalType":"uint256","name":"completedAt","type":"uint256"}],"name":"PlayerCompleted","type":"event"},{"anonymous":false,"inputs":[{"indexed":true,"internalType":"uint256","name":"gameId","type":"uint256"},{"indexed":true,"internalType":"address","name":"player","type":"address"},{"indexed":false,"internalType":"uint256","name":"currentPlayers","type":"uint256"},{"indexed":false,"internalType":"uint256","name":"maxPlayers","type":"uint256"}],"name":"PlayerJoined","type":"event"},{"anonymous":false,"inputs":[{"indexed":true,"internalType":"uint256","name":"gameId","type":"uint256"},{"indexed":true,"internalType":"address","name":"winner","type":"address"},{"indexed":false,"internalType":"uint256","name":"amount","type":"uint256"}],"name":"PrizeDistributed","type":"event"},{"anonymous":false,"inputs":[{"indexed":true,"internalType":"uint256","name":"gameId","type":"uint256"},{"indexed":true,"internalType":"address","name":"winner","type":"address"},{"indexed":false,"internalType":"uint256","name":"amount","type":"uint256"}],"name":"PrizePoolClaimed","type":"event"},{"anonymous":false,"inputs":[{"indexed":true,"internalType":"uint256","name":"gameId","type":"uint256"},{"indexed":true,"internalType":"address","name":"sponsor","type":"address"},{"indexed":false,"internalType":"uint256","name":"amount","type":"uint256"}],"name":"PrizePoolCreated","type":"event"},{"anonymous":false,"inputs":[{"indexed":true,"internalType":"uint256","name":"gameId","type":"uint256"},{"indexed":false,"internalType":"uint256","name":"randomValue","type":"uint256"},{"indexed":true,"internalType":"bytes32","name":"requestId","type":"bytes32"}],"name":"RandomnessFulfilled","type":"event"},{"anonymous":false,"inputs":[{"indexed":true,"internalType":"uint256","name":"gameId","type":"uint256"},{"indexed":true,"internalType":"bytes32","name":"requestId","type":"bytes32"}],"name":"RandomnessRequested","type":"event"},{"anonymous":false,"inputs":[{"indexed":true,"internalType":"uint256","name":"gameId","type":"uint256"},{"indexed":false,"internalType":"string","name":"usage","type":"string"},{"indexed":false,"internalType":"uint256","name":"randomValue","type":"uint256"}],"name":"RandomnessUsed","type":"event"},{"anonymous":false,"inputs":[{"indexed":true,"internalType":"uint256","name":"gameId","type":"uint256"},{"indexed":true,"internalType":"address","name":"player","type":"address"},{"indexed":false,"internalType":"bytes32","name":"hash","type":"bytes32"}],"name":"ScoreCommitted","type":"event"},{"anonymous":false,"inputs":[{"indexed":true,"internalType":"uint256","name":"gameId","type":"uint256"},{"indexed":true,"internalType":"address","name":"player","type":"address"},{"indexed":false,"internalType":"uint256","name":"flipCount","type":"uint256"}],"name":"ScoreRevealed","type":"event"},{"anonymous":false,"inputs":[{"indexed":true,"internalType":"uint256","name":"season","type":"uint256"},{"indexed":false,"internalType":"address[]","name":"topPlayers","type":"address[]"}],"name":"SeasonEnded","type":"event"},{"anonymous":false,"inputs":[{"indexed":true,"internalType":"uint256","name":"season","type":"uint256"},{"indexed":true,"internalType":"address","name":"player","type":"address"},{"indexed":false,"internalType":"uint256","name":"points","type":"uint256"}],"name":"SeasonPointsUpdated","type":"event"},{"anonymous":false,"inputs":[{"indexed":true,"internalType":"uint256","name":"season","type":"uint256"},{"indexed":false,"internalType":"uint256","name":"startTime","type":"uint256"}],"name":"SeasonStarted","type":"event"},{"anonymous":false,"inputs":[{"indexed":true,"internalType":"uint256","name":"gameId","type":"uint256"},{"indexed":false,"internalType":"enum FlipMatch.GameStatus","name":"status","type":"uint8"}],"name":"StatusChanged","type":"event"},{"anonymous":false,"inputs":[{"indexed":true,"internalType":"uint256","name":"gameId","type":"uint256"},{"indexed":true,"internalType":"address","name":"player","type":"address"},{"indexed":false,"internalType":"uint256","name":"duration","type":"uint256"}],"name":"TimeFreeze","type":"event"},{"anonymous":false,"inputs":[{"indexed":true,"internalType":"uint256","name":"gameId","type":"uint256"},{"indexed":true,"internalType":"address","name":"player","type":"address"},{"indexed":false,"internalType":"uint256","name":"penaltyType","type":"uint256"},{"indexed":false,"internalType":"uint256","name":"amount","type":"uint256"}],"name":"TimeoutPenaltyApplied","type":"event"},{"anonymous":false,"inputs":[{"indexed":true,"internalType":"address","name":"to","type":"address"},{"indexed":false,"internalType":"uint256","name":"amount","type":"uint256"}],"name":"TreasuryWithdrawn","type":"event"},{"anonymous":false,"inputs":[{"indexed":true,"internalType":"uint256","name":"gameId","type":"uint256"},{"indexed":true,"internalType":"bytes32","name":"requestId","type":"bytes32"},{"indexed":false,"internalType":"uint256","name":"randomNumber","type":"uint256"},{"indexed":false,"internalType":"uint256[]","name":"cardOrder","type":"uint256[]"}],"name":"VRFFulfilled","type":"event"},{"anonymous":false,"inputs":[{"indexed":true,"internalType":"uint256","name":"gameId","type":"uint256"},{"indexed":true,"internalType":"bytes32","name":"requestId","type":"bytes32"}],"name":"VRFRequested","type":"event"},{"anonymous":false,"inputs":[{"indexed":true,"internalType":"uint256","name":"week","type":"uint256"},{"indexed":false,"internalType":"uint256","name":"seed","type":"uint256"}],"name":"WeeklyChallengeCreated","type":"event"},{"anonymous":false,"inputs":[{"indexed":true,"internalType":"uint256","name":"week","type":"uint256"},{"indexed":false,"internalType":"uint256","name":"topN","type":"uint256"},{"indexed":false,"internalType":"uint256","name":"prizePerWinner","type":"uint256"}],"name":"WeeklyRaffle","type":"event"},{"inputs":[],"name":"AI_ADDRESS","outputs":[{"internalType":"address","name":"","type":"address"}],"stateMutability":"view","type":"function"},{"inputs":[],"name":"COMMISSION_PCT","outputs":[{"internalType":"uint256","name":"","type":"uint256"}],"stateMutability":"view","type":"function"},{"inputs":[],"name":"DIFFICULTY_MODIFIER","outputs":[{"internalType":"uint256","name":"","type":"uint256"}],"stateMutability":"view","type":"function"},{"inputs":[],"name":"HOUSE_EDGE_PCT","outputs":[{"internalType":"uint256","name":"","type":"uint256"}],"stateMutability":"view","type":"function"},{"inputs":[],"name":"MAX_FLIP_COUNT","outputs":[{"internalType":"uint256","name":"","type":"uint256"}],"stateMutability":"view","type":"function"},{"inputs":[],"name":"MAX_PLAYERS","outputs":[{"internalType":"uint256","name":"","type":"uint256"}],"stateMutability":"view","type":"function"},{"inputs":[],"name":"MIN_BET","outputs":[{"internalType":"uint256","name":"","type":"uint256"}],"stateMutability":"view","type":"function"},{"inputs":[],"name":"MIN_FLIP_COUNT","outputs":[{"internalType":"uint256","name":"","type":"uint256"}],"stateMutability":"view","type":"function"},{"inputs":[],"name":"MIN_PLAYERS","outputs":[{"internalType":"uint256","name":"","type":"uint256"}],"stateMutability":"view","type":"function"},{"inputs":[],"name":"REVEAL_TIMEOUT","outputs":[{"internalType":"uint256","name":"","type":"uint256"}],"stateMutability":"view","type":"function"},{"inputs":[{"internalType":"uint256","name":"_gameId","type":"uint256"}],"name":"cancelGame","outputs":[],"stateMutability":"nonpayable","type":"function"},{"inputs":[{"internalType":"uint256","name":"_gameId","type":"uint256"},{"internalType":"uint256","name":"_flipCount","type":"uint256"},{"internalType":"uint256","name":"_salt","type":"uint256"}],"name":"commitAndReveal","outputs":[],"stateMutability":"nonpayable","type":"function"},{"inputs":[{"internalType":"uint256","name":"_gameId","type":"uint256"},{"internalType":"uint256","name":"_flipCount","type":"uint256"},{"internalType":"uint256","name":"_salt","type":"uint256"}],"name":"commitRevealAndSubmit","outputs":[],"stateMutability":"nonpayable","type":"function"},{"inputs":[{"internalType":"uint256","name":"_gameId","type":"uint256"},{"internalType":"bytes32","name":"_hash","type":"bytes32"}],"name":"commitScore","outputs":[],"stateMutability":"nonpayable","type":"function"},{"inputs":[{"internalType":"uint256","name":"","type":"uint256"},{"internalType":"address","name":"","type":"address"}],"name":"commits","outputs":[{"internalType":"bytes32","name":"hash","type":"bytes32"},{"internalType":"bool","name":"committed","type":"bool"},{"internalType":"bool","name":"revealed","type":"bool"},{"internalType":"uint256","name":"committedAt","type":"uint256"}],"stateMutability":"view","type":"function"},{"inputs":[{"internalType":"uint256","name":"_gameId","type":"uint256"}],"name":"computeCardOrder","outputs":[{"internalType":"uint256[]","name":"","type":"uint256[]"}],"stateMutability":"view","type":"function"},{"inputs":[{"internalType":"address","name":"","type":"address"}],"name":"cosmeticLevel","outputs":[{"internalType":"uint256","name":"","type":"uint256"}],"stateMutability":"view","type":"function"},{"inputs":[{"internalType":"string","name":"_name","type":"string"},{"internalType":"uint256","name":"_maxPlayers","type":"uint256"},{"internalType":"uint256","name":"_durationHours","type":"uint256"}],"name":"createDailyChallenge","outputs":[],"stateMutability":"nonpayable","type":"function"},{"inputs":[{"internalType":"string","name":"_name","type":"string"},{"internalType":"enum FlipMatch.GameType","name":"_gameType","type":"uint8"},{"internalType":"uint256","name":"_maxPlayers","type":"uint256"},{"internalType":"uint256","name":"_durationHours","type":"uint256"},{"internalType":"string","name":"_password","type":"string"}],"name":"createFreeGame","outputs":[],"stateMutability":"nonpayable","type":"function"},{"inputs":[{"internalType":"string","name":"_name","type":"string"},{"internalType":"enum FlipMatch.GameType","name":"_gameType","type":"uint8"},{"internalType":"uint256","name":"_maxPlayers","type":"uint256"},{"internalType":"uint256","name":"_durationHours","type":"uint256"},{"internalType":"string","name":"_password","type":"string"}],"name":"createGame","outputs":[],"stateMutability":"payable","type":"function"},{"inputs":[{"internalType":"string","name":"_name","type":"string"},{"internalType":"enum FlipMatch.GameType","name":"_gameType","type":"uint8"},{"internalType":"uint256","name":"_maxPlayers","type":"uint256"},{"internalType":"uint256","name":"_durationHours","type":"uint256"},{"internalType":"string","name":"_password","type":"string"}],"name":"createPrizePoolGame","outputs":[],"stateMutability":"payable","type":"function"},{"inputs":[{"internalType":"string","name":"_name","type":"string"},{"internalType":"uint256","name":"_maxPlayers","type":"uint256"},{"internalType":"uint256","name":"_durationHours","type":"uint256"}],"name":"createWeeklyChallenge","outputs":[],"stateMutability":"nonpayable","type":"function"},{"inputs":[],"name":"currentSeason","outputs":[{"internalType":"uint256","name":"","type":"uint256"}],"stateMutability":"view","type":"function"},{"inputs":[{"internalType":"uint256","name":"","type":"uint256"}],"name":"dailySeed","outputs":[{"internalType":"uint256","name":"","type":"uint256"}],"stateMutability":"view","type":"function"},{"inputs":[],"name":"depositHouseBalance","outputs":[],"stateMutability":"payable","type":"function"},{"inputs":[{"internalType":"uint256","name":"_gameId","type":"uint256"}],"name":"drawWinner","outputs":[],"stateMutability":"nonpayable","type":"function"},{"inputs":[{"internalType":"uint256","name":"_gameId","type":"uint256"}],"name":"earlyExit","outputs":[],"stateMutability":"nonpayable","type":"function"},{"inputs":[{"internalType":"uint256","name":"_gameId","type":"uint256"},{"internalType":"address","name":"_player","type":"address"}],"name":"forceCommitTimeout","outputs":[],"stateMutability":"nonpayable","type":"function"},{"inputs":[{"internalType":"uint256","name":"_gameId","type":"uint256"},{"internalType":"address","name":"_player","type":"address"}],"name":"forceRevealTimeout","outputs":[],"stateMutability":"nonpayable","type":"function"},{"inputs":[{"internalType":"uint256","name":"_gameId","type":"uint256"}],"name":"forceTieRefund","outputs":[],"stateMutability":"nonpayable","type":"function"},{"inputs":[{"internalType":"uint256","name":"_gameId","type":"uint256"}],"name":"forfeit","outputs":[],"stateMutability":"nonpayable","type":"function"},{"inputs":[{"internalType":"bytes32","name":"_requestId","type":"bytes32"}],"name":"fulfillVRF","outputs":[],"stateMutability":"nonpayable","type":"function"},{"inputs":[{"internalType":"uint256","name":"","type":"uint256"},{"internalType":"uint256","name":"","type":"uint256"}],"name":"gamePlayers","outputs":[{"internalType":"address","name":"","type":"address"}],"stateMutability":"view","type":"function"},{"inputs":[{"internalType":"uint256","name":"","type":"uint256"}],"name":"gameRandomness","outputs":[{"internalType":"bytes32","name":"requestId","type":"bytes32"},{"internalType":"uint256","name":"randomValue","type":"uint256"},{"internalType":"bool","name":"fulfilled","type":"bool"},{"internalType":"uint256","name":"fulfilledAt","type":"uint256"}],"stateMutability":"view","type":"function"},{"inputs":[{"internalType":"uint256","name":"","type":"uint256"}],"name":"games","outputs":[{"internalType":"uint256","name":"id","type":"uint256"},{"internalType":"string","name":"name","type":"string"},{"internalType":"address","name":"creator","type":"address"},{"internalType":"enum FlipMatch.GameType","name":"gameType","type":"uint8"},{"internalType":"enum FlipMatch.GameStatus","name":"status","type":"uint8"},{"internalType":"enum FlipMatch.PlayMode","name":"playMode","type":"uint8"},{"internalType":"uint256","name":"stake","type":"uint256"},{"internalType":"uint256","name":"totalPrize","type":"uint256"},{"internalType":"uint256","name":"maxPlayers","type":"uint256"},{"internalType":"uint256","name":"currentPlayers","type":"uint256"},{"internalType":"uint256","name":"completedCount","type":"uint256"},{"internalType":"uint256","name":"createdAt","type":"uint256"},{"internalType":"uint256","name":"startedAt","type":"uint256"},{"internalType":"uint256","name":"completedAt","type":"uint256"},{"internalType":"uint256","name":"endTime","type":"uint256"},{"internalType":"address","name":"winner","type":"address"},{"internalType":"uint256","name":"winnerFlipCount","type":"uint256"},{"internalType":"uint256","name":"winnerFinalScore","type":"uint256"},{"internalType":"bytes32","name":"vrfRequestId","type":"bytes32"},{"internalType":"uint256","name":"vrfRandom","type":"uint256"},{"internalType":"bool","name":"vrfFulfilled","type":"bool"},{"internalType":"bytes32","name":"passwordHash","type":"bytes32"}],"stateMutability":"view","type":"function"},{"inputs":[],"name":"getActiveGames","outputs":[{"internalType":"uint256[]","name":"","type":"uint256[]"}],"stateMutability":"view","type":"function"},{"inputs":[{"internalType":"uint256","name":"_gameId","type":"uint256"}],"name":"getGame","outputs":[{"components":[{"internalType":"uint256","name":"id","type":"uint256"},{"internalType":"string","name":"name","type":"string"},{"internalType":"address","name":"creator","type":"address"},{"internalType":"enum FlipMatch.GameType","name":"gameType","type":"uint8"},{"internalType":"enum FlipMatch.GameStatus","name":"status","type":"uint8"},{"internalType":"enum FlipMatch.PlayMode","name":"playMode","type":"uint8"},{"internalType":"uint256","name":"stake","type":"uint256"},{"internalType":"uint256","name":"totalPrize","type":"uint256"},{"internalType":"uint256","name":"maxPlayers","type":"uint256"},{"internalType":"uint256","name":"currentPlayers","type":"uint256"},{"internalType":"uint256","name":"completedCount","type":"uint256"},{"internalType":"uint256","name":"createdAt","type":"uint256"},{"internalType":"uint256","name":"startedAt","type":"uint256"},{"internalType":"uint256","name":"completedAt","type":"uint256"},{"internalType":"uint256","name":"endTime","type":"uint256"},{"internalType":"address","name":"winner","type":"address"},{"internalType":"uint256","name":"winnerFlipCount","type":"uint256"},{"internalType":"uint256","name":"winnerFinalScore","type":"uint256"},{"internalType":"bytes32","name":"vrfRequestId","type":"bytes32"},{"internalType":"uint256","name":"vrfRandom","type":"uint256"},{"internalType":"uint256[]","name":"cardOrder","type":"uint256[]"},{"internalType":"bool","name":"vrfFulfilled","type":"bool"},{"internalType":"bytes32","name":"passwordHash","type":"bytes32"}],"internalType":"struct FlipMatch.Game","name":"","type":"tuple"}],"stateMutability":"view","type":"function"},{"inputs":[],"name":"getGameCount","outputs":[{"internalType":"uint256","name":"","type":"uint256"}],"stateMutability":"view","type":"function"},{"inputs":[{"internalType":"uint256","name":"_gameId","type":"uint256"}],"name":"getGamePlayers","outputs":[{"internalType":"address[]","name":"","type":"address[]"}],"stateMutability":"view","type":"function"},{"inputs":[{"internalType":"uint256","name":"_gameId","type":"uint256"}],"name":"getGameRandom","outputs":[{"internalType":"uint256","name":"","type":"uint256"}],"stateMutability":"view","type":"function"},{"inputs":[{"internalType":"address","name":"_player","type":"address"}],"name":"getLeaderboardEntry","outputs":[{"components":[{"internalType":"address","name":"player","type":"address"},{"internalType":"uint256","name":"totalWins","type":"uint256"},{"internalType":"uint256","name":"bestFinalScore","type":"uint256"},{"internalType":"uint256","name":"totalGames","type":"uint256"},{"internalType":"uint256","name":"weeklyPoints","type":"uint256"},{"internalType":"uint256","name":"lastUpdated","type":"uint256"}],"internalType":"struct FlipMatch.LeaderboardEntry","name":"","type":"tuple"}],"stateMutability":"view","type":"function"},{"inputs":[{"internalType":"uint256","name":"_gameId","type":"uint256"}],"name":"getLiveScores","outputs":[{"components":[{"internalType":"uint256","name":"moves","type":"uint256"},{"internalType":"uint256","name":"time","type":"uint256"},{"internalType":"uint256","name":"score","type":"uint256"},{"internalType":"uint256","name":"multiplier","type":"uint256"}],"internalType":"struct FlipMatch.PlayerResult[]","name":"","type":"tuple[]"}],"stateMutability":"view","type":"function"},{"inputs":[{"internalType":"uint256","name":"_gameId","type":"uint256"},{"internalType":"address","name":"_player","type":"address"}],"name":"getPlayer","outputs":[{"components":[{"internalType":"address","name":"playerAddress","type":"address"},{"internalType":"uint256","name":"flipCount","type":"uint256"},{"internalType":"uint256","name":"finalScore","type":"uint256"},{"internalType":"uint256","name":"completedAt","type":"uint256"},{"internalType":"bool","name":"hasCompleted","type":"bool"},{"internalType":"bool","name":"hasJoined","type":"bool"},{"internalType":"enum FlipMatch.PlayerState","name":"state","type":"uint8"}],"internalType":"struct FlipMatch.Player","name":"","type":"tuple"}],"stateMutability":"view","type":"function"},{"inputs":[{"internalType":"address","name":"_player","type":"address"}],"name":"getPlayerGames","outputs":[{"internalType":"uint256[]","name":"","type":"uint256[]"}],"stateMutability":"view","type":"function"},{"inputs":[{"internalType":"uint256","name":"_gameId","type":"uint256"}],"name":"getRandomnessProof","outputs":[{"components":[{"internalType":"bytes32","name":"requestId","type":"bytes32"},{"internalType":"uint256","name":"randomValue","type":"uint256"},{"internalType":"bool","name":"fulfilled","type":"bool"},{"internalType":"uint256","name":"fulfilledAt","type":"uint256"}],"internalType":"struct FlipMatch.RandomnessProof","name":"","type":"tuple"}],"stateMutability":"view","type":"function"},{"inputs":[],"name":"houseBalance","outputs":[{"internalType":"uint256","name":"","type":"uint256"}],"stateMutability":"view","type":"function"},{"inputs":[{"internalType":"uint256","name":"_gameId","type":"uint256"},{"internalType":"string","name":"_password","type":"string"}],"name":"joinGame","outputs":[],"stateMutability":"payable","type":"function"},{"inputs":[{"internalType":"address","name":"","type":"address"}],"name":"lastRageQuit","outputs":[{"internalType":"uint256","name":"","type":"uint256"}],"stateMutability":"view","type":"function"},{"inputs":[{"internalType":"address","name":"","type":"address"}],"name":"leaderboard","outputs":[{"internalType":"address","name":"player","type":"address"},{"internalType":"uint256","name":"totalWins","type":"uint256"},{"internalType":"uint256","name":"bestFinalScore","type":"uint256"},{"internalType":"uint256","name":"totalGames","type":"uint256"},{"internalType":"uint256","name":"weeklyPoints","type":"uint256"},{"internalType":"uint256","name":"lastUpdated","type":"uint256"}],"stateMutability":"view","type":"function"},{"inputs":[],"name":"owner","outputs":[{"internalType":"address","name":"","type":"address"}],"stateMutability":"view","type":"function"},{"inputs":[{"internalType":"address","name":"","type":"address"}],"name":"passType","outputs":[{"internalType":"uint256","name":"","type":"uint256"}],"stateMutability":"view","type":"function"},{"inputs":[{"internalType":"string","name":"_name","type":"string"},{"internalType":"enum FlipMatch.GameType","name":"_gameType","type":"uint8"},{"internalType":"uint256","name":"_maxPlayers","type":"uint256"},{"internalType":"uint256","name":"_durationHours","type":"uint256"},{"internalType":"string","name":"_password","type":"string"}],"name":"playFree","outputs":[],"stateMutability":"nonpayable","type":"function"},{"inputs":[{"internalType":"address","name":"","type":"address"},{"internalType":"uint256","name":"","type":"uint256"}],"name":"playerGames","outputs":[{"internalType":"uint256","name":"","type":"uint256"}],"stateMutability":"view","type":"function"},{"inputs":[{"internalType":"uint256","name":"","type":"uint256"},{"internalType":"address","name":"","type":"address"}],"name":"players","outputs":[{"internalType":"address","name":"playerAddress","type":"address"},{"internalType":"uint256","name":"flipCount","type":"uint256"},{"internalType":"uint256","name":"finalScore","type":"uint256"},{"internalType":"uint256","name":"completedAt","type":"uint256"},{"internalType":"bool","name":"hasCompleted","type":"bool"},{"internalType":"bool","name":"hasJoined","type":"bool"},{"internalType":"enum FlipMatch.PlayerState","name":"state","type":"uint8"}],"stateMutability":"view","type":"function"},{"inputs":[{"internalType":"uint256","name":"","type":"uint256"}],"name":"prizePools","outputs":[{"internalType":"uint256","name":"total","type":"uint256"},{"internalType":"bool","name":"claimed","type":"bool"},{"internalType":"address","name":"sponsor","type":"address"},{"internalType":"uint256","name":"createdAt","type":"uint256"}],"stateMutability":"view","type":"function"},{"inputs":[],"name":"pythVRF","outputs":[{"internalType":"contract IPythVRF","name":"","type":"address"}],"stateMutability":"view","type":"function"},{"inputs":[{"internalType":"address","name":"","type":"address"}],"name":"rageQuitCount","outputs":[{"internalType":"uint256","name":"","type":"uint256"}],"stateMutability":"view","type":"function"},{"inputs":[{"internalType":"uint256","name":"_gameId","type":"uint256"}],"name":"rematch","outputs":[],"stateMutability":"payable","type":"function"},{"inputs":[],"name":"renounceOwnership","outputs":[],"stateMutability":"nonpayable","type":"function"},{"inputs":[{"internalType":"uint256","name":"","type":"uint256"},{"internalType":"address","name":"","type":"address"}],"name":"results","outputs":[{"internalType":"uint256","name":"moves","type":"uint256"},{"internalType":"uint256","name":"time","type":"uint256"},{"internalType":"uint256","name":"score","type":"uint256"},{"internalType":"uint256","name":"multiplier","type":"uint256"}],"stateMutability":"view","type":"function"},{"inputs":[{"internalType":"uint256","name":"_gameId","type":"uint256"},{"internalType":"uint256","name":"_flipCount","type":"uint256"},{"internalType":"uint256","name":"_salt","type":"uint256"}],"name":"revealScore","outputs":[],"stateMutability":"nonpayable","type":"function"},{"inputs":[],"name":"rollDailySeed","outputs":[],"stateMutability":"nonpayable","type":"function"},{"inputs":[{"internalType":"uint256","name":"","type":"uint256"},{"internalType":"address","name":"","type":"address"}],"name":"seasonPoints","outputs":[{"internalType":"uint256","name":"","type":"uint256"}],"stateMutability":"view","type":"function"},{"inputs":[{"internalType":"uint256","name":"","type":"uint256"},{"internalType":"uint256","name":"","type":"uint256"}],"name":"seasonTopPlayers","outputs":[{"internalType":"address","name":"","type":"address"}],"stateMutability":"view","type":"function"},{"inputs":[{"internalType":"uint256","name":"_gameId","type":"uint256"},{"internalType":"uint256","name":"_flipCount","type":"uint256"}],"name":"submitCompletion","outputs":[],"stateMutability":"nonpayable","type":"function"},{"inputs":[{"internalType":"uint256","name":"","type":"uint256"},{"internalType":"address","name":"","type":"address"}],"name":"timeoutPenaltyApplied","outputs":[{"internalType":"bool","name":"","type":"bool"}],"stateMutability":"view","type":"function"},{"inputs":[{"internalType":"address","name":"newOwner","type":"address"}],"name":"transferOwnership","outputs":[],"stateMutability":"nonpayable","type":"function"},{"inputs":[],"name":"treasuryBalance","outputs":[{"internalType":"uint256","name":"","type":"uint256"}],"stateMutability":"view","type":"function"},{"inputs":[{"internalType":"bytes32","name":"","type":"bytes32"}],"name":"vrfRequests","outputs":[{"internalType":"uint256","name":"","type":"uint256"}],"stateMutability":"view","type":"function"},{"inputs":[{"internalType":"uint256","name":"_topN","type":"uint256"},{"internalType":"uint256","name":"_prizePerWinner","type":"uint256"}],"name":"weeklyRaffle","outputs":[],"stateMutability":"nonpayable","type":"function"},{"inputs":[{"internalType":"uint256","name":"","type":"uint256"}],"name":"weeklySeed","outputs":[{"internalType":"uint256","name":"","type":"uint256"}],"stateMutability":"view","type":"function"},{"inputs":[{"internalType":"uint256","name":"","type":"uint256"},{"internalType":"uint256","name":"","type":"uint256"}],"name":"weeklyTopPlayers","outputs":[{"internalType":"address","name":"","type":"address"}],"stateMutability":"view","type":"function"},{"inputs":[{"internalType":"uint256","name":"_amount","type":"uint256"}],"name":"withdrawHouseBalance","outputs":[],"stateMutability":"nonpayable","type":"function"},{"inputs":[],"name":"withdrawTreasury","outputs":[],"stateMutability":"nonpayable","type":"function"}],"evm":{"bytecode":{"linkReferences":{},"object":"60c034620001ed5762008b5190601f38839003908101601f19168201906001600160401b03821183831017620001f25780839160409586948552833981010312620001ed576200005d6020620000558362000208565b920162000208565b3315620001d55760008054336001600160a01b031982168117835585516001600160a01b03949390928516907f8be0079c531659141344cd1fd0a4f28419497f9722a3daafe3b4186f6b6457e09080a360018055828416156200019e5750169081156200015a5760805260a0525161893390816200021e8239608051818181610cdb01528181610e7301528181611a2301528181612304015281816138780152818161549201528181615ac701528181616f7e01528181617289015281816176b101528181617d4e0152618672015260a05181818161156801528181612f0e015281816133ec015281816151fa01528181615eba01526173790152f35b825162461bcd60e51b815260206004820152601960248201527f50797468205652462061646472657373207265717569726564000000000000006044820152606490fd5b62461bcd60e51b8152602060048201526012602482015271496e76616c6964204149206164647265737360701b6044820152606490fd5b8251631e4fbdf760e01b815260006004820152602490fd5b600080fd5b634e487b7160e01b600052604160045260246000fd5b51906001600160a01b0382168203620001ed5756fe610140604052600436101561001357600080fd5b60003560e01c806214cdd514615fa45780630a5694c214615f4c5780630b8a3bbe14615cf15780630d65ca2f14615863578063117a5b901461568a578063129daf841461565057806315a40f4914615598578063166bab95146154fb578063191a3749146154c15780631939053d1461547c5780631b76929c146153445780632076e1d01461530a5780632122f4c6146152be57806322377d9e146152a25780632c01c2c6146152865780632e9fddd8146151b6578063313dab201461519857806332b72f9c1461517c5780633ba80729146151605780633d6ae3a7146151435780633e6a6bee14614ef55780633ed546ab14614d3b5780633ef25c1114614c645780634411b3eb146129f65780634947bfc91461474a578063530d49f21461455b5780635ab203c51461452a57806360b2a56a146143865780636454e58d146142685780636540742f1461424657806367084eb31461422857806367bc540f146141d557806368880a2614613d4457806369958ab914613c3257806370a90220146134ae578063715018a614613455578063718f838c1461341b578063772d84c4146133d657806377cbc4001461329957806379ae87791461312f578063821d53131461310357806385f07bbe146130e7578063885d68a8146130765780638da5cb5b1461304d57806396dbbbe814612ef057806397a2872c14612d6a578063a2f77bcc146129fb578063b241b5ec146129f6578063b8af3d3e14612778578063bbf395441461271d578063bcb39621146126ff578063bce353f4146126d3578063c0f8092114612635578063c2884e0e146125fb578063c8ab99c71461256c578063cbf8279014611fe1578063d1d33d2014611f6d578063d34603ee14611cfc578063d35aea0a14611771578063dddb07b3146116cd578063dec04e5f146116a1578063dfefef9f14611670578063e488a02714611606578063e7564cf5146111c3578063e87c0ee6146111a5578063e93362e21461116e578063eb22ebe0146107aa578063eddad39414610750578063f2682edd146106cd578063f2fde38b14610644578063f3154298146105fa578063f8aed2c3146105ad578063fc80864d146103975763fe8596791461034a57600080fd5b346103925760403660031901126103925761036361604d565b600435600052601160205260406000209060018060a01b03166000526020526020604060002054604051908152f35b600080fd5b34610392576103a5366163f1565b82600093929352602090600582526040600020600683526040600020336000528352604060002060ff9182600282015460a81c16916006831015610597576104018460126004946103f96002849814616796565b01541661653b565b0154610411828260081c166166f9565b60101c16600381101561059757600161042a9114616aae565b83600052600d8352604060002033600052835280600160406000200154161561055e5783600052600d8352604060002033600052835260016040600020015460081c16610526576040518281019185835260408201526040815261048d81616119565b51902082600052600d82526040600020336000528252604060002054036104f15760008051602061885e8339815191529082600052600d81526040600020336000528152600160406000200161010061ff00198254161790556040519384523393a3005b6064906040519062461bcd60e51b82526004820152600e60248201526d125b9d985b1a59081c995d99585b60921b6044820152fd5b60405162461bcd60e51b815260048101839052601060248201526f105b1c9958591e481c995d99585b195960821b6044820152606490fd5b60405162461bcd60e51b8152600481018490526011602482015270135d5cdd0818dbdb5b5a5d08199a5c9cdd607a1b6044820152606490fd5b634e487b7160e01b600052602160045260246000fd5b34610392576040366003190112610392576105c661604d565b600435600052601560205260406000209060018060a01b0316600052602052602060ff604060002054166040519015158152f35b34610392576106083661640b565b906000526019602052604060002080548210156103925760209161062b91616063565b905460405160039290921b1c6001600160a01b03168152f35b346103925760203660031901126103925761065d616037565b610665616c51565b6001600160a01b039081169081156106b457600054826001600160601b0360a01b821617600055167f8be0079c531659141344cd1fd0a4f28419497f9722a3daafe3b4186f6b6457e0600080a3005b604051631e4fbdf760e01b815260006004820152602490fd5b34610392576020366003190112610392576106e6616995565b50600435600052600a60205260806040600020604051610705816160ac565b8154918282526001810154602083019081526060600360ff60028501541693604086019415158552015493019283526040519384525160208401525115156040830152516060820152f35b3461039257602036600319011261039257600435600052600b60205260806040600020805490600260018201549101549060405192835260ff81161515602084015260018060a01b039060081c1660408301526060820152f35b34610392576107b83661640b565b6107c0616cfc565b816000526005602052604060002090600660205260406000203360005260205260406000209060028301549160ff8360a81c1660068110156105975760028161080f600361081594141561674a565b14616796565b60048101549261082860ff8516156167d9565b600360ff8560101c1610156105975760ff60019161084e6002838860101c161415616825565b61085d8260128901541661653b565b61086b828760081c166166f9565b82828760101c16148015611160575b61088390616871565b60a01c166108908161638a565b14611088575b6108a360068310156168f4565b6108b06064831115616935565b60108401906004620200016108c96032855406866165b9565b9585600185015586600285015542600385015562ff00ff191617910155549060036103e883040691600183018311610da557859261090b600987015442616471565b60408051602081019485523360601b6bffffffffffffffffffffffff19169181019190915290929061094a81605481015b03601f198101835282616150565b51902060056064820610610fab575b91600360008051602061889e83398151915294928685600a606481610a3899040610610f2f575b8360648083040610610eab575b50506040519261099c846160ac565b8484526020840190815260408401908982526001606086019301835288600052600c6020526040600020336000526020526040600020945185555160018501555160028401555191015583600052600660205260406000203360005260205284600260406000200155610a126007870154616518565b600787015560405191829133964291846040919493926060820195825260208201520152565b0390a360ff600282015460a01c16610a4f8161638a565b1580610e5b575b610c33575b600160ff600283015460a01c16610a718161638a565b03610abe576007810154600582015414610a8f575b50505b60018055005b6002015460a81c60ff1690600682101561059757610ab26002610ab79314616673565b6171a8565b8080610a86565b50806000526005602052604060002060028101549160ff8360a01c16610ae38161638a565b610bdf5760019160005b826000526007602052604060002054811015610bd757600660205260406000206007602052610b20826040600020616063565b60018060a01b0391549060031b1c1660005260205260ff6004604060002001541615610b4e57600101610aed565b5090915060005b610b62575b505050610a89565b60ff8360a81c1692600684101561059757610b826002610bcf9514616673565b60ff60a81b1916600360a81b17600282015542600a909101556040516003815281907f365a3d0a71be5f440c8224437355d5bd81a703759bf906e441902272bfbafcb390602090a2617a26565b808080610b5a565b509091610b55565b60405162461bcd60e51b815260206004820152602660248201527f5f636865636b47616d65436f6d706c6574696f6e206f6e6c7920666f722041496044820152652067616d657360d01b6064820152608490fd5b81600052600560205260406000206006602052604060002033600052602052604060002060ff60048201541615610e175760010154908115610dbb57601001549083906103e88304600116610d695760146064840406811115610d4c57610cc0603280610cb660008051602061889e833981519152946014606489040690616471565b955b0406846165b9565b60008381526006602090815260408083206001600160a01b037f00000000000000000000000000000000000000000000000000000000000000001680855290835292819020600181018890556002810185905542600382018190556004909101805462ff00ff1916620200011790558151978852918701939093529185019190915292606090a3610a5b565b5060008051602061889e833981519152610cc06032806001610cb6565b9050600181018111610da55760008051602061889e833981519152610cc0603280610d9f88956001601460648a040691016165b9565b95610cb8565b634e487b7160e01b600052601160045260246000fd5b60405162461bcd60e51b815260206004820152602e60248201527f48756d616e20706c6179657220666c697020636f756e74206d7573742062652060448201526d067726561746572207468616e20360941b6064820152608490fd5b606460405162461bcd60e51b815260206004820152602060248201527f48756d616e20706c61796572206d75737420636f6d706c6574652066697273746044820152fd5b50816000526006602052604060002060018060a01b037f00000000000000000000000000000000000000000000000000000000000000001660005260205260ff6004604060002001541615610a56565b610f256000805160206188de83398151915291604051601e6103e88304068152847fa90c07a1ab973ca48fc3f4dad501a99e0dc8a00e62789f669a230d0a505987e060203393a360405191829182919060408352600b60408401526a74696d655f667265657a6560a81b6060840152602060808401930152565b0390a2868b61098d565b604051600c82068152827fa1dfc4607b4ef6099981b145882f4d59df9320828bdce6a4d418361df804c82f60203393a3816000805160206188de83398151915260405180610fa38582919060408352600a604084015269189bdb9d5cd7d8d85c9960b21b6060840152602060808401930152565b0390a2610980565b949193509091866002841115611068575082600119810111610da55786936003610a38938660008051602061889e83398151915296600119015b9860405160028152827fd67c9ef9ddaf92a36275c3b90e5b262e1fcdb29f027ee01267ee671ca00f6cbf60203393a3816000805160206188de833981519152604051806110588582919060408352600a60408401526906c75636b795f666c69760b41b6060840152602060808401930152565b0390a29395505092945050610959565b9360008051602061889e83398151915293506003610a3893866000610fe5565b84600052600d60205260406000203360005260205260ff600160406000200154161561111b5784600052600d60205260406000203360005260205260ff60016040600020015460081c166108965760405162461bcd60e51b815260206004820152601760248201527f4d7573742072657665616c2073636f72652066697273740000000000000000006044820152606490fd5b60405162461bcd60e51b815260206004820152601760248201527f4d75737420636f6d6d69742073636f72652066697273740000000000000000006044820152606490fd5b50601086901c82161561087a565b34610392576020366003190112610392576111a161118d600435616c12565b6040519182916020835260208301906163a1565b0390f35b34610392576000366003190112610392576020600254604051908152f35b34610392576111d1366161d3565b6111d9616cfc565b62093a8042049182600052602092600f845260406000205415611552575b5060405193611205856160fe565b60008552611214600254616518565b92836002558360005260058552604060002090848255600196878301908451916001600160401b03831161153c57889261124e8254616263565b601f8111611501575b5083601f8211600114611496576000908261148b575b50600019600383901b1c1916908b1b1790555b600284018054600161ff0160a81b0319163362ff00ff60a01b191617600160a01b1760ff60a81b191690556000600385018190556004850181905560058501879055600685018a9055600785015542600885015580519081611453575b5050508015801561142c575b505050604051916112f9836160c7565b338352836113ac866113956004828801976000895260408101600081526060820190600082528d608084019b60008d5260a085019782895260c086019a60008c5260005260068152604060002090336000525260406000209460018060a01b039051166001600160601b0360a01b86541617855551908401555160028301555160038201550196511515879060ff801983541691151516179055565b51855461ff00191690151560081b61ff0016178555565b519260038410156105975760008051602061883e833981519152936113d091616652565b83600052600785526113e6336040600020616a3e565b33600052600885526113fc846040600020616a79565b8561141260405193608085526080850190616365565b958301526000604083015260608201528033940390a38055005b610e10808302928304141715610da557611448600b91426165b9565b9101558580806112e9565b8261147b918361146e60405195869385850198899101616342565b8101038084520182616150565b51902060138301558588806112dd565b90508701518c61126d565b908b91601f1982169084600052866000209160005b8181106114df575083116114c6575b5050811b019055611280565b89015160001960f88460031b161c191690558c806114ba565b939596979194829193868d015181550194019201918d93918d979695936114ab565b61152c908360005285600020601f840160051c810191878510611532575b601f0160051c0190616d1f565b8b611257565b909150819061151f565b634e487b7160e01b600052604160045260246000fd5b60405163f8413b0760e01b8152848160048160007f00000000000000000000000000000000000000000000000000000000000000006001600160a01b03165af19081156115fa5785916115d1575b507f9f7ead40ae1e5c145cdd75ebd5d417147cda3a762bc057d6548912617e7279699060405160008152a2846111f7565b813d83116115f3575b6115e48183616150565b810103126103925783866115a0565b503d6115da565b6040513d6000823e3d90fd5b346103925760403660031901126103925761161f61604d565b600435600052600c60205260406000209060018060a01b0316600052602052608060406000208054906001810154906003600282015491015491604051938452602084015260408301526060820152f35b346103925761167e3661640b565b906000526007602052604060002080548210156103925760209161062b91616063565b346103925760203660031901126103925760043560005260096020526020604060002054604051908152f35b34610392576116db3661640b565b6116e3616c51565b60035482820290828204841483151715610da557106117345760405191825260208201527f18e7a4e7f6243e8ed111828ec35dd85ba10a00253b56e9e6e42b07f03d858bca604062093a80420492a2005b60405162461bcd60e51b8152602060048201526015602482015274496e73756666696369656e7420747265617375727960581b6044820152606490fd5b61177a36616208565b61178694919394616cfc565b662386f26fc100003410611cb757600183101580611cac575b6117a890616b2b565b6117b18561638a565b8415611c77575b6117c3600254616518565b938460025584600052600560205260406000209185835583516001600160401b03811161153c576117f76001850154616263565b601f8111611c42575b50806020601f8211600114611bd557600091611bca575b508160011b916000199060031b1c19161760018401555b60028301805461183d8961638a565b600161ff0160a81b0319163362ff00ff60a01b19161760a089901b60ff60a01b1617600160b01b1760ff60a81b1916905534600384018190556004840155600583018590556001600684015560006007840155426008840155805180611b9e575b50506118a98661638a565b6001861480611b95575b611b6b575b50506040516118c6816160c7565b338152602081016000815261197b6040830160008152611964600460608601956000875260808101966000885260a08201946001865260c0830197600089528c600052600660205260406000203360005260205260406000209360018060a01b039051166001600160601b0360a01b8554161784555160018401555160028301555160038201550194511515859060ff801983541691151516179055565b51835461ff00191690151560081b61ff0016178355565b5160038110156105975761198e91616652565b8260005260076020526119a5336040600020616a3e565b3360005260086020526119bc836040600020616a79565b6119c58461638a565b831580611b61575b611a1d575b60008051602061883e833981519152916119f760405192608084526080840190616365565b94611a018161638a565b602083015234604083015260608201528033940390a360018055005b604051917f0000000000000000000000000000000000000000000000000000000000000000611a4b846160c7565b60018060a01b03811684526000602085015260006040850152600060608501526000608085015260a0840160018152611b1760c086019160008352876000526006602052604060002060018060a01b038516600052602052611b0060806004604060002060018060a01b038b51166001600160601b0360a01b82541617815560208b0151600182015560408b0151600282015560608b01516003820155019801511515889060ff801983541691151516179055565b51865461ff00191690151560081b61ff0016178655565b5190600382101561059757611b3e611b519260008051602061883e83398151915296616652565b8560005260076020526040600020616a3e565b611b5a8461722a565b91506119d2565b50600182146119cd565b610e1090818102918183041490151715610da557611b8b600b91426165b9565b91015584806118b8565b508015156118b3565b611bbb602080938361146e60405195869385850198899101616342565b5190206013830155868061189e565b905085015189611817565b91506001850160005260206000206000925b601f1983168410611c2a576001935082601f19811610611c11575b5050811b01600184015561182e565b87015160001960f88460031b161c191690558980611c02565b87810151825560209384019360019092019101611be7565b611c7190600186016000526020600020601f840160051c8101916020851061153257601f0160051c0190616d1f565b88611800565b611c8360018414616b6e565b611ca76064611c9134616734565b04611ca0600454913490616471565b1115616bc6565b6117b8565b50600583111561179f565b60405162461bcd60e51b815260206004820152601a60248201527f426574206d757374206265206174206c656173742031204d4f4e0000000000006044820152606490fd5b3461039257604036600319011261039257600435611d1861604d565b816000526020600581526040600020600d825260406000209260018060a01b031692836000528252604060002084600052600683526040600020846000528352604060002093600283019182549560ff96878160a81c169060068210156105975788600191611d8c6002611d9f951461657b565b60a01c16611d998161638a565b146166b8565b6001820190611db188835416156168b4565b600986015461012c8101809111610da557421115611f2857620200016004820191825490611de18b8316156165c6565b8b60005260158a526040600020876000528a52611e058b6040600020541615616606565b60001960028201556064600182015560034291015562ff00ff191617905561010161ffff19825416179055600242910155856000526015845260406000208160005284526040600020600160ff19825416179055856000805160206188be83398151915260406007860196611e7a8854616518565b8855846000526017815281600020611e928154616518565b90558460005260168152428260002055848460008051602061887e83398151915283855160008152a3848460008051602061885e83398151915283855160648152a3600082519160048352820152a354916001848460a01c16611ef48161638a565b14611efb57005b600590549101541115611f0b575b005b60a81c1690600682101561059757610ab26002611f099314616673565b60405162461bcd60e51b815260048101889052601a60248201527f436f6d6d69742077696e646f77207374696c6c206163746976650000000000006044820152606490fd5b346103925760203660031901126103925760c06001600160a01b0380611f91616037565b1660005260186020526040600020908154169060018101549060028101546003820154906005600484015493015493604051958652602086015260408501526060840152608083015260a0820152f35b611fea36616208565b93611ff6929192616cfc565b341561252e5760025494600186018611610da55761201386616518565b938460025584600052600560205260406000209185835583516001600160401b03811161153c576120476001850154616263565b601f81116124f9575b50806020601f821160011461248c57600091612481575b508160011b916000199060031b1c19161760018401555b60028301805461208d8961638a565b60a089901b60ff60a01b166001600160b81b03199091163362ffffff60a01b1916171790556000600384018190556004840181905560058401869055600160068501556007840155426008840155805180612455575b50506120ee8661638a565b600186148061244c575b612422575b505060405161210b816160c7565b33815260208101600081526121a96040830160008152611964600460608601956000875260808101966000885260a08201946001865260c0830197600089528c600052600660205260406000203360005260205260406000209360018060a01b039051166001600160601b0360a01b8554161784555160018401555160028301555160038201550194511515859060ff801983541691151516179055565b516003811015610597576121bc91616652565b8260005260076020526121d3336040600020616a3e565b3360005260086020526121ea836040600020616a79565b6121f38461638a565b831580612418575b6122fe575b60008051602061883e8339815191529161222560405192608084526080840190616365565b9461222f8161638a565b60208301526000604083015260608201528033940390a3604051612252816160ac565b348152600260208201600081526040830190338252606084019142835260018601600052600b6020526040600020945185556122a16001860192511515839060ff801983541691151516179055565b518154610100600160a81b03191660089190911b610100600160a81b0316179055519101556040513481523391600101907f8e6aee01c9edef2ca60c96e104f6cf6c1f2509907504078ca4223716c0c869ea90602090a360018055005b604051917f000000000000000000000000000000000000000000000000000000000000000061232c846160c7565b60018060a01b03811684526000602085015260006040850152600060608501526000608085015260a08401600181526123e160c086019160008352876000526006602052604060002060018060a01b038516600052602052611b0060806004604060002060018060a01b038b51166001600160601b0360a01b82541617815560208b0151600182015560408b0151600282015560608b01516003820155019801511515889060ff801983541691151516179055565b5190600382101561059757611b3e6124089260008051602061883e83398151915296616652565b6124118461722a565b9150612200565b50600182146121fb565b610e1090818102918183041490151715610da557612442600b91426165b9565b91015585806120fd565b508015156120f8565b612472602080938361146e60405195869385850198899101616342565b519020601383015587806120e3565b90508501518a612067565b91506001850160005260206000206000925b601f19831684106124e1576001935082601f198116106124c8575b5050811b01600184015561207e565b87015160001960f88460031b161c191690558a806124b9565b8781015182556020938401936001909201910161249e565b61252890600186016000526020600020601f840160051c8101916020851061153257601f0160051c0190616d1f565b89612050565b60405162461bcd60e51b815260206004820152601660248201527505072697a6520706f6f6c206d757374206265203e20360541b6044820152606490fd5b600036600319011261039257612580616c51565b34156125c7577f6632e6796459f03dd0eb041bea9eb12e023cda96e59a02d7f5ee12cc8344a6f460406125b5346004546165b9565b806004558151903482526020820152a1005b60405162461bcd60e51b815260206004820152600c60248201526b135d5cdd0819195c1bdcda5d60a21b6044820152606490fd5b34610392576020366003190112610392576001600160a01b0361261c616037565b1660005260166020526020604060002054604051908152f35b346103925760403660031901126103925760e061265061604d565b6004356000526006602052604060002060018060a01b038092166000526020526126d1604060002091825416916001810154906002810154600460038301549201549260405195865260208601526040850152606084015260ff81161515608084015260ff8160081c16151560a084015260ff60c084019160101c16616421565bf35b3461039257602036600319011261039257600435600052600f6020526020604060002054604051908152f35b34610392576000366003190112610392576020601054604051908152f35b3461039257610a8961272e36616208565b9361273a939193616cfc565b60018310158061276d575b61274e90616b2b565b6127578261638a565b81616d365761276860018414616b6e565b616d36565b506005831115612745565b346103925760208060031936011261039257600435612795616cfc565b806000526005825260406000206006835260406000203360005283526127c860ff60046040600020015460081c166166f9565b816000526006835260406000203360005283526127f060ff60046040600020015416156165c6565b3360005260168352604060002054610e108101809111610da5574211156129b15760009260ff6012830154161560001461291e57605a91600160ff600283015460b01c1661283d8161638a565b1480612911575b6128d6575b6006905b846000528183526040600020336000528352600460406000200161ff001981541690550161287b8154616b1e565b905533600052601681524260406000205560178152604060002061289f8154616518565b90556040519384528301527f258e7558fcdc96887e3834f2ed5fd393fc6dcad095796e4fc2dd78b6482f137560403393a360018055005b9350600384015482810290808204841490151715610da5576064600691049485612902575b9050612849565b61290c8633616c7d565b6128fb565b5060038101541515612844565b603291600160ff600283015460b01c166129378161638a565b14806129a4575b61294b575b60069061284d565b9350600384019384549083820291808304851490151715610da55761297d606460069304809781612995575b54616471565b61298c600483019182546165b9565b90559050612943565b61299f8233616c7d565b612977565b506003810154151561293e565b60405162461bcd60e51b815260048101849052601960248201527f52616765207175697420636f6f6c646f776e20616374697665000000000000006044820152606490fd5b6163d5565b346103925760203660031901126103925760006102c0604051612a1d816160e2565b828152606060208201528260408201528260608201528260808201528260a08201528260c08201528260e08201528261010082015282610120820152826101408201528261016082015282610180820152826101a0820152826101c0820152826101e0820152826102008201528261022082015282610240820152826102608201526060610280820152826102a082015201526004356000526005602052604060002060405190612acd826160e2565b80548252612add6001820161629d565b602083015260028101546001600160a01b03811660408401529060a082901c60ff16612b088161638a565b6060840152600660ff8360a81c1610156105975760ff828160139460a81c166080860152612b3a828260b01c1661638a565b60b01c1660a0840152600381015460c0840152600481015460e084015260058101546101008401526006810154610120840152600781015461014084015260088101546101608401526009810154610180840152600a8101546101a0840152600b8101546101c0840152600c8101546001600160a01b03166101e0840152600d810154610200840152600e810154610220840152600f8101546102408401526010810154610260840152612bf06011820161647e565b61028084015260ff60128201541615156102a084015201546102c0820152604051809160208252805160208301526102c0612d51612c3f60208401516102e06040870152610300860190616365565b60408401516001600160a01b0316606086810191909152840151612c628161638a565b6080860152612c79608085015160a0870190616394565b60a0840151612c878161638a565b60c086015260c084015160e086015260e08401516101008601526101008401516101208601526101208401516101408601526101408401516101608601526101608401516101808601526101808401516101a08601526101a08401516101c08601526101c08401516101e086015260018060a01b036101e085015116610200860152610200840151610220860152610220840151610240860152610240840151610260860152610260840151610280860152610280840151601f19868303016102a08701526163a1565b916102a081015115158285015201516102e08301520390f35b3461039257612d78366163f1565b82600093929352602060058152604060002060068252604060002033600052825260406000209060ff600282015460a81c1691600683101561059757612dcb60ff60126004946103f96002849814616796565b0154612ddb828260081c166166f9565b60101c1691600383101561059757612e04600160008051602061885e8339815191529414616aae565b83600052600d82526040600020336000528252612e2c60ff60016040600020015416156168b4565b60405182810191868352604082015260408152612e4881616119565b519020604051612e57816160ac565b818152600283820160018152612ec7604084019160018352606085019242845289600052600d88526040600020336000528852604060002095518655612eb06001870192511515839060ff801983541691151516179055565b51815461ff00191690151560081b61ff0016179055565b519101556040519081528360008051602061887e833981519152833393a36040519384523393a3005b3461039257602036600319011261039257600435612f0c616cfc565b7f00000000000000000000000000000000000000000000000000000000000000006001600160a01b03163381900361300857816000526009602052604060002054918215612fce576060602492604051938480926302d8ca0160e11b82528560048301525afa9283156115fa57610a8993600093600091612f97575b50612f929061653b565b617731565b612f929450612fbe915060603d606011612fc7575b612fb68183616150565b810190616afa565b91949050612f88565b503d612fac565b60405162461bcd60e51b8152602060048201526012602482015271125b9d985b1a59081c995c5d595cdd08125160721b6044820152606490fd5b60405162461bcd60e51b815260206004820152601960248201527f4f6e6c792050797468205652462063616e2066756c66696c6c000000000000006044820152606490fd5b34610392576000366003190112610392576000546040516001600160a01b039091168152602090f35b346103925760403660031901126103925761308f61604d565b600435600052600d60205260406000209060018060a01b03166000526020526080604060002080549060ff60026001830154920154916040519384528181161515602085015260081c16151560408301526060820152f35b3461039257600036600319011261039257602060405160018152f35b3461039257602036600319011261039257600435600052600e6020526020604060002054604051908152f35b346103925760203660031901126103925760043561314b616c51565b8060005260056020526040600020906002820180549260ff8460a81c1660068110156105975760010361325d5760098101546154608101809111610da5574210613218576012015460ff166131db5760ff60a81b19909216600560a81b17909155611f0990807f6735b98d5d75eb6a72ff7cbd805fc91d5ee18e1b5d11043b0e649b6f22c9cab8600080a261768d565b60405162461bcd60e51b815260206004820152601560248201527415949188185b1c9958591e48199d5b199a5b1b1959605a1b6044820152606490fd5b60405162461bcd60e51b815260206004820152601760248201527f5652462074696d656f7574206e6f7420726561636865640000000000000000006044820152606490fd5b60405162461bcd60e51b815260206004820152601460248201527313db9b1e48199bdc88159491881d1a5b595bdd5d60621b6044820152606490fd5b34610392576040366003190112610392576004356024359080600052602060058152604060002060068252604060002033600052825260406000209060ff600282015460a81c169160068310156105975761330160ff60126004946103f96002849814616796565b0154613311828260081c166166f9565b60101c169060038210156105975761333a600160008051602061887e8339815191529314616aae565b82600052600d8152604060002033600052815261336260ff60016040600020015416156168b4565b60405161336e816160ac565b8481526002828201600181526133c7604084019160008352606085019242845288600052600d87526040600020336000528752604060002095518655612eb06001870192511515839060ff801983541691151516179055565b519101556040519384523393a3005b34610392576000366003190112610392576040517f00000000000000000000000000000000000000000000000000000000000000006001600160a01b03168152602090f35b34610392576020366003190112610392576001600160a01b0361343c616037565b1660005260146020526020604060002054604051908152f35b346103925760003660031901126103925761346e616c51565b600080546001600160a01b0319811682556001600160a01b03167f8be0079c531659141344cd1fd0a4f28419497f9722a3daafe3b4186f6b6457e08280a3005b6020366003190112610392576004356134c5616cfc565b806000526005602052604060002090600282019081549160ff8360a81c1660068110156105975760038114908115613c27575b5015613bee5760ff8360a01c169161350f8361638a565b61351b600184146166b8565b600052600660205260406000203360005260205260ff60046040600020015460081c1615613ba9576001840191604051809360009080549061355c82616263565b9160018116908115613b825750600114613b3e575b50506135999181690405a40a4cadac2e8c6d60b31b600a935203601519810186520184616150565b600b8501548015613b315760ff610e106135ba60019360098a015490616471565b04955b60b01c166135ca8161638a565b03613afe575060038401543410613ab95760059054930154906040516135ef816160fe565b600081526135fe600254616518565b938460025584600052600560205260406000209185835583516001600160401b03811161153c576136326001850154616263565b601f8111613a84575b50806020601f8211600114613a1757600091613a0c575b508160011b916000199060031b1c19161760018401555b60028301805461367e60ff8a60a01c1661638a565b61368d60ff8a60b01c1661638a565b62ffffff60a01b1933166001600160b81b0319919091161760ff60a01b89161760ff60b01b8916179055346003840181905560048401556005830185905560016006840155600060078401554260088401558051806139e0575b50506136f860ff8760a01c1661638a565b600160ff8760a01c1614806139d7575b6139ad575b505060405161371b816160c7565b33815260208101600081526137b96040830160008152611964600460608601956000875260808101966000885260a08201946001865260c0830197600089528c600052600660205260406000203360005260205260406000209360018060a01b039051166001600160601b0360a01b8554161784555160018401555160028301555160038201550194511515859060ff801983541691151516179055565b516003811015610597576137cc91616652565b8260005260076020526137e3336040600020616a3e565b3360005260086020526137fa836040600020616a79565b61380960ff8560a01c1661638a565b60ff8460a01c1615806139a3575b613872575b60008051602061883e8339815191529160ff61384360405193608085526080850190616365565b95613852828260a01c1661638a565b60a01c16602083015234604083015260608201528033940390a360018055005b604051917f00000000000000000000000000000000000000000000000000000000000000006138a0846160c7565b60018060a01b038116845260006020850152600060408501526000606085015260006080850152600160a0850152600060c0850152846000526006602052604060002060018060a01b03821660005260205260c06004604060002060018060a01b038751166001600160601b0360a01b825416178155602087015160018201556040870151600282015560608701516003820155019461395260808201511515879060ff801983541691151516179055565b60a0810151865461ff00191690151560081b61ff0016178655015190600382101561059757611b3e6139939260008051602061883e83398151915296616652565b61399c8461722a565b915061381c565b5060018214613817565b610e1090818102918183041490151715610da5576139cd600b91426165b9565b910155848061370d565b50801515613708565b6139fd602080938361146e60405195869385850198899101616342565b519020601383015586806136e7565b905085015189613652565b91506001850160005260206000206000925b601f1983168410613a6c576001935082601f19811610613a53575b5050811b016001840155613669565b87015160001960f88460031b161c191690558980613a44565b87810151825560209384019360019092019101613a29565b613ab390600186016000526020600020601f840160051c8101916020851061153257601f0160051c0190616d1f565b8861363b565b60405162461bcd60e51b815260206004820152601e60248201527f5374616b65206d757374206d61746368206f726967696e616c2067616d6500006044820152606490fd5b90506005613b2c94613b1394939434156169f3565b01549060405193613b23856160fe565b60008552616d36565b610a89565b50600160ff6018956135bd565b915091506000528360206000206000905b838210613b68575090918201602001905081600a613571565b6020919250806001915483858a0101520191018591613b4f565b600a9450602092506135999593915060ff1916828401528015150282010191819350613571565b60405162461bcd60e51b815260206004820152601d60248201527f4e6f74206120706c6179657220696e206f726967696e616c2067616d650000006044820152606490fd5b60405162461bcd60e51b815260206004820152601160248201527011d85b59481b9bdd08199a5b9a5cda1959607a1b6044820152606490fd5b6005915014856134f8565b3461039257602036600319011261039257600435613c4e616cfc565b60008181526005602052604090206002018054336001600160a01b03821603613cff5760ff8160a81c16600681101561059757613cca5760ff60a81b1916600160aa1b179055613c9d8161768d565b33907f58f64e02b3a6d2a3bd28b7700a0a0d6699545bcb55bf917ac0ff670f3a509efb600080a360018055005b60405162461bcd60e51b815260206004820152600d60248201526c10d85b9b9bdd0818d85b98d95b609a1b6044820152606490fd5b60405162461bcd60e51b815260206004820152601760248201527f4f6e6c792063726561746f722063616e2063616e63656c0000000000000000006044820152606490fd5b6040366003190112610392576024356001600160401b03811161039257613d6f90369060040161618c565b613d77616cfc565b6004356000526005602052604060002090600282015460ff8160a81c166006811015610597576141995760068301546005840154111561416557600435600052600660205260406000203360005260205260ff60046040600020015460081c1661412f57613dea60ff8260b01c1661638a565b600160ff8260b01c161460001461411f5760ff60019160a01c16613e0d8161638a565b036140db5760038201543403614096575b3415614045575b60138201549081613fdf575b5050604051613e3f816160c7565b3381526020810160008152613ede6040830160008152611964600460608601956000875260808101966000885260a08201946001865260c0830197600089528435600052600660205260406000203360005260205260406000209360018060a01b039051166001600160601b0360a01b8554161784555160018401555160028301555160038201550194511515859060ff801983541691151516179055565b51600381101561059757613ef191616652565b6004356000526007602052613f0a336040600020616a3e565b336000526008602052613f236004356040600020616a79565b613f306006820154616518565b90816006820155600160ff600560028401549383838660b01c16613f538161638a565b14613fc9575b01549260405185815284602082015233907f1106c14aab1f44b1577fd2f42206ee286f0fbf82c72942bbcdc9028af44216ff604060043592a360a01c16613f9f8161638a565b149182613fbe575b5050613fb35760018055005b613b2c60043561722a565b101590508180613fa7565b60048101613fd83482546165b9565b9055613f59565b604051613ffc6020828161146e8183019687815193849201616342565b5190200361400b578180613e31565b60405162461bcd60e51b8152602060048201526012602482015271125b98dbdc9c9958dd081c185cdcdddbdc9960721b6044820152606490fd5b60405162461bcd60e51b815260206004820152602360248201527f5374616b6520616d6f756e74206d75737420626520677265617465722074686160448201526206e20360ec1b6064820152608490fd5b60405162461bcd60e51b815260206004820152601e60248201527f5374616b65206d757374206d617463682063726561746f72207374616b6500006044820152606490fd5b6003820154341015613e1e5760405162461bcd60e51b815260206004820152601060248201526f125b9cdd59999a58da595b9d0818995d60821b6044820152606490fd5b5061412a34156169f3565b613e25565b60405162461bcd60e51b815260206004820152600e60248201526d105b1c9958591e481a9bda5b995960921b6044820152606490fd5b60405162461bcd60e51b815260206004820152600c60248201526b11d85b59481a5cc8199d5b1b60a21b6044820152606490fd5b60405162461bcd60e51b815260206004820152601460248201527311d85b5948185b1c9958591e481cdd185c9d195960621b6044820152606490fd5b3461039257602036600319011261039257600435600052600a60205260806040600020805490600181015490600360ff600283015416910154916040519384526020840152151560408301526060820152f35b34610392576000366003190112610392576020600454604051908152f35b34610392576000366003190112610392576020604051662386f26fc100008152f35b346103925760403660031901126103925761428161604d565b600060c0604051614291816160c7565b8281528260208201528260408201528260608201528260808201528260a082015201526004356000526006602052604060002060018060a01b038092166000526020526040600020604051906142e6826160c7565b82815416825260018101546020830190815260028201549160408401928352600460038201549160608601928352015490608085019060ff83161515825260ff60a0870193818160081c161515855260101c169460c087019460038710156105975760e0986126d19787526040519851168852516020880152516040870152516060860152511515608085015251151560a08401525160c0830190616421565b3461039257602080600319360112610392576004356143a3616cfc565b8060005260058252604060002091600b815260ff6002604060002094015460a81c166006811015610597576003036144f157600183019283549360ff85166144b457907f97325efc464900c0d7e3bd53005b12c77f4adb6e2bd7dd12d40b4e1fc7d89d25929184600052600a835261442560ff6002604060002001541661653b565b846000526007835261443d60406000205415156169ba565b84600052600a8352600161447761446582604060002001546007875260406000205490616975565b87600052600786526040600020616063565b828060a01b0391549060031b1c169660ff19161790558054806144a4575b5054604051908152a360018055005b6144ae9086616c7d565b85614495565b60405162461bcd60e51b8152600481018490526015602482015274141c9a5e9948185b1c9958591e4818db185a5b5959605a1b6044820152606490fd5b6064906040519062461bcd60e51b82526004820152601260248201527111d85b59481b9bdd0818dbdb5c1b195d195960721b6044820152fd5b34610392576145383661640b565b906000526012602052604060002080548210156103925760209161062b91616063565b346103925760208060031936011261039257600435806000526005825260ff6012604060002001541615614712578060005260078252604060002091604051808483829654938481520190600052836000209260005b858282106146f3575050506145c892500384616150565b8251926145ed6145d7856164cf565b946145e56040519687616150565b8086526164cf565b601f19018260005b8281106146dd5750505060005b8151811015614682576000848152600c845260409020600191906001600160a01b0361462e8386616527565b511660005284526040600020600360405191614649836160ac565b80548352848101548784015260028101546040840152015460608201526146708288616527565b5261467b8187616527565b5001614602565b604080518481528651818601819052878601928201908660005b8281106146a95784840385f35b855180518552808301518584015260408082015190860152606090810151908501529481019460809093019260010161469c565b6146e5616995565b8282890101520183906145f5565b85546001600160a01b03168452600195860195899550930192016145b1565b60405162461bcd60e51b815260048101839052601060248201526f11d85b59481b9bdd081cdd185c9d195960821b6044820152606490fd5b3461039257614758366163f1565b90614761616cfc565b826000526005602052604060002091600660205260406000203360005260205260406000209060ff600285015460a81c1660068110156105975760028161080f60036147ae94141561674a565b60048201546147c060ff8216156167d9565b600360ff8260101c16101561059757806147e6600260ff61481d9460101c161415616825565b6147f660ff60128801541661653b565b61480560ff8260081c166166f9565b600160ff8260101c1614908115614c55575b50616871565b84600052600d60205260406000203360005260205261484760ff60016040600020015416156168b4565b61485460068410156168f4565b6148616064841115616935565b604051602081019184835260408201526040815261487e81616119565b51902060405161488d816160ac565b818152600260208201600181526148e960408401916001835260608501924284528a600052600d602052604060002033600052602052604060002095518655612eb06001870192511515839060ff801983541691151516179055565b519101556040519081528460008051602061887e83398151915260203393a36040518281528460008051602061885e83398151915260203393a360108301549061493660328306846165b9565b918560405160208101906149688161093c338786909160349282526001600160601b03199060601b1660208201520190565b51902060056064820610614bb6575b600a60648183040610614b3a575b600360648083040610614ab6575b505060036103e86149a8600988015442616471565b92040660018101809111610da557600390604051926149c6846160ac565b8684526020840190815260408401908682526060850192835289600052600c6020526040600020336000526020526040600020945185555160018501555160028401555191015582600182015581600282015542600382015560046202000162ff00ff198284015416179101558360008051602061889e833981519152614a796007860194614a558654616518565b80965560405191829133964291846040919493926060820195825260208201520152565b0390a3600582015414614a8c5760018055005b6002015460a81c60ff1690600682101561059757610ab26002614aaf9314616673565b8080610a89565b614b306000805160206188de83398151915291604051601e6103e88304068152847fa90c07a1ab973ca48fc3f4dad501a99e0dc8a00e62789f669a230d0a505987e060203393a360405191829182919060408352600b60408401526a74696d655f667265657a6560a81b6060840152602060808401930152565b0390a28587614993565b604051600c82068152827fa1dfc4607b4ef6099981b145882f4d59df9320828bdce6a4d418361df804c82f60203393a3816000805160206188de83398151915260405180614bae8582919060408352600a604084015269189bdb9d5cd7d8d85c9960b21b6060840152602060808401930152565b0390a2614985565b9390506002811115614c4c576001198101908111610da55786905b9360405160028152827fd67c9ef9ddaf92a36275c3b90e5b262e1fcdb29f027ee01267ee671ca00f6cbf60203393a3816000805160206188de83398151915260405180614c448582919060408352600a60408401526906c75636b795f666c69760b41b6060840152602060808401930152565b0390a2614977565b50856000614bd1565b60ff915060101c161587614817565b346103925760203660031901126103925760c0614c7f616037565b600060a0604051614c8f81616091565b828152826020820152826040820152826060820152826080820152015260018060a01b03809116600052601860205260406000209060405190614cd182616091565b825416918282526001810154602083019081526002820154604084019081526003830154916060850192835260a0600560048601549560808801968752015495019485526040519586525160208601525160408501525160608401525160808301525160a0820152f35b3461039257602036600319011261039257600435614d57616cfc565b8060005260056020526040600020906006602052604060002033600052602052604060002091600281019081549160ff92838160a81c1690600682101561059757614da5600286931461657b565b60a01c1694614db38661638a565b614dc060018097146166b8565b620200016004820191825490614dda878360081c166166f9565b614de6878316156165c6565b600019600282015560648982015560034291015562ff00ff1916179055549084838360b01c16614e158161638a565b1480614ee8575b614ead575b6007810190614e308254616518565b8092556003810154861c60405190600582526020820152856000805160206188be83398151915260403393a385848460a01c16614e6c8161638a565b14614e7657858055005b600501541115614e88575b8080858055005b60a81c1690600682101561059757610ab26002614ea59314616673565b818080614e81565b6003810154603281029080820460321481151715610da5576064614ed2920490616471565b614ee1600483019182546165b9565b9055614e21565b5060038101541515614e1c565b3461039257604036600319011261039257600435614f1161604d565b816000526020600581526040600020600d825260406000209260018060a01b031692836000528252604060002084600052600683526040600020846000528352604060002093600283019160ff9586845460a81c166006811015610597576002614f7b911461657b565b60018201918254888082169182615135575b5050156150fc576002015461012c8101809111610da5574211156150b757620200016004820191825490614fc38a8316156165c6565b8a600052601589526040600020866000528952614fe78a6040600020541615616606565b60001960028201556064600182015560034291015562ff00ff191617905561010061ff0019825416179055856000526015845260406000208160005284526040600020600160ff19825416179055856000805160206188be833981519152604060078601966150568854616518565b885584600052601781528160002061506e8154616518565b90558460005260168152428260002055848460008051602061885e83398151915283855160648152a3600082519160038352820152a354916001848460a01c16611ef48161638a565b60405162461bcd60e51b815260048101879052601760248201527f52657665616c2074696d65206e6f7420657870697265640000000000000000006044820152606490fd5b60405162461bcd60e51b8152600481018890526011602482015270139bc81c195b991a5b99c81c995d99585b607a1b6044820152606490fd5b60081c16159050888b614f8d565b3461039257600036600319011261039257602060405161012c8152f35b3461039257600036600319011261039257602060405160068152f35b3461039257600036600319011261039257602060405160648152f35b34610392576000366003190112610392576020600354604051908152f35b3461039257600036600319011261039257620151804204806000526020600e8152604060002054156151e457005b60405163f8413b0760e01b8152818160048160007f00000000000000000000000000000000000000000000000000000000000000006001600160a01b03165af180156115fa5761525c575b507fc0e1ee3df0ccc2047d8cfbc4ba1057d58b46fd44d040ae612052e94c48b98b209060405160008152a2005b8190813d831161527f575b6152718183616150565b81010312610392578261522f565b503d615267565b34610392576000366003190112610392576020604051600a8152f35b3461039257600036600319011261039257602060405160328152f35b346103925760203660031901126103925760043580600052600a6020526152ef60ff6002604060002001541661653b565b600052600a6020526020600160406000200154604051908152f35b34610392576020366003190112610392576001600160a01b0361532b616037565b1660005260176020526020604060002054604051908152f35b346103925760003660031901126103925760028054615362816164e6565b9160009160015b818111156153bd5750505061537d816164e6565b9160005b82811061539e57604051602080825281906111a1908201876163a1565b806153ab60019284616527565b516153b68287616527565b5201615381565b80600052600560209080825260ff85604060002001548160a891821c1692600693848110156105975715948515615457575b851561542f575b505050505061540e575b61540990616518565b615369565b9261542781856154216154099489616527565b52616518565b939050615400565b600087815291905260409020870154901c1691508110156105975760011486808080806153f6565b945085600052808552828860406000200154831c1684811015610597578814946153ef565b34610392576000366003190112610392576040517f00000000000000000000000000000000000000000000000000000000000000006001600160a01b03168152602090f35b34610392576020366003190112610392576001600160a01b036154e2616037565b1660005260136020526020604060002054604051908152f35b3461039257600036600319011261039257615514616c51565b60035480156155685760006003557f41fdd680478135993bc53fb2ffaf9560951b57ef62ff6badd02b61e018b4f17f602060018060a01b0361555a848260005416616c7d565b6000541692604051908152a2005b60405162461bcd60e51b81526020600482015260086024820152674e6f2066756e647360c01b6044820152606490fd5b34610392576020806003193601126103925760043560005260078152604060002060405190818382549182815201908192600052846000209060005b868282106156335786866155ea82880383616150565b604051928392818401908285525180915260408401929160005b82811061561357505050500390f35b83516001600160a01b031685528695509381019392810192600101615604565b83546001600160a01b0316855290930192600192830192016155d4565b34610392576020366003190112610392576001600160a01b03615671616037565b1660005260086020526111a161118d604060002061647e565b346103925760203660031901126103925760043560005260056020526040600020805490600181016156bb9061629d565b61010052600281015460e05260038101546101205260048101549160058201546006830154600784015460088501546009860154600a87015490600b88015492600160a01b60019003600c8a01541694600d8a015496600e8b015498600f8c01549a60108d01549c601281015460ff166080526013015460a05260405160c0526102c09060c051528060c0516020015260c05101610100519061575d91616365565b9c600160a01b6001900360e0511660c0516040015260e05160a01c60ff166157849061638a565b60e05160a01c60ff1660c0516060015260c05160800160e05160a81c60ff16906157ad91616394565b60e05160b01c60ff166157bf9061638a565b60e05160b01c60ff1660c05160a001526101205160c05160c0015260c05160e0015260c051610100015260c051610120015260c051610140015260c051610160015260c051610180015260c0516101a0015260c0516101c0015260c0516101e0015260c051610200015260c051610220015260c051610240015260c0516102600152608051151560c051610280015260a05160c0516102a0015260c051900360c051f35b346103925761587136616208565b61587d94919394616cfc565b615888600254616518565b938460025584600052600560205260406000209185835583516001600160401b03811161153c576158bc6001850154616263565b601f8111615cbc575b50806020601f8211600114615c4f57600091615c44575b508160011b916000199060031b1c19161760018401555b6002830180546159028961638a565b60a089901b60ff60a01b166001600160b81b03199091163362ffffff60a01b1916171790556000600384018190556004840181905560058401869055600160068501556007840155426008840155805180615c18575b50506159638661638a565b6001861480615c0f575b615be5575b5050604051615980816160c7565b3381526020810160008152615a1e6040830160008152611964600460608601956000875260808101966000885260a08201946001865260c0830197600089528c600052600660205260406000203360005260205260406000209360018060a01b039051166001600160601b0360a01b8554161784555160018401555160028301555160038201550194511515859060ff801983541691151516179055565b51600381101561059757615a3191616652565b826000526007602052615a48336040600020616a3e565b336000526008602052615a5f836040600020616a79565b615a688461638a565b831580615bdb575b615ac1575b60008051602061883e83398151915291615a9a60405192608084526080840190616365565b94615aa48161638a565b60208301526000604083015260608201528033940390a360018055005b604051917f0000000000000000000000000000000000000000000000000000000000000000615aef846160c7565b60018060a01b03811684526000602085015260006040850152600060608501526000608085015260a0840160018152615ba460c086019160008352876000526006602052604060002060018060a01b038516600052602052611b0060806004604060002060018060a01b038b51166001600160601b0360a01b82541617815560208b0151600182015560408b0151600282015560608b01516003820155019801511515889060ff801983541691151516179055565b5190600382101561059757611b3e615bcb9260008051602061883e83398151915296616652565b615bd48461722a565b9150615a75565b5060018214615a70565b610e1090818102918183041490151715610da557615c05600b91426165b9565b9101558480615972565b5080151561596d565b615c35602080938361146e60405195869385850198899101616342565b51902060138301558680615958565b9050850151896158dc565b91506001850160005260206000206000925b601f1983168410615ca4576001935082601f19811610615c8b575b5050811b0160018401556158f3565b87015160001960f88460031b161c191690558980615c7c565b87810151825560209384019360019092019101615c61565b615ceb90600186016000526020600020601f840160051c8101916020851061153257601f0160051c0190616d1f565b886158c5565b3461039257615cff366161d3565b615d07616cfc565b6201518042049182600052602092600e845260406000205415615ea4575b5060405193615d33856160fe565b60008552615d42600254616518565b92836002558360005260058552604060002090848255600196878301908451916001600160401b03831161153c578892615d7c8254616263565b601f8111615e74575b5083601f8211600114615e23576000908261148b5750600019600383901b1c1916908b1b179055600284018054600161ff0160a81b0319163362ff00ff60a01b191617600160a01b1760ff60a81b191690556000600385018190556004850181905560058501879055600685018a9055600785015542600885015580519081611453575050508015801561142c57505050604051916112f9836160c7565b908b91601f1982169084600052866000209160005b818110615e52575083116114c6575050811b019055611280565b939596979194829193868d015181550194019201918d93918d97969593615e38565b615e9e908360005285600020601f840160051c81019187851061153257601f0160051c0190616d1f565b8b615d85565b60405163f8413b0760e01b8152848160048160007f00000000000000000000000000000000000000000000000000000000000000006001600160a01b03165af19081156115fa578591615f23575b507fc0e1ee3df0ccc2047d8cfbc4ba1057d58b46fd44d040ae612052e94c48b98b209060405160008152a284615d25565b813d8311615f45575b615f368183616150565b81010312610392578386615ef2565b503d615f2c565b3461039257604036600319011261039257615f65616037565b6001600160a01b031660009081526008602052604090208054602435919082101561039257602091615f9691616063565b90546040519160031b1c8152f35b34610392576020366003190112610392577ffcc9e1bab18876e9da15b014af31492eb0229b8bc33b8edde9689afe3617f67b6040600435615fe3616c51565b8015158061602b575b615ff59061642e565b61600181600454616471565b60045560005461601b9082906001600160a01b0316616c7d565b60045482519182526020820152a1005b50600454811115615fec565b600435906001600160a01b038216820361039257565b602435906001600160a01b038216820361039257565b805482101561607b5760005260206000200190600090565b634e487b7160e01b600052603260045260246000fd5b60c081019081106001600160401b0382111761153c57604052565b608081019081106001600160401b0382111761153c57604052565b60e081019081106001600160401b0382111761153c57604052565b6102e081019081106001600160401b0382111761153c57604052565b602081019081106001600160401b0382111761153c57604052565b606081019081106001600160401b0382111761153c57604052565b6101a081019081106001600160401b0382111761153c57604052565b90601f801991011681019081106001600160401b0382111761153c57604052565b6001600160401b03811161153c57601f01601f191660200190565b81601f82011215610392578035906161a382616171565b926161b16040519485616150565b8284526020838301011161039257816000926020809301838601378301015290565b606060031982011261039257600435906001600160401b038211610392576161fd9160040161618c565b906024359060443590565b9060a0600319830112610392576001600160401b0360043581811161039257836162349160040161618c565b92602435600281101561039257926044359260643592608435918211610392576162609160040161618c565b90565b90600182811c92168015616293575b602083101461627d57565b634e487b7160e01b600052602260045260246000fd5b91607f1691616272565b906040519182600082546162b081616263565b9081845260209460019160018116908160001461632057506001146162e1575b5050506162df92500383616150565b565b600090815285812095935091905b8183106163085750506162df93508201013880806162d0565b855488840185015294850194879450918301916162ef565b925050506162df94925060ff191682840152151560051b8201013880806162d0565b60005b8381106163555750506000910152565b8181015183820152602001616345565b9060209161637e81518092818552858086019101616342565b601f01601f1916010190565b6002111561059757565b9060068210156105975752565b90815180825260208080930193019160005b8281106163c1575050505090565b8351855293810193928101926001016163b3565b3461039257600036600319011261039257602060405160058152f35b606090600319011261039257600435906024359060443590565b6040906003190112610392576004359060243590565b9060038210156105975752565b1561643557565b60405162461bcd60e51b8152602060048201526014602482015273496e73756666696369656e742062616c616e636560601b6044820152606490fd5b91908203918211610da557565b90604051918281549182825260209260208301916000526020600020936000905b8282106164b5575050506162df92500383616150565b85548452600195860195889550938101939091019061649f565b6001600160401b03811161153c5760051b60200190565b906164f0826164cf565b6164fd6040519182616150565b828152809261650e601f19916164cf565b0190602036910137565b6000198114610da55760010190565b805182101561607b5760209160051b010190565b1561654257565b60405162461bcd60e51b8152602060048201526011602482015270159491881b9bdd08199d5b199a5b1b1959607a1b6044820152606490fd5b1561658257565b60405162461bcd60e51b815260206004820152600f60248201526e47616d65206e6f742061637469766560881b6044820152606490fd5b91908201809211610da557565b156165cd57565b60405162461bcd60e51b8152602060048201526011602482015270105b1c9958591e4818dbdb5c1b195d1959607a1b6044820152606490fd5b1561660d57565b60405162461bcd60e51b815260206004820152601760248201527f50656e616c747920616c7265616479206170706c6965640000000000000000006044820152606490fd5b9060038110156105975762ff000082549160101b169062ff00001916179055565b1561667a57565b60405162461bcd60e51b815260206004820152601660248201527511d85b5948185b1c9958591e4818dbdb5c1b195d195960521b6044820152606490fd5b156166bf57565b60405162461bcd60e51b81526020600482015260126024820152714f6e6c7920666f72205056502067616d657360701b6044820152606490fd5b1561670057565b60405162461bcd60e51b815260206004820152600c60248201526b2737ba103090383630bcb2b960a11b6044820152606490fd5b9060c382029180830460c31490151715610da557565b1561675157565b60405162461bcd60e51b815260206004820152601960248201527f47616d6520697320616c726561647920636f6d706c65746564000000000000006044820152606490fd5b1561679d57565b60405162461bcd60e51b815260206004820152601460248201527347616d65206e6f7420696e2070726f677265737360601b6044820152606490fd5b156167e057565b60405162461bcd60e51b815260206004820152601860248201527f506c6179657220616c726561647920636f6d706c6574656400000000000000006044820152606490fd5b1561682c57565b60405162461bcd60e51b815260206004820152601860248201527f506c6179657220616c7265616479207375626d697474656400000000000000006044820152606490fd5b1561687857565b60405162461bcd60e51b8152602060048201526014602482015273496e76616c696420706c6179657220737461746560601b6044820152606490fd5b156168bb57565b60405162461bcd60e51b8152602060048201526011602482015270105b1c9958591e4818dbdb5b5a5d1d1959607a1b6044820152606490fd5b156168fb57565b60405162461bcd60e51b8152602060048201526012602482015271466c697020636f756e7420746f6f206c6f7760701b6044820152606490fd5b1561693c57565b60405162461bcd60e51b8152602060048201526011602482015270556e7265616c69737469632073636f726560781b6044820152606490fd5b811561697f570690565b634e487b7160e01b600052601260045260246000fd5b604051906169a2826160ac565b60006060838281528260208201528260408201520152565b156169c157565b60405162461bcd60e51b815260206004820152600a6024820152694e6f20706c617965727360b01b6044820152606490fd5b156169fa57565b606460405162461bcd60e51b815260206004820152602060248201527f467265652067616d657320646f6e27742072657175697265207061796d656e746044820152fd5b8054600160401b81101561153c57616a5b91600182018155616063565b60018060a09493941b038084549260031b9316831b921b1916179055565b8054600160401b81101561153c57616a9691600182018155616063565b819291549060031b91821b91600019901b1916179055565b15616ab557565b60405162461bcd60e51b815260206004820152601b60248201527f506c61796572206e6f7420696e20706c6179696e6720737461746500000000006044820152606490fd5b90816060910312610392578051916040602083015192015180151581036103925790565b8015610da5576000190190565b15616b3257565b60405162461bcd60e51b8152602060048201526014602482015273125b9d985b1a59081c1b185e595c8818dbdd5b9d60621b6044820152606490fd5b15616b7557565b60405162461bcd60e51b815260206004820152602360248201527f41492067616d6573206d75737420686176652065786163746c79203120706c616044820152623cb2b960e91b6064820152608490fd5b15616bcd57565b60405162461bcd60e51b815260206004820152601a60248201527f496e73756666696369656e7420686f7573652062616c616e63650000000000006044820152606490fd5b60005260056020526040600020616c2f60ff60128301541661653b565b601181018054616c4757506010616260910154617912565b616260915061647e565b6000546001600160a01b03163303616c6557565b60405163118cdaa760e01b8152336004820152602490fd5b6000918291829182916001600160a01b03165af13d15616cf7573d616ca181616171565b90616caf6040519283616150565b8152600060203d92013e5b15616cc157565b60405162461bcd60e51b815260206004820152600e60248201526d14185e5b595b9d0819985a5b195960921b6044820152606490fd5b616cba565b600260015414616d0d576002600155565b604051633ee5aeb560e01b8152600490fd5b818110616d2a575050565b60008155600101616d1f565b9093616d43600254616518565b938460025584600052600560205260406000209185835583516001600160401b03811161153c57616d776001850154616263565b601f8111617173575b50806020601f8211600114617106576000916170fb575b508160011b916000199060031b1c19161760018401555b600283018054616dbd8961638a565b60a089901b60ff60a01b166001600160b81b03199091163362ffffff60a01b19161717905560006003840181905560048401819055600584018690556001600685015560078401554260088401558051806170cf575b5050616e1e8661638a565b60018614806170c6575b61709c575b5050604051616e3b816160c7565b3381526020810160008152616ed96040830160008152611964600460608601956000875260808101966000885260a08201946001865260c0830197600089528c600052600660205260406000203360005260205260406000209360018060a01b039051166001600160601b0360a01b8554161784555160018401555160028301555160038201550194511515859060ff801983541691151516179055565b51600381101561059757616eec91616652565b826000526007602052616f03336040600020616a3e565b336000526008602052616f1a836040600020616a79565b616f238461638a565b831580617092575b616f78575b60008051602061883e83398151915291616f5560405192608084526080840190616365565b94616f5f8161638a565b60208301526000604083015260608201528033940390a3565b604051917f0000000000000000000000000000000000000000000000000000000000000000616fa6846160c7565b60018060a01b03811684526000602085015260006040850152600060608501526000608085015260a084016001815261705b60c086019160008352876000526006602052604060002060018060a01b038516600052602052611b0060806004604060002060018060a01b038b51166001600160601b0360a01b82541617815560208b0151600182015560408b0151600282015560608b01516003820155019801511515889060ff801983541691151516179055565b5190600382101561059757611b3e6170829260008051602061883e83398151915296616652565b61708b8461722a565b9150616f30565b5060018214616f2b565b610e1090818102918183041490151715610da5576170bc600b91426165b9565b9101553880616e2d565b50801515616e28565b6170ec602080938361146e60405195869385850198899101616342565b51902060138301553880616e13565b905085015138616d97565b91506001850160005260206000206000925b601f198316841061715b576001935082601f19811610617142575b5050811b016001840155616dae565b87015160001960f88460031b161c191690553880617133565b87810151825560209384019360019092019101617118565b6171a290600186016000526020600020601f840160051c8101916020851061153257601f0160051c0190616d1f565b38616d80565b806000526005602052604060002090600282019182549260ff8460a81c16936006851015610597576171df60026162df9614616796565b60ff60a81b1916600360a81b17905542600a91909101556040516003815281907f365a3d0a71be5f440c8224437355d5bd81a703759bf906e441902272bfbafcb390602090a2617a26565b90600082815260209060058252604090818120946002860193845460ff9560ff8260a81c1691600692838110156176795761763c5760ff8160a01c1661726f8161638a565b6175e9576001838b0154106175b0578486528284528686207f00000000000000000000000000000000000000000000000000000000000000006001600160a01b0316875284528686206004015460081c60ff1615617577575b60ff60a81b1916600160a81b179055426009890155835b83855260078352858520805482101561735e57906172ff81600193616063565b838060a01b0391549060031b1c16858752838552878720818852855260049089828a8a20015460081c16617336575b5050016172df565b868852848652888820908852855287872001805462ff0000191662010000179055388061732e565b5050845163f8413b0760e01b815296979296939550929392507f00000000000000000000000000000000000000000000000000000000000000006001600160a01b03169190808560048189875af194851561756d57918793918793849761750f575b50927f587602b661da57eff43c58d2ebb4b7c66d08862f786faf29f390136b3309a1289287600f6024948960038661744e8c60609c88845260098152818685205585519561740d876160ac565b898752600a828801928684528289019487865260608a019780895252528b2095518655516001860155511515600285019060ff801983541691151516179055565b51910155828a51998a988783837ff7617d06180c24c92bad8c8436c3ae97409a09e1f5655da6c0807f50c5f96748838e9ca380a30155878a7fb4a411a01bc386893734d83e17411a973f9dbb12732aff7a88d6964f1360b1608b80a36302d8ca0160e11b8252600482018890525afa918215617506575083916174df575b506174d657505050565b6162df92617731565b90506174fb91925060603d606011612fc757612fb68183616150565b9291905091386174cc565b513d85823e3d90fd5b92959650935091508281813d8311617566575b61752c8183616150565b810103126175625751939286928692907f587602b661da57eff43c58d2ebb4b7c66d08862f786faf29f390136b3309a1286173c0565b8580fd5b503d617522565b84513d88823e3d90fd5b865162461bcd60e51b81526004810185905260126024820152711052481b9bdd081a5b9a5d1a585b1a5e995960721b6044820152606490fd5b865162461bcd60e51b81526004810185905260126024820152714e6f7420656e6f75676820706c617965727360701b6044820152606490fd5b828a015460058b015411156172c857865162461bcd60e51b815260048101859052601b60248201527f4e6f7420656e6f75676820706c617965727320746f20737461727400000000006044820152606490fd5b865162461bcd60e51b815260048101859052601660248201527511d85b594818d85b9b9bdd081899481cdd185c9d195960521b6044820152606490fd5b634e487b7160e01b87526021600452602487fd5b6000816000526020600560205260409160406000209260009160018060a01b0392837f000000000000000000000000000000000000000000000000000000000000000016945b8783526007815283832080548310156177265782866176f6600795600194616063565b919054600392831b1c16898103617712575b50500191506176d3565b61771f918b015490616c7d565b3880617708565b505050505050505050565b9091600090828252602091600583526040908181206012810180549060ff82166178da578560108401556001809260ff19161790558351617771816160ac565b88815260038782018781526177ba8784016001815260608501924284528c8952600a8c5289892095518655516001860155511515600285019060ff801983541691151516179055565b519101556177c785617912565b92601183018451916001600160401b0383116178c657600160401b83116178c65781548383558084106178ac575b5097969594919289938b9592898501908b52898b205b828c106178935750505050600201805460ff60a81b1916600160a91b17905583518581528681018590527ff08583df698fbc18e549df63e2f88e2920d41a51a461b43c5a65a517db5c64b997507f76870250771fe5bcc9b4ec83f635583a81b6d2e870819e4134563ab8bca7800e91819061788990828801906163a1565b0390a351908152a3565b81518c8201559a83019a8d97508c9650908a019061780b565b8282528982206178c0918101908501616d1f565b386177f5565b634e487b7160e01b81526041600452602490fd5b845162461bcd60e51b8152600481018890526011602482015270105b1c9958591e48199d5b199a5b1b1959607a1b6044820152606490fd5b90604080519061792182616134565b600c90600c835260209061018095863660208701376040519661794388616134565b600c885236602089013760005b848110617a11575090600b91825b617996575050505060005b818110617977575090925050565b8061798460019287616527565b5161798f8286616527565b5201617969565b60018301808411610da5576179ab9082616975565b92825191858301908152858352838301928084106001600160401b0385111761153c57617a0a93855251902093617a046179e5838c616527565b51918b6179fd856179f68484616527565b5192616527565b528b616527565b52616b1e565b918261795e565b8080617a1f6001938b616527565b5201617950565b90816000526005602052604060002090617a4660ff60128401541661653b565b600b820154928315159384618656575b5060008181526007602052604081205494819060001990617a8f617a79896164cf565b98617a876040519a8b616150565b808a526164cf565b601f19013660208a01376000956000936000935b87600052600760205260406000208054861015617bb45785617ac491616063565b60018060a01b0391549060031b1c169688600052600660205260406000208860005260205260406000209960049760ff898d015416158015617ba8575b617b9857617b10600291616518565b9b0154938d84861015617b5857505050505094806001958b5115617b43575060208b0152600185945b0193979495617aa3565b603290634e487b7160e01b6000525260246000fd5b9298509392809991979314617b72575b5050600190617b39565b956001929661542182617b88617b8e959b616518565b9a616527565b9490508a38617b68565b9a50959096506001919750617b39565b5060028c015415617b01565b509698959291999350969381908161864d575b5061836f5761805e575b6001600160a01b03861615618027576000198514617fe25760011080617fd8575b617f7c575b5050600c810180546001600160a01b0319166001600160a01b0385169081179091556000858152600660209081526040808320848452825291829020600181810154600d870155600291820154600e87018190556004870154600f8801548651918252948101829052948501939093529460ff9491939092919089907f5f5c334197520a152f092df6690f941be7e48ac07124cf867206738cac4a6a3b90606090a3604051908152877ff5d92df6ae1a0b46d0a0c57c2e1da0d75d7591d2804ad086cb1e27ba67de7aaf6020878060a01b038a1693a3015460b01c16617cdc8161638a565b03617f7157506000828152600560205260409020906001600160a01b03811615617f3b574783600284019260ff845460a01c16617d188161638a565b617e91577fdc1d0b6a7cbfa6f3b2d4325bab5a169b265ad0b2b4022fb550364f0dfeeb6a74906020906001600160a01b038082167f000000000000000000000000000000000000000000000000000000000000000090911603617e3057617d8660038801548096101561642e565b617d92856004546165b9565b6004555b6040519485526001600160a01b031693a35460ff8160a01c16617db88161638a565b159081617e16575b50617dc9575050565b60030154600581029080820460051490151715610da55760407f6519409340f1ec7d14147fd4e3eeeef8ef0c2bc4a7e5e587357443f1f5f2880891606482519160058352046020820152a2565b6001915060b01c60ff16617e298161638a565b1438617dc0565b617e79600388015495617e736064617e4789616734565b0497617e6d8960045494617e66617e5e8584616471565b871015616bc6565b101561642e565b88616471565b90616471565b6004558415617d9657617e8c8582616c7d565b617d96565b905060048401548015617f0b57600a810290808204600a03610da5578692617ef8602092617ef0617ee760647fdc1d0b6a7cbfa6f3b2d4325bab5a169b265ad0b2b4022fb550364f0dfeeb6a7497048093616471565b8098101561642e565b6003546165b9565b6003558415617d9657617e8c8582616c7d565b60405162461bcd60e51b81526020600482015260086024820152674e6f207072697a6560c01b6044820152606490fd5b60405162461bcd60e51b815260206004820152600e60248201526d24b73b30b634b2103bb4b73732b960911b6044820152606490fd5b906162df9250618661565b600192945060ff91617fa8600292617fa2868060a01b039361271060108b015404616975565b90616527565b511694867f6735b98d5d75eb6a72ff7cbd805fc91d5ee18e1b5d11043b0e649b6f22c9cab8600080a29250617bf7565b5060018211617bf2565b60405162461bcd60e51b815260206004820152601a60248201527f4e6f20636f6d706c6574656420706c617965727320666f756e640000000000006044820152606490fd5b60405162461bcd60e51b815260206004820152600f60248201526e139bc81dda5b9b995c88199bdd5b99608a1b6044820152606490fd5b9390959491969285600052600560205260406000209760005b8760005260076020526040600020805482101561835f578161809891616063565b91905491896000526006602052604060002060018060a01b03848360031b1c166000526020528b60406000208b6000526015602052604060002060018060a01b03868560031b1c1660005260205260ff60406000205416908115618350575b506183455760ff60026001928d60005260156020526040600020848060a01b03888760031b1c166000526020526040600020848419825416179055601760205260406000206181468154616518565b9055838060a01b03878660031b1c16600052601660205242604060002055015460b01c166181738161638a565b1480618338575b156181f05760038c0154906032938285810204851483151715610da55760408c928f926000805160206188be833981519152936181ce60046181c4606460019c8b0204809a616471565b92019182546165b9565b90558251958887526020870152878060a01b039160031b1c1693a35b01618077565b9160105480618294575b5060018060a01b03818460031b1c1660005260186020526004604060002001928a603285541015600014618276575083549384603119810111610da55760408c926000805160206188be833981519152926001976031190190555b8151946002865260326020870152878060a01b039160031b1c1693a36181ea565b9060406000805160206188be83398151915291600060019755618255565b806000526011602052604060002060018060a01b03838660031b1c166000526020526032604060002054101560001461830b57506010546000526011602052604060002060018060a01b03828560031b1c166000526020526040600020805480603119810111610da5576031190190555b386181fa565b6000526011602052604060002060018060a01b03828560031b1c1660005260205260006040812055618305565b5060038c0154151561817a565b5050600191506181ea565b60ff91506004015416386180f7565b5050929596919490939750617bd1565b50505050505050806000526005602052604060002090600160ff600284015460b01c1661839b8161638a565b0361860f57600482015480156185d6576183b78147101561642e565b600a8102818104600a03610da5576183d660646183df92048093616471565b916003546165b9565b60035581600052600760205260406000205480156183fd81156169ba565b61697f5761840b8183616975565b6000905b8282106185385750505060028301549260ff8460a81c16916006831015610597576000847f5f5c334197520a152f092df6690f941be7e48ac07124cf867206738cac4a6a3b6060600f602096859a61848a60027fdc1d0b6a7cbfa6f3b2d4325bab5a169b265ad0b2b4022fb550364f0dfeeb6a749b14616673565b60ff60a81b1916600360a81b17600282015542600a820155600c810180546001600160a01b0319169055600d8101869055600e81018690556040516003815285907f365a3d0a71be5f440c8224437355d5bd81a703759bf906e441902272bfbafcb3908a90a201546040519086825285888301526040820152a384847ff5d92df6ae1a0b46d0a0c57c2e1da0d75d7591d2804ad086cb1e27ba67de7aaf84604051848152a3604051908152a3565b84600052600760205261854f826040600020616063565b90546001600160a01b0360039290921b1c811692908486049082159081156185b4575b5061859c575b92836001939461858c575b5050019061840f565b61859591616c7d565b3880618583565b506185ab6001928587046165b9565b60009250618578565b8415159150816185c6575b5038618572565b90506002890154168414386185bf565b60405162461bcd60e51b81526020600482015260116024820152704e6f207072697a6520746f20736861726560781b6044820152606490fd5b60405162461bcd60e51b81526020600482015260166024820152754f6e6c7920666f7220776167657265642067616d657360501b6044820152606490fd5b90501538617bc7565b421015935038617a56565b6001600160a01b03808216939291907f00000000000000000000000000000000000000000000000000000000000000001684146187b657600093808552601860205260408520906001600160601b0360a01b825416178155600181016186c78154616518565b9055600381016186d78154616518565b9055600a601484106187ae575b6186ee90836187bc565b8260028201805480159081156187a4575b5061879c575b5050606492600a811115618737575b506162df9394506004810161872a8482546165b9565b90556005429101556187bc565b80919350600b0390600b821161878857600a8202918204600a1490600b1417156187745760640180606411618774576162df939450918493618714565b634e487b7160e01b85526011600452602485fd5b634e487b7160e01b86526011600452602486fd5b558238618705565b90508210386186ff565b50600f6186e4565b50509050565b9060105490816187cb57505050565b60009182526011602052604082209260018060a01b0316928383526020526187f8604083209182546165b9565b90557f3830ede34d2e3f029802cd34ac105737edd990282473734067b348a70928a6ec60206040601054938481526011835281812086825283522054604051908152a356fe73f639a997d47bc9ecf8116dac1744591113286ad7fdb2b14682af6efcb58d39e3a512f2b722eba73136c0de5172e96c972b81970c46f27f849721a417c9ed012ecf1060bd564763fe3441b33336591c4f6c10b56b72d6b8a9694c943d73af2f106ab7fefb82ae9482e45da193781eb91dd8310c7f56ccd099fcd5eacffd962fa5ee24466d806c8a4fb12582d05bc3d29b7e6e46e982a9930a2d1be39ba1507a0b0c18893b0f31203ff15126b73a68ad2a3a6f01b9dc95ea78848bdf0cae1500a264697066735822122060559c8ac6c4870b65a3480257e215bd6fb392c62d2922fc9714da82a7ddd75c64736f6c63430008180033","opcodes":"PUSH1 0xC0 CALLVALUE PUSH3 0x1ED JUMPI PUSH3 0x8B51 SWAP1 PUSH1 0x1F CODESIZE DUP4 SWAP1 SUB SWAP1 DUP2 ADD PUSH1 0x1F NOT AND DUP3 ADD SWAP1 PUSH1 0x1 PUSH1 0x1 PUSH1 0x40 SHL SUB DUP3 GT DUP4 DUP4 LT OR PUSH3 0x1F2 JUMPI DUP1 DUP4 SWAP2 PUSH1 0x40 SWAP6 DUP7 SWAP5 DUP6 MSTORE DUP4 CODECOPY DUP2 ADD SUB SLT PUSH3 0x1ED JUMPI PUSH3 0x5D PUSH1 0x20 PUSH3 0x55 DUP4 PUSH3 0x208 JUMP JUMPDEST SWAP3 ADD PUSH3 0x208 JUMP JUMPDEST CALLER ISZERO PUSH3 0x1D5 JUMPI PUSH1 0x0 DUP1 SLOAD CALLER PUSH1 0x1 PUSH1 0x1 PUSH1 0xA0 SHL SUB NOT DUP3 AND DUP2 OR DUP4 SSTORE DUP6 MLOAD PUSH1 0x1 PUSH1 0x1 PUSH1 0xA0 SHL SUB SWAP5 SWAP4 SWAP1 SWAP3 DUP6 AND SWAP1 PUSH32 0x8BE0079C531659141344CD1FD0A4F28419497F9722A3DAAFE3B4186F6B6457E0 SWAP1 DUP1 LOG3 PUSH1 0x1 DUP1 SSTORE DUP3 DUP5 AND ISZERO PUSH3 0x19E JUMPI POP AND SWAP1 DUP2 ISZERO PUSH3 0x15A JUMPI PUSH1 0x80 MSTORE PUSH1 0xA0 MSTORE MLOAD PUSH2 0x8933 SWAP1 DUP2 PUSH3 0x21E DUP3 CODECOPY PUSH1 0x80 MLOAD DUP2 DUP2 DUP2 PUSH2 0xCDB ADD MSTORE DUP2 DUP2 PUSH2 0xE73 ADD MSTORE DUP2 DUP2 PUSH2 0x1A23 ADD MSTORE DUP2 DUP2 PUSH2 0x2304 ADD MSTORE DUP2 DUP2 PUSH2 0x3878 ADD MSTORE DUP2 DUP2 PUSH2 0x5492 ADD MSTORE DUP2 DUP2 PUSH2 0x5AC7 ADD MSTORE DUP2 DUP2 PUSH2 0x6F7E ADD MSTORE DUP2 DUP2 PUSH2 0x7289 ADD MSTORE DUP2 DUP2 PUSH2 0x76B1 ADD MSTORE DUP2 DUP2 PUSH2 0x7D4E ADD MSTORE PUSH2 0x8672 ADD MSTORE PUSH1 0xA0 MLOAD DUP2 DUP2 DUP2 PUSH2 0x1568 ADD MSTORE DUP2 DUP2 PUSH2 0x2F0E ADD MSTORE DUP2 DUP2 PUSH2 0x33EC ADD MSTORE DUP2 DUP2 PUSH2 0x51FA ADD MSTORE DUP2 DUP2 PUSH2 0x5EBA ADD MSTORE PUSH2 0x7379 ADD MSTORE RETURN JUMPDEST DUP3 MLOAD PUSH3 0x461BCD PUSH1 0xE5 SHL DUP2 MSTORE PUSH1 0x20 PUSH1 0x4 DUP3 ADD MSTORE PUSH1 0x19 PUSH1 0x24 DUP3 ADD MSTORE PUSH32 0x5079746820565246206164647265737320726571756972656400000000000000 PUSH1 0x44 DUP3 ADD MSTORE PUSH1 0x64 SWAP1 REVERT JUMPDEST PUSH3 0x461BCD PUSH1 0xE5 SHL DUP2 MSTORE PUSH1 0x20 PUSH1 0x4 DUP3 ADD MSTORE PUSH1 0x12 PUSH1 0x24 DUP3 ADD MSTORE PUSH18 0x496E76616C69642041492061646472657373 PUSH1 0x70 SHL PUSH1 0x44 DUP3 ADD MSTORE PUSH1 0x64 SWAP1 REVERT JUMPDEST DUP3 MLOAD PUSH4 0x1E4FBDF7 PUSH1 0xE0 SHL DUP2 MSTORE PUSH1 0x0 PUSH1 0x4 DUP3 ADD MSTORE PUSH1 0x24 SWAP1 REVERT JUMPDEST PUSH1 0x0 DUP1 REVERT JUMPDEST PUSH4 0x4E487B71 PUSH1 0xE0 SHL PUSH1 0x0 MSTORE PUSH1 0x41 PUSH1 0x4 MSTORE PUSH1 0x24 PUSH1 0x0 REVERT JUMPDEST MLOAD SWAP1 PUSH1 0x1 PUSH1 0x1 PUSH1 0xA0 SHL SUB DUP3 AND DUP3 SUB PUSH3 0x1ED JUMPI JUMP INVALID PUSH2 0x140 PUSH1 0x40 MSTORE PUSH1 0x4 CALLDATASIZE LT ISZERO PUSH2 0x13 JUMPI PUSH1 0x0 DUP1 REVERT JUMPDEST PUSH1 0x0 CALLDATALOAD PUSH1 0xE0 SHR DUP1 PUSH3 0x14CDD5 EQ PUSH2 0x5FA4 JUMPI DUP1 PUSH4 0xA5694C2 EQ PUSH2 0x5F4C JUMPI DUP1 PUSH4 0xB8A3BBE EQ PUSH2 0x5CF1 JUMPI DUP1 PUSH4 0xD65CA2F EQ PUSH2 0x5863 JUMPI DUP1 PUSH4 0x117A5B90 EQ PUSH2 0x568A JUMPI DUP1 PUSH4 0x129DAF84 EQ PUSH2 0x5650 JUMPI DUP1 PUSH4 0x15A40F49 EQ PUSH2 0x5598 JUMPI DUP1 PUSH4 0x166BAB95 EQ PUSH2 0x54FB JUMPI DUP1 PUSH4 0x191A3749 EQ PUSH2 0x54C1 JUMPI DUP1 PUSH4 0x1939053D EQ PUSH2 0x547C JUMPI DUP1 PUSH4 0x1B76929C EQ PUSH2 0x5344 JUMPI DUP1 PUSH4 0x2076E1D0 EQ PUSH2 0x530A JUMPI DUP1 PUSH4 0x2122F4C6 EQ PUSH2 0x52BE JUMPI DUP1 PUSH4 0x22377D9E EQ PUSH2 0x52A2 JUMPI DUP1 PUSH4 0x2C01C2C6 EQ PUSH2 0x5286 JUMPI DUP1 PUSH4 0x2E9FDDD8 EQ PUSH2 0x51B6 JUMPI DUP1 PUSH4 0x313DAB20 EQ PUSH2 0x5198 JUMPI DUP1 PUSH4 0x32B72F9C EQ PUSH2 0x517C JUMPI DUP1 PUSH4 0x3BA80729 EQ PUSH2 0x5160 JUMPI DUP1 PUSH4 0x3D6AE3A7 EQ PUSH2 0x5143 JUMPI DUP1 PUSH4 0x3E6A6BEE EQ PUSH2 0x4EF5 JUMPI DUP1 PUSH4 0x3ED546AB EQ PUSH2 0x4D3B JUMPI DUP1 PUSH4 0x3EF25C11 EQ PUSH2 0x4C64 JUMPI DUP1 PUSH4 0x4411B3EB EQ PUSH2 0x29F6 JUMPI DUP1 PUSH4 0x4947BFC9 EQ PUSH2 0x474A JUMPI DUP1 PUSH4 0x530D49F2 EQ PUSH2 0x455B JUMPI DUP1 PUSH4 0x5AB203C5 EQ PUSH2 0x452A JUMPI DUP1 PUSH4 0x60B2A56A EQ PUSH2 0x4386 JUMPI DUP1 PUSH4 0x6454E58D EQ PUSH2 0x4268 JUMPI DUP1 PUSH4 0x6540742F EQ PUSH2 0x4246 JUMPI DUP1 PUSH4 0x67084EB3 EQ PUSH2 0x4228 JUMPI DUP1 PUSH4 0x67BC540F EQ PUSH2 0x41D5 JUMPI DUP1 PUSH4 0x68880A26 EQ PUSH2 0x3D44 JUMPI DUP1 PUSH4 0x69958AB9 EQ PUSH2 0x3C32 JUMPI DUP1 PUSH4 0x70A90220 EQ PUSH2 0x34AE JUMPI DUP1 PUSH4 0x715018A6 EQ PUSH2 0x3455 JUMPI DUP1 PUSH4 0x718F838C EQ PUSH2 0x341B JUMPI DUP1 PUSH4 0x772D84C4 EQ PUSH2 0x33D6 JUMPI DUP1 PUSH4 0x77CBC400 EQ PUSH2 0x3299 JUMPI DUP1 PUSH4 0x79AE8779 EQ PUSH2 0x312F JUMPI DUP1 PUSH4 0x821D5313 EQ PUSH2 0x3103 JUMPI DUP1 PUSH4 0x85F07BBE EQ PUSH2 0x30E7 JUMPI DUP1 PUSH4 0x885D68A8 EQ PUSH2 0x3076 JUMPI DUP1 PUSH4 0x8DA5CB5B EQ PUSH2 0x304D JUMPI DUP1 PUSH4 0x96DBBBE8 EQ PUSH2 0x2EF0 JUMPI DUP1 PUSH4 0x97A2872C EQ PUSH2 0x2D6A JUMPI DUP1 PUSH4 0xA2F77BCC EQ PUSH2 0x29FB JUMPI DUP1 PUSH4 0xB241B5EC EQ PUSH2 0x29F6 JUMPI DUP1 PUSH4 0xB8AF3D3E EQ PUSH2 0x2778 JUMPI DUP1 PUSH4 0xBBF39544 EQ PUSH2 0x271D JUMPI DUP1 PUSH4 0xBCB39621 EQ PUSH2 0x26FF JUMPI DUP1 PUSH4 0xBCE353F4 EQ PUSH2 0x26D3 JUMPI DUP1 PUSH4 0xC0F80921 EQ PUSH2 0x2635 JUMPI DUP1 PUSH4 0xC2884E0E EQ PUSH2 0x25FB JUMPI DUP1 PUSH4 0xC8AB99C7 EQ PUSH2 0x256C JUMPI DUP1 PUSH4 0xCBF82790 EQ PUSH2 0x1FE1 JUMPI DUP1 PUSH4 0xD1D33D20 EQ PUSH2 0x1F6D JUMPI DUP1 PUSH4 0xD34603EE EQ PUSH2 0x1CFC JUMPI DUP1 PUSH4 0xD35AEA0A EQ PUSH2 0x1771 JUMPI DUP1 PUSH4 0xDDDB07B3 EQ PUSH2 0x16CD JUMPI DUP1 PUSH4 0xDEC04E5F EQ PUSH2 0x16A1 JUMPI DUP1 PUSH4 0xDFEFEF9F EQ PUSH2 0x1670 JUMPI DUP1 PUSH4 0xE488A027 EQ PUSH2 0x1606 JUMPI DUP1 PUSH4 0xE7564CF5 EQ PUSH2 0x11C3 JUMPI DUP1 PUSH4 0xE87C0EE6 EQ PUSH2 0x11A5 JUMPI DUP1 PUSH4 0xE93362E2 EQ PUSH2 0x116E JUMPI DUP1 PUSH4 0xEB22EBE0 EQ PUSH2 0x7AA JUMPI DUP1 PUSH4 0xEDDAD394 EQ PUSH2 0x750 JUMPI DUP1 PUSH4 0xF2682EDD EQ PUSH2 0x6CD JUMPI DUP1 PUSH4 0xF2FDE38B EQ PUSH2 0x644 JUMPI DUP1 PUSH4 0xF3154298 EQ PUSH2 0x5FA JUMPI DUP1 PUSH4 0xF8AED2C3 EQ PUSH2 0x5AD JUMPI DUP1 PUSH4 0xFC80864D EQ PUSH2 0x397 JUMPI PUSH4 0xFE859679 EQ PUSH2 0x34A JUMPI PUSH1 0x0 DUP1 REVERT JUMPDEST CALLVALUE PUSH2 0x392 JUMPI PUSH1 0x40 CALLDATASIZE PUSH1 0x3 NOT ADD SLT PUSH2 0x392 JUMPI PUSH2 0x363 PUSH2 0x604D JUMP JUMPDEST PUSH1 0x4 CALLDATALOAD PUSH1 0x0 MSTORE PUSH1 0x11 PUSH1 0x20 MSTORE PUSH1 0x40 PUSH1 0x0 KECCAK256 SWAP1 PUSH1 0x1 DUP1 PUSH1 0xA0 SHL SUB AND PUSH1 0x0 MSTORE PUSH1 0x20 MSTORE PUSH1 0x20 PUSH1 0x40 PUSH1 0x0 KECCAK256 SLOAD PUSH1 0x40 MLOAD SWAP1 DUP2 MSTORE RETURN JUMPDEST PUSH1 0x0 DUP1 REVERT JUMPDEST CALLVALUE PUSH2 0x392 JUMPI PUSH2 0x3A5 CALLDATASIZE PUSH2 0x63F1 JUMP JUMPDEST DUP3 PUSH1 0x0 SWAP4 SWAP3 SWAP4 MSTORE PUSH1 0x20 SWAP1 PUSH1 0x5 DUP3 MSTORE PUSH1 0x40 PUSH1 0x0 KECCAK256 PUSH1 0x6 DUP4 MSTORE PUSH1 0x40 PUSH1 0x0 KECCAK256 CALLER PUSH1 0x0 MSTORE DUP4 MSTORE PUSH1 0x40 PUSH1 0x0 KECCAK256 PUSH1 0xFF SWAP2 DUP3 PUSH1 0x2 DUP3 ADD SLOAD PUSH1 0xA8 SHR AND SWAP2 PUSH1 0x6 DUP4 LT ISZERO PUSH2 0x597 JUMPI PUSH2 0x401 DUP5 PUSH1 0x12 PUSH1 0x4 SWAP5 PUSH2 0x3F9 PUSH1 0x2 DUP5 SWAP9 EQ PUSH2 0x6796 JUMP JUMPDEST ADD SLOAD AND PUSH2 0x653B JUMP JUMPDEST ADD SLOAD PUSH2 0x411 DUP3 DUP3 PUSH1 0x8 SHR AND PUSH2 0x66F9 JUMP JUMPDEST PUSH1 0x10 SHR AND PUSH1 0x3 DUP2 LT ISZERO PUSH2 0x597 JUMPI PUSH1 0x1 PUSH2 0x42A SWAP2 EQ PUSH2 0x6AAE JUMP JUMPDEST DUP4 PUSH1 0x0 MSTORE PUSH1 0xD DUP4 MSTORE PUSH1 0x40 PUSH1 0x0 KECCAK256 CALLER PUSH1 0x0 MSTORE DUP4 MSTORE DUP1 PUSH1 0x1 PUSH1 0x40 PUSH1 0x0 KECCAK256 ADD SLOAD AND ISZERO PUSH2 0x55E JUMPI DUP4 PUSH1 0x0 MSTORE PUSH1 0xD DUP4 MSTORE PUSH1 0x40 PUSH1 0x0 KECCAK256 CALLER PUSH1 0x0 MSTORE DUP4 MSTORE PUSH1 0x1 PUSH1 0x40 PUSH1 0x0 KECCAK256 ADD SLOAD PUSH1 0x8 SHR AND PUSH2 0x526 JUMPI PUSH1 0x40 MLOAD DUP3 DUP2 ADD SWAP2 DUP6 DUP4 MSTORE PUSH1 0x40 DUP3 ADD MSTORE PUSH1 0x40 DUP2 MSTORE PUSH2 0x48D DUP2 PUSH2 0x6119 JUMP JUMPDEST MLOAD SWAP1 KECCAK256 DUP3 PUSH1 0x0 MSTORE PUSH1 0xD DUP3 MSTORE PUSH1 0x40 PUSH1 0x0 KECCAK256 CALLER PUSH1 0x0 MSTORE DUP3 MSTORE PUSH1 0x40 PUSH1 0x0 KECCAK256 SLOAD SUB PUSH2 0x4F1 JUMPI PUSH1 0x0 DUP1 MLOAD PUSH1 0x20 PUSH2 0x885E DUP4 CODECOPY DUP2 MLOAD SWAP2 MSTORE SWAP1 DUP3 PUSH1 0x0 MSTORE PUSH1 0xD DUP2 MSTORE PUSH1 0x40 PUSH1 0x0 KECCAK256 CALLER PUSH1 0x0 MSTORE DUP2 MSTORE PUSH1 0x1 PUSH1 0x40 PUSH1 0x0 KECCAK256 ADD PUSH2 0x100 PUSH2 0xFF00 NOT DUP3 SLOAD AND OR SWAP1 SSTORE PUSH1 0x40 MLOAD SWAP4 DUP5 MSTORE CALLER SWAP4 LOG3 STOP JUMPDEST PUSH1 0x64 SWAP1 PUSH1 0x40 MLOAD SWAP1 PUSH3 0x461BCD PUSH1 0xE5 SHL DUP3 MSTORE PUSH1 0x4 DUP3 ADD MSTORE PUSH1 0xE PUSH1 0x24 DUP3 ADD MSTORE PUSH14 0x125B9D985B1A59081C995D99585B PUSH1 0x92 SHL PUSH1 0x44 DUP3 ADD MSTORE REVERT JUMPDEST PUSH1 0x40 MLOAD PUSH3 0x461BCD PUSH1 0xE5 SHL DUP2 MSTORE PUSH1 0x4 DUP2 ADD DUP4 SWAP1 MSTORE PUSH1 0x10 PUSH1 0x24 DUP3 ADD MSTORE PUSH16 0x105B1C9958591E481C995D99585B1959 PUSH1 0x82 SHL PUSH1 0x44 DUP3 ADD MSTORE PUSH1 0x64 SWAP1 REVERT JUMPDEST PUSH1 0x40 MLOAD PUSH3 0x461BCD PUSH1 0xE5 SHL DUP2 MSTORE PUSH1 0x4 DUP2 ADD DUP5 SWAP1 MSTORE PUSH1 0x11 PUSH1 0x24 DUP3 ADD MSTORE PUSH17 0x135D5CDD0818DBDB5B5A5D08199A5C9CDD PUSH1 0x7A SHL PUSH1 0x44 DUP3 ADD MSTORE PUSH1 0x64 SWAP1 REVERT JUMPDEST PUSH4 0x4E487B71 PUSH1 0xE0 SHL PUSH1 0x0 MSTORE PUSH1 0x21 PUSH1 0x4 MSTORE PUSH1 0x24 PUSH1 0x0 REVERT JUMPDEST CALLVALUE PUSH2 0x392 JUMPI PUSH1 0x40 CALLDATASIZE PUSH1 0x3 NOT ADD SLT PUSH2 0x392 JUMPI PUSH2 0x5C6 PUSH2 0x604D JUMP JUMPDEST PUSH1 0x4 CALLDATALOAD PUSH1 0x0 MSTORE PUSH1 0x15 PUSH1 0x20 MSTORE PUSH1 0x40 PUSH1 0x0 KECCAK256 SWAP1 PUSH1 0x1 DUP1 PUSH1 0xA0 SHL SUB AND PUSH1 0x0 MSTORE PUSH1 0x20 MSTORE PUSH1 0x20 PUSH1 0xFF PUSH1 0x40 PUSH1 0x0 KECCAK256 SLOAD AND PUSH1 0x40 MLOAD SWAP1 ISZERO ISZERO DUP2 MSTORE RETURN JUMPDEST CALLVALUE PUSH2 0x392 JUMPI PUSH2 0x608 CALLDATASIZE PUSH2 0x640B JUMP JUMPDEST SWAP1 PUSH1 0x0 MSTORE PUSH1 0x19 PUSH1 0x20 MSTORE PUSH1 0x40 PUSH1 0x0 KECCAK256 DUP1 SLOAD DUP3 LT ISZERO PUSH2 0x392 JUMPI PUSH1 0x20 SWAP2 PUSH2 0x62B SWAP2 PUSH2 0x6063 JUMP JUMPDEST SWAP1 SLOAD PUSH1 0x40 MLOAD PUSH1 0x3 SWAP3 SWAP1 SWAP3 SHL SHR PUSH1 0x1 PUSH1 0x1 PUSH1 0xA0 SHL SUB AND DUP2 MSTORE RETURN JUMPDEST CALLVALUE PUSH2 0x392 JUMPI PUSH1 0x20 CALLDATASIZE PUSH1 0x3 NOT ADD SLT PUSH2 0x392 JUMPI PUSH2 0x65D PUSH2 0x6037 JUMP JUMPDEST PUSH2 0x665 PUSH2 0x6C51 JUMP JUMPDEST PUSH1 0x1 PUSH1 0x1 PUSH1 0xA0 SHL SUB SWAP1 DUP2 AND SWAP1 DUP2 ISZERO PUSH2 0x6B4 JUMPI PUSH1 0x0 SLOAD DUP3 PUSH1 0x1 PUSH1 0x1 PUSH1 0x60 SHL SUB PUSH1 0xA0 SHL DUP3 AND OR PUSH1 0x0 SSTORE AND PUSH32 0x8BE0079C531659141344CD1FD0A4F28419497F9722A3DAAFE3B4186F6B6457E0 PUSH1 0x0 DUP1 LOG3 STOP JUMPDEST PUSH1 0x40 MLOAD PUSH4 0x1E4FBDF7 PUSH1 0xE0 SHL DUP2 MSTORE PUSH1 0x0 PUSH1 0x4 DUP3 ADD MSTORE PUSH1 0x24 SWAP1 REVERT JUMPDEST CALLVALUE PUSH2 0x392 JUMPI PUSH1 0x20 CALLDATASIZE PUSH1 0x3 NOT ADD SLT PUSH2 0x392 JUMPI PUSH2 0x6E6 PUSH2 0x6995 JUMP JUMPDEST POP PUSH1 0x4 CALLDATALOAD PUSH1 0x0 MSTORE PUSH1 0xA PUSH1 0x20 MSTORE PUSH1 0x80 PUSH1 0x40 PUSH1 0x0 KECCAK256 PUSH1 0x40 MLOAD PUSH2 0x705 DUP2 PUSH2 0x60AC JUMP JUMPDEST DUP2 SLOAD SWAP2 DUP3 DUP3 MSTORE PUSH1 0x1 DUP2 ADD SLOAD PUSH1 0x20 DUP4 ADD SWAP1 DUP2 MSTORE PUSH1 0x60 PUSH1 0x3 PUSH1 0xFF PUSH1 0x2 DUP6 ADD SLOAD AND SWAP4 PUSH1 0x40 DUP7 ADD SWAP5 ISZERO ISZERO DUP6 MSTORE ADD SLOAD SWAP4 ADD SWAP3 DUP4 MSTORE PUSH1 0x40 MLOAD SWAP4 DUP5 MSTORE MLOAD PUSH1 0x20 DUP5 ADD MSTORE MLOAD ISZERO ISZERO PUSH1 0x40 DUP4 ADD MSTORE MLOAD PUSH1 0x60 DUP3 ADD MSTORE RETURN JUMPDEST CALLVALUE PUSH2 0x392 JUMPI PUSH1 0x20 CALLDATASIZE PUSH1 0x3 NOT ADD SLT PUSH2 0x392 JUMPI PUSH1 0x4 CALLDATALOAD PUSH1 0x0 MSTORE PUSH1 0xB PUSH1 0x20 MSTORE PUSH1 0x80 PUSH1 0x40 PUSH1 0x0 KECCAK256 DUP1 SLOAD SWAP1 PUSH1 0x2 PUSH1 0x1 DUP3 ADD SLOAD SWAP2 ADD SLOAD SWAP1 PUSH1 0x40 MLOAD SWAP3 DUP4 MSTORE PUSH1 0xFF DUP2 AND ISZERO ISZERO PUSH1 0x20 DUP5 ADD MSTORE PUSH1 0x1 DUP1 PUSH1 0xA0 SHL SUB SWAP1 PUSH1 0x8 SHR AND PUSH1 0x40 DUP4 ADD MSTORE PUSH1 0x60 DUP3 ADD MSTORE RETURN JUMPDEST CALLVALUE PUSH2 0x392 JUMPI PUSH2 0x7B8 CALLDATASIZE PUSH2 0x640B JUMP JUMPDEST PUSH2 0x7C0 PUSH2 0x6CFC JUMP JUMPDEST DUP2 PUSH1 0x0 MSTORE PUSH1 0x5 PUSH1 0x20 MSTORE PUSH1 0x40 PUSH1 0x0 KECCAK256 SWAP1 PUSH1 0x6 PUSH1 0x20 MSTORE PUSH1 0x40 PUSH1 0x0 KECCAK256 CALLER PUSH1 0x0 MSTORE PUSH1 0x20 MSTORE PUSH1 0x40 PUSH1 0x0 KECCAK256 SWAP1 PUSH1 0x2 DUP4 ADD SLOAD SWAP2 PUSH1 0xFF DUP4 PUSH1 0xA8 SHR AND PUSH1 0x6 DUP2 LT ISZERO PUSH2 0x597 JUMPI PUSH1 0x2 DUP2 PUSH2 0x80F PUSH1 0x3 PUSH2 0x815 SWAP5 EQ ISZERO PUSH2 0x674A JUMP JUMPDEST EQ PUSH2 0x6796 JUMP JUMPDEST PUSH1 0x4 DUP2 ADD SLOAD SWAP3 PUSH2 0x828 PUSH1 0xFF DUP6 AND ISZERO PUSH2 0x67D9 JUMP JUMPDEST PUSH1 0x3 PUSH1 0xFF DUP6 PUSH1 0x10 SHR AND LT ISZERO PUSH2 0x597 JUMPI PUSH1 0xFF PUSH1 0x1 SWAP2 PUSH2 0x84E PUSH1 0x2 DUP4 DUP9 PUSH1 0x10 SHR AND EQ ISZERO PUSH2 0x6825 JUMP JUMPDEST PUSH2 0x85D DUP3 PUSH1 0x12 DUP10 ADD SLOAD AND PUSH2 0x653B JUMP JUMPDEST PUSH2 0x86B DUP3 DUP8 PUSH1 0x8 SHR AND PUSH2 0x66F9 JUMP JUMPDEST DUP3 DUP3 DUP8 PUSH1 0x10 SHR AND EQ DUP1 ISZERO PUSH2 0x1160 JUMPI JUMPDEST PUSH2 0x883 SWAP1 PUSH2 0x6871 JUMP JUMPDEST PUSH1 0xA0 SHR AND PUSH2 0x890 DUP2 PUSH2 0x638A JUMP JUMPDEST EQ PUSH2 0x1088 JUMPI JUMPDEST PUSH2 0x8A3 PUSH1 0x6 DUP4 LT ISZERO PUSH2 0x68F4 JUMP JUMPDEST PUSH2 0x8B0 PUSH1 0x64 DUP4 GT ISZERO PUSH2 0x6935 JUMP JUMPDEST PUSH1 0x10 DUP5 ADD SWAP1 PUSH1 0x4 PUSH3 0x20001 PUSH2 0x8C9 PUSH1 0x32 DUP6 SLOAD MOD DUP7 PUSH2 0x65B9 JUMP JUMPDEST SWAP6 DUP6 PUSH1 0x1 DUP6 ADD SSTORE DUP7 PUSH1 0x2 DUP6 ADD SSTORE TIMESTAMP PUSH1 0x3 DUP6 ADD SSTORE PUSH3 0xFF00FF NOT AND OR SWAP2 ADD SSTORE SLOAD SWAP1 PUSH1 0x3 PUSH2 0x3E8 DUP4 DIV MOD SWAP2 PUSH1 0x1 DUP4 ADD DUP4 GT PUSH2 0xDA5 JUMPI DUP6 SWAP3 PUSH2 0x90B PUSH1 0x9 DUP8 ADD SLOAD TIMESTAMP PUSH2 0x6471 JUMP JUMPDEST PUSH1 0x40 DUP1 MLOAD PUSH1 0x20 DUP2 ADD SWAP5 DUP6 MSTORE CALLER PUSH1 0x60 SHL PUSH12 0xFFFFFFFFFFFFFFFFFFFFFFFF NOT AND SWAP2 DUP2 ADD SWAP2 SWAP1 SWAP2 MSTORE SWAP1 SWAP3 SWAP1 PUSH2 0x94A DUP2 PUSH1 0x54 DUP2 ADD JUMPDEST SUB PUSH1 0x1F NOT DUP2 ADD DUP4 MSTORE DUP3 PUSH2 0x6150 JUMP JUMPDEST MLOAD SWAP1 KECCAK256 PUSH1 0x5 PUSH1 0x64 DUP3 MOD LT PUSH2 0xFAB JUMPI JUMPDEST SWAP2 PUSH1 0x3 PUSH1 0x0 DUP1 MLOAD PUSH1 0x20 PUSH2 0x889E DUP4 CODECOPY DUP2 MLOAD SWAP2 MSTORE SWAP5 SWAP3 DUP7 DUP6 PUSH1 0xA PUSH1 0x64 DUP2 PUSH2 0xA38 SWAP10 DIV MOD LT PUSH2 0xF2F JUMPI JUMPDEST DUP4 PUSH1 0x64 DUP1 DUP4 DIV MOD LT PUSH2 0xEAB JUMPI JUMPDEST POP POP PUSH1 0x40 MLOAD SWAP3 PUSH2 0x99C DUP5 PUSH2 0x60AC JUMP JUMPDEST DUP5 DUP5 MSTORE PUSH1 0x20 DUP5 ADD SWAP1 DUP2 MSTORE PUSH1 0x40 DUP5 ADD SWAP1 DUP10 DUP3 MSTORE PUSH1 0x1 PUSH1 0x60 DUP7 ADD SWAP4 ADD DUP4 MSTORE DUP9 PUSH1 0x0 MSTORE PUSH1 0xC PUSH1 0x20 MSTORE PUSH1 0x40 PUSH1 0x0 KECCAK256 CALLER PUSH1 0x0 MSTORE PUSH1 0x20 MSTORE PUSH1 0x40 PUSH1 0x0 KECCAK256 SWAP5 MLOAD DUP6 SSTORE MLOAD PUSH1 0x1 DUP6 ADD SSTORE MLOAD PUSH1 0x2 DUP5 ADD SSTORE MLOAD SWAP2 ADD SSTORE DUP4 PUSH1 0x0 MSTORE PUSH1 0x6 PUSH1 0x20 MSTORE PUSH1 0x40 PUSH1 0x0 KECCAK256 CALLER PUSH1 0x0 MSTORE PUSH1 0x20 MSTORE DUP5 PUSH1 0x2 PUSH1 0x40 PUSH1 0x0 KECCAK256 ADD SSTORE PUSH2 0xA12 PUSH1 0x7 DUP8 ADD SLOAD PUSH2 0x6518 JUMP JUMPDEST PUSH1 0x7 DUP8 ADD SSTORE PUSH1 0x40 MLOAD SWAP2 DUP3 SWAP2 CALLER SWAP7 TIMESTAMP SWAP2 DUP5 PUSH1 0x40 SWAP2 SWAP5 SWAP4 SWAP3 PUSH1 0x60 DUP3 ADD SWAP6 DUP3 MSTORE PUSH1 0x20 DUP3 ADD MSTORE ADD MSTORE JUMP JUMPDEST SUB SWAP1 LOG3 PUSH1 0xFF PUSH1 0x2 DUP3 ADD SLOAD PUSH1 0xA0 SHR AND PUSH2 0xA4F DUP2 PUSH2 0x638A JUMP JUMPDEST ISZERO DUP1 PUSH2 0xE5B JUMPI JUMPDEST PUSH2 0xC33 JUMPI JUMPDEST PUSH1 0x1 PUSH1 0xFF PUSH1 0x2 DUP4 ADD SLOAD PUSH1 0xA0 SHR AND PUSH2 0xA71 DUP2 PUSH2 0x638A JUMP JUMPDEST SUB PUSH2 0xABE JUMPI PUSH1 0x7 DUP2 ADD SLOAD PUSH1 0x5 DUP3 ADD SLOAD EQ PUSH2 0xA8F JUMPI JUMPDEST POP POP JUMPDEST PUSH1 0x1 DUP1 SSTORE STOP JUMPDEST PUSH1 0x2 ADD SLOAD PUSH1 0xA8 SHR PUSH1 0xFF AND SWAP1 PUSH1 0x6 DUP3 LT ISZERO PUSH2 0x597 JUMPI PUSH2 0xAB2 PUSH1 0x2 PUSH2 0xAB7 SWAP4 EQ PUSH2 0x6673 JUMP JUMPDEST PUSH2 0x71A8 JUMP JUMPDEST DUP1 DUP1 PUSH2 0xA86 JUMP JUMPDEST POP DUP1 PUSH1 0x0 MSTORE PUSH1 0x5 PUSH1 0x20 MSTORE PUSH1 0x40 PUSH1 0x0 KECCAK256 PUSH1 0x2 DUP2 ADD SLOAD SWAP2 PUSH1 0xFF DUP4 PUSH1 0xA0 SHR AND PUSH2 0xAE3 DUP2 PUSH2 0x638A JUMP JUMPDEST PUSH2 0xBDF JUMPI PUSH1 0x1 SWAP2 PUSH1 0x0 JUMPDEST DUP3 PUSH1 0x0 MSTORE PUSH1 0x7 PUSH1 0x20 MSTORE PUSH1 0x40 PUSH1 0x0 KECCAK256 SLOAD DUP2 LT ISZERO PUSH2 0xBD7 JUMPI PUSH1 0x6 PUSH1 0x20 MSTORE PUSH1 0x40 PUSH1 0x0 KECCAK256 PUSH1 0x7 PUSH1 0x20 MSTORE PUSH2 0xB20 DUP3 PUSH1 0x40 PUSH1 0x0 KECCAK256 PUSH2 0x6063 JUMP JUMPDEST PUSH1 0x1 DUP1 PUSH1 0xA0 SHL SUB SWAP2 SLOAD SWAP1 PUSH1 0x3 SHL SHR AND PUSH1 0x0 MSTORE PUSH1 0x20 MSTORE PUSH1 0xFF PUSH1 0x4 PUSH1 0x40 PUSH1 0x0 KECCAK256 ADD SLOAD AND ISZERO PUSH2 0xB4E JUMPI PUSH1 0x1 ADD PUSH2 0xAED JUMP JUMPDEST POP SWAP1 SWAP2 POP PUSH1 0x0 JUMPDEST PUSH2 0xB62 JUMPI JUMPDEST POP POP POP PUSH2 0xA89 JUMP JUMPDEST PUSH1 0xFF DUP4 PUSH1 0xA8 SHR AND SWAP3 PUSH1 0x6 DUP5 LT ISZERO PUSH2 0x597 JUMPI PUSH2 0xB82 PUSH1 0x2 PUSH2 0xBCF SWAP6 EQ PUSH2 0x6673 JUMP JUMPDEST PUSH1 0xFF PUSH1 0xA8 SHL NOT AND PUSH1 0x3 PUSH1 0xA8 SHL OR PUSH1 0x2 DUP3 ADD SSTORE TIMESTAMP PUSH1 0xA SWAP1 SWAP2 ADD SSTORE PUSH1 0x40 MLOAD PUSH1 0x3 DUP2 MSTORE DUP2 SWAP1 PUSH32 0x365A3D0A71BE5F440C8224437355D5BD81A703759BF906E441902272BFBAFCB3 SWAP1 PUSH1 0x20 SWAP1 LOG2 PUSH2 0x7A26 JUMP JUMPDEST DUP1 DUP1 DUP1 PUSH2 0xB5A JUMP JUMPDEST POP SWAP1 SWAP2 PUSH2 0xB55 JUMP JUMPDEST PUSH1 0x40 MLOAD PUSH3 0x461BCD PUSH1 0xE5 SHL DUP2 MSTORE PUSH1 0x20 PUSH1 0x4 DUP3 ADD MSTORE PUSH1 0x26 PUSH1 0x24 DUP3 ADD MSTORE PUSH32 0x5F636865636B47616D65436F6D706C6574696F6E206F6E6C7920666F72204149 PUSH1 0x44 DUP3 ADD MSTORE PUSH6 0x2067616D6573 PUSH1 0xD0 SHL PUSH1 0x64 DUP3 ADD MSTORE PUSH1 0x84 SWAP1 REVERT JUMPDEST DUP2 PUSH1 0x0 MSTORE PUSH1 0x5 PUSH1 0x20 MSTORE PUSH1 0x40 PUSH1 0x0 KECCAK256 PUSH1 0x6 PUSH1 0x20 MSTORE PUSH1 0x40 PUSH1 0x0 KECCAK256 CALLER PUSH1 0x0 MSTORE PUSH1 0x20 MSTORE PUSH1 0x40 PUSH1 0x0 KECCAK256 PUSH1 0xFF PUSH1 0x4 DUP3 ADD SLOAD AND ISZERO PUSH2 0xE17 JUMPI PUSH1 0x1 ADD SLOAD SWAP1 DUP2 ISZERO PUSH2 0xDBB JUMPI PUSH1 0x10 ADD SLOAD SWAP1 DUP4 SWAP1 PUSH2 0x3E8 DUP4 DIV PUSH1 0x1 AND PUSH2 0xD69 JUMPI PUSH1 0x14 PUSH1 0x64 DUP5 DIV MOD DUP2 GT ISZERO PUSH2 0xD4C JUMPI PUSH2 0xCC0 PUSH1 0x32 DUP1 PUSH2 0xCB6 PUSH1 0x0 DUP1 MLOAD PUSH1 0x20 PUSH2 0x889E DUP4 CODECOPY DUP2 MLOAD SWAP2 MSTORE SWAP5 PUSH1 0x14 PUSH1 0x64 DUP10 DIV MOD SWAP1 PUSH2 0x6471 JUMP JUMPDEST SWAP6 JUMPDEST DIV MOD DUP5 PUSH2 0x65B9 JUMP JUMPDEST PUSH1 0x0 DUP4 DUP2 MSTORE PUSH1 0x6 PUSH1 0x20 SWAP1 DUP2 MSTORE PUSH1 0x40 DUP1 DUP4 KECCAK256 PUSH1 0x1 PUSH1 0x1 PUSH1 0xA0 SHL SUB PUSH32 0x0 AND DUP1 DUP6 MSTORE SWAP1 DUP4 MSTORE SWAP3 DUP2 SWAP1 KECCAK256 PUSH1 0x1 DUP2 ADD DUP9 SWAP1 SSTORE PUSH1 0x2 DUP2 ADD DUP6 SWAP1 SSTORE TIMESTAMP PUSH1 0x3 DUP3 ADD DUP2 SWAP1 SSTORE PUSH1 0x4 SWAP1 SWAP2 ADD DUP1 SLOAD PUSH3 0xFF00FF NOT AND PUSH3 0x20001 OR SWAP1 SSTORE DUP2 MLOAD SWAP8 DUP9 MSTORE SWAP2 DUP8 ADD SWAP4 SWAP1 SWAP4 MSTORE SWAP2 DUP6 ADD SWAP2 SWAP1 SWAP2 MSTORE SWAP3 PUSH1 0x60 SWAP1 LOG3 PUSH2 0xA5B JUMP JUMPDEST POP PUSH1 0x0 DUP1 MLOAD PUSH1 0x20 PUSH2 0x889E DUP4 CODECOPY DUP2 MLOAD SWAP2 MSTORE PUSH2 0xCC0 PUSH1 0x32 DUP1 PUSH1 0x1 PUSH2 0xCB6 JUMP JUMPDEST SWAP1 POP PUSH1 0x1 DUP2 ADD DUP2 GT PUSH2 0xDA5 JUMPI PUSH1 0x0 DUP1 MLOAD PUSH1 0x20 PUSH2 0x889E DUP4 CODECOPY DUP2 MLOAD SWAP2 MSTORE PUSH2 0xCC0 PUSH1 0x32 DUP1 PUSH2 0xD9F DUP9 SWAP6 PUSH1 0x1 PUSH1 0x14 PUSH1 0x64 DUP11 DIV MOD SWAP2 ADD PUSH2 0x65B9 JUMP JUMPDEST SWAP6 PUSH2 0xCB8 JUMP JUMPDEST PUSH4 0x4E487B71 PUSH1 0xE0 SHL PUSH1 0x0 MSTORE PUSH1 0x11 PUSH1 0x4 MSTORE PUSH1 0x24 PUSH1 0x0 REVERT JUMPDEST PUSH1 0x40 MLOAD PUSH3 0x461BCD PUSH1 0xE5 SHL DUP2 MSTORE PUSH1 0x20 PUSH1 0x4 DUP3 ADD MSTORE PUSH1 0x2E PUSH1 0x24 DUP3 ADD MSTORE PUSH32 0x48756D616E20706C6179657220666C697020636F756E74206D75737420626520 PUSH1 0x44 DUP3 ADD MSTORE PUSH14 0x67726561746572207468616E203 PUSH1 0x94 SHL PUSH1 0x64 DUP3 ADD MSTORE PUSH1 0x84 SWAP1 REVERT JUMPDEST PUSH1 0x64 PUSH1 0x40 MLOAD PUSH3 0x461BCD PUSH1 0xE5 SHL DUP2 MSTORE PUSH1 0x20 PUSH1 0x4 DUP3 ADD MSTORE PUSH1 0x20 PUSH1 0x24 DUP3 ADD MSTORE PUSH32 0x48756D616E20706C61796572206D75737420636F6D706C657465206669727374 PUSH1 0x44 DUP3 ADD MSTORE REVERT JUMPDEST POP DUP2 PUSH1 0x0 MSTORE PUSH1 0x6 PUSH1 0x20 MSTORE PUSH1 0x40 PUSH1 0x0 KECCAK256 PUSH1 0x1 DUP1 PUSH1 0xA0 SHL SUB PUSH32 0x0 AND PUSH1 0x0 MSTORE PUSH1 0x20 MSTORE PUSH1 0xFF PUSH1 0x4 PUSH1 0x40 PUSH1 0x0 KECCAK256 ADD SLOAD AND ISZERO PUSH2 0xA56 JUMP JUMPDEST PUSH2 0xF25 PUSH1 0x0 DUP1 MLOAD PUSH1 0x20 PUSH2 0x88DE DUP4 CODECOPY DUP2 MLOAD SWAP2 MSTORE SWAP2 PUSH1 0x40 MLOAD PUSH1 0x1E PUSH2 0x3E8 DUP4 DIV MOD DUP2 MSTORE DUP5 PUSH32 0xA90C07A1AB973CA48FC3F4DAD501A99E0DC8A00E62789F669A230D0A505987E0 PUSH1 0x20 CALLER SWAP4 LOG3 PUSH1 0x40 MLOAD SWAP2 DUP3 SWAP2 DUP3 SWAP2 SWAP1 PUSH1 0x40 DUP4 MSTORE PUSH1 0xB PUSH1 0x40 DUP5 ADD MSTORE PUSH11 0x74696D655F667265657A65 PUSH1 0xA8 SHL PUSH1 0x60 DUP5 ADD MSTORE PUSH1 0x20 PUSH1 0x80 DUP5 ADD SWAP4 ADD MSTORE JUMP JUMPDEST SUB SWAP1 LOG2 DUP7 DUP12 PUSH2 0x98D JUMP JUMPDEST PUSH1 0x40 MLOAD PUSH1 0xC DUP3 MOD DUP2 MSTORE DUP3 PUSH32 0xA1DFC4607B4EF6099981B145882F4D59DF9320828BDCE6A4D418361DF804C82F PUSH1 0x20 CALLER SWAP4 LOG3 DUP2 PUSH1 0x0 DUP1 MLOAD PUSH1 0x20 PUSH2 0x88DE DUP4 CODECOPY DUP2 MLOAD SWAP2 MSTORE PUSH1 0x40 MLOAD DUP1 PUSH2 0xFA3 DUP6 DUP3 SWAP2 SWAP1 PUSH1 0x40 DUP4 MSTORE PUSH1 0xA PUSH1 0x40 DUP5 ADD MSTORE PUSH10 0x189BDB9D5CD7D8D85C99 PUSH1 0xB2 SHL PUSH1 0x60 DUP5 ADD MSTORE PUSH1 0x20 PUSH1 0x80 DUP5 ADD SWAP4 ADD MSTORE JUMP JUMPDEST SUB SWAP1 LOG2 PUSH2 0x980 JUMP JUMPDEST SWAP5 SWAP2 SWAP4 POP SWAP1 SWAP2 DUP7 PUSH1 0x2 DUP5 GT ISZERO PUSH2 0x1068 JUMPI POP DUP3 PUSH1 0x1 NOT DUP2 ADD GT PUSH2 0xDA5 JUMPI DUP7 SWAP4 PUSH1 0x3 PUSH2 0xA38 SWAP4 DUP7 PUSH1 0x0 DUP1 MLOAD PUSH1 0x20 PUSH2 0x889E DUP4 CODECOPY DUP2 MLOAD SWAP2 MSTORE SWAP7 PUSH1 0x1 NOT ADD JUMPDEST SWAP9 PUSH1 0x40 MLOAD PUSH1 0x2 DUP2 MSTORE DUP3 PUSH32 0xD67C9EF9DDAF92A36275C3B90E5B262E1FCDB29F027EE01267EE671CA00F6CBF PUSH1 0x20 CALLER SWAP4 LOG3 DUP2 PUSH1 0x0 DUP1 MLOAD PUSH1 0x20 PUSH2 0x88DE DUP4 CODECOPY DUP2 MLOAD SWAP2 MSTORE PUSH1 0x40 MLOAD DUP1 PUSH2 0x1058 DUP6 DUP3 SWAP2 SWAP1 PUSH1 0x40 DUP4 MSTORE PUSH1 0xA PUSH1 0x40 DUP5 ADD MSTORE PUSH10 0x6C75636B795F666C697 PUSH1 0xB4 SHL PUSH1 0x60 DUP5 ADD MSTORE PUSH1 0x20 PUSH1 0x80 DUP5 ADD SWAP4 ADD MSTORE JUMP JUMPDEST SUB SWAP1 LOG2 SWAP4 SWAP6 POP POP SWAP3 SWAP5 POP POP PUSH2 0x959 JUMP JUMPDEST SWAP4 PUSH1 0x0 DUP1 MLOAD PUSH1 0x20 PUSH2 0x889E DUP4 CODECOPY DUP2 MLOAD SWAP2 MSTORE SWAP4 POP PUSH1 0x3 PUSH2 0xA38 SWAP4 DUP7 PUSH1 0x0 PUSH2 0xFE5 JUMP JUMPDEST DUP5 PUSH1 0x0 MSTORE PUSH1 0xD PUSH1 0x20 MSTORE PUSH1 0x40 PUSH1 0x0 KECCAK256 CALLER PUSH1 0x0 MSTORE PUSH1 0x20 MSTORE PUSH1 0xFF PUSH1 0x1 PUSH1 0x40 PUSH1 0x0 KECCAK256 ADD SLOAD AND ISZERO PUSH2 0x111B JUMPI DUP5 PUSH1 0x0 MSTORE PUSH1 0xD PUSH1 0x20 MSTORE PUSH1 0x40 PUSH1 0x0 KECCAK256 CALLER PUSH1 0x0 MSTORE PUSH1 0x20 MSTORE PUSH1 0xFF PUSH1 0x1 PUSH1 0x40 PUSH1 0x0 KECCAK256 ADD SLOAD PUSH1 0x8 SHR AND PUSH2 0x896 JUMPI PUSH1 0x40 MLOAD PUSH3 0x461BCD PUSH1 0xE5 SHL DUP2 MSTORE PUSH1 0x20 PUSH1 0x4 DUP3 ADD MSTORE PUSH1 0x17 PUSH1 0x24 DUP3 ADD MSTORE PUSH32 0x4D7573742072657665616C2073636F7265206669727374000000000000000000 PUSH1 0x44 DUP3 ADD MSTORE PUSH1 0x64 SWAP1 REVERT JUMPDEST PUSH1 0x40 MLOAD PUSH3 0x461BCD PUSH1 0xE5 SHL DUP2 MSTORE PUSH1 0x20 PUSH1 0x4 DUP3 ADD MSTORE PUSH1 0x17 PUSH1 0x24 DUP3 ADD MSTORE PUSH32 0x4D75737420636F6D6D69742073636F7265206669727374000000000000000000 PUSH1 0x44 DUP3 ADD MSTORE PUSH1 0x64 SWAP1 REVERT JUMPDEST POP PUSH1 0x10 DUP7 SWAP1 SHR DUP3 AND ISZERO PUSH2 0x87A JUMP JUMPDEST CALLVALUE PUSH2 0x392 JUMPI PUSH1 0x20 CALLDATASIZE PUSH1 0x3 NOT ADD SLT PUSH2 0x392 JUMPI PUSH2 0x11A1 PUSH2 0x118D PUSH1 0x4 CALLDATALOAD PUSH2 0x6C12 JUMP JUMPDEST PUSH1 0x40 MLOAD SWAP2 DUP3 SWAP2 PUSH1 0x20 DUP4 MSTORE PUSH1 0x20 DUP4 ADD SWAP1 PUSH2 0x63A1 JUMP JUMPDEST SUB SWAP1 RETURN JUMPDEST CALLVALUE PUSH2 0x392 JUMPI PUSH1 0x0 CALLDATASIZE PUSH1 0x3 NOT ADD SLT PUSH2 0x392 JUMPI PUSH1 0x20 PUSH1 0x2 SLOAD PUSH1 0x40 MLOAD SWAP1 DUP2 MSTORE RETURN JUMPDEST CALLVALUE PUSH2 0x392 JUMPI PUSH2 0x11D1 CALLDATASIZE PUSH2 0x61D3 JUMP JUMPDEST PUSH2 0x11D9 PUSH2 0x6CFC JUMP JUMPDEST PUSH3 0x93A80 TIMESTAMP DIV SWAP2 DUP3 PUSH1 0x0 MSTORE PUSH1 0x20 SWAP3 PUSH1 0xF DUP5 MSTORE PUSH1 0x40 PUSH1 0x0 KECCAK256 SLOAD ISZERO PUSH2 0x1552 JUMPI JUMPDEST POP PUSH1 0x40 MLOAD SWAP4 PUSH2 0x1205 DUP6 PUSH2 0x60FE JUMP JUMPDEST PUSH1 0x0 DUP6 MSTORE PUSH2 0x1214 PUSH1 0x2 SLOAD PUSH2 0x6518 JUMP JUMPDEST SWAP3 DUP4 PUSH1 0x2 SSTORE DUP4 PUSH1 0x0 MSTORE PUSH1 0x5 DUP6 MSTORE PUSH1 0x40 PUSH1 0x0 KECCAK256 SWAP1 DUP5 DUP3 SSTORE PUSH1 0x1 SWAP7 DUP8 DUP4 ADD SWAP1 DUP5 MLOAD SWAP2 PUSH1 0x1 PUSH1 0x1 PUSH1 0x40 SHL SUB DUP4 GT PUSH2 0x153C JUMPI DUP9 SWAP3 PUSH2 0x124E DUP3 SLOAD PUSH2 0x6263 JUMP JUMPDEST PUSH1 0x1F DUP2 GT PUSH2 0x1501 JUMPI JUMPDEST POP DUP4 PUSH1 0x1F DUP3 GT PUSH1 0x1 EQ PUSH2 0x1496 JUMPI PUSH1 0x0 SWAP1 DUP3 PUSH2 0x148B JUMPI JUMPDEST POP PUSH1 0x0 NOT PUSH1 0x3 DUP4 SWAP1 SHL SHR NOT AND SWAP1 DUP12 SHL OR SWAP1 SSTORE JUMPDEST PUSH1 0x2 DUP5 ADD DUP1 SLOAD PUSH1 0x1 PUSH2 0xFF01 PUSH1 0xA8 SHL SUB NOT AND CALLER PUSH3 0xFF00FF PUSH1 0xA0 SHL NOT AND OR PUSH1 0x1 PUSH1 0xA0 SHL OR PUSH1 0xFF PUSH1 0xA8 SHL NOT AND SWAP1 SSTORE PUSH1 0x0 PUSH1 0x3 DUP6 ADD DUP2 SWAP1 SSTORE PUSH1 0x4 DUP6 ADD DUP2 SWAP1 SSTORE PUSH1 0x5 DUP6 ADD DUP8 SWAP1 SSTORE PUSH1 0x6 DUP6 ADD DUP11 SWAP1 SSTORE PUSH1 0x7 DUP6 ADD SSTORE TIMESTAMP PUSH1 0x8 DUP6 ADD SSTORE DUP1 MLOAD SWAP1 DUP2 PUSH2 0x1453 JUMPI JUMPDEST POP POP POP DUP1 ISZERO DUP1 ISZERO PUSH2 0x142C JUMPI JUMPDEST POP POP POP PUSH1 0x40 MLOAD SWAP2 PUSH2 0x12F9 DUP4 PUSH2 0x60C7 JUMP JUMPDEST CALLER DUP4 MSTORE DUP4 PUSH2 0x13AC DUP7 PUSH2 0x1395 PUSH1 0x4 DUP3 DUP9 ADD SWAP8 PUSH1 0x0 DUP10 MSTORE PUSH1 0x40 DUP2 ADD PUSH1 0x0 DUP2 MSTORE PUSH1 0x60 DUP3 ADD SWAP1 PUSH1 0x0 DUP3 MSTORE DUP14 PUSH1 0x80 DUP5 ADD SWAP12 PUSH1 0x0 DUP14 MSTORE PUSH1 0xA0 DUP6 ADD SWAP8 DUP3 DUP10 MSTORE PUSH1 0xC0 DUP7 ADD SWAP11 PUSH1 0x0 DUP13 MSTORE PUSH1 0x0 MSTORE PUSH1 0x6 DUP2 MSTORE PUSH1 0x40 PUSH1 0x0 KECCAK256 SWAP1 CALLER PUSH1 0x0 MSTORE MSTORE PUSH1 0x40 PUSH1 0x0 KECCAK256 SWAP5 PUSH1 0x1 DUP1 PUSH1 0xA0 SHL SUB SWAP1 MLOAD AND PUSH1 0x1 PUSH1 0x1 PUSH1 0x60 SHL SUB PUSH1 0xA0 SHL DUP7 SLOAD AND OR DUP6 SSTORE MLOAD SWAP1 DUP5 ADD SSTORE MLOAD PUSH1 0x2 DUP4 ADD SSTORE MLOAD PUSH1 0x3 DUP3 ADD SSTORE ADD SWAP7 MLOAD ISZERO ISZERO DUP8 SWAP1 PUSH1 0xFF DUP1 NOT DUP4 SLOAD AND SWAP2 ISZERO ISZERO AND OR SWAP1 SSTORE JUMP JUMPDEST MLOAD DUP6 SLOAD PUSH2 0xFF00 NOT AND SWAP1 ISZERO ISZERO PUSH1 0x8 SHL PUSH2 0xFF00 AND OR DUP6 SSTORE JUMP JUMPDEST MLOAD SWAP3 PUSH1 0x3 DUP5 LT ISZERO PUSH2 0x597 JUMPI PUSH1 0x0 DUP1 MLOAD PUSH1 0x20 PUSH2 0x883E DUP4 CODECOPY DUP2 MLOAD SWAP2 MSTORE SWAP4 PUSH2 0x13D0 SWAP2 PUSH2 0x6652 JUMP JUMPDEST DUP4 PUSH1 0x0 MSTORE PUSH1 0x7 DUP6 MSTORE PUSH2 0x13E6 CALLER PUSH1 0x40 PUSH1 0x0 KECCAK256 PUSH2 0x6A3E JUMP JUMPDEST CALLER PUSH1 0x0 MSTORE PUSH1 0x8 DUP6 MSTORE PUSH2 0x13FC DUP5 PUSH1 0x40 PUSH1 0x0 KECCAK256 PUSH2 0x6A79 JUMP JUMPDEST DUP6 PUSH2 0x1412 PUSH1 0x40 MLOAD SWAP4 PUSH1 0x80 DUP6 MSTORE PUSH1 0x80 DUP6 ADD SWAP1 PUSH2 0x6365 JUMP JUMPDEST SWAP6 DUP4 ADD MSTORE PUSH1 0x0 PUSH1 0x40 DUP4 ADD MSTORE PUSH1 0x60 DUP3 ADD MSTORE DUP1 CALLER SWAP5 SUB SWAP1 LOG3 DUP1 SSTORE STOP JUMPDEST PUSH2 0xE10 DUP1 DUP4 MUL SWAP3 DUP4 DIV EQ OR ISZERO PUSH2 0xDA5 JUMPI PUSH2 0x1448 PUSH1 0xB SWAP2 TIMESTAMP PUSH2 0x65B9 JUMP JUMPDEST SWAP2 ADD SSTORE DUP6 DUP1 DUP1 PUSH2 0x12E9 JUMP JUMPDEST DUP3 PUSH2 0x147B SWAP2 DUP4 PUSH2 0x146E PUSH1 0x40 MLOAD SWAP6 DUP7 SWAP4 DUP6 DUP6 ADD SWAP9 DUP10 SWAP2 ADD PUSH2 0x6342 JUMP JUMPDEST DUP2 ADD SUB DUP1 DUP5 MSTORE ADD DUP3 PUSH2 0x6150 JUMP JUMPDEST MLOAD SWAP1 KECCAK256 PUSH1 0x13 DUP4 ADD SSTORE DUP6 DUP9 DUP1 PUSH2 0x12DD JUMP JUMPDEST SWAP1 POP DUP8 ADD MLOAD DUP13 PUSH2 0x126D JUMP JUMPDEST SWAP1 DUP12 SWAP2 PUSH1 0x1F NOT DUP3 AND SWAP1 DUP5 PUSH1 0x0 MSTORE DUP7 PUSH1 0x0 KECCAK256 SWAP2 PUSH1 0x0 JUMPDEST DUP2 DUP2 LT PUSH2 0x14DF JUMPI POP DUP4 GT PUSH2 0x14C6 JUMPI JUMPDEST POP POP DUP2 SHL ADD SWAP1 SSTORE PUSH2 0x1280 JUMP JUMPDEST DUP10 ADD MLOAD PUSH1 0x0 NOT PUSH1 0xF8 DUP5 PUSH1 0x3 SHL AND SHR NOT AND SWAP1 SSTORE DUP13 DUP1 PUSH2 0x14BA JUMP JUMPDEST SWAP4 SWAP6 SWAP7 SWAP8 SWAP2 SWAP5 DUP3 SWAP2 SWAP4 DUP7 DUP14 ADD MLOAD DUP2 SSTORE ADD SWAP5 ADD SWAP3 ADD SWAP2 DUP14 SWAP4 SWAP2 DUP14 SWAP8 SWAP7 SWAP6 SWAP4 PUSH2 0x14AB JUMP JUMPDEST PUSH2 0x152C SWAP1 DUP4 PUSH1 0x0 MSTORE DUP6 PUSH1 0x0 KECCAK256 PUSH1 0x1F DUP5 ADD PUSH1 0x5 SHR DUP2 ADD SWAP2 DUP8 DUP6 LT PUSH2 0x1532 JUMPI JUMPDEST PUSH1 0x1F ADD PUSH1 0x5 SHR ADD SWAP1 PUSH2 0x6D1F JUMP JUMPDEST DUP12 PUSH2 0x1257 JUMP JUMPDEST SWAP1 SWAP2 POP DUP2 SWAP1 PUSH2 0x151F JUMP JUMPDEST PUSH4 0x4E487B71 PUSH1 0xE0 SHL PUSH1 0x0 MSTORE PUSH1 0x41 PUSH1 0x4 MSTORE PUSH1 0x24 PUSH1 0x0 REVERT JUMPDEST PUSH1 0x40 MLOAD PUSH4 0xF8413B07 PUSH1 0xE0 SHL DUP2 MSTORE DUP5 DUP2 PUSH1 0x4 DUP2 PUSH1 0x0 PUSH32 0x0 PUSH1 0x1 PUSH1 0x1 PUSH1 0xA0 SHL SUB AND GAS CALL SWAP1 DUP2 ISZERO PUSH2 0x15FA JUMPI DUP6 SWAP2 PUSH2 0x15D1 JUMPI JUMPDEST POP PUSH32 0x9F7EAD40AE1E5C145CDD75EBD5D417147CDA3A762BC057D6548912617E727969 SWAP1 PUSH1 0x40 MLOAD PUSH1 0x0 DUP2 MSTORE LOG2 DUP5 PUSH2 0x11F7 JUMP JUMPDEST DUP2 RETURNDATASIZE DUP4 GT PUSH2 0x15F3 JUMPI JUMPDEST PUSH2 0x15E4 DUP2 DUP4 PUSH2 0x6150 JUMP JUMPDEST DUP2 ADD SUB SLT PUSH2 0x392 JUMPI DUP4 DUP7 PUSH2 0x15A0 JUMP JUMPDEST POP RETURNDATASIZE PUSH2 0x15DA JUMP JUMPDEST PUSH1 0x40 MLOAD RETURNDATASIZE PUSH1 0x0 DUP3 RETURNDATACOPY RETURNDATASIZE SWAP1 REVERT JUMPDEST CALLVALUE PUSH2 0x392 JUMPI PUSH1 0x40 CALLDATASIZE PUSH1 0x3 NOT ADD SLT PUSH2 0x392 JUMPI PUSH2 0x161F PUSH2 0x604D JUMP JUMPDEST PUSH1 0x4 CALLDATALOAD PUSH1 0x0 MSTORE PUSH1 0xC PUSH1 0x20 MSTORE PUSH1 0x40 PUSH1 0x0 KECCAK256 SWAP1 PUSH1 0x1 DUP1 PUSH1 0xA0 SHL SUB AND PUSH1 0x0 MSTORE PUSH1 0x20 MSTORE PUSH1 0x80 PUSH1 0x40 PUSH1 0x0 KECCAK256 DUP1 SLOAD SWAP1 PUSH1 0x1 DUP2 ADD SLOAD SWAP1 PUSH1 0x3 PUSH1 0x2 DUP3 ADD SLOAD SWAP2 ADD SLOAD SWAP2 PUSH1 0x40 MLOAD SWAP4 DUP5 MSTORE PUSH1 0x20 DUP5 ADD MSTORE PUSH1 0x40 DUP4 ADD MSTORE PUSH1 0x60 DUP3 ADD MSTORE RETURN JUMPDEST CALLVALUE PUSH2 0x392 JUMPI PUSH2 0x167E CALLDATASIZE PUSH2 0x640B JUMP JUMPDEST SWAP1 PUSH1 0x0 MSTORE PUSH1 0x7 PUSH1 0x20 MSTORE PUSH1 0x40 PUSH1 0x0 KECCAK256 DUP1 SLOAD DUP3 LT ISZERO PUSH2 0x392 JUMPI PUSH1 0x20 SWAP2 PUSH2 0x62B SWAP2 PUSH2 0x6063 JUMP JUMPDEST CALLVALUE PUSH2 0x392 JUMPI PUSH1 0x20 CALLDATASIZE PUSH1 0x3 NOT ADD SLT PUSH2 0x392 JUMPI PUSH1 0x4 CALLDATALOAD PUSH1 0x0 MSTORE PUSH1 0x9 PUSH1 0x20 MSTORE PUSH1 0x20 PUSH1 0x40 PUSH1 0x0 KECCAK256 SLOAD PUSH1 0x40 MLOAD SWAP1 DUP2 MSTORE RETURN JUMPDEST CALLVALUE PUSH2 0x392 JUMPI PUSH2 0x16DB CALLDATASIZE PUSH2 0x640B JUMP JUMPDEST PUSH2 0x16E3 PUSH2 0x6C51 JUMP JUMPDEST PUSH1 0x3 SLOAD DUP3 DUP3 MUL SWAP1 DUP3 DUP3 DIV DUP5 EQ DUP4 ISZERO OR ISZERO PUSH2 0xDA5 JUMPI LT PUSH2 0x1734 JUMPI PUSH1 0x40 MLOAD SWAP2 DUP3 MSTORE PUSH1 0x20 DUP3 ADD MSTORE PUSH32 0x18E7A4E7F6243E8ED111828EC35DD85BA10A00253B56E9E6E42B07F03D858BCA PUSH1 0x40 PUSH3 0x93A80 TIMESTAMP DIV SWAP3 LOG2 STOP JUMPDEST PUSH1 0x40 MLOAD PUSH3 0x461BCD PUSH1 0xE5 SHL DUP2 MSTORE PUSH1 0x20 PUSH1 0x4 DUP3 ADD MSTORE PUSH1 0x15 PUSH1 0x24 DUP3 ADD MSTORE PUSH21 0x496E73756666696369656E74207472656173757279 PUSH1 0x58 SHL PUSH1 0x44 DUP3 ADD MSTORE PUSH1 0x64 SWAP1 REVERT JUMPDEST PUSH2 0x177A CALLDATASIZE PUSH2 0x6208 JUMP JUMPDEST PUSH2 0x1786 SWAP5 SWAP2 SWAP4 SWAP5 PUSH2 0x6CFC JUMP JUMPDEST PUSH7 0x2386F26FC10000 CALLVALUE LT PUSH2 0x1CB7 JUMPI PUSH1 0x1 DUP4 LT ISZERO DUP1 PUSH2 0x1CAC JUMPI JUMPDEST PUSH2 0x17A8 SWAP1 PUSH2 0x6B2B JUMP JUMPDEST PUSH2 0x17B1 DUP6 PUSH2 0x638A JUMP JUMPDEST DUP5 ISZERO PUSH2 0x1C77 JUMPI JUMPDEST PUSH2 0x17C3 PUSH1 0x2 SLOAD PUSH2 0x6518 JUMP JUMPDEST SWAP4 DUP5 PUSH1 0x2 SSTORE DUP5 PUSH1 0x0 MSTORE PUSH1 0x5 PUSH1 0x20 MSTORE PUSH1 0x40 PUSH1 0x0 KECCAK256 SWAP2 DUP6 DUP4 SSTORE DUP4 MLOAD PUSH1 0x1 PUSH1 0x1 PUSH1 0x40 SHL SUB DUP2 GT PUSH2 0x153C JUMPI PUSH2 0x17F7 PUSH1 0x1 DUP6 ADD SLOAD PUSH2 0x6263 JUMP JUMPDEST PUSH1 0x1F DUP2 GT PUSH2 0x1C42 JUMPI JUMPDEST POP DUP1 PUSH1 0x20 PUSH1 0x1F DUP3 GT PUSH1 0x1 EQ PUSH2 0x1BD5 JUMPI PUSH1 0x0 SWAP2 PUSH2 0x1BCA JUMPI JUMPDEST POP DUP2 PUSH1 0x1 SHL SWAP2 PUSH1 0x0 NOT SWAP1 PUSH1 0x3 SHL SHR NOT AND OR PUSH1 0x1 DUP5 ADD SSTORE JUMPDEST PUSH1 0x2 DUP4 ADD DUP1 SLOAD PUSH2 0x183D DUP10 PUSH2 0x638A JUMP JUMPDEST PUSH1 0x1 PUSH2 0xFF01 PUSH1 0xA8 SHL SUB NOT AND CALLER PUSH3 0xFF00FF PUSH1 0xA0 SHL NOT AND OR PUSH1 0xA0 DUP10 SWAP1 SHL PUSH1 0xFF PUSH1 0xA0 SHL AND OR PUSH1 0x1 PUSH1 0xB0 SHL OR PUSH1 0xFF PUSH1 0xA8 SHL NOT AND SWAP1 SSTORE CALLVALUE PUSH1 0x3 DUP5 ADD DUP2 SWAP1 SSTORE PUSH1 0x4 DUP5 ADD SSTORE PUSH1 0x5 DUP4 ADD DUP6 SWAP1 SSTORE PUSH1 0x1 PUSH1 0x6 DUP5 ADD SSTORE PUSH1 0x0 PUSH1 0x7 DUP5 ADD SSTORE TIMESTAMP PUSH1 0x8 DUP5 ADD SSTORE DUP1 MLOAD DUP1 PUSH2 0x1B9E JUMPI JUMPDEST POP POP PUSH2 0x18A9 DUP7 PUSH2 0x638A JUMP JUMPDEST PUSH1 0x1 DUP7 EQ DUP1 PUSH2 0x1B95 JUMPI JUMPDEST PUSH2 0x1B6B JUMPI JUMPDEST POP POP PUSH1 0x40 MLOAD PUSH2 0x18C6 DUP2 PUSH2 0x60C7 JUMP JUMPDEST CALLER DUP2 MSTORE PUSH1 0x20 DUP2 ADD PUSH1 0x0 DUP2 MSTORE PUSH2 0x197B PUSH1 0x40 DUP4 ADD PUSH1 0x0 DUP2 MSTORE PUSH2 0x1964 PUSH1 0x4 PUSH1 0x60 DUP7 ADD SWAP6 PUSH1 0x0 DUP8 MSTORE PUSH1 0x80 DUP2 ADD SWAP7 PUSH1 0x0 DUP9 MSTORE PUSH1 0xA0 DUP3 ADD SWAP5 PUSH1 0x1 DUP7 MSTORE PUSH1 0xC0 DUP4 ADD SWAP8 PUSH1 0x0 DUP10 MSTORE DUP13 PUSH1 0x0 MSTORE PUSH1 0x6 PUSH1 0x20 MSTORE PUSH1 0x40 PUSH1 0x0 KECCAK256 CALLER PUSH1 0x0 MSTORE PUSH1 0x20 MSTORE PUSH1 0x40 PUSH1 0x0 KECCAK256 SWAP4 PUSH1 0x1 DUP1 PUSH1 0xA0 SHL SUB SWAP1 MLOAD AND PUSH1 0x1 PUSH1 0x1 PUSH1 0x60 SHL SUB PUSH1 0xA0 SHL DUP6 SLOAD AND OR DUP5 SSTORE MLOAD PUSH1 0x1 DUP5 ADD SSTORE MLOAD PUSH1 0x2 DUP4 ADD SSTORE MLOAD PUSH1 0x3 DUP3 ADD SSTORE ADD SWAP5 MLOAD ISZERO ISZERO DUP6 SWAP1 PUSH1 0xFF DUP1 NOT DUP4 SLOAD AND SWAP2 ISZERO ISZERO AND OR SWAP1 SSTORE JUMP JUMPDEST MLOAD DUP4 SLOAD PUSH2 0xFF00 NOT AND SWAP1 ISZERO ISZERO PUSH1 0x8 SHL PUSH2 0xFF00 AND OR DUP4 SSTORE JUMP JUMPDEST MLOAD PUSH1 0x3 DUP2 LT ISZERO PUSH2 0x597 JUMPI PUSH2 0x198E SWAP2 PUSH2 0x6652 JUMP JUMPDEST DUP3 PUSH1 0x0 MSTORE PUSH1 0x7 PUSH1 0x20 MSTORE PUSH2 0x19A5 CALLER PUSH1 0x40 PUSH1 0x0 KECCAK256 PUSH2 0x6A3E JUMP JUMPDEST CALLER PUSH1 0x0 MSTORE PUSH1 0x8 PUSH1 0x20 MSTORE PUSH2 0x19BC DUP4 PUSH1 0x40 PUSH1 0x0 KECCAK256 PUSH2 0x6A79 JUMP JUMPDEST PUSH2 0x19C5 DUP5 PUSH2 0x638A JUMP JUMPDEST DUP4 ISZERO DUP1 PUSH2 0x1B61 JUMPI JUMPDEST PUSH2 0x1A1D JUMPI JUMPDEST PUSH1 0x0 DUP1 MLOAD PUSH1 0x20 PUSH2 0x883E DUP4 CODECOPY DUP2 MLOAD SWAP2 MSTORE SWAP2 PUSH2 0x19F7 PUSH1 0x40 MLOAD SWAP3 PUSH1 0x80 DUP5 MSTORE PUSH1 0x80 DUP5 ADD SWAP1 PUSH2 0x6365 JUMP JUMPDEST SWAP5 PUSH2 0x1A01 DUP2 PUSH2 0x638A JUMP JUMPDEST PUSH1 0x20 DUP4 ADD MSTORE CALLVALUE PUSH1 0x40 DUP4 ADD MSTORE PUSH1 0x60 DUP3 ADD MSTORE DUP1 CALLER SWAP5 SUB SWAP1 LOG3 PUSH1 0x1 DUP1 SSTORE STOP JUMPDEST PUSH1 0x40 MLOAD SWAP2 PUSH32 0x0 PUSH2 0x1A4B DUP5 PUSH2 0x60C7 JUMP JUMPDEST PUSH1 0x1 DUP1 PUSH1 0xA0 SHL SUB DUP2 AND DUP5 MSTORE PUSH1 0x0 PUSH1 0x20 DUP6 ADD MSTORE PUSH1 0x0 PUSH1 0x40 DUP6 ADD MSTORE PUSH1 0x0 PUSH1 0x60 DUP6 ADD MSTORE PUSH1 0x0 PUSH1 0x80 DUP6 ADD MSTORE PUSH1 0xA0 DUP5 ADD PUSH1 0x1 DUP2 MSTORE PUSH2 0x1B17 PUSH1 0xC0 DUP7 ADD SWAP2 PUSH1 0x0 DUP4 MSTORE DUP8 PUSH1 0x0 MSTORE PUSH1 0x6 PUSH1 0x20 MSTORE PUSH1 0x40 PUSH1 0x0 KECCAK256 PUSH1 0x1 DUP1 PUSH1 0xA0 SHL SUB DUP6 AND PUSH1 0x0 MSTORE PUSH1 0x20 MSTORE PUSH2 0x1B00 PUSH1 0x80 PUSH1 0x4 PUSH1 0x40 PUSH1 0x0 KECCAK256 PUSH1 0x1 DUP1 PUSH1 0xA0 SHL SUB DUP12 MLOAD AND PUSH1 0x1 PUSH1 0x1 PUSH1 0x60 SHL SUB PUSH1 0xA0 SHL DUP3 SLOAD AND OR DUP2 SSTORE PUSH1 0x20 DUP12 ADD MLOAD PUSH1 0x1 DUP3 ADD SSTORE PUSH1 0x40 DUP12 ADD MLOAD PUSH1 0x2 DUP3 ADD SSTORE PUSH1 0x60 DUP12 ADD MLOAD PUSH1 0x3 DUP3 ADD SSTORE ADD SWAP9 ADD MLOAD ISZERO ISZERO DUP9 SWAP1 PUSH1 0xFF DUP1 NOT DUP4 SLOAD AND SWAP2 ISZERO ISZERO AND OR SWAP1 SSTORE JUMP JUMPDEST MLOAD DUP7 SLOAD PUSH2 0xFF00 NOT AND SWAP1 ISZERO ISZERO PUSH1 0x8 SHL PUSH2 0xFF00 AND OR DUP7 SSTORE JUMP JUMPDEST MLOAD SWAP1 PUSH1 0x3 DUP3 LT ISZERO PUSH2 0x597 JUMPI PUSH2 0x1B3E PUSH2 0x1B51 SWAP3 PUSH1 0x0 DUP1 MLOAD PUSH1 0x20 PUSH2 0x883E DUP4 CODECOPY DUP2 MLOAD SWAP2 MSTORE SWAP7 PUSH2 0x6652 JUMP JUMPDEST DUP6 PUSH1 0x0 MSTORE PUSH1 0x7 PUSH1 0x20 MSTORE PUSH1 0x40 PUSH1 0x0 KECCAK256 PUSH2 0x6A3E JUMP JUMPDEST PUSH2 0x1B5A DUP5 PUSH2 0x722A JUMP JUMPDEST SWAP2 POP PUSH2 0x19D2 JUMP JUMPDEST POP PUSH1 0x1 DUP3 EQ PUSH2 0x19CD JUMP JUMPDEST PUSH2 0xE10 SWAP1 DUP2 DUP2 MUL SWAP2 DUP2 DUP4 DIV EQ SWAP1 ISZERO OR ISZERO PUSH2 0xDA5 JUMPI PUSH2 0x1B8B PUSH1 0xB SWAP2 TIMESTAMP PUSH2 0x65B9 JUMP JUMPDEST SWAP2 ADD SSTORE DUP5 DUP1 PUSH2 0x18B8 JUMP JUMPDEST POP DUP1 ISZERO ISZERO PUSH2 0x18B3 JUMP JUMPDEST PUSH2 0x1BBB PUSH1 0x20 DUP1 SWAP4 DUP4 PUSH2 0x146E PUSH1 0x40 MLOAD SWAP6 DUP7 SWAP4 DUP6 DUP6 ADD SWAP9 DUP10 SWAP2 ADD PUSH2 0x6342 JUMP JUMPDEST MLOAD SWAP1 KECCAK256 PUSH1 0x13 DUP4 ADD SSTORE DUP7 DUP1 PUSH2 0x189E JUMP JUMPDEST SWAP1 POP DUP6 ADD MLOAD DUP10 PUSH2 0x1817 JUMP JUMPDEST SWAP2 POP PUSH1 0x1 DUP6 ADD PUSH1 0x0 MSTORE PUSH1 0x20 PUSH1 0x0 KECCAK256 PUSH1 0x0 SWAP3 JUMPDEST PUSH1 0x1F NOT DUP4 AND DUP5 LT PUSH2 0x1C2A JUMPI PUSH1 0x1 SWAP4 POP DUP3 PUSH1 0x1F NOT DUP2 AND LT PUSH2 0x1C11 JUMPI JUMPDEST POP POP DUP2 SHL ADD PUSH1 0x1 DUP5 ADD SSTORE PUSH2 0x182E JUMP JUMPDEST DUP8 ADD MLOAD PUSH1 0x0 NOT PUSH1 0xF8 DUP5 PUSH1 0x3 SHL AND SHR NOT AND SWAP1 SSTORE DUP10 DUP1 PUSH2 0x1C02 JUMP JUMPDEST DUP8 DUP2 ADD MLOAD DUP3 SSTORE PUSH1 0x20 SWAP4 DUP5 ADD SWAP4 PUSH1 0x1 SWAP1 SWAP3 ADD SWAP2 ADD PUSH2 0x1BE7 JUMP JUMPDEST PUSH2 0x1C71 SWAP1 PUSH1 0x1 DUP7 ADD PUSH1 0x0 MSTORE PUSH1 0x20 PUSH1 0x0 KECCAK256 PUSH1 0x1F DUP5 ADD PUSH1 0x5 SHR DUP2 ADD SWAP2 PUSH1 0x20 DUP6 LT PUSH2 0x1532 JUMPI PUSH1 0x1F ADD PUSH1 0x5 SHR ADD SWAP1 PUSH2 0x6D1F JUMP JUMPDEST DUP9 PUSH2 0x1800 JUMP JUMPDEST PUSH2 0x1C83 PUSH1 0x1 DUP5 EQ PUSH2 0x6B6E JUMP JUMPDEST PUSH2 0x1CA7 PUSH1 0x64 PUSH2 0x1C91 CALLVALUE PUSH2 0x6734 JUMP JUMPDEST DIV PUSH2 0x1CA0 PUSH1 0x4 SLOAD SWAP2 CALLVALUE SWAP1 PUSH2 0x6471 JUMP JUMPDEST GT ISZERO PUSH2 0x6BC6 JUMP JUMPDEST PUSH2 0x17B8 JUMP JUMPDEST POP PUSH1 0x5 DUP4 GT ISZERO PUSH2 0x179F JUMP JUMPDEST PUSH1 0x40 MLOAD PUSH3 0x461BCD PUSH1 0xE5 SHL DUP2 MSTORE PUSH1 0x20 PUSH1 0x4 DUP3 ADD MSTORE PUSH1 0x1A PUSH1 0x24 DUP3 ADD MSTORE PUSH32 0x426574206D757374206265206174206C656173742031204D4F4E000000000000 PUSH1 0x44 DUP3 ADD MSTORE PUSH1 0x64 SWAP1 REVERT JUMPDEST CALLVALUE PUSH2 0x392 JUMPI PUSH1 0x40 CALLDATASIZE PUSH1 0x3 NOT ADD SLT PUSH2 0x392 JUMPI PUSH1 0x4 CALLDATALOAD PUSH2 0x1D18 PUSH2 0x604D JUMP JUMPDEST DUP2 PUSH1 0x0 MSTORE PUSH1 0x20 PUSH1 0x5 DUP2 MSTORE PUSH1 0x40 PUSH1 0x0 KECCAK256 PUSH1 0xD DUP3 MSTORE PUSH1 0x40 PUSH1 0x0 KECCAK256 SWAP3 PUSH1 0x1 DUP1 PUSH1 0xA0 SHL SUB AND SWAP3 DUP4 PUSH1 0x0 MSTORE DUP3 MSTORE PUSH1 0x40 PUSH1 0x0 KECCAK256 DUP5 PUSH1 0x0 MSTORE PUSH1 0x6 DUP4 MSTORE PUSH1 0x40 PUSH1 0x0 KECCAK256 DUP5 PUSH1 0x0 MSTORE DUP4 MSTORE PUSH1 0x40 PUSH1 0x0 KECCAK256 SWAP4 PUSH1 0x2 DUP4 ADD SWAP2 DUP3 SLOAD SWAP6 PUSH1 0xFF SWAP7 DUP8 DUP2 PUSH1 0xA8 SHR AND SWAP1 PUSH1 0x6 DUP3 LT ISZERO PUSH2 0x597 JUMPI DUP9 PUSH1 0x1 SWAP2 PUSH2 0x1D8C PUSH1 0x2 PUSH2 0x1D9F SWAP6 EQ PUSH2 0x657B JUMP JUMPDEST PUSH1 0xA0 SHR AND PUSH2 0x1D99 DUP2 PUSH2 0x638A JUMP JUMPDEST EQ PUSH2 0x66B8 JUMP JUMPDEST PUSH1 0x1 DUP3 ADD SWAP1 PUSH2 0x1DB1 DUP9 DUP4 SLOAD AND ISZERO PUSH2 0x68B4 JUMP JUMPDEST PUSH1 0x9 DUP7 ADD SLOAD PUSH2 0x12C DUP2 ADD DUP1 SWAP2 GT PUSH2 0xDA5 JUMPI TIMESTAMP GT ISZERO PUSH2 0x1F28 JUMPI PUSH3 0x20001 PUSH1 0x4 DUP3 ADD SWAP2 DUP3 SLOAD SWAP1 PUSH2 0x1DE1 DUP12 DUP4 AND ISZERO PUSH2 0x65C6 JUMP JUMPDEST DUP12 PUSH1 0x0 MSTORE PUSH1 0x15 DUP11 MSTORE PUSH1 0x40 PUSH1 0x0 KECCAK256 DUP8 PUSH1 0x0 MSTORE DUP11 MSTORE PUSH2 0x1E05 DUP12 PUSH1 0x40 PUSH1 0x0 KECCAK256 SLOAD AND ISZERO PUSH2 0x6606 JUMP JUMPDEST PUSH1 0x0 NOT PUSH1 0x2 DUP3 ADD SSTORE PUSH1 0x64 PUSH1 0x1 DUP3 ADD SSTORE PUSH1 0x3 TIMESTAMP SWAP2 ADD SSTORE PUSH3 0xFF00FF NOT AND OR SWAP1 SSTORE PUSH2 0x101 PUSH2 0xFFFF NOT DUP3 SLOAD AND OR SWAP1 SSTORE PUSH1 0x2 TIMESTAMP SWAP2 ADD SSTORE DUP6 PUSH1 0x0 MSTORE PUSH1 0x15 DUP5 MSTORE PUSH1 0x40 PUSH1 0x0 KECCAK256 DUP2 PUSH1 0x0 MSTORE DUP5 MSTORE PUSH1 0x40 PUSH1 0x0 KECCAK256 PUSH1 0x1 PUSH1 0xFF NOT DUP3 SLOAD AND OR SWAP1 SSTORE DUP6 PUSH1 0x0 DUP1 MLOAD PUSH1 0x20 PUSH2 0x88BE DUP4 CODECOPY DUP2 MLOAD SWAP2 MSTORE PUSH1 0x40 PUSH1 0x7 DUP7 ADD SWAP7 PUSH2 0x1E7A DUP9 SLOAD PUSH2 0x6518 JUMP JUMPDEST DUP9 SSTORE DUP5 PUSH1 0x0 MSTORE PUSH1 0x17 DUP2 MSTORE DUP2 PUSH1 0x0 KECCAK256 PUSH2 0x1E92 DUP2 SLOAD PUSH2 0x6518 JUMP JUMPDEST SWAP1 SSTORE DUP5 PUSH1 0x0 MSTORE PUSH1 0x16 DUP2 MSTORE TIMESTAMP DUP3 PUSH1 0x0 KECCAK256 SSTORE DUP5 DUP5 PUSH1 0x0 DUP1 MLOAD PUSH1 0x20 PUSH2 0x887E DUP4 CODECOPY DUP2 MLOAD SWAP2 MSTORE DUP4 DUP6 MLOAD PUSH1 0x0 DUP2 MSTORE LOG3 DUP5 DUP5 PUSH1 0x0 DUP1 MLOAD PUSH1 0x20 PUSH2 0x885E DUP4 CODECOPY DUP2 MLOAD SWAP2 MSTORE DUP4 DUP6 MLOAD PUSH1 0x64 DUP2 MSTORE LOG3 PUSH1 0x0 DUP3 MLOAD SWAP2 PUSH1 0x4 DUP4 MSTORE DUP3 ADD MSTORE LOG3 SLOAD SWAP2 PUSH1 0x1 DUP5 DUP5 PUSH1 0xA0 SHR AND PUSH2 0x1EF4 DUP2 PUSH2 0x638A JUMP JUMPDEST EQ PUSH2 0x1EFB JUMPI STOP JUMPDEST PUSH1 0x5 SWAP1 SLOAD SWAP2 ADD SLOAD GT ISZERO PUSH2 0x1F0B JUMPI JUMPDEST STOP JUMPDEST PUSH1 0xA8 SHR AND SWAP1 PUSH1 0x6 DUP3 LT ISZERO PUSH2 0x597 JUMPI PUSH2 0xAB2 PUSH1 0x2 PUSH2 0x1F09 SWAP4 EQ PUSH2 0x6673 JUMP JUMPDEST PUSH1 0x40 MLOAD PUSH3 0x461BCD PUSH1 0xE5 SHL DUP2 MSTORE PUSH1 0x4 DUP2 ADD DUP9 SWAP1 MSTORE PUSH1 0x1A PUSH1 0x24 DUP3 ADD MSTORE PUSH32 0x436F6D6D69742077696E646F77207374696C6C20616374697665000000000000 PUSH1 0x44 DUP3 ADD MSTORE PUSH1 0x64 SWAP1 REVERT JUMPDEST CALLVALUE PUSH2 0x392 JUMPI PUSH1 0x20 CALLDATASIZE PUSH1 0x3 NOT ADD SLT PUSH2 0x392 JUMPI PUSH1 0xC0 PUSH1 0x1 PUSH1 0x1 PUSH1 0xA0 SHL SUB DUP1 PUSH2 0x1F91 PUSH2 0x6037 JUMP JUMPDEST AND PUSH1 0x0 MSTORE PUSH1 0x18 PUSH1 0x20 MSTORE PUSH1 0x40 PUSH1 0x0 KECCAK256 SWAP1 DUP2 SLOAD AND SWAP1 PUSH1 0x1 DUP2 ADD SLOAD SWAP1 PUSH1 0x2 DUP2 ADD SLOAD PUSH1 0x3 DUP3 ADD SLOAD SWAP1 PUSH1 0x5 PUSH1 0x4 DUP5 ADD SLOAD SWAP4 ADD SLOAD SWAP4 PUSH1 0x40 MLOAD SWAP6 DUP7 MSTORE PUSH1 0x20 DUP7 ADD MSTORE PUSH1 0x40 DUP6 ADD MSTORE PUSH1 0x60 DUP5 ADD MSTORE PUSH1 0x80 DUP4 ADD MSTORE PUSH1 0xA0 DUP3 ADD MSTORE RETURN JUMPDEST PUSH2 0x1FEA CALLDATASIZE PUSH2 0x6208 JUMP JUMPDEST SWAP4 PUSH2 0x1FF6 SWAP3 SWAP2 SWAP3 PUSH2 0x6CFC JUMP JUMPDEST CALLVALUE ISZERO PUSH2 0x252E JUMPI PUSH1 0x2 SLOAD SWAP5 PUSH1 0x1 DUP7 ADD DUP7 GT PUSH2 0xDA5 JUMPI PUSH2 0x2013 DUP7 PUSH2 0x6518 JUMP JUMPDEST SWAP4 DUP5 PUSH1 0x2 SSTORE DUP5 PUSH1 0x0 MSTORE PUSH1 0x5 PUSH1 0x20 MSTORE PUSH1 0x40 PUSH1 0x0 KECCAK256 SWAP2 DUP6 DUP4 SSTORE DUP4 MLOAD PUSH1 0x1 PUSH1 0x1 PUSH1 0x40 SHL SUB DUP2 GT PUSH2 0x153C JUMPI PUSH2 0x2047 PUSH1 0x1 DUP6 ADD SLOAD PUSH2 0x6263 JUMP JUMPDEST PUSH1 0x1F DUP2 GT PUSH2 0x24F9 JUMPI JUMPDEST POP DUP1 PUSH1 0x20 PUSH1 0x1F DUP3 GT PUSH1 0x1 EQ PUSH2 0x248C JUMPI PUSH1 0x0 SWAP2 PUSH2 0x2481 JUMPI JUMPDEST POP DUP2 PUSH1 0x1 SHL SWAP2 PUSH1 0x0 NOT SWAP1 PUSH1 0x3 SHL SHR NOT AND OR PUSH1 0x1 DUP5 ADD SSTORE JUMPDEST PUSH1 0x2 DUP4 ADD DUP1 SLOAD PUSH2 0x208D DUP10 PUSH2 0x638A JUMP JUMPDEST PUSH1 0xA0 DUP10 SWAP1 SHL PUSH1 0xFF PUSH1 0xA0 SHL AND PUSH1 0x1 PUSH1 0x1 PUSH1 0xB8 SHL SUB NOT SWAP1 SWAP2 AND CALLER PUSH3 0xFFFFFF PUSH1 0xA0 SHL NOT AND OR OR SWAP1 SSTORE PUSH1 0x0 PUSH1 0x3 DUP5 ADD DUP2 SWAP1 SSTORE PUSH1 0x4 DUP5 ADD DUP2 SWAP1 SSTORE PUSH1 0x5 DUP5 ADD DUP7 SWAP1 SSTORE PUSH1 0x1 PUSH1 0x6 DUP6 ADD SSTORE PUSH1 0x7 DUP5 ADD SSTORE TIMESTAMP PUSH1 0x8 DUP5 ADD SSTORE DUP1 MLOAD DUP1 PUSH2 0x2455 JUMPI JUMPDEST POP POP PUSH2 0x20EE DUP7 PUSH2 0x638A JUMP JUMPDEST PUSH1 0x1 DUP7 EQ DUP1 PUSH2 0x244C JUMPI JUMPDEST PUSH2 0x2422 JUMPI JUMPDEST POP POP PUSH1 0x40 MLOAD PUSH2 0x210B DUP2 PUSH2 0x60C7 JUMP JUMPDEST CALLER DUP2 MSTORE PUSH1 0x20 DUP2 ADD PUSH1 0x0 DUP2 MSTORE PUSH2 0x21A9 PUSH1 0x40 DUP4 ADD PUSH1 0x0 DUP2 MSTORE PUSH2 0x1964 PUSH1 0x4 PUSH1 0x60 DUP7 ADD SWAP6 PUSH1 0x0 DUP8 MSTORE PUSH1 0x80 DUP2 ADD SWAP7 PUSH1 0x0 DUP9 MSTORE PUSH1 0xA0 DUP3 ADD SWAP5 PUSH1 0x1 DUP7 MSTORE PUSH1 0xC0 DUP4 ADD SWAP8 PUSH1 0x0 DUP10 MSTORE DUP13 PUSH1 0x0 MSTORE PUSH1 0x6 PUSH1 0x20 MSTORE PUSH1 0x40 PUSH1 0x0 KECCAK256 CALLER PUSH1 0x0 MSTORE PUSH1 0x20 MSTORE PUSH1 0x40 PUSH1 0x0 KECCAK256 SWAP4 PUSH1 0x1 DUP1 PUSH1 0xA0 SHL SUB SWAP1 MLOAD AND PUSH1 0x1 PUSH1 0x1 PUSH1 0x60 SHL SUB PUSH1 0xA0 SHL DUP6 SLOAD AND OR DUP5 SSTORE MLOAD PUSH1 0x1 DUP5 ADD SSTORE MLOAD PUSH1 0x2 DUP4 ADD SSTORE MLOAD PUSH1 0x3 DUP3 ADD SSTORE ADD SWAP5 MLOAD ISZERO ISZERO DUP6 SWAP1 PUSH1 0xFF DUP1 NOT DUP4 SLOAD AND SWAP2 ISZERO ISZERO AND OR SWAP1 SSTORE JUMP JUMPDEST MLOAD PUSH1 0x3 DUP2 LT ISZERO PUSH2 0x597 JUMPI PUSH2 0x21BC SWAP2 PUSH2 0x6652 JUMP JUMPDEST DUP3 PUSH1 0x0 MSTORE PUSH1 0x7 PUSH1 0x20 MSTORE PUSH2 0x21D3 CALLER PUSH1 0x40 PUSH1 0x0 KECCAK256 PUSH2 0x6A3E JUMP JUMPDEST CALLER PUSH1 0x0 MSTORE PUSH1 0x8 PUSH1 0x20 MSTORE PUSH2 0x21EA DUP4 PUSH1 0x40 PUSH1 0x0 KECCAK256 PUSH2 0x6A79 JUMP JUMPDEST PUSH2 0x21F3 DUP5 PUSH2 0x638A JUMP JUMPDEST DUP4 ISZERO DUP1 PUSH2 0x2418 JUMPI JUMPDEST PUSH2 0x22FE JUMPI JUMPDEST PUSH1 0x0 DUP1 MLOAD PUSH1 0x20 PUSH2 0x883E DUP4 CODECOPY DUP2 MLOAD SWAP2 MSTORE SWAP2 PUSH2 0x2225 PUSH1 0x40 MLOAD SWAP3 PUSH1 0x80 DUP5 MSTORE PUSH1 0x80 DUP5 ADD SWAP1 PUSH2 0x6365 JUMP JUMPDEST SWAP5 PUSH2 0x222F DUP2 PUSH2 0x638A JUMP JUMPDEST PUSH1 0x20 DUP4 ADD MSTORE PUSH1 0x0 PUSH1 0x40 DUP4 ADD MSTORE PUSH1 0x60 DUP3 ADD MSTORE DUP1 CALLER SWAP5 SUB SWAP1 LOG3 PUSH1 0x40 MLOAD PUSH2 0x2252 DUP2 PUSH2 0x60AC JUMP JUMPDEST CALLVALUE DUP2 MSTORE PUSH1 0x2 PUSH1 0x20 DUP3 ADD PUSH1 0x0 DUP2 MSTORE PUSH1 0x40 DUP4 ADD SWAP1 CALLER DUP3 MSTORE PUSH1 0x60 DUP5 ADD SWAP2 TIMESTAMP DUP4 MSTORE PUSH1 0x1 DUP7 ADD PUSH1 0x0 MSTORE PUSH1 0xB PUSH1 0x20 MSTORE PUSH1 0x40 PUSH1 0x0 KECCAK256 SWAP5 MLOAD DUP6 SSTORE PUSH2 0x22A1 PUSH1 0x1 DUP7 ADD SWAP3 MLOAD ISZERO ISZERO DUP4 SWAP1 PUSH1 0xFF DUP1 NOT DUP4 SLOAD AND SWAP2 ISZERO ISZERO AND OR SWAP1 SSTORE JUMP JUMPDEST MLOAD DUP2 SLOAD PUSH2 0x100 PUSH1 0x1 PUSH1 0xA8 SHL SUB NOT AND PUSH1 0x8 SWAP2 SWAP1 SWAP2 SHL PUSH2 0x100 PUSH1 0x1 PUSH1 0xA8 SHL SUB AND OR SWAP1 SSTORE MLOAD SWAP2 ADD SSTORE PUSH1 0x40 MLOAD CALLVALUE DUP2 MSTORE CALLER SWAP2 PUSH1 0x1 ADD SWAP1 PUSH32 0x8E6AEE01C9EDEF2CA60C96E104F6CF6C1F2509907504078CA4223716C0C869EA SWAP1 PUSH1 0x20 SWAP1 LOG3 PUSH1 0x1 DUP1 SSTORE STOP JUMPDEST PUSH1 0x40 MLOAD SWAP2 PUSH32 0x0 PUSH2 0x232C DUP5 PUSH2 0x60C7 JUMP JUMPDEST PUSH1 0x1 DUP1 PUSH1 0xA0 SHL SUB DUP2 AND DUP5 MSTORE PUSH1 0x0 PUSH1 0x20 DUP6 ADD MSTORE PUSH1 0x0 PUSH1 0x40 DUP6 ADD MSTORE PUSH1 0x0 PUSH1 0x60 DUP6 ADD MSTORE PUSH1 0x0 PUSH1 0x80 DUP6 ADD MSTORE PUSH1 0xA0 DUP5 ADD PUSH1 0x1 DUP2 MSTORE PUSH2 0x23E1 PUSH1 0xC0 DUP7 ADD SWAP2 PUSH1 0x0 DUP4 MSTORE DUP8 PUSH1 0x0 MSTORE PUSH1 0x6 PUSH1 0x20 MSTORE PUSH1 0x40 PUSH1 0x0 KECCAK256 PUSH1 0x1 DUP1 PUSH1 0xA0 SHL SUB DUP6 AND PUSH1 0x0 MSTORE PUSH1 0x20 MSTORE PUSH2 0x1B00 PUSH1 0x80 PUSH1 0x4 PUSH1 0x40 PUSH1 0x0 KECCAK256 PUSH1 0x1 DUP1 PUSH1 0xA0 SHL SUB DUP12 MLOAD AND PUSH1 0x1 PUSH1 0x1 PUSH1 0x60 SHL SUB PUSH1 0xA0 SHL DUP3 SLOAD AND OR DUP2 SSTORE PUSH1 0x20 DUP12 ADD MLOAD PUSH1 0x1 DUP3 ADD SSTORE PUSH1 0x40 DUP12 ADD MLOAD PUSH1 0x2 DUP3 ADD SSTORE PUSH1 0x60 DUP12 ADD MLOAD PUSH1 0x3 DUP3 ADD SSTORE ADD SWAP9 ADD MLOAD ISZERO ISZERO DUP9 SWAP1 PUSH1 0xFF DUP1 NOT DUP4 SLOAD AND SWAP2 ISZERO ISZERO AND OR SWAP1 SSTORE JUMP JUMPDEST MLOAD SWAP1 PUSH1 0x3 DUP3 LT ISZERO PUSH2 0x597 JUMPI PUSH2 0x1B3E PUSH2 0x2408 SWAP3 PUSH1 0x0 DUP1 MLOAD PUSH1 0x20 PUSH2 0x883E DUP4 CODECOPY DUP2 MLOAD SWAP2 MSTORE SWAP7 PUSH2 0x6652 JUMP JUMPDEST PUSH2 0x2411 DUP5 PUSH2 0x722A JUMP JUMPDEST SWAP2 POP PUSH2 0x2200 JUMP JUMPDEST POP PUSH1 0x1 DUP3 EQ PUSH2 0x21FB JUMP JUMPDEST PUSH2 0xE10 SWAP1 DUP2 DUP2 MUL SWAP2 DUP2 DUP4 DIV EQ SWAP1 ISZERO OR ISZERO PUSH2 0xDA5 JUMPI PUSH2 0x2442 PUSH1 0xB SWAP2 TIMESTAMP PUSH2 0x65B9 JUMP JUMPDEST SWAP2 ADD SSTORE DUP6 DUP1 PUSH2 0x20FD JUMP JUMPDEST POP DUP1 ISZERO ISZERO PUSH2 0x20F8 JUMP JUMPDEST PUSH2 0x2472 PUSH1 0x20 DUP1 SWAP4 DUP4 PUSH2 0x146E PUSH1 0x40 MLOAD SWAP6 DUP7 SWAP4 DUP6 DUP6 ADD SWAP9 DUP10 SWAP2 ADD PUSH2 0x6342 JUMP JUMPDEST MLOAD SWAP1 KECCAK256 PUSH1 0x13 DUP4 ADD SSTORE DUP8 DUP1 PUSH2 0x20E3 JUMP JUMPDEST SWAP1 POP DUP6 ADD MLOAD DUP11 PUSH2 0x2067 JUMP JUMPDEST SWAP2 POP PUSH1 0x1 DUP6 ADD PUSH1 0x0 MSTORE PUSH1 0x20 PUSH1 0x0 KECCAK256 PUSH1 0x0 SWAP3 JUMPDEST PUSH1 0x1F NOT DUP4 AND DUP5 LT PUSH2 0x24E1 JUMPI PUSH1 0x1 SWAP4 POP DUP3 PUSH1 0x1F NOT DUP2 AND LT PUSH2 0x24C8 JUMPI JUMPDEST POP POP DUP2 SHL ADD PUSH1 0x1 DUP5 ADD SSTORE PUSH2 0x207E JUMP JUMPDEST DUP8 ADD MLOAD PUSH1 0x0 NOT PUSH1 0xF8 DUP5 PUSH1 0x3 SHL AND SHR NOT AND SWAP1 SSTORE DUP11 DUP1 PUSH2 0x24B9 JUMP JUMPDEST DUP8 DUP2 ADD MLOAD DUP3 SSTORE PUSH1 0x20 SWAP4 DUP5 ADD SWAP4 PUSH1 0x1 SWAP1 SWAP3 ADD SWAP2 ADD PUSH2 0x249E JUMP JUMPDEST PUSH2 0x2528 SWAP1 PUSH1 0x1 DUP7 ADD PUSH1 0x0 MSTORE PUSH1 0x20 PUSH1 0x0 KECCAK256 PUSH1 0x1F DUP5 ADD PUSH1 0x5 SHR DUP2 ADD SWAP2 PUSH1 0x20 DUP6 LT PUSH2 0x1532 JUMPI PUSH1 0x1F ADD PUSH1 0x5 SHR ADD SWAP1 PUSH2 0x6D1F JUMP JUMPDEST DUP10 PUSH2 0x2050 JUMP JUMPDEST PUSH1 0x40 MLOAD PUSH3 0x461BCD PUSH1 0xE5 SHL DUP2 MSTORE PUSH1 0x20 PUSH1 0x4 DUP3 ADD MSTORE PUSH1 0x16 PUSH1 0x24 DUP3 ADD MSTORE PUSH22 0x5072697A6520706F6F6C206D757374206265203E203 PUSH1 0x54 SHL PUSH1 0x44 DUP3 ADD MSTORE PUSH1 0x64 SWAP1 REVERT JUMPDEST PUSH1 0x0 CALLDATASIZE PUSH1 0x3 NOT ADD SLT PUSH2 0x392 JUMPI PUSH2 0x2580 PUSH2 0x6C51 JUMP JUMPDEST CALLVALUE ISZERO PUSH2 0x25C7 JUMPI PUSH32 0x6632E6796459F03DD0EB041BEA9EB12E023CDA96E59A02D7F5EE12CC8344A6F4 PUSH1 0x40 PUSH2 0x25B5 CALLVALUE PUSH1 0x4 SLOAD PUSH2 0x65B9 JUMP JUMPDEST DUP1 PUSH1 0x4 SSTORE DUP2 MLOAD SWAP1 CALLVALUE DUP3 MSTORE PUSH1 0x20 DUP3 ADD MSTORE LOG1 STOP JUMPDEST PUSH1 0x40 MLOAD PUSH3 0x461BCD PUSH1 0xE5 SHL DUP2 MSTORE PUSH1 0x20 PUSH1 0x4 DUP3 ADD MSTORE PUSH1 0xC PUSH1 0x24 DUP3 ADD MSTORE PUSH12 0x135D5CDD0819195C1BDCDA5D PUSH1 0xA2 SHL PUSH1 0x44 DUP3 ADD MSTORE PUSH1 0x64 SWAP1 REVERT JUMPDEST CALLVALUE PUSH2 0x392 JUMPI PUSH1 0x20 CALLDATASIZE PUSH1 0x3 NOT ADD SLT PUSH2 0x392 JUMPI PUSH1 0x1 PUSH1 0x1 PUSH1 0xA0 SHL SUB PUSH2 0x261C PUSH2 0x6037 JUMP JUMPDEST AND PUSH1 0x0 MSTORE PUSH1 0x16 PUSH1 0x20 MSTORE PUSH1 0x20 PUSH1 0x40 PUSH1 0x0 KECCAK256 SLOAD PUSH1 0x40 MLOAD SWAP1 DUP2 MSTORE RETURN JUMPDEST CALLVALUE PUSH2 0x392 JUMPI PUSH1 0x40 CALLDATASIZE PUSH1 0x3 NOT ADD SLT PUSH2 0x392 JUMPI PUSH1 0xE0 PUSH2 0x2650 PUSH2 0x604D JUMP JUMPDEST PUSH1 0x4 CALLDATALOAD PUSH1 0x0 MSTORE PUSH1 0x6 PUSH1 0x20 MSTORE PUSH1 0x40 PUSH1 0x0 KECCAK256 PUSH1 0x1 DUP1 PUSH1 0xA0 SHL SUB DUP1 SWAP3 AND PUSH1 0x0 MSTORE PUSH1 0x20 MSTORE PUSH2 0x26D1 PUSH1 0x40 PUSH1 0x0 KECCAK256 SWAP2 DUP3 SLOAD AND SWAP2 PUSH1 0x1 DUP2 ADD SLOAD SWAP1 PUSH1 0x2 DUP2 ADD SLOAD PUSH1 0x4 PUSH1 0x3 DUP4 ADD SLOAD SWAP3 ADD SLOAD SWAP3 PUSH1 0x40 MLOAD SWAP6 DUP7 MSTORE PUSH1 0x20 DUP7 ADD MSTORE PUSH1 0x40 DUP6 ADD MSTORE PUSH1 0x60 DUP5 ADD MSTORE PUSH1 0xFF DUP2 AND ISZERO ISZERO PUSH1 0x80 DUP5 ADD MSTORE PUSH1 0xFF DUP2 PUSH1 0x8 SHR AND ISZERO ISZERO PUSH1 0xA0 DUP5 ADD MSTORE PUSH1 0xFF PUSH1 0xC0 DUP5 ADD SWAP2 PUSH1 0x10 SHR AND PUSH2 0x6421 JUMP JUMPDEST RETURN JUMPDEST CALLVALUE PUSH2 0x392 JUMPI PUSH1 0x20 CALLDATASIZE PUSH1 0x3 NOT ADD SLT PUSH2 0x392 JUMPI PUSH1 0x4 CALLDATALOAD PUSH1 0x0 MSTORE PUSH1 0xF PUSH1 0x20 MSTORE PUSH1 0x20 PUSH1 0x40 PUSH1 0x0 KECCAK256 SLOAD PUSH1 0x40 MLOAD SWAP1 DUP2 MSTORE RETURN JUMPDEST CALLVALUE PUSH2 0x392 JUMPI PUSH1 0x0 CALLDATASIZE PUSH1 0x3 NOT ADD SLT PUSH2 0x392 JUMPI PUSH1 0x20 PUSH1 0x10 SLOAD PUSH1 0x40 MLOAD SWAP1 DUP2 MSTORE RETURN JUMPDEST CALLVALUE PUSH2 0x392 JUMPI PUSH2 0xA89 PUSH2 0x272E CALLDATASIZE PUSH2 0x6208 JUMP JUMPDEST SWAP4 PUSH2 0x273A SWAP4 SWAP2 SWAP4 PUSH2 0x6CFC JUMP JUMPDEST PUSH1 0x1 DUP4 LT ISZERO DUP1 PUSH2 0x276D JUMPI JUMPDEST PUSH2 0x274E SWAP1 PUSH2 0x6B2B JUMP JUMPDEST PUSH2 0x2757 DUP3 PUSH2 0x638A JUMP JUMPDEST DUP2 PUSH2 0x6D36 JUMPI PUSH2 0x2768 PUSH1 0x1 DUP5 EQ PUSH2 0x6B6E JUMP JUMPDEST PUSH2 0x6D36 JUMP JUMPDEST POP PUSH1 0x5 DUP4 GT ISZERO PUSH2 0x2745 JUMP JUMPDEST CALLVALUE PUSH2 0x392 JUMPI PUSH1 0x20 DUP1 PUSH1 0x3 NOT CALLDATASIZE ADD SLT PUSH2 0x392 JUMPI PUSH1 0x4 CALLDATALOAD PUSH2 0x2795 PUSH2 0x6CFC JUMP JUMPDEST DUP1 PUSH1 0x0 MSTORE PUSH1 0x5 DUP3 MSTORE PUSH1 0x40 PUSH1 0x0 KECCAK256 PUSH1 0x6 DUP4 MSTORE PUSH1 0x40 PUSH1 0x0 KECCAK256 CALLER PUSH1 0x0 MSTORE DUP4 MSTORE PUSH2 0x27C8 PUSH1 0xFF PUSH1 0x4 PUSH1 0x40 PUSH1 0x0 KECCAK256 ADD SLOAD PUSH1 0x8 SHR AND PUSH2 0x66F9 JUMP JUMPDEST DUP2 PUSH1 0x0 MSTORE PUSH1 0x6 DUP4 MSTORE PUSH1 0x40 PUSH1 0x0 KECCAK256 CALLER PUSH1 0x0 MSTORE DUP4 MSTORE PUSH2 0x27F0 PUSH1 0xFF PUSH1 0x4 PUSH1 0x40 PUSH1 0x0 KECCAK256 ADD SLOAD AND ISZERO PUSH2 0x65C6 JUMP JUMPDEST CALLER PUSH1 0x0 MSTORE PUSH1 0x16 DUP4 MSTORE PUSH1 0x40 PUSH1 0x0 KECCAK256 SLOAD PUSH2 0xE10 DUP2 ADD DUP1 SWAP2 GT PUSH2 0xDA5 JUMPI TIMESTAMP GT ISZERO PUSH2 0x29B1 JUMPI PUSH1 0x0 SWAP3 PUSH1 0xFF PUSH1 0x12 DUP4 ADD SLOAD AND ISZERO PUSH1 0x0 EQ PUSH2 0x291E JUMPI PUSH1 0x5A SWAP2 PUSH1 0x1 PUSH1 0xFF PUSH1 0x2 DUP4 ADD SLOAD PUSH1 0xB0 SHR AND PUSH2 0x283D DUP2 PUSH2 0x638A JUMP JUMPDEST EQ DUP1 PUSH2 0x2911 JUMPI JUMPDEST PUSH2 0x28D6 JUMPI JUMPDEST PUSH1 0x6 SWAP1 JUMPDEST DUP5 PUSH1 0x0 MSTORE DUP2 DUP4 MSTORE PUSH1 0x40 PUSH1 0x0 KECCAK256 CALLER PUSH1 0x0 MSTORE DUP4 MSTORE PUSH1 0x4 PUSH1 0x40 PUSH1 0x0 KECCAK256 ADD PUSH2 0xFF00 NOT DUP2 SLOAD AND SWAP1 SSTORE ADD PUSH2 0x287B DUP2 SLOAD PUSH2 0x6B1E JUMP JUMPDEST SWAP1 SSTORE CALLER PUSH1 0x0 MSTORE PUSH1 0x16 DUP2 MSTORE TIMESTAMP PUSH1 0x40 PUSH1 0x0 KECCAK256 SSTORE PUSH1 0x17 DUP2 MSTORE PUSH1 0x40 PUSH1 0x0 KECCAK256 PUSH2 0x289F DUP2 SLOAD PUSH2 0x6518 JUMP JUMPDEST SWAP1 SSTORE PUSH1 0x40 MLOAD SWAP4 DUP5 MSTORE DUP4 ADD MSTORE PUSH32 0x258E7558FCDC96887E3834F2ED5FD393FC6DCAD095796E4FC2DD78B6482F1375 PUSH1 0x40 CALLER SWAP4 LOG3 PUSH1 0x1 DUP1 SSTORE STOP JUMPDEST SWAP4 POP PUSH1 0x3 DUP5 ADD SLOAD DUP3 DUP2 MUL SWAP1 DUP1 DUP3 DIV DUP5 EQ SWAP1 ISZERO OR ISZERO PUSH2 0xDA5 JUMPI PUSH1 0x64 PUSH1 0x6 SWAP2 DIV SWAP5 DUP6 PUSH2 0x2902 JUMPI JUMPDEST SWAP1 POP PUSH2 0x2849 JUMP JUMPDEST PUSH2 0x290C DUP7 CALLER PUSH2 0x6C7D JUMP JUMPDEST PUSH2 0x28FB JUMP JUMPDEST POP PUSH1 0x3 DUP2 ADD SLOAD ISZERO ISZERO PUSH2 0x2844 JUMP JUMPDEST PUSH1 0x32 SWAP2 PUSH1 0x1 PUSH1 0xFF PUSH1 0x2 DUP4 ADD SLOAD PUSH1 0xB0 SHR AND PUSH2 0x2937 DUP2 PUSH2 0x638A JUMP JUMPDEST EQ DUP1 PUSH2 0x29A4 JUMPI JUMPDEST PUSH2 0x294B JUMPI JUMPDEST PUSH1 0x6 SWAP1 PUSH2 0x284D JUMP JUMPDEST SWAP4 POP PUSH1 0x3 DUP5 ADD SWAP4 DUP5 SLOAD SWAP1 DUP4 DUP3 MUL SWAP2 DUP1 DUP4 DIV DUP6 EQ SWAP1 ISZERO OR ISZERO PUSH2 0xDA5 JUMPI PUSH2 0x297D PUSH1 0x64 PUSH1 0x6 SWAP4 DIV DUP1 SWAP8 DUP2 PUSH2 0x2995 JUMPI JUMPDEST SLOAD PUSH2 0x6471 JUMP JUMPDEST PUSH2 0x298C PUSH1 0x4 DUP4 ADD SWAP2 DUP3 SLOAD PUSH2 0x65B9 JUMP JUMPDEST SWAP1 SSTORE SWAP1 POP PUSH2 0x2943 JUMP JUMPDEST PUSH2 0x299F DUP3 CALLER PUSH2 0x6C7D JUMP JUMPDEST PUSH2 0x2977 JUMP JUMPDEST POP PUSH1 0x3 DUP2 ADD SLOAD ISZERO ISZERO PUSH2 0x293E JUMP JUMPDEST PUSH1 0x40 MLOAD PUSH3 0x461BCD PUSH1 0xE5 SHL DUP2 MSTORE PUSH1 0x4 DUP2 ADD DUP5 SWAP1 MSTORE PUSH1 0x19 PUSH1 0x24 DUP3 ADD MSTORE PUSH32 0x52616765207175697420636F6F6C646F776E2061637469766500000000000000 PUSH1 0x44 DUP3 ADD MSTORE PUSH1 0x64 SWAP1 REVERT JUMPDEST PUSH2 0x63D5 JUMP JUMPDEST CALLVALUE PUSH2 0x392 JUMPI PUSH1 0x20 CALLDATASIZE PUSH1 0x3 NOT ADD SLT PUSH2 0x392 JUMPI PUSH1 0x0 PUSH2 0x2C0 PUSH1 0x40 MLOAD PUSH2 0x2A1D DUP2 PUSH2 0x60E2 JUMP JUMPDEST DUP3 DUP2 MSTORE PUSH1 0x60 PUSH1 0x20 DUP3 ADD MSTORE DUP3 PUSH1 0x40 DUP3 ADD MSTORE DUP3 PUSH1 0x60 DUP3 ADD MSTORE DUP3 PUSH1 0x80 DUP3 ADD MSTORE DUP3 PUSH1 0xA0 DUP3 ADD MSTORE DUP3 PUSH1 0xC0 DUP3 ADD MSTORE DUP3 PUSH1 0xE0 DUP3 ADD MSTORE DUP3 PUSH2 0x100 DUP3 ADD MSTORE DUP3 PUSH2 0x120 DUP3 ADD MSTORE DUP3 PUSH2 0x140 DUP3 ADD MSTORE DUP3 PUSH2 0x160 DUP3 ADD MSTORE DUP3 PUSH2 0x180 DUP3 ADD MSTORE DUP3 PUSH2 0x1A0 DUP3 ADD MSTORE DUP3 PUSH2 0x1C0 DUP3 ADD MSTORE DUP3 PUSH2 0x1E0 DUP3 ADD MSTORE DUP3 PUSH2 0x200 DUP3 ADD MSTORE DUP3 PUSH2 0x220 DUP3 ADD MSTORE DUP3 PUSH2 0x240 DUP3 ADD MSTORE DUP3 PUSH2 0x260 DUP3 ADD MSTORE PUSH1 0x60 PUSH2 0x280 DUP3 ADD MSTORE DUP3 PUSH2 0x2A0 DUP3 ADD MSTORE ADD MSTORE PUSH1 0x4 CALLDATALOAD PUSH1 0x0 MSTORE PUSH1 0x5 PUSH1 0x20 MSTORE PUSH1 0x40 PUSH1 0x0 KECCAK256 PUSH1 0x40 MLOAD SWAP1 PUSH2 0x2ACD DUP3 PUSH2 0x60E2 JUMP JUMPDEST DUP1 SLOAD DUP3 MSTORE PUSH2 0x2ADD PUSH1 0x1 DUP3 ADD PUSH2 0x629D JUMP JUMPDEST PUSH1 0x20 DUP4 ADD MSTORE PUSH1 0x2 DUP2 ADD SLOAD PUSH1 0x1 PUSH1 0x1 PUSH1 0xA0 SHL SUB DUP2 AND PUSH1 0x40 DUP5 ADD MSTORE SWAP1 PUSH1 0xA0 DUP3 SWAP1 SHR PUSH1 0xFF AND PUSH2 0x2B08 DUP2 PUSH2 0x638A JUMP JUMPDEST PUSH1 0x60 DUP5 ADD MSTORE PUSH1 0x6 PUSH1 0xFF DUP4 PUSH1 0xA8 SHR AND LT ISZERO PUSH2 0x597 JUMPI PUSH1 0xFF DUP3 DUP2 PUSH1 0x13 SWAP5 PUSH1 0xA8 SHR AND PUSH1 0x80 DUP7 ADD MSTORE PUSH2 0x2B3A DUP3 DUP3 PUSH1 0xB0 SHR AND PUSH2 0x638A JUMP JUMPDEST PUSH1 0xB0 SHR AND PUSH1 0xA0 DUP5 ADD MSTORE PUSH1 0x3 DUP2 ADD SLOAD PUSH1 0xC0 DUP5 ADD MSTORE PUSH1 0x4 DUP2 ADD SLOAD PUSH1 0xE0 DUP5 ADD MSTORE PUSH1 0x5 DUP2 ADD SLOAD PUSH2 0x100 DUP5 ADD MSTORE PUSH1 0x6 DUP2 ADD SLOAD PUSH2 0x120 DUP5 ADD MSTORE PUSH1 0x7 DUP2 ADD SLOAD PUSH2 0x140 DUP5 ADD MSTORE PUSH1 0x8 DUP2 ADD SLOAD PUSH2 0x160 DUP5 ADD MSTORE PUSH1 0x9 DUP2 ADD SLOAD PUSH2 0x180 DUP5 ADD MSTORE PUSH1 0xA DUP2 ADD SLOAD PUSH2 0x1A0 DUP5 ADD MSTORE PUSH1 0xB DUP2 ADD SLOAD PUSH2 0x1C0 DUP5 ADD MSTORE PUSH1 0xC DUP2 ADD SLOAD PUSH1 0x1 PUSH1 0x1 PUSH1 0xA0 SHL SUB AND PUSH2 0x1E0 DUP5 ADD MSTORE PUSH1 0xD DUP2 ADD SLOAD PUSH2 0x200 DUP5 ADD MSTORE PUSH1 0xE DUP2 ADD SLOAD PUSH2 0x220 DUP5 ADD MSTORE PUSH1 0xF DUP2 ADD SLOAD PUSH2 0x240 DUP5 ADD MSTORE PUSH1 0x10 DUP2 ADD SLOAD PUSH2 0x260 DUP5 ADD MSTORE PUSH2 0x2BF0 PUSH1 0x11 DUP3 ADD PUSH2 0x647E JUMP JUMPDEST PUSH2 0x280 DUP5 ADD MSTORE PUSH1 0xFF PUSH1 0x12 DUP3 ADD SLOAD AND ISZERO ISZERO PUSH2 0x2A0 DUP5 ADD MSTORE ADD SLOAD PUSH2 0x2C0 DUP3 ADD MSTORE PUSH1 0x40 MLOAD DUP1 SWAP2 PUSH1 0x20 DUP3 MSTORE DUP1 MLOAD PUSH1 0x20 DUP4 ADD MSTORE PUSH2 0x2C0 PUSH2 0x2D51 PUSH2 0x2C3F PUSH1 0x20 DUP5 ADD MLOAD PUSH2 0x2E0 PUSH1 0x40 DUP8 ADD MSTORE PUSH2 0x300 DUP7 ADD SWAP1 PUSH2 0x6365 JUMP JUMPDEST PUSH1 0x40 DUP5 ADD MLOAD PUSH1 0x1 PUSH1 0x1 PUSH1 0xA0 SHL SUB AND PUSH1 0x60 DUP7 DUP2 ADD SWAP2 SWAP1 SWAP2 MSTORE DUP5 ADD MLOAD PUSH2 0x2C62 DUP2 PUSH2 0x638A JUMP JUMPDEST PUSH1 0x80 DUP7 ADD MSTORE PUSH2 0x2C79 PUSH1 0x80 DUP6 ADD MLOAD PUSH1 0xA0 DUP8 ADD SWAP1 PUSH2 0x6394 JUMP JUMPDEST PUSH1 0xA0 DUP5 ADD MLOAD PUSH2 0x2C87 DUP2 PUSH2 0x638A JUMP JUMPDEST PUSH1 0xC0 DUP7 ADD MSTORE PUSH1 0xC0 DUP5 ADD MLOAD PUSH1 0xE0 DUP7 ADD MSTORE PUSH1 0xE0 DUP5 ADD MLOAD PUSH2 0x100 DUP7 ADD MSTORE PUSH2 0x100 DUP5 ADD MLOAD PUSH2 0x120 DUP7 ADD MSTORE PUSH2 0x120 DUP5 ADD MLOAD PUSH2 0x140 DUP7 ADD MSTORE PUSH2 0x140 DUP5 ADD MLOAD PUSH2 0x160 DUP7 ADD MSTORE PUSH2 0x160 DUP5 ADD MLOAD PUSH2 0x180 DUP7 ADD MSTORE PUSH2 0x180 DUP5 ADD MLOAD PUSH2 0x1A0 DUP7 ADD MSTORE PUSH2 0x1A0 DUP5 ADD MLOAD PUSH2 0x1C0 DUP7 ADD MSTORE PUSH2 0x1C0 DUP5 ADD MLOAD PUSH2 0x1E0 DUP7 ADD MSTORE PUSH1 0x1 DUP1 PUSH1 0xA0 SHL SUB PUSH2 0x1E0 DUP6 ADD MLOAD AND PUSH2 0x200 DUP7 ADD MSTORE PUSH2 0x200 DUP5 ADD MLOAD PUSH2 0x220 DUP7 ADD MSTORE PUSH2 0x220 DUP5 ADD MLOAD PUSH2 0x240 DUP7 ADD MSTORE PUSH2 0x240 DUP5 ADD MLOAD PUSH2 0x260 DUP7 ADD MSTORE PUSH2 0x260 DUP5 ADD MLOAD PUSH2 0x280 DUP7 ADD MSTORE PUSH2 0x280 DUP5 ADD MLOAD PUSH1 0x1F NOT DUP7 DUP4 SUB ADD PUSH2 0x2A0 DUP8 ADD MSTORE PUSH2 0x63A1 JUMP JUMPDEST SWAP2 PUSH2 0x2A0 DUP2 ADD MLOAD ISZERO ISZERO DUP3 DUP6 ADD MSTORE ADD MLOAD PUSH2 0x2E0 DUP4 ADD MSTORE SUB SWAP1 RETURN JUMPDEST CALLVALUE PUSH2 0x392 JUMPI PUSH2 0x2D78 CALLDATASIZE PUSH2 0x63F1 JUMP JUMPDEST DUP3 PUSH1 0x0 SWAP4 SWAP3 SWAP4 MSTORE PUSH1 0x20 PUSH1 0x5 DUP2 MSTORE PUSH1 0x40 PUSH1 0x0 KECCAK256 PUSH1 0x6 DUP3 MSTORE PUSH1 0x40 PUSH1 0x0 KECCAK256 CALLER PUSH1 0x0 MSTORE DUP3 MSTORE PUSH1 0x40 PUSH1 0x0 KECCAK256 SWAP1 PUSH1 0xFF PUSH1 0x2 DUP3 ADD SLOAD PUSH1 0xA8 SHR AND SWAP2 PUSH1 0x6 DUP4 LT ISZERO PUSH2 0x597 JUMPI PUSH2 0x2DCB PUSH1 0xFF PUSH1 0x12 PUSH1 0x4 SWAP5 PUSH2 0x3F9 PUSH1 0x2 DUP5 SWAP9 EQ PUSH2 0x6796 JUMP JUMPDEST ADD SLOAD PUSH2 0x2DDB DUP3 DUP3 PUSH1 0x8 SHR AND PUSH2 0x66F9 JUMP JUMPDEST PUSH1 0x10 SHR AND SWAP2 PUSH1 0x3 DUP4 LT ISZERO PUSH2 0x597 JUMPI PUSH2 0x2E04 PUSH1 0x1 PUSH1 0x0 DUP1 MLOAD PUSH1 0x20 PUSH2 0x885E DUP4 CODECOPY DUP2 MLOAD SWAP2 MSTORE SWAP5 EQ PUSH2 0x6AAE JUMP JUMPDEST DUP4 PUSH1 0x0 MSTORE PUSH1 0xD DUP3 MSTORE PUSH1 0x40 PUSH1 0x0 KECCAK256 CALLER PUSH1 0x0 MSTORE DUP3 MSTORE PUSH2 0x2E2C PUSH1 0xFF PUSH1 0x1 PUSH1 0x40 PUSH1 0x0 KECCAK256 ADD SLOAD AND ISZERO PUSH2 0x68B4 JUMP JUMPDEST PUSH1 0x40 MLOAD DUP3 DUP2 ADD SWAP2 DUP7 DUP4 MSTORE PUSH1 0x40 DUP3 ADD MSTORE PUSH1 0x40 DUP2 MSTORE PUSH2 0x2E48 DUP2 PUSH2 0x6119 JUMP JUMPDEST MLOAD SWAP1 KECCAK256 PUSH1 0x40 MLOAD PUSH2 0x2E57 DUP2 PUSH2 0x60AC JUMP JUMPDEST DUP2 DUP2 MSTORE PUSH1 0x2 DUP4 DUP3 ADD PUSH1 0x1 DUP2 MSTORE PUSH2 0x2EC7 PUSH1 0x40 DUP5 ADD SWAP2 PUSH1 0x1 DUP4 MSTORE PUSH1 0x60 DUP6 ADD SWAP3 TIMESTAMP DUP5 MSTORE DUP10 PUSH1 0x0 MSTORE PUSH1 0xD DUP9 MSTORE PUSH1 0x40 PUSH1 0x0 KECCAK256 CALLER PUSH1 0x0 MSTORE DUP9 MSTORE PUSH1 0x40 PUSH1 0x0 KECCAK256 SWAP6 MLOAD DUP7 SSTORE PUSH2 0x2EB0 PUSH1 0x1 DUP8 ADD SWAP3 MLOAD ISZERO ISZERO DUP4 SWAP1 PUSH1 0xFF DUP1 NOT DUP4 SLOAD AND SWAP2 ISZERO ISZERO AND OR SWAP1 SSTORE JUMP JUMPDEST MLOAD DUP2 SLOAD PUSH2 0xFF00 NOT AND SWAP1 ISZERO ISZERO PUSH1 0x8 SHL PUSH2 0xFF00 AND OR SWAP1 SSTORE JUMP JUMPDEST MLOAD SWAP2 ADD SSTORE PUSH1 0x40 MLOAD SWAP1 DUP2 MSTORE DUP4 PUSH1 0x0 DUP1 MLOAD PUSH1 0x20 PUSH2 0x887E DUP4 CODECOPY DUP2 MLOAD SWAP2 MSTORE DUP4 CALLER SWAP4 LOG3 PUSH1 0x40 MLOAD SWAP4 DUP5 MSTORE CALLER SWAP4 LOG3 STOP JUMPDEST CALLVALUE PUSH2 0x392 JUMPI PUSH1 0x20 CALLDATASIZE PUSH1 0x3 NOT ADD SLT PUSH2 0x392 JUMPI PUSH1 0x4 CALLDATALOAD PUSH2 0x2F0C PUSH2 0x6CFC JUMP JUMPDEST PUSH32 0x0 PUSH1 0x1 PUSH1 0x1 PUSH1 0xA0 SHL SUB AND CALLER DUP2 SWAP1 SUB PUSH2 0x3008 JUMPI DUP2 PUSH1 0x0 MSTORE PUSH1 0x9 PUSH1 0x20 MSTORE PUSH1 0x40 PUSH1 0x0 KECCAK256 SLOAD SWAP2 DUP3 ISZERO PUSH2 0x2FCE JUMPI PUSH1 0x60 PUSH1 0x24 SWAP3 PUSH1 0x40 MLOAD SWAP4 DUP5 DUP1 SWAP3 PUSH4 0x2D8CA01 PUSH1 0xE1 SHL DUP3 MSTORE DUP6 PUSH1 0x4 DUP4 ADD MSTORE GAS STATICCALL SWAP3 DUP4 ISZERO PUSH2 0x15FA JUMPI PUSH2 0xA89 SWAP4 PUSH1 0x0 SWAP4 PUSH1 0x0 SWAP2 PUSH2 0x2F97 JUMPI JUMPDEST POP PUSH2 0x2F92 SWAP1 PUSH2 0x653B JUMP JUMPDEST PUSH2 0x7731 JUMP JUMPDEST PUSH2 0x2F92 SWAP5 POP PUSH2 0x2FBE SWAP2 POP PUSH1 0x60 RETURNDATASIZE PUSH1 0x60 GT PUSH2 0x2FC7 JUMPI JUMPDEST PUSH2 0x2FB6 DUP2 DUP4 PUSH2 0x6150 JUMP JUMPDEST DUP2 ADD SWAP1 PUSH2 0x6AFA JUMP JUMPDEST SWAP2 SWAP5 SWAP1 POP PUSH2 0x2F88 JUMP JUMPDEST POP RETURNDATASIZE PUSH2 0x2FAC JUMP JUMPDEST PUSH1 0x40 MLOAD PUSH3 0x461BCD PUSH1 0xE5 SHL DUP2 MSTORE PUSH1 0x20 PUSH1 0x4 DUP3 ADD MSTORE PUSH1 0x12 PUSH1 0x24 DUP3 ADD MSTORE PUSH18 0x125B9D985B1A59081C995C5D595CDD081251 PUSH1 0x72 SHL PUSH1 0x44 DUP3 ADD MSTORE PUSH1 0x64 SWAP1 REVERT JUMPDEST PUSH1 0x40 MLOAD PUSH3 0x461BCD PUSH1 0xE5 SHL DUP2 MSTORE PUSH1 0x20 PUSH1 0x4 DUP3 ADD MSTORE PUSH1 0x19 PUSH1 0x24 DUP3 ADD MSTORE PUSH32 0x4F6E6C792050797468205652462063616E2066756C66696C6C00000000000000 PUSH1 0x44 DUP3 ADD MSTORE PUSH1 0x64 SWAP1 REVERT JUMPDEST CALLVALUE PUSH2 0x392 JUMPI PUSH1 0x0 CALLDATASIZE PUSH1 0x3 NOT ADD SLT PUSH2 0x392 JUMPI PUSH1 0x0 SLOAD PUSH1 0x40 MLOAD PUSH1 0x1 PUSH1 0x1 PUSH1 0xA0 SHL SUB SWAP1 SWAP2 AND DUP2 MSTORE PUSH1 0x20 SWAP1 RETURN JUMPDEST CALLVALUE PUSH2 0x392 JUMPI PUSH1 0x40 CALLDATASIZE PUSH1 0x3 NOT ADD SLT PUSH2 0x392 JUMPI PUSH2 0x308F PUSH2 0x604D JUMP JUMPDEST PUSH1 0x4 CALLDATALOAD PUSH1 0x0 MSTORE PUSH1 0xD PUSH1 0x20 MSTORE PUSH1 0x40 PUSH1 0x0 KECCAK256 SWAP1 PUSH1 0x1 DUP1 PUSH1 0xA0 SHL SUB AND PUSH1 0x0 MSTORE PUSH1 0x20 MSTORE PUSH1 0x80 PUSH1 0x40 PUSH1 0x0 KECCAK256 DUP1 SLOAD SWAP1 PUSH1 0xFF PUSH1 0x2 PUSH1 0x1 DUP4 ADD SLOAD SWAP3 ADD SLOAD SWAP2 PUSH1 0x40 MLOAD SWAP4 DUP5 MSTORE DUP2 DUP2 AND ISZERO ISZERO PUSH1 0x20 DUP6 ADD MSTORE PUSH1 0x8 SHR AND ISZERO ISZERO PUSH1 0x40 DUP4 ADD MSTORE PUSH1 0x60 DUP3 ADD MSTORE RETURN JUMPDEST CALLVALUE PUSH2 0x392 JUMPI PUSH1 0x0 CALLDATASIZE PUSH1 0x3 NOT ADD SLT PUSH2 0x392 JUMPI PUSH1 0x20 PUSH1 0x40 MLOAD PUSH1 0x1 DUP2 MSTORE RETURN JUMPDEST CALLVALUE PUSH2 0x392 JUMPI PUSH1 0x20 CALLDATASIZE PUSH1 0x3 NOT ADD SLT PUSH2 0x392 JUMPI PUSH1 0x4 CALLDATALOAD PUSH1 0x0 MSTORE PUSH1 0xE PUSH1 0x20 MSTORE PUSH1 0x20 PUSH1 0x40 PUSH1 0x0 KECCAK256 SLOAD PUSH1 0x40 MLOAD SWAP1 DUP2 MSTORE RETURN JUMPDEST CALLVALUE PUSH2 0x392 JUMPI PUSH1 0x20 CALLDATASIZE PUSH1 0x3 NOT ADD SLT PUSH2 0x392 JUMPI PUSH1 0x4 CALLDATALOAD PUSH2 0x314B PUSH2 0x6C51 JUMP JUMPDEST DUP1 PUSH1 0x0 MSTORE PUSH1 0x5 PUSH1 0x20 MSTORE PUSH1 0x40 PUSH1 0x0 KECCAK256 SWAP1 PUSH1 0x2 DUP3 ADD DUP1 SLOAD SWAP3 PUSH1 0xFF DUP5 PUSH1 0xA8 SHR AND PUSH1 0x6 DUP2 LT ISZERO PUSH2 0x597 JUMPI PUSH1 0x1 SUB PUSH2 0x325D JUMPI PUSH1 0x9 DUP2 ADD SLOAD PUSH2 0x5460 DUP2 ADD DUP1 SWAP2 GT PUSH2 0xDA5 JUMPI TIMESTAMP LT PUSH2 0x3218 JUMPI PUSH1 0x12 ADD SLOAD PUSH1 0xFF AND PUSH2 0x31DB JUMPI PUSH1 0xFF PUSH1 0xA8 SHL NOT SWAP1 SWAP3 AND PUSH1 0x5 PUSH1 0xA8 SHL OR SWAP1 SWAP2 SSTORE PUSH2 0x1F09 SWAP1 DUP1 PUSH32 0x6735B98D5D75EB6A72FF7CBD805FC91D5EE18E1B5D11043B0E649B6F22C9CAB8 PUSH1 0x0 DUP1 LOG2 PUSH2 0x768D JUMP JUMPDEST PUSH1 0x40 MLOAD PUSH3 0x461BCD PUSH1 0xE5 SHL DUP2 MSTORE PUSH1 0x20 PUSH1 0x4 DUP3 ADD MSTORE PUSH1 0x15 PUSH1 0x24 DUP3 ADD MSTORE PUSH21 0x15949188185B1C9958591E48199D5B199A5B1B1959 PUSH1 0x5A SHL PUSH1 0x44 DUP3 ADD MSTORE PUSH1 0x64 SWAP1 REVERT JUMPDEST PUSH1 0x40 MLOAD PUSH3 0x461BCD PUSH1 0xE5 SHL DUP2 MSTORE PUSH1 0x20 PUSH1 0x4 DUP3 ADD MSTORE PUSH1 0x17 PUSH1 0x24 DUP3 ADD MSTORE PUSH32 0x5652462074696D656F7574206E6F742072656163686564000000000000000000 PUSH1 0x44 DUP3 ADD MSTORE PUSH1 0x64 SWAP1 REVERT JUMPDEST PUSH1 0x40 MLOAD PUSH3 0x461BCD PUSH1 0xE5 SHL DUP2 MSTORE PUSH1 0x20 PUSH1 0x4 DUP3 ADD MSTORE PUSH1 0x14 PUSH1 0x24 DUP3 ADD MSTORE PUSH20 0x13DB9B1E48199BDC88159491881D1A5B595BDD5D PUSH1 0x62 SHL PUSH1 0x44 DUP3 ADD MSTORE PUSH1 0x64 SWAP1 REVERT JUMPDEST CALLVALUE PUSH2 0x392 JUMPI PUSH1 0x40 CALLDATASIZE PUSH1 0x3 NOT ADD SLT PUSH2 0x392 JUMPI PUSH1 0x4 CALLDATALOAD PUSH1 0x24 CALLDATALOAD SWAP1 DUP1 PUSH1 0x0 MSTORE PUSH1 0x20 PUSH1 0x5 DUP2 MSTORE PUSH1 0x40 PUSH1 0x0 KECCAK256 PUSH1 0x6 DUP3 MSTORE PUSH1 0x40 PUSH1 0x0 KECCAK256 CALLER PUSH1 0x0 MSTORE DUP3 MSTORE PUSH1 0x40 PUSH1 0x0 KECCAK256 SWAP1 PUSH1 0xFF PUSH1 0x2 DUP3 ADD SLOAD PUSH1 0xA8 SHR AND SWAP2 PUSH1 0x6 DUP4 LT ISZERO PUSH2 0x597 JUMPI PUSH2 0x3301 PUSH1 0xFF PUSH1 0x12 PUSH1 0x4 SWAP5 PUSH2 0x3F9 PUSH1 0x2 DUP5 SWAP9 EQ PUSH2 0x6796 JUMP JUMPDEST ADD SLOAD PUSH2 0x3311 DUP3 DUP3 PUSH1 0x8 SHR AND PUSH2 0x66F9 JUMP JUMPDEST PUSH1 0x10 SHR AND SWAP1 PUSH1 0x3 DUP3 LT ISZERO PUSH2 0x597 JUMPI PUSH2 0x333A PUSH1 0x1 PUSH1 0x0 DUP1 MLOAD PUSH1 0x20 PUSH2 0x887E DUP4 CODECOPY DUP2 MLOAD SWAP2 MSTORE SWAP4 EQ PUSH2 0x6AAE JUMP JUMPDEST DUP3 PUSH1 0x0 MSTORE PUSH1 0xD DUP2 MSTORE PUSH1 0x40 PUSH1 0x0 KECCAK256 CALLER PUSH1 0x0 MSTORE DUP2 MSTORE PUSH2 0x3362 PUSH1 0xFF PUSH1 0x1 PUSH1 0x40 PUSH1 0x0 KECCAK256 ADD SLOAD AND ISZERO PUSH2 0x68B4 JUMP JUMPDEST PUSH1 0x40 MLOAD PUSH2 0x336E DUP2 PUSH2 0x60AC JUMP JUMPDEST DUP5 DUP2 MSTORE PUSH1 0x2 DUP3 DUP3 ADD PUSH1 0x1 DUP2 MSTORE PUSH2 0x33C7 PUSH1 0x40 DUP5 ADD SWAP2 PUSH1 0x0 DUP4 MSTORE PUSH1 0x60 DUP6 ADD SWAP3 TIMESTAMP DUP5 MSTORE DUP9 PUSH1 0x0 MSTORE PUSH1 0xD DUP8 MSTORE PUSH1 0x40 PUSH1 0x0 KECCAK256 CALLER PUSH1 0x0 MSTORE DUP8 MSTORE PUSH1 0x40 PUSH1 0x0 KECCAK256 SWAP6 MLOAD DUP7 SSTORE PUSH2 0x2EB0 PUSH1 0x1 DUP8 ADD SWAP3 MLOAD ISZERO ISZERO DUP4 SWAP1 PUSH1 0xFF DUP1 NOT DUP4 SLOAD AND SWAP2 ISZERO ISZERO AND OR SWAP1 SSTORE JUMP JUMPDEST MLOAD SWAP2 ADD SSTORE PUSH1 0x40 MLOAD SWAP4 DUP5 MSTORE CALLER SWAP4 LOG3 STOP JUMPDEST CALLVALUE PUSH2 0x392 JUMPI PUSH1 0x0 CALLDATASIZE PUSH1 0x3 NOT ADD SLT PUSH2 0x392 JUMPI PUSH1 0x40 MLOAD PUSH32 0x0 PUSH1 0x1 PUSH1 0x1 PUSH1 0xA0 SHL SUB AND DUP2 MSTORE PUSH1 0x20 SWAP1 RETURN JUMPDEST CALLVALUE PUSH2 0x392 JUMPI PUSH1 0x20 CALLDATASIZE PUSH1 0x3 NOT ADD SLT PUSH2 0x392 JUMPI PUSH1 0x1 PUSH1 0x1 PUSH1 0xA0 SHL SUB PUSH2 0x343C PUSH2 0x6037 JUMP JUMPDEST AND PUSH1 0x0 MSTORE PUSH1 0x14 PUSH1 0x20 MSTORE PUSH1 0x20 PUSH1 0x40 PUSH1 0x0 KECCAK256 SLOAD PUSH1 0x40 MLOAD SWAP1 DUP2 MSTORE RETURN JUMPDEST CALLVALUE PUSH2 0x392 JUMPI PUSH1 0x0 CALLDATASIZE PUSH1 0x3 NOT ADD SLT PUSH2 0x392 JUMPI PUSH2 0x346E PUSH2 0x6C51 JUMP JUMPDEST PUSH1 0x0 DUP1 SLOAD PUSH1 0x1 PUSH1 0x1 PUSH1 0xA0 SHL SUB NOT DUP2 AND DUP3 SSTORE PUSH1 0x1 PUSH1 0x1 PUSH1 0xA0 SHL SUB AND PUSH32 0x8BE0079C531659141344CD1FD0A4F28419497F9722A3DAAFE3B4186F6B6457E0 DUP3 DUP1 LOG3 STOP JUMPDEST PUSH1 0x20 CALLDATASIZE PUSH1 0x3 NOT ADD SLT PUSH2 0x392 JUMPI PUSH1 0x4 CALLDATALOAD PUSH2 0x34C5 PUSH2 0x6CFC JUMP JUMPDEST DUP1 PUSH1 0x0 MSTORE PUSH1 0x5 PUSH1 0x20 MSTORE PUSH1 0x40 PUSH1 0x0 KECCAK256 SWAP1 PUSH1 0x2 DUP3 ADD SWAP1 DUP2 SLOAD SWAP2 PUSH1 0xFF DUP4 PUSH1 0xA8 SHR AND PUSH1 0x6 DUP2 LT ISZERO PUSH2 0x597 JUMPI PUSH1 0x3 DUP2 EQ SWAP1 DUP2 ISZERO PUSH2 0x3C27 JUMPI JUMPDEST POP ISZERO PUSH2 0x3BEE JUMPI PUSH1 0xFF DUP4 PUSH1 0xA0 SHR AND SWAP2 PUSH2 0x350F DUP4 PUSH2 0x638A JUMP JUMPDEST PUSH2 0x351B PUSH1 0x1 DUP5 EQ PUSH2 0x66B8 JUMP JUMPDEST PUSH1 0x0 MSTORE PUSH1 0x6 PUSH1 0x20 MSTORE PUSH1 0x40 PUSH1 0x0 KECCAK256 CALLER PUSH1 0x0 MSTORE PUSH1 0x20 MSTORE PUSH1 0xFF PUSH1 0x4 PUSH1 0x40 PUSH1 0x0 KECCAK256 ADD SLOAD PUSH1 0x8 SHR AND ISZERO PUSH2 0x3BA9 JUMPI PUSH1 0x1 DUP5 ADD SWAP2 PUSH1 0x40 MLOAD DUP1 SWAP4 PUSH1 0x0 SWAP1 DUP1 SLOAD SWAP1 PUSH2 0x355C DUP3 PUSH2 0x6263 JUMP JUMPDEST SWAP2 PUSH1 0x1 DUP2 AND SWAP1 DUP2 ISZERO PUSH2 0x3B82 JUMPI POP PUSH1 0x1 EQ PUSH2 0x3B3E JUMPI JUMPDEST POP POP PUSH2 0x3599 SWAP2 DUP2 PUSH10 0x405A40A4CADAC2E8C6D PUSH1 0xB3 SHL PUSH1 0xA SWAP4 MSTORE SUB PUSH1 0x15 NOT DUP2 ADD DUP7 MSTORE ADD DUP5 PUSH2 0x6150 JUMP JUMPDEST PUSH1 0xB DUP6 ADD SLOAD DUP1 ISZERO PUSH2 0x3B31 JUMPI PUSH1 0xFF PUSH2 0xE10 PUSH2 0x35BA PUSH1 0x1 SWAP4 PUSH1 0x9 DUP11 ADD SLOAD SWAP1 PUSH2 0x6471 JUMP JUMPDEST DIV SWAP6 JUMPDEST PUSH1 0xB0 SHR AND PUSH2 0x35CA DUP2 PUSH2 0x638A JUMP JUMPDEST SUB PUSH2 0x3AFE JUMPI POP PUSH1 0x3 DUP5 ADD SLOAD CALLVALUE LT PUSH2 0x3AB9 JUMPI PUSH1 0x5 SWAP1 SLOAD SWAP4 ADD SLOAD SWAP1 PUSH1 0x40 MLOAD PUSH2 0x35EF DUP2 PUSH2 0x60FE JUMP JUMPDEST PUSH1 0x0 DUP2 MSTORE PUSH2 0x35FE PUSH1 0x2 SLOAD PUSH2 0x6518 JUMP JUMPDEST SWAP4 DUP5 PUSH1 0x2 SSTORE DUP5 PUSH1 0x0 MSTORE PUSH1 0x5 PUSH1 0x20 MSTORE PUSH1 0x40 PUSH1 0x0 KECCAK256 SWAP2 DUP6 DUP4 SSTORE DUP4 MLOAD PUSH1 0x1 PUSH1 0x1 PUSH1 0x40 SHL SUB DUP2 GT PUSH2 0x153C JUMPI PUSH2 0x3632 PUSH1 0x1 DUP6 ADD SLOAD PUSH2 0x6263 JUMP JUMPDEST PUSH1 0x1F DUP2 GT PUSH2 0x3A84 JUMPI JUMPDEST POP DUP1 PUSH1 0x20 PUSH1 0x1F DUP3 GT PUSH1 0x1 EQ PUSH2 0x3A17 JUMPI PUSH1 0x0 SWAP2 PUSH2 0x3A0C JUMPI JUMPDEST POP DUP2 PUSH1 0x1 SHL SWAP2 PUSH1 0x0 NOT SWAP1 PUSH1 0x3 SHL SHR NOT AND OR PUSH1 0x1 DUP5 ADD SSTORE JUMPDEST PUSH1 0x2 DUP4 ADD DUP1 SLOAD PUSH2 0x367E PUSH1 0xFF DUP11 PUSH1 0xA0 SHR AND PUSH2 0x638A JUMP JUMPDEST PUSH2 0x368D PUSH1 0xFF DUP11 PUSH1 0xB0 SHR AND PUSH2 0x638A JUMP JUMPDEST PUSH3 0xFFFFFF PUSH1 0xA0 SHL NOT CALLER AND PUSH1 0x1 PUSH1 0x1 PUSH1 0xB8 SHL SUB NOT SWAP2 SWAP1 SWAP2 AND OR PUSH1 0xFF PUSH1 0xA0 SHL DUP10 AND OR PUSH1 0xFF PUSH1 0xB0 SHL DUP10 AND OR SWAP1 SSTORE CALLVALUE PUSH1 0x3 DUP5 ADD DUP2 SWAP1 SSTORE PUSH1 0x4 DUP5 ADD SSTORE PUSH1 0x5 DUP4 ADD DUP6 SWAP1 SSTORE PUSH1 0x1 PUSH1 0x6 DUP5 ADD SSTORE PUSH1 0x0 PUSH1 0x7 DUP5 ADD SSTORE TIMESTAMP PUSH1 0x8 DUP5 ADD SSTORE DUP1 MLOAD DUP1 PUSH2 0x39E0 JUMPI JUMPDEST POP POP PUSH2 0x36F8 PUSH1 0xFF DUP8 PUSH1 0xA0 SHR AND PUSH2 0x638A JUMP JUMPDEST PUSH1 0x1 PUSH1 0xFF DUP8 PUSH1 0xA0 SHR AND EQ DUP1 PUSH2 0x39D7 JUMPI JUMPDEST PUSH2 0x39AD JUMPI JUMPDEST POP POP PUSH1 0x40 MLOAD PUSH2 0x371B DUP2 PUSH2 0x60C7 JUMP JUMPDEST CALLER DUP2 MSTORE PUSH1 0x20 DUP2 ADD PUSH1 0x0 DUP2 MSTORE PUSH2 0x37B9 PUSH1 0x40 DUP4 ADD PUSH1 0x0 DUP2 MSTORE PUSH2 0x1964 PUSH1 0x4 PUSH1 0x60 DUP7 ADD SWAP6 PUSH1 0x0 DUP8 MSTORE PUSH1 0x80 DUP2 ADD SWAP7 PUSH1 0x0 DUP9 MSTORE PUSH1 0xA0 DUP3 ADD SWAP5 PUSH1 0x1 DUP7 MSTORE PUSH1 0xC0 DUP4 ADD SWAP8 PUSH1 0x0 DUP10 MSTORE DUP13 PUSH1 0x0 MSTORE PUSH1 0x6 PUSH1 0x20 MSTORE PUSH1 0x40 PUSH1 0x0 KECCAK256 CALLER PUSH1 0x0 MSTORE PUSH1 0x20 MSTORE PUSH1 0x40 PUSH1 0x0 KECCAK256 SWAP4 PUSH1 0x1 DUP1 PUSH1 0xA0 SHL SUB SWAP1 MLOAD AND PUSH1 0x1 PUSH1 0x1 PUSH1 0x60 SHL SUB PUSH1 0xA0 SHL DUP6 SLOAD AND OR DUP5 SSTORE MLOAD PUSH1 0x1 DUP5 ADD SSTORE MLOAD PUSH1 0x2 DUP4 ADD SSTORE MLOAD PUSH1 0x3 DUP3 ADD SSTORE ADD SWAP5 MLOAD ISZERO ISZERO DUP6 SWAP1 PUSH1 0xFF DUP1 NOT DUP4 SLOAD AND SWAP2 ISZERO ISZERO AND OR SWAP1 SSTORE JUMP JUMPDEST MLOAD PUSH1 0x3 DUP2 LT ISZERO PUSH2 0x597 JUMPI PUSH2 0x37CC SWAP2 PUSH2 0x6652 JUMP JUMPDEST DUP3 PUSH1 0x0 MSTORE PUSH1 0x7 PUSH1 0x20 MSTORE PUSH2 0x37E3 CALLER PUSH1 0x40 PUSH1 0x0 KECCAK256 PUSH2 0x6A3E JUMP JUMPDEST CALLER PUSH1 0x0 MSTORE PUSH1 0x8 PUSH1 0x20 MSTORE PUSH2 0x37FA DUP4 PUSH1 0x40 PUSH1 0x0 KECCAK256 PUSH2 0x6A79 JUMP JUMPDEST PUSH2 0x3809 PUSH1 0xFF DUP6 PUSH1 0xA0 SHR AND PUSH2 0x638A JUMP JUMPDEST PUSH1 0xFF DUP5 PUSH1 0xA0 SHR AND ISZERO DUP1 PUSH2 0x39A3 JUMPI JUMPDEST PUSH2 0x3872 JUMPI JUMPDEST PUSH1 0x0 DUP1 MLOAD PUSH1 0x20 PUSH2 0x883E DUP4 CODECOPY DUP2 MLOAD SWAP2 MSTORE SWAP2 PUSH1 0xFF PUSH2 0x3843 PUSH1 0x40 MLOAD SWAP4 PUSH1 0x80 DUP6 MSTORE PUSH1 0x80 DUP6 ADD SWAP1 PUSH2 0x6365 JUMP JUMPDEST SWAP6 PUSH2 0x3852 DUP3 DUP3 PUSH1 0xA0 SHR AND PUSH2 0x638A JUMP JUMPDEST PUSH1 0xA0 SHR AND PUSH1 0x20 DUP4 ADD MSTORE CALLVALUE PUSH1 0x40 DUP4 ADD MSTORE PUSH1 0x60 DUP3 ADD MSTORE DUP1 CALLER SWAP5 SUB SWAP1 LOG3 PUSH1 0x1 DUP1 SSTORE STOP JUMPDEST PUSH1 0x40 MLOAD SWAP2 PUSH32 0x0 PUSH2 0x38A0 DUP5 PUSH2 0x60C7 JUMP JUMPDEST PUSH1 0x1 DUP1 PUSH1 0xA0 SHL SUB DUP2 AND DUP5 MSTORE PUSH1 0x0 PUSH1 0x20 DUP6 ADD MSTORE PUSH1 0x0 PUSH1 0x40 DUP6 ADD MSTORE PUSH1 0x0 PUSH1 0x60 DUP6 ADD MSTORE PUSH1 0x0 PUSH1 0x80 DUP6 ADD MSTORE PUSH1 0x1 PUSH1 0xA0 DUP6 ADD MSTORE PUSH1 0x0 PUSH1 0xC0 DUP6 ADD MSTORE DUP5 PUSH1 0x0 MSTORE PUSH1 0x6 PUSH1 0x20 MSTORE PUSH1 0x40 PUSH1 0x0 KECCAK256 PUSH1 0x1 DUP1 PUSH1 0xA0 SHL SUB DUP3 AND PUSH1 0x0 MSTORE PUSH1 0x20 MSTORE PUSH1 0xC0 PUSH1 0x4 PUSH1 0x40 PUSH1 0x0 KECCAK256 PUSH1 0x1 DUP1 PUSH1 0xA0 SHL SUB DUP8 MLOAD AND PUSH1 0x1 PUSH1 0x1 PUSH1 0x60 SHL SUB PUSH1 0xA0 SHL DUP3 SLOAD AND OR DUP2 SSTORE PUSH1 0x20 DUP8 ADD MLOAD PUSH1 0x1 DUP3 ADD SSTORE PUSH1 0x40 DUP8 ADD MLOAD PUSH1 0x2 DUP3 ADD SSTORE PUSH1 0x60 DUP8 ADD MLOAD PUSH1 0x3 DUP3 ADD SSTORE ADD SWAP5 PUSH2 0x3952 PUSH1 0x80 DUP3 ADD MLOAD ISZERO ISZERO DUP8 SWAP1 PUSH1 0xFF DUP1 NOT DUP4 SLOAD AND SWAP2 ISZERO ISZERO AND OR SWAP1 SSTORE JUMP JUMPDEST PUSH1 0xA0 DUP2 ADD MLOAD DUP7 SLOAD PUSH2 0xFF00 NOT AND SWAP1 ISZERO ISZERO PUSH1 0x8 SHL PUSH2 0xFF00 AND OR DUP7 SSTORE ADD MLOAD SWAP1 PUSH1 0x3 DUP3 LT ISZERO PUSH2 0x597 JUMPI PUSH2 0x1B3E PUSH2 0x3993 SWAP3 PUSH1 0x0 DUP1 MLOAD PUSH1 0x20 PUSH2 0x883E DUP4 CODECOPY DUP2 MLOAD SWAP2 MSTORE SWAP7 PUSH2 0x6652 JUMP JUMPDEST PUSH2 0x399C DUP5 PUSH2 0x722A JUMP JUMPDEST SWAP2 POP PUSH2 0x381C JUMP JUMPDEST POP PUSH1 0x1 DUP3 EQ PUSH2 0x3817 JUMP JUMPDEST PUSH2 0xE10 SWAP1 DUP2 DUP2 MUL SWAP2 DUP2 DUP4 DIV EQ SWAP1 ISZERO OR ISZERO PUSH2 0xDA5 JUMPI PUSH2 0x39CD PUSH1 0xB SWAP2 TIMESTAMP PUSH2 0x65B9 JUMP JUMPDEST SWAP2 ADD SSTORE DUP5 DUP1 PUSH2 0x370D JUMP JUMPDEST POP DUP1 ISZERO ISZERO PUSH2 0x3708 JUMP JUMPDEST PUSH2 0x39FD PUSH1 0x20 DUP1 SWAP4 DUP4 PUSH2 0x146E PUSH1 0x40 MLOAD SWAP6 DUP7 SWAP4 DUP6 DUP6 ADD SWAP9 DUP10 SWAP2 ADD PUSH2 0x6342 JUMP JUMPDEST MLOAD SWAP1 KECCAK256 PUSH1 0x13 DUP4 ADD SSTORE DUP7 DUP1 PUSH2 0x36E7 JUMP JUMPDEST SWAP1 POP DUP6 ADD MLOAD DUP10 PUSH2 0x3652 JUMP JUMPDEST SWAP2 POP PUSH1 0x1 DUP6 ADD PUSH1 0x0 MSTORE PUSH1 0x20 PUSH1 0x0 KECCAK256 PUSH1 0x0 SWAP3 JUMPDEST PUSH1 0x1F NOT DUP4 AND DUP5 LT PUSH2 0x3A6C JUMPI PUSH1 0x1 SWAP4 POP DUP3 PUSH1 0x1F NOT DUP2 AND LT PUSH2 0x3A53 JUMPI JUMPDEST POP POP DUP2 SHL ADD PUSH1 0x1 DUP5 ADD SSTORE PUSH2 0x3669 JUMP JUMPDEST DUP8 ADD MLOAD PUSH1 0x0 NOT PUSH1 0xF8 DUP5 PUSH1 0x3 SHL AND SHR NOT AND SWAP1 SSTORE DUP10 DUP1 PUSH2 0x3A44 JUMP JUMPDEST DUP8 DUP2 ADD MLOAD DUP3 SSTORE PUSH1 0x20 SWAP4 DUP5 ADD SWAP4 PUSH1 0x1 SWAP1 SWAP3 ADD SWAP2 ADD PUSH2 0x3A29 JUMP JUMPDEST PUSH2 0x3AB3 SWAP1 PUSH1 0x1 DUP7 ADD PUSH1 0x0 MSTORE PUSH1 0x20 PUSH1 0x0 KECCAK256 PUSH1 0x1F DUP5 ADD PUSH1 0x5 SHR DUP2 ADD SWAP2 PUSH1 0x20 DUP6 LT PUSH2 0x1532 JUMPI PUSH1 0x1F ADD PUSH1 0x5 SHR ADD SWAP1 PUSH2 0x6D1F JUMP JUMPDEST DUP9 PUSH2 0x363B JUMP JUMPDEST PUSH1 0x40 MLOAD PUSH3 0x461BCD PUSH1 0xE5 SHL DUP2 MSTORE PUSH1 0x20 PUSH1 0x4 DUP3 ADD MSTORE PUSH1 0x1E PUSH1 0x24 DUP3 ADD MSTORE PUSH32 0x5374616B65206D757374206D61746368206F726967696E616C2067616D650000 PUSH1 0x44 DUP3 ADD MSTORE PUSH1 0x64 SWAP1 REVERT JUMPDEST SWAP1 POP PUSH1 0x5 PUSH2 0x3B2C SWAP5 PUSH2 0x3B13 SWAP5 SWAP4 SWAP5 CALLVALUE ISZERO PUSH2 0x69F3 JUMP JUMPDEST ADD SLOAD SWAP1 PUSH1 0x40 MLOAD SWAP4 PUSH2 0x3B23 DUP6 PUSH2 0x60FE JUMP JUMPDEST PUSH1 0x0 DUP6 MSTORE PUSH2 0x6D36 JUMP JUMPDEST PUSH2 0xA89 JUMP JUMPDEST POP PUSH1 0x1 PUSH1 0xFF PUSH1 0x18 SWAP6 PUSH2 0x35BD JUMP JUMPDEST SWAP2 POP SWAP2 POP PUSH1 0x0 MSTORE DUP4 PUSH1 0x20 PUSH1 0x0 KECCAK256 PUSH1 0x0 SWAP1 JUMPDEST DUP4 DUP3 LT PUSH2 0x3B68 JUMPI POP SWAP1 SWAP2 DUP3 ADD PUSH1 0x20 ADD SWAP1 POP DUP2 PUSH1 0xA PUSH2 0x3571 JUMP JUMPDEST PUSH1 0x20 SWAP2 SWAP3 POP DUP1 PUSH1 0x1 SWAP2 SLOAD DUP4 DUP6 DUP11 ADD ADD MSTORE ADD SWAP2 ADD DUP6 SWAP2 PUSH2 0x3B4F JUMP JUMPDEST PUSH1 0xA SWAP5 POP PUSH1 0x20 SWAP3 POP PUSH2 0x3599 SWAP6 SWAP4 SWAP2 POP PUSH1 0xFF NOT AND DUP3 DUP5 ADD MSTORE DUP1 ISZERO ISZERO MUL DUP3 ADD ADD SWAP2 DUP2 SWAP4 POP PUSH2 0x3571 JUMP JUMPDEST PUSH1 0x40 MLOAD PUSH3 0x461BCD PUSH1 0xE5 SHL DUP2 MSTORE PUSH1 0x20 PUSH1 0x4 DUP3 ADD MSTORE PUSH1 0x1D PUSH1 0x24 DUP3 ADD MSTORE PUSH32 0x4E6F74206120706C6179657220696E206F726967696E616C2067616D65000000 PUSH1 0x44 DUP3 ADD MSTORE PUSH1 0x64 SWAP1 REVERT JUMPDEST PUSH1 0x40 MLOAD PUSH3 0x461BCD PUSH1 0xE5 SHL DUP2 MSTORE PUSH1 0x20 PUSH1 0x4 DUP3 ADD MSTORE PUSH1 0x11 PUSH1 0x24 DUP3 ADD MSTORE PUSH17 0x11D85B59481B9BDD08199A5B9A5CDA1959 PUSH1 0x7A SHL PUSH1 0x44 DUP3 ADD MSTORE PUSH1 0x64 SWAP1 REVERT JUMPDEST PUSH1 0x5 SWAP2 POP EQ DUP6 PUSH2 0x34F8 JUMP JUMPDEST CALLVALUE PUSH2 0x392 JUMPI PUSH1 0x20 CALLDATASIZE PUSH1 0x3 NOT ADD SLT PUSH2 0x392 JUMPI PUSH1 0x4 CALLDATALOAD PUSH2 0x3C4E PUSH2 0x6CFC JUMP JUMPDEST PUSH1 0x0 DUP2 DUP2 MSTORE PUSH1 0x5 PUSH1 0x20 MSTORE PUSH1 0x40 SWAP1 KECCAK256 PUSH1 0x2 ADD DUP1 SLOAD CALLER PUSH1 0x1 PUSH1 0x1 PUSH1 0xA0 SHL SUB DUP3 AND SUB PUSH2 0x3CFF JUMPI PUSH1 0xFF DUP2 PUSH1 0xA8 SHR AND PUSH1 0x6 DUP2 LT ISZERO PUSH2 0x597 JUMPI PUSH2 0x3CCA JUMPI PUSH1 0xFF PUSH1 0xA8 SHL NOT AND PUSH1 0x1 PUSH1 0xAA SHL OR SWAP1 SSTORE PUSH2 0x3C9D DUP2 PUSH2 0x768D JUMP JUMPDEST CALLER SWAP1 PUSH32 0x58F64E02B3A6D2A3BD28B7700A0A0D6699545BCB55BF917AC0FF670F3A509EFB PUSH1 0x0 DUP1 LOG3 PUSH1 0x1 DUP1 SSTORE STOP JUMPDEST PUSH1 0x40 MLOAD PUSH3 0x461BCD PUSH1 0xE5 SHL DUP2 MSTORE PUSH1 0x20 PUSH1 0x4 DUP3 ADD MSTORE PUSH1 0xD PUSH1 0x24 DUP3 ADD MSTORE PUSH13 0x10D85B9B9BDD0818D85B98D95B PUSH1 0x9A SHL PUSH1 0x44 DUP3 ADD MSTORE PUSH1 0x64 SWAP1 REVERT JUMPDEST PUSH1 0x40 MLOAD PUSH3 0x461BCD PUSH1 0xE5 SHL DUP2 MSTORE PUSH1 0x20 PUSH1 0x4 DUP3 ADD MSTORE PUSH1 0x17 PUSH1 0x24 DUP3 ADD MSTORE PUSH32 0x4F6E6C792063726561746F722063616E2063616E63656C000000000000000000 PUSH1 0x44 DUP3 ADD MSTORE PUSH1 0x64 SWAP1 REVERT JUMPDEST PUSH1 0x40 CALLDATASIZE PUSH1 0x3 NOT ADD SLT PUSH2 0x392 JUMPI PUSH1 0x24 CALLDATALOAD PUSH1 0x1 PUSH1 0x1 PUSH1 0x40 SHL SUB DUP2 GT PUSH2 0x392 JUMPI PUSH2 0x3D6F SWAP1 CALLDATASIZE SWAP1 PUSH1 0x4 ADD PUSH2 0x618C JUMP JUMPDEST PUSH2 0x3D77 PUSH2 0x6CFC JUMP JUMPDEST PUSH1 0x4 CALLDATALOAD PUSH1 0x0 MSTORE PUSH1 0x5 PUSH1 0x20 MSTORE PUSH1 0x40 PUSH1 0x0 KECCAK256 SWAP1 PUSH1 0x2 DUP3 ADD SLOAD PUSH1 0xFF DUP2 PUSH1 0xA8 SHR AND PUSH1 0x6 DUP2 LT ISZERO PUSH2 0x597 JUMPI PUSH2 0x4199 JUMPI PUSH1 0x6 DUP4 ADD SLOAD PUSH1 0x5 DUP5 ADD SLOAD GT ISZERO PUSH2 0x4165 JUMPI PUSH1 0x4 CALLDATALOAD PUSH1 0x0 MSTORE PUSH1 0x6 PUSH1 0x20 MSTORE PUSH1 0x40 PUSH1 0x0 KECCAK256 CALLER PUSH1 0x0 MSTORE PUSH1 0x20 MSTORE PUSH1 0xFF PUSH1 0x4 PUSH1 0x40 PUSH1 0x0 KECCAK256 ADD SLOAD PUSH1 0x8 SHR AND PUSH2 0x412F JUMPI PUSH2 0x3DEA PUSH1 0xFF DUP3 PUSH1 0xB0 SHR AND PUSH2 0x638A JUMP JUMPDEST PUSH1 0x1 PUSH1 0xFF DUP3 PUSH1 0xB0 SHR AND EQ PUSH1 0x0 EQ PUSH2 0x411F JUMPI PUSH1 0xFF PUSH1 0x1 SWAP2 PUSH1 0xA0 SHR AND PUSH2 0x3E0D DUP2 PUSH2 0x638A JUMP JUMPDEST SUB PUSH2 0x40DB JUMPI PUSH1 0x3 DUP3 ADD SLOAD CALLVALUE SUB PUSH2 0x4096 JUMPI JUMPDEST CALLVALUE ISZERO PUSH2 0x4045 JUMPI JUMPDEST PUSH1 0x13 DUP3 ADD SLOAD SWAP1 DUP2 PUSH2 0x3FDF JUMPI JUMPDEST POP POP PUSH1 0x40 MLOAD PUSH2 0x3E3F DUP2 PUSH2 0x60C7 JUMP JUMPDEST CALLER DUP2 MSTORE PUSH1 0x20 DUP2 ADD PUSH1 0x0 DUP2 MSTORE PUSH2 0x3EDE PUSH1 0x40 DUP4 ADD PUSH1 0x0 DUP2 MSTORE PUSH2 0x1964 PUSH1 0x4 PUSH1 0x60 DUP7 ADD SWAP6 PUSH1 0x0 DUP8 MSTORE PUSH1 0x80 DUP2 ADD SWAP7 PUSH1 0x0 DUP9 MSTORE PUSH1 0xA0 DUP3 ADD SWAP5 PUSH1 0x1 DUP7 MSTORE PUSH1 0xC0 DUP4 ADD SWAP8 PUSH1 0x0 DUP10 MSTORE DUP5 CALLDATALOAD PUSH1 0x0 MSTORE PUSH1 0x6 PUSH1 0x20 MSTORE PUSH1 0x40 PUSH1 0x0 KECCAK256 CALLER PUSH1 0x0 MSTORE PUSH1 0x20 MSTORE PUSH1 0x40 PUSH1 0x0 KECCAK256 SWAP4 PUSH1 0x1 DUP1 PUSH1 0xA0 SHL SUB SWAP1 MLOAD AND PUSH1 0x1 PUSH1 0x1 PUSH1 0x60 SHL SUB PUSH1 0xA0 SHL DUP6 SLOAD AND OR DUP5 SSTORE MLOAD PUSH1 0x1 DUP5 ADD SSTORE MLOAD PUSH1 0x2 DUP4 ADD SSTORE MLOAD PUSH1 0x3 DUP3 ADD SSTORE ADD SWAP5 MLOAD ISZERO ISZERO DUP6 SWAP1 PUSH1 0xFF DUP1 NOT DUP4 SLOAD AND SWAP2 ISZERO ISZERO AND OR SWAP1 SSTORE JUMP JUMPDEST MLOAD PUSH1 0x3 DUP2 LT ISZERO PUSH2 0x597 JUMPI PUSH2 0x3EF1 SWAP2 PUSH2 0x6652 JUMP JUMPDEST PUSH1 0x4 CALLDATALOAD PUSH1 0x0 MSTORE PUSH1 0x7 PUSH1 0x20 MSTORE PUSH2 0x3F0A CALLER PUSH1 0x40 PUSH1 0x0 KECCAK256 PUSH2 0x6A3E JUMP JUMPDEST CALLER PUSH1 0x0 MSTORE PUSH1 0x8 PUSH1 0x20 MSTORE PUSH2 0x3F23 PUSH1 0x4 CALLDATALOAD PUSH1 0x40 PUSH1 0x0 KECCAK256 PUSH2 0x6A79 JUMP JUMPDEST PUSH2 0x3F30 PUSH1 0x6 DUP3 ADD SLOAD PUSH2 0x6518 JUMP JUMPDEST SWAP1 DUP2 PUSH1 0x6 DUP3 ADD SSTORE PUSH1 0x1 PUSH1 0xFF PUSH1 0x5 PUSH1 0x2 DUP5 ADD SLOAD SWAP4 DUP4 DUP4 DUP7 PUSH1 0xB0 SHR AND PUSH2 0x3F53 DUP2 PUSH2 0x638A JUMP JUMPDEST EQ PUSH2 0x3FC9 JUMPI JUMPDEST ADD SLOAD SWAP3 PUSH1 0x40 MLOAD DUP6 DUP2 MSTORE DUP5 PUSH1 0x20 DUP3 ADD MSTORE CALLER SWAP1 PUSH32 0x1106C14AAB1F44B1577FD2F42206EE286F0FBF82C72942BBCDC9028AF44216FF PUSH1 0x40 PUSH1 0x4 CALLDATALOAD SWAP3 LOG3 PUSH1 0xA0 SHR AND PUSH2 0x3F9F DUP2 PUSH2 0x638A JUMP JUMPDEST EQ SWAP2 DUP3 PUSH2 0x3FBE JUMPI JUMPDEST POP POP PUSH2 0x3FB3 JUMPI PUSH1 0x1 DUP1 SSTORE STOP JUMPDEST PUSH2 0x3B2C PUSH1 0x4 CALLDATALOAD PUSH2 0x722A JUMP JUMPDEST LT ISZERO SWAP1 POP DUP2 DUP1 PUSH2 0x3FA7 JUMP JUMPDEST PUSH1 0x4 DUP2 ADD PUSH2 0x3FD8 CALLVALUE DUP3 SLOAD PUSH2 0x65B9 JUMP JUMPDEST SWAP1 SSTORE PUSH2 0x3F59 JUMP JUMPDEST PUSH1 0x40 MLOAD PUSH2 0x3FFC PUSH1 0x20 DUP3 DUP2 PUSH2 0x146E DUP2 DUP4 ADD SWAP7 DUP8 DUP2 MLOAD SWAP4 DUP5 SWAP3 ADD PUSH2 0x6342 JUMP JUMPDEST MLOAD SWAP1 KECCAK256 SUB PUSH2 0x400B JUMPI DUP2 DUP1 PUSH2 0x3E31 JUMP JUMPDEST PUSH1 0x40 MLOAD PUSH3 0x461BCD PUSH1 0xE5 SHL DUP2 MSTORE PUSH1 0x20 PUSH1 0x4 DUP3 ADD MSTORE PUSH1 0x12 PUSH1 0x24 DUP3 ADD MSTORE PUSH18 0x125B98DBDC9C9958DD081C185CDCDDDBDC99 PUSH1 0x72 SHL PUSH1 0x44 DUP3 ADD MSTORE PUSH1 0x64 SWAP1 REVERT JUMPDEST PUSH1 0x40 MLOAD PUSH3 0x461BCD PUSH1 0xE5 SHL DUP2 MSTORE PUSH1 0x20 PUSH1 0x4 DUP3 ADD MSTORE PUSH1 0x23 PUSH1 0x24 DUP3 ADD MSTORE PUSH32 0x5374616B6520616D6F756E74206D757374206265206772656174657220746861 PUSH1 0x44 DUP3 ADD MSTORE PUSH3 0x6E203 PUSH1 0xEC SHL PUSH1 0x64 DUP3 ADD MSTORE PUSH1 0x84 SWAP1 REVERT JUMPDEST PUSH1 0x40 MLOAD PUSH3 0x461BCD PUSH1 0xE5 SHL DUP2 MSTORE PUSH1 0x20 PUSH1 0x4 DUP3 ADD MSTORE PUSH1 0x1E PUSH1 0x24 DUP3 ADD MSTORE PUSH32 0x5374616B65206D757374206D617463682063726561746F72207374616B650000 PUSH1 0x44 DUP3 ADD MSTORE PUSH1 0x64 SWAP1 REVERT JUMPDEST PUSH1 0x3 DUP3 ADD SLOAD CALLVALUE LT ISZERO PUSH2 0x3E1E JUMPI PUSH1 0x40 MLOAD PUSH3 0x461BCD PUSH1 0xE5 SHL DUP2 MSTORE PUSH1 0x20 PUSH1 0x4 DUP3 ADD MSTORE PUSH1 0x10 PUSH1 0x24 DUP3 ADD MSTORE PUSH16 0x125B9CDD59999A58DA595B9D0818995D PUSH1 0x82 SHL PUSH1 0x44 DUP3 ADD MSTORE PUSH1 0x64 SWAP1 REVERT JUMPDEST POP PUSH2 0x412A CALLVALUE ISZERO PUSH2 0x69F3 JUMP JUMPDEST PUSH2 0x3E25 JUMP JUMPDEST PUSH1 0x40 MLOAD PUSH3 0x461BCD PUSH1 0xE5 SHL DUP2 MSTORE PUSH1 0x20 PUSH1 0x4 DUP3 ADD MSTORE PUSH1 0xE PUSH1 0x24 DUP3 ADD MSTORE PUSH14 0x105B1C9958591E481A9BDA5B9959 PUSH1 0x92 SHL PUSH1 0x44 DUP3 ADD MSTORE PUSH1 0x64 SWAP1 REVERT JUMPDEST PUSH1 0x40 MLOAD PUSH3 0x461BCD PUSH1 0xE5 SHL DUP2 MSTORE PUSH1 0x20 PUSH1 0x4 DUP3 ADD MSTORE PUSH1 0xC PUSH1 0x24 DUP3 ADD MSTORE PUSH12 0x11D85B59481A5CC8199D5B1B PUSH1 0xA2 SHL PUSH1 0x44 DUP3 ADD MSTORE PUSH1 0x64 SWAP1 REVERT JUMPDEST PUSH1 0x40 MLOAD PUSH3 0x461BCD PUSH1 0xE5 SHL DUP2 MSTORE PUSH1 0x20 PUSH1 0x4 DUP3 ADD MSTORE PUSH1 0x14 PUSH1 0x24 DUP3 ADD MSTORE PUSH20 0x11D85B5948185B1C9958591E481CDD185C9D1959 PUSH1 0x62 SHL PUSH1 0x44 DUP3 ADD MSTORE PUSH1 0x64 SWAP1 REVERT JUMPDEST CALLVALUE PUSH2 0x392 JUMPI PUSH1 0x20 CALLDATASIZE PUSH1 0x3 NOT ADD SLT PUSH2 0x392 JUMPI PUSH1 0x4 CALLDATALOAD PUSH1 0x0 MSTORE PUSH1 0xA PUSH1 0x20 MSTORE PUSH1 0x80 PUSH1 0x40 PUSH1 0x0 KECCAK256 DUP1 SLOAD SWAP1 PUSH1 0x1 DUP2 ADD SLOAD SWAP1 PUSH1 0x3 PUSH1 0xFF PUSH1 0x2 DUP4 ADD SLOAD AND SWAP2 ADD SLOAD SWAP2 PUSH1 0x40 MLOAD SWAP4 DUP5 MSTORE PUSH1 0x20 DUP5 ADD MSTORE ISZERO ISZERO PUSH1 0x40 DUP4 ADD MSTORE PUSH1 0x60 DUP3 ADD MSTORE RETURN JUMPDEST CALLVALUE PUSH2 0x392 JUMPI PUSH1 0x0 CALLDATASIZE PUSH1 0x3 NOT ADD SLT PUSH2 0x392 JUMPI PUSH1 0x20 PUSH1 0x4 SLOAD PUSH1 0x40 MLOAD SWAP1 DUP2 MSTORE RETURN JUMPDEST CALLVALUE PUSH2 0x392 JUMPI PUSH1 0x0 CALLDATASIZE PUSH1 0x3 NOT ADD SLT PUSH2 0x392 JUMPI PUSH1 0x20 PUSH1 0x40 MLOAD PUSH7 0x2386F26FC10000 DUP2 MSTORE RETURN JUMPDEST CALLVALUE PUSH2 0x392 JUMPI PUSH1 0x40 CALLDATASIZE PUSH1 0x3 NOT ADD SLT PUSH2 0x392 JUMPI PUSH2 0x4281 PUSH2 0x604D JUMP JUMPDEST PUSH1 0x0 PUSH1 0xC0 PUSH1 0x40 MLOAD PUSH2 0x4291 DUP2 PUSH2 0x60C7 JUMP JUMPDEST DUP3 DUP2 MSTORE DUP3 PUSH1 0x20 DUP3 ADD MSTORE DUP3 PUSH1 0x40 DUP3 ADD MSTORE DUP3 PUSH1 0x60 DUP3 ADD MSTORE DUP3 PUSH1 0x80 DUP3 ADD MSTORE DUP3 PUSH1 0xA0 DUP3 ADD MSTORE ADD MSTORE PUSH1 0x4 CALLDATALOAD PUSH1 0x0 MSTORE PUSH1 0x6 PUSH1 0x20 MSTORE PUSH1 0x40 PUSH1 0x0 KECCAK256 PUSH1 0x1 DUP1 PUSH1 0xA0 SHL SUB DUP1 SWAP3 AND PUSH1 0x0 MSTORE PUSH1 0x20 MSTORE PUSH1 0x40 PUSH1 0x0 KECCAK256 PUSH1 0x40 MLOAD SWAP1 PUSH2 0x42E6 DUP3 PUSH2 0x60C7 JUMP JUMPDEST DUP3 DUP2 SLOAD AND DUP3 MSTORE PUSH1 0x1 DUP2 ADD SLOAD PUSH1 0x20 DUP4 ADD SWAP1 DUP2 MSTORE PUSH1 0x2 DUP3 ADD SLOAD SWAP2 PUSH1 0x40 DUP5 ADD SWAP3 DUP4 MSTORE PUSH1 0x4 PUSH1 0x3 DUP3 ADD SLOAD SWAP2 PUSH1 0x60 DUP7 ADD SWAP3 DUP4 MSTORE ADD SLOAD SWAP1 PUSH1 0x80 DUP6 ADD SWAP1 PUSH1 0xFF DUP4 AND ISZERO ISZERO DUP3 MSTORE PUSH1 0xFF PUSH1 0xA0 DUP8 ADD SWAP4 DUP2 DUP2 PUSH1 0x8 SHR AND ISZERO ISZERO DUP6 MSTORE PUSH1 0x10 SHR AND SWAP5 PUSH1 0xC0 DUP8 ADD SWAP5 PUSH1 0x3 DUP8 LT ISZERO PUSH2 0x597 JUMPI PUSH1 0xE0 SWAP9 PUSH2 0x26D1 SWAP8 DUP8 MSTORE PUSH1 0x40 MLOAD SWAP9 MLOAD AND DUP9 MSTORE MLOAD PUSH1 0x20 DUP9 ADD MSTORE MLOAD PUSH1 0x40 DUP8 ADD MSTORE MLOAD PUSH1 0x60 DUP7 ADD MSTORE MLOAD ISZERO ISZERO PUSH1 0x80 DUP6 ADD MSTORE MLOAD ISZERO ISZERO PUSH1 0xA0 DUP5 ADD MSTORE MLOAD PUSH1 0xC0 DUP4 ADD SWAP1 PUSH2 0x6421 JUMP JUMPDEST CALLVALUE PUSH2 0x392 JUMPI PUSH1 0x20 DUP1 PUSH1 0x3 NOT CALLDATASIZE ADD SLT PUSH2 0x392 JUMPI PUSH1 0x4 CALLDATALOAD PUSH2 0x43A3 PUSH2 0x6CFC JUMP JUMPDEST DUP1 PUSH1 0x0 MSTORE PUSH1 0x5 DUP3 MSTORE PUSH1 0x40 PUSH1 0x0 KECCAK256 SWAP2 PUSH1 0xB DUP2 MSTORE PUSH1 0xFF PUSH1 0x2 PUSH1 0x40 PUSH1 0x0 KECCAK256 SWAP5 ADD SLOAD PUSH1 0xA8 SHR AND PUSH1 0x6 DUP2 LT ISZERO PUSH2 0x597 JUMPI PUSH1 0x3 SUB PUSH2 0x44F1 JUMPI PUSH1 0x1 DUP4 ADD SWAP3 DUP4 SLOAD SWAP4 PUSH1 0xFF DUP6 AND PUSH2 0x44B4 JUMPI SWAP1 PUSH32 0x97325EFC464900C0D7E3BD53005B12C77F4ADB6E2BD7DD12D40B4E1FC7D89D25 SWAP3 SWAP2 DUP5 PUSH1 0x0 MSTORE PUSH1 0xA DUP4 MSTORE PUSH2 0x4425 PUSH1 0xFF PUSH1 0x2 PUSH1 0x40 PUSH1 0x0 KECCAK256 ADD SLOAD AND PUSH2 0x653B JUMP JUMPDEST DUP5 PUSH1 0x0 MSTORE PUSH1 0x7 DUP4 MSTORE PUSH2 0x443D PUSH1 0x40 PUSH1 0x0 KECCAK256 SLOAD ISZERO ISZERO PUSH2 0x69BA JUMP JUMPDEST DUP5 PUSH1 0x0 MSTORE PUSH1 0xA DUP4 MSTORE PUSH1 0x1 PUSH2 0x4477 PUSH2 0x4465 DUP3 PUSH1 0x40 PUSH1 0x0 KECCAK256 ADD SLOAD PUSH1 0x7 DUP8 MSTORE PUSH1 0x40 PUSH1 0x0 KECCAK256 SLOAD SWAP1 PUSH2 0x6975 JUMP JUMPDEST DUP8 PUSH1 0x0 MSTORE PUSH1 0x7 DUP7 MSTORE PUSH1 0x40 PUSH1 0x0 KECCAK256 PUSH2 0x6063 JUMP JUMPDEST DUP3 DUP1 PUSH1 0xA0 SHL SUB SWAP2 SLOAD SWAP1 PUSH1 0x3 SHL SHR AND SWAP7 PUSH1 0xFF NOT AND OR SWAP1 SSTORE DUP1 SLOAD DUP1 PUSH2 0x44A4 JUMPI JUMPDEST POP SLOAD PUSH1 0x40 MLOAD SWAP1 DUP2 MSTORE LOG3 PUSH1 0x1 DUP1 SSTORE STOP JUMPDEST PUSH2 0x44AE SWAP1 DUP7 PUSH2 0x6C7D JUMP JUMPDEST DUP6 PUSH2 0x4495 JUMP JUMPDEST PUSH1 0x40 MLOAD PUSH3 0x461BCD PUSH1 0xE5 SHL DUP2 MSTORE PUSH1 0x4 DUP2 ADD DUP5 SWAP1 MSTORE PUSH1 0x15 PUSH1 0x24 DUP3 ADD MSTORE PUSH21 0x141C9A5E9948185B1C9958591E4818DB185A5B5959 PUSH1 0x5A SHL PUSH1 0x44 DUP3 ADD MSTORE PUSH1 0x64 SWAP1 REVERT JUMPDEST PUSH1 0x64 SWAP1 PUSH1 0x40 MLOAD SWAP1 PUSH3 0x461BCD PUSH1 0xE5 SHL DUP3 MSTORE PUSH1 0x4 DUP3 ADD MSTORE PUSH1 0x12 PUSH1 0x24 DUP3 ADD MSTORE PUSH18 0x11D85B59481B9BDD0818DBDB5C1B195D1959 PUSH1 0x72 SHL PUSH1 0x44 DUP3 ADD MSTORE REVERT JUMPDEST CALLVALUE PUSH2 0x392 JUMPI PUSH2 0x4538 CALLDATASIZE PUSH2 0x640B JUMP JUMPDEST SWAP1 PUSH1 0x0 MSTORE PUSH1 0x12 PUSH1 0x20 MSTORE PUSH1 0x40 PUSH1 0x0 KECCAK256 DUP1 SLOAD DUP3 LT ISZERO PUSH2 0x392 JUMPI PUSH1 0x20 SWAP2 PUSH2 0x62B SWAP2 PUSH2 0x6063 JUMP JUMPDEST CALLVALUE PUSH2 0x392 JUMPI PUSH1 0x20 DUP1 PUSH1 0x3 NOT CALLDATASIZE ADD SLT PUSH2 0x392 JUMPI PUSH1 0x4 CALLDATALOAD DUP1 PUSH1 0x0 MSTORE PUSH1 0x5 DUP3 MSTORE PUSH1 0xFF PUSH1 0x12 PUSH1 0x40 PUSH1 0x0 KECCAK256 ADD SLOAD AND ISZERO PUSH2 0x4712 JUMPI DUP1 PUSH1 0x0 MSTORE PUSH1 0x7 DUP3 MSTORE PUSH1 0x40 PUSH1 0x0 KECCAK256 SWAP2 PUSH1 0x40 MLOAD DUP1 DUP5 DUP4 DUP3 SWAP7 SLOAD SWAP4 DUP5 DUP2 MSTORE ADD SWAP1 PUSH1 0x0 MSTORE DUP4 PUSH1 0x0 KECCAK256 SWAP3 PUSH1 0x0 JUMPDEST DUP6 DUP3 DUP3 LT PUSH2 0x46F3 JUMPI POP POP POP PUSH2 0x45C8 SWAP3 POP SUB DUP5 PUSH2 0x6150 JUMP JUMPDEST DUP3 MLOAD SWAP3 PUSH2 0x45ED PUSH2 0x45D7 DUP6 PUSH2 0x64CF JUMP JUMPDEST SWAP5 PUSH2 0x45E5 PUSH1 0x40 MLOAD SWAP7 DUP8 PUSH2 0x6150 JUMP JUMPDEST DUP1 DUP7 MSTORE PUSH2 0x64CF JUMP JUMPDEST PUSH1 0x1F NOT ADD DUP3 PUSH1 0x0 JUMPDEST DUP3 DUP2 LT PUSH2 0x46DD JUMPI POP POP POP PUSH1 0x0 JUMPDEST DUP2 MLOAD DUP2 LT ISZERO PUSH2 0x4682 JUMPI PUSH1 0x0 DUP5 DUP2 MSTORE PUSH1 0xC DUP5 MSTORE PUSH1 0x40 SWAP1 KECCAK256 PUSH1 0x1 SWAP2 SWAP1 PUSH1 0x1 PUSH1 0x1 PUSH1 0xA0 SHL SUB PUSH2 0x462E DUP4 DUP7 PUSH2 0x6527 JUMP JUMPDEST MLOAD AND PUSH1 0x0 MSTORE DUP5 MSTORE PUSH1 0x40 PUSH1 0x0 KECCAK256 PUSH1 0x3 PUSH1 0x40 MLOAD SWAP2 PUSH2 0x4649 DUP4 PUSH2 0x60AC JUMP JUMPDEST DUP1 SLOAD DUP4 MSTORE DUP5 DUP2 ADD SLOAD DUP8 DUP5 ADD MSTORE PUSH1 0x2 DUP2 ADD SLOAD PUSH1 0x40 DUP5 ADD MSTORE ADD SLOAD PUSH1 0x60 DUP3 ADD MSTORE PUSH2 0x4670 DUP3 DUP9 PUSH2 0x6527 JUMP JUMPDEST MSTORE PUSH2 0x467B DUP2 DUP8 PUSH2 0x6527 JUMP JUMPDEST POP ADD PUSH2 0x4602 JUMP JUMPDEST PUSH1 0x40 DUP1 MLOAD DUP5 DUP2 MSTORE DUP7 MLOAD DUP2 DUP7 ADD DUP2 SWAP1 MSTORE DUP8 DUP7 ADD SWAP3 DUP3 ADD SWAP1 DUP7 PUSH1 0x0 JUMPDEST DUP3 DUP2 LT PUSH2 0x46A9 JUMPI DUP5 DUP5 SUB DUP6 RETURN JUMPDEST DUP6 MLOAD DUP1 MLOAD DUP6 MSTORE DUP1 DUP4 ADD MLOAD DUP6 DUP5 ADD MSTORE PUSH1 0x40 DUP1 DUP3 ADD MLOAD SWAP1 DUP7 ADD MSTORE PUSH1 0x60 SWAP1 DUP2 ADD MLOAD SWAP1 DUP6 ADD MSTORE SWAP5 DUP2 ADD SWAP5 PUSH1 0x80 SWAP1 SWAP4 ADD SWAP3 PUSH1 0x1 ADD PUSH2 0x469C JUMP JUMPDEST PUSH2 0x46E5 PUSH2 0x6995 JUMP JUMPDEST DUP3 DUP3 DUP10 ADD ADD MSTORE ADD DUP4 SWAP1 PUSH2 0x45F5 JUMP JUMPDEST DUP6 SLOAD PUSH1 0x1 PUSH1 0x1 PUSH1 0xA0 SHL SUB AND DUP5 MSTORE PUSH1 0x1 SWAP6 DUP7 ADD SWAP6 DUP10 SWAP6 POP SWAP4 ADD SWAP3 ADD PUSH2 0x45B1 JUMP JUMPDEST PUSH1 0x40 MLOAD PUSH3 0x461BCD PUSH1 0xE5 SHL DUP2 MSTORE PUSH1 0x4 DUP2 ADD DUP4 SWAP1 MSTORE PUSH1 0x10 PUSH1 0x24 DUP3 ADD MSTORE PUSH16 0x11D85B59481B9BDD081CDD185C9D1959 PUSH1 0x82 SHL PUSH1 0x44 DUP3 ADD MSTORE PUSH1 0x64 SWAP1 REVERT JUMPDEST CALLVALUE PUSH2 0x392 JUMPI PUSH2 0x4758 CALLDATASIZE PUSH2 0x63F1 JUMP JUMPDEST SWAP1 PUSH2 0x4761 PUSH2 0x6CFC JUMP JUMPDEST DUP3 PUSH1 0x0 MSTORE PUSH1 0x5 PUSH1 0x20 MSTORE PUSH1 0x40 PUSH1 0x0 KECCAK256 SWAP2 PUSH1 0x6 PUSH1 0x20 MSTORE PUSH1 0x40 PUSH1 0x0 KECCAK256 CALLER PUSH1 0x0 MSTORE PUSH1 0x20 MSTORE PUSH1 0x40 PUSH1 0x0 KECCAK256 SWAP1 PUSH1 0xFF PUSH1 0x2 DUP6 ADD SLOAD PUSH1 0xA8 SHR AND PUSH1 0x6 DUP2 LT ISZERO PUSH2 0x597 JUMPI PUSH1 0x2 DUP2 PUSH2 0x80F PUSH1 0x3 PUSH2 0x47AE SWAP5 EQ ISZERO PUSH2 0x674A JUMP JUMPDEST PUSH1 0x4 DUP3 ADD SLOAD PUSH2 0x47C0 PUSH1 0xFF DUP3 AND ISZERO PUSH2 0x67D9 JUMP JUMPDEST PUSH1 0x3 PUSH1 0xFF DUP3 PUSH1 0x10 SHR AND LT ISZERO PUSH2 0x597 JUMPI DUP1 PUSH2 0x47E6 PUSH1 0x2 PUSH1 0xFF PUSH2 0x481D SWAP5 PUSH1 0x10 SHR AND EQ ISZERO PUSH2 0x6825 JUMP JUMPDEST PUSH2 0x47F6 PUSH1 0xFF PUSH1 0x12 DUP9 ADD SLOAD AND PUSH2 0x653B JUMP JUMPDEST PUSH2 0x4805 PUSH1 0xFF DUP3 PUSH1 0x8 SHR AND PUSH2 0x66F9 JUMP JUMPDEST PUSH1 0x1 PUSH1 0xFF DUP3 PUSH1 0x10 SHR AND EQ SWAP1 DUP2 ISZERO PUSH2 0x4C55 JUMPI JUMPDEST POP PUSH2 0x6871 JUMP JUMPDEST DUP5 PUSH1 0x0 MSTORE PUSH1 0xD PUSH1 0x20 MSTORE PUSH1 0x40 PUSH1 0x0 KECCAK256 CALLER PUSH1 0x0 MSTORE PUSH1 0x20 MSTORE PUSH2 0x4847 PUSH1 0xFF PUSH1 0x1 PUSH1 0x40 PUSH1 0x0 KECCAK256 ADD SLOAD AND ISZERO PUSH2 0x68B4 JUMP JUMPDEST PUSH2 0x4854 PUSH1 0x6 DUP5 LT ISZERO PUSH2 0x68F4 JUMP JUMPDEST PUSH2 0x4861 PUSH1 0x64 DUP5 GT ISZERO PUSH2 0x6935 JUMP JUMPDEST PUSH1 0x40 MLOAD PUSH1 0x20 DUP2 ADD SWAP2 DUP5 DUP4 MSTORE PUSH1 0x40 DUP3 ADD MSTORE PUSH1 0x40 DUP2 MSTORE PUSH2 0x487E DUP2 PUSH2 0x6119 JUMP JUMPDEST MLOAD SWAP1 KECCAK256 PUSH1 0x40 MLOAD PUSH2 0x488D DUP2 PUSH2 0x60AC JUMP JUMPDEST DUP2 DUP2 MSTORE PUSH1 0x2 PUSH1 0x20 DUP3 ADD PUSH1 0x1 DUP2 MSTORE PUSH2 0x48E9 PUSH1 0x40 DUP5 ADD SWAP2 PUSH1 0x1 DUP4 MSTORE PUSH1 0x60 DUP6 ADD SWAP3 TIMESTAMP DUP5 MSTORE DUP11 PUSH1 0x0 MSTORE PUSH1 0xD PUSH1 0x20 MSTORE PUSH1 0x40 PUSH1 0x0 KECCAK256 CALLER PUSH1 0x0 MSTORE PUSH1 0x20 MSTORE PUSH1 0x40 PUSH1 0x0 KECCAK256 SWAP6 MLOAD DUP7 SSTORE PUSH2 0x2EB0 PUSH1 0x1 DUP8 ADD SWAP3 MLOAD ISZERO ISZERO DUP4 SWAP1 PUSH1 0xFF DUP1 NOT DUP4 SLOAD AND SWAP2 ISZERO ISZERO AND OR SWAP1 SSTORE JUMP JUMPDEST MLOAD SWAP2 ADD SSTORE PUSH1 0x40 MLOAD SWAP1 DUP2 MSTORE DUP5 PUSH1 0x0 DUP1 MLOAD PUSH1 0x20 PUSH2 0x887E DUP4 CODECOPY DUP2 MLOAD SWAP2 MSTORE PUSH1 0x20 CALLER SWAP4 LOG3 PUSH1 0x40 MLOAD DUP3 DUP2 MSTORE DUP5 PUSH1 0x0 DUP1 MLOAD PUSH1 0x20 PUSH2 0x885E DUP4 CODECOPY DUP2 MLOAD SWAP2 MSTORE PUSH1 0x20 CALLER SWAP4 LOG3 PUSH1 0x10 DUP4 ADD SLOAD SWAP1 PUSH2 0x4936 PUSH1 0x32 DUP4 MOD DUP5 PUSH2 0x65B9 JUMP JUMPDEST SWAP2 DUP6 PUSH1 0x40 MLOAD PUSH1 0x20 DUP2 ADD SWAP1 PUSH2 0x4968 DUP2 PUSH2 0x93C CALLER DUP8 DUP7 SWAP1 SWAP2 PUSH1 0x34 SWAP3 DUP3 MSTORE PUSH1 0x1 PUSH1 0x1 PUSH1 0x60 SHL SUB NOT SWAP1 PUSH1 0x60 SHL AND PUSH1 0x20 DUP3 ADD MSTORE ADD SWAP1 JUMP JUMPDEST MLOAD SWAP1 KECCAK256 PUSH1 0x5 PUSH1 0x64 DUP3 MOD LT PUSH2 0x4BB6 JUMPI JUMPDEST PUSH1 0xA PUSH1 0x64 DUP2 DUP4 DIV MOD LT PUSH2 0x4B3A JUMPI JUMPDEST PUSH1 0x3 PUSH1 0x64 DUP1 DUP4 DIV MOD LT PUSH2 0x4AB6 JUMPI JUMPDEST POP POP PUSH1 0x3 PUSH2 0x3E8 PUSH2 0x49A8 PUSH1 0x9 DUP9 ADD SLOAD TIMESTAMP PUSH2 0x6471 JUMP JUMPDEST SWAP3 DIV MOD PUSH1 0x1 DUP2 ADD DUP1 SWAP2 GT PUSH2 0xDA5 JUMPI PUSH1 0x3 SWAP1 PUSH1 0x40 MLOAD SWAP3 PUSH2 0x49C6 DUP5 PUSH2 0x60AC JUMP JUMPDEST DUP7 DUP5 MSTORE PUSH1 0x20 DUP5 ADD SWAP1 DUP2 MSTORE PUSH1 0x40 DUP5 ADD SWAP1 DUP7 DUP3 MSTORE PUSH1 0x60 DUP6 ADD SWAP3 DUP4 MSTORE DUP10 PUSH1 0x0 MSTORE PUSH1 0xC PUSH1 0x20 MSTORE PUSH1 0x40 PUSH1 0x0 KECCAK256 CALLER PUSH1 0x0 MSTORE PUSH1 0x20 MSTORE PUSH1 0x40 PUSH1 0x0 KECCAK256 SWAP5 MLOAD DUP6 SSTORE MLOAD PUSH1 0x1 DUP6 ADD SSTORE MLOAD PUSH1 0x2 DUP5 ADD SSTORE MLOAD SWAP2 ADD SSTORE DUP3 PUSH1 0x1 DUP3 ADD SSTORE DUP2 PUSH1 0x2 DUP3 ADD SSTORE TIMESTAMP PUSH1 0x3 DUP3 ADD SSTORE PUSH1 0x4 PUSH3 0x20001 PUSH3 0xFF00FF NOT DUP3 DUP5 ADD SLOAD AND OR SWAP2 ADD SSTORE DUP4 PUSH1 0x0 DUP1 MLOAD PUSH1 0x20 PUSH2 0x889E DUP4 CODECOPY DUP2 MLOAD SWAP2 MSTORE PUSH2 0x4A79 PUSH1 0x7 DUP7 ADD SWAP5 PUSH2 0x4A55 DUP7 SLOAD PUSH2 0x6518 JUMP JUMPDEST DUP1 SWAP7 SSTORE PUSH1 0x40 MLOAD SWAP2 DUP3 SWAP2 CALLER SWAP7 TIMESTAMP SWAP2 DUP5 PUSH1 0x40 SWAP2 SWAP5 SWAP4 SWAP3 PUSH1 0x60 DUP3 ADD SWAP6 DUP3 MSTORE PUSH1 0x20 DUP3 ADD MSTORE ADD MSTORE JUMP JUMPDEST SUB SWAP1 LOG3 PUSH1 0x5 DUP3 ADD SLOAD EQ PUSH2 0x4A8C JUMPI PUSH1 0x1 DUP1 SSTORE STOP JUMPDEST PUSH1 0x2 ADD SLOAD PUSH1 0xA8 SHR PUSH1 0xFF AND SWAP1 PUSH1 0x6 DUP3 LT ISZERO PUSH2 0x597 JUMPI PUSH2 0xAB2 PUSH1 0x2 PUSH2 0x4AAF SWAP4 EQ PUSH2 0x6673 JUMP JUMPDEST DUP1 DUP1 PUSH2 0xA89 JUMP JUMPDEST PUSH2 0x4B30 PUSH1 0x0 DUP1 MLOAD PUSH1 0x20 PUSH2 0x88DE DUP4 CODECOPY DUP2 MLOAD SWAP2 MSTORE SWAP2 PUSH1 0x40 MLOAD PUSH1 0x1E PUSH2 0x3E8 DUP4 DIV MOD DUP2 MSTORE DUP5 PUSH32 0xA90C07A1AB973CA48FC3F4DAD501A99E0DC8A00E62789F669A230D0A505987E0 PUSH1 0x20 CALLER SWAP4 LOG3 PUSH1 0x40 MLOAD SWAP2 DUP3 SWAP2 DUP3 SWAP2 SWAP1 PUSH1 0x40 DUP4 MSTORE PUSH1 0xB PUSH1 0x40 DUP5 ADD MSTORE PUSH11 0x74696D655F667265657A65 PUSH1 0xA8 SHL PUSH1 0x60 DUP5 ADD MSTORE PUSH1 0x20 PUSH1 0x80 DUP5 ADD SWAP4 ADD MSTORE JUMP JUMPDEST SUB SWAP1 LOG2 DUP6 DUP8 PUSH2 0x4993 JUMP JUMPDEST PUSH1 0x40 MLOAD PUSH1 0xC DUP3 MOD DUP2 MSTORE DUP3 PUSH32 0xA1DFC4607B4EF6099981B145882F4D59DF9320828BDCE6A4D418361DF804C82F PUSH1 0x20 CALLER SWAP4 LOG3 DUP2 PUSH1 0x0 DUP1 MLOAD PUSH1 0x20 PUSH2 0x88DE DUP4 CODECOPY DUP2 MLOAD SWAP2 MSTORE PUSH1 0x40 MLOAD DUP1 PUSH2 0x4BAE DUP6 DUP3 SWAP2 SWAP1 PUSH1 0x40 DUP4 MSTORE PUSH1 0xA PUSH1 0x40 DUP5 ADD MSTORE PUSH10 0x189BDB9D5CD7D8D85C99 PUSH1 0xB2 SHL PUSH1 0x60 DUP5 ADD MSTORE PUSH1 0x20 PUSH1 0x80 DUP5 ADD SWAP4 ADD MSTORE JUMP JUMPDEST SUB SWAP1 LOG2 PUSH2 0x4985 JUMP JUMPDEST SWAP4 SWAP1 POP PUSH1 0x2 DUP2 GT ISZERO PUSH2 0x4C4C JUMPI PUSH1 0x1 NOT DUP2 ADD SWAP1 DUP2 GT PUSH2 0xDA5 JUMPI DUP7 SWAP1 JUMPDEST SWAP4 PUSH1 0x40 MLOAD PUSH1 0x2 DUP2 MSTORE DUP3 PUSH32 0xD67C9EF9DDAF92A36275C3B90E5B262E1FCDB29F027EE01267EE671CA00F6CBF PUSH1 0x20 CALLER SWAP4 LOG3 DUP2 PUSH1 0x0 DUP1 MLOAD PUSH1 0x20 PUSH2 0x88DE DUP4 CODECOPY DUP2 MLOAD SWAP2 MSTORE PUSH1 0x40 MLOAD DUP1 PUSH2 0x4C44 DUP6 DUP3 SWAP2 SWAP1 PUSH1 0x40 DUP4 MSTORE PUSH1 0xA PUSH1 0x40 DUP5 ADD MSTORE PUSH10 0x6C75636B795F666C697 PUSH1 0xB4 SHL PUSH1 0x60 DUP5 ADD MSTORE PUSH1 0x20 PUSH1 0x80 DUP5 ADD SWAP4 ADD MSTORE JUMP JUMPDEST SUB SWAP1 LOG2 PUSH2 0x4977 JUMP JUMPDEST POP DUP6 PUSH1 0x0 PUSH2 0x4BD1 JUMP JUMPDEST PUSH1 0xFF SWAP2 POP PUSH1 0x10 SHR AND ISZERO DUP8 PUSH2 0x4817 JUMP JUMPDEST CALLVALUE PUSH2 0x392 JUMPI PUSH1 0x20 CALLDATASIZE PUSH1 0x3 NOT ADD SLT PUSH2 0x392 JUMPI PUSH1 0xC0 PUSH2 0x4C7F PUSH2 0x6037 JUMP JUMPDEST PUSH1 0x0 PUSH1 0xA0 PUSH1 0x40 MLOAD PUSH2 0x4C8F DUP2 PUSH2 0x6091 JUMP JUMPDEST DUP3 DUP2 MSTORE DUP3 PUSH1 0x20 DUP3 ADD MSTORE DUP3 PUSH1 0x40 DUP3 ADD MSTORE DUP3 PUSH1 0x60 DUP3 ADD MSTORE DUP3 PUSH1 0x80 DUP3 ADD MSTORE ADD MSTORE PUSH1 0x1 DUP1 PUSH1 0xA0 SHL SUB DUP1 SWAP2 AND PUSH1 0x0 MSTORE PUSH1 0x18 PUSH1 0x20 MSTORE PUSH1 0x40 PUSH1 0x0 KECCAK256 SWAP1 PUSH1 0x40 MLOAD SWAP1 PUSH2 0x4CD1 DUP3 PUSH2 0x6091 JUMP JUMPDEST DUP3 SLOAD AND SWAP2 DUP3 DUP3 MSTORE PUSH1 0x1 DUP2 ADD SLOAD PUSH1 0x20 DUP4 ADD SWAP1 DUP2 MSTORE PUSH1 0x2 DUP3 ADD SLOAD PUSH1 0x40 DUP5 ADD SWAP1 DUP2 MSTORE PUSH1 0x3 DUP4 ADD SLOAD SWAP2 PUSH1 0x60 DUP6 ADD SWAP3 DUP4 MSTORE PUSH1 0xA0 PUSH1 0x5 PUSH1 0x4 DUP7 ADD SLOAD SWAP6 PUSH1 0x80 DUP9 ADD SWAP7 DUP8 MSTORE ADD SLOAD SWAP6 ADD SWAP5 DUP6 MSTORE PUSH1 0x40 MLOAD SWAP6 DUP7 MSTORE MLOAD PUSH1 0x20 DUP7 ADD MSTORE MLOAD PUSH1 0x40 DUP6 ADD MSTORE MLOAD PUSH1 0x60 DUP5 ADD MSTORE MLOAD PUSH1 0x80 DUP4 ADD MSTORE MLOAD PUSH1 0xA0 DUP3 ADD MSTORE RETURN JUMPDEST CALLVALUE PUSH2 0x392 JUMPI PUSH1 0x20 CALLDATASIZE PUSH1 0x3 NOT ADD SLT PUSH2 0x392 JUMPI PUSH1 0x4 CALLDATALOAD PUSH2 0x4D57 PUSH2 0x6CFC JUMP JUMPDEST DUP1 PUSH1 0x0 MSTORE PUSH1 0x5 PUSH1 0x20 MSTORE PUSH1 0x40 PUSH1 0x0 KECCAK256 SWAP1 PUSH1 0x6 PUSH1 0x20 MSTORE PUSH1 0x40 PUSH1 0x0 KECCAK256 CALLER PUSH1 0x0 MSTORE PUSH1 0x20 MSTORE PUSH1 0x40 PUSH1 0x0 KECCAK256 SWAP2 PUSH1 0x2 DUP2 ADD SWAP1 DUP2 SLOAD SWAP2 PUSH1 0xFF SWAP3 DUP4 DUP2 PUSH1 0xA8 SHR AND SWAP1 PUSH1 0x6 DUP3 LT ISZERO PUSH2 0x597 JUMPI PUSH2 0x4DA5 PUSH1 0x2 DUP7 SWAP4 EQ PUSH2 0x657B JUMP JUMPDEST PUSH1 0xA0 SHR AND SWAP5 PUSH2 0x4DB3 DUP7 PUSH2 0x638A JUMP JUMPDEST PUSH2 0x4DC0 PUSH1 0x1 DUP1 SWAP8 EQ PUSH2 0x66B8 JUMP JUMPDEST PUSH3 0x20001 PUSH1 0x4 DUP3 ADD SWAP2 DUP3 SLOAD SWAP1 PUSH2 0x4DDA DUP8 DUP4 PUSH1 0x8 SHR AND PUSH2 0x66F9 JUMP JUMPDEST PUSH2 0x4DE6 DUP8 DUP4 AND ISZERO PUSH2 0x65C6 JUMP JUMPDEST PUSH1 0x0 NOT PUSH1 0x2 DUP3 ADD SSTORE PUSH1 0x64 DUP10 DUP3 ADD SSTORE PUSH1 0x3 TIMESTAMP SWAP2 ADD SSTORE PUSH3 0xFF00FF NOT AND OR SWAP1 SSTORE SLOAD SWAP1 DUP5 DUP4 DUP4 PUSH1 0xB0 SHR AND PUSH2 0x4E15 DUP2 PUSH2 0x638A JUMP JUMPDEST EQ DUP1 PUSH2 0x4EE8 JUMPI JUMPDEST PUSH2 0x4EAD JUMPI JUMPDEST PUSH1 0x7 DUP2 ADD SWAP1 PUSH2 0x4E30 DUP3 SLOAD PUSH2 0x6518 JUMP JUMPDEST DUP1 SWAP3 SSTORE PUSH1 0x3 DUP2 ADD SLOAD DUP7 SHR PUSH1 0x40 MLOAD SWAP1 PUSH1 0x5 DUP3 MSTORE PUSH1 0x20 DUP3 ADD MSTORE DUP6 PUSH1 0x0 DUP1 MLOAD PUSH1 0x20 PUSH2 0x88BE DUP4 CODECOPY DUP2 MLOAD SWAP2 MSTORE PUSH1 0x40 CALLER SWAP4 LOG3 DUP6 DUP5 DUP5 PUSH1 0xA0 SHR AND PUSH2 0x4E6C DUP2 PUSH2 0x638A JUMP JUMPDEST EQ PUSH2 0x4E76 JUMPI DUP6 DUP1 SSTORE STOP JUMPDEST PUSH1 0x5 ADD SLOAD GT ISZERO PUSH2 0x4E88 JUMPI JUMPDEST DUP1 DUP1 DUP6 DUP1 SSTORE STOP JUMPDEST PUSH1 0xA8 SHR AND SWAP1 PUSH1 0x6 DUP3 LT ISZERO PUSH2 0x597 JUMPI PUSH2 0xAB2 PUSH1 0x2 PUSH2 0x4EA5 SWAP4 EQ PUSH2 0x6673 JUMP JUMPDEST DUP2 DUP1 DUP1 PUSH2 0x4E81 JUMP JUMPDEST PUSH1 0x3 DUP2 ADD SLOAD PUSH1 0x32 DUP2 MUL SWAP1 DUP1 DUP3 DIV PUSH1 0x32 EQ DUP2 ISZERO OR ISZERO PUSH2 0xDA5 JUMPI PUSH1 0x64 PUSH2 0x4ED2 SWAP3 DIV SWAP1 PUSH2 0x6471 JUMP JUMPDEST PUSH2 0x4EE1 PUSH1 0x4 DUP4 ADD SWAP2 DUP3 SLOAD PUSH2 0x65B9 JUMP JUMPDEST SWAP1 SSTORE PUSH2 0x4E21 JUMP JUMPDEST POP PUSH1 0x3 DUP2 ADD SLOAD ISZERO ISZERO PUSH2 0x4E1C JUMP JUMPDEST CALLVALUE PUSH2 0x392 JUMPI PUSH1 0x40 CALLDATASIZE PUSH1 0x3 NOT ADD SLT PUSH2 0x392 JUMPI PUSH1 0x4 CALLDATALOAD PUSH2 0x4F11 PUSH2 0x604D JUMP JUMPDEST DUP2 PUSH1 0x0 MSTORE PUSH1 0x20 PUSH1 0x5 DUP2 MSTORE PUSH1 0x40 PUSH1 0x0 KECCAK256 PUSH1 0xD DUP3 MSTORE PUSH1 0x40 PUSH1 0x0 KECCAK256 SWAP3 PUSH1 0x1 DUP1 PUSH1 0xA0 SHL SUB AND SWAP3 DUP4 PUSH1 0x0 MSTORE DUP3 MSTORE PUSH1 0x40 PUSH1 0x0 KECCAK256 DUP5 PUSH1 0x0 MSTORE PUSH1 0x6 DUP4 MSTORE PUSH1 0x40 PUSH1 0x0 KECCAK256 DUP5 PUSH1 0x0 MSTORE DUP4 MSTORE PUSH1 0x40 PUSH1 0x0 KECCAK256 SWAP4 PUSH1 0x2 DUP4 ADD SWAP2 PUSH1 0xFF SWAP6 DUP7 DUP5 SLOAD PUSH1 0xA8 SHR AND PUSH1 0x6 DUP2 LT ISZERO PUSH2 0x597 JUMPI PUSH1 0x2 PUSH2 0x4F7B SWAP2 EQ PUSH2 0x657B JUMP JUMPDEST PUSH1 0x1 DUP3 ADD SWAP2 DUP3 SLOAD DUP9 DUP1 DUP3 AND SWAP2 DUP3 PUSH2 0x5135 JUMPI JUMPDEST POP POP ISZERO PUSH2 0x50FC JUMPI PUSH1 0x2 ADD SLOAD PUSH2 0x12C DUP2 ADD DUP1 SWAP2 GT PUSH2 0xDA5 JUMPI TIMESTAMP GT ISZERO PUSH2 0x50B7 JUMPI PUSH3 0x20001 PUSH1 0x4 DUP3 ADD SWAP2 DUP3 SLOAD SWAP1 PUSH2 0x4FC3 DUP11 DUP4 AND ISZERO PUSH2 0x65C6 JUMP JUMPDEST DUP11 PUSH1 0x0 MSTORE PUSH1 0x15 DUP10 MSTORE PUSH1 0x40 PUSH1 0x0 KECCAK256 DUP7 PUSH1 0x0 MSTORE DUP10 MSTORE PUSH2 0x4FE7 DUP11 PUSH1 0x40 PUSH1 0x0 KECCAK256 SLOAD AND ISZERO PUSH2 0x6606 JUMP JUMPDEST PUSH1 0x0 NOT PUSH1 0x2 DUP3 ADD SSTORE PUSH1 0x64 PUSH1 0x1 DUP3 ADD SSTORE PUSH1 0x3 TIMESTAMP SWAP2 ADD SSTORE PUSH3 0xFF00FF NOT AND OR SWAP1 SSTORE PUSH2 0x100 PUSH2 0xFF00 NOT DUP3 SLOAD AND OR SWAP1 SSTORE DUP6 PUSH1 0x0 MSTORE PUSH1 0x15 DUP5 MSTORE PUSH1 0x40 PUSH1 0x0 KECCAK256 DUP2 PUSH1 0x0 MSTORE DUP5 MSTORE PUSH1 0x40 PUSH1 0x0 KECCAK256 PUSH1 0x1 PUSH1 0xFF NOT DUP3 SLOAD AND OR SWAP1 SSTORE DUP6 PUSH1 0x0 DUP1 MLOAD PUSH1 0x20 PUSH2 0x88BE DUP4 CODECOPY DUP2 MLOAD SWAP2 MSTORE PUSH1 0x40 PUSH1 0x7 DUP7 ADD SWAP7 PUSH2 0x5056 DUP9 SLOAD PUSH2 0x6518 JUMP JUMPDEST DUP9 SSTORE DUP5 PUSH1 0x0 MSTORE PUSH1 0x17 DUP2 MSTORE DUP2 PUSH1 0x0 KECCAK256 PUSH2 0x506E DUP2 SLOAD PUSH2 0x6518 JUMP JUMPDEST SWAP1 SSTORE DUP5 PUSH1 0x0 MSTORE PUSH1 0x16 DUP2 MSTORE TIMESTAMP DUP3 PUSH1 0x0 KECCAK256 SSTORE DUP5 DUP5 PUSH1 0x0 DUP1 MLOAD PUSH1 0x20 PUSH2 0x885E DUP4 CODECOPY DUP2 MLOAD SWAP2 MSTORE DUP4 DUP6 MLOAD PUSH1 0x64 DUP2 MSTORE LOG3 PUSH1 0x0 DUP3 MLOAD SWAP2 PUSH1 0x3 DUP4 MSTORE DUP3 ADD MSTORE LOG3 SLOAD SWAP2 PUSH1 0x1 DUP5 DUP5 PUSH1 0xA0 SHR AND PUSH2 0x1EF4 DUP2 PUSH2 0x638A JUMP JUMPDEST PUSH1 0x40 MLOAD PUSH3 0x461BCD PUSH1 0xE5 SHL DUP2 MSTORE PUSH1 0x4 DUP2 ADD DUP8 SWAP1 MSTORE PUSH1 0x17 PUSH1 0x24 DUP3 ADD MSTORE PUSH32 0x52657665616C2074696D65206E6F742065787069726564000000000000000000 PUSH1 0x44 DUP3 ADD MSTORE PUSH1 0x64 SWAP1 REVERT JUMPDEST PUSH1 0x40 MLOAD PUSH3 0x461BCD PUSH1 0xE5 SHL DUP2 MSTORE PUSH1 0x4 DUP2 ADD DUP9 SWAP1 MSTORE PUSH1 0x11 PUSH1 0x24 DUP3 ADD MSTORE PUSH17 0x139BC81C195B991A5B99C81C995D99585B PUSH1 0x7A SHL PUSH1 0x44 DUP3 ADD MSTORE PUSH1 0x64 SWAP1 REVERT JUMPDEST PUSH1 0x8 SHR AND ISZERO SWAP1 POP DUP9 DUP12 PUSH2 0x4F8D JUMP JUMPDEST CALLVALUE PUSH2 0x392 JUMPI PUSH1 0x0 CALLDATASIZE PUSH1 0x3 NOT ADD SLT PUSH2 0x392 JUMPI PUSH1 0x20 PUSH1 0x40 MLOAD PUSH2 0x12C DUP2 MSTORE RETURN JUMPDEST CALLVALUE PUSH2 0x392 JUMPI PUSH1 0x0 CALLDATASIZE PUSH1 0x3 NOT ADD SLT PUSH2 0x392 JUMPI PUSH1 0x20 PUSH1 0x40 MLOAD PUSH1 0x6 DUP2 MSTORE RETURN JUMPDEST CALLVALUE PUSH2 0x392 JUMPI PUSH1 0x0 CALLDATASIZE PUSH1 0x3 NOT ADD SLT PUSH2 0x392 JUMPI PUSH1 0x20 PUSH1 0x40 MLOAD PUSH1 0x64 DUP2 MSTORE RETURN JUMPDEST CALLVALUE PUSH2 0x392 JUMPI PUSH1 0x0 CALLDATASIZE PUSH1 0x3 NOT ADD SLT PUSH2 0x392 JUMPI PUSH1 0x20 PUSH1 0x3 SLOAD PUSH1 0x40 MLOAD SWAP1 DUP2 MSTORE RETURN JUMPDEST CALLVALUE PUSH2 0x392 JUMPI PUSH1 0x0 CALLDATASIZE PUSH1 0x3 NOT ADD SLT PUSH2 0x392 JUMPI PUSH3 0x15180 TIMESTAMP DIV DUP1 PUSH1 0x0 MSTORE PUSH1 0x20 PUSH1 0xE DUP2 MSTORE PUSH1 0x40 PUSH1 0x0 KECCAK256 SLOAD ISZERO PUSH2 0x51E4 JUMPI STOP JUMPDEST PUSH1 0x40 MLOAD PUSH4 0xF8413B07 PUSH1 0xE0 SHL DUP2 MSTORE DUP2 DUP2 PUSH1 0x4 DUP2 PUSH1 0x0 PUSH32 0x0 PUSH1 0x1 PUSH1 0x1 PUSH1 0xA0 SHL SUB AND GAS CALL DUP1 ISZERO PUSH2 0x15FA JUMPI PUSH2 0x525C JUMPI JUMPDEST POP PUSH32 0xC0E1EE3DF0CCC2047D8CFBC4BA1057D58B46FD44D040AE612052E94C48B98B20 SWAP1 PUSH1 0x40 MLOAD PUSH1 0x0 DUP2 MSTORE LOG2 STOP JUMPDEST DUP2 SWAP1 DUP2 RETURNDATASIZE DUP4 GT PUSH2 0x527F JUMPI JUMPDEST PUSH2 0x5271 DUP2 DUP4 PUSH2 0x6150 JUMP JUMPDEST DUP2 ADD SUB SLT PUSH2 0x392 JUMPI DUP3 PUSH2 0x522F JUMP JUMPDEST POP RETURNDATASIZE PUSH2 0x5267 JUMP JUMPDEST CALLVALUE PUSH2 0x392 JUMPI PUSH1 0x0 CALLDATASIZE PUSH1 0x3 NOT ADD SLT PUSH2 0x392 JUMPI PUSH1 0x20 PUSH1 0x40 MLOAD PUSH1 0xA DUP2 MSTORE RETURN JUMPDEST CALLVALUE PUSH2 0x392 JUMPI PUSH1 0x0 CALLDATASIZE PUSH1 0x3 NOT ADD SLT PUSH2 0x392 JUMPI PUSH1 0x20 PUSH1 0x40 MLOAD PUSH1 0x32 DUP2 MSTORE RETURN JUMPDEST CALLVALUE PUSH2 0x392 JUMPI PUSH1 0x20 CALLDATASIZE PUSH1 0x3 NOT ADD SLT PUSH2 0x392 JUMPI PUSH1 0x4 CALLDATALOAD DUP1 PUSH1 0x0 MSTORE PUSH1 0xA PUSH1 0x20 MSTORE PUSH2 0x52EF PUSH1 0xFF PUSH1 0x2 PUSH1 0x40 PUSH1 0x0 KECCAK256 ADD SLOAD AND PUSH2 0x653B JUMP JUMPDEST PUSH1 0x0 MSTORE PUSH1 0xA PUSH1 0x20 MSTORE PUSH1 0x20 PUSH1 0x1 PUSH1 0x40 PUSH1 0x0 KECCAK256 ADD SLOAD PUSH1 0x40 MLOAD SWAP1 DUP2 MSTORE RETURN JUMPDEST CALLVALUE PUSH2 0x392 JUMPI PUSH1 0x20 CALLDATASIZE PUSH1 0x3 NOT ADD SLT PUSH2 0x392 JUMPI PUSH1 0x1 PUSH1 0x1 PUSH1 0xA0 SHL SUB PUSH2 0x532B PUSH2 0x6037 JUMP JUMPDEST AND PUSH1 0x0 MSTORE PUSH1 0x17 PUSH1 0x20 MSTORE PUSH1 0x20 PUSH1 0x40 PUSH1 0x0 KECCAK256 SLOAD PUSH1 0x40 MLOAD SWAP1 DUP2 MSTORE RETURN JUMPDEST CALLVALUE PUSH2 0x392 JUMPI PUSH1 0x0 CALLDATASIZE PUSH1 0x3 NOT ADD SLT PUSH2 0x392 JUMPI PUSH1 0x2 DUP1 SLOAD PUSH2 0x5362 DUP2 PUSH2 0x64E6 JUMP JUMPDEST SWAP2 PUSH1 0x0 SWAP2 PUSH1 0x1 JUMPDEST DUP2 DUP2 GT ISZERO PUSH2 0x53BD JUMPI POP POP POP PUSH2 0x537D DUP2 PUSH2 0x64E6 JUMP JUMPDEST SWAP2 PUSH1 0x0 JUMPDEST DUP3 DUP2 LT PUSH2 0x539E JUMPI PUSH1 0x40 MLOAD PUSH1 0x20 DUP1 DUP3 MSTORE DUP2 SWAP1 PUSH2 0x11A1 SWAP1 DUP3 ADD DUP8 PUSH2 0x63A1 JUMP JUMPDEST DUP1 PUSH2 0x53AB PUSH1 0x1 SWAP3 DUP5 PUSH2 0x6527 JUMP JUMPDEST MLOAD PUSH2 0x53B6 DUP3 DUP8 PUSH2 0x6527 JUMP JUMPDEST MSTORE ADD PUSH2 0x5381 JUMP JUMPDEST DUP1 PUSH1 0x0 MSTORE PUSH1 0x5 PUSH1 0x20 SWAP1 DUP1 DUP3 MSTORE PUSH1 0xFF DUP6 PUSH1 0x40 PUSH1 0x0 KECCAK256 ADD SLOAD DUP2 PUSH1 0xA8 SWAP2 DUP3 SHR AND SWAP3 PUSH1 0x6 SWAP4 DUP5 DUP2 LT ISZERO PUSH2 0x597 JUMPI ISZERO SWAP5 DUP6 ISZERO PUSH2 0x5457 JUMPI JUMPDEST DUP6 ISZERO PUSH2 0x542F JUMPI JUMPDEST POP POP POP POP POP PUSH2 0x540E JUMPI JUMPDEST PUSH2 0x5409 SWAP1 PUSH2 0x6518 JUMP JUMPDEST PUSH2 0x5369 JUMP JUMPDEST SWAP3 PUSH2 0x5427 DUP2 DUP6 PUSH2 0x5421 PUSH2 0x5409 SWAP5 DUP10 PUSH2 0x6527 JUMP JUMPDEST MSTORE PUSH2 0x6518 JUMP JUMPDEST SWAP4 SWAP1 POP PUSH2 0x5400 JUMP JUMPDEST PUSH1 0x0 DUP8 DUP2 MSTORE SWAP2 SWAP1 MSTORE PUSH1 0x40 SWAP1 KECCAK256 DUP8 ADD SLOAD SWAP1 SHR AND SWAP2 POP DUP2 LT ISZERO PUSH2 0x597 JUMPI PUSH1 0x1 EQ DUP7 DUP1 DUP1 DUP1 DUP1 PUSH2 0x53F6 JUMP JUMPDEST SWAP5 POP DUP6 PUSH1 0x0 MSTORE DUP1 DUP6 MSTORE DUP3 DUP9 PUSH1 0x40 PUSH1 0x0 KECCAK256 ADD SLOAD DUP4 SHR AND DUP5 DUP2 LT ISZERO PUSH2 0x597 JUMPI DUP9 EQ SWAP5 PUSH2 0x53EF JUMP JUMPDEST CALLVALUE PUSH2 0x392 JUMPI PUSH1 0x0 CALLDATASIZE PUSH1 0x3 NOT ADD SLT PUSH2 0x392 JUMPI PUSH1 0x40 MLOAD PUSH32 0x0 PUSH1 0x1 PUSH1 0x1 PUSH1 0xA0 SHL SUB AND DUP2 MSTORE PUSH1 0x20 SWAP1 RETURN JUMPDEST CALLVALUE PUSH2 0x392 JUMPI PUSH1 0x20 CALLDATASIZE PUSH1 0x3 NOT ADD SLT PUSH2 0x392 JUMPI PUSH1 0x1 PUSH1 0x1 PUSH1 0xA0 SHL SUB PUSH2 0x54E2 PUSH2 0x6037 JUMP JUMPDEST AND PUSH1 0x0 MSTORE PUSH1 0x13 PUSH1 0x20 MSTORE PUSH1 0x20 PUSH1 0x40 PUSH1 0x0 KECCAK256 SLOAD PUSH1 0x40 MLOAD SWAP1 DUP2 MSTORE RETURN JUMPDEST CALLVALUE PUSH2 0x392 JUMPI PUSH1 0x0 CALLDATASIZE PUSH1 0x3 NOT ADD SLT PUSH2 0x392 JUMPI PUSH2 0x5514 PUSH2 0x6C51 JUMP JUMPDEST PUSH1 0x3 SLOAD DUP1 ISZERO PUSH2 0x5568 JUMPI PUSH1 0x0 PUSH1 0x3 SSTORE PUSH32 0x41FDD680478135993BC53FB2FFAF9560951B57EF62FF6BADD02B61E018B4F17F PUSH1 0x20 PUSH1 0x1 DUP1 PUSH1 0xA0 SHL SUB PUSH2 0x555A DUP5 DUP3 PUSH1 0x0 SLOAD AND PUSH2 0x6C7D JUMP JUMPDEST PUSH1 0x0 SLOAD AND SWAP3 PUSH1 0x40 MLOAD SWAP1 DUP2 MSTORE LOG2 STOP JUMPDEST PUSH1 0x40 MLOAD PUSH3 0x461BCD PUSH1 0xE5 SHL DUP2 MSTORE PUSH1 0x20 PUSH1 0x4 DUP3 ADD MSTORE PUSH1 0x8 PUSH1 0x24 DUP3 ADD MSTORE PUSH8 0x4E6F2066756E6473 PUSH1 0xC0 SHL PUSH1 0x44 DUP3 ADD MSTORE PUSH1 0x64 SWAP1 REVERT JUMPDEST CALLVALUE PUSH2 0x392 JUMPI PUSH1 0x20 DUP1 PUSH1 0x3 NOT CALLDATASIZE ADD SLT PUSH2 0x392 JUMPI PUSH1 0x4 CALLDATALOAD PUSH1 0x0 MSTORE PUSH1 0x7 DUP2 MSTORE PUSH1 0x40 PUSH1 0x0 KECCAK256 PUSH1 0x40 MLOAD SWAP1 DUP2 DUP4 DUP3 SLOAD SWAP2 DUP3 DUP2 MSTORE ADD SWAP1 DUP2 SWAP3 PUSH1 0x0 MSTORE DUP5 PUSH1 0x0 KECCAK256 SWAP1 PUSH1 0x0 JUMPDEST DUP7 DUP3 DUP3 LT PUSH2 0x5633 JUMPI DUP7 DUP7 PUSH2 0x55EA DUP3 DUP9 SUB DUP4 PUSH2 0x6150 JUMP JUMPDEST PUSH1 0x40 MLOAD SWAP3 DUP4 SWAP3 DUP2 DUP5 ADD SWAP1 DUP3 DUP6 MSTORE MLOAD DUP1 SWAP2 MSTORE PUSH1 0x40 DUP5 ADD SWAP3 SWAP2 PUSH1 0x0 JUMPDEST DUP3 DUP2 LT PUSH2 0x5613 JUMPI POP POP POP POP SUB SWAP1 RETURN JUMPDEST DUP4 MLOAD PUSH1 0x1 PUSH1 0x1 PUSH1 0xA0 SHL SUB AND DUP6 MSTORE DUP7 SWAP6 POP SWAP4 DUP2 ADD SWAP4 SWAP3 DUP2 ADD SWAP3 PUSH1 0x1 ADD PUSH2 0x5604 JUMP JUMPDEST DUP4 SLOAD PUSH1 0x1 PUSH1 0x1 PUSH1 0xA0 SHL SUB AND DUP6 MSTORE SWAP1 SWAP4 ADD SWAP3 PUSH1 0x1 SWAP3 DUP4 ADD SWAP3 ADD PUSH2 0x55D4 JUMP JUMPDEST CALLVALUE PUSH2 0x392 JUMPI PUSH1 0x20 CALLDATASIZE PUSH1 0x3 NOT ADD SLT PUSH2 0x392 JUMPI PUSH1 0x1 PUSH1 0x1 PUSH1 0xA0 SHL SUB PUSH2 0x5671 PUSH2 0x6037 JUMP JUMPDEST AND PUSH1 0x0 MSTORE PUSH1 0x8 PUSH1 0x20 MSTORE PUSH2 0x11A1 PUSH2 0x118D PUSH1 0x40 PUSH1 0x0 KECCAK256 PUSH2 0x647E JUMP JUMPDEST CALLVALUE PUSH2 0x392 JUMPI PUSH1 0x20 CALLDATASIZE PUSH1 0x3 NOT ADD SLT PUSH2 0x392 JUMPI PUSH1 0x4 CALLDATALOAD PUSH1 0x0 MSTORE PUSH1 0x5 PUSH1 0x20 MSTORE PUSH1 0x40 PUSH1 0x0 KECCAK256 DUP1 SLOAD SWAP1 PUSH1 0x1 DUP2 ADD PUSH2 0x56BB SWAP1 PUSH2 0x629D JUMP JUMPDEST PUSH2 0x100 MSTORE PUSH1 0x2 DUP2 ADD SLOAD PUSH1 0xE0 MSTORE PUSH1 0x3 DUP2 ADD SLOAD PUSH2 0x120 MSTORE PUSH1 0x4 DUP2 ADD SLOAD SWAP2 PUSH1 0x5 DUP3 ADD SLOAD PUSH1 0x6 DUP4 ADD SLOAD PUSH1 0x7 DUP5 ADD SLOAD PUSH1 0x8 DUP6 ADD SLOAD PUSH1 0x9 DUP7 ADD SLOAD PUSH1 0xA DUP8 ADD SLOAD SWAP1 PUSH1 0xB DUP9 ADD SLOAD SWAP3 PUSH1 0x1 PUSH1 0xA0 SHL PUSH1 0x1 SWAP1 SUB PUSH1 0xC DUP11 ADD SLOAD AND SWAP5 PUSH1 0xD DUP11 ADD SLOAD SWAP7 PUSH1 0xE DUP12 ADD SLOAD SWAP9 PUSH1 0xF DUP13 ADD SLOAD SWAP11 PUSH1 0x10 DUP14 ADD SLOAD SWAP13 PUSH1 0x12 DUP2 ADD SLOAD PUSH1 0xFF AND PUSH1 0x80 MSTORE PUSH1 0x13 ADD SLOAD PUSH1 0xA0 MSTORE PUSH1 0x40 MLOAD PUSH1 0xC0 MSTORE PUSH2 0x2C0 SWAP1 PUSH1 0xC0 MLOAD MSTORE DUP1 PUSH1 0xC0 MLOAD PUSH1 0x20 ADD MSTORE PUSH1 0xC0 MLOAD ADD PUSH2 0x100 MLOAD SWAP1 PUSH2 0x575D SWAP2 PUSH2 0x6365 JUMP JUMPDEST SWAP13 PUSH1 0x1 PUSH1 0xA0 SHL PUSH1 0x1 SWAP1 SUB PUSH1 0xE0 MLOAD AND PUSH1 0xC0 MLOAD PUSH1 0x40 ADD MSTORE PUSH1 0xE0 MLOAD PUSH1 0xA0 SHR PUSH1 0xFF AND PUSH2 0x5784 SWAP1 PUSH2 0x638A JUMP JUMPDEST PUSH1 0xE0 MLOAD PUSH1 0xA0 SHR PUSH1 0xFF AND PUSH1 0xC0 MLOAD PUSH1 0x60 ADD MSTORE PUSH1 0xC0 MLOAD PUSH1 0x80 ADD PUSH1 0xE0 MLOAD PUSH1 0xA8 SHR PUSH1 0xFF AND SWAP1 PUSH2 0x57AD SWAP2 PUSH2 0x6394 JUMP JUMPDEST PUSH1 0xE0 MLOAD PUSH1 0xB0 SHR PUSH1 0xFF AND PUSH2 0x57BF SWAP1 PUSH2 0x638A JUMP JUMPDEST PUSH1 0xE0 MLOAD PUSH1 0xB0 SHR PUSH1 0xFF AND PUSH1 0xC0 MLOAD PUSH1 0xA0 ADD MSTORE PUSH2 0x120 MLOAD PUSH1 0xC0 MLOAD PUSH1 0xC0 ADD MSTORE PUSH1 0xC0 MLOAD PUSH1 0xE0 ADD MSTORE PUSH1 0xC0 MLOAD PUSH2 0x100 ADD MSTORE PUSH1 0xC0 MLOAD PUSH2 0x120 ADD MSTORE PUSH1 0xC0 MLOAD PUSH2 0x140 ADD MSTORE PUSH1 0xC0 MLOAD PUSH2 0x160 ADD MSTORE PUSH1 0xC0 MLOAD PUSH2 0x180 ADD MSTORE PUSH1 0xC0 MLOAD PUSH2 0x1A0 ADD MSTORE PUSH1 0xC0 MLOAD PUSH2 0x1C0 ADD MSTORE PUSH1 0xC0 MLOAD PUSH2 0x1E0 ADD MSTORE PUSH1 0xC0 MLOAD PUSH2 0x200 ADD MSTORE PUSH1 0xC0 MLOAD PUSH2 0x220 ADD MSTORE PUSH1 0xC0 MLOAD PUSH2 0x240 ADD MSTORE PUSH1 0xC0 MLOAD PUSH2 0x260 ADD MSTORE PUSH1 0x80 MLOAD ISZERO ISZERO PUSH1 0xC0 MLOAD PUSH2 0x280 ADD MSTORE PUSH1 0xA0 MLOAD PUSH1 0xC0 MLOAD PUSH2 0x2A0 ADD MSTORE PUSH1 0xC0 MLOAD SWAP1 SUB PUSH1 0xC0 MLOAD RETURN JUMPDEST CALLVALUE PUSH2 0x392 JUMPI PUSH2 0x5871 CALLDATASIZE PUSH2 0x6208 JUMP JUMPDEST PUSH2 0x587D SWAP5 SWAP2 SWAP4 SWAP5 PUSH2 0x6CFC JUMP JUMPDEST PUSH2 0x5888 PUSH1 0x2 SLOAD PUSH2 0x6518 JUMP JUMPDEST SWAP4 DUP5 PUSH1 0x2 SSTORE DUP5 PUSH1 0x0 MSTORE PUSH1 0x5 PUSH1 0x20 MSTORE PUSH1 0x40 PUSH1 0x0 KECCAK256 SWAP2 DUP6 DUP4 SSTORE DUP4 MLOAD PUSH1 0x1 PUSH1 0x1 PUSH1 0x40 SHL SUB DUP2 GT PUSH2 0x153C JUMPI PUSH2 0x58BC PUSH1 0x1 DUP6 ADD SLOAD PUSH2 0x6263 JUMP JUMPDEST PUSH1 0x1F DUP2 GT PUSH2 0x5CBC JUMPI JUMPDEST POP DUP1 PUSH1 0x20 PUSH1 0x1F DUP3 GT PUSH1 0x1 EQ PUSH2 0x5C4F JUMPI PUSH1 0x0 SWAP2 PUSH2 0x5C44 JUMPI JUMPDEST POP DUP2 PUSH1 0x1 SHL SWAP2 PUSH1 0x0 NOT SWAP1 PUSH1 0x3 SHL SHR NOT AND OR PUSH1 0x1 DUP5 ADD SSTORE JUMPDEST PUSH1 0x2 DUP4 ADD DUP1 SLOAD PUSH2 0x5902 DUP10 PUSH2 0x638A JUMP JUMPDEST PUSH1 0xA0 DUP10 SWAP1 SHL PUSH1 0xFF PUSH1 0xA0 SHL AND PUSH1 0x1 PUSH1 0x1 PUSH1 0xB8 SHL SUB NOT SWAP1 SWAP2 AND CALLER PUSH3 0xFFFFFF PUSH1 0xA0 SHL NOT AND OR OR SWAP1 SSTORE PUSH1 0x0 PUSH1 0x3 DUP5 ADD DUP2 SWAP1 SSTORE PUSH1 0x4 DUP5 ADD DUP2 SWAP1 SSTORE PUSH1 0x5 DUP5 ADD DUP7 SWAP1 SSTORE PUSH1 0x1 PUSH1 0x6 DUP6 ADD SSTORE PUSH1 0x7 DUP5 ADD SSTORE TIMESTAMP PUSH1 0x8 DUP5 ADD SSTORE DUP1 MLOAD DUP1 PUSH2 0x5C18 JUMPI JUMPDEST POP POP PUSH2 0x5963 DUP7 PUSH2 0x638A JUMP JUMPDEST PUSH1 0x1 DUP7 EQ DUP1 PUSH2 0x5C0F JUMPI JUMPDEST PUSH2 0x5BE5 JUMPI JUMPDEST POP POP PUSH1 0x40 MLOAD PUSH2 0x5980 DUP2 PUSH2 0x60C7 JUMP JUMPDEST CALLER DUP2 MSTORE PUSH1 0x20 DUP2 ADD PUSH1 0x0 DUP2 MSTORE PUSH2 0x5A1E PUSH1 0x40 DUP4 ADD PUSH1 0x0 DUP2 MSTORE PUSH2 0x1964 PUSH1 0x4 PUSH1 0x60 DUP7 ADD SWAP6 PUSH1 0x0 DUP8 MSTORE PUSH1 0x80 DUP2 ADD SWAP7 PUSH1 0x0 DUP9 MSTORE PUSH1 0xA0 DUP3 ADD SWAP5 PUSH1 0x1 DUP7 MSTORE PUSH1 0xC0 DUP4 ADD SWAP8 PUSH1 0x0 DUP10 MSTORE DUP13 PUSH1 0x0 MSTORE PUSH1 0x6 PUSH1 0x20 MSTORE PUSH1 0x40 PUSH1 0x0 KECCAK256 CALLER PUSH1 0x0 MSTORE PUSH1 0x20 MSTORE PUSH1 0x40 PUSH1 0x0 KECCAK256 SWAP4 PUSH1 0x1 DUP1 PUSH1 0xA0 SHL SUB SWAP1 MLOAD AND PUSH1 0x1 PUSH1 0x1 PUSH1 0x60 SHL SUB PUSH1 0xA0 SHL DUP6 SLOAD AND OR DUP5 SSTORE MLOAD PUSH1 0x1 DUP5 ADD SSTORE MLOAD PUSH1 0x2 DUP4 ADD SSTORE MLOAD PUSH1 0x3 DUP3 ADD SSTORE ADD SWAP5 MLOAD ISZERO ISZERO DUP6 SWAP1 PUSH1 0xFF DUP1 NOT DUP4 SLOAD AND SWAP2 ISZERO ISZERO AND OR SWAP1 SSTORE JUMP JUMPDEST MLOAD PUSH1 0x3 DUP2 LT ISZERO PUSH2 0x597 JUMPI PUSH2 0x5A31 SWAP2 PUSH2 0x6652 JUMP JUMPDEST DUP3 PUSH1 0x0 MSTORE PUSH1 0x7 PUSH1 0x20 MSTORE PUSH2 0x5A48 CALLER PUSH1 0x40 PUSH1 0x0 KECCAK256 PUSH2 0x6A3E JUMP JUMPDEST CALLER PUSH1 0x0 MSTORE PUSH1 0x8 PUSH1 0x20 MSTORE PUSH2 0x5A5F DUP4 PUSH1 0x40 PUSH1 0x0 KECCAK256 PUSH2 0x6A79 JUMP JUMPDEST PUSH2 0x5A68 DUP5 PUSH2 0x638A JUMP JUMPDEST DUP4 ISZERO DUP1 PUSH2 0x5BDB JUMPI JUMPDEST PUSH2 0x5AC1 JUMPI JUMPDEST PUSH1 0x0 DUP1 MLOAD PUSH1 0x20 PUSH2 0x883E DUP4 CODECOPY DUP2 MLOAD SWAP2 MSTORE SWAP2 PUSH2 0x5A9A PUSH1 0x40 MLOAD SWAP3 PUSH1 0x80 DUP5 MSTORE PUSH1 0x80 DUP5 ADD SWAP1 PUSH2 0x6365 JUMP JUMPDEST SWAP5 PUSH2 0x5AA4 DUP2 PUSH2 0x638A JUMP JUMPDEST PUSH1 0x20 DUP4 ADD MSTORE PUSH1 0x0 PUSH1 0x40 DUP4 ADD MSTORE PUSH1 0x60 DUP3 ADD MSTORE DUP1 CALLER SWAP5 SUB SWAP1 LOG3 PUSH1 0x1 DUP1 SSTORE STOP JUMPDEST PUSH1 0x40 MLOAD SWAP2 PUSH32 0x0 PUSH2 0x5AEF DUP5 PUSH2 0x60C7 JUMP JUMPDEST PUSH1 0x1 DUP1 PUSH1 0xA0 SHL SUB DUP2 AND DUP5 MSTORE PUSH1 0x0 PUSH1 0x20 DUP6 ADD MSTORE PUSH1 0x0 PUSH1 0x40 DUP6 ADD MSTORE PUSH1 0x0 PUSH1 0x60 DUP6 ADD MSTORE PUSH1 0x0 PUSH1 0x80 DUP6 ADD MSTORE PUSH1 0xA0 DUP5 ADD PUSH1 0x1 DUP2 MSTORE PUSH2 0x5BA4 PUSH1 0xC0 DUP7 ADD SWAP2 PUSH1 0x0 DUP4 MSTORE DUP8 PUSH1 0x0 MSTORE PUSH1 0x6 PUSH1 0x20 MSTORE PUSH1 0x40 PUSH1 0x0 KECCAK256 PUSH1 0x1 DUP1 PUSH1 0xA0 SHL SUB DUP6 AND PUSH1 0x0 MSTORE PUSH1 0x20 MSTORE PUSH2 0x1B00 PUSH1 0x80 PUSH1 0x4 PUSH1 0x40 PUSH1 0x0 KECCAK256 PUSH1 0x1 DUP1 PUSH1 0xA0 SHL SUB DUP12 MLOAD AND PUSH1 0x1 PUSH1 0x1 PUSH1 0x60 SHL SUB PUSH1 0xA0 SHL DUP3 SLOAD AND OR DUP2 SSTORE PUSH1 0x20 DUP12 ADD MLOAD PUSH1 0x1 DUP3 ADD SSTORE PUSH1 0x40 DUP12 ADD MLOAD PUSH1 0x2 DUP3 ADD SSTORE PUSH1 0x60 DUP12 ADD MLOAD PUSH1 0x3 DUP3 ADD SSTORE ADD SWAP9 ADD MLOAD ISZERO ISZERO DUP9 SWAP1 PUSH1 0xFF DUP1 NOT DUP4 SLOAD AND SWAP2 ISZERO ISZERO AND OR SWAP1 SSTORE JUMP JUMPDEST MLOAD SWAP1 PUSH1 0x3 DUP3 LT ISZERO PUSH2 0x597 JUMPI PUSH2 0x1B3E PUSH2 0x5BCB SWAP3 PUSH1 0x0 DUP1 MLOAD PUSH1 0x20 PUSH2 0x883E DUP4 CODECOPY DUP2 MLOAD SWAP2 MSTORE SWAP7 PUSH2 0x6652 JUMP JUMPDEST PUSH2 0x5BD4 DUP5 PUSH2 0x722A JUMP JUMPDEST SWAP2 POP PUSH2 0x5A75 JUMP JUMPDEST POP PUSH1 0x1 DUP3 EQ PUSH2 0x5A70 JUMP JUMPDEST PUSH2 0xE10 SWAP1 DUP2 DUP2 MUL SWAP2 DUP2 DUP4 DIV EQ SWAP1 ISZERO OR ISZERO PUSH2 0xDA5 JUMPI PUSH2 0x5C05 PUSH1 0xB SWAP2 TIMESTAMP PUSH2 0x65B9 JUMP JUMPDEST SWAP2 ADD SSTORE DUP5 DUP1 PUSH2 0x5972 JUMP JUMPDEST POP DUP1 ISZERO ISZERO PUSH2 0x596D JUMP JUMPDEST PUSH2 0x5C35 PUSH1 0x20 DUP1 SWAP4 DUP4 PUSH2 0x146E PUSH1 0x40 MLOAD SWAP6 DUP7 SWAP4 DUP6 DUP6 ADD SWAP9 DUP10 SWAP2 ADD PUSH2 0x6342 JUMP JUMPDEST MLOAD SWAP1 KECCAK256 PUSH1 0x13 DUP4 ADD SSTORE DUP7 DUP1 PUSH2 0x5958 JUMP JUMPDEST SWAP1 POP DUP6 ADD MLOAD DUP10 PUSH2 0x58DC JUMP JUMPDEST SWAP2 POP PUSH1 0x1 DUP6 ADD PUSH1 0x0 MSTORE PUSH1 0x20 PUSH1 0x0 KECCAK256 PUSH1 0x0 SWAP3 JUMPDEST PUSH1 0x1F NOT DUP4 AND DUP5 LT PUSH2 0x5CA4 JUMPI PUSH1 0x1 SWAP4 POP DUP3 PUSH1 0x1F NOT DUP2 AND LT PUSH2 0x5C8B JUMPI JUMPDEST POP POP DUP2 SHL ADD PUSH1 0x1 DUP5 ADD SSTORE PUSH2 0x58F3 JUMP JUMPDEST DUP8 ADD MLOAD PUSH1 0x0 NOT PUSH1 0xF8 DUP5 PUSH1 0x3 SHL AND SHR NOT AND SWAP1 SSTORE DUP10 DUP1 PUSH2 0x5C7C JUMP JUMPDEST DUP8 DUP2 ADD MLOAD DUP3 SSTORE PUSH1 0x20 SWAP4 DUP5 ADD SWAP4 PUSH1 0x1 SWAP1 SWAP3 ADD SWAP2 ADD PUSH2 0x5C61 JUMP JUMPDEST PUSH2 0x5CEB SWAP1 PUSH1 0x1 DUP7 ADD PUSH1 0x0 MSTORE PUSH1 0x20 PUSH1 0x0 KECCAK256 PUSH1 0x1F DUP5 ADD PUSH1 0x5 SHR DUP2 ADD SWAP2 PUSH1 0x20 DUP6 LT PUSH2 0x1532 JUMPI PUSH1 0x1F ADD PUSH1 0x5 SHR ADD SWAP1 PUSH2 0x6D1F JUMP JUMPDEST DUP9 PUSH2 0x58C5 JUMP JUMPDEST CALLVALUE PUSH2 0x392 JUMPI PUSH2 0x5CFF CALLDATASIZE PUSH2 0x61D3 JUMP JUMPDEST PUSH2 0x5D07 PUSH2 0x6CFC JUMP JUMPDEST PUSH3 0x15180 TIMESTAMP DIV SWAP2 DUP3 PUSH1 0x0 MSTORE PUSH1 0x20 SWAP3 PUSH1 0xE DUP5 MSTORE PUSH1 0x40 PUSH1 0x0 KECCAK256 SLOAD ISZERO PUSH2 0x5EA4 JUMPI JUMPDEST POP PUSH1 0x40 MLOAD SWAP4 PUSH2 0x5D33 DUP6 PUSH2 0x60FE JUMP JUMPDEST PUSH1 0x0 DUP6 MSTORE PUSH2 0x5D42 PUSH1 0x2 SLOAD PUSH2 0x6518 JUMP JUMPDEST SWAP3 DUP4 PUSH1 0x2 SSTORE DUP4 PUSH1 0x0 MSTORE PUSH1 0x5 DUP6 MSTORE PUSH1 0x40 PUSH1 0x0 KECCAK256 SWAP1 DUP5 DUP3 SSTORE PUSH1 0x1 SWAP7 DUP8 DUP4 ADD SWAP1 DUP5 MLOAD SWAP2 PUSH1 0x1 PUSH1 0x1 PUSH1 0x40 SHL SUB DUP4 GT PUSH2 0x153C JUMPI DUP9 SWAP3 PUSH2 0x5D7C DUP3 SLOAD PUSH2 0x6263 JUMP JUMPDEST PUSH1 0x1F DUP2 GT PUSH2 0x5E74 JUMPI JUMPDEST POP DUP4 PUSH1 0x1F DUP3 GT PUSH1 0x1 EQ PUSH2 0x5E23 JUMPI PUSH1 0x0 SWAP1 DUP3 PUSH2 0x148B JUMPI POP PUSH1 0x0 NOT PUSH1 0x3 DUP4 SWAP1 SHL SHR NOT AND SWAP1 DUP12 SHL OR SWAP1 SSTORE PUSH1 0x2 DUP5 ADD DUP1 SLOAD PUSH1 0x1 PUSH2 0xFF01 PUSH1 0xA8 SHL SUB NOT AND CALLER PUSH3 0xFF00FF PUSH1 0xA0 SHL NOT AND OR PUSH1 0x1 PUSH1 0xA0 SHL OR PUSH1 0xFF PUSH1 0xA8 SHL NOT AND SWAP1 SSTORE PUSH1 0x0 PUSH1 0x3 DUP6 ADD DUP2 SWAP1 SSTORE PUSH1 0x4 DUP6 ADD DUP2 SWAP1 SSTORE PUSH1 0x5 DUP6 ADD DUP8 SWAP1 SSTORE PUSH1 0x6 DUP6 ADD DUP11 SWAP1 SSTORE PUSH1 0x7 DUP6 ADD SSTORE TIMESTAMP PUSH1 0x8 DUP6 ADD SSTORE DUP1 MLOAD SWAP1 DUP2 PUSH2 0x1453 JUMPI POP POP POP DUP1 ISZERO DUP1 ISZERO PUSH2 0x142C JUMPI POP POP POP PUSH1 0x40 MLOAD SWAP2 PUSH2 0x12F9 DUP4 PUSH2 0x60C7 JUMP JUMPDEST SWAP1 DUP12 SWAP2 PUSH1 0x1F NOT DUP3 AND SWAP1 DUP5 PUSH1 0x0 MSTORE DUP7 PUSH1 0x0 KECCAK256 SWAP2 PUSH1 0x0 JUMPDEST DUP2 DUP2 LT PUSH2 0x5E52 JUMPI POP DUP4 GT PUSH2 0x14C6 JUMPI POP POP DUP2 SHL ADD SWAP1 SSTORE PUSH2 0x1280 JUMP JUMPDEST SWAP4 SWAP6 SWAP7 SWAP8 SWAP2 SWAP5 DUP3 SWAP2 SWAP4 DUP7 DUP14 ADD MLOAD DUP2 SSTORE ADD SWAP5 ADD SWAP3 ADD SWAP2 DUP14 SWAP4 SWAP2 DUP14 SWAP8 SWAP7 SWAP6 SWAP4 PUSH2 0x5E38 JUMP JUMPDEST PUSH2 0x5E9E SWAP1 DUP4 PUSH1 0x0 MSTORE DUP6 PUSH1 0x0 KECCAK256 PUSH1 0x1F DUP5 ADD PUSH1 0x5 SHR DUP2 ADD SWAP2 DUP8 DUP6 LT PUSH2 0x1532 JUMPI PUSH1 0x1F ADD PUSH1 0x5 SHR ADD SWAP1 PUSH2 0x6D1F JUMP JUMPDEST DUP12 PUSH2 0x5D85 JUMP JUMPDEST PUSH1 0x40 MLOAD PUSH4 0xF8413B07 PUSH1 0xE0 SHL DUP2 MSTORE DUP5 DUP2 PUSH1 0x4 DUP2 PUSH1 0x0 PUSH32 0x0 PUSH1 0x1 PUSH1 0x1 PUSH1 0xA0 SHL SUB AND GAS CALL SWAP1 DUP2 ISZERO PUSH2 0x15FA JUMPI DUP6 SWAP2 PUSH2 0x5F23 JUMPI JUMPDEST POP PUSH32 0xC0E1EE3DF0CCC2047D8CFBC4BA1057D58B46FD44D040AE612052E94C48B98B20 SWAP1 PUSH1 0x40 MLOAD PUSH1 0x0 DUP2 MSTORE LOG2 DUP5 PUSH2 0x5D25 JUMP JUMPDEST DUP2 RETURNDATASIZE DUP4 GT PUSH2 0x5F45 JUMPI JUMPDEST PUSH2 0x5F36 DUP2 DUP4 PUSH2 0x6150 JUMP JUMPDEST DUP2 ADD SUB SLT PUSH2 0x392 JUMPI DUP4 DUP7 PUSH2 0x5EF2 JUMP JUMPDEST POP RETURNDATASIZE PUSH2 0x5F2C JUMP JUMPDEST CALLVALUE PUSH2 0x392 JUMPI PUSH1 0x40 CALLDATASIZE PUSH1 0x3 NOT ADD SLT PUSH2 0x392 JUMPI PUSH2 0x5F65 PUSH2 0x6037 JUMP JUMPDEST PUSH1 0x1 PUSH1 0x1 PUSH1 0xA0 SHL SUB AND PUSH1 0x0 SWAP1 DUP2 MSTORE PUSH1 0x8 PUSH1 0x20 MSTORE PUSH1 0x40 SWAP1 KECCAK256 DUP1 SLOAD PUSH1 0x24 CALLDATALOAD SWAP2 SWAP1 DUP3 LT ISZERO PUSH2 0x392 JUMPI PUSH1 0x20 SWAP2 PUSH2 0x5F96 SWAP2 PUSH2 0x6063 JUMP JUMPDEST SWAP1 SLOAD PUSH1 0x40 MLOAD SWAP2 PUSH1 0x3 SHL SHR DUP2 MSTORE RETURN JUMPDEST CALLVALUE PUSH2 0x392 JUMPI PUSH1 0x20 CALLDATASIZE PUSH1 0x3 NOT ADD SLT PUSH2 0x392 JUMPI PUSH32 0xFCC9E1BAB18876E9DA15B014AF31492EB0229B8BC33B8EDDE9689AFE3617F67B PUSH1 0x40 PUSH1 0x4 CALLDATALOAD PUSH2 0x5FE3 PUSH2 0x6C51 JUMP JUMPDEST DUP1 ISZERO ISZERO DUP1 PUSH2 0x602B JUMPI JUMPDEST PUSH2 0x5FF5 SWAP1 PUSH2 0x642E JUMP JUMPDEST PUSH2 0x6001 DUP2 PUSH1 0x4 SLOAD PUSH2 0x6471 JUMP JUMPDEST PUSH1 0x4 SSTORE PUSH1 0x0 SLOAD PUSH2 0x601B SWAP1 DUP3 SWAP1 PUSH1 0x1 PUSH1 0x1 PUSH1 0xA0 SHL SUB AND PUSH2 0x6C7D JUMP JUMPDEST PUSH1 0x4 SLOAD DUP3 MLOAD SWAP2 DUP3 MSTORE PUSH1 0x20 DUP3 ADD MSTORE LOG1 STOP JUMPDEST POP PUSH1 0x4 SLOAD DUP2 GT ISZERO PUSH2 0x5FEC JUMP JUMPDEST PUSH1 0x4 CALLDATALOAD SWAP1 PUSH1 0x1 PUSH1 0x1 PUSH1 0xA0 SHL SUB DUP3 AND DUP3 SUB PUSH2 0x392 JUMPI JUMP JUMPDEST PUSH1 0x24 CALLDATALOAD SWAP1 PUSH1 0x1 PUSH1 0x1 PUSH1 0xA0 SHL SUB DUP3 AND DUP3 SUB PUSH2 0x392 JUMPI JUMP JUMPDEST DUP1 SLOAD DUP3 LT ISZERO PUSH2 0x607B JUMPI PUSH1 0x0 MSTORE PUSH1 0x20 PUSH1 0x0 KECCAK256 ADD SWAP1 PUSH1 0x0 SWAP1 JUMP JUMPDEST PUSH4 0x4E487B71 PUSH1 0xE0 SHL PUSH1 0x0 MSTORE PUSH1 0x32 PUSH1 0x4 MSTORE PUSH1 0x24 PUSH1 0x0 REVERT JUMPDEST PUSH1 0xC0 DUP2 ADD SWAP1 DUP2 LT PUSH1 0x1 PUSH1 0x1 PUSH1 0x40 SHL SUB DUP3 GT OR PUSH2 0x153C JUMPI PUSH1 0x40 MSTORE JUMP JUMPDEST PUSH1 0x80 DUP2 ADD SWAP1 DUP2 LT PUSH1 0x1 PUSH1 0x1 PUSH1 0x40 SHL SUB DUP3 GT OR PUSH2 0x153C JUMPI PUSH1 0x40 MSTORE JUMP JUMPDEST PUSH1 0xE0 DUP2 ADD SWAP1 DUP2 LT PUSH1 0x1 PUSH1 0x1 PUSH1 0x40 SHL SUB DUP3 GT OR PUSH2 0x153C JUMPI PUSH1 0x40 MSTORE JUMP JUMPDEST PUSH2 0x2E0 DUP2 ADD SWAP1 DUP2 LT PUSH1 0x1 PUSH1 0x1 PUSH1 0x40 SHL SUB DUP3 GT OR PUSH2 0x153C JUMPI PUSH1 0x40 MSTORE JUMP JUMPDEST PUSH1 0x20 DUP2 ADD SWAP1 DUP2 LT PUSH1 0x1 PUSH1 0x1 PUSH1 0x40 SHL SUB DUP3 GT OR PUSH2 0x153C JUMPI PUSH1 0x40 MSTORE JUMP JUMPDEST PUSH1 0x60 DUP2 ADD SWAP1 DUP2 LT PUSH1 0x1 PUSH1 0x1 PUSH1 0x40 SHL SUB DUP3 GT OR PUSH2 0x153C JUMPI PUSH1 0x40 MSTORE JUMP JUMPDEST PUSH2 0x1A0 DUP2 ADD SWAP1 DUP2 LT PUSH1 0x1 PUSH1 0x1 PUSH1 0x40 SHL SUB DUP3 GT OR PUSH2 0x153C JUMPI PUSH1 0x40 MSTORE JUMP JUMPDEST SWAP1 PUSH1 0x1F DUP1 NOT SWAP2 ADD AND DUP2 ADD SWAP1 DUP2 LT PUSH1 0x1 PUSH1 0x1 PUSH1 0x40 SHL SUB DUP3 GT OR PUSH2 0x153C JUMPI PUSH1 0x40 MSTORE JUMP JUMPDEST PUSH1 0x1 PUSH1 0x1 PUSH1 0x40 SHL SUB DUP2 GT PUSH2 0x153C JUMPI PUSH1 0x1F ADD PUSH1 0x1F NOT AND PUSH1 0x20 ADD SWAP1 JUMP JUMPDEST DUP2 PUSH1 0x1F DUP3 ADD SLT ISZERO PUSH2 0x392 JUMPI DUP1 CALLDATALOAD SWAP1 PUSH2 0x61A3 DUP3 PUSH2 0x6171 JUMP JUMPDEST SWAP3 PUSH2 0x61B1 PUSH1 0x40 MLOAD SWAP5 DUP6 PUSH2 0x6150 JUMP JUMPDEST DUP3 DUP5 MSTORE PUSH1 0x20 DUP4 DUP4 ADD ADD GT PUSH2 0x392 JUMPI DUP2 PUSH1 0x0 SWAP3 PUSH1 0x20 DUP1 SWAP4 ADD DUP4 DUP7 ADD CALLDATACOPY DUP4 ADD ADD MSTORE SWAP1 JUMP JUMPDEST PUSH1 0x60 PUSH1 0x3 NOT DUP3 ADD SLT PUSH2 0x392 JUMPI PUSH1 0x4 CALLDATALOAD SWAP1 PUSH1 0x1 PUSH1 0x1 PUSH1 0x40 SHL SUB DUP3 GT PUSH2 0x392 JUMPI PUSH2 0x61FD SWAP2 PUSH1 0x4 ADD PUSH2 0x618C JUMP JUMPDEST SWAP1 PUSH1 0x24 CALLDATALOAD SWAP1 PUSH1 0x44 CALLDATALOAD SWAP1 JUMP JUMPDEST SWAP1 PUSH1 0xA0 PUSH1 0x3 NOT DUP4 ADD SLT PUSH2 0x392 JUMPI PUSH1 0x1 PUSH1 0x1 PUSH1 0x40 SHL SUB PUSH1 0x4 CALLDATALOAD DUP2 DUP2 GT PUSH2 0x392 JUMPI DUP4 PUSH2 0x6234 SWAP2 PUSH1 0x4 ADD PUSH2 0x618C JUMP JUMPDEST SWAP3 PUSH1 0x24 CALLDATALOAD PUSH1 0x2 DUP2 LT ISZERO PUSH2 0x392 JUMPI SWAP3 PUSH1 0x44 CALLDATALOAD SWAP3 PUSH1 0x64 CALLDATALOAD SWAP3 PUSH1 0x84 CALLDATALOAD SWAP2 DUP3 GT PUSH2 0x392 JUMPI PUSH2 0x6260 SWAP2 PUSH1 0x4 ADD PUSH2 0x618C JUMP JUMPDEST SWAP1 JUMP JUMPDEST SWAP1 PUSH1 0x1 DUP3 DUP2 SHR SWAP3 AND DUP1 ISZERO PUSH2 0x6293 JUMPI JUMPDEST PUSH1 0x20 DUP4 LT EQ PUSH2 0x627D JUMPI JUMP JUMPDEST PUSH4 0x4E487B71 PUSH1 0xE0 SHL PUSH1 0x0 MSTORE PUSH1 0x22 PUSH1 0x4 MSTORE PUSH1 0x24 PUSH1 0x0 REVERT JUMPDEST SWAP2 PUSH1 0x7F AND SWAP2 PUSH2 0x6272 JUMP JUMPDEST SWAP1 PUSH1 0x40 MLOAD SWAP2 DUP3 PUSH1 0x0 DUP3 SLOAD PUSH2 0x62B0 DUP2 PUSH2 0x6263 JUMP JUMPDEST SWAP1 DUP2 DUP5 MSTORE PUSH1 0x20 SWAP5 PUSH1 0x1 SWAP2 PUSH1 0x1 DUP2 AND SWAP1 DUP2 PUSH1 0x0 EQ PUSH2 0x6320 JUMPI POP PUSH1 0x1 EQ PUSH2 0x62E1 JUMPI JUMPDEST POP POP POP PUSH2 0x62DF SWAP3 POP SUB DUP4 PUSH2 0x6150 JUMP JUMPDEST JUMP JUMPDEST PUSH1 0x0 SWAP1 DUP2 MSTORE DUP6 DUP2 KECCAK256 SWAP6 SWAP4 POP SWAP2 SWAP1 JUMPDEST DUP2 DUP4 LT PUSH2 0x6308 JUMPI POP POP PUSH2 0x62DF SWAP4 POP DUP3 ADD ADD CODESIZE DUP1 DUP1 PUSH2 0x62D0 JUMP JUMPDEST DUP6 SLOAD DUP9 DUP5 ADD DUP6 ADD MSTORE SWAP5 DUP6 ADD SWAP5 DUP8 SWAP5 POP SWAP2 DUP4 ADD SWAP2 PUSH2 0x62EF JUMP JUMPDEST SWAP3 POP POP POP PUSH2 0x62DF SWAP5 SWAP3 POP PUSH1 0xFF NOT AND DUP3 DUP5 ADD MSTORE ISZERO ISZERO PUSH1 0x5 SHL DUP3 ADD ADD CODESIZE DUP1 DUP1 PUSH2 0x62D0 JUMP JUMPDEST PUSH1 0x0 JUMPDEST DUP4 DUP2 LT PUSH2 0x6355 JUMPI POP POP PUSH1 0x0 SWAP2 ADD MSTORE JUMP JUMPDEST DUP2 DUP2 ADD MLOAD DUP4 DUP3 ADD MSTORE PUSH1 0x20 ADD PUSH2 0x6345 JUMP JUMPDEST SWAP1 PUSH1 0x20 SWAP2 PUSH2 0x637E DUP2 MLOAD DUP1 SWAP3 DUP2 DUP6 MSTORE DUP6 DUP1 DUP7 ADD SWAP2 ADD PUSH2 0x6342 JUMP JUMPDEST PUSH1 0x1F ADD PUSH1 0x1F NOT AND ADD ADD SWAP1 JUMP JUMPDEST PUSH1 0x2 GT ISZERO PUSH2 0x597 JUMPI JUMP JUMPDEST SWAP1 PUSH1 0x6 DUP3 LT ISZERO PUSH2 0x597 JUMPI MSTORE JUMP JUMPDEST SWAP1 DUP2 MLOAD DUP1 DUP3 MSTORE PUSH1 0x20 DUP1 DUP1 SWAP4 ADD SWAP4 ADD SWAP2 PUSH1 0x0 JUMPDEST DUP3 DUP2 LT PUSH2 0x63C1 JUMPI POP POP POP POP SWAP1 JUMP JUMPDEST DUP4 MLOAD DUP6 MSTORE SWAP4 DUP2 ADD SWAP4 SWAP3 DUP2 ADD SWAP3 PUSH1 0x1 ADD PUSH2 0x63B3 JUMP JUMPDEST CALLVALUE PUSH2 0x392 JUMPI PUSH1 0x0 CALLDATASIZE PUSH1 0x3 NOT ADD SLT PUSH2 0x392 JUMPI PUSH1 0x20 PUSH1 0x40 MLOAD PUSH1 0x5 DUP2 MSTORE RETURN JUMPDEST PUSH1 0x60 SWAP1 PUSH1 0x3 NOT ADD SLT PUSH2 0x392 JUMPI PUSH1 0x4 CALLDATALOAD SWAP1 PUSH1 0x24 CALLDATALOAD SWAP1 PUSH1 0x44 CALLDATALOAD SWAP1 JUMP JUMPDEST PUSH1 0x40 SWAP1 PUSH1 0x3 NOT ADD SLT PUSH2 0x392 JUMPI PUSH1 0x4 CALLDATALOAD SWAP1 PUSH1 0x24 CALLDATALOAD SWAP1 JUMP JUMPDEST SWAP1 PUSH1 0x3 DUP3 LT ISZERO PUSH2 0x597 JUMPI MSTORE JUMP JUMPDEST ISZERO PUSH2 0x6435 JUMPI JUMP JUMPDEST PUSH1 0x40 MLOAD PUSH3 0x461BCD PUSH1 0xE5 SHL DUP2 MSTORE PUSH1 0x20 PUSH1 0x4 DUP3 ADD MSTORE PUSH1 0x14 PUSH1 0x24 DUP3 ADD MSTORE PUSH20 0x496E73756666696369656E742062616C616E6365 PUSH1 0x60 SHL PUSH1 0x44 DUP3 ADD MSTORE PUSH1 0x64 SWAP1 REVERT JUMPDEST SWAP2 SWAP1 DUP3 SUB SWAP2 DUP3 GT PUSH2 0xDA5 JUMPI JUMP JUMPDEST SWAP1 PUSH1 0x40 MLOAD SWAP2 DUP3 DUP2 SLOAD SWAP2 DUP3 DUP3 MSTORE PUSH1 0x20 SWAP3 PUSH1 0x20 DUP4 ADD SWAP2 PUSH1 0x0 MSTORE PUSH1 0x20 PUSH1 0x0 KECCAK256 SWAP4 PUSH1 0x0 SWAP1 JUMPDEST DUP3 DUP3 LT PUSH2 0x64B5 JUMPI POP POP POP PUSH2 0x62DF SWAP3 POP SUB DUP4 PUSH2 0x6150 JUMP JUMPDEST DUP6 SLOAD DUP5 MSTORE PUSH1 0x1 SWAP6 DUP7 ADD SWAP6 DUP9 SWAP6 POP SWAP4 DUP2 ADD SWAP4 SWAP1 SWAP2 ADD SWAP1 PUSH2 0x649F JUMP JUMPDEST PUSH1 0x1 PUSH1 0x1 PUSH1 0x40 SHL SUB DUP2 GT PUSH2 0x153C JUMPI PUSH1 0x5 SHL PUSH1 0x20 ADD SWAP1 JUMP JUMPDEST SWAP1 PUSH2 0x64F0 DUP3 PUSH2 0x64CF JUMP JUMPDEST PUSH2 0x64FD PUSH1 0x40 MLOAD SWAP2 DUP3 PUSH2 0x6150 JUMP JUMPDEST DUP3 DUP2 MSTORE DUP1 SWAP3 PUSH2 0x650E PUSH1 0x1F NOT SWAP2 PUSH2 0x64CF JUMP JUMPDEST ADD SWAP1 PUSH1 0x20 CALLDATASIZE SWAP2 ADD CALLDATACOPY JUMP JUMPDEST PUSH1 0x0 NOT DUP2 EQ PUSH2 0xDA5 JUMPI PUSH1 0x1 ADD SWAP1 JUMP JUMPDEST DUP1 MLOAD DUP3 LT ISZERO PUSH2 0x607B JUMPI PUSH1 0x20 SWAP2 PUSH1 0x5 SHL ADD ADD SWAP1 JUMP JUMPDEST ISZERO PUSH2 0x6542 JUMPI JUMP JUMPDEST PUSH1 0x40 MLOAD PUSH3 0x461BCD PUSH1 0xE5 SHL DUP2 MSTORE PUSH1 0x20 PUSH1 0x4 DUP3 ADD MSTORE PUSH1 0x11 PUSH1 0x24 DUP3 ADD MSTORE PUSH17 0x159491881B9BDD08199D5B199A5B1B1959 PUSH1 0x7A SHL PUSH1 0x44 DUP3 ADD MSTORE PUSH1 0x64 SWAP1 REVERT JUMPDEST ISZERO PUSH2 0x6582 JUMPI JUMP JUMPDEST PUSH1 0x40 MLOAD PUSH3 0x461BCD PUSH1 0xE5 SHL DUP2 MSTORE PUSH1 0x20 PUSH1 0x4 DUP3 ADD MSTORE PUSH1 0xF PUSH1 0x24 DUP3 ADD MSTORE PUSH15 0x47616D65206E6F7420616374697665 PUSH1 0x88 SHL PUSH1 0x44 DUP3 ADD MSTORE PUSH1 0x64 SWAP1 REVERT JUMPDEST SWAP2 SWAP1 DUP3 ADD DUP1 SWAP3 GT PUSH2 0xDA5 JUMPI JUMP JUMPDEST ISZERO PUSH2 0x65CD JUMPI JUMP JUMPDEST PUSH1 0x40 MLOAD PUSH3 0x461BCD PUSH1 0xE5 SHL DUP2 MSTORE PUSH1 0x20 PUSH1 0x4 DUP3 ADD MSTORE PUSH1 0x11 PUSH1 0x24 DUP3 ADD MSTORE PUSH17 0x105B1C9958591E4818DBDB5C1B195D1959 PUSH1 0x7A SHL PUSH1 0x44 DUP3 ADD MSTORE PUSH1 0x64 SWAP1 REVERT JUMPDEST ISZERO PUSH2 0x660D JUMPI JUMP JUMPDEST PUSH1 0x40 MLOAD PUSH3 0x461BCD PUSH1 0xE5 SHL DUP2 MSTORE PUSH1 0x20 PUSH1 0x4 DUP3 ADD MSTORE PUSH1 0x17 PUSH1 0x24 DUP3 ADD MSTORE PUSH32 0x50656E616C747920616C7265616479206170706C696564000000000000000000 PUSH1 0x44 DUP3 ADD MSTORE PUSH1 0x64 SWAP1 REVERT JUMPDEST SWAP1 PUSH1 0x3 DUP2 LT ISZERO PUSH2 0x597 JUMPI PUSH3 0xFF0000 DUP3 SLOAD SWAP2 PUSH1 0x10 SHL AND SWAP1 PUSH3 0xFF0000 NOT AND OR SWAP1 SSTORE JUMP JUMPDEST ISZERO PUSH2 0x667A JUMPI JUMP JUMPDEST PUSH1 0x40 MLOAD PUSH3 0x461BCD PUSH1 0xE5 SHL DUP2 MSTORE PUSH1 0x20 PUSH1 0x4 DUP3 ADD MSTORE PUSH1 0x16 PUSH1 0x24 DUP3 ADD MSTORE PUSH22 0x11D85B5948185B1C9958591E4818DBDB5C1B195D1959 PUSH1 0x52 SHL PUSH1 0x44 DUP3 ADD MSTORE PUSH1 0x64 SWAP1 REVERT JUMPDEST ISZERO PUSH2 0x66BF JUMPI JUMP JUMPDEST PUSH1 0x40 MLOAD PUSH3 0x461BCD PUSH1 0xE5 SHL DUP2 MSTORE PUSH1 0x20 PUSH1 0x4 DUP3 ADD MSTORE PUSH1 0x12 PUSH1 0x24 DUP3 ADD MSTORE PUSH18 0x4F6E6C7920666F72205056502067616D6573 PUSH1 0x70 SHL PUSH1 0x44 DUP3 ADD MSTORE PUSH1 0x64 SWAP1 REVERT JUMPDEST ISZERO PUSH2 0x6700 JUMPI JUMP JUMPDEST PUSH1 0x40 MLOAD PUSH3 0x461BCD PUSH1 0xE5 SHL DUP2 MSTORE PUSH1 0x20 PUSH1 0x4 DUP3 ADD MSTORE PUSH1 0xC PUSH1 0x24 DUP3 ADD MSTORE PUSH12 0x2737BA103090383630BCB2B9 PUSH1 0xA1 SHL PUSH1 0x44 DUP3 ADD MSTORE PUSH1 0x64 SWAP1 REVERT JUMPDEST SWAP1 PUSH1 0xC3 DUP3 MUL SWAP2 DUP1 DUP4 DIV PUSH1 0xC3 EQ SWAP1 ISZERO OR ISZERO PUSH2 0xDA5 JUMPI JUMP JUMPDEST ISZERO PUSH2 0x6751 JUMPI JUMP JUMPDEST PUSH1 0x40 MLOAD PUSH3 0x461BCD PUSH1 0xE5 SHL DUP2 MSTORE PUSH1 0x20 PUSH1 0x4 DUP3 ADD MSTORE PUSH1 0x19 PUSH1 0x24 DUP3 ADD MSTORE PUSH32 0x47616D6520697320616C726561647920636F6D706C6574656400000000000000 PUSH1 0x44 DUP3 ADD MSTORE PUSH1 0x64 SWAP1 REVERT JUMPDEST ISZERO PUSH2 0x679D JUMPI JUMP JUMPDEST PUSH1 0x40 MLOAD PUSH3 0x461BCD PUSH1 0xE5 SHL DUP2 MSTORE PUSH1 0x20 PUSH1 0x4 DUP3 ADD MSTORE PUSH1 0x14 PUSH1 0x24 DUP3 ADD MSTORE PUSH20 0x47616D65206E6F7420696E2070726F6772657373 PUSH1 0x60 SHL PUSH1 0x44 DUP3 ADD MSTORE PUSH1 0x64 SWAP1 REVERT JUMPDEST ISZERO PUSH2 0x67E0 JUMPI JUMP JUMPDEST PUSH1 0x40 MLOAD PUSH3 0x461BCD PUSH1 0xE5 SHL DUP2 MSTORE PUSH1 0x20 PUSH1 0x4 DUP3 ADD MSTORE PUSH1 0x18 PUSH1 0x24 DUP3 ADD MSTORE PUSH32 0x506C6179657220616C726561647920636F6D706C657465640000000000000000 PUSH1 0x44 DUP3 ADD MSTORE PUSH1 0x64 SWAP1 REVERT JUMPDEST ISZERO PUSH2 0x682C JUMPI JUMP JUMPDEST PUSH1 0x40 MLOAD PUSH3 0x461BCD PUSH1 0xE5 SHL DUP2 MSTORE PUSH1 0x20 PUSH1 0x4 DUP3 ADD MSTORE PUSH1 0x18 PUSH1 0x24 DUP3 ADD MSTORE PUSH32 0x506C6179657220616C7265616479207375626D69747465640000000000000000 PUSH1 0x44 DUP3 ADD MSTORE PUSH1 0x64 SWAP1 REVERT JUMPDEST ISZERO PUSH2 0x6878 JUMPI JUMP JUMPDEST PUSH1 0x40 MLOAD PUSH3 0x461BCD PUSH1 0xE5 SHL DUP2 MSTORE PUSH1 0x20 PUSH1 0x4 DUP3 ADD MSTORE PUSH1 0x14 PUSH1 0x24 DUP3 ADD MSTORE PUSH20 0x496E76616C696420706C61796572207374617465 PUSH1 0x60 SHL PUSH1 0x44 DUP3 ADD MSTORE PUSH1 0x64 SWAP1 REVERT JUMPDEST ISZERO PUSH2 0x68BB JUMPI JUMP JUMPDEST PUSH1 0x40 MLOAD PUSH3 0x461BCD PUSH1 0xE5 SHL DUP2 MSTORE PUSH1 0x20 PUSH1 0x4 DUP3 ADD MSTORE PUSH1 0x11 PUSH1 0x24 DUP3 ADD MSTORE PUSH17 0x105B1C9958591E4818DBDB5B5A5D1D1959 PUSH1 0x7A SHL PUSH1 0x44 DUP3 ADD MSTORE PUSH1 0x64 SWAP1 REVERT JUMPDEST ISZERO PUSH2 0x68FB JUMPI JUMP JUMPDEST PUSH1 0x40 MLOAD PUSH3 0x461BCD PUSH1 0xE5 SHL DUP2 MSTORE PUSH1 0x20 PUSH1 0x4 DUP3 ADD MSTORE PUSH1 0x12 PUSH1 0x24 DUP3 ADD MSTORE PUSH18 0x466C697020636F756E7420746F6F206C6F77 PUSH1 0x70 SHL PUSH1 0x44 DUP3 ADD MSTORE PUSH1 0x64 SWAP1 REVERT JUMPDEST ISZERO PUSH2 0x693C JUMPI JUMP JUMPDEST PUSH1 0x40 MLOAD PUSH3 0x461BCD PUSH1 0xE5 SHL DUP2 MSTORE PUSH1 0x20 PUSH1 0x4 DUP3 ADD MSTORE PUSH1 0x11 PUSH1 0x24 DUP3 ADD MSTORE PUSH17 0x556E7265616C69737469632073636F7265 PUSH1 0x78 SHL PUSH1 0x44 DUP3 ADD MSTORE PUSH1 0x64 SWAP1 REVERT JUMPDEST DUP2 ISZERO PUSH2 0x697F JUMPI MOD SWAP1 JUMP JUMPDEST PUSH4 0x4E487B71 PUSH1 0xE0 SHL PUSH1 0x0 MSTORE PUSH1 0x12 PUSH1 0x4 MSTORE PUSH1 0x24 PUSH1 0x0 REVERT JUMPDEST PUSH1 0x40 MLOAD SWAP1 PUSH2 0x69A2 DUP3 PUSH2 0x60AC JUMP JUMPDEST PUSH1 0x0 PUSH1 0x60 DUP4 DUP3 DUP2 MSTORE DUP3 PUSH1 0x20 DUP3 ADD MSTORE DUP3 PUSH1 0x40 DUP3 ADD MSTORE ADD MSTORE JUMP JUMPDEST ISZERO PUSH2 0x69C1 JUMPI JUMP JUMPDEST PUSH1 0x40 MLOAD PUSH3 0x461BCD PUSH1 0xE5 SHL DUP2 MSTORE PUSH1 0x20 PUSH1 0x4 DUP3 ADD MSTORE PUSH1 0xA PUSH1 0x24 DUP3 ADD MSTORE PUSH10 0x4E6F20706C6179657273 PUSH1 0xB0 SHL PUSH1 0x44 DUP3 ADD MSTORE PUSH1 0x64 SWAP1 REVERT JUMPDEST ISZERO PUSH2 0x69FA JUMPI JUMP JUMPDEST PUSH1 0x64 PUSH1 0x40 MLOAD PUSH3 0x461BCD PUSH1 0xE5 SHL DUP2 MSTORE PUSH1 0x20 PUSH1 0x4 DUP3 ADD MSTORE PUSH1 0x20 PUSH1 0x24 DUP3 ADD MSTORE PUSH32 0x467265652067616D657320646F6E27742072657175697265207061796D656E74 PUSH1 0x44 DUP3 ADD MSTORE REVERT JUMPDEST DUP1 SLOAD PUSH1 0x1 PUSH1 0x40 SHL DUP2 LT ISZERO PUSH2 0x153C JUMPI PUSH2 0x6A5B SWAP2 PUSH1 0x1 DUP3 ADD DUP2 SSTORE PUSH2 0x6063 JUMP JUMPDEST PUSH1 0x1 DUP1 PUSH1 0xA0 SWAP5 SWAP4 SWAP5 SHL SUB DUP1 DUP5 SLOAD SWAP3 PUSH1 0x3 SHL SWAP4 AND DUP4 SHL SWAP3 SHL NOT AND OR SWAP1 SSTORE JUMP JUMPDEST DUP1 SLOAD PUSH1 0x1 PUSH1 0x40 SHL DUP2 LT ISZERO PUSH2 0x153C JUMPI PUSH2 0x6A96 SWAP2 PUSH1 0x1 DUP3 ADD DUP2 SSTORE PUSH2 0x6063 JUMP JUMPDEST DUP2 SWAP3 SWAP2 SLOAD SWAP1 PUSH1 0x3 SHL SWAP2 DUP3 SHL SWAP2 PUSH1 0x0 NOT SWAP1 SHL NOT AND OR SWAP1 SSTORE JUMP JUMPDEST ISZERO PUSH2 0x6AB5 JUMPI JUMP JUMPDEST PUSH1 0x40 MLOAD PUSH3 0x461BCD PUSH1 0xE5 SHL DUP2 MSTORE PUSH1 0x20 PUSH1 0x4 DUP3 ADD MSTORE PUSH1 0x1B PUSH1 0x24 DUP3 ADD MSTORE PUSH32 0x506C61796572206E6F7420696E20706C6179696E672073746174650000000000 PUSH1 0x44 DUP3 ADD MSTORE PUSH1 0x64 SWAP1 REVERT JUMPDEST SWAP1 DUP2 PUSH1 0x60 SWAP2 SUB SLT PUSH2 0x392 JUMPI DUP1 MLOAD SWAP2 PUSH1 0x40 PUSH1 0x20 DUP4 ADD MLOAD SWAP3 ADD MLOAD DUP1 ISZERO ISZERO DUP2 SUB PUSH2 0x392 JUMPI SWAP1 JUMP JUMPDEST DUP1 ISZERO PUSH2 0xDA5 JUMPI PUSH1 0x0 NOT ADD SWAP1 JUMP JUMPDEST ISZERO PUSH2 0x6B32 JUMPI JUMP JUMPDEST PUSH1 0x40 MLOAD PUSH3 0x461BCD PUSH1 0xE5 SHL DUP2 MSTORE PUSH1 0x20 PUSH1 0x4 DUP3 ADD MSTORE PUSH1 0x14 PUSH1 0x24 DUP3 ADD MSTORE PUSH20 0x125B9D985B1A59081C1B185E595C8818DBDD5B9D PUSH1 0x62 SHL PUSH1 0x44 DUP3 ADD MSTORE PUSH1 0x64 SWAP1 REVERT JUMPDEST ISZERO PUSH2 0x6B75 JUMPI JUMP JUMPDEST PUSH1 0x40 MLOAD PUSH3 0x461BCD PUSH1 0xE5 SHL DUP2 MSTORE PUSH1 0x20 PUSH1 0x4 DUP3 ADD MSTORE PUSH1 0x23 PUSH1 0x24 DUP3 ADD MSTORE PUSH32 0x41492067616D6573206D75737420686176652065786163746C79203120706C61 PUSH1 0x44 DUP3 ADD MSTORE PUSH3 0x3CB2B9 PUSH1 0xE9 SHL PUSH1 0x64 DUP3 ADD MSTORE PUSH1 0x84 SWAP1 REVERT JUMPDEST ISZERO PUSH2 0x6BCD JUMPI JUMP JUMPDEST PUSH1 0x40 MLOAD PUSH3 0x461BCD PUSH1 0xE5 SHL DUP2 MSTORE PUSH1 0x20 PUSH1 0x4 DUP3 ADD MSTORE PUSH1 0x1A PUSH1 0x24 DUP3 ADD MSTORE PUSH32 0x496E73756666696369656E7420686F7573652062616C616E6365000000000000 PUSH1 0x44 DUP3 ADD MSTORE PUSH1 0x64 SWAP1 REVERT JUMPDEST PUSH1 0x0 MSTORE PUSH1 0x5 PUSH1 0x20 MSTORE PUSH1 0x40 PUSH1 0x0 KECCAK256 PUSH2 0x6C2F PUSH1 0xFF PUSH1 0x12 DUP4 ADD SLOAD AND PUSH2 0x653B JUMP JUMPDEST PUSH1 0x11 DUP2 ADD DUP1 SLOAD PUSH2 0x6C47 JUMPI POP PUSH1 0x10 PUSH2 0x6260 SWAP2 ADD SLOAD PUSH2 0x7912 JUMP JUMPDEST PUSH2 0x6260 SWAP2 POP PUSH2 0x647E JUMP JUMPDEST PUSH1 0x0 SLOAD PUSH1 0x1 PUSH1 0x1 PUSH1 0xA0 SHL SUB AND CALLER SUB PUSH2 0x6C65 JUMPI JUMP JUMPDEST PUSH1 0x40 MLOAD PUSH4 0x118CDAA7 PUSH1 0xE0 SHL DUP2 MSTORE CALLER PUSH1 0x4 DUP3 ADD MSTORE PUSH1 0x24 SWAP1 REVERT JUMPDEST PUSH1 0x0 SWAP2 DUP3 SWAP2 DUP3 SWAP2 DUP3 SWAP2 PUSH1 0x1 PUSH1 0x1 PUSH1 0xA0 SHL SUB AND GAS CALL RETURNDATASIZE ISZERO PUSH2 0x6CF7 JUMPI RETURNDATASIZE PUSH2 0x6CA1 DUP2 PUSH2 0x6171 JUMP JUMPDEST SWAP1 PUSH2 0x6CAF PUSH1 0x40 MLOAD SWAP3 DUP4 PUSH2 0x6150 JUMP JUMPDEST DUP2 MSTORE PUSH1 0x0 PUSH1 0x20 RETURNDATASIZE SWAP3 ADD RETURNDATACOPY JUMPDEST ISZERO PUSH2 0x6CC1 JUMPI JUMP JUMPDEST PUSH1 0x40 MLOAD PUSH3 0x461BCD PUSH1 0xE5 SHL DUP2 MSTORE PUSH1 0x20 PUSH1 0x4 DUP3 ADD MSTORE PUSH1 0xE PUSH1 0x24 DUP3 ADD MSTORE PUSH14 0x14185E5B595B9D0819985A5B1959 PUSH1 0x92 SHL PUSH1 0x44 DUP3 ADD MSTORE PUSH1 0x64 SWAP1 REVERT JUMPDEST PUSH2 0x6CBA JUMP JUMPDEST PUSH1 0x2 PUSH1 0x1 SLOAD EQ PUSH2 0x6D0D JUMPI PUSH1 0x2 PUSH1 0x1 SSTORE JUMP JUMPDEST PUSH1 0x40 MLOAD PUSH4 0x3EE5AEB5 PUSH1 0xE0 SHL DUP2 MSTORE PUSH1 0x4 SWAP1 REVERT JUMPDEST DUP2 DUP2 LT PUSH2 0x6D2A JUMPI POP POP JUMP JUMPDEST PUSH1 0x0 DUP2 SSTORE PUSH1 0x1 ADD PUSH2 0x6D1F JUMP JUMPDEST SWAP1 SWAP4 PUSH2 0x6D43 PUSH1 0x2 SLOAD PUSH2 0x6518 JUMP JUMPDEST SWAP4 DUP5 PUSH1 0x2 SSTORE DUP5 PUSH1 0x0 MSTORE PUSH1 0x5 PUSH1 0x20 MSTORE PUSH1 0x40 PUSH1 0x0 KECCAK256 SWAP2 DUP6 DUP4 SSTORE DUP4 MLOAD PUSH1 0x1 PUSH1 0x1 PUSH1 0x40 SHL SUB DUP2 GT PUSH2 0x153C JUMPI PUSH2 0x6D77 PUSH1 0x1 DUP6 ADD SLOAD PUSH2 0x6263 JUMP JUMPDEST PUSH1 0x1F DUP2 GT PUSH2 0x7173 JUMPI JUMPDEST POP DUP1 PUSH1 0x20 PUSH1 0x1F DUP3 GT PUSH1 0x1 EQ PUSH2 0x7106 JUMPI PUSH1 0x0 SWAP2 PUSH2 0x70FB JUMPI JUMPDEST POP DUP2 PUSH1 0x1 SHL SWAP2 PUSH1 0x0 NOT SWAP1 PUSH1 0x3 SHL SHR NOT AND OR PUSH1 0x1 DUP5 ADD SSTORE JUMPDEST PUSH1 0x2 DUP4 ADD DUP1 SLOAD PUSH2 0x6DBD DUP10 PUSH2 0x638A JUMP JUMPDEST PUSH1 0xA0 DUP10 SWAP1 SHL PUSH1 0xFF PUSH1 0xA0 SHL AND PUSH1 0x1 PUSH1 0x1 PUSH1 0xB8 SHL SUB NOT SWAP1 SWAP2 AND CALLER PUSH3 0xFFFFFF PUSH1 0xA0 SHL NOT AND OR OR SWAP1 SSTORE PUSH1 0x0 PUSH1 0x3 DUP5 ADD DUP2 SWAP1 SSTORE PUSH1 0x4 DUP5 ADD DUP2 SWAP1 SSTORE PUSH1 0x5 DUP5 ADD DUP7 SWAP1 SSTORE PUSH1 0x1 PUSH1 0x6 DUP6 ADD SSTORE PUSH1 0x7 DUP5 ADD SSTORE TIMESTAMP PUSH1 0x8 DUP5 ADD SSTORE DUP1 MLOAD DUP1 PUSH2 0x70CF JUMPI JUMPDEST POP POP PUSH2 0x6E1E DUP7 PUSH2 0x638A JUMP JUMPDEST PUSH1 0x1 DUP7 EQ DUP1 PUSH2 0x70C6 JUMPI JUMPDEST PUSH2 0x709C JUMPI JUMPDEST POP POP PUSH1 0x40 MLOAD PUSH2 0x6E3B DUP2 PUSH2 0x60C7 JUMP JUMPDEST CALLER DUP2 MSTORE PUSH1 0x20 DUP2 ADD PUSH1 0x0 DUP2 MSTORE PUSH2 0x6ED9 PUSH1 0x40 DUP4 ADD PUSH1 0x0 DUP2 MSTORE PUSH2 0x1964 PUSH1 0x4 PUSH1 0x60 DUP7 ADD SWAP6 PUSH1 0x0 DUP8 MSTORE PUSH1 0x80 DUP2 ADD SWAP7 PUSH1 0x0 DUP9 MSTORE PUSH1 0xA0 DUP3 ADD SWAP5 PUSH1 0x1 DUP7 MSTORE PUSH1 0xC0 DUP4 ADD SWAP8 PUSH1 0x0 DUP10 MSTORE DUP13 PUSH1 0x0 MSTORE PUSH1 0x6 PUSH1 0x20 MSTORE PUSH1 0x40 PUSH1 0x0 KECCAK256 CALLER PUSH1 0x0 MSTORE PUSH1 0x20 MSTORE PUSH1 0x40 PUSH1 0x0 KECCAK256 SWAP4 PUSH1 0x1 DUP1 PUSH1 0xA0 SHL SUB SWAP1 MLOAD AND PUSH1 0x1 PUSH1 0x1 PUSH1 0x60 SHL SUB PUSH1 0xA0 SHL DUP6 SLOAD AND OR DUP5 SSTORE MLOAD PUSH1 0x1 DUP5 ADD SSTORE MLOAD PUSH1 0x2 DUP4 ADD SSTORE MLOAD PUSH1 0x3 DUP3 ADD SSTORE ADD SWAP5 MLOAD ISZERO ISZERO DUP6 SWAP1 PUSH1 0xFF DUP1 NOT DUP4 SLOAD AND SWAP2 ISZERO ISZERO AND OR SWAP1 SSTORE JUMP JUMPDEST MLOAD PUSH1 0x3 DUP2 LT ISZERO PUSH2 0x597 JUMPI PUSH2 0x6EEC SWAP2 PUSH2 0x6652 JUMP JUMPDEST DUP3 PUSH1 0x0 MSTORE PUSH1 0x7 PUSH1 0x20 MSTORE PUSH2 0x6F03 CALLER PUSH1 0x40 PUSH1 0x0 KECCAK256 PUSH2 0x6A3E JUMP JUMPDEST CALLER PUSH1 0x0 MSTORE PUSH1 0x8 PUSH1 0x20 MSTORE PUSH2 0x6F1A DUP4 PUSH1 0x40 PUSH1 0x0 KECCAK256 PUSH2 0x6A79 JUMP JUMPDEST PUSH2 0x6F23 DUP5 PUSH2 0x638A JUMP JUMPDEST DUP4 ISZERO DUP1 PUSH2 0x7092 JUMPI JUMPDEST PUSH2 0x6F78 JUMPI JUMPDEST PUSH1 0x0 DUP1 MLOAD PUSH1 0x20 PUSH2 0x883E DUP4 CODECOPY DUP2 MLOAD SWAP2 MSTORE SWAP2 PUSH2 0x6F55 PUSH1 0x40 MLOAD SWAP3 PUSH1 0x80 DUP5 MSTORE PUSH1 0x80 DUP5 ADD SWAP1 PUSH2 0x6365 JUMP JUMPDEST SWAP5 PUSH2 0x6F5F DUP2 PUSH2 0x638A JUMP JUMPDEST PUSH1 0x20 DUP4 ADD MSTORE PUSH1 0x0 PUSH1 0x40 DUP4 ADD MSTORE PUSH1 0x60 DUP3 ADD MSTORE DUP1 CALLER SWAP5 SUB SWAP1 LOG3 JUMP JUMPDEST PUSH1 0x40 MLOAD SWAP2 PUSH32 0x0 PUSH2 0x6FA6 DUP5 PUSH2 0x60C7 JUMP JUMPDEST PUSH1 0x1 DUP1 PUSH1 0xA0 SHL SUB DUP2 AND DUP5 MSTORE PUSH1 0x0 PUSH1 0x20 DUP6 ADD MSTORE PUSH1 0x0 PUSH1 0x40 DUP6 ADD MSTORE PUSH1 0x0 PUSH1 0x60 DUP6 ADD MSTORE PUSH1 0x0 PUSH1 0x80 DUP6 ADD MSTORE PUSH1 0xA0 DUP5 ADD PUSH1 0x1 DUP2 MSTORE PUSH2 0x705B PUSH1 0xC0 DUP7 ADD SWAP2 PUSH1 0x0 DUP4 MSTORE DUP8 PUSH1 0x0 MSTORE PUSH1 0x6 PUSH1 0x20 MSTORE PUSH1 0x40 PUSH1 0x0 KECCAK256 PUSH1 0x1 DUP1 PUSH1 0xA0 SHL SUB DUP6 AND PUSH1 0x0 MSTORE PUSH1 0x20 MSTORE PUSH2 0x1B00 PUSH1 0x80 PUSH1 0x4 PUSH1 0x40 PUSH1 0x0 KECCAK256 PUSH1 0x1 DUP1 PUSH1 0xA0 SHL SUB DUP12 MLOAD AND PUSH1 0x1 PUSH1 0x1 PUSH1 0x60 SHL SUB PUSH1 0xA0 SHL DUP3 SLOAD AND OR DUP2 SSTORE PUSH1 0x20 DUP12 ADD MLOAD PUSH1 0x1 DUP3 ADD SSTORE PUSH1 0x40 DUP12 ADD MLOAD PUSH1 0x2 DUP3 ADD SSTORE PUSH1 0x60 DUP12 ADD MLOAD PUSH1 0x3 DUP3 ADD SSTORE ADD SWAP9 ADD MLOAD ISZERO ISZERO DUP9 SWAP1 PUSH1 0xFF DUP1 NOT DUP4 SLOAD AND SWAP2 ISZERO ISZERO AND OR SWAP1 SSTORE JUMP JUMPDEST MLOAD SWAP1 PUSH1 0x3 DUP3 LT ISZERO PUSH2 0x597 JUMPI PUSH2 0x1B3E PUSH2 0x7082 SWAP3 PUSH1 0x0 DUP1 MLOAD PUSH1 0x20 PUSH2 0x883E DUP4 CODECOPY DUP2 MLOAD SWAP2 MSTORE SWAP7 PUSH2 0x6652 JUMP JUMPDEST PUSH2 0x708B DUP5 PUSH2 0x722A JUMP JUMPDEST SWAP2 POP PUSH2 0x6F30 JUMP JUMPDEST POP PUSH1 0x1 DUP3 EQ PUSH2 0x6F2B JUMP JUMPDEST PUSH2 0xE10 SWAP1 DUP2 DUP2 MUL SWAP2 DUP2 DUP4 DIV EQ SWAP1 ISZERO OR ISZERO PUSH2 0xDA5 JUMPI PUSH2 0x70BC PUSH1 0xB SWAP2 TIMESTAMP PUSH2 0x65B9 JUMP JUMPDEST SWAP2 ADD SSTORE CODESIZE DUP1 PUSH2 0x6E2D JUMP JUMPDEST POP DUP1 ISZERO ISZERO PUSH2 0x6E28 JUMP JUMPDEST PUSH2 0x70EC PUSH1 0x20 DUP1 SWAP4 DUP4 PUSH2 0x146E PUSH1 0x40 MLOAD SWAP6 DUP7 SWAP4 DUP6 DUP6 ADD SWAP9 DUP10 SWAP2 ADD PUSH2 0x6342 JUMP JUMPDEST MLOAD SWAP1 KECCAK256 PUSH1 0x13 DUP4 ADD SSTORE CODESIZE DUP1 PUSH2 0x6E13 JUMP JUMPDEST SWAP1 POP DUP6 ADD MLOAD CODESIZE PUSH2 0x6D97 JUMP JUMPDEST SWAP2 POP PUSH1 0x1 DUP6 ADD PUSH1 0x0 MSTORE PUSH1 0x20 PUSH1 0x0 KECCAK256 PUSH1 0x0 SWAP3 JUMPDEST PUSH1 0x1F NOT DUP4 AND DUP5 LT PUSH2 0x715B JUMPI PUSH1 0x1 SWAP4 POP DUP3 PUSH1 0x1F NOT DUP2 AND LT PUSH2 0x7142 JUMPI JUMPDEST POP POP DUP2 SHL ADD PUSH1 0x1 DUP5 ADD SSTORE PUSH2 0x6DAE JUMP JUMPDEST DUP8 ADD MLOAD PUSH1 0x0 NOT PUSH1 0xF8 DUP5 PUSH1 0x3 SHL AND SHR NOT AND SWAP1 SSTORE CODESIZE DUP1 PUSH2 0x7133 JUMP JUMPDEST DUP8 DUP2 ADD MLOAD DUP3 SSTORE PUSH1 0x20 SWAP4 DUP5 ADD SWAP4 PUSH1 0x1 SWAP1 SWAP3 ADD SWAP2 ADD PUSH2 0x7118 JUMP JUMPDEST PUSH2 0x71A2 SWAP1 PUSH1 0x1 DUP7 ADD PUSH1 0x0 MSTORE PUSH1 0x20 PUSH1 0x0 KECCAK256 PUSH1 0x1F DUP5 ADD PUSH1 0x5 SHR DUP2 ADD SWAP2 PUSH1 0x20 DUP6 LT PUSH2 0x1532 JUMPI PUSH1 0x1F ADD PUSH1 0x5 SHR ADD SWAP1 PUSH2 0x6D1F JUMP JUMPDEST CODESIZE PUSH2 0x6D80 JUMP JUMPDEST DUP1 PUSH1 0x0 MSTORE PUSH1 0x5 PUSH1 0x20 MSTORE PUSH1 0x40 PUSH1 0x0 KECCAK256 SWAP1 PUSH1 0x2 DUP3 ADD SWAP2 DUP3 SLOAD SWAP3 PUSH1 0xFF DUP5 PUSH1 0xA8 SHR AND SWAP4 PUSH1 0x6 DUP6 LT ISZERO PUSH2 0x597 JUMPI PUSH2 0x71DF PUSH1 0x2 PUSH2 0x62DF SWAP7 EQ PUSH2 0x6796 JUMP JUMPDEST PUSH1 0xFF PUSH1 0xA8 SHL NOT AND PUSH1 0x3 PUSH1 0xA8 SHL OR SWAP1 SSTORE TIMESTAMP PUSH1 0xA SWAP2 SWAP1 SWAP2 ADD SSTORE PUSH1 0x40 MLOAD PUSH1 0x3 DUP2 MSTORE DUP2 SWAP1 PUSH32 0x365A3D0A71BE5F440C8224437355D5BD81A703759BF906E441902272BFBAFCB3 SWAP1 PUSH1 0x20 SWAP1 LOG2 PUSH2 0x7A26 JUMP JUMPDEST SWAP1 PUSH1 0x0 DUP3 DUP2 MSTORE PUSH1 0x20 SWAP1 PUSH1 0x5 DUP3 MSTORE PUSH1 0x40 SWAP1 DUP2 DUP2 KECCAK256 SWAP5 PUSH1 0x2 DUP7 ADD SWAP4 DUP5 SLOAD PUSH1 0xFF SWAP6 PUSH1 0xFF DUP3 PUSH1 0xA8 SHR AND SWAP2 PUSH1 0x6 SWAP3 DUP4 DUP2 LT ISZERO PUSH2 0x7679 JUMPI PUSH2 0x763C JUMPI PUSH1 0xFF DUP2 PUSH1 0xA0 SHR AND PUSH2 0x726F DUP2 PUSH2 0x638A JUMP JUMPDEST PUSH2 0x75E9 JUMPI PUSH1 0x1 DUP4 DUP12 ADD SLOAD LT PUSH2 0x75B0 JUMPI DUP5 DUP7 MSTORE DUP3 DUP5 MSTORE DUP7 DUP7 KECCAK256 PUSH32 0x0 PUSH1 0x1 PUSH1 0x1 PUSH1 0xA0 SHL SUB AND DUP8 MSTORE DUP5 MSTORE DUP7 DUP7 KECCAK256 PUSH1 0x4 ADD SLOAD PUSH1 0x8 SHR PUSH1 0xFF AND ISZERO PUSH2 0x7577 JUMPI JUMPDEST PUSH1 0xFF PUSH1 0xA8 SHL NOT AND PUSH1 0x1 PUSH1 0xA8 SHL OR SWAP1 SSTORE TIMESTAMP PUSH1 0x9 DUP10 ADD SSTORE DUP4 JUMPDEST DUP4 DUP6 MSTORE PUSH1 0x7 DUP4 MSTORE DUP6 DUP6 KECCAK256 DUP1 SLOAD DUP3 LT ISZERO PUSH2 0x735E JUMPI SWAP1 PUSH2 0x72FF DUP2 PUSH1 0x1 SWAP4 PUSH2 0x6063 JUMP JUMPDEST DUP4 DUP1 PUSH1 0xA0 SHL SUB SWAP2 SLOAD SWAP1 PUSH1 0x3 SHL SHR AND DUP6 DUP8 MSTORE DUP4 DUP6 MSTORE DUP8 DUP8 KECCAK256 DUP2 DUP9 MSTORE DUP6 MSTORE PUSH1 0x4 SWAP1 DUP10 DUP3 DUP11 DUP11 KECCAK256 ADD SLOAD PUSH1 0x8 SHR AND PUSH2 0x7336 JUMPI JUMPDEST POP POP ADD PUSH2 0x72DF JUMP JUMPDEST DUP7 DUP9 MSTORE DUP5 DUP7 MSTORE DUP9 DUP9 KECCAK256 SWAP1 DUP9 MSTORE DUP6 MSTORE DUP8 DUP8 KECCAK256 ADD DUP1 SLOAD PUSH3 0xFF0000 NOT AND PUSH3 0x10000 OR SWAP1 SSTORE CODESIZE DUP1 PUSH2 0x732E JUMP JUMPDEST POP POP DUP5 MLOAD PUSH4 0xF8413B07 PUSH1 0xE0 SHL DUP2 MSTORE SWAP7 SWAP8 SWAP3 SWAP7 SWAP4 SWAP6 POP SWAP3 SWAP4 SWAP3 POP PUSH32 0x0 PUSH1 0x1 PUSH1 0x1 PUSH1 0xA0 SHL SUB AND SWAP2 SWAP1 DUP1 DUP6 PUSH1 0x4 DUP2 DUP10 DUP8 GAS CALL SWAP5 DUP6 ISZERO PUSH2 0x756D JUMPI SWAP2 DUP8 SWAP4 SWAP2 DUP8 SWAP4 DUP5 SWAP8 PUSH2 0x750F JUMPI JUMPDEST POP SWAP3 PUSH32 0x587602B661DA57EFF43C58D2EBB4B7C66D08862F786FAF29F390136B3309A128 SWAP3 DUP8 PUSH1 0xF PUSH1 0x24 SWAP5 DUP10 PUSH1 0x3 DUP7 PUSH2 0x744E DUP13 PUSH1 0x60 SWAP13 DUP9 DUP5 MSTORE PUSH1 0x9 DUP2 MSTORE DUP2 DUP7 DUP6 KECCAK256 SSTORE DUP6 MLOAD SWAP6 PUSH2 0x740D DUP8 PUSH2 0x60AC JUMP JUMPDEST DUP10 DUP8 MSTORE PUSH1 0xA DUP3 DUP9 ADD SWAP3 DUP7 DUP5 MSTORE DUP3 DUP10 ADD SWAP5 DUP8 DUP7 MSTORE PUSH1 0x60 DUP11 ADD SWAP8 DUP1 DUP10 MSTORE MSTORE MSTORE DUP12 KECCAK256 SWAP6 MLOAD DUP7 SSTORE MLOAD PUSH1 0x1 DUP7 ADD SSTORE MLOAD ISZERO ISZERO PUSH1 0x2 DUP6 ADD SWAP1 PUSH1 0xFF DUP1 NOT DUP4 SLOAD AND SWAP2 ISZERO ISZERO AND OR SWAP1 SSTORE JUMP JUMPDEST MLOAD SWAP2 ADD SSTORE DUP3 DUP11 MLOAD SWAP10 DUP11 SWAP9 DUP8 DUP4 DUP4 PUSH32 0xF7617D06180C24C92BAD8C8436C3AE97409A09E1F5655DA6C0807F50C5F96748 DUP4 DUP15 SWAP13 LOG3 DUP1 LOG3 ADD SSTORE DUP8 DUP11 PUSH32 0xB4A411A01BC386893734D83E17411A973F9DBB12732AFF7A88D6964F1360B160 DUP12 DUP1 LOG3 PUSH4 0x2D8CA01 PUSH1 0xE1 SHL DUP3 MSTORE PUSH1 0x4 DUP3 ADD DUP9 SWAP1 MSTORE GAS STATICCALL SWAP2 DUP3 ISZERO PUSH2 0x7506 JUMPI POP DUP4 SWAP2 PUSH2 0x74DF JUMPI JUMPDEST POP PUSH2 0x74D6 JUMPI POP POP POP JUMP JUMPDEST PUSH2 0x62DF SWAP3 PUSH2 0x7731 JUMP JUMPDEST SWAP1 POP PUSH2 0x74FB SWAP2 SWAP3 POP PUSH1 0x60 RETURNDATASIZE PUSH1 0x60 GT PUSH2 0x2FC7 JUMPI PUSH2 0x2FB6 DUP2 DUP4 PUSH2 0x6150 JUMP JUMPDEST SWAP3 SWAP2 SWAP1 POP SWAP2 CODESIZE PUSH2 0x74CC JUMP JUMPDEST MLOAD RETURNDATASIZE DUP6 DUP3 RETURNDATACOPY RETURNDATASIZE SWAP1 REVERT JUMPDEST SWAP3 SWAP6 SWAP7 POP SWAP4 POP SWAP2 POP DUP3 DUP2 DUP2 RETURNDATASIZE DUP4 GT PUSH2 0x7566 JUMPI JUMPDEST PUSH2 0x752C DUP2 DUP4 PUSH2 0x6150 JUMP JUMPDEST DUP2 ADD SUB SLT PUSH2 0x7562 JUMPI MLOAD SWAP4 SWAP3 DUP7 SWAP3 DUP7 SWAP3 SWAP1 PUSH32 0x587602B661DA57EFF43C58D2EBB4B7C66D08862F786FAF29F390136B3309A128 PUSH2 0x73C0 JUMP JUMPDEST DUP6 DUP1 REVERT JUMPDEST POP RETURNDATASIZE PUSH2 0x7522 JUMP JUMPDEST DUP5 MLOAD RETURNDATASIZE DUP9 DUP3 RETURNDATACOPY RETURNDATASIZE SWAP1 REVERT JUMPDEST DUP7 MLOAD PUSH3 0x461BCD PUSH1 0xE5 SHL DUP2 MSTORE PUSH1 0x4 DUP2 ADD DUP6 SWAP1 MSTORE PUSH1 0x12 PUSH1 0x24 DUP3 ADD MSTORE PUSH18 0x1052481B9BDD081A5B9A5D1A585B1A5E9959 PUSH1 0x72 SHL PUSH1 0x44 DUP3 ADD MSTORE PUSH1 0x64 SWAP1 REVERT JUMPDEST DUP7 MLOAD PUSH3 0x461BCD PUSH1 0xE5 SHL DUP2 MSTORE PUSH1 0x4 DUP2 ADD DUP6 SWAP1 MSTORE PUSH1 0x12 PUSH1 0x24 DUP3 ADD MSTORE PUSH18 0x4E6F7420656E6F75676820706C6179657273 PUSH1 0x70 SHL PUSH1 0x44 DUP3 ADD MSTORE PUSH1 0x64 SWAP1 REVERT JUMPDEST DUP3 DUP11 ADD SLOAD PUSH1 0x5 DUP12 ADD SLOAD GT ISZERO PUSH2 0x72C8 JUMPI DUP7 MLOAD PUSH3 0x461BCD PUSH1 0xE5 SHL DUP2 MSTORE PUSH1 0x4 DUP2 ADD DUP6 SWAP1 MSTORE PUSH1 0x1B PUSH1 0x24 DUP3 ADD MSTORE PUSH32 0x4E6F7420656E6F75676820706C617965727320746F2073746172740000000000 PUSH1 0x44 DUP3 ADD MSTORE PUSH1 0x64 SWAP1 REVERT JUMPDEST DUP7 MLOAD PUSH3 0x461BCD PUSH1 0xE5 SHL DUP2 MSTORE PUSH1 0x4 DUP2 ADD DUP6 SWAP1 MSTORE PUSH1 0x16 PUSH1 0x24 DUP3 ADD MSTORE PUSH22 0x11D85B594818D85B9B9BDD081899481CDD185C9D1959 PUSH1 0x52 SHL PUSH1 0x44 DUP3 ADD MSTORE PUSH1 0x64 SWAP1 REVERT JUMPDEST PUSH4 0x4E487B71 PUSH1 0xE0 SHL DUP8 MSTORE PUSH1 0x21 PUSH1 0x4 MSTORE PUSH1 0x24 DUP8 REVERT JUMPDEST PUSH1 0x0 DUP2 PUSH1 0x0 MSTORE PUSH1 0x20 PUSH1 0x5 PUSH1 0x20 MSTORE PUSH1 0x40 SWAP2 PUSH1 0x40 PUSH1 0x0 KECCAK256 SWAP3 PUSH1 0x0 SWAP2 PUSH1 0x1 DUP1 PUSH1 0xA0 SHL SUB SWAP3 DUP4 PUSH32 0x0 AND SWAP5 JUMPDEST DUP8 DUP4 MSTORE PUSH1 0x7 DUP2 MSTORE DUP4 DUP4 KECCAK256 DUP1 SLOAD DUP4 LT ISZERO PUSH2 0x7726 JUMPI DUP3 DUP7 PUSH2 0x76F6 PUSH1 0x7 SWAP6 PUSH1 0x1 SWAP5 PUSH2 0x6063 JUMP JUMPDEST SWAP2 SWAP1 SLOAD PUSH1 0x3 SWAP3 DUP4 SHL SHR AND DUP10 DUP2 SUB PUSH2 0x7712 JUMPI JUMPDEST POP POP ADD SWAP2 POP PUSH2 0x76D3 JUMP JUMPDEST PUSH2 0x771F SWAP2 DUP12 ADD SLOAD SWAP1 PUSH2 0x6C7D JUMP JUMPDEST CODESIZE DUP1 PUSH2 0x7708 JUMP JUMPDEST POP POP POP POP POP POP POP POP POP JUMP JUMPDEST SWAP1 SWAP2 PUSH1 0x0 SWAP1 DUP3 DUP3 MSTORE PUSH1 0x20 SWAP2 PUSH1 0x5 DUP4 MSTORE PUSH1 0x40 SWAP1 DUP2 DUP2 KECCAK256 PUSH1 0x12 DUP2 ADD DUP1 SLOAD SWAP1 PUSH1 0xFF DUP3 AND PUSH2 0x78DA JUMPI DUP6 PUSH1 0x10 DUP5 ADD SSTORE PUSH1 0x1 DUP1 SWAP3 PUSH1 0xFF NOT AND OR SWAP1 SSTORE DUP4 MLOAD PUSH2 0x7771 DUP2 PUSH2 0x60AC JUMP JUMPDEST DUP9 DUP2 MSTORE PUSH1 0x3 DUP8 DUP3 ADD DUP8 DUP2 MSTORE PUSH2 0x77BA DUP8 DUP5 ADD PUSH1 0x1 DUP2 MSTORE PUSH1 0x60 DUP6 ADD SWAP3 TIMESTAMP DUP5 MSTORE DUP13 DUP10 MSTORE PUSH1 0xA DUP13 MSTORE DUP10 DUP10 KECCAK256 SWAP6 MLOAD DUP7 SSTORE MLOAD PUSH1 0x1 DUP7 ADD SSTORE MLOAD ISZERO ISZERO PUSH1 0x2 DUP6 ADD SWAP1 PUSH1 0xFF DUP1 NOT DUP4 SLOAD AND SWAP2 ISZERO ISZERO AND OR SWAP1 SSTORE JUMP JUMPDEST MLOAD SWAP2 ADD SSTORE PUSH2 0x77C7 DUP6 PUSH2 0x7912 JUMP JUMPDEST SWAP3 PUSH1 0x11 DUP4 ADD DUP5 MLOAD SWAP2 PUSH1 0x1 PUSH1 0x1 PUSH1 0x40 SHL SUB DUP4 GT PUSH2 0x78C6 JUMPI PUSH1 0x1 PUSH1 0x40 SHL DUP4 GT PUSH2 0x78C6 JUMPI DUP2 SLOAD DUP4 DUP4 SSTORE DUP1 DUP5 LT PUSH2 0x78AC JUMPI JUMPDEST POP SWAP8 SWAP7 SWAP6 SWAP5 SWAP2 SWAP3 DUP10 SWAP4 DUP12 SWAP6 SWAP3 DUP10 DUP6 ADD SWAP1 DUP12 MSTORE DUP10 DUP12 KECCAK256 JUMPDEST DUP3 DUP13 LT PUSH2 0x7893 JUMPI POP POP POP POP PUSH1 0x2 ADD DUP1 SLOAD PUSH1 0xFF PUSH1 0xA8 SHL NOT AND PUSH1 0x1 PUSH1 0xA9 SHL OR SWAP1 SSTORE DUP4 MLOAD DUP6 DUP2 MSTORE DUP7 DUP2 ADD DUP6 SWAP1 MSTORE PUSH32 0xF08583DF698FBC18E549DF63E2F88E2920D41A51A461B43C5A65A517DB5C64B9 SWAP8 POP PUSH32 0x76870250771FE5BCC9B4EC83F635583A81B6D2E870819E4134563AB8BCA7800E SWAP2 DUP2 SWAP1 PUSH2 0x7889 SWAP1 DUP3 DUP9 ADD SWAP1 PUSH2 0x63A1 JUMP JUMPDEST SUB SWAP1 LOG3 MLOAD SWAP1 DUP2 MSTORE LOG3 JUMP JUMPDEST DUP2 MLOAD DUP13 DUP3 ADD SSTORE SWAP11 DUP4 ADD SWAP11 DUP14 SWAP8 POP DUP13 SWAP7 POP SWAP1 DUP11 ADD SWAP1 PUSH2 0x780B JUMP JUMPDEST DUP3 DUP3 MSTORE DUP10 DUP3 KECCAK256 PUSH2 0x78C0 SWAP2 DUP2 ADD SWAP1 DUP6 ADD PUSH2 0x6D1F JUMP JUMPDEST CODESIZE PUSH2 0x77F5 JUMP JUMPDEST PUSH4 0x4E487B71 PUSH1 0xE0 SHL DUP2 MSTORE PUSH1 0x41 PUSH1 0x4 MSTORE PUSH1 0x24 SWAP1 REVERT JUMPDEST DUP5 MLOAD PUSH3 0x461BCD PUSH1 0xE5 SHL DUP2 MSTORE PUSH1 0x4 DUP2 ADD DUP9 SWAP1 MSTORE PUSH1 0x11 PUSH1 0x24 DUP3 ADD MSTORE PUSH17 0x105B1C9958591E48199D5B199A5B1B1959 PUSH1 0x7A SHL PUSH1 0x44 DUP3 ADD MSTORE PUSH1 0x64 SWAP1 REVERT JUMPDEST SWAP1 PUSH1 0x40 DUP1 MLOAD SWAP1 PUSH2 0x7921 DUP3 PUSH2 0x6134 JUMP JUMPDEST PUSH1 0xC SWAP1 PUSH1 0xC DUP4 MSTORE PUSH1 0x20 SWAP1 PUSH2 0x180 SWAP6 DUP7 CALLDATASIZE PUSH1 0x20 DUP8 ADD CALLDATACOPY PUSH1 0x40 MLOAD SWAP7 PUSH2 0x7943 DUP9 PUSH2 0x6134 JUMP JUMPDEST PUSH1 0xC DUP9 MSTORE CALLDATASIZE PUSH1 0x20 DUP10 ADD CALLDATACOPY PUSH1 0x0 JUMPDEST DUP5 DUP2 LT PUSH2 0x7A11 JUMPI POP SWAP1 PUSH1 0xB SWAP2 DUP3 JUMPDEST PUSH2 0x7996 JUMPI POP POP POP POP PUSH1 0x0 JUMPDEST DUP2 DUP2 LT PUSH2 0x7977 JUMPI POP SWAP1 SWAP3 POP POP JUMP JUMPDEST DUP1 PUSH2 0x7984 PUSH1 0x1 SWAP3 DUP8 PUSH2 0x6527 JUMP JUMPDEST MLOAD PUSH2 0x798F DUP3 DUP7 PUSH2 0x6527 JUMP JUMPDEST MSTORE ADD PUSH2 0x7969 JUMP JUMPDEST PUSH1 0x1 DUP4 ADD DUP1 DUP5 GT PUSH2 0xDA5 JUMPI PUSH2 0x79AB SWAP1 DUP3 PUSH2 0x6975 JUMP JUMPDEST SWAP3 DUP3 MLOAD SWAP2 DUP6 DUP4 ADD SWAP1 DUP2 MSTORE DUP6 DUP4 MSTORE DUP4 DUP4 ADD SWAP3 DUP1 DUP5 LT PUSH1 0x1 PUSH1 0x1 PUSH1 0x40 SHL SUB DUP6 GT OR PUSH2 0x153C JUMPI PUSH2 0x7A0A SWAP4 DUP6 MSTORE MLOAD SWAP1 KECCAK256 SWAP4 PUSH2 0x7A04 PUSH2 0x79E5 DUP4 DUP13 PUSH2 0x6527 JUMP JUMPDEST MLOAD SWAP2 DUP12 PUSH2 0x79FD DUP6 PUSH2 0x79F6 DUP5 DUP5 PUSH2 0x6527 JUMP JUMPDEST MLOAD SWAP3 PUSH2 0x6527 JUMP JUMPDEST MSTORE DUP12 PUSH2 0x6527 JUMP JUMPDEST MSTORE PUSH2 0x6B1E JUMP JUMPDEST SWAP2 DUP3 PUSH2 0x795E JUMP JUMPDEST DUP1 DUP1 PUSH2 0x7A1F PUSH1 0x1 SWAP4 DUP12 PUSH2 0x6527 JUMP JUMPDEST MSTORE ADD PUSH2 0x7950 JUMP JUMPDEST SWAP1 DUP2 PUSH1 0x0 MSTORE PUSH1 0x5 PUSH1 0x20 MSTORE PUSH1 0x40 PUSH1 0x0 KECCAK256 SWAP1 PUSH2 0x7A46 PUSH1 0xFF PUSH1 0x12 DUP5 ADD SLOAD AND PUSH2 0x653B JUMP JUMPDEST PUSH1 0xB DUP3 ADD SLOAD SWAP3 DUP4 ISZERO ISZERO SWAP4 DUP5 PUSH2 0x8656 JUMPI JUMPDEST POP PUSH1 0x0 DUP2 DUP2 MSTORE PUSH1 0x7 PUSH1 0x20 MSTORE PUSH1 0x40 DUP2 KECCAK256 SLOAD SWAP5 DUP2 SWAP1 PUSH1 0x0 NOT SWAP1 PUSH2 0x7A8F PUSH2 0x7A79 DUP10 PUSH2 0x64CF JUMP JUMPDEST SWAP9 PUSH2 0x7A87 PUSH1 0x40 MLOAD SWAP11 DUP12 PUSH2 0x6150 JUMP JUMPDEST DUP1 DUP11 MSTORE PUSH2 0x64CF JUMP JUMPDEST PUSH1 0x1F NOT ADD CALLDATASIZE PUSH1 0x20 DUP11 ADD CALLDATACOPY PUSH1 0x0 SWAP6 PUSH1 0x0 SWAP4 PUSH1 0x0 SWAP4 JUMPDEST DUP8 PUSH1 0x0 MSTORE PUSH1 0x7 PUSH1 0x20 MSTORE PUSH1 0x40 PUSH1 0x0 KECCAK256 DUP1 SLOAD DUP7 LT ISZERO PUSH2 0x7BB4 JUMPI DUP6 PUSH2 0x7AC4 SWAP2 PUSH2 0x6063 JUMP JUMPDEST PUSH1 0x1 DUP1 PUSH1 0xA0 SHL SUB SWAP2 SLOAD SWAP1 PUSH1 0x3 SHL SHR AND SWAP7 DUP9 PUSH1 0x0 MSTORE PUSH1 0x6 PUSH1 0x20 MSTORE PUSH1 0x40 PUSH1 0x0 KECCAK256 DUP9 PUSH1 0x0 MSTORE PUSH1 0x20 MSTORE PUSH1 0x40 PUSH1 0x0 KECCAK256 SWAP10 PUSH1 0x4 SWAP8 PUSH1 0xFF DUP10 DUP14 ADD SLOAD AND ISZERO DUP1 ISZERO PUSH2 0x7BA8 JUMPI JUMPDEST PUSH2 0x7B98 JUMPI PUSH2 0x7B10 PUSH1 0x2 SWAP2 PUSH2 0x6518 JUMP JUMPDEST SWAP12 ADD SLOAD SWAP4 DUP14 DUP5 DUP7 LT ISZERO PUSH2 0x7B58 JUMPI POP POP POP POP POP SWAP5 DUP1 PUSH1 0x1 SWAP6 DUP12 MLOAD ISZERO PUSH2 0x7B43 JUMPI POP PUSH1 0x20 DUP12 ADD MSTORE PUSH1 0x1 DUP6 SWAP5 JUMPDEST ADD SWAP4 SWAP8 SWAP5 SWAP6 PUSH2 0x7AA3 JUMP JUMPDEST PUSH1 0x32 SWAP1 PUSH4 0x4E487B71 PUSH1 0xE0 SHL PUSH1 0x0 MSTORE MSTORE PUSH1 0x24 PUSH1 0x0 REVERT JUMPDEST SWAP3 SWAP9 POP SWAP4 SWAP3 DUP1 SWAP10 SWAP2 SWAP8 SWAP4 EQ PUSH2 0x7B72 JUMPI JUMPDEST POP POP PUSH1 0x1 SWAP1 PUSH2 0x7B39 JUMP JUMPDEST SWAP6 PUSH1 0x1 SWAP3 SWAP7 PUSH2 0x5421 DUP3 PUSH2 0x7B88 PUSH2 0x7B8E SWAP6 SWAP12 PUSH2 0x6518 JUMP JUMPDEST SWAP11 PUSH2 0x6527 JUMP JUMPDEST SWAP5 SWAP1 POP DUP11 CODESIZE PUSH2 0x7B68 JUMP JUMPDEST SWAP11 POP SWAP6 SWAP1 SWAP7 POP PUSH1 0x1 SWAP2 SWAP8 POP PUSH2 0x7B39 JUMP JUMPDEST POP PUSH1 0x2 DUP13 ADD SLOAD ISZERO PUSH2 0x7B01 JUMP JUMPDEST POP SWAP7 SWAP9 SWAP6 SWAP3 SWAP2 SWAP10 SWAP4 POP SWAP7 SWAP4 DUP2 SWAP1 DUP2 PUSH2 0x864D JUMPI JUMPDEST POP PUSH2 0x836F JUMPI PUSH2 0x805E JUMPI JUMPDEST PUSH1 0x1 PUSH1 0x1 PUSH1 0xA0 SHL SUB DUP7 AND ISZERO PUSH2 0x8027 JUMPI PUSH1 0x0 NOT DUP6 EQ PUSH2 0x7FE2 JUMPI PUSH1 0x1 LT DUP1 PUSH2 0x7FD8 JUMPI JUMPDEST PUSH2 0x7F7C JUMPI JUMPDEST POP POP PUSH1 0xC DUP2 ADD DUP1 SLOAD PUSH1 0x1 PUSH1 0x1 PUSH1 0xA0 SHL SUB NOT AND PUSH1 0x1 PUSH1 0x1 PUSH1 0xA0 SHL SUB DUP6 AND SWAP1 DUP2 OR SWAP1 SWAP2 SSTORE PUSH1 0x0 DUP6 DUP2 MSTORE PUSH1 0x6 PUSH1 0x20 SWAP1 DUP2 MSTORE PUSH1 0x40 DUP1 DUP4 KECCAK256 DUP5 DUP5 MSTORE DUP3 MSTORE SWAP2 DUP3 SWAP1 KECCAK256 PUSH1 0x1 DUP2 DUP2 ADD SLOAD PUSH1 0xD DUP8 ADD SSTORE PUSH1 0x2 SWAP2 DUP3 ADD SLOAD PUSH1 0xE DUP8 ADD DUP2 SWAP1 SSTORE PUSH1 0x4 DUP8 ADD SLOAD PUSH1 0xF DUP9 ADD SLOAD DUP7 MLOAD SWAP2 DUP3 MSTORE SWAP5 DUP2 ADD DUP3 SWAP1 MSTORE SWAP5 DUP6 ADD SWAP4 SWAP1 SWAP4 MSTORE SWAP5 PUSH1 0xFF SWAP5 SWAP2 SWAP4 SWAP1 SWAP3 SWAP2 SWAP1 DUP10 SWAP1 PUSH32 0x5F5C334197520A152F092DF6690F941BE7E48AC07124CF867206738CAC4A6A3B SWAP1 PUSH1 0x60 SWAP1 LOG3 PUSH1 0x40 MLOAD SWAP1 DUP2 MSTORE DUP8 PUSH32 0xF5D92DF6AE1A0B46D0A0C57C2E1DA0D75D7591D2804AD086CB1E27BA67DE7AAF PUSH1 0x20 DUP8 DUP1 PUSH1 0xA0 SHL SUB DUP11 AND SWAP4 LOG3 ADD SLOAD PUSH1 0xB0 SHR AND PUSH2 0x7CDC DUP2 PUSH2 0x638A JUMP JUMPDEST SUB PUSH2 0x7F71 JUMPI POP PUSH1 0x0 DUP3 DUP2 MSTORE PUSH1 0x5 PUSH1 0x20 MSTORE PUSH1 0x40 SWAP1 KECCAK256 SWAP1 PUSH1 0x1 PUSH1 0x1 PUSH1 0xA0 SHL SUB DUP2 AND ISZERO PUSH2 0x7F3B JUMPI SELFBALANCE DUP4 PUSH1 0x2 DUP5 ADD SWAP3 PUSH1 0xFF DUP5 SLOAD PUSH1 0xA0 SHR AND PUSH2 0x7D18 DUP2 PUSH2 0x638A JUMP JUMPDEST PUSH2 0x7E91 JUMPI PUSH32 0xDC1D0B6A7CBFA6F3B2D4325BAB5A169B265AD0B2B4022FB550364F0DFEEB6A74 SWAP1 PUSH1 0x20 SWAP1 PUSH1 0x1 PUSH1 0x1 PUSH1 0xA0 SHL SUB DUP1 DUP3 AND PUSH32 0x0 SWAP1 SWAP2 AND SUB PUSH2 0x7E30 JUMPI PUSH2 0x7D86 PUSH1 0x3 DUP9 ADD SLOAD DUP1 SWAP7 LT ISZERO PUSH2 0x642E JUMP JUMPDEST PUSH2 0x7D92 DUP6 PUSH1 0x4 SLOAD PUSH2 0x65B9 JUMP JUMPDEST PUSH1 0x4 SSTORE JUMPDEST PUSH1 0x40 MLOAD SWAP5 DUP6 MSTORE PUSH1 0x1 PUSH1 0x1 PUSH1 0xA0 SHL SUB AND SWAP4 LOG3 SLOAD PUSH1 0xFF DUP2 PUSH1 0xA0 SHR AND PUSH2 0x7DB8 DUP2 PUSH2 0x638A JUMP JUMPDEST ISZERO SWAP1 DUP2 PUSH2 0x7E16 JUMPI JUMPDEST POP PUSH2 0x7DC9 JUMPI POP POP JUMP JUMPDEST PUSH1 0x3 ADD SLOAD PUSH1 0x5 DUP2 MUL SWAP1 DUP1 DUP3 DIV PUSH1 0x5 EQ SWAP1 ISZERO OR ISZERO PUSH2 0xDA5 JUMPI PUSH1 0x40 PUSH32 0x6519409340F1EC7D14147FD4E3EEEEF8EF0C2BC4A7E5E587357443F1F5F28808 SWAP2 PUSH1 0x64 DUP3 MLOAD SWAP2 PUSH1 0x5 DUP4 MSTORE DIV PUSH1 0x20 DUP3 ADD MSTORE LOG2 JUMP JUMPDEST PUSH1 0x1 SWAP2 POP PUSH1 0xB0 SHR PUSH1 0xFF AND PUSH2 0x7E29 DUP2 PUSH2 0x638A JUMP JUMPDEST EQ CODESIZE PUSH2 0x7DC0 JUMP JUMPDEST PUSH2 0x7E79 PUSH1 0x3 DUP9 ADD SLOAD SWAP6 PUSH2 0x7E73 PUSH1 0x64 PUSH2 0x7E47 DUP10 PUSH2 0x6734 JUMP JUMPDEST DIV SWAP8 PUSH2 0x7E6D DUP10 PUSH1 0x4 SLOAD SWAP5 PUSH2 0x7E66 PUSH2 0x7E5E DUP6 DUP5 PUSH2 0x6471 JUMP JUMPDEST DUP8 LT ISZERO PUSH2 0x6BC6 JUMP JUMPDEST LT ISZERO PUSH2 0x642E JUMP JUMPDEST DUP9 PUSH2 0x6471 JUMP JUMPDEST SWAP1 PUSH2 0x6471 JUMP JUMPDEST PUSH1 0x4 SSTORE DUP5 ISZERO PUSH2 0x7D96 JUMPI PUSH2 0x7E8C DUP6 DUP3 PUSH2 0x6C7D JUMP JUMPDEST PUSH2 0x7D96 JUMP JUMPDEST SWAP1 POP PUSH1 0x4 DUP5 ADD SLOAD DUP1 ISZERO PUSH2 0x7F0B JUMPI PUSH1 0xA DUP2 MUL SWAP1 DUP1 DUP3 DIV PUSH1 0xA SUB PUSH2 0xDA5 JUMPI DUP7 SWAP3 PUSH2 0x7EF8 PUSH1 0x20 SWAP3 PUSH2 0x7EF0 PUSH2 0x7EE7 PUSH1 0x64 PUSH32 0xDC1D0B6A7CBFA6F3B2D4325BAB5A169B265AD0B2B4022FB550364F0DFEEB6A74 SWAP8 DIV DUP1 SWAP4 PUSH2 0x6471 JUMP JUMPDEST DUP1 SWAP9 LT ISZERO PUSH2 0x642E JUMP JUMPDEST PUSH1 0x3 SLOAD PUSH2 0x65B9 JUMP JUMPDEST PUSH1 0x3 SSTORE DUP5 ISZERO PUSH2 0x7D96 JUMPI PUSH2 0x7E8C DUP6 DUP3 PUSH2 0x6C7D JUMP JUMPDEST PUSH1 0x40 MLOAD PUSH3 0x461BCD PUSH1 0xE5 SHL DUP2 MSTORE PUSH1 0x20 PUSH1 0x4 DUP3 ADD MSTORE PUSH1 0x8 PUSH1 0x24 DUP3 ADD MSTORE PUSH8 0x4E6F207072697A65 PUSH1 0xC0 SHL PUSH1 0x44 DUP3 ADD MSTORE PUSH1 0x64 SWAP1 REVERT JUMPDEST PUSH1 0x40 MLOAD PUSH3 0x461BCD PUSH1 0xE5 SHL DUP2 MSTORE PUSH1 0x20 PUSH1 0x4 DUP3 ADD MSTORE PUSH1 0xE PUSH1 0x24 DUP3 ADD MSTORE PUSH14 0x24B73B30B634B2103BB4B73732B9 PUSH1 0x91 SHL PUSH1 0x44 DUP3 ADD MSTORE PUSH1 0x64 SWAP1 REVERT JUMPDEST SWAP1 PUSH2 0x62DF SWAP3 POP PUSH2 0x8661 JUMP JUMPDEST PUSH1 0x1 SWAP3 SWAP5 POP PUSH1 0xFF SWAP2 PUSH2 0x7FA8 PUSH1 0x2 SWAP3 PUSH2 0x7FA2 DUP7 DUP1 PUSH1 0xA0 SHL SUB SWAP4 PUSH2 0x2710 PUSH1 0x10 DUP12 ADD SLOAD DIV PUSH2 0x6975 JUMP JUMPDEST SWAP1 PUSH2 0x6527 JUMP JUMPDEST MLOAD AND SWAP5 DUP7 PUSH32 0x6735B98D5D75EB6A72FF7CBD805FC91D5EE18E1B5D11043B0E649B6F22C9CAB8 PUSH1 0x0 DUP1 LOG2 SWAP3 POP PUSH2 0x7BF7 JUMP JUMPDEST POP PUSH1 0x1 DUP3 GT PUSH2 0x7BF2 JUMP JUMPDEST PUSH1 0x40 MLOAD PUSH3 0x461BCD PUSH1 0xE5 SHL DUP2 MSTORE PUSH1 0x20 PUSH1 0x4 DUP3 ADD MSTORE PUSH1 0x1A PUSH1 0x24 DUP3 ADD MSTORE PUSH32 0x4E6F20636F6D706C6574656420706C617965727320666F756E64000000000000 PUSH1 0x44 DUP3 ADD MSTORE PUSH1 0x64 SWAP1 REVERT JUMPDEST PUSH1 0x40 MLOAD PUSH3 0x461BCD PUSH1 0xE5 SHL DUP2 MSTORE PUSH1 0x20 PUSH1 0x4 DUP3 ADD MSTORE PUSH1 0xF PUSH1 0x24 DUP3 ADD MSTORE PUSH15 0x139BC81DDA5B9B995C88199BDD5B99 PUSH1 0x8A SHL PUSH1 0x44 DUP3 ADD MSTORE PUSH1 0x64 SWAP1 REVERT JUMPDEST SWAP4 SWAP1 SWAP6 SWAP5 SWAP2 SWAP7 SWAP3 DUP6 PUSH1 0x0 MSTORE PUSH1 0x5 PUSH1 0x20 MSTORE PUSH1 0x40 PUSH1 0x0 KECCAK256 SWAP8 PUSH1 0x0 JUMPDEST DUP8 PUSH1 0x0 MSTORE PUSH1 0x7 PUSH1 0x20 MSTORE PUSH1 0x40 PUSH1 0x0 KECCAK256 DUP1 SLOAD DUP3 LT ISZERO PUSH2 0x835F JUMPI DUP2 PUSH2 0x8098 SWAP2 PUSH2 0x6063 JUMP JUMPDEST SWAP2 SWAP1 SLOAD SWAP2 DUP10 PUSH1 0x0 MSTORE PUSH1 0x6 PUSH1 0x20 MSTORE PUSH1 0x40 PUSH1 0x0 KECCAK256 PUSH1 0x1 DUP1 PUSH1 0xA0 SHL SUB DUP5 DUP4 PUSH1 0x3 SHL SHR AND PUSH1 0x0 MSTORE PUSH1 0x20 MSTORE DUP12 PUSH1 0x40 PUSH1 0x0 KECCAK256 DUP12 PUSH1 0x0 MSTORE PUSH1 0x15 PUSH1 0x20 MSTORE PUSH1 0x40 PUSH1 0x0 KECCAK256 PUSH1 0x1 DUP1 PUSH1 0xA0 SHL SUB DUP7 DUP6 PUSH1 0x3 SHL SHR AND PUSH1 0x0 MSTORE PUSH1 0x20 MSTORE PUSH1 0xFF PUSH1 0x40 PUSH1 0x0 KECCAK256 SLOAD AND SWAP1 DUP2 ISZERO PUSH2 0x8350 JUMPI JUMPDEST POP PUSH2 0x8345 JUMPI PUSH1 0xFF PUSH1 0x2 PUSH1 0x1 SWAP3 DUP14 PUSH1 0x0 MSTORE PUSH1 0x15 PUSH1 0x20 MSTORE PUSH1 0x40 PUSH1 0x0 KECCAK256 DUP5 DUP1 PUSH1 0xA0 SHL SUB DUP9 DUP8 PUSH1 0x3 SHL SHR AND PUSH1 0x0 MSTORE PUSH1 0x20 MSTORE PUSH1 0x40 PUSH1 0x0 KECCAK256 DUP5 DUP5 NOT DUP3 SLOAD AND OR SWAP1 SSTORE PUSH1 0x17 PUSH1 0x20 MSTORE PUSH1 0x40 PUSH1 0x0 KECCAK256 PUSH2 0x8146 DUP2 SLOAD PUSH2 0x6518 JUMP JUMPDEST SWAP1 SSTORE DUP4 DUP1 PUSH1 0xA0 SHL SUB DUP8 DUP7 PUSH1 0x3 SHL SHR AND PUSH1 0x0 MSTORE PUSH1 0x16 PUSH1 0x20 MSTORE TIMESTAMP PUSH1 0x40 PUSH1 0x0 KECCAK256 SSTORE ADD SLOAD PUSH1 0xB0 SHR AND PUSH2 0x8173 DUP2 PUSH2 0x638A JUMP JUMPDEST EQ DUP1 PUSH2 0x8338 JUMPI JUMPDEST ISZERO PUSH2 0x81F0 JUMPI PUSH1 0x3 DUP13 ADD SLOAD SWAP1 PUSH1 0x32 SWAP4 DUP3 DUP6 DUP2 MUL DIV DUP6 EQ DUP4 ISZERO OR ISZERO PUSH2 0xDA5 JUMPI PUSH1 0x40 DUP13 SWAP3 DUP16 SWAP3 PUSH1 0x0 DUP1 MLOAD PUSH1 0x20 PUSH2 0x88BE DUP4 CODECOPY DUP2 MLOAD SWAP2 MSTORE SWAP4 PUSH2 0x81CE PUSH1 0x4 PUSH2 0x81C4 PUSH1 0x64 PUSH1 0x1 SWAP13 DUP12 MUL DIV DUP1 SWAP11 PUSH2 0x6471 JUMP JUMPDEST SWAP3 ADD SWAP2 DUP3 SLOAD PUSH2 0x65B9 JUMP JUMPDEST SWAP1 SSTORE DUP3 MLOAD SWAP6 DUP9 DUP8 MSTORE PUSH1 0x20 DUP8 ADD MSTORE DUP8 DUP1 PUSH1 0xA0 SHL SUB SWAP2 PUSH1 0x3 SHL SHR AND SWAP4 LOG3 JUMPDEST ADD PUSH2 0x8077 JUMP JUMPDEST SWAP2 PUSH1 0x10 SLOAD DUP1 PUSH2 0x8294 JUMPI JUMPDEST POP PUSH1 0x1 DUP1 PUSH1 0xA0 SHL SUB DUP2 DUP5 PUSH1 0x3 SHL SHR AND PUSH1 0x0 MSTORE PUSH1 0x18 PUSH1 0x20 MSTORE PUSH1 0x4 PUSH1 0x40 PUSH1 0x0 KECCAK256 ADD SWAP3 DUP11 PUSH1 0x32 DUP6 SLOAD LT ISZERO PUSH1 0x0 EQ PUSH2 0x8276 JUMPI POP DUP4 SLOAD SWAP4 DUP5 PUSH1 0x31 NOT DUP2 ADD GT PUSH2 0xDA5 JUMPI PUSH1 0x40 DUP13 SWAP3 PUSH1 0x0 DUP1 MLOAD PUSH1 0x20 PUSH2 0x88BE DUP4 CODECOPY DUP2 MLOAD SWAP2 MSTORE SWAP3 PUSH1 0x1 SWAP8 PUSH1 0x31 NOT ADD SWAP1 SSTORE JUMPDEST DUP2 MLOAD SWAP5 PUSH1 0x2 DUP7 MSTORE PUSH1 0x32 PUSH1 0x20 DUP8 ADD MSTORE DUP8 DUP1 PUSH1 0xA0 SHL SUB SWAP2 PUSH1 0x3 SHL SHR AND SWAP4 LOG3 PUSH2 0x81EA JUMP JUMPDEST SWAP1 PUSH1 0x40 PUSH1 0x0 DUP1 MLOAD PUSH1 0x20 PUSH2 0x88BE DUP4 CODECOPY DUP2 MLOAD SWAP2 MSTORE SWAP2 PUSH1 0x0 PUSH1 0x1 SWAP8 SSTORE PUSH2 0x8255 JUMP JUMPDEST DUP1 PUSH1 0x0 MSTORE PUSH1 0x11 PUSH1 0x20 MSTORE PUSH1 0x40 PUSH1 0x0 KECCAK256 PUSH1 0x1 DUP1 PUSH1 0xA0 SHL SUB DUP4 DUP7 PUSH1 0x3 SHL SHR AND PUSH1 0x0 MSTORE PUSH1 0x20 MSTORE PUSH1 0x32 PUSH1 0x40 PUSH1 0x0 KECCAK256 SLOAD LT ISZERO PUSH1 0x0 EQ PUSH2 0x830B JUMPI POP PUSH1 0x10 SLOAD PUSH1 0x0 MSTORE PUSH1 0x11 PUSH1 0x20 MSTORE PUSH1 0x40 PUSH1 0x0 KECCAK256 PUSH1 0x1 DUP1 PUSH1 0xA0 SHL SUB DUP3 DUP6 PUSH1 0x3 SHL SHR AND PUSH1 0x0 MSTORE PUSH1 0x20 MSTORE PUSH1 0x40 PUSH1 0x0 KECCAK256 DUP1 SLOAD DUP1 PUSH1 0x31 NOT DUP2 ADD GT PUSH2 0xDA5 JUMPI PUSH1 0x31 NOT ADD SWAP1 SSTORE JUMPDEST CODESIZE PUSH2 0x81FA JUMP JUMPDEST PUSH1 0x0 MSTORE PUSH1 0x11 PUSH1 0x20 MSTORE PUSH1 0x40 PUSH1 0x0 KECCAK256 PUSH1 0x1 DUP1 PUSH1 0xA0 SHL SUB DUP3 DUP6 PUSH1 0x3 SHL SHR AND PUSH1 0x0 MSTORE PUSH1 0x20 MSTORE PUSH1 0x0 PUSH1 0x40 DUP2 KECCAK256 SSTORE PUSH2 0x8305 JUMP JUMPDEST POP PUSH1 0x3 DUP13 ADD SLOAD ISZERO ISZERO PUSH2 0x817A JUMP JUMPDEST POP POP PUSH1 0x1 SWAP2 POP PUSH2 0x81EA JUMP JUMPDEST PUSH1 0xFF SWAP2 POP PUSH1 0x4 ADD SLOAD AND CODESIZE PUSH2 0x80F7 JUMP JUMPDEST POP POP SWAP3 SWAP6 SWAP7 SWAP2 SWAP5 SWAP1 SWAP4 SWAP8 POP PUSH2 0x7BD1 JUMP JUMPDEST POP POP POP POP POP POP POP DUP1 PUSH1 0x0 MSTORE PUSH1 0x5 PUSH1 0x20 MSTORE PUSH1 0x40 PUSH1 0x0 KECCAK256 SWAP1 PUSH1 0x1 PUSH1 0xFF PUSH1 0x2 DUP5 ADD SLOAD PUSH1 0xB0 SHR AND PUSH2 0x839B DUP2 PUSH2 0x638A JUMP JUMPDEST SUB PUSH2 0x860F JUMPI PUSH1 0x4 DUP3 ADD SLOAD DUP1 ISZERO PUSH2 0x85D6 JUMPI PUSH2 0x83B7 DUP2 SELFBALANCE LT ISZERO PUSH2 0x642E JUMP JUMPDEST PUSH1 0xA DUP2 MUL DUP2 DUP2 DIV PUSH1 0xA SUB PUSH2 0xDA5 JUMPI PUSH2 0x83D6 PUSH1 0x64 PUSH2 0x83DF SWAP3 DIV DUP1 SWAP4 PUSH2 0x6471 JUMP JUMPDEST SWAP2 PUSH1 0x3 SLOAD PUSH2 0x65B9 JUMP JUMPDEST PUSH1 0x3 SSTORE DUP2 PUSH1 0x0 MSTORE PUSH1 0x7 PUSH1 0x20 MSTORE PUSH1 0x40 PUSH1 0x0 KECCAK256 SLOAD DUP1 ISZERO PUSH2 0x83FD DUP2 ISZERO PUSH2 0x69BA JUMP JUMPDEST PUSH2 0x697F JUMPI PUSH2 0x840B DUP2 DUP4 PUSH2 0x6975 JUMP JUMPDEST PUSH1 0x0 SWAP1 JUMPDEST DUP3 DUP3 LT PUSH2 0x8538 JUMPI POP POP POP PUSH1 0x2 DUP4 ADD SLOAD SWAP3 PUSH1 0xFF DUP5 PUSH1 0xA8 SHR AND SWAP2 PUSH1 0x6 DUP4 LT ISZERO PUSH2 0x597 JUMPI PUSH1 0x0 DUP5 PUSH32 0x5F5C334197520A152F092DF6690F941BE7E48AC07124CF867206738CAC4A6A3B PUSH1 0x60 PUSH1 0xF PUSH1 0x20 SWAP7 DUP6 SWAP11 PUSH2 0x848A PUSH1 0x2 PUSH32 0xDC1D0B6A7CBFA6F3B2D4325BAB5A169B265AD0B2B4022FB550364F0DFEEB6A74 SWAP12 EQ PUSH2 0x6673 JUMP JUMPDEST PUSH1 0xFF PUSH1 0xA8 SHL NOT AND PUSH1 0x3 PUSH1 0xA8 SHL OR PUSH1 0x2 DUP3 ADD SSTORE TIMESTAMP PUSH1 0xA DUP3 ADD SSTORE PUSH1 0xC DUP2 ADD DUP1 SLOAD PUSH1 0x1 PUSH1 0x1 PUSH1 0xA0 SHL SUB NOT AND SWAP1 SSTORE PUSH1 0xD DUP2 ADD DUP7 SWAP1 SSTORE PUSH1 0xE DUP2 ADD DUP7 SWAP1 SSTORE PUSH1 0x40 MLOAD PUSH1 0x3 DUP2 MSTORE DUP6 SWAP1 PUSH32 0x365A3D0A71BE5F440C8224437355D5BD81A703759BF906E441902272BFBAFCB3 SWAP1 DUP11 SWAP1 LOG2 ADD SLOAD PUSH1 0x40 MLOAD SWAP1 DUP7 DUP3 MSTORE DUP6 DUP9 DUP4 ADD MSTORE PUSH1 0x40 DUP3 ADD MSTORE LOG3 DUP5 DUP5 PUSH32 0xF5D92DF6AE1A0B46D0A0C57C2E1DA0D75D7591D2804AD086CB1E27BA67DE7AAF DUP5 PUSH1 0x40 MLOAD DUP5 DUP2 MSTORE LOG3 PUSH1 0x40 MLOAD SWAP1 DUP2 MSTORE LOG3 JUMP JUMPDEST DUP5 PUSH1 0x0 MSTORE PUSH1 0x7 PUSH1 0x20 MSTORE PUSH2 0x854F DUP3 PUSH1 0x40 PUSH1 0x0 KECCAK256 PUSH2 0x6063 JUMP JUMPDEST SWAP1 SLOAD PUSH1 0x1 PUSH1 0x1 PUSH1 0xA0 SHL SUB PUSH1 0x3 SWAP3 SWAP1 SWAP3 SHL SHR DUP2 AND SWAP3 SWAP1 DUP5 DUP7 DIV SWAP1 DUP3 ISZERO SWAP1 DUP2 ISZERO PUSH2 0x85B4 JUMPI JUMPDEST POP PUSH2 0x859C JUMPI JUMPDEST SWAP3 DUP4 PUSH1 0x1 SWAP4 SWAP5 PUSH2 0x858C JUMPI JUMPDEST POP POP ADD SWAP1 PUSH2 0x840F JUMP JUMPDEST PUSH2 0x8595 SWAP2 PUSH2 0x6C7D JUMP JUMPDEST CODESIZE DUP1 PUSH2 0x8583 JUMP JUMPDEST POP PUSH2 0x85AB PUSH1 0x1 SWAP3 DUP6 DUP8 DIV PUSH2 0x65B9 JUMP JUMPDEST PUSH1 0x0 SWAP3 POP PUSH2 0x8578 JUMP JUMPDEST DUP5 ISZERO ISZERO SWAP2 POP DUP2 PUSH2 0x85C6 JUMPI JUMPDEST POP CODESIZE PUSH2 0x8572 JUMP JUMPDEST SWAP1 POP PUSH1 0x2 DUP10 ADD SLOAD AND DUP5 EQ CODESIZE PUSH2 0x85BF JUMP JUMPDEST PUSH1 0x40 MLOAD PUSH3 0x461BCD PUSH1 0xE5 SHL DUP2 MSTORE PUSH1 0x20 PUSH1 0x4 DUP3 ADD MSTORE PUSH1 0x11 PUSH1 0x24 DUP3 ADD MSTORE PUSH17 0x4E6F207072697A6520746F207368617265 PUSH1 0x78 SHL PUSH1 0x44 DUP3 ADD MSTORE PUSH1 0x64 SWAP1 REVERT JUMPDEST PUSH1 0x40 MLOAD PUSH3 0x461BCD PUSH1 0xE5 SHL DUP2 MSTORE PUSH1 0x20 PUSH1 0x4 DUP3 ADD MSTORE PUSH1 0x16 PUSH1 0x24 DUP3 ADD MSTORE PUSH22 0x4F6E6C7920666F7220776167657265642067616D6573 PUSH1 0x50 SHL PUSH1 0x44 DUP3 ADD MSTORE PUSH1 0x64 SWAP1 REVERT JUMPDEST SWAP1 POP ISZERO CODESIZE PUSH2 0x7BC7 JUMP JUMPDEST TIMESTAMP LT ISZERO SWAP4 POP CODESIZE PUSH2 0x7A56 JUMP JUMPDEST PUSH1 0x1 PUSH1 0x1 PUSH1 0xA0 SHL SUB DUP1 DUP3 AND SWAP4 SWAP3 SWAP2 SWAP1 PUSH32 0x0 AND DUP5 EQ PUSH2 0x87B6 JUMPI PUSH1 0x0 SWAP4 DUP1 DUP6 MSTORE PUSH1 0x18 PUSH1 0x20 MSTORE PUSH1 0x40 DUP6 KECCAK256 SWAP1 PUSH1 0x1 PUSH1 0x1 PUSH1 0x60 SHL SUB PUSH1 0xA0 SHL DUP3 SLOAD AND OR DUP2 SSTORE PUSH1 0x1 DUP2 ADD PUSH2 0x86C7 DUP2 SLOAD PUSH2 0x6518 JUMP JUMPDEST SWAP1 SSTORE PUSH1 0x3 DUP2 ADD PUSH2 0x86D7 DUP2 SLOAD PUSH2 0x6518 JUMP JUMPDEST SWAP1 SSTORE PUSH1 0xA PUSH1 0x14 DUP5 LT PUSH2 0x87AE JUMPI JUMPDEST PUSH2 0x86EE SWAP1 DUP4 PUSH2 0x87BC JUMP JUMPDEST DUP3 PUSH1 0x2 DUP3 ADD DUP1 SLOAD DUP1 ISZERO SWAP1 DUP2 ISZERO PUSH2 0x87A4 JUMPI JUMPDEST POP PUSH2 0x879C JUMPI JUMPDEST POP POP PUSH1 0x64 SWAP3 PUSH1 0xA DUP2 GT ISZERO PUSH2 0x8737 JUMPI JUMPDEST POP PUSH2 0x62DF SWAP4 SWAP5 POP PUSH1 0x4 DUP2 ADD PUSH2 0x872A DUP5 DUP3 SLOAD PUSH2 0x65B9 JUMP JUMPDEST SWAP1 SSTORE PUSH1 0x5 TIMESTAMP SWAP2 ADD SSTORE PUSH2 0x87BC JUMP JUMPDEST DUP1 SWAP2 SWAP4 POP PUSH1 0xB SUB SWAP1 PUSH1 0xB DUP3 GT PUSH2 0x8788 JUMPI PUSH1 0xA DUP3 MUL SWAP2 DUP3 DIV PUSH1 0xA EQ SWAP1 PUSH1 0xB EQ OR ISZERO PUSH2 0x8774 JUMPI PUSH1 0x64 ADD DUP1 PUSH1 0x64 GT PUSH2 0x8774 JUMPI PUSH2 0x62DF SWAP4 SWAP5 POP SWAP2 DUP5 SWAP4 PUSH2 0x8714 JUMP JUMPDEST PUSH4 0x4E487B71 PUSH1 0xE0 SHL DUP6 MSTORE PUSH1 0x11 PUSH1 0x4 MSTORE PUSH1 0x24 DUP6 REVERT JUMPDEST PUSH4 0x4E487B71 PUSH1 0xE0 SHL DUP7 MSTORE PUSH1 0x11 PUSH1 0x4 MSTORE PUSH1 0x24 DUP7 REVERT JUMPDEST SSTORE DUP3 CODESIZE PUSH2 0x8705 JUMP JUMPDEST SWAP1 POP DUP3 LT CODESIZE PUSH2 0x86FF JUMP JUMPDEST POP PUSH1 0xF PUSH2 0x86E4 JUMP JUMPDEST POP POP SWAP1 POP JUMP JUMPDEST SWAP1 PUSH1 0x10 SLOAD SWAP1 DUP2 PUSH2 0x87CB JUMPI POP POP POP JUMP JUMPDEST PUSH1 0x0 SWAP2 DUP3 MSTORE PUSH1 0x11 PUSH1 0x20 MSTORE PUSH1 0x40 DUP3 KECCAK256 SWAP3 PUSH1 0x1 DUP1 PUSH1 0xA0 SHL SUB AND SWAP3 DUP4 DUP4 MSTORE PUSH1 0x20 MSTORE PUSH2 0x87F8 PUSH1 0x40 DUP4 KECCAK256 SWAP2 DUP3 SLOAD PUSH2 0x65B9 JUMP JUMPDEST SWAP1 SSTORE PUSH32 0x3830EDE34D2E3F029802CD34AC105737EDD990282473734067B348A70928A6EC PUSH1 0x20 PUSH1 0x40 PUSH1 0x10 SLOAD SWAP4 DUP5 DUP2 MSTORE PUSH1 0x11 DUP4 MSTORE DUP2 DUP2 KECCAK256 DUP7 DUP3 MSTORE DUP4 MSTORE KECCAK256 SLOAD PUSH1 0x40 MLOAD SWAP1 DUP2 MSTORE LOG3 JUMP INVALID PUSH20 0xF639A997D47BC9ECF8116DAC1744591113286AD7 REVERT 0xB2 0xB1 CHAINID DUP3 0xAF PUSH15 0xFCB58D39E3A512F2B722EBA73136C0 0xDE MLOAD PUSH19 0xE96C972B81970C46F27F849721A417C9ED012E 0xCF LT PUSH1 0xBD JUMP SELFBALANCE PUSH4 0xFE3441B3 CALLER CALLDATASIZE MSIZE SHR 0x4F PUSH13 0x10B56B72D6B8A9694C943D73AF 0x2F LT PUSH11 0xB7FEFB82AE9482E45DA193 PUSH25 0x1EB91DD8310C7F56CCD099FCD5EACFFD962FA5EE24466D806C DUP11 0x4F 0xB1 0x25 DUP3 0xD0 JUMPDEST 0xC3 0xD2 SWAP12 PUSH31 0x6E46E982A9930A2D1BE39BA1507A0B0C18893B0F31203FF15126B73A68AD2A GASPRICE PUSH16 0x1B9DC95EA78848BDF0CAE1500A26469 PUSH17 0x66735822122060559C8AC6C4870B65A348 MUL JUMPI 0xE2 ISZERO 0xBD PUSH16 0xB392C62D2922FC9714DA82A7DDD75C64 PUSH20 0x6F6C634300081800330000000000000000000000 "},"methodIdentifiers":{"AI_ADDRESS()":"1939053d","COMMISSION_PCT()":"2c01c2c6","DIFFICULTY_MODIFIER()":"22377d9e","HOUSE_EDGE_PCT()":"b241b5ec","MAX_FLIP_COUNT()":"32b72f9c","MAX_PLAYERS()":"4411b3eb","MIN_BET()":"6540742f","MIN_FLIP_COUNT()":"3ba80729","MIN_PLAYERS()":"85f07bbe","REVEAL_TIMEOUT()":"3d6ae3a7","cancelGame(uint256)":"69958ab9","commitAndReveal(uint256,uint256,uint256)":"97a2872c","commitRevealAndSubmit(uint256,uint256,uint256)":"4947bfc9","commitScore(uint256,bytes32)":"77cbc400","commits(uint256,address)":"885d68a8","computeCardOrder(uint256)":"e93362e2","cosmeticLevel(address)":"191a3749","createDailyChallenge(string,uint256,uint256)":"0b8a3bbe","createFreeGame(string,uint8,uint256,uint256,string)":"bbf39544","createGame(string,uint8,uint256,uint256,string)":"d35aea0a","createPrizePoolGame(string,uint8,uint256,uint256,string)":"cbf82790","createWeeklyChallenge(string,uint256,uint256)":"e7564cf5","currentSeason()":"bcb39621","dailySeed(uint256)":"821d5313","depositHouseBalance()":"c8ab99c7","drawWinner(uint256)":"60b2a56a","earlyExit(uint256)":"b8af3d3e","forceCommitTimeout(uint256,address)":"d34603ee","forceRevealTimeout(uint256,address)":"3e6a6bee","forceTieRefund(uint256)":"79ae8779","forfeit(uint256)":"3ed546ab","fulfillVRF(bytes32)":"96dbbbe8","gamePlayers(uint256,uint256)":"dfefef9f","gameRandomness(uint256)":"67bc540f","games(uint256)":"117a5b90","getActiveGames()":"1b76929c","getGame(uint256)":"a2f77bcc","getGameCount()":"e87c0ee6","getGamePlayers(uint256)":"15a40f49","getGameRandom(uint256)":"2122f4c6","getLeaderboardEntry(address)":"3ef25c11","getLiveScores(uint256)":"530d49f2","getPlayer(uint256,address)":"6454e58d","getPlayerGames(address)":"129daf84","getRandomnessProof(uint256)":"f2682edd","houseBalance()":"67084eb3","joinGame(uint256,string)":"68880a26","lastRageQuit(address)":"c2884e0e","leaderboard(address)":"d1d33d20","owner()":"8da5cb5b","passType(address)":"718f838c","playFree(string,uint8,uint256,uint256,string)":"0d65ca2f","playerGames(address,uint256)":"0a5694c2","players(uint256,address)":"c0f80921","prizePools(uint256)":"eddad394","pythVRF()":"772d84c4","rageQuitCount(address)":"2076e1d0","rematch(uint256)":"70a90220","renounceOwnership()":"715018a6","results(uint256,address)":"e488a027","revealScore(uint256,uint256,uint256)":"fc80864d","rollDailySeed()":"2e9fddd8","seasonPoints(uint256,address)":"fe859679","seasonTopPlayers(uint256,uint256)":"5ab203c5","submitCompletion(uint256,uint256)":"eb22ebe0","timeoutPenaltyApplied(uint256,address)":"f8aed2c3","transferOwnership(address)":"f2fde38b","treasuryBalance()":"313dab20","vrfRequests(bytes32)":"dec04e5f","weeklyRaffle(uint256,uint256)":"dddb07b3","weeklySeed(uint256)":"bce353f4","weeklyTopPlayers(uint256,uint256)":"f3154298","withdrawHouseBalance(uint256)":"0014cdd5","withdrawTreasury()":"166bab95"}}}}}