{"contracts/casino/Slots.sol":{"Slots":{"abi":[{"inputs":[{"internalType":"address","name":"_owner","type":"address"},{"internalType":"address","name":"_token","type":"address"},{"internalType":"address","name":"_pythVRF","type":"address"}],"stateMutability":"nonpayable","type":"constructor"},{"inputs":[],"name":"BetTooHigh","type":"error"},{"inputs":[],"name":"BetTooLow","type":"error"},{"inputs":[{"internalType":"address","name":"owner","type":"address"}],"name":"OwnableInvalidOwner","type":"error"},{"inputs":[{"internalType":"address","name":"account","type":"address"}],"name":"OwnableUnauthorizedAccount","type":"error"},{"inputs":[],"name":"ReentrancyGuardReentrantCall","type":"error"},{"inputs":[{"internalType":"address","name":"token","type":"address"}],"name":"SafeERC20FailedOperation","type":"error"},{"anonymous":false,"inputs":[{"indexed":true,"internalType":"uint256","name":"gameId","type":"uint256"},{"indexed":false,"internalType":"uint8","name":"reel1","type":"uint8"},{"indexed":false,"internalType":"uint8","name":"reel2","type":"uint8"},{"indexed":false,"internalType":"uint8","name":"reel3","type":"uint8"},{"indexed":false,"internalType":"uint256","name":"multiplier","type":"uint256"},{"indexed":false,"internalType":"uint256","name":"reward","type":"uint256"},{"indexed":false,"internalType":"uint8","name":"streak","type":"uint8"},{"indexed":false,"internalType":"uint256","name":"lootRarity","type":"uint256"}],"name":"GameSettled","type":"event"},{"anonymous":false,"inputs":[{"indexed":true,"internalType":"uint256","name":"gameId","type":"uint256"},{"indexed":true,"internalType":"address","name":"player","type":"address"}],"name":"GameStarted","type":"event"},{"anonymous":false,"inputs":[{"indexed":true,"internalType":"address","name":"previousOwner","type":"address"},{"indexed":true,"internalType":"address","name":"newOwner","type":"address"}],"name":"OwnershipTransferred","type":"event"},{"inputs":[],"name":"config","outputs":[{"internalType":"address","name":"treasury","type":"address"},{"internalType":"uint256","name":"minPlay","type":"uint256"},{"internalType":"uint256","name":"maxPlay","type":"uint256"},{"internalType":"uint16","name":"houseEdgeBps","type":"uint16"},{"internalType":"bool","name":"paused","type":"bool"}],"stateMutability":"view","type":"function"},{"inputs":[{"internalType":"bytes32","name":"requestId","type":"bytes32"},{"internalType":"uint256","name":"randomness","type":"uint256"}],"name":"fulfillRandomness","outputs":[],"stateMutability":"nonpayable","type":"function"},{"inputs":[],"name":"gameCounter","outputs":[{"internalType":"uint256","name":"","type":"uint256"}],"stateMutability":"view","type":"function"},{"inputs":[{"internalType":"uint256","name":"","type":"uint256"}],"name":"games","outputs":[{"internalType":"address","name":"player","type":"address"},{"internalType":"uint256","name":"gameId","type":"uint256"},{"internalType":"uint8","name":"reel1","type":"uint8"},{"internalType":"uint8","name":"reel2","type":"uint8"},{"internalType":"uint8","name":"reel3","type":"uint8"},{"internalType":"uint256","name":"multiplier","type":"uint256"},{"internalType":"uint256","name":"reward","type":"uint256"},{"internalType":"uint8","name":"streak","type":"uint8"},{"internalType":"uint256","name":"lootRarity","type":"uint256"}],"stateMutability":"view","type":"function"},{"inputs":[{"internalType":"uint256","name":"gameId","type":"uint256"}],"name":"getGame","outputs":[{"components":[{"internalType":"address","name":"player","type":"address"},{"internalType":"uint256","name":"gameId","type":"uint256"},{"internalType":"uint8","name":"reel1","type":"uint8"},{"internalType":"uint8","name":"reel2","type":"uint8"},{"internalType":"uint8","name":"reel3","type":"uint8"},{"internalType":"uint256","name":"multiplier","type":"uint256"},{"internalType":"uint256","name":"reward","type":"uint256"},{"internalType":"uint8","name":"streak","type":"uint8"},{"internalType":"uint256","name":"lootRarity","type":"uint256"}],"internalType":"struct Slots.GameResult","name":"","type":"tuple"}],"stateMutability":"view","type":"function"},{"inputs":[{"internalType":"uint256","name":"gameId","type":"uint256"}],"name":"getPendingGame","outputs":[{"components":[{"internalType":"address","name":"player","type":"address"},{"internalType":"uint256","name":"amount","type":"uint256"},{"internalType":"uint8","name":"streak","type":"uint8"}],"internalType":"struct Slots.PendingGame","name":"","type":"tuple"}],"stateMutability":"view","type":"function"},{"inputs":[],"name":"getPrizePool","outputs":[{"internalType":"uint256","name":"","type":"uint256"}],"stateMutability":"view","type":"function"},{"inputs":[{"internalType":"address","name":"treasury","type":"address"},{"internalType":"uint256","name":"minPlay","type":"uint256"},{"internalType":"uint256","name":"maxPlay","type":"uint256"},{"internalType":"uint16","name":"houseEdgeBps","type":"uint16"}],"name":"initialize","outputs":[],"stateMutability":"nonpayable","type":"function"},{"inputs":[],"name":"owner","outputs":[{"internalType":"address","name":"","type":"address"}],"stateMutability":"view","type":"function"},{"inputs":[],"name":"pause","outputs":[],"stateMutability":"nonpayable","type":"function"},{"inputs":[{"internalType":"uint256","name":"","type":"uint256"}],"name":"pendingGames","outputs":[{"internalType":"address","name":"player","type":"address"},{"internalType":"uint256","name":"amount","type":"uint256"},{"internalType":"uint8","name":"streak","type":"uint8"}],"stateMutability":"view","type":"function"},{"inputs":[],"name":"prizePool","outputs":[{"internalType":"uint256","name":"","type":"uint256"}],"stateMutability":"view","type":"function"},{"inputs":[],"name":"pythVRF","outputs":[{"internalType":"contract IPythVRF","name":"","type":"address"}],"stateMutability":"view","type":"function"},{"inputs":[],"name":"renounceOwnership","outputs":[],"stateMutability":"nonpayable","type":"function"},{"inputs":[{"internalType":"address","name":"_pythVRF","type":"address"}],"name":"setPythVRF","outputs":[],"stateMutability":"nonpayable","type":"function"},{"inputs":[{"internalType":"uint256","name":"amount","type":"uint256"}],"name":"spin","outputs":[],"stateMutability":"payable","type":"function"},{"inputs":[],"name":"token","outputs":[{"internalType":"address","name":"","type":"address"}],"stateMutability":"view","type":"function"},{"inputs":[{"internalType":"address","name":"newOwner","type":"address"}],"name":"transferOwnership","outputs":[],"stateMutability":"nonpayable","type":"function"},{"inputs":[],"name":"unpause","outputs":[],"stateMutability":"nonpayable","type":"function"},{"inputs":[{"internalType":"bytes32","name":"","type":"bytes32"}],"name":"vrfRequestToGame","outputs":[{"internalType":"uint256","name":"","type":"uint256"}],"stateMutability":"view","type":"function"}],"evm":{"bytecode":{"linkReferences":{},"object":"6080346100f057601f61123538819003918201601f19168301916001600160401b038311848410176100f5578084926060946040528339810103126100f0576100478161010b565b61005f60406100586020850161010b565b930161010b565b6001600160a01b03918216919082156100d757816000549460018060a01b03199480868816176000558260405197167f8be0079c531659141344cd1fd0a4f28419497f9722a3daafe3b4186f6b6457e0600080a360018055168360075416176007551690600654161760065561111590816101208239f35b604051631e4fbdf760e01b815260006004820152602490fd5b600080fd5b634e487b7160e01b600052604160045260246000fd5b51906001600160a01b03821682036100f05756fe608080604052600436101561001357600080fd5b600090813560e01c908163117a5b9014610ec2575080631f1f897f146109cf5780632e0be39a146109b15780633d598f801461092c5780633f4ba83a14610904578063579e94ee146108b7578063715018a61461085d578063719ce73e14610759578063772d84c41461083457806379502c55146107e457806383ba98ae146107a45780638456cb5914610777578063884bf67c146107595780638a7626d11461072f5780638da5cb5b14610708578063a2f77bcc146105d3578063a5b6ea8f14610280578063cbb6d6bd146101b3578063f2fde38b146101285763fc0c546a146100fd57600080fd5b346101255780600319360112610125576007546040516001600160a01b039091168152602090f35b80fd5b503461012557602036600319011261012557610142610f50565b61014a6110b3565b6001600160a01b0390811690811561019a57600054826001600160601b0360a01b821617600055167f8be0079c531659141344cd1fd0a4f28419497f9722a3daafe3b4186f6b6457e0600080a380f35b604051631e4fbdf760e01b815260048101849052602490fd5b5034610125576080366003190112610125576101cd610f50565b602435604435906064359261ffff841680940361027c576101ec6110b3565b6040519060a0820182811067ffffffffffffffff82111761026657869160809160405260018060a01b03169283815284602082015285604082015286606082015201526001600160601b0360a01b60025416176002556003556004556005549062ff000083151560101b169162ffffff1916171760055580f35b634e487b7160e01b600052604160045260246000fd5b8480fd5b506020806003193601126105cf5760043560019160028354146105bd576002835560ff60055460101c166105905760035460045490831061057e57821161056c576007546001600160a01b03908116806104d3575082340361049c576102eb600a8404600954610fda565b600955848080808685600254165af13d15610497573d67ffffffffffffffff81116104835760405190610327601f8201601f1916860183610fb8565b815286843d92013e5b1561044c575b60085460001981146104385791809185879401948560085560ff600260405161035e81610f9c565b3381528581019384526040810193888552898952600a87528560408a209251166001600160601b0360a01b835416178255518a8201550191511660ff198254161790556006541660046040518095819363f8413b0760e01b83525af1801561042d5785906103ff575b600b925085525280604084205533907ffadb9547847a0c2c31f4c02590545e318d33d7aae99071caecf3fa4ce3cd7dca8480a3805580f35b508082813d8311610426575b6104158183610fb8565b8101031261027c57600b91516103c7565b503d61040b565b6040513d87823e3d90fd5b634e487b7160e01b86526011600452602486fd5b60405162461bcd60e51b815260048101839052600f60248201526e151c985b9cd9995c8819985a5b1959608a1b6044820152606490fd5b634e487b7160e01b87526041600452602487fd5b610330565b60405162461bcd60e51b815260048101839052600f60248201526e082dadeeadce840dad2e6dac2e8c6d608b1b6044820152606490fd5b6104e2600a8504600954610fda565b6009556002546040516323b872dd60e01b8582019081523360248301529184166001600160a01b031660448201526064808201879052815284918891610529608482610fb8565b519082855af11561042d57855185903d610565575050803b155b61054d5750610336565b60249060405190635274afe760e01b82526004820152fd5b1415610543565b604051631765320160e11b8152600490fd5b60405163989e301760e01b8152600490fd5b6064906040519062461bcd60e51b82526004820152600660248201526514185d5cd95960d21b6044820152fd5b604051633ee5aeb560e01b8152600490fd5b5080fd5b5034610125576020366003190112610125576040816101209261010083516105fa81610f7f565b82815282602082015282858201528260608201528260808201528260a08201528260c08201528260e082015201526004358152600c6020522061010060405161064281610f7f565b600660018060a01b03845416938483526001810154602084015260ff60028201548181166040860152818160081c16606086015260101c166080840152600381015460a0840152600481015460c084015260ff60058201541660e08401520154828201526040519283526020810151602084015260ff604082015116604084015260ff606082015116606084015260ff608082015116608084015260a081015160a084015260c081015160c084015260ff60e08201511660e08401520151610100820152f35b5034610125578060031936011261012557546040516001600160a01b039091168152602090f35b50346101255760203660031901126101255760406020916004358152600b83522054604051908152f35b50346101255780600319360112610125576020600954604051908152f35b50346101255780600319360112610125576107906110b3565b6201000062ff000019600554161760055580f35b5034610125576020366003190112610125576107be610f50565b6107c66110b3565b60018060a01b03166001600160601b0360a01b600654161760065580f35b503461012557806003193601126101255760a0600180821b036002541660ff600354600454600554916040519485526020850152604084015261ffff8116606084015260101c1615156080820152f35b50346101255780600319360112610125576006546040516001600160a01b039091168152602090f35b50346101255780600319360112610125576108766110b3565b600080546001600160a01b0319811682556001600160a01b03167f8be0079c531659141344cd1fd0a4f28419497f9722a3daafe3b4186f6b6457e08280a380f35b50346101255760203660031901126101255760406060916004358152600a6020522060018060a01b038154169060ff60026001830154920154169060405192835260208301526040820152f35b503461012557806003193601126101255761091d6110b3565b62ff0000196005541660055580f35b50346101255760203660031901126101255760408160609282805161095081610f9c565b82815282602082015201526004358152600a6020522060ff60405161097481610f9c565b60018060a01b0383541692838252604083600260018401549360208601948552015416920191825260405193845251602084015251166040820152f35b50346101255780600319360112610125576020600854604051908152f35b5034610125576040366003190112610125576006546001600160a01b03163303610e92576004358152600b6020908152604080832054808452600a909252822080546001600160a01b031615610e5e57604051602081019060243582526001604082015260408152610a4081610f9c565b519020604051602081019060243582526002604082015260408152610a6481610f9c565b519020604051602081019060243582526003604082015260408152610a8881610f9c565b519020610aa860ff600783061660ff600785061660ff600787061661100a565b8015610e4d5760028501805490600160ff83160160ff8111610e39579060ff6103e8939216809260ff1916179055028061ffff811603610e25579061ffff610af1921690610fda565b610b22600186015482610b1b61ffff6005541692610b136127109384926110a0565b0492836110a0565b0490610ffd565b9182610d99575b878760056103e8602435061080610d8e575b610cbf575b8260ff60078160027fbfe272ccb2aae70e6aea9a2a87917e1a3bdea7a0d7469f17861bea19081de6ad9c82978c600660e09f9e9d9c9b998f9a8e8e8a9d60018060a01b03895416968b8b8b0154169460405198610b9c8a610f7f565b8952602089018781528d8f60408c0195061684528d8f60608c0194061683528d8f60808c01930616825260a08a0194855260c08a0195865260e08a019687526101008a01976103e86024350689528b52600c60205260408b209960018060a01b039051166001600160601b0360a01b8b5416178a555160018a01558c8c8a0193511662ff000061ff008554945160081b16925160101b169262ffffff191617171790555160038601555160048501558760058501915116881982541617905551910155600a60205280836040822082815582600182015501556004358152600b60205260408120550154169782826040519b06168a5206166020880152061660408501526060840152608083015260a08201526103e86024350660c0820152a280f35b5050610ce2610cda969360095490600a820498898093610ffd565b600955610fda565b60025460075485546001600160a01b03908116999396938c9392821692909116803b15610d8a5760405163a00c695160e01b81526001600160a01b0393841660048201529a90921660248b015260448a015281908990606490829084905af18015610d7d578990610d57575b90919750610b40565b50610d688198979695949397610f6b565b610d79578688969293949596610d4e565b8680fd5b50604051903d90823e3d90fd5b8380fd5b506009541515610b3b565b60025460075487546001600160a01b03908116928b9282169116803b15610e215760405163a00c695160e01b81526001600160a01b039283166004820152939091166024840152604483018690528290606490829084905af18015610e1657610e03575b50610b29565b610e0f90989198610f6b565b9638610dfd565b6040513d8b823e3d90fd5b8280fd5b634e487b7160e01b88526011600452602488fd5b634e487b7160e01b8a52601160045260248afd5b60028501805460ff19169055610af1565b60405162461bcd60e51b815260206004820152600c60248201526b496e76616c69642067616d6560a01b6044820152606490fd5b60405162461bcd60e51b815260206004820152600860248201526727b7363c902b292360c11b6044820152606490fd5b9050346105cf5760203660031901126105cf576040610120926004358152600c6020522060018060a01b03815416906001810154600282015460ff60038401549160048501549360068360058801541696015496885260208801528181166040880152818160081c16606088015260101c16608086015260a085015260c084015260e0830152610100820152f35b600435906001600160a01b0382168203610f6657565b600080fd5b67ffffffffffffffff811161026657604052565b610120810190811067ffffffffffffffff82111761026657604052565b6060810190811067ffffffffffffffff82111761026657604052565b90601f8019910116810190811067ffffffffffffffff82111761026657604052565b91908201809211610fe757565b634e487b7160e01b600052601160045260246000fd5b91908203918211610fe757565b60ff908116911681811492908380611094575b1561105957505090506006811461105157600581146110495760041461104357614e2090565b61c35090565b50620186a090565b506203d09090565b8315611087575b50821561107a575b5050156110755761271090565b600090565b60ff161490503880611068565b60ff821614925038611060565b5060ff8216811461101d565b81810292918115918404141715610fe757565b6000546001600160a01b031633036110c757565b60405163118cdaa760e01b8152336004820152602490fdfea264697066735822122036d1574e74a5eca0ff7086e651010b151119595937a5697bebd4b189facdf3ef64736f6c63430008180033","opcodes":"PUSH1 0x80 CALLVALUE PUSH2 0xF0 JUMPI PUSH1 0x1F PUSH2 0x1235 CODESIZE DUP2 SWAP1 SUB SWAP2 DUP3 ADD PUSH1 0x1F NOT AND DUP4 ADD SWAP2 PUSH1 0x1 PUSH1 0x1 PUSH1 0x40 SHL SUB DUP4 GT DUP5 DUP5 LT OR PUSH2 0xF5 JUMPI DUP1 DUP5 SWAP3 PUSH1 0x60 SWAP5 PUSH1 0x40 MSTORE DUP4 CODECOPY DUP2 ADD SUB SLT PUSH2 0xF0 JUMPI PUSH2 0x47 DUP2 PUSH2 0x10B JUMP JUMPDEST PUSH2 0x5F PUSH1 0x40 PUSH2 0x58 PUSH1 0x20 DUP6 ADD PUSH2 0x10B JUMP JUMPDEST SWAP4 ADD PUSH2 0x10B JUMP JUMPDEST PUSH1 0x1 PUSH1 0x1 PUSH1 0xA0 SHL SUB SWAP2 DUP3 AND SWAP2 SWAP1 DUP3 ISZERO PUSH2 0xD7 JUMPI DUP2 PUSH1 0x0 SLOAD SWAP5 PUSH1 0x1 DUP1 PUSH1 0xA0 SHL SUB NOT SWAP5 DUP1 DUP7 DUP9 AND OR PUSH1 0x0 SSTORE DUP3 PUSH1 0x40 MLOAD SWAP8 AND PUSH32 0x8BE0079C531659141344CD1FD0A4F28419497F9722A3DAAFE3B4186F6B6457E0 PUSH1 0x0 DUP1 LOG3 PUSH1 0x1 DUP1 SSTORE AND DUP4 PUSH1 0x7 SLOAD AND OR PUSH1 0x7 SSTORE AND SWAP1 PUSH1 0x6 SLOAD AND OR PUSH1 0x6 SSTORE PUSH2 0x1115 SWAP1 DUP2 PUSH2 0x120 DUP3 CODECOPY RETURN JUMPDEST PUSH1 0x40 MLOAD PUSH4 0x1E4FBDF7 PUSH1 0xE0 SHL DUP2 MSTORE PUSH1 0x0 PUSH1 0x4 DUP3 ADD MSTORE PUSH1 0x24 SWAP1 REVERT JUMPDEST PUSH1 0x0 DUP1 REVERT JUMPDEST PUSH4 0x4E487B71 PUSH1 0xE0 SHL PUSH1 0x0 MSTORE PUSH1 0x41 PUSH1 0x4 MSTORE PUSH1 0x24 PUSH1 0x0 REVERT JUMPDEST MLOAD SWAP1 PUSH1 0x1 PUSH1 0x1 PUSH1 0xA0 SHL SUB DUP3 AND DUP3 SUB PUSH2 0xF0 JUMPI JUMP INVALID PUSH1 0x80 DUP1 PUSH1 0x40 MSTORE PUSH1 0x4 CALLDATASIZE LT ISZERO PUSH2 0x13 JUMPI PUSH1 0x0 DUP1 REVERT JUMPDEST PUSH1 0x0 SWAP1 DUP2 CALLDATALOAD PUSH1 0xE0 SHR SWAP1 DUP2 PUSH4 0x117A5B90 EQ PUSH2 0xEC2 JUMPI POP DUP1 PUSH4 0x1F1F897F EQ PUSH2 0x9CF JUMPI DUP1 PUSH4 0x2E0BE39A EQ PUSH2 0x9B1 JUMPI DUP1 PUSH4 0x3D598F80 EQ PUSH2 0x92C JUMPI DUP1 PUSH4 0x3F4BA83A EQ PUSH2 0x904 JUMPI DUP1 PUSH4 0x579E94EE EQ PUSH2 0x8B7 JUMPI DUP1 PUSH4 0x715018A6 EQ PUSH2 0x85D JUMPI DUP1 PUSH4 0x719CE73E EQ PUSH2 0x759 JUMPI DUP1 PUSH4 0x772D84C4 EQ PUSH2 0x834 JUMPI DUP1 PUSH4 0x79502C55 EQ PUSH2 0x7E4 JUMPI DUP1 PUSH4 0x83BA98AE EQ PUSH2 0x7A4 JUMPI DUP1 PUSH4 0x8456CB59 EQ PUSH2 0x777 JUMPI DUP1 PUSH4 0x884BF67C EQ PUSH2 0x759 JUMPI DUP1 PUSH4 0x8A7626D1 EQ PUSH2 0x72F JUMPI DUP1 PUSH4 0x8DA5CB5B EQ PUSH2 0x708 JUMPI DUP1 PUSH4 0xA2F77BCC EQ PUSH2 0x5D3 JUMPI DUP1 PUSH4 0xA5B6EA8F EQ PUSH2 0x280 JUMPI DUP1 PUSH4 0xCBB6D6BD EQ PUSH2 0x1B3 JUMPI DUP1 PUSH4 0xF2FDE38B EQ PUSH2 0x128 JUMPI PUSH4 0xFC0C546A EQ PUSH2 0xFD JUMPI PUSH1 0x0 DUP1 REVERT JUMPDEST CALLVALUE PUSH2 0x125 JUMPI DUP1 PUSH1 0x3 NOT CALLDATASIZE ADD SLT PUSH2 0x125 JUMPI PUSH1 0x7 SLOAD PUSH1 0x40 MLOAD PUSH1 0x1 PUSH1 0x1 PUSH1 0xA0 SHL SUB SWAP1 SWAP2 AND DUP2 MSTORE PUSH1 0x20 SWAP1 RETURN JUMPDEST DUP1 REVERT JUMPDEST POP CALLVALUE PUSH2 0x125 JUMPI PUSH1 0x20 CALLDATASIZE PUSH1 0x3 NOT ADD SLT PUSH2 0x125 JUMPI PUSH2 0x142 PUSH2 0xF50 JUMP JUMPDEST PUSH2 0x14A PUSH2 0x10B3 JUMP JUMPDEST PUSH1 0x1 PUSH1 0x1 PUSH1 0xA0 SHL SUB SWAP1 DUP2 AND SWAP1 DUP2 ISZERO PUSH2 0x19A JUMPI PUSH1 0x0 SLOAD DUP3 PUSH1 0x1 PUSH1 0x1 PUSH1 0x60 SHL SUB PUSH1 0xA0 SHL DUP3 AND OR PUSH1 0x0 SSTORE AND PUSH32 0x8BE0079C531659141344CD1FD0A4F28419497F9722A3DAAFE3B4186F6B6457E0 PUSH1 0x0 DUP1 LOG3 DUP1 RETURN JUMPDEST PUSH1 0x40 MLOAD PUSH4 0x1E4FBDF7 PUSH1 0xE0 SHL DUP2 MSTORE PUSH1 0x4 DUP2 ADD DUP5 SWAP1 MSTORE PUSH1 0x24 SWAP1 REVERT JUMPDEST POP CALLVALUE PUSH2 0x125 JUMPI PUSH1 0x80 CALLDATASIZE PUSH1 0x3 NOT ADD SLT PUSH2 0x125 JUMPI PUSH2 0x1CD PUSH2 0xF50 JUMP JUMPDEST PUSH1 0x24 CALLDATALOAD PUSH1 0x44 CALLDATALOAD SWAP1 PUSH1 0x64 CALLDATALOAD SWAP3 PUSH2 0xFFFF DUP5 AND DUP1 SWAP5 SUB PUSH2 0x27C JUMPI PUSH2 0x1EC PUSH2 0x10B3 JUMP JUMPDEST PUSH1 0x40 MLOAD SWAP1 PUSH1 0xA0 DUP3 ADD DUP3 DUP2 LT PUSH8 0xFFFFFFFFFFFFFFFF DUP3 GT OR PUSH2 0x266 JUMPI DUP7 SWAP2 PUSH1 0x80 SWAP2 PUSH1 0x40 MSTORE PUSH1 0x1 DUP1 PUSH1 0xA0 SHL SUB AND SWAP3 DUP4 DUP2 MSTORE DUP5 PUSH1 0x20 DUP3 ADD MSTORE DUP6 PUSH1 0x40 DUP3 ADD MSTORE DUP7 PUSH1 0x60 DUP3 ADD MSTORE ADD MSTORE PUSH1 0x1 PUSH1 0x1 PUSH1 0x60 SHL SUB PUSH1 0xA0 SHL PUSH1 0x2 SLOAD AND OR PUSH1 0x2 SSTORE PUSH1 0x3 SSTORE PUSH1 0x4 SSTORE PUSH1 0x5 SLOAD SWAP1 PUSH3 0xFF0000 DUP4 ISZERO ISZERO PUSH1 0x10 SHL AND SWAP2 PUSH3 0xFFFFFF NOT AND OR OR PUSH1 0x5 SSTORE DUP1 RETURN JUMPDEST PUSH4 0x4E487B71 PUSH1 0xE0 SHL PUSH1 0x0 MSTORE PUSH1 0x41 PUSH1 0x4 MSTORE PUSH1 0x24 PUSH1 0x0 REVERT JUMPDEST DUP5 DUP1 REVERT JUMPDEST POP PUSH1 0x20 DUP1 PUSH1 0x3 NOT CALLDATASIZE ADD SLT PUSH2 0x5CF JUMPI PUSH1 0x4 CALLDATALOAD PUSH1 0x1 SWAP2 PUSH1 0x2 DUP4 SLOAD EQ PUSH2 0x5BD JUMPI PUSH1 0x2 DUP4 SSTORE PUSH1 0xFF PUSH1 0x5 SLOAD PUSH1 0x10 SHR AND PUSH2 0x590 JUMPI PUSH1 0x3 SLOAD PUSH1 0x4 SLOAD SWAP1 DUP4 LT PUSH2 0x57E JUMPI DUP3 GT PUSH2 0x56C JUMPI PUSH1 0x7 SLOAD PUSH1 0x1 PUSH1 0x1 PUSH1 0xA0 SHL SUB SWAP1 DUP2 AND DUP1 PUSH2 0x4D3 JUMPI POP DUP3 CALLVALUE SUB PUSH2 0x49C JUMPI PUSH2 0x2EB PUSH1 0xA DUP5 DIV PUSH1 0x9 SLOAD PUSH2 0xFDA JUMP JUMPDEST PUSH1 0x9 SSTORE DUP5 DUP1 DUP1 DUP1 DUP7 DUP6 PUSH1 0x2 SLOAD AND GAS CALL RETURNDATASIZE ISZERO PUSH2 0x497 JUMPI RETURNDATASIZE PUSH8 0xFFFFFFFFFFFFFFFF DUP2 GT PUSH2 0x483 JUMPI PUSH1 0x40 MLOAD SWAP1 PUSH2 0x327 PUSH1 0x1F DUP3 ADD PUSH1 0x1F NOT AND DUP7 ADD DUP4 PUSH2 0xFB8 JUMP JUMPDEST DUP2 MSTORE DUP7 DUP5 RETURNDATASIZE SWAP3 ADD RETURNDATACOPY JUMPDEST ISZERO PUSH2 0x44C JUMPI JUMPDEST PUSH1 0x8 SLOAD PUSH1 0x0 NOT DUP2 EQ PUSH2 0x438 JUMPI SWAP2 DUP1 SWAP2 DUP6 DUP8 SWAP5 ADD SWAP5 DUP6 PUSH1 0x8 SSTORE PUSH1 0xFF PUSH1 0x2 PUSH1 0x40 MLOAD PUSH2 0x35E DUP2 PUSH2 0xF9C JUMP JUMPDEST CALLER DUP2 MSTORE DUP6 DUP2 ADD SWAP4 DUP5 MSTORE PUSH1 0x40 DUP2 ADD SWAP4 DUP9 DUP6 MSTORE DUP10 DUP10 MSTORE PUSH1 0xA DUP8 MSTORE DUP6 PUSH1 0x40 DUP11 KECCAK256 SWAP3 MLOAD AND PUSH1 0x1 PUSH1 0x1 PUSH1 0x60 SHL SUB PUSH1 0xA0 SHL DUP4 SLOAD AND OR DUP3 SSTORE MLOAD DUP11 DUP3 ADD SSTORE ADD SWAP2 MLOAD AND PUSH1 0xFF NOT DUP3 SLOAD AND OR SWAP1 SSTORE PUSH1 0x6 SLOAD AND PUSH1 0x4 PUSH1 0x40 MLOAD DUP1 SWAP6 DUP2 SWAP4 PUSH4 0xF8413B07 PUSH1 0xE0 SHL DUP4 MSTORE GAS CALL DUP1 ISZERO PUSH2 0x42D JUMPI DUP6 SWAP1 PUSH2 0x3FF JUMPI JUMPDEST PUSH1 0xB SWAP3 POP DUP6 MSTORE MSTORE DUP1 PUSH1 0x40 DUP5 KECCAK256 SSTORE CALLER SWAP1 PUSH32 0xFADB9547847A0C2C31F4C02590545E318D33D7AAE99071CAECF3FA4CE3CD7DCA DUP5 DUP1 LOG3 DUP1 SSTORE DUP1 RETURN JUMPDEST POP DUP1 DUP3 DUP2 RETURNDATASIZE DUP4 GT PUSH2 0x426 JUMPI JUMPDEST PUSH2 0x415 DUP2 DUP4 PUSH2 0xFB8 JUMP JUMPDEST DUP2 ADD SUB SLT PUSH2 0x27C JUMPI PUSH1 0xB SWAP2 MLOAD PUSH2 0x3C7 JUMP JUMPDEST POP RETURNDATASIZE PUSH2 0x40B JUMP JUMPDEST PUSH1 0x40 MLOAD RETURNDATASIZE DUP8 DUP3 RETURNDATACOPY RETURNDATASIZE SWAP1 REVERT JUMPDEST PUSH4 0x4E487B71 PUSH1 0xE0 SHL DUP7 MSTORE PUSH1 0x11 PUSH1 0x4 MSTORE PUSH1 0x24 DUP7 REVERT JUMPDEST PUSH1 0x40 MLOAD PUSH3 0x461BCD PUSH1 0xE5 SHL DUP2 MSTORE PUSH1 0x4 DUP2 ADD DUP4 SWAP1 MSTORE PUSH1 0xF PUSH1 0x24 DUP3 ADD MSTORE PUSH15 0x151C985B9CD9995C8819985A5B1959 PUSH1 0x8A SHL PUSH1 0x44 DUP3 ADD MSTORE PUSH1 0x64 SWAP1 REVERT JUMPDEST PUSH4 0x4E487B71 PUSH1 0xE0 SHL DUP8 MSTORE PUSH1 0x41 PUSH1 0x4 MSTORE PUSH1 0x24 DUP8 REVERT JUMPDEST PUSH2 0x330 JUMP JUMPDEST PUSH1 0x40 MLOAD PUSH3 0x461BCD PUSH1 0xE5 SHL DUP2 MSTORE PUSH1 0x4 DUP2 ADD DUP4 SWAP1 MSTORE PUSH1 0xF PUSH1 0x24 DUP3 ADD MSTORE PUSH15 0x82DADEEADCE840DAD2E6DAC2E8C6D PUSH1 0x8B SHL PUSH1 0x44 DUP3 ADD MSTORE PUSH1 0x64 SWAP1 REVERT JUMPDEST PUSH2 0x4E2 PUSH1 0xA DUP6 DIV PUSH1 0x9 SLOAD PUSH2 0xFDA JUMP JUMPDEST PUSH1 0x9 SSTORE PUSH1 0x2 SLOAD PUSH1 0x40 MLOAD PUSH4 0x23B872DD PUSH1 0xE0 SHL DUP6 DUP3 ADD SWAP1 DUP2 MSTORE CALLER PUSH1 0x24 DUP4 ADD MSTORE SWAP2 DUP5 AND PUSH1 0x1 PUSH1 0x1 PUSH1 0xA0 SHL SUB AND PUSH1 0x44 DUP3 ADD MSTORE PUSH1 0x64 DUP1 DUP3 ADD DUP8 SWAP1 MSTORE DUP2 MSTORE DUP5 SWAP2 DUP9 SWAP2 PUSH2 0x529 PUSH1 0x84 DUP3 PUSH2 0xFB8 JUMP JUMPDEST MLOAD SWAP1 DUP3 DUP6 GAS CALL ISZERO PUSH2 0x42D JUMPI DUP6 MLOAD DUP6 SWAP1 RETURNDATASIZE PUSH2 0x565 JUMPI POP POP DUP1 EXTCODESIZE ISZERO JUMPDEST PUSH2 0x54D JUMPI POP PUSH2 0x336 JUMP JUMPDEST PUSH1 0x24 SWAP1 PUSH1 0x40 MLOAD SWAP1 PUSH4 0x5274AFE7 PUSH1 0xE0 SHL DUP3 MSTORE PUSH1 0x4 DUP3 ADD MSTORE REVERT JUMPDEST EQ ISZERO PUSH2 0x543 JUMP JUMPDEST PUSH1 0x40 MLOAD PUSH4 0x17653201 PUSH1 0xE1 SHL DUP2 MSTORE PUSH1 0x4 SWAP1 REVERT JUMPDEST PUSH1 0x40 MLOAD PUSH4 0x989E3017 PUSH1 0xE0 SHL DUP2 MSTORE PUSH1 0x4 SWAP1 REVERT JUMPDEST PUSH1 0x64 SWAP1 PUSH1 0x40 MLOAD SWAP1 PUSH3 0x461BCD PUSH1 0xE5 SHL DUP3 MSTORE PUSH1 0x4 DUP3 ADD MSTORE PUSH1 0x6 PUSH1 0x24 DUP3 ADD MSTORE PUSH6 0x14185D5CD959 PUSH1 0xD2 SHL PUSH1 0x44 DUP3 ADD MSTORE REVERT JUMPDEST PUSH1 0x40 MLOAD PUSH4 0x3EE5AEB5 PUSH1 0xE0 SHL DUP2 MSTORE PUSH1 0x4 SWAP1 REVERT JUMPDEST POP DUP1 REVERT JUMPDEST POP CALLVALUE PUSH2 0x125 JUMPI PUSH1 0x20 CALLDATASIZE PUSH1 0x3 NOT ADD SLT PUSH2 0x125 JUMPI PUSH1 0x40 DUP2 PUSH2 0x120 SWAP3 PUSH2 0x100 DUP4 MLOAD PUSH2 0x5FA DUP2 PUSH2 0xF7F JUMP JUMPDEST DUP3 DUP2 MSTORE DUP3 PUSH1 0x20 DUP3 ADD MSTORE DUP3 DUP6 DUP3 ADD MSTORE DUP3 PUSH1 0x60 DUP3 ADD MSTORE DUP3 PUSH1 0x80 DUP3 ADD MSTORE DUP3 PUSH1 0xA0 DUP3 ADD MSTORE DUP3 PUSH1 0xC0 DUP3 ADD MSTORE DUP3 PUSH1 0xE0 DUP3 ADD MSTORE ADD MSTORE PUSH1 0x4 CALLDATALOAD DUP2 MSTORE PUSH1 0xC PUSH1 0x20 MSTORE KECCAK256 PUSH2 0x100 PUSH1 0x40 MLOAD PUSH2 0x642 DUP2 PUSH2 0xF7F JUMP JUMPDEST PUSH1 0x6 PUSH1 0x1 DUP1 PUSH1 0xA0 SHL SUB DUP5 SLOAD AND SWAP4 DUP5 DUP4 MSTORE PUSH1 0x1 DUP2 ADD SLOAD PUSH1 0x20 DUP5 ADD MSTORE PUSH1 0xFF PUSH1 0x2 DUP3 ADD SLOAD DUP2 DUP2 AND PUSH1 0x40 DUP7 ADD MSTORE DUP2 DUP2 PUSH1 0x8 SHR AND PUSH1 0x60 DUP7 ADD MSTORE PUSH1 0x10 SHR AND PUSH1 0x80 DUP5 ADD MSTORE PUSH1 0x3 DUP2 ADD SLOAD PUSH1 0xA0 DUP5 ADD MSTORE PUSH1 0x4 DUP2 ADD SLOAD PUSH1 0xC0 DUP5 ADD MSTORE PUSH1 0xFF PUSH1 0x5 DUP3 ADD SLOAD AND PUSH1 0xE0 DUP5 ADD MSTORE ADD SLOAD DUP3 DUP3 ADD MSTORE PUSH1 0x40 MLOAD SWAP3 DUP4 MSTORE PUSH1 0x20 DUP2 ADD MLOAD PUSH1 0x20 DUP5 ADD MSTORE PUSH1 0xFF PUSH1 0x40 DUP3 ADD MLOAD AND PUSH1 0x40 DUP5 ADD MSTORE PUSH1 0xFF PUSH1 0x60 DUP3 ADD MLOAD AND PUSH1 0x60 DUP5 ADD MSTORE PUSH1 0xFF PUSH1 0x80 DUP3 ADD MLOAD AND PUSH1 0x80 DUP5 ADD MSTORE PUSH1 0xA0 DUP2 ADD MLOAD PUSH1 0xA0 DUP5 ADD MSTORE PUSH1 0xC0 DUP2 ADD MLOAD PUSH1 0xC0 DUP5 ADD MSTORE PUSH1 0xFF PUSH1 0xE0 DUP3 ADD MLOAD AND PUSH1 0xE0 DUP5 ADD MSTORE ADD MLOAD PUSH2 0x100 DUP3 ADD MSTORE RETURN JUMPDEST POP CALLVALUE PUSH2 0x125 JUMPI DUP1 PUSH1 0x3 NOT CALLDATASIZE ADD SLT PUSH2 0x125 JUMPI SLOAD PUSH1 0x40 MLOAD PUSH1 0x1 PUSH1 0x1 PUSH1 0xA0 SHL SUB SWAP1 SWAP2 AND DUP2 MSTORE PUSH1 0x20 SWAP1 RETURN JUMPDEST POP CALLVALUE PUSH2 0x125 JUMPI PUSH1 0x20 CALLDATASIZE PUSH1 0x3 NOT ADD SLT PUSH2 0x125 JUMPI PUSH1 0x40 PUSH1 0x20 SWAP2 PUSH1 0x4 CALLDATALOAD DUP2 MSTORE PUSH1 0xB DUP4 MSTORE KECCAK256 SLOAD PUSH1 0x40 MLOAD SWAP1 DUP2 MSTORE RETURN JUMPDEST POP CALLVALUE PUSH2 0x125 JUMPI DUP1 PUSH1 0x3 NOT CALLDATASIZE ADD SLT PUSH2 0x125 JUMPI PUSH1 0x20 PUSH1 0x9 SLOAD PUSH1 0x40 MLOAD SWAP1 DUP2 MSTORE RETURN JUMPDEST POP CALLVALUE PUSH2 0x125 JUMPI DUP1 PUSH1 0x3 NOT CALLDATASIZE ADD SLT PUSH2 0x125 JUMPI PUSH2 0x790 PUSH2 0x10B3 JUMP JUMPDEST PUSH3 0x10000 PUSH3 0xFF0000 NOT PUSH1 0x5 SLOAD AND OR PUSH1 0x5 SSTORE DUP1 RETURN JUMPDEST POP CALLVALUE PUSH2 0x125 JUMPI PUSH1 0x20 CALLDATASIZE PUSH1 0x3 NOT ADD SLT PUSH2 0x125 JUMPI PUSH2 0x7BE PUSH2 0xF50 JUMP JUMPDEST PUSH2 0x7C6 PUSH2 0x10B3 JUMP JUMPDEST PUSH1 0x1 DUP1 PUSH1 0xA0 SHL SUB AND PUSH1 0x1 PUSH1 0x1 PUSH1 0x60 SHL SUB PUSH1 0xA0 SHL PUSH1 0x6 SLOAD AND OR PUSH1 0x6 SSTORE DUP1 RETURN JUMPDEST POP CALLVALUE PUSH2 0x125 JUMPI DUP1 PUSH1 0x3 NOT CALLDATASIZE ADD SLT PUSH2 0x125 JUMPI PUSH1 0xA0 PUSH1 0x1 DUP1 DUP3 SHL SUB PUSH1 0x2 SLOAD AND PUSH1 0xFF PUSH1 0x3 SLOAD PUSH1 0x4 SLOAD PUSH1 0x5 SLOAD SWAP2 PUSH1 0x40 MLOAD SWAP5 DUP6 MSTORE PUSH1 0x20 DUP6 ADD MSTORE PUSH1 0x40 DUP5 ADD MSTORE PUSH2 0xFFFF DUP2 AND PUSH1 0x60 DUP5 ADD MSTORE PUSH1 0x10 SHR AND ISZERO ISZERO PUSH1 0x80 DUP3 ADD MSTORE RETURN JUMPDEST POP CALLVALUE PUSH2 0x125 JUMPI DUP1 PUSH1 0x3 NOT CALLDATASIZE ADD SLT PUSH2 0x125 JUMPI PUSH1 0x6 SLOAD PUSH1 0x40 MLOAD PUSH1 0x1 PUSH1 0x1 PUSH1 0xA0 SHL SUB SWAP1 SWAP2 AND DUP2 MSTORE PUSH1 0x20 SWAP1 RETURN JUMPDEST POP CALLVALUE PUSH2 0x125 JUMPI DUP1 PUSH1 0x3 NOT CALLDATASIZE ADD SLT PUSH2 0x125 JUMPI PUSH2 0x876 PUSH2 0x10B3 JUMP JUMPDEST PUSH1 0x0 DUP1 SLOAD PUSH1 0x1 PUSH1 0x1 PUSH1 0xA0 SHL SUB NOT DUP2 AND DUP3 SSTORE PUSH1 0x1 PUSH1 0x1 PUSH1 0xA0 SHL SUB AND PUSH32 0x8BE0079C531659141344CD1FD0A4F28419497F9722A3DAAFE3B4186F6B6457E0 DUP3 DUP1 LOG3 DUP1 RETURN JUMPDEST POP CALLVALUE PUSH2 0x125 JUMPI PUSH1 0x20 CALLDATASIZE PUSH1 0x3 NOT ADD SLT PUSH2 0x125 JUMPI PUSH1 0x40 PUSH1 0x60 SWAP2 PUSH1 0x4 CALLDATALOAD DUP2 MSTORE PUSH1 0xA PUSH1 0x20 MSTORE KECCAK256 PUSH1 0x1 DUP1 PUSH1 0xA0 SHL SUB DUP2 SLOAD AND SWAP1 PUSH1 0xFF PUSH1 0x2 PUSH1 0x1 DUP4 ADD SLOAD SWAP3 ADD SLOAD AND SWAP1 PUSH1 0x40 MLOAD SWAP3 DUP4 MSTORE PUSH1 0x20 DUP4 ADD MSTORE PUSH1 0x40 DUP3 ADD MSTORE RETURN JUMPDEST POP CALLVALUE PUSH2 0x125 JUMPI DUP1 PUSH1 0x3 NOT CALLDATASIZE ADD SLT PUSH2 0x125 JUMPI PUSH2 0x91D PUSH2 0x10B3 JUMP JUMPDEST PUSH3 0xFF0000 NOT PUSH1 0x5 SLOAD AND PUSH1 0x5 SSTORE DUP1 RETURN JUMPDEST POP CALLVALUE PUSH2 0x125 JUMPI PUSH1 0x20 CALLDATASIZE PUSH1 0x3 NOT ADD SLT PUSH2 0x125 JUMPI PUSH1 0x40 DUP2 PUSH1 0x60 SWAP3 DUP3 DUP1 MLOAD PUSH2 0x950 DUP2 PUSH2 0xF9C JUMP JUMPDEST DUP3 DUP2 MSTORE DUP3 PUSH1 0x20 DUP3 ADD MSTORE ADD MSTORE PUSH1 0x4 CALLDATALOAD DUP2 MSTORE PUSH1 0xA PUSH1 0x20 MSTORE KECCAK256 PUSH1 0xFF PUSH1 0x40 MLOAD PUSH2 0x974 DUP2 PUSH2 0xF9C JUMP JUMPDEST PUSH1 0x1 DUP1 PUSH1 0xA0 SHL SUB DUP4 SLOAD AND SWAP3 DUP4 DUP3 MSTORE PUSH1 0x40 DUP4 PUSH1 0x2 PUSH1 0x1 DUP5 ADD SLOAD SWAP4 PUSH1 0x20 DUP7 ADD SWAP5 DUP6 MSTORE ADD SLOAD AND SWAP3 ADD SWAP2 DUP3 MSTORE PUSH1 0x40 MLOAD SWAP4 DUP5 MSTORE MLOAD PUSH1 0x20 DUP5 ADD MSTORE MLOAD AND PUSH1 0x40 DUP3 ADD MSTORE RETURN JUMPDEST POP CALLVALUE PUSH2 0x125 JUMPI DUP1 PUSH1 0x3 NOT CALLDATASIZE ADD SLT PUSH2 0x125 JUMPI PUSH1 0x20 PUSH1 0x8 SLOAD PUSH1 0x40 MLOAD SWAP1 DUP2 MSTORE RETURN JUMPDEST POP CALLVALUE PUSH2 0x125 JUMPI PUSH1 0x40 CALLDATASIZE PUSH1 0x3 NOT ADD SLT PUSH2 0x125 JUMPI PUSH1 0x6 SLOAD PUSH1 0x1 PUSH1 0x1 PUSH1 0xA0 SHL SUB AND CALLER SUB PUSH2 0xE92 JUMPI PUSH1 0x4 CALLDATALOAD DUP2 MSTORE PUSH1 0xB PUSH1 0x20 SWAP1 DUP2 MSTORE PUSH1 0x40 DUP1 DUP4 KECCAK256 SLOAD DUP1 DUP5 MSTORE PUSH1 0xA SWAP1 SWAP3 MSTORE DUP3 KECCAK256 DUP1 SLOAD PUSH1 0x1 PUSH1 0x1 PUSH1 0xA0 SHL SUB AND ISZERO PUSH2 0xE5E JUMPI PUSH1 0x40 MLOAD PUSH1 0x20 DUP2 ADD SWAP1 PUSH1 0x24 CALLDATALOAD DUP3 MSTORE PUSH1 0x1 PUSH1 0x40 DUP3 ADD MSTORE PUSH1 0x40 DUP2 MSTORE PUSH2 0xA40 DUP2 PUSH2 0xF9C JUMP JUMPDEST MLOAD SWAP1 KECCAK256 PUSH1 0x40 MLOAD PUSH1 0x20 DUP2 ADD SWAP1 PUSH1 0x24 CALLDATALOAD DUP3 MSTORE PUSH1 0x2 PUSH1 0x40 DUP3 ADD MSTORE PUSH1 0x40 DUP2 MSTORE PUSH2 0xA64 DUP2 PUSH2 0xF9C JUMP JUMPDEST MLOAD SWAP1 KECCAK256 PUSH1 0x40 MLOAD PUSH1 0x20 DUP2 ADD SWAP1 PUSH1 0x24 CALLDATALOAD DUP3 MSTORE PUSH1 0x3 PUSH1 0x40 DUP3 ADD MSTORE PUSH1 0x40 DUP2 MSTORE PUSH2 0xA88 DUP2 PUSH2 0xF9C JUMP JUMPDEST MLOAD SWAP1 KECCAK256 PUSH2 0xAA8 PUSH1 0xFF PUSH1 0x7 DUP4 MOD AND PUSH1 0xFF PUSH1 0x7 DUP6 MOD AND PUSH1 0xFF PUSH1 0x7 DUP8 MOD AND PUSH2 0x100A JUMP JUMPDEST DUP1 ISZERO PUSH2 0xE4D JUMPI PUSH1 0x2 DUP6 ADD DUP1 SLOAD SWAP1 PUSH1 0x1 PUSH1 0xFF DUP4 AND ADD PUSH1 0xFF DUP2 GT PUSH2 0xE39 JUMPI SWAP1 PUSH1 0xFF PUSH2 0x3E8 SWAP4 SWAP3 AND DUP1 SWAP3 PUSH1 0xFF NOT AND OR SWAP1 SSTORE MUL DUP1 PUSH2 0xFFFF DUP2 AND SUB PUSH2 0xE25 JUMPI SWAP1 PUSH2 0xFFFF PUSH2 0xAF1 SWAP3 AND SWAP1 PUSH2 0xFDA JUMP JUMPDEST PUSH2 0xB22 PUSH1 0x1 DUP7 ADD SLOAD DUP3 PUSH2 0xB1B PUSH2 0xFFFF PUSH1 0x5 SLOAD AND SWAP3 PUSH2 0xB13 PUSH2 0x2710 SWAP4 DUP5 SWAP3 PUSH2 0x10A0 JUMP JUMPDEST DIV SWAP3 DUP4 PUSH2 0x10A0 JUMP JUMPDEST DIV SWAP1 PUSH2 0xFFD JUMP JUMPDEST SWAP2 DUP3 PUSH2 0xD99 JUMPI JUMPDEST DUP8 DUP8 PUSH1 0x5 PUSH2 0x3E8 PUSH1 0x24 CALLDATALOAD MOD LT DUP1 PUSH2 0xD8E JUMPI JUMPDEST PUSH2 0xCBF JUMPI JUMPDEST DUP3 PUSH1 0xFF PUSH1 0x7 DUP2 PUSH1 0x2 PUSH32 0xBFE272CCB2AAE70E6AEA9A2A87917E1A3BDEA7A0D7469F17861BEA19081DE6AD SWAP13 DUP3 SWAP8 DUP13 PUSH1 0x6 PUSH1 0xE0 SWAP16 SWAP15 SWAP14 SWAP13 SWAP12 SWAP10 DUP16 SWAP11 DUP15 DUP15 DUP11 SWAP14 PUSH1 0x1 DUP1 PUSH1 0xA0 SHL SUB DUP10 SLOAD AND SWAP7 DUP12 DUP12 DUP12 ADD SLOAD AND SWAP5 PUSH1 0x40 MLOAD SWAP9 PUSH2 0xB9C DUP11 PUSH2 0xF7F JUMP JUMPDEST DUP10 MSTORE PUSH1 0x20 DUP10 ADD DUP8 DUP2 MSTORE DUP14 DUP16 PUSH1 0x40 DUP13 ADD SWAP6 MOD AND DUP5 MSTORE DUP14 DUP16 PUSH1 0x60 DUP13 ADD SWAP5 MOD AND DUP4 MSTORE DUP14 DUP16 PUSH1 0x80 DUP13 ADD SWAP4 MOD AND DUP3 MSTORE PUSH1 0xA0 DUP11 ADD SWAP5 DUP6 MSTORE PUSH1 0xC0 DUP11 ADD SWAP6 DUP7 MSTORE PUSH1 0xE0 DUP11 ADD SWAP7 DUP8 MSTORE PUSH2 0x100 DUP11 ADD SWAP8 PUSH2 0x3E8 PUSH1 0x24 CALLDATALOAD MOD DUP10 MSTORE DUP12 MSTORE PUSH1 0xC PUSH1 0x20 MSTORE PUSH1 0x40 DUP12 KECCAK256 SWAP10 PUSH1 0x1 DUP1 PUSH1 0xA0 SHL SUB SWAP1 MLOAD AND PUSH1 0x1 PUSH1 0x1 PUSH1 0x60 SHL SUB PUSH1 0xA0 SHL DUP12 SLOAD AND OR DUP11 SSTORE MLOAD PUSH1 0x1 DUP11 ADD SSTORE DUP13 DUP13 DUP11 ADD SWAP4 MLOAD AND PUSH3 0xFF0000 PUSH2 0xFF00 DUP6 SLOAD SWAP5 MLOAD PUSH1 0x8 SHL AND SWAP3 MLOAD PUSH1 0x10 SHL AND SWAP3 PUSH3 0xFFFFFF NOT AND OR OR OR SWAP1 SSTORE MLOAD PUSH1 0x3 DUP7 ADD SSTORE MLOAD PUSH1 0x4 DUP6 ADD SSTORE DUP8 PUSH1 0x5 DUP6 ADD SWAP2 MLOAD AND DUP9 NOT DUP3 SLOAD AND OR SWAP1 SSTORE MLOAD SWAP2 ADD SSTORE PUSH1 0xA PUSH1 0x20 MSTORE DUP1 DUP4 PUSH1 0x40 DUP3 KECCAK256 DUP3 DUP2 SSTORE DUP3 PUSH1 0x1 DUP3 ADD SSTORE ADD SSTORE PUSH1 0x4 CALLDATALOAD DUP2 MSTORE PUSH1 0xB PUSH1 0x20 MSTORE PUSH1 0x40 DUP2 KECCAK256 SSTORE ADD SLOAD AND SWAP8 DUP3 DUP3 PUSH1 0x40 MLOAD SWAP12 MOD AND DUP11 MSTORE MOD AND PUSH1 0x20 DUP9 ADD MSTORE MOD AND PUSH1 0x40 DUP6 ADD MSTORE PUSH1 0x60 DUP5 ADD MSTORE PUSH1 0x80 DUP4 ADD MSTORE PUSH1 0xA0 DUP3 ADD MSTORE PUSH2 0x3E8 PUSH1 0x24 CALLDATALOAD MOD PUSH1 0xC0 DUP3 ADD MSTORE LOG2 DUP1 RETURN JUMPDEST POP POP PUSH2 0xCE2 PUSH2 0xCDA SWAP7 SWAP4 PUSH1 0x9 SLOAD SWAP1 PUSH1 0xA DUP3 DIV SWAP9 DUP10 DUP1 SWAP4 PUSH2 0xFFD JUMP JUMPDEST PUSH1 0x9 SSTORE PUSH2 0xFDA JUMP JUMPDEST PUSH1 0x2 SLOAD PUSH1 0x7 SLOAD DUP6 SLOAD PUSH1 0x1 PUSH1 0x1 PUSH1 0xA0 SHL SUB SWAP1 DUP2 AND SWAP10 SWAP4 SWAP7 SWAP4 DUP13 SWAP4 SWAP3 DUP3 AND SWAP3 SWAP1 SWAP2 AND DUP1 EXTCODESIZE ISZERO PUSH2 0xD8A JUMPI PUSH1 0x40 MLOAD PUSH4 0xA00C6951 PUSH1 0xE0 SHL DUP2 MSTORE PUSH1 0x1 PUSH1 0x1 PUSH1 0xA0 SHL SUB SWAP4 DUP5 AND PUSH1 0x4 DUP3 ADD MSTORE SWAP11 SWAP1 SWAP3 AND PUSH1 0x24 DUP12 ADD MSTORE PUSH1 0x44 DUP11 ADD MSTORE DUP2 SWAP1 DUP10 SWAP1 PUSH1 0x64 SWAP1 DUP3 SWAP1 DUP5 SWAP1 GAS CALL DUP1 ISZERO PUSH2 0xD7D JUMPI DUP10 SWAP1 PUSH2 0xD57 JUMPI JUMPDEST SWAP1 SWAP2 SWAP8 POP PUSH2 0xB40 JUMP JUMPDEST POP PUSH2 0xD68 DUP2 SWAP9 SWAP8 SWAP7 SWAP6 SWAP5 SWAP4 SWAP8 PUSH2 0xF6B JUMP JUMPDEST PUSH2 0xD79 JUMPI DUP7 DUP9 SWAP7 SWAP3 SWAP4 SWAP5 SWAP6 SWAP7 PUSH2 0xD4E JUMP JUMPDEST DUP7 DUP1 REVERT JUMPDEST POP PUSH1 0x40 MLOAD SWAP1 RETURNDATASIZE SWAP1 DUP3 RETURNDATACOPY RETURNDATASIZE SWAP1 REVERT JUMPDEST DUP4 DUP1 REVERT JUMPDEST POP PUSH1 0x9 SLOAD ISZERO ISZERO PUSH2 0xB3B JUMP JUMPDEST PUSH1 0x2 SLOAD PUSH1 0x7 SLOAD DUP8 SLOAD PUSH1 0x1 PUSH1 0x1 PUSH1 0xA0 SHL SUB SWAP1 DUP2 AND SWAP3 DUP12 SWAP3 DUP3 AND SWAP2 AND DUP1 EXTCODESIZE ISZERO PUSH2 0xE21 JUMPI PUSH1 0x40 MLOAD PUSH4 0xA00C6951 PUSH1 0xE0 SHL DUP2 MSTORE PUSH1 0x1 PUSH1 0x1 PUSH1 0xA0 SHL SUB SWAP3 DUP4 AND PUSH1 0x4 DUP3 ADD MSTORE SWAP4 SWAP1 SWAP2 AND PUSH1 0x24 DUP5 ADD MSTORE PUSH1 0x44 DUP4 ADD DUP7 SWAP1 MSTORE DUP3 SWAP1 PUSH1 0x64 SWAP1 DUP3 SWAP1 DUP5 SWAP1 GAS CALL DUP1 ISZERO PUSH2 0xE16 JUMPI PUSH2 0xE03 JUMPI JUMPDEST POP PUSH2 0xB29 JUMP JUMPDEST PUSH2 0xE0F SWAP1 SWAP9 SWAP2 SWAP9 PUSH2 0xF6B JUMP JUMPDEST SWAP7 CODESIZE PUSH2 0xDFD JUMP JUMPDEST PUSH1 0x40 MLOAD RETURNDATASIZE DUP12 DUP3 RETURNDATACOPY RETURNDATASIZE SWAP1 REVERT JUMPDEST DUP3 DUP1 REVERT JUMPDEST PUSH4 0x4E487B71 PUSH1 0xE0 SHL DUP9 MSTORE PUSH1 0x11 PUSH1 0x4 MSTORE PUSH1 0x24 DUP9 REVERT JUMPDEST PUSH4 0x4E487B71 PUSH1 0xE0 SHL DUP11 MSTORE PUSH1 0x11 PUSH1 0x4 MSTORE PUSH1 0x24 DUP11 REVERT JUMPDEST PUSH1 0x2 DUP6 ADD DUP1 SLOAD PUSH1 0xFF NOT AND SWAP1 SSTORE PUSH2 0xAF1 JUMP JUMPDEST PUSH1 0x40 MLOAD PUSH3 0x461BCD PUSH1 0xE5 SHL DUP2 MSTORE PUSH1 0x20 PUSH1 0x4 DUP3 ADD MSTORE PUSH1 0xC PUSH1 0x24 DUP3 ADD MSTORE PUSH12 0x496E76616C69642067616D65 PUSH1 0xA0 SHL PUSH1 0x44 DUP3 ADD MSTORE PUSH1 0x64 SWAP1 REVERT JUMPDEST PUSH1 0x40 MLOAD PUSH3 0x461BCD PUSH1 0xE5 SHL DUP2 MSTORE PUSH1 0x20 PUSH1 0x4 DUP3 ADD MSTORE PUSH1 0x8 PUSH1 0x24 DUP3 ADD MSTORE PUSH8 0x27B7363C902B2923 PUSH1 0xC1 SHL PUSH1 0x44 DUP3 ADD MSTORE PUSH1 0x64 SWAP1 REVERT JUMPDEST SWAP1 POP CALLVALUE PUSH2 0x5CF JUMPI PUSH1 0x20 CALLDATASIZE PUSH1 0x3 NOT ADD SLT PUSH2 0x5CF JUMPI PUSH1 0x40 PUSH2 0x120 SWAP3 PUSH1 0x4 CALLDATALOAD DUP2 MSTORE PUSH1 0xC PUSH1 0x20 MSTORE KECCAK256 PUSH1 0x1 DUP1 PUSH1 0xA0 SHL SUB DUP2 SLOAD AND SWAP1 PUSH1 0x1 DUP2 ADD SLOAD PUSH1 0x2 DUP3 ADD SLOAD PUSH1 0xFF PUSH1 0x3 DUP5 ADD SLOAD SWAP2 PUSH1 0x4 DUP6 ADD SLOAD SWAP4 PUSH1 0x6 DUP4 PUSH1 0x5 DUP9 ADD SLOAD AND SWAP7 ADD SLOAD SWAP7 DUP9 MSTORE PUSH1 0x20 DUP9 ADD MSTORE DUP2 DUP2 AND PUSH1 0x40 DUP9 ADD MSTORE DUP2 DUP2 PUSH1 0x8 SHR AND PUSH1 0x60 DUP9 ADD MSTORE PUSH1 0x10 SHR AND PUSH1 0x80 DUP7 ADD MSTORE PUSH1 0xA0 DUP6 ADD MSTORE PUSH1 0xC0 DUP5 ADD MSTORE PUSH1 0xE0 DUP4 ADD MSTORE PUSH2 0x100 DUP3 ADD MSTORE RETURN JUMPDEST PUSH1 0x4 CALLDATALOAD SWAP1 PUSH1 0x1 PUSH1 0x1 PUSH1 0xA0 SHL SUB DUP3 AND DUP3 SUB PUSH2 0xF66 JUMPI JUMP JUMPDEST PUSH1 0x0 DUP1 REVERT JUMPDEST PUSH8 0xFFFFFFFFFFFFFFFF DUP2 GT PUSH2 0x266 JUMPI PUSH1 0x40 MSTORE JUMP JUMPDEST PUSH2 0x120 DUP2 ADD SWAP1 DUP2 LT PUSH8 0xFFFFFFFFFFFFFFFF DUP3 GT OR PUSH2 0x266 JUMPI PUSH1 0x40 MSTORE JUMP JUMPDEST PUSH1 0x60 DUP2 ADD SWAP1 DUP2 LT PUSH8 0xFFFFFFFFFFFFFFFF DUP3 GT OR PUSH2 0x266 JUMPI PUSH1 0x40 MSTORE JUMP JUMPDEST SWAP1 PUSH1 0x1F DUP1 NOT SWAP2 ADD AND DUP2 ADD SWAP1 DUP2 LT PUSH8 0xFFFFFFFFFFFFFFFF DUP3 GT OR PUSH2 0x266 JUMPI PUSH1 0x40 MSTORE JUMP JUMPDEST SWAP2 SWAP1 DUP3 ADD DUP1 SWAP3 GT PUSH2 0xFE7 JUMPI JUMP JUMPDEST PUSH4 0x4E487B71 PUSH1 0xE0 SHL PUSH1 0x0 MSTORE PUSH1 0x11 PUSH1 0x4 MSTORE PUSH1 0x24 PUSH1 0x0 REVERT JUMPDEST SWAP2 SWAP1 DUP3 SUB SWAP2 DUP3 GT PUSH2 0xFE7 JUMPI JUMP JUMPDEST PUSH1 0xFF SWAP1 DUP2 AND SWAP2 AND DUP2 DUP2 EQ SWAP3 SWAP1 DUP4 DUP1 PUSH2 0x1094 JUMPI JUMPDEST ISZERO PUSH2 0x1059 JUMPI POP POP SWAP1 POP PUSH1 0x6 DUP2 EQ PUSH2 0x1051 JUMPI PUSH1 0x5 DUP2 EQ PUSH2 0x1049 JUMPI PUSH1 0x4 EQ PUSH2 0x1043 JUMPI PUSH2 0x4E20 SWAP1 JUMP JUMPDEST PUSH2 0xC350 SWAP1 JUMP JUMPDEST POP PUSH3 0x186A0 SWAP1 JUMP JUMPDEST POP PUSH3 0x3D090 SWAP1 JUMP JUMPDEST DUP4 ISZERO PUSH2 0x1087 JUMPI JUMPDEST POP DUP3 ISZERO PUSH2 0x107A JUMPI JUMPDEST POP POP ISZERO PUSH2 0x1075 JUMPI PUSH2 0x2710 SWAP1 JUMP JUMPDEST PUSH1 0x0 SWAP1 JUMP JUMPDEST PUSH1 0xFF AND EQ SWAP1 POP CODESIZE DUP1 PUSH2 0x1068 JUMP JUMPDEST PUSH1 0xFF DUP3 AND EQ SWAP3 POP CODESIZE PUSH2 0x1060 JUMP JUMPDEST POP PUSH1 0xFF DUP3 AND DUP2 EQ PUSH2 0x101D JUMP JUMPDEST DUP2 DUP2 MUL SWAP3 SWAP2 DUP2 ISZERO SWAP2 DUP5 DIV EQ OR ISZERO PUSH2 0xFE7 JUMPI JUMP JUMPDEST PUSH1 0x0 SLOAD PUSH1 0x1 PUSH1 0x1 PUSH1 0xA0 SHL SUB AND CALLER SUB PUSH2 0x10C7 JUMPI JUMP JUMPDEST PUSH1 0x40 MLOAD PUSH4 0x118CDAA7 PUSH1 0xE0 SHL DUP2 MSTORE CALLER PUSH1 0x4 DUP3 ADD MSTORE PUSH1 0x24 SWAP1 REVERT INVALID LOG2 PUSH5 0x6970667358 0x22 SLT KECCAK256 CALLDATASIZE 0xD1 JUMPI 0x4E PUSH21 0xA5ECA0FF7086E651010B151119595937A5697BEBD4 0xB1 DUP10 STATICCALL 0xCD RETURN 0xEF PUSH5 0x736F6C6343 STOP ADDMOD XOR STOP CALLER "},"methodIdentifiers":{"config()":"79502c55","fulfillRandomness(bytes32,uint256)":"1f1f897f","gameCounter()":"2e0be39a","games(uint256)":"117a5b90","getGame(uint256)":"a2f77bcc","getPendingGame(uint256)":"3d598f80","getPrizePool()":"884bf67c","initialize(address,uint256,uint256,uint16)":"cbb6d6bd","owner()":"8da5cb5b","pause()":"8456cb59","pendingGames(uint256)":"579e94ee","prizePool()":"719ce73e","pythVRF()":"772d84c4","renounceOwnership()":"715018a6","setPythVRF(address)":"83ba98ae","spin(uint256)":"a5b6ea8f","token()":"fc0c546a","transferOwnership(address)":"f2fde38b","unpause()":"3f4ba83a","vrfRequestToGame(bytes32)":"8a7626d1"}}}}}