{"contracts/casino/Plinko.sol":{"Plinko":{"abi":[{"inputs":[{"internalType":"address","name":"_owner","type":"address"},{"internalType":"address","name":"_token","type":"address"},{"internalType":"address","name":"_pythVRF","type":"address"}],"stateMutability":"nonpayable","type":"constructor"},{"inputs":[],"name":"BetTooHigh","type":"error"},{"inputs":[],"name":"BetTooLow","type":"error"},{"inputs":[{"internalType":"address","name":"owner","type":"address"}],"name":"OwnableInvalidOwner","type":"error"},{"inputs":[{"internalType":"address","name":"account","type":"address"}],"name":"OwnableUnauthorizedAccount","type":"error"},{"inputs":[],"name":"ReentrancyGuardReentrantCall","type":"error"},{"inputs":[{"internalType":"address","name":"token","type":"address"}],"name":"SafeERC20FailedOperation","type":"error"},{"anonymous":false,"inputs":[{"indexed":true,"internalType":"uint256","name":"gameId","type":"uint256"},{"indexed":false,"internalType":"int256","name":"position","type":"int256"},{"indexed":false,"internalType":"uint256","name":"multiplier","type":"uint256"},{"indexed":false,"internalType":"uint256","name":"reward","type":"uint256"},{"indexed":false,"internalType":"uint256","name":"lootRarity","type":"uint256"}],"name":"GameSettled","type":"event"},{"anonymous":false,"inputs":[{"indexed":true,"internalType":"uint256","name":"gameId","type":"uint256"},{"indexed":true,"internalType":"address","name":"player","type":"address"}],"name":"GameStarted","type":"event"},{"anonymous":false,"inputs":[{"indexed":true,"internalType":"address","name":"previousOwner","type":"address"},{"indexed":true,"internalType":"address","name":"newOwner","type":"address"}],"name":"OwnershipTransferred","type":"event"},{"inputs":[],"name":"config","outputs":[{"internalType":"address","name":"treasury","type":"address"},{"internalType":"uint256","name":"minPlay","type":"uint256"},{"internalType":"uint256","name":"maxPlay","type":"uint256"},{"internalType":"uint16","name":"houseEdgeBps","type":"uint16"},{"internalType":"bool","name":"paused","type":"bool"}],"stateMutability":"view","type":"function"},{"inputs":[{"internalType":"bytes32","name":"requestId","type":"bytes32"},{"internalType":"uint256","name":"randomness","type":"uint256"}],"name":"fulfillRandomness","outputs":[],"stateMutability":"nonpayable","type":"function"},{"inputs":[],"name":"gameCounter","outputs":[{"internalType":"uint256","name":"","type":"uint256"}],"stateMutability":"view","type":"function"},{"inputs":[{"internalType":"uint256","name":"","type":"uint256"}],"name":"games","outputs":[{"internalType":"address","name":"player","type":"address"},{"internalType":"uint256","name":"gameId","type":"uint256"},{"internalType":"int256","name":"position","type":"int256"},{"internalType":"uint256","name":"multiplier","type":"uint256"},{"internalType":"uint256","name":"reward","type":"uint256"},{"internalType":"uint256","name":"lootRarity","type":"uint256"}],"stateMutability":"view","type":"function"},{"inputs":[{"internalType":"uint256","name":"gameId","type":"uint256"}],"name":"getGame","outputs":[{"components":[{"internalType":"address","name":"player","type":"address"},{"internalType":"uint256","name":"gameId","type":"uint256"},{"internalType":"int256","name":"position","type":"int256"},{"internalType":"uint256","name":"multiplier","type":"uint256"},{"internalType":"uint256","name":"reward","type":"uint256"},{"internalType":"uint256","name":"lootRarity","type":"uint256"}],"internalType":"struct Plinko.GameResult","name":"","type":"tuple"}],"stateMutability":"view","type":"function"},{"inputs":[{"internalType":"uint256","name":"gameId","type":"uint256"}],"name":"getPendingGame","outputs":[{"components":[{"internalType":"address","name":"player","type":"address"},{"internalType":"uint256","name":"amount","type":"uint256"},{"internalType":"uint8","name":"rows","type":"uint8"}],"internalType":"struct Plinko.PendingGame","name":"","type":"tuple"}],"stateMutability":"view","type":"function"},{"inputs":[],"name":"getPrizePool","outputs":[{"internalType":"uint256","name":"","type":"uint256"}],"stateMutability":"view","type":"function"},{"inputs":[{"internalType":"address","name":"treasury","type":"address"},{"internalType":"uint256","name":"minPlay","type":"uint256"},{"internalType":"uint256","name":"maxPlay","type":"uint256"},{"internalType":"uint16","name":"houseEdgeBps","type":"uint16"}],"name":"initialize","outputs":[],"stateMutability":"nonpayable","type":"function"},{"inputs":[],"name":"owner","outputs":[{"internalType":"address","name":"","type":"address"}],"stateMutability":"view","type":"function"},{"inputs":[],"name":"pause","outputs":[],"stateMutability":"nonpayable","type":"function"},{"inputs":[{"internalType":"uint256","name":"","type":"uint256"}],"name":"pendingGames","outputs":[{"internalType":"address","name":"player","type":"address"},{"internalType":"uint256","name":"amount","type":"uint256"},{"internalType":"uint8","name":"rows","type":"uint8"}],"stateMutability":"view","type":"function"},{"inputs":[{"internalType":"uint256","name":"amount","type":"uint256"},{"internalType":"uint8","name":"rows","type":"uint8"}],"name":"play","outputs":[],"stateMutability":"payable","type":"function"},{"inputs":[],"name":"prizePool","outputs":[{"internalType":"uint256","name":"","type":"uint256"}],"stateMutability":"view","type":"function"},{"inputs":[],"name":"pythVRF","outputs":[{"internalType":"contract IPythVRF","name":"","type":"address"}],"stateMutability":"view","type":"function"},{"inputs":[],"name":"renounceOwnership","outputs":[],"stateMutability":"nonpayable","type":"function"},{"inputs":[{"internalType":"address","name":"_pythVRF","type":"address"}],"name":"setPythVRF","outputs":[],"stateMutability":"nonpayable","type":"function"},{"inputs":[],"name":"token","outputs":[{"internalType":"address","name":"","type":"address"}],"stateMutability":"view","type":"function"},{"inputs":[{"internalType":"address","name":"newOwner","type":"address"}],"name":"transferOwnership","outputs":[],"stateMutability":"nonpayable","type":"function"},{"inputs":[],"name":"unpause","outputs":[],"stateMutability":"nonpayable","type":"function"},{"inputs":[{"internalType":"bytes32","name":"","type":"bytes32"}],"name":"vrfRequestToGame","outputs":[{"internalType":"uint256","name":"","type":"uint256"}],"stateMutability":"view","type":"function"}],"evm":{"bytecode":{"linkReferences":{},"object":"6080346100f057601f61102038819003918201601f19168301916001600160401b038311848410176100f5578084926060946040528339810103126100f0576100478161010b565b61005f60406100586020850161010b565b930161010b565b6001600160a01b03918216919082156100d757816000549460018060a01b03199480868816176000558260405197167f8be0079c531659141344cd1fd0a4f28419497f9722a3daafe3b4186f6b6457e0600080a3600180551683600754161760075516906006541617600655610f0090816101208239f35b604051631e4fbdf760e01b815260006004820152602490fd5b600080fd5b634e487b7160e01b600052604160045260246000fd5b51906001600160a01b03821682036100f05756fe608060408181526004918236101561001657600080fd5b600092833560e01c918263117a5b9014610ce9575081631f1f897f146109c65781632e0be39a146109a75781633d598f80146109265781633f4ba83a146108fe578163579e94ee146108b55781635cd7692e146104ff578163715018a6146104a5578163719ce73e1461039c578163772d84c41461047c57816379502c551461042b57816383ba98ae146103eb5781638456cb59146103bb578163884bf67c1461039c5781638a7626d1146103745781638da5cb5b1461034c578163a2f77bcc14610288578163cbb6d6bd146101bc578163f2fde38b1461012c575063fc0c546a1461010157600080fd5b3461012857816003193601126101285760075490516001600160a01b039091168152602090f35b5080fd5b9050346101b85760203660031901126101b857610147610d51565b90610150610e9e565b6001600160a01b039182169283156101a2575050600054826001600160601b0360a01b821617600055167f8be0079c531659141344cd1fd0a4f28419497f9722a3daafe3b4186f6b6457e0600080a380f35b51631e4fbdf760e01b8152908101849052602490fd5b8280fd5b919050346101b85760803660031901126101b8576101d8610d51565b91602435604435926064359461ffff8616809603610284576101f8610e9e565b81519060a0820182811067ffffffffffffffff82111761026f5783526001600160a01b03168082526020820184905291810185905260608101869052608001869052600280546001600160a01b0319169091179055600355556005805462ffffff191690911782151560101b62ff00001617905580f35b604186634e487b7160e01b6000525260246000fd5b8680fd5b9050346101b85760203660031901126101b857818360c09460a083516102ad81610d6c565b8281528260208201528285820152826060820152826080820152015282358152600c602052208251916102df83610d6c565b60018060a01b038254169384845260018301546020850190815260028401549082860191825260a0600560038701549560608901968752870154966080890197885201549601958652825196875251602087015251908501525160608401525160808301525160a0820152f35b505034610128578160031936011261012857905490516001600160a01b039091168152602090f35b9050346101b85760203660031901126101b8576020928291358152600b845220549051908152f35b5050346101285781600319360112610128576020906009549051908152f35b83346103e857806003193601126103e8576103d4610e9e565b6201000062ff000019600554161760055580f35b80fd5b83346103e85760203660031901126103e857610405610d51565b61040d610e9e565b60018060a01b03166001600160601b0360a01b600654161760065580f35b8284346103e857806003193601126103e8575060ff60a092600180851b036002541692600354915490600554928151958652602086015284015261ffff8116606084015260101c1615156080820152f35b50503461012857816003193601126101285760065490516001600160a01b039091168152602090f35b83346103e857806003193601126103e8576104be610e9e565b600080546001600160a01b0319811682556001600160a01b03167f8be0079c531659141344cd1fd0a4f28419497f9722a3daafe3b4186f6b6457e08280a380f35b8391508260031936011261012857803560249384359260ff84168094036108b15760019360028554146108a2576002855560ff60055460101c166108775760088110158061086c575b1561083b57600354825490851061082b57841161081c576007546001600160a01b039790881680610773575084340361073f5761058a600a8604600954610ddc565b60095586808080888c600254165af13d1561073a573d67ffffffffffffffff8111610728578551906105c6601f8201601f191660200183610dba565b81528860203d92013e5b156106f4575b6008549060001982146106e35750918697879260ff600289889701988960085587519061060282610d9e565b338252856020998a998a85019384528185019788528d8152600a8b52209251166001600160601b0360a01b835416178255518b8201550191511660ff19825416179055600654169084518098819363f8413b0760e01b83525af180156106d95783949587916106a1575b508652600b905284205533907ffadb9547847a0c2c31f4c02590545e318d33d7aae99071caecf3fa4ce3cd7dca8480a3805580f35b82809550819392503d83116106d2575b6106bb8183610dba565b810103126106ce5751839290600b61066c565b8580fd5b503d6106b1565b82513d88823e3d90fd5b634e487b7160e01b88526011845287fd5b600f91506020606494519362461bcd60e51b85528401528201526e151c985b9cd9995c8819985a5b1959608a1b6044820152fd5b634e487b7160e01b8952604185528289fd5b6105d0565b600f91506020606494519362461bcd60e51b85528401528201526e082dadeeadce840dad2e6dac2e8c6d608b1b6044820152fd5b610782600a8704600954610ddc565b60095560025485516323b872dd60e01b602080830191825233868401908152938d166001600160a01b031684820152604084018a9052928b92906107d390829060600103601f198101835282610dba565b519082855af11561081257875187903d61080b575050803b155b6107f757506105d6565b9150925191635274afe760e01b8352820152fd5b14156107ed565b84513d89823e3d90fd5b509051631765320160e11b8152fd5b835163989e301760e01b81528390fd5b50600c866020606494519362461bcd60e51b85528401528201526b496e76616c696420726f777360a01b6044820152fd5b506010811115610548565b506006866020606494519362461bcd60e51b85528401528201526514185d5cd95960d21b6044820152fd5b509051633ee5aeb560e01b8152fd5b8480fd5b9050346101b85760203660031901126101b8576060928291358152600a6020522060018060a01b038154169160ff60026001840154930154169181519384526020840152820152f35b83346103e857806003193601126103e857610917610e9e565b62ff0000196005541660055580f35b9050346101b85760203660031901126101b85782829160609483805161094b81610d9e565b8281528260208201520152358152600a602052209060ff815161096d81610d9e565b60018060a01b0384541693848252838360026001840154936020860194855201541692019182528351948552516020850152511690820152f35b5050346101285781600319360112610128576020906008549051908152f35b8383346101285780600319360112610128576006546024938035926001600160a01b03928635919084163303610cbd57848652602094600b86528187205495868852600a81528288209186835416958615610c8c5789978a60ff9060ff600288015416915b8d8382841610610c1957505050610a42908a610dff565b9460018101549886610a6b61ffff600554169b610a63612710938492610e8b565b049b8c610e8b565b04808b03998b8b11610c07576103e890069a03610b5c575b506005898896948a8f94998f9e7fa1a9c34b0ade82ee96ed960c9d5d7ea6299e81b7021ed017c5f0e3f260726ced9f60809f9d98829f9d9981859d9b54169981519a610ace8c610d6c565b8b528c8b0193808552828c0195865260608c0196875260808c0197885260a08c01998a528152600c8d52209851166001600160601b0360a01b895416178855516001880155516002870155516003860155519084015551910155600a82528a600285822082815582600182015501558a52600b8152898381205582519586528501528301526060820152a280f35b8260025416908360075416823b15610c0357895163a00c695160e01b81526001600160a01b03918216878201908152929091166020830152604082018b9052918e9183919082908490829060600103925af18015610bf95715610a835767ffffffffffffffff819d9294939b9a99989c9d11610be7578b529a9b508b99979896979596909188610a83565b5060418d92634e487b7160e01b835252fd5b88513d8f823e3d90fd5b8e80fd5b634e487b7160e01b8f52601186528f8ffd5b90919b8c8a51898101918d835260ff60f81b9060f81b168c82015260218152610c4181610d9e565b5190206001908116610c865750600019915b8282019283129112908015821691151617610c74579a600101811690610a2b565b634e487b7160e01b8e52601185528e8efd5b91610c53565b845162461bcd60e51b8152908101839052600c818c01526b496e76616c69642067616d6560a01b6044820152606490fd5b5162461bcd60e51b81526020818401526008818801526727b7363c902b292360c11b6044820152606490fd5b92915034610d4d576020366003190112610d4d578160c09482358152600c602052209060018060a01b0382541692600183015490600284015491600560038601549486015495015495875260208701528501526060840152608083015260a0820152f35b8380fd5b600435906001600160a01b0382168203610d6757565b600080fd5b60c0810190811067ffffffffffffffff821117610d8857604052565b634e487b7160e01b600052604160045260246000fd5b6060810190811067ffffffffffffffff821117610d8857604052565b90601f8019910116810190811067ffffffffffffffff821117610d8857604052565b91908201809211610de957565b634e487b7160e01b600052601160045260246000fd5b6000811215610e8657600160ff1b8114610de9576000035b80610e255750506298968090565b6207a12080820291820503610de9578115610e7057600160ff1b8114600019831416610de957056298968090808211600014610e67578103908111610de95790565b5050620186a090565b634e487b7160e01b600052601260045260246000fd5b610e17565b81810292918115918404141715610de957565b6000546001600160a01b03163303610eb257565b60405163118cdaa760e01b8152336004820152602490fdfea2646970667358221220ab3465addd03ca6f641d8ebbf5991d678b01bd43960785ace9ef6b71dde5d09f64736f6c63430008180033","opcodes":"PUSH1 0x80 CALLVALUE PUSH2 0xF0 JUMPI PUSH1 0x1F PUSH2 0x1020 CODESIZE DUP2 SWAP1 SUB SWAP2 DUP3 ADD PUSH1 0x1F NOT AND DUP4 ADD SWAP2 PUSH1 0x1 PUSH1 0x1 PUSH1 0x40 SHL SUB DUP4 GT DUP5 DUP5 LT OR PUSH2 0xF5 JUMPI DUP1 DUP5 SWAP3 PUSH1 0x60 SWAP5 PUSH1 0x40 MSTORE DUP4 CODECOPY DUP2 ADD SUB SLT PUSH2 0xF0 JUMPI PUSH2 0x47 DUP2 PUSH2 0x10B JUMP JUMPDEST PUSH2 0x5F PUSH1 0x40 PUSH2 0x58 PUSH1 0x20 DUP6 ADD PUSH2 0x10B JUMP JUMPDEST SWAP4 ADD PUSH2 0x10B JUMP JUMPDEST PUSH1 0x1 PUSH1 0x1 PUSH1 0xA0 SHL SUB SWAP2 DUP3 AND SWAP2 SWAP1 DUP3 ISZERO PUSH2 0xD7 JUMPI DUP2 PUSH1 0x0 SLOAD SWAP5 PUSH1 0x1 DUP1 PUSH1 0xA0 SHL SUB NOT SWAP5 DUP1 DUP7 DUP9 AND OR PUSH1 0x0 SSTORE DUP3 PUSH1 0x40 MLOAD SWAP8 AND PUSH32 0x8BE0079C531659141344CD1FD0A4F28419497F9722A3DAAFE3B4186F6B6457E0 PUSH1 0x0 DUP1 LOG3 PUSH1 0x1 DUP1 SSTORE AND DUP4 PUSH1 0x7 SLOAD AND OR PUSH1 0x7 SSTORE AND SWAP1 PUSH1 0x6 SLOAD AND OR PUSH1 0x6 SSTORE PUSH2 0xF00 SWAP1 DUP2 PUSH2 0x120 DUP3 CODECOPY RETURN JUMPDEST PUSH1 0x40 MLOAD PUSH4 0x1E4FBDF7 PUSH1 0xE0 SHL DUP2 MSTORE PUSH1 0x0 PUSH1 0x4 DUP3 ADD MSTORE PUSH1 0x24 SWAP1 REVERT JUMPDEST PUSH1 0x0 DUP1 REVERT JUMPDEST PUSH4 0x4E487B71 PUSH1 0xE0 SHL PUSH1 0x0 MSTORE PUSH1 0x41 PUSH1 0x4 MSTORE PUSH1 0x24 PUSH1 0x0 REVERT JUMPDEST MLOAD SWAP1 PUSH1 0x1 PUSH1 0x1 PUSH1 0xA0 SHL SUB DUP3 AND DUP3 SUB PUSH2 0xF0 JUMPI JUMP INVALID PUSH1 0x80 PUSH1 0x40 DUP2 DUP2 MSTORE PUSH1 0x4 SWAP2 DUP3 CALLDATASIZE LT ISZERO PUSH2 0x16 JUMPI PUSH1 0x0 DUP1 REVERT JUMPDEST PUSH1 0x0 SWAP3 DUP4 CALLDATALOAD PUSH1 0xE0 SHR SWAP2 DUP3 PUSH4 0x117A5B90 EQ PUSH2 0xCE9 JUMPI POP DUP2 PUSH4 0x1F1F897F EQ PUSH2 0x9C6 JUMPI DUP2 PUSH4 0x2E0BE39A EQ PUSH2 0x9A7 JUMPI DUP2 PUSH4 0x3D598F80 EQ PUSH2 0x926 JUMPI DUP2 PUSH4 0x3F4BA83A EQ PUSH2 0x8FE JUMPI DUP2 PUSH4 0x579E94EE EQ PUSH2 0x8B5 JUMPI DUP2 PUSH4 0x5CD7692E EQ PUSH2 0x4FF JUMPI DUP2 PUSH4 0x715018A6 EQ PUSH2 0x4A5 JUMPI DUP2 PUSH4 0x719CE73E EQ PUSH2 0x39C JUMPI DUP2 PUSH4 0x772D84C4 EQ PUSH2 0x47C JUMPI DUP2 PUSH4 0x79502C55 EQ PUSH2 0x42B JUMPI DUP2 PUSH4 0x83BA98AE EQ PUSH2 0x3EB JUMPI DUP2 PUSH4 0x8456CB59 EQ PUSH2 0x3BB JUMPI DUP2 PUSH4 0x884BF67C EQ PUSH2 0x39C JUMPI DUP2 PUSH4 0x8A7626D1 EQ PUSH2 0x374 JUMPI DUP2 PUSH4 0x8DA5CB5B EQ PUSH2 0x34C JUMPI DUP2 PUSH4 0xA2F77BCC EQ PUSH2 0x288 JUMPI DUP2 PUSH4 0xCBB6D6BD EQ PUSH2 0x1BC JUMPI DUP2 PUSH4 0xF2FDE38B EQ PUSH2 0x12C JUMPI POP PUSH4 0xFC0C546A EQ PUSH2 0x101 JUMPI PUSH1 0x0 DUP1 REVERT JUMPDEST CALLVALUE PUSH2 0x128 JUMPI DUP2 PUSH1 0x3 NOT CALLDATASIZE ADD SLT PUSH2 0x128 JUMPI PUSH1 0x7 SLOAD SWAP1 MLOAD PUSH1 0x1 PUSH1 0x1 PUSH1 0xA0 SHL SUB SWAP1 SWAP2 AND DUP2 MSTORE PUSH1 0x20 SWAP1 RETURN JUMPDEST POP DUP1 REVERT JUMPDEST SWAP1 POP CALLVALUE PUSH2 0x1B8 JUMPI PUSH1 0x20 CALLDATASIZE PUSH1 0x3 NOT ADD SLT PUSH2 0x1B8 JUMPI PUSH2 0x147 PUSH2 0xD51 JUMP JUMPDEST SWAP1 PUSH2 0x150 PUSH2 0xE9E JUMP JUMPDEST PUSH1 0x1 PUSH1 0x1 PUSH1 0xA0 SHL SUB SWAP2 DUP3 AND SWAP3 DUP4 ISZERO PUSH2 0x1A2 JUMPI POP POP PUSH1 0x0 SLOAD DUP3 PUSH1 0x1 PUSH1 0x1 PUSH1 0x60 SHL SUB PUSH1 0xA0 SHL DUP3 AND OR PUSH1 0x0 SSTORE AND PUSH32 0x8BE0079C531659141344CD1FD0A4F28419497F9722A3DAAFE3B4186F6B6457E0 PUSH1 0x0 DUP1 LOG3 DUP1 RETURN JUMPDEST MLOAD PUSH4 0x1E4FBDF7 PUSH1 0xE0 SHL DUP2 MSTORE SWAP1 DUP2 ADD DUP5 SWAP1 MSTORE PUSH1 0x24 SWAP1 REVERT JUMPDEST DUP3 DUP1 REVERT JUMPDEST SWAP2 SWAP1 POP CALLVALUE PUSH2 0x1B8 JUMPI PUSH1 0x80 CALLDATASIZE PUSH1 0x3 NOT ADD SLT PUSH2 0x1B8 JUMPI PUSH2 0x1D8 PUSH2 0xD51 JUMP JUMPDEST SWAP2 PUSH1 0x24 CALLDATALOAD PUSH1 0x44 CALLDATALOAD SWAP3 PUSH1 0x64 CALLDATALOAD SWAP5 PUSH2 0xFFFF DUP7 AND DUP1 SWAP7 SUB PUSH2 0x284 JUMPI PUSH2 0x1F8 PUSH2 0xE9E JUMP JUMPDEST DUP2 MLOAD SWAP1 PUSH1 0xA0 DUP3 ADD DUP3 DUP2 LT PUSH8 0xFFFFFFFFFFFFFFFF DUP3 GT OR PUSH2 0x26F JUMPI DUP4 MSTORE PUSH1 0x1 PUSH1 0x1 PUSH1 0xA0 SHL SUB AND DUP1 DUP3 MSTORE PUSH1 0x20 DUP3 ADD DUP5 SWAP1 MSTORE SWAP2 DUP2 ADD DUP6 SWAP1 MSTORE PUSH1 0x60 DUP2 ADD DUP7 SWAP1 MSTORE PUSH1 0x80 ADD DUP7 SWAP1 MSTORE PUSH1 0x2 DUP1 SLOAD PUSH1 0x1 PUSH1 0x1 PUSH1 0xA0 SHL SUB NOT AND SWAP1 SWAP2 OR SWAP1 SSTORE PUSH1 0x3 SSTORE SSTORE PUSH1 0x5 DUP1 SLOAD PUSH3 0xFFFFFF NOT AND SWAP1 SWAP2 OR DUP3 ISZERO ISZERO PUSH1 0x10 SHL PUSH3 0xFF0000 AND OR SWAP1 SSTORE DUP1 RETURN JUMPDEST PUSH1 0x41 DUP7 PUSH4 0x4E487B71 PUSH1 0xE0 SHL PUSH1 0x0 MSTORE MSTORE PUSH1 0x24 PUSH1 0x0 REVERT JUMPDEST DUP7 DUP1 REVERT JUMPDEST SWAP1 POP CALLVALUE PUSH2 0x1B8 JUMPI PUSH1 0x20 CALLDATASIZE PUSH1 0x3 NOT ADD SLT PUSH2 0x1B8 JUMPI DUP2 DUP4 PUSH1 0xC0 SWAP5 PUSH1 0xA0 DUP4 MLOAD PUSH2 0x2AD DUP2 PUSH2 0xD6C JUMP JUMPDEST DUP3 DUP2 MSTORE DUP3 PUSH1 0x20 DUP3 ADD MSTORE DUP3 DUP6 DUP3 ADD MSTORE DUP3 PUSH1 0x60 DUP3 ADD MSTORE DUP3 PUSH1 0x80 DUP3 ADD MSTORE ADD MSTORE DUP3 CALLDATALOAD DUP2 MSTORE PUSH1 0xC PUSH1 0x20 MSTORE KECCAK256 DUP3 MLOAD SWAP2 PUSH2 0x2DF DUP4 PUSH2 0xD6C JUMP JUMPDEST PUSH1 0x1 DUP1 PUSH1 0xA0 SHL SUB DUP3 SLOAD AND SWAP4 DUP5 DUP5 MSTORE PUSH1 0x1 DUP4 ADD SLOAD PUSH1 0x20 DUP6 ADD SWAP1 DUP2 MSTORE PUSH1 0x2 DUP5 ADD SLOAD SWAP1 DUP3 DUP7 ADD SWAP2 DUP3 MSTORE PUSH1 0xA0 PUSH1 0x5 PUSH1 0x3 DUP8 ADD SLOAD SWAP6 PUSH1 0x60 DUP10 ADD SWAP7 DUP8 MSTORE DUP8 ADD SLOAD SWAP7 PUSH1 0x80 DUP10 ADD SWAP8 DUP9 MSTORE ADD SLOAD SWAP7 ADD SWAP6 DUP7 MSTORE DUP3 MLOAD SWAP7 DUP8 MSTORE MLOAD PUSH1 0x20 DUP8 ADD MSTORE MLOAD SWAP1 DUP6 ADD MSTORE MLOAD PUSH1 0x60 DUP5 ADD MSTORE MLOAD PUSH1 0x80 DUP4 ADD MSTORE MLOAD PUSH1 0xA0 DUP3 ADD MSTORE RETURN JUMPDEST POP POP CALLVALUE PUSH2 0x128 JUMPI DUP2 PUSH1 0x3 NOT CALLDATASIZE ADD SLT PUSH2 0x128 JUMPI SWAP1 SLOAD SWAP1 MLOAD PUSH1 0x1 PUSH1 0x1 PUSH1 0xA0 SHL SUB SWAP1 SWAP2 AND DUP2 MSTORE PUSH1 0x20 SWAP1 RETURN JUMPDEST SWAP1 POP CALLVALUE PUSH2 0x1B8 JUMPI PUSH1 0x20 CALLDATASIZE PUSH1 0x3 NOT ADD SLT PUSH2 0x1B8 JUMPI PUSH1 0x20 SWAP3 DUP3 SWAP2 CALLDATALOAD DUP2 MSTORE PUSH1 0xB DUP5 MSTORE KECCAK256 SLOAD SWAP1 MLOAD SWAP1 DUP2 MSTORE RETURN JUMPDEST POP POP CALLVALUE PUSH2 0x128 JUMPI DUP2 PUSH1 0x3 NOT CALLDATASIZE ADD SLT PUSH2 0x128 JUMPI PUSH1 0x20 SWAP1 PUSH1 0x9 SLOAD SWAP1 MLOAD SWAP1 DUP2 MSTORE RETURN JUMPDEST DUP4 CALLVALUE PUSH2 0x3E8 JUMPI DUP1 PUSH1 0x3 NOT CALLDATASIZE ADD SLT PUSH2 0x3E8 JUMPI PUSH2 0x3D4 PUSH2 0xE9E JUMP JUMPDEST PUSH3 0x10000 PUSH3 0xFF0000 NOT PUSH1 0x5 SLOAD AND OR PUSH1 0x5 SSTORE DUP1 RETURN JUMPDEST DUP1 REVERT JUMPDEST DUP4 CALLVALUE PUSH2 0x3E8 JUMPI PUSH1 0x20 CALLDATASIZE PUSH1 0x3 NOT ADD SLT PUSH2 0x3E8 JUMPI PUSH2 0x405 PUSH2 0xD51 JUMP JUMPDEST PUSH2 0x40D PUSH2 0xE9E JUMP JUMPDEST PUSH1 0x1 DUP1 PUSH1 0xA0 SHL SUB AND PUSH1 0x1 PUSH1 0x1 PUSH1 0x60 SHL SUB PUSH1 0xA0 SHL PUSH1 0x6 SLOAD AND OR PUSH1 0x6 SSTORE DUP1 RETURN JUMPDEST DUP3 DUP5 CALLVALUE PUSH2 0x3E8 JUMPI DUP1 PUSH1 0x3 NOT CALLDATASIZE ADD SLT PUSH2 0x3E8 JUMPI POP PUSH1 0xFF PUSH1 0xA0 SWAP3 PUSH1 0x1 DUP1 DUP6 SHL SUB PUSH1 0x2 SLOAD AND SWAP3 PUSH1 0x3 SLOAD SWAP2 SLOAD SWAP1 PUSH1 0x5 SLOAD SWAP3 DUP2 MLOAD SWAP6 DUP7 MSTORE PUSH1 0x20 DUP7 ADD MSTORE DUP5 ADD MSTORE PUSH2 0xFFFF DUP2 AND PUSH1 0x60 DUP5 ADD MSTORE PUSH1 0x10 SHR AND ISZERO ISZERO PUSH1 0x80 DUP3 ADD MSTORE RETURN JUMPDEST POP POP CALLVALUE PUSH2 0x128 JUMPI DUP2 PUSH1 0x3 NOT CALLDATASIZE ADD SLT PUSH2 0x128 JUMPI PUSH1 0x6 SLOAD SWAP1 MLOAD PUSH1 0x1 PUSH1 0x1 PUSH1 0xA0 SHL SUB SWAP1 SWAP2 AND DUP2 MSTORE PUSH1 0x20 SWAP1 RETURN JUMPDEST DUP4 CALLVALUE PUSH2 0x3E8 JUMPI DUP1 PUSH1 0x3 NOT CALLDATASIZE ADD SLT PUSH2 0x3E8 JUMPI PUSH2 0x4BE PUSH2 0xE9E JUMP JUMPDEST PUSH1 0x0 DUP1 SLOAD PUSH1 0x1 PUSH1 0x1 PUSH1 0xA0 SHL SUB NOT DUP2 AND DUP3 SSTORE PUSH1 0x1 PUSH1 0x1 PUSH1 0xA0 SHL SUB AND PUSH32 0x8BE0079C531659141344CD1FD0A4F28419497F9722A3DAAFE3B4186F6B6457E0 DUP3 DUP1 LOG3 DUP1 RETURN JUMPDEST DUP4 SWAP2 POP DUP3 PUSH1 0x3 NOT CALLDATASIZE ADD SLT PUSH2 0x128 JUMPI DUP1 CALLDATALOAD PUSH1 0x24 SWAP4 DUP5 CALLDATALOAD SWAP3 PUSH1 0xFF DUP5 AND DUP1 SWAP5 SUB PUSH2 0x8B1 JUMPI PUSH1 0x1 SWAP4 PUSH1 0x2 DUP6 SLOAD EQ PUSH2 0x8A2 JUMPI PUSH1 0x2 DUP6 SSTORE PUSH1 0xFF PUSH1 0x5 SLOAD PUSH1 0x10 SHR AND PUSH2 0x877 JUMPI PUSH1 0x8 DUP2 LT ISZERO DUP1 PUSH2 0x86C JUMPI JUMPDEST ISZERO PUSH2 0x83B JUMPI PUSH1 0x3 SLOAD DUP3 SLOAD SWAP1 DUP6 LT PUSH2 0x82B JUMPI DUP5 GT PUSH2 0x81C JUMPI PUSH1 0x7 SLOAD PUSH1 0x1 PUSH1 0x1 PUSH1 0xA0 SHL SUB SWAP8 SWAP1 DUP9 AND DUP1 PUSH2 0x773 JUMPI POP DUP5 CALLVALUE SUB PUSH2 0x73F JUMPI PUSH2 0x58A PUSH1 0xA DUP7 DIV PUSH1 0x9 SLOAD PUSH2 0xDDC JUMP JUMPDEST PUSH1 0x9 SSTORE DUP7 DUP1 DUP1 DUP1 DUP9 DUP13 PUSH1 0x2 SLOAD AND GAS CALL RETURNDATASIZE ISZERO PUSH2 0x73A JUMPI RETURNDATASIZE PUSH8 0xFFFFFFFFFFFFFFFF DUP2 GT PUSH2 0x728 JUMPI DUP6 MLOAD SWAP1 PUSH2 0x5C6 PUSH1 0x1F DUP3 ADD PUSH1 0x1F NOT AND PUSH1 0x20 ADD DUP4 PUSH2 0xDBA JUMP JUMPDEST DUP2 MSTORE DUP9 PUSH1 0x20 RETURNDATASIZE SWAP3 ADD RETURNDATACOPY JUMPDEST ISZERO PUSH2 0x6F4 JUMPI JUMPDEST PUSH1 0x8 SLOAD SWAP1 PUSH1 0x0 NOT DUP3 EQ PUSH2 0x6E3 JUMPI POP SWAP2 DUP7 SWAP8 DUP8 SWAP3 PUSH1 0xFF PUSH1 0x2 DUP10 DUP9 SWAP8 ADD SWAP9 DUP10 PUSH1 0x8 SSTORE DUP8 MLOAD SWAP1 PUSH2 0x602 DUP3 PUSH2 0xD9E JUMP JUMPDEST CALLER DUP3 MSTORE DUP6 PUSH1 0x20 SWAP10 DUP11 SWAP10 DUP11 DUP6 ADD SWAP4 DUP5 MSTORE DUP2 DUP6 ADD SWAP8 DUP9 MSTORE DUP14 DUP2 MSTORE PUSH1 0xA DUP12 MSTORE KECCAK256 SWAP3 MLOAD AND PUSH1 0x1 PUSH1 0x1 PUSH1 0x60 SHL SUB PUSH1 0xA0 SHL DUP4 SLOAD AND OR DUP3 SSTORE MLOAD DUP12 DUP3 ADD SSTORE ADD SWAP2 MLOAD AND PUSH1 0xFF NOT DUP3 SLOAD AND OR SWAP1 SSTORE PUSH1 0x6 SLOAD AND SWAP1 DUP5 MLOAD DUP1 SWAP9 DUP2 SWAP4 PUSH4 0xF8413B07 PUSH1 0xE0 SHL DUP4 MSTORE GAS CALL DUP1 ISZERO PUSH2 0x6D9 JUMPI DUP4 SWAP5 SWAP6 DUP8 SWAP2 PUSH2 0x6A1 JUMPI JUMPDEST POP DUP7 MSTORE PUSH1 0xB SWAP1 MSTORE DUP5 KECCAK256 SSTORE CALLER SWAP1 PUSH32 0xFADB9547847A0C2C31F4C02590545E318D33D7AAE99071CAECF3FA4CE3CD7DCA DUP5 DUP1 LOG3 DUP1 SSTORE DUP1 RETURN JUMPDEST DUP3 DUP1 SWAP6 POP DUP2 SWAP4 SWAP3 POP RETURNDATASIZE DUP4 GT PUSH2 0x6D2 JUMPI JUMPDEST PUSH2 0x6BB DUP2 DUP4 PUSH2 0xDBA JUMP JUMPDEST DUP2 ADD SUB SLT PUSH2 0x6CE JUMPI MLOAD DUP4 SWAP3 SWAP1 PUSH1 0xB PUSH2 0x66C JUMP JUMPDEST DUP6 DUP1 REVERT JUMPDEST POP RETURNDATASIZE PUSH2 0x6B1 JUMP JUMPDEST DUP3 MLOAD RETURNDATASIZE DUP9 DUP3 RETURNDATACOPY RETURNDATASIZE SWAP1 REVERT JUMPDEST PUSH4 0x4E487B71 PUSH1 0xE0 SHL DUP9 MSTORE PUSH1 0x11 DUP5 MSTORE DUP8 REVERT JUMPDEST PUSH1 0xF SWAP2 POP PUSH1 0x20 PUSH1 0x64 SWAP5 MLOAD SWAP4 PUSH3 0x461BCD PUSH1 0xE5 SHL DUP6 MSTORE DUP5 ADD MSTORE DUP3 ADD MSTORE PUSH15 0x151C985B9CD9995C8819985A5B1959 PUSH1 0x8A SHL PUSH1 0x44 DUP3 ADD MSTORE REVERT JUMPDEST PUSH4 0x4E487B71 PUSH1 0xE0 SHL DUP10 MSTORE PUSH1 0x41 DUP6 MSTORE DUP3 DUP10 REVERT JUMPDEST PUSH2 0x5D0 JUMP JUMPDEST PUSH1 0xF SWAP2 POP PUSH1 0x20 PUSH1 0x64 SWAP5 MLOAD SWAP4 PUSH3 0x461BCD PUSH1 0xE5 SHL DUP6 MSTORE DUP5 ADD MSTORE DUP3 ADD MSTORE PUSH15 0x82DADEEADCE840DAD2E6DAC2E8C6D PUSH1 0x8B SHL PUSH1 0x44 DUP3 ADD MSTORE REVERT JUMPDEST PUSH2 0x782 PUSH1 0xA DUP8 DIV PUSH1 0x9 SLOAD PUSH2 0xDDC JUMP JUMPDEST PUSH1 0x9 SSTORE PUSH1 0x2 SLOAD DUP6 MLOAD PUSH4 0x23B872DD PUSH1 0xE0 SHL PUSH1 0x20 DUP1 DUP4 ADD SWAP2 DUP3 MSTORE CALLER DUP7 DUP5 ADD SWAP1 DUP2 MSTORE SWAP4 DUP14 AND PUSH1 0x1 PUSH1 0x1 PUSH1 0xA0 SHL SUB AND DUP5 DUP3 ADD MSTORE PUSH1 0x40 DUP5 ADD DUP11 SWAP1 MSTORE SWAP3 DUP12 SWAP3 SWAP1 PUSH2 0x7D3 SWAP1 DUP3 SWAP1 PUSH1 0x60 ADD SUB PUSH1 0x1F NOT DUP2 ADD DUP4 MSTORE DUP3 PUSH2 0xDBA JUMP JUMPDEST MLOAD SWAP1 DUP3 DUP6 GAS CALL ISZERO PUSH2 0x812 JUMPI DUP8 MLOAD DUP8 SWAP1 RETURNDATASIZE PUSH2 0x80B JUMPI POP POP DUP1 EXTCODESIZE ISZERO JUMPDEST PUSH2 0x7F7 JUMPI POP PUSH2 0x5D6 JUMP JUMPDEST SWAP2 POP SWAP3 MLOAD SWAP2 PUSH4 0x5274AFE7 PUSH1 0xE0 SHL DUP4 MSTORE DUP3 ADD MSTORE REVERT JUMPDEST EQ ISZERO PUSH2 0x7ED JUMP JUMPDEST DUP5 MLOAD RETURNDATASIZE DUP10 DUP3 RETURNDATACOPY RETURNDATASIZE SWAP1 REVERT JUMPDEST POP SWAP1 MLOAD PUSH4 0x17653201 PUSH1 0xE1 SHL DUP2 MSTORE REVERT JUMPDEST DUP4 MLOAD PUSH4 0x989E3017 PUSH1 0xE0 SHL DUP2 MSTORE DUP4 SWAP1 REVERT JUMPDEST POP PUSH1 0xC DUP7 PUSH1 0x20 PUSH1 0x64 SWAP5 MLOAD SWAP4 PUSH3 0x461BCD PUSH1 0xE5 SHL DUP6 MSTORE DUP5 ADD MSTORE DUP3 ADD MSTORE PUSH12 0x496E76616C696420726F7773 PUSH1 0xA0 SHL PUSH1 0x44 DUP3 ADD MSTORE REVERT JUMPDEST POP PUSH1 0x10 DUP2 GT ISZERO PUSH2 0x548 JUMP JUMPDEST POP PUSH1 0x6 DUP7 PUSH1 0x20 PUSH1 0x64 SWAP5 MLOAD SWAP4 PUSH3 0x461BCD PUSH1 0xE5 SHL DUP6 MSTORE DUP5 ADD MSTORE DUP3 ADD MSTORE PUSH6 0x14185D5CD959 PUSH1 0xD2 SHL PUSH1 0x44 DUP3 ADD MSTORE REVERT JUMPDEST POP SWAP1 MLOAD PUSH4 0x3EE5AEB5 PUSH1 0xE0 SHL DUP2 MSTORE REVERT JUMPDEST DUP5 DUP1 REVERT JUMPDEST SWAP1 POP CALLVALUE PUSH2 0x1B8 JUMPI PUSH1 0x20 CALLDATASIZE PUSH1 0x3 NOT ADD SLT PUSH2 0x1B8 JUMPI PUSH1 0x60 SWAP3 DUP3 SWAP2 CALLDATALOAD DUP2 MSTORE PUSH1 0xA PUSH1 0x20 MSTORE KECCAK256 PUSH1 0x1 DUP1 PUSH1 0xA0 SHL SUB DUP2 SLOAD AND SWAP2 PUSH1 0xFF PUSH1 0x2 PUSH1 0x1 DUP5 ADD SLOAD SWAP4 ADD SLOAD AND SWAP2 DUP2 MLOAD SWAP4 DUP5 MSTORE PUSH1 0x20 DUP5 ADD MSTORE DUP3 ADD MSTORE RETURN JUMPDEST DUP4 CALLVALUE PUSH2 0x3E8 JUMPI DUP1 PUSH1 0x3 NOT CALLDATASIZE ADD SLT PUSH2 0x3E8 JUMPI PUSH2 0x917 PUSH2 0xE9E JUMP JUMPDEST PUSH3 0xFF0000 NOT PUSH1 0x5 SLOAD AND PUSH1 0x5 SSTORE DUP1 RETURN JUMPDEST SWAP1 POP CALLVALUE PUSH2 0x1B8 JUMPI PUSH1 0x20 CALLDATASIZE PUSH1 0x3 NOT ADD SLT PUSH2 0x1B8 JUMPI DUP3 DUP3 SWAP2 PUSH1 0x60 SWAP5 DUP4 DUP1 MLOAD PUSH2 0x94B DUP2 PUSH2 0xD9E JUMP JUMPDEST DUP3 DUP2 MSTORE DUP3 PUSH1 0x20 DUP3 ADD MSTORE ADD MSTORE CALLDATALOAD DUP2 MSTORE PUSH1 0xA PUSH1 0x20 MSTORE KECCAK256 SWAP1 PUSH1 0xFF DUP2 MLOAD PUSH2 0x96D DUP2 PUSH2 0xD9E JUMP JUMPDEST PUSH1 0x1 DUP1 PUSH1 0xA0 SHL SUB DUP5 SLOAD AND SWAP4 DUP5 DUP3 MSTORE DUP4 DUP4 PUSH1 0x2 PUSH1 0x1 DUP5 ADD SLOAD SWAP4 PUSH1 0x20 DUP7 ADD SWAP5 DUP6 MSTORE ADD SLOAD AND SWAP3 ADD SWAP2 DUP3 MSTORE DUP4 MLOAD SWAP5 DUP6 MSTORE MLOAD PUSH1 0x20 DUP6 ADD MSTORE MLOAD AND SWAP1 DUP3 ADD MSTORE RETURN JUMPDEST POP POP CALLVALUE PUSH2 0x128 JUMPI DUP2 PUSH1 0x3 NOT CALLDATASIZE ADD SLT PUSH2 0x128 JUMPI PUSH1 0x20 SWAP1 PUSH1 0x8 SLOAD SWAP1 MLOAD SWAP1 DUP2 MSTORE RETURN JUMPDEST DUP4 DUP4 CALLVALUE PUSH2 0x128 JUMPI DUP1 PUSH1 0x3 NOT CALLDATASIZE ADD SLT PUSH2 0x128 JUMPI PUSH1 0x6 SLOAD PUSH1 0x24 SWAP4 DUP1 CALLDATALOAD SWAP3 PUSH1 0x1 PUSH1 0x1 PUSH1 0xA0 SHL SUB SWAP3 DUP7 CALLDATALOAD SWAP2 SWAP1 DUP5 AND CALLER SUB PUSH2 0xCBD JUMPI DUP5 DUP7 MSTORE PUSH1 0x20 SWAP5 PUSH1 0xB DUP7 MSTORE DUP2 DUP8 KECCAK256 SLOAD SWAP6 DUP7 DUP9 MSTORE PUSH1 0xA DUP2 MSTORE DUP3 DUP9 KECCAK256 SWAP2 DUP7 DUP4 SLOAD AND SWAP6 DUP7 ISZERO PUSH2 0xC8C JUMPI DUP10 SWAP8 DUP11 PUSH1 0xFF SWAP1 PUSH1 0xFF PUSH1 0x2 DUP9 ADD SLOAD AND SWAP2 JUMPDEST DUP14 DUP4 DUP3 DUP5 AND LT PUSH2 0xC19 JUMPI POP POP POP PUSH2 0xA42 SWAP1 DUP11 PUSH2 0xDFF JUMP JUMPDEST SWAP5 PUSH1 0x1 DUP2 ADD SLOAD SWAP9 DUP7 PUSH2 0xA6B PUSH2 0xFFFF PUSH1 0x5 SLOAD AND SWAP12 PUSH2 0xA63 PUSH2 0x2710 SWAP4 DUP5 SWAP3 PUSH2 0xE8B JUMP JUMPDEST DIV SWAP12 DUP13 PUSH2 0xE8B JUMP JUMPDEST DIV DUP1 DUP12 SUB SWAP10 DUP12 DUP12 GT PUSH2 0xC07 JUMPI PUSH2 0x3E8 SWAP1 MOD SWAP11 SUB PUSH2 0xB5C JUMPI JUMPDEST POP PUSH1 0x5 DUP10 DUP9 SWAP7 SWAP5 DUP11 DUP16 SWAP5 SWAP10 DUP16 SWAP15 PUSH32 0xA1A9C34B0ADE82EE96ED960C9D5D7EA6299E81B7021ED017C5F0E3F260726CED SWAP16 PUSH1 0x80 SWAP16 SWAP14 SWAP9 DUP3 SWAP16 SWAP14 SWAP10 DUP2 DUP6 SWAP14 SWAP12 SLOAD AND SWAP10 DUP2 MLOAD SWAP11 PUSH2 0xACE DUP13 PUSH2 0xD6C JUMP JUMPDEST DUP12 MSTORE DUP13 DUP12 ADD SWAP4 DUP1 DUP6 MSTORE DUP3 DUP13 ADD SWAP6 DUP7 MSTORE PUSH1 0x60 DUP13 ADD SWAP7 DUP8 MSTORE PUSH1 0x80 DUP13 ADD SWAP8 DUP9 MSTORE PUSH1 0xA0 DUP13 ADD SWAP10 DUP11 MSTORE DUP2 MSTORE PUSH1 0xC DUP14 MSTORE KECCAK256 SWAP9 MLOAD AND PUSH1 0x1 PUSH1 0x1 PUSH1 0x60 SHL SUB PUSH1 0xA0 SHL DUP10 SLOAD AND OR DUP9 SSTORE MLOAD PUSH1 0x1 DUP9 ADD SSTORE MLOAD PUSH1 0x2 DUP8 ADD SSTORE MLOAD PUSH1 0x3 DUP7 ADD SSTORE MLOAD SWAP1 DUP5 ADD SSTORE MLOAD SWAP2 ADD SSTORE PUSH1 0xA DUP3 MSTORE DUP11 PUSH1 0x2 DUP6 DUP3 KECCAK256 DUP3 DUP2 SSTORE DUP3 PUSH1 0x1 DUP3 ADD SSTORE ADD SSTORE DUP11 MSTORE PUSH1 0xB DUP2 MSTORE DUP10 DUP4 DUP2 KECCAK256 SSTORE DUP3 MLOAD SWAP6 DUP7 MSTORE DUP6 ADD MSTORE DUP4 ADD MSTORE PUSH1 0x60 DUP3 ADD MSTORE LOG2 DUP1 RETURN JUMPDEST DUP3 PUSH1 0x2 SLOAD AND SWAP1 DUP4 PUSH1 0x7 SLOAD AND DUP3 EXTCODESIZE ISZERO PUSH2 0xC03 JUMPI DUP10 MLOAD PUSH4 0xA00C6951 PUSH1 0xE0 SHL DUP2 MSTORE PUSH1 0x1 PUSH1 0x1 PUSH1 0xA0 SHL SUB SWAP2 DUP3 AND DUP8 DUP3 ADD SWAP1 DUP2 MSTORE SWAP3 SWAP1 SWAP2 AND PUSH1 0x20 DUP4 ADD MSTORE PUSH1 0x40 DUP3 ADD DUP12 SWAP1 MSTORE SWAP2 DUP15 SWAP2 DUP4 SWAP2 SWAP1 DUP3 SWAP1 DUP5 SWAP1 DUP3 SWAP1 PUSH1 0x60 ADD SUB SWAP3 GAS CALL DUP1 ISZERO PUSH2 0xBF9 JUMPI ISZERO PUSH2 0xA83 JUMPI PUSH8 0xFFFFFFFFFFFFFFFF DUP2 SWAP14 SWAP3 SWAP5 SWAP4 SWAP12 SWAP11 SWAP10 SWAP9 SWAP13 SWAP14 GT PUSH2 0xBE7 JUMPI DUP12 MSTORE SWAP11 SWAP12 POP DUP12 SWAP10 SWAP8 SWAP9 SWAP7 SWAP8 SWAP6 SWAP7 SWAP1 SWAP2 DUP9 PUSH2 0xA83 JUMP JUMPDEST POP PUSH1 0x41 DUP14 SWAP3 PUSH4 0x4E487B71 PUSH1 0xE0 SHL DUP4 MSTORE MSTORE REVERT JUMPDEST DUP9 MLOAD RETURNDATASIZE DUP16 DUP3 RETURNDATACOPY RETURNDATASIZE SWAP1 REVERT JUMPDEST DUP15 DUP1 REVERT JUMPDEST PUSH4 0x4E487B71 PUSH1 0xE0 SHL DUP16 MSTORE PUSH1 0x11 DUP7 MSTORE DUP16 DUP16 REVERT JUMPDEST SWAP1 SWAP2 SWAP12 DUP13 DUP11 MLOAD DUP10 DUP2 ADD SWAP2 DUP14 DUP4 MSTORE PUSH1 0xFF PUSH1 0xF8 SHL SWAP1 PUSH1 0xF8 SHL AND DUP13 DUP3 ADD MSTORE PUSH1 0x21 DUP2 MSTORE PUSH2 0xC41 DUP2 PUSH2 0xD9E JUMP JUMPDEST MLOAD SWAP1 KECCAK256 PUSH1 0x1 SWAP1 DUP2 AND PUSH2 0xC86 JUMPI POP PUSH1 0x0 NOT SWAP2 JUMPDEST DUP3 DUP3 ADD SWAP3 DUP4 SLT SWAP2 SLT SWAP1 DUP1 ISZERO DUP3 AND SWAP2 ISZERO AND OR PUSH2 0xC74 JUMPI SWAP11 PUSH1 0x1 ADD DUP2 AND SWAP1 PUSH2 0xA2B JUMP JUMPDEST PUSH4 0x4E487B71 PUSH1 0xE0 SHL DUP15 MSTORE PUSH1 0x11 DUP6 MSTORE DUP15 DUP15 REVERT JUMPDEST SWAP2 PUSH2 0xC53 JUMP JUMPDEST DUP5 MLOAD PUSH3 0x461BCD PUSH1 0xE5 SHL DUP2 MSTORE SWAP1 DUP2 ADD DUP4 SWAP1 MSTORE PUSH1 0xC DUP2 DUP13 ADD MSTORE PUSH12 0x496E76616C69642067616D65 PUSH1 0xA0 SHL PUSH1 0x44 DUP3 ADD MSTORE PUSH1 0x64 SWAP1 REVERT JUMPDEST MLOAD PUSH3 0x461BCD PUSH1 0xE5 SHL DUP2 MSTORE PUSH1 0x20 DUP2 DUP5 ADD MSTORE PUSH1 0x8 DUP2 DUP9 ADD MSTORE PUSH8 0x27B7363C902B2923 PUSH1 0xC1 SHL PUSH1 0x44 DUP3 ADD MSTORE PUSH1 0x64 SWAP1 REVERT JUMPDEST SWAP3 SWAP2 POP CALLVALUE PUSH2 0xD4D JUMPI PUSH1 0x20 CALLDATASIZE PUSH1 0x3 NOT ADD SLT PUSH2 0xD4D JUMPI DUP2 PUSH1 0xC0 SWAP5 DUP3 CALLDATALOAD DUP2 MSTORE PUSH1 0xC PUSH1 0x20 MSTORE KECCAK256 SWAP1 PUSH1 0x1 DUP1 PUSH1 0xA0 SHL SUB DUP3 SLOAD AND SWAP3 PUSH1 0x1 DUP4 ADD SLOAD SWAP1 PUSH1 0x2 DUP5 ADD SLOAD SWAP2 PUSH1 0x5 PUSH1 0x3 DUP7 ADD SLOAD SWAP5 DUP7 ADD SLOAD SWAP6 ADD SLOAD SWAP6 DUP8 MSTORE PUSH1 0x20 DUP8 ADD MSTORE DUP6 ADD MSTORE PUSH1 0x60 DUP5 ADD MSTORE PUSH1 0x80 DUP4 ADD MSTORE PUSH1 0xA0 DUP3 ADD MSTORE RETURN JUMPDEST DUP4 DUP1 REVERT JUMPDEST PUSH1 0x4 CALLDATALOAD SWAP1 PUSH1 0x1 PUSH1 0x1 PUSH1 0xA0 SHL SUB DUP3 AND DUP3 SUB PUSH2 0xD67 JUMPI JUMP JUMPDEST PUSH1 0x0 DUP1 REVERT JUMPDEST PUSH1 0xC0 DUP2 ADD SWAP1 DUP2 LT PUSH8 0xFFFFFFFFFFFFFFFF DUP3 GT OR PUSH2 0xD88 JUMPI PUSH1 0x40 MSTORE JUMP JUMPDEST PUSH4 0x4E487B71 PUSH1 0xE0 SHL PUSH1 0x0 MSTORE PUSH1 0x41 PUSH1 0x4 MSTORE PUSH1 0x24 PUSH1 0x0 REVERT JUMPDEST PUSH1 0x60 DUP2 ADD SWAP1 DUP2 LT PUSH8 0xFFFFFFFFFFFFFFFF DUP3 GT OR PUSH2 0xD88 JUMPI PUSH1 0x40 MSTORE JUMP JUMPDEST SWAP1 PUSH1 0x1F DUP1 NOT SWAP2 ADD AND DUP2 ADD SWAP1 DUP2 LT PUSH8 0xFFFFFFFFFFFFFFFF DUP3 GT OR PUSH2 0xD88 JUMPI PUSH1 0x40 MSTORE JUMP JUMPDEST SWAP2 SWAP1 DUP3 ADD DUP1 SWAP3 GT PUSH2 0xDE9 JUMPI JUMP JUMPDEST PUSH4 0x4E487B71 PUSH1 0xE0 SHL PUSH1 0x0 MSTORE PUSH1 0x11 PUSH1 0x4 MSTORE PUSH1 0x24 PUSH1 0x0 REVERT JUMPDEST PUSH1 0x0 DUP2 SLT ISZERO PUSH2 0xE86 JUMPI PUSH1 0x1 PUSH1 0xFF SHL DUP2 EQ PUSH2 0xDE9 JUMPI PUSH1 0x0 SUB JUMPDEST DUP1 PUSH2 0xE25 JUMPI POP POP PUSH3 0x989680 SWAP1 JUMP JUMPDEST PUSH3 0x7A120 DUP1 DUP3 MUL SWAP2 DUP3 SDIV SUB PUSH2 0xDE9 JUMPI DUP2 ISZERO PUSH2 0xE70 JUMPI PUSH1 0x1 PUSH1 0xFF SHL DUP2 EQ PUSH1 0x0 NOT DUP4 EQ AND PUSH2 0xDE9 JUMPI SDIV PUSH3 0x989680 SWAP1 DUP1 DUP3 GT PUSH1 0x0 EQ PUSH2 0xE67 JUMPI DUP2 SUB SWAP1 DUP2 GT PUSH2 0xDE9 JUMPI SWAP1 JUMP JUMPDEST POP POP PUSH3 0x186A0 SWAP1 JUMP JUMPDEST PUSH4 0x4E487B71 PUSH1 0xE0 SHL PUSH1 0x0 MSTORE PUSH1 0x12 PUSH1 0x4 MSTORE PUSH1 0x24 PUSH1 0x0 REVERT JUMPDEST PUSH2 0xE17 JUMP JUMPDEST DUP2 DUP2 MUL SWAP3 SWAP2 DUP2 ISZERO SWAP2 DUP5 DIV EQ OR ISZERO PUSH2 0xDE9 JUMPI JUMP JUMPDEST PUSH1 0x0 SLOAD PUSH1 0x1 PUSH1 0x1 PUSH1 0xA0 SHL SUB AND CALLER SUB PUSH2 0xEB2 JUMPI JUMP JUMPDEST PUSH1 0x40 MLOAD PUSH4 0x118CDAA7 PUSH1 0xE0 SHL DUP2 MSTORE CALLER PUSH1 0x4 DUP3 ADD MSTORE PUSH1 0x24 SWAP1 REVERT INVALID LOG2 PUSH5 0x6970667358 0x22 SLT KECCAK256 0xAB CALLVALUE PUSH6 0xADDD03CA6F64 SAR DUP15 0xBB CREATE2 SWAP10 SAR PUSH8 0x8B01BD43960785AC 0xE9 0xEF PUSH12 0x71DDE5D09F64736F6C634300 ADDMOD XOR STOP CALLER "},"methodIdentifiers":{"config()":"79502c55","fulfillRandomness(bytes32,uint256)":"1f1f897f","gameCounter()":"2e0be39a","games(uint256)":"117a5b90","getGame(uint256)":"a2f77bcc","getPendingGame(uint256)":"3d598f80","getPrizePool()":"884bf67c","initialize(address,uint256,uint256,uint16)":"cbb6d6bd","owner()":"8da5cb5b","pause()":"8456cb59","pendingGames(uint256)":"579e94ee","play(uint256,uint8)":"5cd7692e","prizePool()":"719ce73e","pythVRF()":"772d84c4","renounceOwnership()":"715018a6","setPythVRF(address)":"83ba98ae","token()":"fc0c546a","transferOwnership(address)":"f2fde38b","unpause()":"3f4ba83a","vrfRequestToGame(bytes32)":"8a7626d1"}}}}}