{"contracts/MockPythVRF.sol":{"MockPythVRF":{"abi":[{"anonymous":false,"inputs":[{"indexed":true,"internalType":"bytes32","name":"requestId","type":"bytes32"},{"indexed":false,"internalType":"uint256","name":"randomNumber","type":"uint256"}],"name":"RandomnessFulfilled","type":"event"},{"anonymous":false,"inputs":[{"indexed":true,"internalType":"bytes32","name":"requestId","type":"bytes32"},{"indexed":false,"internalType":"bytes32","name":"seed","type":"bytes32"}],"name":"RandomnessRequested","type":"event"},{"inputs":[{"internalType":"bytes32","name":"","type":"bytes32"},{"internalType":"uint256","name":"","type":"uint256"}],"name":"fulfillRandomness","outputs":[],"stateMutability":"pure","type":"function"},{"inputs":[{"internalType":"bytes32","name":"requestId","type":"bytes32"}],"name":"getRandomness","outputs":[{"internalType":"uint256","name":"randomNumber","type":"uint256"},{"internalType":"uint256","name":"blockNumber","type":"uint256"},{"internalType":"bool","name":"fulfilled","type":"bool"}],"stateMutability":"view","type":"function"},{"inputs":[{"internalType":"bytes32","name":"","type":"bytes32"}],"name":"randomnessData","outputs":[{"internalType":"uint256","name":"randomNumber","type":"uint256"},{"internalType":"uint256","name":"blockNumber","type":"uint256"},{"internalType":"bool","name":"fulfilled","type":"bool"}],"stateMutability":"view","type":"function"},{"inputs":[],"name":"requestRandomness","outputs":[{"internalType":"bytes32","name":"requestId","type":"bytes32"}],"stateMutability":"nonpayable","type":"function"},{"inputs":[{"internalType":"bytes32","name":"requestId","type":"bytes32"},{"internalType":"uint256","name":"randomNumber","type":"uint256"},{"internalType":"bytes","name":"","type":"bytes"}],"name":"verifyRandomness","outputs":[{"internalType":"bool","name":"isValid","type":"bool"}],"stateMutability":"view","type":"function"}],"evm":{"bytecode":{"linkReferences":{},"object":"60808060405234610016576104f7908161001c8239f35b600080fdfe608060408181526004908136101561001657600080fd5b600092833560e01c90816303df8090146103885750806305b194021461031d57806309097053146102d55780631f1f897f146102575763f8413b071461005b57600080fd5b346102535782600319360112610253576001549260001992838514610240576001850180600155835195602096878101913360601b83524260348301524460548301526074820152607481526100b08161045a565b5190209443019043821161022d578451908782019240835242868301524460608301526080820152608081526100e58161045a565b5190209083516100f481610428565b8281526002878201914383528681019260018452888752868a5287872091518255516001820155019051151560ff80198354169116179055847f7469b69c8b7c70c5b64110c261edc79c83286e939f1661476a9046f161724ee1878651868152a2847f9b0aa3f92f46e24caa76b000bdf0dd495b9b390c320cf6585ae10a12b7d09edb878651858152a283519086820192631f1f897f60e01b8452866024840152604483015260448252608082019082821067ffffffffffffffff83111761021a5750839182918652516207a12093823386f16101cf610476565b50156101de575b505051908152f35b8190835182878201916312db777d60e31b83528760248201526024815261020481610428565b51923390f150610212610476565b5038806101d6565b634e487b7160e01b855260419052602484fd5b634e487b7160e01b845260118352602484fd5b634e487b7160e01b825260119052602490fd5b8280fd5b5091346102d257826003193601126102d257506020608492519162461bcd60e51b8352820152603960248201527f546869732073686f756c642062652063616c6c6564206f6e2067616d6520636f60448201527f6e7472616374732c206e6f74205652462070726f7669646572000000000000006064820152fd5b80fd5b509034610253576020366003190112610253573582526020828152918190208054600182015460029092015492519081529283015260ff1615156040820152606090f35b0390f35b5090346102535760203660031901126102535791819235815280602052209061031981519161034b83610428565b83548084526001850154602080860182905260029096015460ff161515948301859052915190815293840152604083019190915281906060820190565b91929050346104205760603660031901126104205760443567ffffffffffffffff8082116104245736602383011215610424578183013590811161042457369101602401116104205735835260208381529282902082916103e881610428565b60ff60028354938484526001810154888501520154161515938491015282610414575b50519015158152f35b6024351491503861040b565b8380fd5b8580fd5b6060810190811067ffffffffffffffff82111761044457604052565b634e487b7160e01b600052604160045260246000fd5b60a0810190811067ffffffffffffffff82111761044457604052565b3d156104bc5767ffffffffffffffff903d8281116104445760405192601f8201601f19908116603f01168401908111848210176104445760405282523d6000602084013e565b60609056fea26469706673582212206ddece1e60cdb8b7177dcda85cf07e626e52859beccc5c33ae4a52ee6c848b4264736f6c63430008180033","opcodes":"PUSH1 0x80 DUP1 PUSH1 0x40 MSTORE CALLVALUE PUSH2 0x16 JUMPI PUSH2 0x4F7 SWAP1 DUP2 PUSH2 0x1C DUP3 CODECOPY RETURN JUMPDEST PUSH1 0x0 DUP1 REVERT INVALID PUSH1 0x80 PUSH1 0x40 DUP2 DUP2 MSTORE PUSH1 0x4 SWAP1 DUP2 CALLDATASIZE LT ISZERO PUSH2 0x16 JUMPI PUSH1 0x0 DUP1 REVERT JUMPDEST PUSH1 0x0 SWAP3 DUP4 CALLDATALOAD PUSH1 0xE0 SHR SWAP1 DUP2 PUSH4 0x3DF8090 EQ PUSH2 0x388 JUMPI POP DUP1 PUSH4 0x5B19402 EQ PUSH2 0x31D JUMPI DUP1 PUSH4 0x9097053 EQ PUSH2 0x2D5 JUMPI DUP1 PUSH4 0x1F1F897F EQ PUSH2 0x257 JUMPI PUSH4 0xF8413B07 EQ PUSH2 0x5B JUMPI PUSH1 0x0 DUP1 REVERT JUMPDEST CALLVALUE PUSH2 0x253 JUMPI DUP3 PUSH1 0x3 NOT CALLDATASIZE ADD SLT PUSH2 0x253 JUMPI PUSH1 0x1 SLOAD SWAP3 PUSH1 0x0 NOT SWAP3 DUP4 DUP6 EQ PUSH2 0x240 JUMPI PUSH1 0x1 DUP6 ADD DUP1 PUSH1 0x1 SSTORE DUP4 MLOAD SWAP6 PUSH1 0x20 SWAP7 DUP8 DUP2 ADD SWAP2 CALLER PUSH1 0x60 SHL DUP4 MSTORE TIMESTAMP PUSH1 0x34 DUP4 ADD MSTORE PREVRANDAO PUSH1 0x54 DUP4 ADD MSTORE PUSH1 0x74 DUP3 ADD MSTORE PUSH1 0x74 DUP2 MSTORE PUSH2 0xB0 DUP2 PUSH2 0x45A JUMP JUMPDEST MLOAD SWAP1 KECCAK256 SWAP5 NUMBER ADD SWAP1 NUMBER DUP3 GT PUSH2 0x22D JUMPI DUP5 MLOAD SWAP1 DUP8 DUP3 ADD SWAP3 BLOCKHASH DUP4 MSTORE TIMESTAMP DUP7 DUP4 ADD MSTORE PREVRANDAO PUSH1 0x60 DUP4 ADD MSTORE PUSH1 0x80 DUP3 ADD MSTORE PUSH1 0x80 DUP2 MSTORE PUSH2 0xE5 DUP2 PUSH2 0x45A JUMP JUMPDEST MLOAD SWAP1 KECCAK256 SWAP1 DUP4 MLOAD PUSH2 0xF4 DUP2 PUSH2 0x428 JUMP JUMPDEST DUP3 DUP2 MSTORE PUSH1 0x2 DUP8 DUP3 ADD SWAP2 NUMBER DUP4 MSTORE DUP7 DUP2 ADD SWAP3 PUSH1 0x1 DUP5 MSTORE DUP9 DUP8 MSTORE DUP7 DUP11 MSTORE DUP8 DUP8 KECCAK256 SWAP2 MLOAD DUP3 SSTORE MLOAD PUSH1 0x1 DUP3 ADD SSTORE ADD SWAP1 MLOAD ISZERO ISZERO PUSH1 0xFF DUP1 NOT DUP4 SLOAD AND SWAP2 AND OR SWAP1 SSTORE DUP5 PUSH32 0x7469B69C8B7C70C5B64110C261EDC79C83286E939F1661476A9046F161724EE1 DUP8 DUP7 MLOAD DUP7 DUP2 MSTORE LOG2 DUP5 PUSH32 0x9B0AA3F92F46E24CAA76B000BDF0DD495B9B390C320CF6585AE10A12B7D09EDB DUP8 DUP7 MLOAD DUP6 DUP2 MSTORE LOG2 DUP4 MLOAD SWAP1 DUP7 DUP3 ADD SWAP3 PUSH4 0x1F1F897F PUSH1 0xE0 SHL DUP5 MSTORE DUP7 PUSH1 0x24 DUP5 ADD MSTORE PUSH1 0x44 DUP4 ADD MSTORE PUSH1 0x44 DUP3 MSTORE PUSH1 0x80 DUP3 ADD SWAP1 DUP3 DUP3 LT PUSH8 0xFFFFFFFFFFFFFFFF DUP4 GT OR PUSH2 0x21A JUMPI POP DUP4 SWAP2 DUP3 SWAP2 DUP7 MSTORE MLOAD PUSH3 0x7A120 SWAP4 DUP3 CALLER DUP7 CALL PUSH2 0x1CF PUSH2 0x476 JUMP JUMPDEST POP ISZERO PUSH2 0x1DE JUMPI JUMPDEST POP POP MLOAD SWAP1 DUP2 MSTORE RETURN JUMPDEST DUP2 SWAP1 DUP4 MLOAD DUP3 DUP8 DUP3 ADD SWAP2 PUSH4 0x12DB777D PUSH1 0xE3 SHL DUP4 MSTORE DUP8 PUSH1 0x24 DUP3 ADD MSTORE PUSH1 0x24 DUP2 MSTORE PUSH2 0x204 DUP2 PUSH2 0x428 JUMP JUMPDEST MLOAD SWAP3 CALLER SWAP1 CALL POP PUSH2 0x212 PUSH2 0x476 JUMP JUMPDEST POP CODESIZE DUP1 PUSH2 0x1D6 JUMP JUMPDEST PUSH4 0x4E487B71 PUSH1 0xE0 SHL DUP6 MSTORE PUSH1 0x41 SWAP1 MSTORE PUSH1 0x24 DUP5 REVERT JUMPDEST PUSH4 0x4E487B71 PUSH1 0xE0 SHL DUP5 MSTORE PUSH1 0x11 DUP4 MSTORE PUSH1 0x24 DUP5 REVERT JUMPDEST PUSH4 0x4E487B71 PUSH1 0xE0 SHL DUP3 MSTORE PUSH1 0x11 SWAP1 MSTORE PUSH1 0x24 SWAP1 REVERT JUMPDEST DUP3 DUP1 REVERT JUMPDEST POP SWAP2 CALLVALUE PUSH2 0x2D2 JUMPI DUP3 PUSH1 0x3 NOT CALLDATASIZE ADD SLT PUSH2 0x2D2 JUMPI POP PUSH1 0x20 PUSH1 0x84 SWAP3 MLOAD SWAP2 PUSH3 0x461BCD PUSH1 0xE5 SHL DUP4 MSTORE DUP3 ADD MSTORE PUSH1 0x39 PUSH1 0x24 DUP3 ADD MSTORE PUSH32 0x546869732073686F756C642062652063616C6C6564206F6E2067616D6520636F PUSH1 0x44 DUP3 ADD MSTORE PUSH32 0x6E7472616374732C206E6F74205652462070726F766964657200000000000000 PUSH1 0x64 DUP3 ADD MSTORE REVERT JUMPDEST DUP1 REVERT JUMPDEST POP SWAP1 CALLVALUE PUSH2 0x253 JUMPI PUSH1 0x20 CALLDATASIZE PUSH1 0x3 NOT ADD SLT PUSH2 0x253 JUMPI CALLDATALOAD DUP3 MSTORE PUSH1 0x20 DUP3 DUP2 MSTORE SWAP2 DUP2 SWAP1 KECCAK256 DUP1 SLOAD PUSH1 0x1 DUP3 ADD SLOAD PUSH1 0x2 SWAP1 SWAP3 ADD SLOAD SWAP3 MLOAD SWAP1 DUP2 MSTORE SWAP3 DUP4 ADD MSTORE PUSH1 0xFF AND ISZERO ISZERO PUSH1 0x40 DUP3 ADD MSTORE PUSH1 0x60 SWAP1 RETURN JUMPDEST SUB SWAP1 RETURN JUMPDEST POP SWAP1 CALLVALUE PUSH2 0x253 JUMPI PUSH1 0x20 CALLDATASIZE PUSH1 0x3 NOT ADD SLT PUSH2 0x253 JUMPI SWAP2 DUP2 SWAP3 CALLDATALOAD DUP2 MSTORE DUP1 PUSH1 0x20 MSTORE KECCAK256 SWAP1 PUSH2 0x319 DUP2 MLOAD SWAP2 PUSH2 0x34B DUP4 PUSH2 0x428 JUMP JUMPDEST DUP4 SLOAD DUP1 DUP5 MSTORE PUSH1 0x1 DUP6 ADD SLOAD PUSH1 0x20 DUP1 DUP7 ADD DUP3 SWAP1 MSTORE PUSH1 0x2 SWAP1 SWAP7 ADD SLOAD PUSH1 0xFF AND ISZERO ISZERO SWAP5 DUP4 ADD DUP6 SWAP1 MSTORE SWAP2 MLOAD SWAP1 DUP2 MSTORE SWAP4 DUP5 ADD MSTORE PUSH1 0x40 DUP4 ADD SWAP2 SWAP1 SWAP2 MSTORE DUP2 SWAP1 PUSH1 0x60 DUP3 ADD SWAP1 JUMP JUMPDEST SWAP2 SWAP3 SWAP1 POP CALLVALUE PUSH2 0x420 JUMPI PUSH1 0x60 CALLDATASIZE PUSH1 0x3 NOT ADD SLT PUSH2 0x420 JUMPI PUSH1 0x44 CALLDATALOAD PUSH8 0xFFFFFFFFFFFFFFFF DUP1 DUP3 GT PUSH2 0x424 JUMPI CALLDATASIZE PUSH1 0x23 DUP4 ADD SLT ISZERO PUSH2 0x424 JUMPI DUP2 DUP4 ADD CALLDATALOAD SWAP1 DUP2 GT PUSH2 0x424 JUMPI CALLDATASIZE SWAP2 ADD PUSH1 0x24 ADD GT PUSH2 0x420 JUMPI CALLDATALOAD DUP4 MSTORE PUSH1 0x20 DUP4 DUP2 MSTORE SWAP3 DUP3 SWAP1 KECCAK256 DUP3 SWAP2 PUSH2 0x3E8 DUP2 PUSH2 0x428 JUMP JUMPDEST PUSH1 0xFF PUSH1 0x2 DUP4 SLOAD SWAP4 DUP5 DUP5 MSTORE PUSH1 0x1 DUP2 ADD SLOAD DUP9 DUP6 ADD MSTORE ADD SLOAD AND ISZERO ISZERO SWAP4 DUP5 SWAP2 ADD MSTORE DUP3 PUSH2 0x414 JUMPI JUMPDEST POP MLOAD SWAP1 ISZERO ISZERO DUP2 MSTORE RETURN JUMPDEST PUSH1 0x24 CALLDATALOAD EQ SWAP2 POP CODESIZE PUSH2 0x40B JUMP JUMPDEST DUP4 DUP1 REVERT JUMPDEST DUP6 DUP1 REVERT JUMPDEST PUSH1 0x60 DUP2 ADD SWAP1 DUP2 LT PUSH8 0xFFFFFFFFFFFFFFFF DUP3 GT OR PUSH2 0x444 JUMPI PUSH1 0x40 MSTORE JUMP JUMPDEST PUSH4 0x4E487B71 PUSH1 0xE0 SHL PUSH1 0x0 MSTORE PUSH1 0x41 PUSH1 0x4 MSTORE PUSH1 0x24 PUSH1 0x0 REVERT JUMPDEST PUSH1 0xA0 DUP2 ADD SWAP1 DUP2 LT PUSH8 0xFFFFFFFFFFFFFFFF DUP3 GT OR PUSH2 0x444 JUMPI PUSH1 0x40 MSTORE JUMP JUMPDEST RETURNDATASIZE ISZERO PUSH2 0x4BC JUMPI PUSH8 0xFFFFFFFFFFFFFFFF SWAP1 RETURNDATASIZE DUP3 DUP2 GT PUSH2 0x444 JUMPI PUSH1 0x40 MLOAD SWAP3 PUSH1 0x1F DUP3 ADD PUSH1 0x1F NOT SWAP1 DUP2 AND PUSH1 0x3F ADD AND DUP5 ADD SWAP1 DUP2 GT DUP5 DUP3 LT OR PUSH2 0x444 JUMPI PUSH1 0x40 MSTORE DUP3 MSTORE RETURNDATASIZE PUSH1 0x0 PUSH1 0x20 DUP5 ADD RETURNDATACOPY JUMP JUMPDEST PUSH1 0x60 SWAP1 JUMP INVALID LOG2 PUSH5 0x6970667358 0x22 SLT KECCAK256 PUSH14 0xDECE1E60CDB8B7177DCDA85CF07E PUSH3 0x6E5285 SWAP12 0xEC 0xCC TLOAD CALLER 0xAE BLOBBASEFEE MSTORE 0xEE PUSH13 0x848B4264736F6C634300081800 CALLER "},"methodIdentifiers":{"fulfillRandomness(bytes32,uint256)":"1f1f897f","getRandomness(bytes32)":"05b19402","randomnessData(bytes32)":"09097053","requestRandomness()":"f8413b07","verifyRandomness(bytes32,uint256,bytes)":"03df8090"}}}}}