{"contracts/casino/Slots.sol":{"Slots":{"abi":[{"inputs":[{"internalType":"address","name":"_owner","type":"address"},{"internalType":"address","name":"_token","type":"address"},{"internalType":"address","name":"_pythVRF","type":"address"}],"stateMutability":"nonpayable","type":"constructor"},{"inputs":[],"name":"BetTooHigh","type":"error"},{"inputs":[],"name":"BetTooLow","type":"error"},{"inputs":[{"internalType":"address","name":"owner","type":"address"}],"name":"OwnableInvalidOwner","type":"error"},{"inputs":[{"internalType":"address","name":"account","type":"address"}],"name":"OwnableUnauthorizedAccount","type":"error"},{"inputs":[],"name":"ReentrancyGuardReentrantCall","type":"error"},{"inputs":[{"internalType":"address","name":"token","type":"address"}],"name":"SafeERC20FailedOperation","type":"error"},{"anonymous":false,"inputs":[{"indexed":true,"internalType":"uint256","name":"gameId","type":"uint256"},{"indexed":false,"internalType":"uint8","name":"reel1","type":"uint8"},{"indexed":false,"internalType":"uint8","name":"reel2","type":"uint8"},{"indexed":false,"internalType":"uint8","name":"reel3","type":"uint8"},{"indexed":false,"internalType":"uint256","name":"multiplier","type":"uint256"},{"indexed":false,"internalType":"uint256","name":"reward","type":"uint256"},{"indexed":false,"internalType":"uint8","name":"streak","type":"uint8"},{"indexed":false,"internalType":"uint256","name":"lootRarity","type":"uint256"}],"name":"GameSettled","type":"event"},{"anonymous":false,"inputs":[{"indexed":true,"internalType":"uint256","name":"gameId","type":"uint256"},{"indexed":true,"internalType":"address","name":"player","type":"address"}],"name":"GameStarted","type":"event"},{"anonymous":false,"inputs":[{"indexed":true,"internalType":"address","name":"previousOwner","type":"address"},{"indexed":true,"internalType":"address","name":"newOwner","type":"address"}],"name":"OwnershipTransferred","type":"event"},{"inputs":[],"name":"MAX_MULTIPLIER_BPS","outputs":[{"internalType":"uint256","name":"","type":"uint256"}],"stateMutability":"view","type":"function"},{"inputs":[],"name":"config","outputs":[{"internalType":"address","name":"treasury","type":"address"},{"internalType":"uint256","name":"minPlay","type":"uint256"},{"internalType":"uint256","name":"maxPlay","type":"uint256"},{"internalType":"uint16","name":"houseEdgeBps","type":"uint16"},{"internalType":"bool","name":"paused","type":"bool"}],"stateMutability":"view","type":"function"},{"inputs":[{"internalType":"bytes32","name":"requestId","type":"bytes32"},{"internalType":"uint256","name":"randomness","type":"uint256"}],"name":"fulfillRandomness","outputs":[],"stateMutability":"nonpayable","type":"function"},{"inputs":[],"name":"gameCounter","outputs":[{"internalType":"uint256","name":"","type":"uint256"}],"stateMutability":"view","type":"function"},{"inputs":[{"internalType":"uint256","name":"","type":"uint256"}],"name":"games","outputs":[{"internalType":"address","name":"player","type":"address"},{"internalType":"uint256","name":"gameId","type":"uint256"},{"internalType":"uint8","name":"reel1","type":"uint8"},{"internalType":"uint8","name":"reel2","type":"uint8"},{"internalType":"uint8","name":"reel3","type":"uint8"},{"internalType":"uint256","name":"multiplier","type":"uint256"},{"internalType":"uint256","name":"reward","type":"uint256"},{"internalType":"uint8","name":"streak","type":"uint8"},{"internalType":"uint256","name":"lootRarity","type":"uint256"}],"stateMutability":"view","type":"function"},{"inputs":[{"internalType":"uint256","name":"gameId","type":"uint256"}],"name":"getGame","outputs":[{"components":[{"internalType":"address","name":"player","type":"address"},{"internalType":"uint256","name":"gameId","type":"uint256"},{"internalType":"uint8","name":"reel1","type":"uint8"},{"internalType":"uint8","name":"reel2","type":"uint8"},{"internalType":"uint8","name":"reel3","type":"uint8"},{"internalType":"uint256","name":"multiplier","type":"uint256"},{"internalType":"uint256","name":"reward","type":"uint256"},{"internalType":"uint8","name":"streak","type":"uint8"},{"internalType":"uint256","name":"lootRarity","type":"uint256"}],"internalType":"struct Slots.GameResult","name":"","type":"tuple"}],"stateMutability":"view","type":"function"},{"inputs":[{"internalType":"uint256","name":"gameId","type":"uint256"}],"name":"getPendingGame","outputs":[{"components":[{"internalType":"address","name":"player","type":"address"},{"internalType":"uint256","name":"amount","type":"uint256"}],"internalType":"struct Slots.PendingGame","name":"","type":"tuple"}],"stateMutability":"view","type":"function"},{"inputs":[],"name":"getPrizePool","outputs":[{"internalType":"uint256","name":"","type":"uint256"}],"stateMutability":"view","type":"function"},{"inputs":[{"internalType":"address","name":"treasury","type":"address"},{"internalType":"uint256","name":"minPlay","type":"uint256"},{"internalType":"uint256","name":"maxPlay","type":"uint256"},{"internalType":"uint16","name":"houseEdgeBps","type":"uint16"}],"name":"initialize","outputs":[],"stateMutability":"nonpayable","type":"function"},{"inputs":[],"name":"owner","outputs":[{"internalType":"address","name":"","type":"address"}],"stateMutability":"view","type":"function"},{"inputs":[],"name":"pause","outputs":[],"stateMutability":"nonpayable","type":"function"},{"inputs":[{"internalType":"uint256","name":"","type":"uint256"}],"name":"pendingGames","outputs":[{"internalType":"address","name":"player","type":"address"},{"internalType":"uint256","name":"amount","type":"uint256"}],"stateMutability":"view","type":"function"},{"inputs":[{"internalType":"address","name":"","type":"address"}],"name":"playerStreaks","outputs":[{"internalType":"uint8","name":"","type":"uint8"}],"stateMutability":"view","type":"function"},{"inputs":[],"name":"prizePool","outputs":[{"internalType":"uint256","name":"","type":"uint256"}],"stateMutability":"view","type":"function"},{"inputs":[],"name":"pythVRF","outputs":[{"internalType":"contract IPythVRF","name":"","type":"address"}],"stateMutability":"view","type":"function"},{"inputs":[],"name":"renounceOwnership","outputs":[],"stateMutability":"nonpayable","type":"function"},{"inputs":[{"internalType":"address","name":"_pythVRF","type":"address"}],"name":"setPythVRF","outputs":[],"stateMutability":"nonpayable","type":"function"},{"inputs":[{"internalType":"uint256","name":"amount","type":"uint256"}],"name":"spin","outputs":[],"stateMutability":"payable","type":"function"},{"inputs":[],"name":"token","outputs":[{"internalType":"address","name":"","type":"address"}],"stateMutability":"view","type":"function"},{"inputs":[{"internalType":"address","name":"newOwner","type":"address"}],"name":"transferOwnership","outputs":[],"stateMutability":"nonpayable","type":"function"},{"inputs":[],"name":"unpause","outputs":[],"stateMutability":"nonpayable","type":"function"},{"inputs":[{"internalType":"bytes32","name":"","type":"bytes32"}],"name":"vrfRequestToGame","outputs":[{"internalType":"uint256","name":"","type":"uint256"}],"stateMutability":"view","type":"function"}],"evm":{"bytecode":{"linkReferences":{},"object":"6080346100f057601f6112ba38819003918201601f19168301916001600160401b038311848410176100f5578084926060946040528339810103126100f0576100478161010b565b61005f60406100586020850161010b565b930161010b565b6001600160a01b03918216919082156100d757816000549460018060a01b03199480868816176000558260405197167f8be0079c531659141344cd1fd0a4f28419497f9722a3daafe3b4186f6b6457e0600080a360018055168360075416176007551690600654161760065561119a90816101208239f35b604051631e4fbdf760e01b815260006004820152602490fd5b600080fd5b634e487b7160e01b600052604160045260246000fd5b51906001600160a01b03821682036100f05756fe608080604052600436101561001357600080fd5b600090813560e01c908163117a5b9014610f3f575080631f1f897f146109f85780632e0be39a146109da5780633d598f80146109735780633f4ba83a1461094b578063579e94ee14610910578063715018a6146108b6578063719ce73e146107b2578063772d84c41461088d57806379502c551461083d57806383ba98ae146107fd5780638456cb59146107d0578063884bf67c146107b25780638a7626d1146107885780638da5cb5b14610761578063a2f77bcc1461062c578063a5b6ea8f146102f1578063cbb6d6bd14610224578063ecf2343214610206578063f2fde38b1461017b578063fc0c546a146101525763fee1c5ee1461011357600080fd5b3461014f57602036600319011261014f5760209060ff906040906001600160a01b0361013d610fcd565b168152600a8452205416604051908152f35b80fd5b503461014f578060031936011261014f576007546040516001600160a01b039091168152602090f35b503461014f57602036600319011261014f57610195610fcd565b61019d611138565b6001600160a01b039081169081156101ed57600054826001600160601b0360a01b821617600055167f8be0079c531659141344cd1fd0a4f28419497f9722a3daafe3b4186f6b6457e0600080a380f35b604051631e4fbdf760e01b815260048101849052602490fd5b503461014f578060031936011261014f5760206040516207a1208152f35b503461014f57608036600319011261014f5761023e610fcd565b602435604435906064359261ffff84168094036102ed5761025d611138565b6040519060a0820182811067ffffffffffffffff8211176102d757869160809160405260018060a01b03169283815284602082015285604082015286606082015201526001600160601b0360a01b60025416176002556003556004556005549062ff000083151560101b169162ffffff1916171760055580f35b634e487b7160e01b600052604160045260246000fd5b8480fd5b50602080600319360112610628576004356001916002835414610616576002835560ff60055460101c166105e9576003546004549083106105d75782116105c5576007546001600160a01b039081168061052c57508234036104f55761035c600a8404600954611088565b600955848080808685600254165af13d156104f0573d67ffffffffffffffff81116104dc5760405190610398601f8201601f191686018361103d565b815286843d92013e5b156104a5575b60085460001981146104915791809185879401948560085586604051916103cd83611005565b338352848301908152878752600b855283604088209351166001600160601b0360a01b845416178355519101556006541660046040518095819363f8413b0760e01b83525af18015610486578590610458575b600c925085525280604084205533907ffadb9547847a0c2c31f4c02590545e318d33d7aae99071caecf3fa4ce3cd7dca8480a3805580f35b508082813d831161047f575b61046e818361103d565b810103126102ed57600c9151610420565b503d610464565b6040513d87823e3d90fd5b634e487b7160e01b86526011600452602486fd5b60405162461bcd60e51b815260048101839052600f60248201526e151c985b9cd9995c8819985a5b1959608a1b6044820152606490fd5b634e487b7160e01b87526041600452602487fd5b6103a1565b60405162461bcd60e51b815260048101839052600f60248201526e082dadeeadce840dad2e6dac2e8c6d608b1b6044820152606490fd5b61053b600a8504600954611088565b6009556002546040516323b872dd60e01b8582019081523360248301529184166001600160a01b03166044820152606480820187905281528491889161058260848261103d565b519082855af11561048657855185903d6105be575050803b155b6105a657506103a7565b60249060405190635274afe760e01b82526004820152fd5b141561059c565b604051631765320160e11b8152600490fd5b60405163989e301760e01b8152600490fd5b6064906040519062461bcd60e51b82526004820152600660248201526514185d5cd95960d21b6044820152fd5b604051633ee5aeb560e01b8152600490fd5b5080fd5b503461014f57602036600319011261014f5760408161012092610100835161065381610fe8565b82815282602082015282858201528260608201528260808201528260a08201528260c08201528260e082015201526004358152600d6020522061010060405161069b81610fe8565b600660018060a01b03845416938483526001810154602084015260ff60028201548181166040860152818160081c16606086015260101c166080840152600381015460a0840152600481015460c084015260ff60058201541660e08401520154828201526040519283526020810151602084015260ff604082015116604084015260ff606082015116606084015260ff608082015116608084015260a081015160a084015260c081015160c084015260ff60e08201511660e08401520151610100820152f35b503461014f578060031936011261014f57546040516001600160a01b039091168152602090f35b503461014f57602036600319011261014f5760406020916004358152600c83522054604051908152f35b503461014f578060031936011261014f576020600954604051908152f35b503461014f578060031936011261014f576107e9611138565b6201000062ff000019600554161760055580f35b503461014f57602036600319011261014f57610817610fcd565b61081f611138565b60018060a01b03166001600160601b0360a01b600654161760065580f35b503461014f578060031936011261014f5760a0600180821b036002541660ff600354600454600554916040519485526020850152604084015261ffff8116606084015260101c1615156080820152f35b503461014f578060031936011261014f576006546040516001600160a01b039091168152602090f35b503461014f578060031936011261014f576108cf611138565b600080546001600160a01b0319811682556001600160a01b03167f8be0079c531659141344cd1fd0a4f28419497f9722a3daafe3b4186f6b6457e08280a380f35b503461014f57602036600319011261014f57604080916004358152600b602052206001808060a01b0382541691015482519182526020820152f35b503461014f578060031936011261014f57610964611138565b62ff0000196005541660055580f35b503461014f57602036600319011261014f5760408181926020835161099781611005565b82815201526004358152600b6020522081516109b281611005565b81546001600160a01b0316808252600190920154602091820190815283519283525190820152f35b503461014f578060031936011261014f576020600854604051908152f35b503461014f57604036600319011261014f5760065460243591906001600160a01b03163303610f0f576004358152600c6020526040812054808252600b602052604082209260018060a01b03845416908115610edb5760405160208101908282526001604082015260408152610a6d81611021565b5190209160405160208101908382526002604082015260408152610a9081611021565b5190209060405160208101908482526003604082015260408152610ab381611021565b51902090610ad460ff600784061660ff600786061660ff60078906166110a2565b908115610ec3575087546001600160a01b03168752600a60205260408720805460ff808216600101908111610e565760ff1990911660ff9182161790915588546001600160a01b03168852600a60205260408820546103e8911681810292918115918404141715610eaf57610b56919062030d40808311610ea7575b50611088565b6207a120808211610e9f575b50610b94600189015482610b8d61ffff6005541692610b8561271093849261105f565b04928361105f565b0490611095565b60056103e886061090888215610e6a5750600a8102818104600a1482151715610e5657906064610bd1939204915b80610e4b575b610e2657611088565b9182610d6f575b918160ff6007858282818e9f8e9f7fbfe272ccb2aae70e6aea9a2a87917e1a3bdea7a0d7469f17861bea19081de6ad9f9160e09f9e9c8f6103e89f9d8f90958f8f909760069460409960018060a01b0389541697888b52600a6020528c8c8c205416958c5199610c478b610fe8565b8a5260208a01908082528f8f908f8d0196061685528f8f9060608d0195061684528f8f9060808d01940616835260a08b0195865260c08b0196875260e08b019788526103e86101008c01990689528c52600d6020528c8c209960018060a01b039051166001600160601b0360a01b8b5416178a555160018a01558c60028a0193511662ff000061ff008554945160081b16925160101b169262ffffff191617171790555160038601555160048501558760058501915116881982541617905551910155600b60205281600184822082815501556004358252600c602052818381205560018060a01b039054168152600a6020522054169782826040519d06168c52061660208a0152061660408701526060860152608085015260a08401520660c0820152a280f35b6002546007548a546001600160a01b039081169b929181169116803b15610e225760405163a00c695160e01b81526001600160a01b0392831660048201529b90911660248c015260448b0185905289908b90606490829084905af18015610e1757610ddc575b9850610bd8565b9697909594939867ffffffffffffffff8111610e0357604052969593949293889390610dd5565b634e487b7160e01b82526041600452602482fd5b6040513d8b823e3d90fd5b8a80fd5b90610e459060095490610e3d600a83048093611095565b600955611088565b90611088565b506009541515610bc8565b634e487b7160e01b8a52601160045260248afd5b9060146103e8880610610e81575b610bd192610bc2565b90506005810281810460051482151715610e56576064900490610e78565b905038610b62565b915038610b50565b634e487b7160e01b88526011600452602488fd5b8752600a60205260408720805460ff19169055610b56565b60405162461bcd60e51b815260206004820152600c60248201526b496e76616c69642067616d6560a01b6044820152606490fd5b60405162461bcd60e51b815260206004820152600860248201526727b7363c902b292360c11b6044820152606490fd5b905034610628576020366003190112610628576040610120926004358152600d6020522060018060a01b03815416906001810154600282015460ff60038401549160048501549360068360058801541696015496885260208801528181166040880152818160081c16606088015260101c16608086015260a085015260c084015260e0830152610100820152f35b600435906001600160a01b0382168203610fe357565b600080fd5b610120810190811067ffffffffffffffff8211176102d757604052565b6040810190811067ffffffffffffffff8211176102d757604052565b6060810190811067ffffffffffffffff8211176102d757604052565b90601f8019910116810190811067ffffffffffffffff8211176102d757604052565b8181029291811591840414171561107257565b634e487b7160e01b600052601160045260246000fd5b9190820180921161107257565b9190820391821161107257565b60ff90811691168181149290838061112c575b156110f15750509050600681146110e957600581146110e1576004146110db57614e2090565b61c35090565b50620186a090565b506203d09090565b831561111f575b508215611112575b50501561110d5761271090565b600090565b60ff161490503880611100565b60ff8216149250386110f8565b5060ff821681146110b5565b6000546001600160a01b0316330361114c57565b60405163118cdaa760e01b8152336004820152602490fdfea2646970667358221220397888d6d334171dd0618bd39264091ceb99f93787cd280a127cfe2cb33f57ee64736f6c63430008180033","opcodes":"PUSH1 0x80 CALLVALUE PUSH2 0xF0 JUMPI PUSH1 0x1F PUSH2 0x12BA CODESIZE DUP2 SWAP1 SUB SWAP2 DUP3 ADD PUSH1 0x1F NOT AND DUP4 ADD SWAP2 PUSH1 0x1 PUSH1 0x1 PUSH1 0x40 SHL SUB DUP4 GT DUP5 DUP5 LT OR PUSH2 0xF5 JUMPI DUP1 DUP5 SWAP3 PUSH1 0x60 SWAP5 PUSH1 0x40 MSTORE DUP4 CODECOPY DUP2 ADD SUB SLT PUSH2 0xF0 JUMPI PUSH2 0x47 DUP2 PUSH2 0x10B JUMP JUMPDEST PUSH2 0x5F PUSH1 0x40 PUSH2 0x58 PUSH1 0x20 DUP6 ADD PUSH2 0x10B JUMP JUMPDEST SWAP4 ADD PUSH2 0x10B JUMP JUMPDEST PUSH1 0x1 PUSH1 0x1 PUSH1 0xA0 SHL SUB SWAP2 DUP3 AND SWAP2 SWAP1 DUP3 ISZERO PUSH2 0xD7 JUMPI DUP2 PUSH1 0x0 SLOAD SWAP5 PUSH1 0x1 DUP1 PUSH1 0xA0 SHL SUB NOT SWAP5 DUP1 DUP7 DUP9 AND OR PUSH1 0x0 SSTORE DUP3 PUSH1 0x40 MLOAD SWAP8 AND PUSH32 0x8BE0079C531659141344CD1FD0A4F28419497F9722A3DAAFE3B4186F6B6457E0 PUSH1 0x0 DUP1 LOG3 PUSH1 0x1 DUP1 SSTORE AND DUP4 PUSH1 0x7 SLOAD AND OR PUSH1 0x7 SSTORE AND SWAP1 PUSH1 0x6 SLOAD AND OR PUSH1 0x6 SSTORE PUSH2 0x119A SWAP1 DUP2 PUSH2 0x120 DUP3 CODECOPY RETURN JUMPDEST PUSH1 0x40 MLOAD PUSH4 0x1E4FBDF7 PUSH1 0xE0 SHL DUP2 MSTORE PUSH1 0x0 PUSH1 0x4 DUP3 ADD MSTORE PUSH1 0x24 SWAP1 REVERT JUMPDEST PUSH1 0x0 DUP1 REVERT JUMPDEST PUSH4 0x4E487B71 PUSH1 0xE0 SHL PUSH1 0x0 MSTORE PUSH1 0x41 PUSH1 0x4 MSTORE PUSH1 0x24 PUSH1 0x0 REVERT JUMPDEST MLOAD SWAP1 PUSH1 0x1 PUSH1 0x1 PUSH1 0xA0 SHL SUB DUP3 AND DUP3 SUB PUSH2 0xF0 JUMPI JUMP INVALID PUSH1 0x80 DUP1 PUSH1 0x40 MSTORE PUSH1 0x4 CALLDATASIZE LT ISZERO PUSH2 0x13 JUMPI PUSH1 0x0 DUP1 REVERT JUMPDEST PUSH1 0x0 SWAP1 DUP2 CALLDATALOAD PUSH1 0xE0 SHR SWAP1 DUP2 PUSH4 0x117A5B90 EQ PUSH2 0xF3F JUMPI POP DUP1 PUSH4 0x1F1F897F EQ PUSH2 0x9F8 JUMPI DUP1 PUSH4 0x2E0BE39A EQ PUSH2 0x9DA JUMPI DUP1 PUSH4 0x3D598F80 EQ PUSH2 0x973 JUMPI DUP1 PUSH4 0x3F4BA83A EQ PUSH2 0x94B JUMPI DUP1 PUSH4 0x579E94EE EQ PUSH2 0x910 JUMPI DUP1 PUSH4 0x715018A6 EQ PUSH2 0x8B6 JUMPI DUP1 PUSH4 0x719CE73E EQ PUSH2 0x7B2 JUMPI DUP1 PUSH4 0x772D84C4 EQ PUSH2 0x88D JUMPI DUP1 PUSH4 0x79502C55 EQ PUSH2 0x83D JUMPI DUP1 PUSH4 0x83BA98AE EQ PUSH2 0x7FD JUMPI DUP1 PUSH4 0x8456CB59 EQ PUSH2 0x7D0 JUMPI DUP1 PUSH4 0x884BF67C EQ PUSH2 0x7B2 JUMPI DUP1 PUSH4 0x8A7626D1 EQ PUSH2 0x788 JUMPI DUP1 PUSH4 0x8DA5CB5B EQ PUSH2 0x761 JUMPI DUP1 PUSH4 0xA2F77BCC EQ PUSH2 0x62C JUMPI DUP1 PUSH4 0xA5B6EA8F EQ PUSH2 0x2F1 JUMPI DUP1 PUSH4 0xCBB6D6BD EQ PUSH2 0x224 JUMPI DUP1 PUSH4 0xECF23432 EQ PUSH2 0x206 JUMPI DUP1 PUSH4 0xF2FDE38B EQ PUSH2 0x17B JUMPI DUP1 PUSH4 0xFC0C546A EQ PUSH2 0x152 JUMPI PUSH4 0xFEE1C5EE EQ PUSH2 0x113 JUMPI PUSH1 0x0 DUP1 REVERT JUMPDEST CALLVALUE PUSH2 0x14F JUMPI PUSH1 0x20 CALLDATASIZE PUSH1 0x3 NOT ADD SLT PUSH2 0x14F JUMPI PUSH1 0x20 SWAP1 PUSH1 0xFF SWAP1 PUSH1 0x40 SWAP1 PUSH1 0x1 PUSH1 0x1 PUSH1 0xA0 SHL SUB PUSH2 0x13D PUSH2 0xFCD JUMP JUMPDEST AND DUP2 MSTORE PUSH1 0xA DUP5 MSTORE KECCAK256 SLOAD AND PUSH1 0x40 MLOAD SWAP1 DUP2 MSTORE RETURN JUMPDEST DUP1 REVERT JUMPDEST POP CALLVALUE PUSH2 0x14F JUMPI DUP1 PUSH1 0x3 NOT CALLDATASIZE ADD SLT PUSH2 0x14F JUMPI PUSH1 0x7 SLOAD PUSH1 0x40 MLOAD PUSH1 0x1 PUSH1 0x1 PUSH1 0xA0 SHL SUB SWAP1 SWAP2 AND DUP2 MSTORE PUSH1 0x20 SWAP1 RETURN JUMPDEST POP CALLVALUE PUSH2 0x14F JUMPI PUSH1 0x20 CALLDATASIZE PUSH1 0x3 NOT ADD SLT PUSH2 0x14F JUMPI PUSH2 0x195 PUSH2 0xFCD JUMP JUMPDEST PUSH2 0x19D PUSH2 0x1138 JUMP JUMPDEST PUSH1 0x1 PUSH1 0x1 PUSH1 0xA0 SHL SUB SWAP1 DUP2 AND SWAP1 DUP2 ISZERO PUSH2 0x1ED JUMPI PUSH1 0x0 SLOAD DUP3 PUSH1 0x1 PUSH1 0x1 PUSH1 0x60 SHL SUB PUSH1 0xA0 SHL DUP3 AND OR PUSH1 0x0 SSTORE AND PUSH32 0x8BE0079C531659141344CD1FD0A4F28419497F9722A3DAAFE3B4186F6B6457E0 PUSH1 0x0 DUP1 LOG3 DUP1 RETURN JUMPDEST PUSH1 0x40 MLOAD PUSH4 0x1E4FBDF7 PUSH1 0xE0 SHL DUP2 MSTORE PUSH1 0x4 DUP2 ADD DUP5 SWAP1 MSTORE PUSH1 0x24 SWAP1 REVERT JUMPDEST POP CALLVALUE PUSH2 0x14F JUMPI DUP1 PUSH1 0x3 NOT CALLDATASIZE ADD SLT PUSH2 0x14F JUMPI PUSH1 0x20 PUSH1 0x40 MLOAD PUSH3 0x7A120 DUP2 MSTORE RETURN JUMPDEST POP CALLVALUE PUSH2 0x14F JUMPI PUSH1 0x80 CALLDATASIZE PUSH1 0x3 NOT ADD SLT PUSH2 0x14F JUMPI PUSH2 0x23E PUSH2 0xFCD JUMP JUMPDEST PUSH1 0x24 CALLDATALOAD PUSH1 0x44 CALLDATALOAD SWAP1 PUSH1 0x64 CALLDATALOAD SWAP3 PUSH2 0xFFFF DUP5 AND DUP1 SWAP5 SUB PUSH2 0x2ED JUMPI PUSH2 0x25D PUSH2 0x1138 JUMP JUMPDEST PUSH1 0x40 MLOAD SWAP1 PUSH1 0xA0 DUP3 ADD DUP3 DUP2 LT PUSH8 0xFFFFFFFFFFFFFFFF DUP3 GT OR PUSH2 0x2D7 JUMPI DUP7 SWAP2 PUSH1 0x80 SWAP2 PUSH1 0x40 MSTORE PUSH1 0x1 DUP1 PUSH1 0xA0 SHL SUB AND SWAP3 DUP4 DUP2 MSTORE DUP5 PUSH1 0x20 DUP3 ADD MSTORE DUP6 PUSH1 0x40 DUP3 ADD MSTORE DUP7 PUSH1 0x60 DUP3 ADD MSTORE ADD MSTORE PUSH1 0x1 PUSH1 0x1 PUSH1 0x60 SHL SUB PUSH1 0xA0 SHL PUSH1 0x2 SLOAD AND OR PUSH1 0x2 SSTORE PUSH1 0x3 SSTORE PUSH1 0x4 SSTORE PUSH1 0x5 SLOAD SWAP1 PUSH3 0xFF0000 DUP4 ISZERO ISZERO PUSH1 0x10 SHL AND SWAP2 PUSH3 0xFFFFFF NOT AND OR OR PUSH1 0x5 SSTORE DUP1 RETURN JUMPDEST PUSH4 0x4E487B71 PUSH1 0xE0 SHL PUSH1 0x0 MSTORE PUSH1 0x41 PUSH1 0x4 MSTORE PUSH1 0x24 PUSH1 0x0 REVERT JUMPDEST DUP5 DUP1 REVERT JUMPDEST POP PUSH1 0x20 DUP1 PUSH1 0x3 NOT CALLDATASIZE ADD SLT PUSH2 0x628 JUMPI PUSH1 0x4 CALLDATALOAD PUSH1 0x1 SWAP2 PUSH1 0x2 DUP4 SLOAD EQ PUSH2 0x616 JUMPI PUSH1 0x2 DUP4 SSTORE PUSH1 0xFF PUSH1 0x5 SLOAD PUSH1 0x10 SHR AND PUSH2 0x5E9 JUMPI PUSH1 0x3 SLOAD PUSH1 0x4 SLOAD SWAP1 DUP4 LT PUSH2 0x5D7 JUMPI DUP3 GT PUSH2 0x5C5 JUMPI PUSH1 0x7 SLOAD PUSH1 0x1 PUSH1 0x1 PUSH1 0xA0 SHL SUB SWAP1 DUP2 AND DUP1 PUSH2 0x52C JUMPI POP DUP3 CALLVALUE SUB PUSH2 0x4F5 JUMPI PUSH2 0x35C PUSH1 0xA DUP5 DIV PUSH1 0x9 SLOAD PUSH2 0x1088 JUMP JUMPDEST PUSH1 0x9 SSTORE DUP5 DUP1 DUP1 DUP1 DUP7 DUP6 PUSH1 0x2 SLOAD AND GAS CALL RETURNDATASIZE ISZERO PUSH2 0x4F0 JUMPI RETURNDATASIZE PUSH8 0xFFFFFFFFFFFFFFFF DUP2 GT PUSH2 0x4DC JUMPI PUSH1 0x40 MLOAD SWAP1 PUSH2 0x398 PUSH1 0x1F DUP3 ADD PUSH1 0x1F NOT AND DUP7 ADD DUP4 PUSH2 0x103D JUMP JUMPDEST DUP2 MSTORE DUP7 DUP5 RETURNDATASIZE SWAP3 ADD RETURNDATACOPY JUMPDEST ISZERO PUSH2 0x4A5 JUMPI JUMPDEST PUSH1 0x8 SLOAD PUSH1 0x0 NOT DUP2 EQ PUSH2 0x491 JUMPI SWAP2 DUP1 SWAP2 DUP6 DUP8 SWAP5 ADD SWAP5 DUP6 PUSH1 0x8 SSTORE DUP7 PUSH1 0x40 MLOAD SWAP2 PUSH2 0x3CD DUP4 PUSH2 0x1005 JUMP JUMPDEST CALLER DUP4 MSTORE DUP5 DUP4 ADD SWAP1 DUP2 MSTORE DUP8 DUP8 MSTORE PUSH1 0xB DUP6 MSTORE DUP4 PUSH1 0x40 DUP9 KECCAK256 SWAP4 MLOAD AND PUSH1 0x1 PUSH1 0x1 PUSH1 0x60 SHL SUB PUSH1 0xA0 SHL DUP5 SLOAD AND OR DUP4 SSTORE MLOAD SWAP2 ADD SSTORE PUSH1 0x6 SLOAD AND PUSH1 0x4 PUSH1 0x40 MLOAD DUP1 SWAP6 DUP2 SWAP4 PUSH4 0xF8413B07 PUSH1 0xE0 SHL DUP4 MSTORE GAS CALL DUP1 ISZERO PUSH2 0x486 JUMPI DUP6 SWAP1 PUSH2 0x458 JUMPI JUMPDEST PUSH1 0xC SWAP3 POP DUP6 MSTORE MSTORE DUP1 PUSH1 0x40 DUP5 KECCAK256 SSTORE CALLER SWAP1 PUSH32 0xFADB9547847A0C2C31F4C02590545E318D33D7AAE99071CAECF3FA4CE3CD7DCA DUP5 DUP1 LOG3 DUP1 SSTORE DUP1 RETURN JUMPDEST POP DUP1 DUP3 DUP2 RETURNDATASIZE DUP4 GT PUSH2 0x47F JUMPI JUMPDEST PUSH2 0x46E DUP2 DUP4 PUSH2 0x103D JUMP JUMPDEST DUP2 ADD SUB SLT PUSH2 0x2ED JUMPI PUSH1 0xC SWAP2 MLOAD PUSH2 0x420 JUMP JUMPDEST POP RETURNDATASIZE PUSH2 0x464 JUMP JUMPDEST PUSH1 0x40 MLOAD RETURNDATASIZE DUP8 DUP3 RETURNDATACOPY RETURNDATASIZE SWAP1 REVERT JUMPDEST PUSH4 0x4E487B71 PUSH1 0xE0 SHL DUP7 MSTORE PUSH1 0x11 PUSH1 0x4 MSTORE PUSH1 0x24 DUP7 REVERT JUMPDEST PUSH1 0x40 MLOAD PUSH3 0x461BCD PUSH1 0xE5 SHL DUP2 MSTORE PUSH1 0x4 DUP2 ADD DUP4 SWAP1 MSTORE PUSH1 0xF PUSH1 0x24 DUP3 ADD MSTORE PUSH15 0x151C985B9CD9995C8819985A5B1959 PUSH1 0x8A SHL PUSH1 0x44 DUP3 ADD MSTORE PUSH1 0x64 SWAP1 REVERT JUMPDEST PUSH4 0x4E487B71 PUSH1 0xE0 SHL DUP8 MSTORE PUSH1 0x41 PUSH1 0x4 MSTORE PUSH1 0x24 DUP8 REVERT JUMPDEST PUSH2 0x3A1 JUMP JUMPDEST PUSH1 0x40 MLOAD PUSH3 0x461BCD PUSH1 0xE5 SHL DUP2 MSTORE PUSH1 0x4 DUP2 ADD DUP4 SWAP1 MSTORE PUSH1 0xF PUSH1 0x24 DUP3 ADD MSTORE PUSH15 0x82DADEEADCE840DAD2E6DAC2E8C6D PUSH1 0x8B SHL PUSH1 0x44 DUP3 ADD MSTORE PUSH1 0x64 SWAP1 REVERT JUMPDEST PUSH2 0x53B PUSH1 0xA DUP6 DIV PUSH1 0x9 SLOAD PUSH2 0x1088 JUMP JUMPDEST PUSH1 0x9 SSTORE PUSH1 0x2 SLOAD PUSH1 0x40 MLOAD PUSH4 0x23B872DD PUSH1 0xE0 SHL DUP6 DUP3 ADD SWAP1 DUP2 MSTORE CALLER PUSH1 0x24 DUP4 ADD MSTORE SWAP2 DUP5 AND PUSH1 0x1 PUSH1 0x1 PUSH1 0xA0 SHL SUB AND PUSH1 0x44 DUP3 ADD MSTORE PUSH1 0x64 DUP1 DUP3 ADD DUP8 SWAP1 MSTORE DUP2 MSTORE DUP5 SWAP2 DUP9 SWAP2 PUSH2 0x582 PUSH1 0x84 DUP3 PUSH2 0x103D JUMP JUMPDEST MLOAD SWAP1 DUP3 DUP6 GAS CALL ISZERO PUSH2 0x486 JUMPI DUP6 MLOAD DUP6 SWAP1 RETURNDATASIZE PUSH2 0x5BE JUMPI POP POP DUP1 EXTCODESIZE ISZERO JUMPDEST PUSH2 0x5A6 JUMPI POP PUSH2 0x3A7 JUMP JUMPDEST PUSH1 0x24 SWAP1 PUSH1 0x40 MLOAD SWAP1 PUSH4 0x5274AFE7 PUSH1 0xE0 SHL DUP3 MSTORE PUSH1 0x4 DUP3 ADD MSTORE REVERT JUMPDEST EQ ISZERO PUSH2 0x59C JUMP JUMPDEST PUSH1 0x40 MLOAD PUSH4 0x17653201 PUSH1 0xE1 SHL DUP2 MSTORE PUSH1 0x4 SWAP1 REVERT JUMPDEST PUSH1 0x40 MLOAD PUSH4 0x989E3017 PUSH1 0xE0 SHL DUP2 MSTORE PUSH1 0x4 SWAP1 REVERT JUMPDEST PUSH1 0x64 SWAP1 PUSH1 0x40 MLOAD SWAP1 PUSH3 0x461BCD PUSH1 0xE5 SHL DUP3 MSTORE PUSH1 0x4 DUP3 ADD MSTORE PUSH1 0x6 PUSH1 0x24 DUP3 ADD MSTORE PUSH6 0x14185D5CD959 PUSH1 0xD2 SHL PUSH1 0x44 DUP3 ADD MSTORE REVERT JUMPDEST PUSH1 0x40 MLOAD PUSH4 0x3EE5AEB5 PUSH1 0xE0 SHL DUP2 MSTORE PUSH1 0x4 SWAP1 REVERT JUMPDEST POP DUP1 REVERT JUMPDEST POP CALLVALUE PUSH2 0x14F JUMPI PUSH1 0x20 CALLDATASIZE PUSH1 0x3 NOT ADD SLT PUSH2 0x14F JUMPI PUSH1 0x40 DUP2 PUSH2 0x120 SWAP3 PUSH2 0x100 DUP4 MLOAD PUSH2 0x653 DUP2 PUSH2 0xFE8 JUMP JUMPDEST DUP3 DUP2 MSTORE DUP3 PUSH1 0x20 DUP3 ADD MSTORE DUP3 DUP6 DUP3 ADD MSTORE DUP3 PUSH1 0x60 DUP3 ADD MSTORE DUP3 PUSH1 0x80 DUP3 ADD MSTORE DUP3 PUSH1 0xA0 DUP3 ADD MSTORE DUP3 PUSH1 0xC0 DUP3 ADD MSTORE DUP3 PUSH1 0xE0 DUP3 ADD MSTORE ADD MSTORE PUSH1 0x4 CALLDATALOAD DUP2 MSTORE PUSH1 0xD PUSH1 0x20 MSTORE KECCAK256 PUSH2 0x100 PUSH1 0x40 MLOAD PUSH2 0x69B DUP2 PUSH2 0xFE8 JUMP JUMPDEST PUSH1 0x6 PUSH1 0x1 DUP1 PUSH1 0xA0 SHL SUB DUP5 SLOAD AND SWAP4 DUP5 DUP4 MSTORE PUSH1 0x1 DUP2 ADD SLOAD PUSH1 0x20 DUP5 ADD MSTORE PUSH1 0xFF PUSH1 0x2 DUP3 ADD SLOAD DUP2 DUP2 AND PUSH1 0x40 DUP7 ADD MSTORE DUP2 DUP2 PUSH1 0x8 SHR AND PUSH1 0x60 DUP7 ADD MSTORE PUSH1 0x10 SHR AND PUSH1 0x80 DUP5 ADD MSTORE PUSH1 0x3 DUP2 ADD SLOAD PUSH1 0xA0 DUP5 ADD MSTORE PUSH1 0x4 DUP2 ADD SLOAD PUSH1 0xC0 DUP5 ADD MSTORE PUSH1 0xFF PUSH1 0x5 DUP3 ADD SLOAD AND PUSH1 0xE0 DUP5 ADD MSTORE ADD SLOAD DUP3 DUP3 ADD MSTORE PUSH1 0x40 MLOAD SWAP3 DUP4 MSTORE PUSH1 0x20 DUP2 ADD MLOAD PUSH1 0x20 DUP5 ADD MSTORE PUSH1 0xFF PUSH1 0x40 DUP3 ADD MLOAD AND PUSH1 0x40 DUP5 ADD MSTORE PUSH1 0xFF PUSH1 0x60 DUP3 ADD MLOAD AND PUSH1 0x60 DUP5 ADD MSTORE PUSH1 0xFF PUSH1 0x80 DUP3 ADD MLOAD AND PUSH1 0x80 DUP5 ADD MSTORE PUSH1 0xA0 DUP2 ADD MLOAD PUSH1 0xA0 DUP5 ADD MSTORE PUSH1 0xC0 DUP2 ADD MLOAD PUSH1 0xC0 DUP5 ADD MSTORE PUSH1 0xFF PUSH1 0xE0 DUP3 ADD MLOAD AND PUSH1 0xE0 DUP5 ADD MSTORE ADD MLOAD PUSH2 0x100 DUP3 ADD MSTORE RETURN JUMPDEST POP CALLVALUE PUSH2 0x14F JUMPI DUP1 PUSH1 0x3 NOT CALLDATASIZE ADD SLT PUSH2 0x14F JUMPI SLOAD PUSH1 0x40 MLOAD PUSH1 0x1 PUSH1 0x1 PUSH1 0xA0 SHL SUB SWAP1 SWAP2 AND DUP2 MSTORE PUSH1 0x20 SWAP1 RETURN JUMPDEST POP CALLVALUE PUSH2 0x14F JUMPI PUSH1 0x20 CALLDATASIZE PUSH1 0x3 NOT ADD SLT PUSH2 0x14F JUMPI PUSH1 0x40 PUSH1 0x20 SWAP2 PUSH1 0x4 CALLDATALOAD DUP2 MSTORE PUSH1 0xC DUP4 MSTORE KECCAK256 SLOAD PUSH1 0x40 MLOAD SWAP1 DUP2 MSTORE RETURN JUMPDEST POP CALLVALUE PUSH2 0x14F JUMPI DUP1 PUSH1 0x3 NOT CALLDATASIZE ADD SLT PUSH2 0x14F JUMPI PUSH1 0x20 PUSH1 0x9 SLOAD PUSH1 0x40 MLOAD SWAP1 DUP2 MSTORE RETURN JUMPDEST POP CALLVALUE PUSH2 0x14F JUMPI DUP1 PUSH1 0x3 NOT CALLDATASIZE ADD SLT PUSH2 0x14F JUMPI PUSH2 0x7E9 PUSH2 0x1138 JUMP JUMPDEST PUSH3 0x10000 PUSH3 0xFF0000 NOT PUSH1 0x5 SLOAD AND OR PUSH1 0x5 SSTORE DUP1 RETURN JUMPDEST POP CALLVALUE PUSH2 0x14F JUMPI PUSH1 0x20 CALLDATASIZE PUSH1 0x3 NOT ADD SLT PUSH2 0x14F JUMPI PUSH2 0x817 PUSH2 0xFCD JUMP JUMPDEST PUSH2 0x81F PUSH2 0x1138 JUMP JUMPDEST PUSH1 0x1 DUP1 PUSH1 0xA0 SHL SUB AND PUSH1 0x1 PUSH1 0x1 PUSH1 0x60 SHL SUB PUSH1 0xA0 SHL PUSH1 0x6 SLOAD AND OR PUSH1 0x6 SSTORE DUP1 RETURN JUMPDEST POP CALLVALUE PUSH2 0x14F JUMPI DUP1 PUSH1 0x3 NOT CALLDATASIZE ADD SLT PUSH2 0x14F JUMPI PUSH1 0xA0 PUSH1 0x1 DUP1 DUP3 SHL SUB PUSH1 0x2 SLOAD AND PUSH1 0xFF PUSH1 0x3 SLOAD PUSH1 0x4 SLOAD PUSH1 0x5 SLOAD SWAP2 PUSH1 0x40 MLOAD SWAP5 DUP6 MSTORE PUSH1 0x20 DUP6 ADD MSTORE PUSH1 0x40 DUP5 ADD MSTORE PUSH2 0xFFFF DUP2 AND PUSH1 0x60 DUP5 ADD MSTORE PUSH1 0x10 SHR AND ISZERO ISZERO PUSH1 0x80 DUP3 ADD MSTORE RETURN JUMPDEST POP CALLVALUE PUSH2 0x14F JUMPI DUP1 PUSH1 0x3 NOT CALLDATASIZE ADD SLT PUSH2 0x14F JUMPI PUSH1 0x6 SLOAD PUSH1 0x40 MLOAD PUSH1 0x1 PUSH1 0x1 PUSH1 0xA0 SHL SUB SWAP1 SWAP2 AND DUP2 MSTORE PUSH1 0x20 SWAP1 RETURN JUMPDEST POP CALLVALUE PUSH2 0x14F JUMPI DUP1 PUSH1 0x3 NOT CALLDATASIZE ADD SLT PUSH2 0x14F JUMPI PUSH2 0x8CF PUSH2 0x1138 JUMP JUMPDEST PUSH1 0x0 DUP1 SLOAD PUSH1 0x1 PUSH1 0x1 PUSH1 0xA0 SHL SUB NOT DUP2 AND DUP3 SSTORE PUSH1 0x1 PUSH1 0x1 PUSH1 0xA0 SHL SUB AND PUSH32 0x8BE0079C531659141344CD1FD0A4F28419497F9722A3DAAFE3B4186F6B6457E0 DUP3 DUP1 LOG3 DUP1 RETURN JUMPDEST POP CALLVALUE PUSH2 0x14F JUMPI PUSH1 0x20 CALLDATASIZE PUSH1 0x3 NOT ADD SLT PUSH2 0x14F JUMPI PUSH1 0x40 DUP1 SWAP2 PUSH1 0x4 CALLDATALOAD DUP2 MSTORE PUSH1 0xB PUSH1 0x20 MSTORE KECCAK256 PUSH1 0x1 DUP1 DUP1 PUSH1 0xA0 SHL SUB DUP3 SLOAD AND SWAP2 ADD SLOAD DUP3 MLOAD SWAP2 DUP3 MSTORE PUSH1 0x20 DUP3 ADD MSTORE RETURN JUMPDEST POP CALLVALUE PUSH2 0x14F JUMPI DUP1 PUSH1 0x3 NOT CALLDATASIZE ADD SLT PUSH2 0x14F JUMPI PUSH2 0x964 PUSH2 0x1138 JUMP JUMPDEST PUSH3 0xFF0000 NOT PUSH1 0x5 SLOAD AND PUSH1 0x5 SSTORE DUP1 RETURN JUMPDEST POP CALLVALUE PUSH2 0x14F JUMPI PUSH1 0x20 CALLDATASIZE PUSH1 0x3 NOT ADD SLT PUSH2 0x14F JUMPI PUSH1 0x40 DUP2 DUP2 SWAP3 PUSH1 0x20 DUP4 MLOAD PUSH2 0x997 DUP2 PUSH2 0x1005 JUMP JUMPDEST DUP3 DUP2 MSTORE ADD MSTORE PUSH1 0x4 CALLDATALOAD DUP2 MSTORE PUSH1 0xB PUSH1 0x20 MSTORE KECCAK256 DUP2 MLOAD PUSH2 0x9B2 DUP2 PUSH2 0x1005 JUMP JUMPDEST DUP2 SLOAD PUSH1 0x1 PUSH1 0x1 PUSH1 0xA0 SHL SUB AND DUP1 DUP3 MSTORE PUSH1 0x1 SWAP1 SWAP3 ADD SLOAD PUSH1 0x20 SWAP2 DUP3 ADD SWAP1 DUP2 MSTORE DUP4 MLOAD SWAP3 DUP4 MSTORE MLOAD SWAP1 DUP3 ADD MSTORE RETURN JUMPDEST POP CALLVALUE PUSH2 0x14F JUMPI DUP1 PUSH1 0x3 NOT CALLDATASIZE ADD SLT PUSH2 0x14F JUMPI PUSH1 0x20 PUSH1 0x8 SLOAD PUSH1 0x40 MLOAD SWAP1 DUP2 MSTORE RETURN JUMPDEST POP CALLVALUE PUSH2 0x14F JUMPI PUSH1 0x40 CALLDATASIZE PUSH1 0x3 NOT ADD SLT PUSH2 0x14F JUMPI PUSH1 0x6 SLOAD PUSH1 0x24 CALLDATALOAD SWAP2 SWAP1 PUSH1 0x1 PUSH1 0x1 PUSH1 0xA0 SHL SUB AND CALLER SUB PUSH2 0xF0F JUMPI PUSH1 0x4 CALLDATALOAD DUP2 MSTORE PUSH1 0xC PUSH1 0x20 MSTORE PUSH1 0x40 DUP2 KECCAK256 SLOAD DUP1 DUP3 MSTORE PUSH1 0xB PUSH1 0x20 MSTORE PUSH1 0x40 DUP3 KECCAK256 SWAP3 PUSH1 0x1 DUP1 PUSH1 0xA0 SHL SUB DUP5 SLOAD AND SWAP1 DUP2 ISZERO PUSH2 0xEDB JUMPI PUSH1 0x40 MLOAD PUSH1 0x20 DUP2 ADD SWAP1 DUP3 DUP3 MSTORE PUSH1 0x1 PUSH1 0x40 DUP3 ADD MSTORE PUSH1 0x40 DUP2 MSTORE PUSH2 0xA6D DUP2 PUSH2 0x1021 JUMP JUMPDEST MLOAD SWAP1 KECCAK256 SWAP2 PUSH1 0x40 MLOAD PUSH1 0x20 DUP2 ADD SWAP1 DUP4 DUP3 MSTORE PUSH1 0x2 PUSH1 0x40 DUP3 ADD MSTORE PUSH1 0x40 DUP2 MSTORE PUSH2 0xA90 DUP2 PUSH2 0x1021 JUMP JUMPDEST MLOAD SWAP1 KECCAK256 SWAP1 PUSH1 0x40 MLOAD PUSH1 0x20 DUP2 ADD SWAP1 DUP5 DUP3 MSTORE PUSH1 0x3 PUSH1 0x40 DUP3 ADD MSTORE PUSH1 0x40 DUP2 MSTORE PUSH2 0xAB3 DUP2 PUSH2 0x1021 JUMP JUMPDEST MLOAD SWAP1 KECCAK256 SWAP1 PUSH2 0xAD4 PUSH1 0xFF PUSH1 0x7 DUP5 MOD AND PUSH1 0xFF PUSH1 0x7 DUP7 MOD AND PUSH1 0xFF PUSH1 0x7 DUP10 MOD AND PUSH2 0x10A2 JUMP JUMPDEST SWAP1 DUP2 ISZERO PUSH2 0xEC3 JUMPI POP DUP8 SLOAD PUSH1 0x1 PUSH1 0x1 PUSH1 0xA0 SHL SUB AND DUP8 MSTORE PUSH1 0xA PUSH1 0x20 MSTORE PUSH1 0x40 DUP8 KECCAK256 DUP1 SLOAD PUSH1 0xFF DUP1 DUP3 AND PUSH1 0x1 ADD SWAP1 DUP2 GT PUSH2 0xE56 JUMPI PUSH1 0xFF NOT SWAP1 SWAP2 AND PUSH1 0xFF SWAP2 DUP3 AND OR SWAP1 SWAP2 SSTORE DUP9 SLOAD PUSH1 0x1 PUSH1 0x1 PUSH1 0xA0 SHL SUB AND DUP9 MSTORE PUSH1 0xA PUSH1 0x20 MSTORE PUSH1 0x40 DUP9 KECCAK256 SLOAD PUSH2 0x3E8 SWAP2 AND DUP2 DUP2 MUL SWAP3 SWAP2 DUP2 ISZERO SWAP2 DUP5 DIV EQ OR ISZERO PUSH2 0xEAF JUMPI PUSH2 0xB56 SWAP2 SWAP1 PUSH3 0x30D40 DUP1 DUP4 GT PUSH2 0xEA7 JUMPI JUMPDEST POP PUSH2 0x1088 JUMP JUMPDEST PUSH3 0x7A120 DUP1 DUP3 GT PUSH2 0xE9F JUMPI JUMPDEST POP PUSH2 0xB94 PUSH1 0x1 DUP10 ADD SLOAD DUP3 PUSH2 0xB8D PUSH2 0xFFFF PUSH1 0x5 SLOAD AND SWAP3 PUSH2 0xB85 PUSH2 0x2710 SWAP4 DUP5 SWAP3 PUSH2 0x105F JUMP JUMPDEST DIV SWAP3 DUP4 PUSH2 0x105F JUMP JUMPDEST DIV SWAP1 PUSH2 0x1095 JUMP JUMPDEST PUSH1 0x5 PUSH2 0x3E8 DUP7 MOD LT SWAP1 DUP9 DUP3 ISZERO PUSH2 0xE6A JUMPI POP PUSH1 0xA DUP2 MUL DUP2 DUP2 DIV PUSH1 0xA EQ DUP3 ISZERO OR ISZERO PUSH2 0xE56 JUMPI SWAP1 PUSH1 0x64 PUSH2 0xBD1 SWAP4 SWAP3 DIV SWAP2 JUMPDEST DUP1 PUSH2 0xE4B JUMPI JUMPDEST PUSH2 0xE26 JUMPI PUSH2 0x1088 JUMP JUMPDEST SWAP2 DUP3 PUSH2 0xD6F JUMPI JUMPDEST SWAP2 DUP2 PUSH1 0xFF PUSH1 0x7 DUP6 DUP3 DUP3 DUP2 DUP15 SWAP16 DUP15 SWAP16 PUSH32 0xBFE272CCB2AAE70E6AEA9A2A87917E1A3BDEA7A0D7469F17861BEA19081DE6AD SWAP16 SWAP2 PUSH1 0xE0 SWAP16 SWAP15 SWAP13 DUP16 PUSH2 0x3E8 SWAP16 SWAP14 DUP16 SWAP1 SWAP6 DUP16 DUP16 SWAP1 SWAP8 PUSH1 0x6 SWAP5 PUSH1 0x40 SWAP10 PUSH1 0x1 DUP1 PUSH1 0xA0 SHL SUB DUP10 SLOAD AND SWAP8 DUP9 DUP12 MSTORE PUSH1 0xA PUSH1 0x20 MSTORE DUP13 DUP13 DUP13 KECCAK256 SLOAD AND SWAP6 DUP13 MLOAD SWAP10 PUSH2 0xC47 DUP12 PUSH2 0xFE8 JUMP JUMPDEST DUP11 MSTORE PUSH1 0x20 DUP11 ADD SWAP1 DUP1 DUP3 MSTORE DUP16 DUP16 SWAP1 DUP16 DUP14 ADD SWAP7 MOD AND DUP6 MSTORE DUP16 DUP16 SWAP1 PUSH1 0x60 DUP14 ADD SWAP6 MOD AND DUP5 MSTORE DUP16 DUP16 SWAP1 PUSH1 0x80 DUP14 ADD SWAP5 MOD AND DUP4 MSTORE PUSH1 0xA0 DUP12 ADD SWAP6 DUP7 MSTORE PUSH1 0xC0 DUP12 ADD SWAP7 DUP8 MSTORE PUSH1 0xE0 DUP12 ADD SWAP8 DUP9 MSTORE PUSH2 0x3E8 PUSH2 0x100 DUP13 ADD SWAP10 MOD DUP10 MSTORE DUP13 MSTORE PUSH1 0xD PUSH1 0x20 MSTORE DUP13 DUP13 KECCAK256 SWAP10 PUSH1 0x1 DUP1 PUSH1 0xA0 SHL SUB SWAP1 MLOAD AND PUSH1 0x1 PUSH1 0x1 PUSH1 0x60 SHL SUB PUSH1 0xA0 SHL DUP12 SLOAD AND OR DUP11 SSTORE MLOAD PUSH1 0x1 DUP11 ADD SSTORE DUP13 PUSH1 0x2 DUP11 ADD SWAP4 MLOAD AND PUSH3 0xFF0000 PUSH2 0xFF00 DUP6 SLOAD SWAP5 MLOAD PUSH1 0x8 SHL AND SWAP3 MLOAD PUSH1 0x10 SHL AND SWAP3 PUSH3 0xFFFFFF NOT AND OR OR OR SWAP1 SSTORE MLOAD PUSH1 0x3 DUP7 ADD SSTORE MLOAD PUSH1 0x4 DUP6 ADD SSTORE DUP8 PUSH1 0x5 DUP6 ADD SWAP2 MLOAD AND DUP9 NOT DUP3 SLOAD AND OR SWAP1 SSTORE MLOAD SWAP2 ADD SSTORE PUSH1 0xB PUSH1 0x20 MSTORE DUP2 PUSH1 0x1 DUP5 DUP3 KECCAK256 DUP3 DUP2 SSTORE ADD SSTORE PUSH1 0x4 CALLDATALOAD DUP3 MSTORE PUSH1 0xC PUSH1 0x20 MSTORE DUP2 DUP4 DUP2 KECCAK256 SSTORE PUSH1 0x1 DUP1 PUSH1 0xA0 SHL SUB SWAP1 SLOAD AND DUP2 MSTORE PUSH1 0xA PUSH1 0x20 MSTORE KECCAK256 SLOAD AND SWAP8 DUP3 DUP3 PUSH1 0x40 MLOAD SWAP14 MOD AND DUP13 MSTORE MOD AND PUSH1 0x20 DUP11 ADD MSTORE MOD AND PUSH1 0x40 DUP8 ADD MSTORE PUSH1 0x60 DUP7 ADD MSTORE PUSH1 0x80 DUP6 ADD MSTORE PUSH1 0xA0 DUP5 ADD MSTORE MOD PUSH1 0xC0 DUP3 ADD MSTORE LOG2 DUP1 RETURN JUMPDEST PUSH1 0x2 SLOAD PUSH1 0x7 SLOAD DUP11 SLOAD PUSH1 0x1 PUSH1 0x1 PUSH1 0xA0 SHL SUB SWAP1 DUP2 AND SWAP12 SWAP3 SWAP2 DUP2 AND SWAP2 AND DUP1 EXTCODESIZE ISZERO PUSH2 0xE22 JUMPI PUSH1 0x40 MLOAD PUSH4 0xA00C6951 PUSH1 0xE0 SHL DUP2 MSTORE PUSH1 0x1 PUSH1 0x1 PUSH1 0xA0 SHL SUB SWAP3 DUP4 AND PUSH1 0x4 DUP3 ADD MSTORE SWAP12 SWAP1 SWAP2 AND PUSH1 0x24 DUP13 ADD MSTORE PUSH1 0x44 DUP12 ADD DUP6 SWAP1 MSTORE DUP10 SWAP1 DUP12 SWAP1 PUSH1 0x64 SWAP1 DUP3 SWAP1 DUP5 SWAP1 GAS CALL DUP1 ISZERO PUSH2 0xE17 JUMPI PUSH2 0xDDC JUMPI JUMPDEST SWAP9 POP PUSH2 0xBD8 JUMP JUMPDEST SWAP7 SWAP8 SWAP1 SWAP6 SWAP5 SWAP4 SWAP9 PUSH8 0xFFFFFFFFFFFFFFFF DUP2 GT PUSH2 0xE03 JUMPI PUSH1 0x40 MSTORE SWAP7 SWAP6 SWAP4 SWAP5 SWAP3 SWAP4 DUP9 SWAP4 SWAP1 PUSH2 0xDD5 JUMP JUMPDEST PUSH4 0x4E487B71 PUSH1 0xE0 SHL DUP3 MSTORE PUSH1 0x41 PUSH1 0x4 MSTORE PUSH1 0x24 DUP3 REVERT JUMPDEST PUSH1 0x40 MLOAD RETURNDATASIZE DUP12 DUP3 RETURNDATACOPY RETURNDATASIZE SWAP1 REVERT JUMPDEST DUP11 DUP1 REVERT JUMPDEST SWAP1 PUSH2 0xE45 SWAP1 PUSH1 0x9 SLOAD SWAP1 PUSH2 0xE3D PUSH1 0xA DUP4 DIV DUP1 SWAP4 PUSH2 0x1095 JUMP JUMPDEST PUSH1 0x9 SSTORE PUSH2 0x1088 JUMP JUMPDEST SWAP1 PUSH2 0x1088 JUMP JUMPDEST POP PUSH1 0x9 SLOAD ISZERO ISZERO PUSH2 0xBC8 JUMP JUMPDEST PUSH4 0x4E487B71 PUSH1 0xE0 SHL DUP11 MSTORE PUSH1 0x11 PUSH1 0x4 MSTORE PUSH1 0x24 DUP11 REVERT JUMPDEST SWAP1 PUSH1 0x14 PUSH2 0x3E8 DUP9 MOD LT PUSH2 0xE81 JUMPI JUMPDEST PUSH2 0xBD1 SWAP3 PUSH2 0xBC2 JUMP JUMPDEST SWAP1 POP PUSH1 0x5 DUP2 MUL DUP2 DUP2 DIV PUSH1 0x5 EQ DUP3 ISZERO OR ISZERO PUSH2 0xE56 JUMPI PUSH1 0x64 SWAP1 DIV SWAP1 PUSH2 0xE78 JUMP JUMPDEST SWAP1 POP CODESIZE PUSH2 0xB62 JUMP JUMPDEST SWAP2 POP CODESIZE PUSH2 0xB50 JUMP JUMPDEST PUSH4 0x4E487B71 PUSH1 0xE0 SHL DUP9 MSTORE PUSH1 0x11 PUSH1 0x4 MSTORE PUSH1 0x24 DUP9 REVERT JUMPDEST DUP8 MSTORE PUSH1 0xA PUSH1 0x20 MSTORE PUSH1 0x40 DUP8 KECCAK256 DUP1 SLOAD PUSH1 0xFF NOT AND SWAP1 SSTORE PUSH2 0xB56 JUMP JUMPDEST PUSH1 0x40 MLOAD PUSH3 0x461BCD PUSH1 0xE5 SHL DUP2 MSTORE PUSH1 0x20 PUSH1 0x4 DUP3 ADD MSTORE PUSH1 0xC PUSH1 0x24 DUP3 ADD MSTORE PUSH12 0x496E76616C69642067616D65 PUSH1 0xA0 SHL PUSH1 0x44 DUP3 ADD MSTORE PUSH1 0x64 SWAP1 REVERT JUMPDEST PUSH1 0x40 MLOAD PUSH3 0x461BCD PUSH1 0xE5 SHL DUP2 MSTORE PUSH1 0x20 PUSH1 0x4 DUP3 ADD MSTORE PUSH1 0x8 PUSH1 0x24 DUP3 ADD MSTORE PUSH8 0x27B7363C902B2923 PUSH1 0xC1 SHL PUSH1 0x44 DUP3 ADD MSTORE PUSH1 0x64 SWAP1 REVERT JUMPDEST SWAP1 POP CALLVALUE PUSH2 0x628 JUMPI PUSH1 0x20 CALLDATASIZE PUSH1 0x3 NOT ADD SLT PUSH2 0x628 JUMPI PUSH1 0x40 PUSH2 0x120 SWAP3 PUSH1 0x4 CALLDATALOAD DUP2 MSTORE PUSH1 0xD PUSH1 0x20 MSTORE KECCAK256 PUSH1 0x1 DUP1 PUSH1 0xA0 SHL SUB DUP2 SLOAD AND SWAP1 PUSH1 0x1 DUP2 ADD SLOAD PUSH1 0x2 DUP3 ADD SLOAD PUSH1 0xFF PUSH1 0x3 DUP5 ADD SLOAD SWAP2 PUSH1 0x4 DUP6 ADD SLOAD SWAP4 PUSH1 0x6 DUP4 PUSH1 0x5 DUP9 ADD SLOAD AND SWAP7 ADD SLOAD SWAP7 DUP9 MSTORE PUSH1 0x20 DUP9 ADD MSTORE DUP2 DUP2 AND PUSH1 0x40 DUP9 ADD MSTORE DUP2 DUP2 PUSH1 0x8 SHR AND PUSH1 0x60 DUP9 ADD MSTORE PUSH1 0x10 SHR AND PUSH1 0x80 DUP7 ADD MSTORE PUSH1 0xA0 DUP6 ADD MSTORE PUSH1 0xC0 DUP5 ADD MSTORE PUSH1 0xE0 DUP4 ADD MSTORE PUSH2 0x100 DUP3 ADD MSTORE RETURN JUMPDEST PUSH1 0x4 CALLDATALOAD SWAP1 PUSH1 0x1 PUSH1 0x1 PUSH1 0xA0 SHL SUB DUP3 AND DUP3 SUB PUSH2 0xFE3 JUMPI JUMP JUMPDEST PUSH1 0x0 DUP1 REVERT JUMPDEST PUSH2 0x120 DUP2 ADD SWAP1 DUP2 LT PUSH8 0xFFFFFFFFFFFFFFFF DUP3 GT OR PUSH2 0x2D7 JUMPI PUSH1 0x40 MSTORE JUMP JUMPDEST PUSH1 0x40 DUP2 ADD SWAP1 DUP2 LT PUSH8 0xFFFFFFFFFFFFFFFF DUP3 GT OR PUSH2 0x2D7 JUMPI PUSH1 0x40 MSTORE JUMP JUMPDEST PUSH1 0x60 DUP2 ADD SWAP1 DUP2 LT PUSH8 0xFFFFFFFFFFFFFFFF DUP3 GT OR PUSH2 0x2D7 JUMPI PUSH1 0x40 MSTORE JUMP JUMPDEST SWAP1 PUSH1 0x1F DUP1 NOT SWAP2 ADD AND DUP2 ADD SWAP1 DUP2 LT PUSH8 0xFFFFFFFFFFFFFFFF DUP3 GT OR PUSH2 0x2D7 JUMPI PUSH1 0x40 MSTORE JUMP JUMPDEST DUP2 DUP2 MUL SWAP3 SWAP2 DUP2 ISZERO SWAP2 DUP5 DIV EQ OR ISZERO PUSH2 0x1072 JUMPI JUMP JUMPDEST PUSH4 0x4E487B71 PUSH1 0xE0 SHL PUSH1 0x0 MSTORE PUSH1 0x11 PUSH1 0x4 MSTORE PUSH1 0x24 PUSH1 0x0 REVERT JUMPDEST SWAP2 SWAP1 DUP3 ADD DUP1 SWAP3 GT PUSH2 0x1072 JUMPI JUMP JUMPDEST SWAP2 SWAP1 DUP3 SUB SWAP2 DUP3 GT PUSH2 0x1072 JUMPI JUMP JUMPDEST PUSH1 0xFF SWAP1 DUP2 AND SWAP2 AND DUP2 DUP2 EQ SWAP3 SWAP1 DUP4 DUP1 PUSH2 0x112C JUMPI JUMPDEST ISZERO PUSH2 0x10F1 JUMPI POP POP SWAP1 POP PUSH1 0x6 DUP2 EQ PUSH2 0x10E9 JUMPI PUSH1 0x5 DUP2 EQ PUSH2 0x10E1 JUMPI PUSH1 0x4 EQ PUSH2 0x10DB JUMPI PUSH2 0x4E20 SWAP1 JUMP JUMPDEST PUSH2 0xC350 SWAP1 JUMP JUMPDEST POP PUSH3 0x186A0 SWAP1 JUMP JUMPDEST POP PUSH3 0x3D090 SWAP1 JUMP JUMPDEST DUP4 ISZERO PUSH2 0x111F JUMPI JUMPDEST POP DUP3 ISZERO PUSH2 0x1112 JUMPI JUMPDEST POP POP ISZERO PUSH2 0x110D JUMPI PUSH2 0x2710 SWAP1 JUMP JUMPDEST PUSH1 0x0 SWAP1 JUMP JUMPDEST PUSH1 0xFF AND EQ SWAP1 POP CODESIZE DUP1 PUSH2 0x1100 JUMP JUMPDEST PUSH1 0xFF DUP3 AND EQ SWAP3 POP CODESIZE PUSH2 0x10F8 JUMP JUMPDEST POP PUSH1 0xFF DUP3 AND DUP2 EQ PUSH2 0x10B5 JUMP JUMPDEST PUSH1 0x0 SLOAD PUSH1 0x1 PUSH1 0x1 PUSH1 0xA0 SHL SUB AND CALLER SUB PUSH2 0x114C JUMPI JUMP JUMPDEST PUSH1 0x40 MLOAD PUSH4 0x118CDAA7 PUSH1 0xE0 SHL DUP2 MSTORE CALLER PUSH1 0x4 DUP3 ADD MSTORE PUSH1 0x24 SWAP1 REVERT INVALID LOG2 PUSH5 0x6970667358 0x22 SLT KECCAK256 CODECOPY PUSH25 0x88D6D334171DD0618BD39264091CEB99F93787CD280A127CFE 0x2C 0xB3 EXTCODEHASH JUMPI 0xEE PUSH5 0x736F6C6343 STOP ADDMOD XOR STOP CALLER "},"methodIdentifiers":{"MAX_MULTIPLIER_BPS()":"ecf23432","config()":"79502c55","fulfillRandomness(bytes32,uint256)":"1f1f897f","gameCounter()":"2e0be39a","games(uint256)":"117a5b90","getGame(uint256)":"a2f77bcc","getPendingGame(uint256)":"3d598f80","getPrizePool()":"884bf67c","initialize(address,uint256,uint256,uint16)":"cbb6d6bd","owner()":"8da5cb5b","pause()":"8456cb59","pendingGames(uint256)":"579e94ee","playerStreaks(address)":"fee1c5ee","prizePool()":"719ce73e","pythVRF()":"772d84c4","renounceOwnership()":"715018a6","setPythVRF(address)":"83ba98ae","spin(uint256)":"a5b6ea8f","token()":"fc0c546a","transferOwnership(address)":"f2fde38b","unpause()":"3f4ba83a","vrfRequestToGame(bytes32)":"8a7626d1"}}}}}