{"contracts/MonFair.sol":{"MonFair":{"abi":[{"inputs":[],"stateMutability":"nonpayable","type":"constructor"},{"inputs":[{"internalType":"address","name":"owner","type":"address"}],"name":"OwnableInvalidOwner","type":"error"},{"inputs":[{"internalType":"address","name":"account","type":"address"}],"name":"OwnableUnauthorizedAccount","type":"error"},{"inputs":[],"name":"ReentrancyGuardReentrantCall","type":"error"},{"anonymous":false,"inputs":[{"indexed":true,"internalType":"uint256","name":"gameId","type":"uint256"},{"indexed":true,"internalType":"address","name":"winner","type":"address"},{"indexed":false,"internalType":"uint256","name":"prize","type":"uint256"},{"indexed":false,"internalType":"uint256","name":"flipCount","type":"uint256"}],"name":"GameCompleted","type":"event"},{"anonymous":false,"inputs":[{"indexed":true,"internalType":"uint256","name":"gameId","type":"uint256"},{"indexed":false,"internalType":"string","name":"name","type":"string"},{"indexed":true,"internalType":"address","name":"creator","type":"address"},{"indexed":false,"internalType":"enum MonFair.GameType","name":"gameType","type":"uint8"},{"indexed":false,"internalType":"uint256","name":"stake","type":"uint256"},{"indexed":false,"internalType":"uint256","name":"maxPlayers","type":"uint256"}],"name":"GameCreated","type":"event"},{"anonymous":false,"inputs":[{"indexed":true,"internalType":"uint256","name":"gameId","type":"uint256"},{"indexed":true,"internalType":"bytes32","name":"vrfRequestId","type":"bytes32"}],"name":"GameStarted","type":"event"},{"anonymous":false,"inputs":[{"indexed":true,"internalType":"address","name":"previousOwner","type":"address"},{"indexed":true,"internalType":"address","name":"newOwner","type":"address"}],"name":"OwnershipTransferred","type":"event"},{"anonymous":false,"inputs":[{"indexed":true,"internalType":"uint256","name":"gameId","type":"uint256"},{"indexed":true,"internalType":"address","name":"player","type":"address"},{"indexed":false,"internalType":"uint256","name":"flipCount","type":"uint256"},{"indexed":false,"internalType":"uint256","name":"completedAt","type":"uint256"}],"name":"PlayerCompleted","type":"event"},{"anonymous":false,"inputs":[{"indexed":true,"internalType":"uint256","name":"gameId","type":"uint256"},{"indexed":true,"internalType":"address","name":"player","type":"address"},{"indexed":false,"internalType":"uint256","name":"currentPlayers","type":"uint256"},{"indexed":false,"internalType":"uint256","name":"maxPlayers","type":"uint256"}],"name":"PlayerJoined","type":"event"},{"anonymous":false,"inputs":[{"indexed":true,"internalType":"uint256","name":"gameId","type":"uint256"},{"indexed":true,"internalType":"address","name":"winner","type":"address"},{"indexed":false,"internalType":"uint256","name":"amount","type":"uint256"}],"name":"PrizeDistributed","type":"event"},{"anonymous":false,"inputs":[{"indexed":true,"internalType":"uint256","name":"gameId","type":"uint256"},{"indexed":true,"internalType":"bytes32","name":"vrfRequestId","type":"bytes32"},{"indexed":false,"internalType":"uint256[]","name":"cardOrder","type":"uint256[]"}],"name":"VRFFulfilled","type":"event"},{"anonymous":false,"inputs":[{"indexed":true,"internalType":"uint256","name":"gameId","type":"uint256"},{"indexed":true,"internalType":"bytes32","name":"vrfRequestId","type":"bytes32"}],"name":"VRFRequested","type":"event"},{"inputs":[],"name":"AI_ADDRESS","outputs":[{"internalType":"address","name":"","type":"address"}],"stateMutability":"view","type":"function"},{"inputs":[],"name":"COMMISSION_PCT","outputs":[{"internalType":"uint256","name":"","type":"uint256"}],"stateMutability":"view","type":"function"},{"inputs":[],"name":"MAX_PLAYERS","outputs":[{"internalType":"uint256","name":"","type":"uint256"}],"stateMutability":"view","type":"function"},{"inputs":[],"name":"MIN_BET","outputs":[{"internalType":"uint256","name":"","type":"uint256"}],"stateMutability":"view","type":"function"},{"inputs":[],"name":"MIN_PLAYERS","outputs":[{"internalType":"uint256","name":"","type":"uint256"}],"stateMutability":"view","type":"function"},{"inputs":[{"internalType":"uint256","name":"_gameId","type":"uint256"}],"name":"cancelGame","outputs":[],"stateMutability":"nonpayable","type":"function"},{"inputs":[{"internalType":"string","name":"_name","type":"string"},{"internalType":"enum MonFair.GameType","name":"_gameType","type":"uint8"},{"internalType":"uint256","name":"_maxPlayers","type":"uint256"},{"internalType":"uint256","name":"_durationHours","type":"uint256"}],"name":"createGame","outputs":[],"stateMutability":"payable","type":"function"},{"inputs":[{"internalType":"bytes32","name":"_vrfRequestId","type":"bytes32"},{"internalType":"uint256[]","name":"_randomWords","type":"uint256[]"}],"name":"fulfillVRF","outputs":[],"stateMutability":"nonpayable","type":"function"},{"inputs":[{"internalType":"uint256","name":"","type":"uint256"},{"internalType":"uint256","name":"","type":"uint256"}],"name":"gamePlayers","outputs":[{"internalType":"address","name":"","type":"address"}],"stateMutability":"view","type":"function"},{"inputs":[{"internalType":"uint256","name":"","type":"uint256"}],"name":"games","outputs":[{"internalType":"uint256","name":"id","type":"uint256"},{"internalType":"string","name":"name","type":"string"},{"internalType":"address","name":"creator","type":"address"},{"internalType":"enum MonFair.GameType","name":"gameType","type":"uint8"},{"internalType":"enum MonFair.GameStatus","name":"status","type":"uint8"},{"internalType":"uint256","name":"stake","type":"uint256"},{"internalType":"uint256","name":"totalPrize","type":"uint256"},{"internalType":"uint256","name":"maxPlayers","type":"uint256"},{"internalType":"uint256","name":"currentPlayers","type":"uint256"},{"internalType":"uint256","name":"createdAt","type":"uint256"},{"internalType":"uint256","name":"startedAt","type":"uint256"},{"internalType":"uint256","name":"completedAt","type":"uint256"},{"internalType":"uint256","name":"endTime","type":"uint256"},{"internalType":"address","name":"winner","type":"address"},{"internalType":"uint256","name":"winnerFlipCount","type":"uint256"},{"internalType":"bytes32","name":"vrfRequestId","type":"bytes32"},{"internalType":"bool","name":"vrfFulfilled","type":"bool"}],"stateMutability":"view","type":"function"},{"inputs":[],"name":"getActiveGames","outputs":[{"components":[{"internalType":"uint256","name":"id","type":"uint256"},{"internalType":"string","name":"name","type":"string"},{"internalType":"address","name":"creator","type":"address"},{"internalType":"enum MonFair.GameType","name":"gameType","type":"uint8"},{"internalType":"enum MonFair.GameStatus","name":"status","type":"uint8"},{"internalType":"uint256","name":"stake","type":"uint256"},{"internalType":"uint256","name":"totalPrize","type":"uint256"},{"internalType":"uint256","name":"maxPlayers","type":"uint256"},{"internalType":"uint256","name":"currentPlayers","type":"uint256"},{"internalType":"uint256","name":"createdAt","type":"uint256"},{"internalType":"uint256","name":"startedAt","type":"uint256"},{"internalType":"uint256","name":"completedAt","type":"uint256"},{"internalType":"uint256","name":"endTime","type":"uint256"},{"internalType":"address","name":"winner","type":"address"},{"internalType":"uint256","name":"winnerFlipCount","type":"uint256"},{"internalType":"bytes32","name":"vrfRequestId","type":"bytes32"},{"internalType":"uint256[]","name":"cardOrder","type":"uint256[]"},{"internalType":"bool","name":"vrfFulfilled","type":"bool"}],"internalType":"struct MonFair.Game[]","name":"","type":"tuple[]"}],"stateMutability":"view","type":"function"},{"inputs":[{"internalType":"uint256","name":"_gameId","type":"uint256"}],"name":"getCardOrder","outputs":[{"internalType":"uint256[]","name":"","type":"uint256[]"}],"stateMutability":"view","type":"function"},{"inputs":[{"internalType":"uint256","name":"_gameId","type":"uint256"}],"name":"getGame","outputs":[{"components":[{"internalType":"uint256","name":"id","type":"uint256"},{"internalType":"string","name":"name","type":"string"},{"internalType":"address","name":"creator","type":"address"},{"internalType":"enum MonFair.GameType","name":"gameType","type":"uint8"},{"internalType":"enum MonFair.GameStatus","name":"status","type":"uint8"},{"internalType":"uint256","name":"stake","type":"uint256"},{"internalType":"uint256","name":"totalPrize","type":"uint256"},{"internalType":"uint256","name":"maxPlayers","type":"uint256"},{"internalType":"uint256","name":"currentPlayers","type":"uint256"},{"internalType":"uint256","name":"createdAt","type":"uint256"},{"internalType":"uint256","name":"startedAt","type":"uint256"},{"internalType":"uint256","name":"completedAt","type":"uint256"},{"internalType":"uint256","name":"endTime","type":"uint256"},{"internalType":"address","name":"winner","type":"address"},{"internalType":"uint256","name":"winnerFlipCount","type":"uint256"},{"internalType":"bytes32","name":"vrfRequestId","type":"bytes32"},{"internalType":"uint256[]","name":"cardOrder","type":"uint256[]"},{"internalType":"bool","name":"vrfFulfilled","type":"bool"}],"internalType":"struct MonFair.Game","name":"","type":"tuple"}],"stateMutability":"view","type":"function"},{"inputs":[{"internalType":"uint256","name":"_gameId","type":"uint256"}],"name":"getGamePlayers","outputs":[{"internalType":"address[]","name":"","type":"address[]"}],"stateMutability":"view","type":"function"},{"inputs":[{"internalType":"uint256","name":"_gameId","type":"uint256"},{"internalType":"address","name":"_player","type":"address"}],"name":"getPlayer","outputs":[{"components":[{"internalType":"address","name":"playerAddress","type":"address"},{"internalType":"uint256","name":"flipCount","type":"uint256"},{"internalType":"uint256","name":"completedAt","type":"uint256"},{"internalType":"bool","name":"hasCompleted","type":"bool"},{"internalType":"bool","name":"hasJoined","type":"bool"}],"internalType":"struct MonFair.Player","name":"","type":"tuple"}],"stateMutability":"view","type":"function"},{"inputs":[{"internalType":"address","name":"_player","type":"address"}],"name":"getPlayerGames","outputs":[{"internalType":"uint256[]","name":"","type":"uint256[]"}],"stateMutability":"view","type":"function"},{"inputs":[{"internalType":"uint256","name":"_gameId","type":"uint256"}],"name":"joinGame","outputs":[],"stateMutability":"payable","type":"function"},{"inputs":[],"name":"owner","outputs":[{"internalType":"address","name":"","type":"address"}],"stateMutability":"view","type":"function"},{"inputs":[{"internalType":"address","name":"","type":"address"},{"internalType":"uint256","name":"","type":"uint256"}],"name":"playerGames","outputs":[{"internalType":"uint256","name":"","type":"uint256"}],"stateMutability":"view","type":"function"},{"inputs":[{"internalType":"uint256","name":"","type":"uint256"},{"internalType":"address","name":"","type":"address"}],"name":"players","outputs":[{"internalType":"address","name":"playerAddress","type":"address"},{"internalType":"uint256","name":"flipCount","type":"uint256"},{"internalType":"uint256","name":"completedAt","type":"uint256"},{"internalType":"bool","name":"hasCompleted","type":"bool"},{"internalType":"bool","name":"hasJoined","type":"bool"}],"stateMutability":"view","type":"function"},{"inputs":[],"name":"renounceOwnership","outputs":[],"stateMutability":"nonpayable","type":"function"},{"inputs":[{"internalType":"uint256","name":"_gameId","type":"uint256"},{"internalType":"uint256","name":"_flipCount","type":"uint256"}],"name":"submitAICompletion","outputs":[],"stateMutability":"nonpayable","type":"function"},{"inputs":[{"internalType":"uint256","name":"_gameId","type":"uint256"},{"internalType":"uint256","name":"_flipCount","type":"uint256"}],"name":"submitCompletion","outputs":[],"stateMutability":"nonpayable","type":"function"},{"inputs":[{"internalType":"address","name":"newOwner","type":"address"}],"name":"transferOwnership","outputs":[],"stateMutability":"nonpayable","type":"function"},{"inputs":[],"name":"treasuryBalance","outputs":[{"internalType":"uint256","name":"","type":"uint256"}],"stateMutability":"view","type":"function"},{"inputs":[{"internalType":"bytes32","name":"","type":"bytes32"}],"name":"vrfRequests","outputs":[{"internalType":"uint256","name":"","type":"uint256"}],"stateMutability":"view","type":"function"},{"inputs":[],"name":"withdraw","outputs":[],"stateMutability":"nonpayable","type":"function"},{"inputs":[],"name":"withdrawTreasury","outputs":[],"stateMutability":"nonpayable","type":"function"},{"stateMutability":"payable","type":"receive"}],"evm":{"bytecode":{"linkReferences":{},"object":"6080806040523461007e5733156100685760008054336001600160a01b03198216811783556040519290916001600160a01b0316907f8be0079c531659141344cd1fd0a4f28419497f9722a3daafe3b4186f6b6457e09080a360018055612fde90816100848239f35b631e4fbdf760e01b815260006004820152602490fd5b600080fdfe6080604052600436101561001b575b361561001957600080fd5b005b60e060003560e01c9081630a5694c214611f065781630cf9b22114611926578163117a5b90146117fd578163129daf84146117af57816315a40f49146116f7578163166bab95146116765781631939053d146116475781631b76929c14611350575080632c01c2c614611334578063313dab20146113165780633ccfd60b146112e65780634411b3eb146112ca5780636454e58d146111f35780636540742f146111d057806369958ab914611079578063715018a61461102057806378300e1014610e5357806385f07bbe14610e375780638da5cb5b14610e0e578063a2f77bcc14610ccf578063a4249edb14610c38578063c0f8092114610bba578063dec04e5f14610b8e578063dec69afb1461090b578063dfefef9f146108c1578063eb22ebe0146105c4578063efaa55a0146101e65763f2fde38b0361000e57346101e15760203660031901126101e157610171611f5e565b61017961291d565b6001600160a01b039081169081156101c857600054826001600160601b0360a01b821617600055167f8be0079c531659141344cd1fd0a4f28419497f9722a3daafe3b4186f6b6457e0600080a3005b604051631e4fbdf760e01b815260006004820152602490fd5b600080fd5b6020806003193601126101e157600435906101ff61256e565b81600052600481526040600020600281015460ff8160a81c1660048110156104c55761058a5760068201918254906005810192835483101561055657600382019081543410610511578760005260058752604060002033600052875260ff60036040600020015460081c166104db5760a01c60ff169260028410156104c5576004931590816104ba575b506103ca575b5060405161029c81611fb8565b3381528581016000815261031d60036040840193600085526060810194600086526080820194600186528c60005260058c526040600020336000528c5260406000209260018060a01b039051166001600160601b0360a01b8454161783555160018301555160028201550192511515839060ff801983541691151516179055565b51151561ff0082549160081b169061ff001916179055856000526006855261034933604060002061235f565b336000526007855261035f86604060002061239a565b61036984546122dd565b80945501610378348254612303565b905554918260405191838352820152837f1106c14aab1f44b1577fd2f42206ee286f0fbf82c72942bbcdc9028af44216ff60403393a310156103bb575b60018055005b6103c490612591565b806103b5565b858761046c60036040516103dd81611fb8565b731111111111111111111111111111111111111111808252858201600081526040830191600083526005606085019860008a52608086019860018a52600052526040600020906000528d5260406000209260018060a01b039051166001600160601b0360a01b8454161783555160018301555160028201550192511515839060ff801983541691151516179055565b51151561ff0082549160081b169061ff00191617905586600052600686526104976040600020612310565b6104a185546122dd565b8555546104b2838301918254612303565b90558661028f565b600191501488610289565b634e487b7160e01b600052602160045260246000fd5b60405162461bcd60e51b815260048101889052600e60248201526d105b1c9958591e481a9bda5b995960921b6044820152606490fd5b60405162461bcd60e51b815260048101889052601760248201527f496e73756666696369656e742062657420616d6f756e740000000000000000006044820152606490fd5b60405162461bcd60e51b815260048101879052600c60248201526b11d85b59481a5cc8199d5b1b60a21b6044820152606490fd5b60405162461bcd60e51b815260048101849052601260248201527147616d65206e6f7420617661696c61626c6560701b6044820152606490fd5b346101e1576105d2366122af565b906105db61256e565b8060005260209060048252604060002092600284019260ff9384815460a81c169560048710156104c557600f86916106166001809a146124c7565b015416156108845783600052600592838352604060002033600052835260039386856040600020015460081c1615610850578560005280845260406000203360005284528685604060002001541661081757856000528084526040600020336000528452846040600020838a820155426002820155019360ff19948986825416179055876040519484865242838701527fc3e4ef85f4b65d6dd6420cb05accfd021c54723907fb3657617ecbc64ba52c4095898760403393a35460a01c169460028610156104c5576107009888961590816107dc575b816107a4575b50610704575b8989876129c8565b8055005b60408051838101888152446020820152428184015260608101879052919561074d929091600b919061074381608084015b03601f19810183528261200e565b5190200690612303565b9286600052825289846000209773111111111111111111111111111111111111111198896000528452856000208583820155426002820155019182541617905582519182524290820152a3838181808080806106f8565b90508660005283835260406000207311111111111111111111111111111111111111116000528352876040600020015416158b6106f2565b9050866000528383526040600020731111111111111111111111111111111111111111600052835280886040600020015460081c16906106ec565b60405162461bcd60e51b8152600481018590526011602482015270105b1c9958591e4818dbdb5c1b195d1959607a1b6044820152606490fd5b60405162461bcd60e51b815260048101859052600c60248201526b2737ba103090383630bcb2b960a11b6044820152606490fd5b60405162461bcd60e51b8152600481018390526015602482015274159491881b9bdd08199d5b199a5b1b1959081e595d605a1b6044820152606490fd5b346101e1576108cf366122af565b906000526006602052604060002080548210156101e1576020916108f291611f8a565b905460405160039290921b1c6001600160a01b03168152f35b346101e15760403660031901126101e15760043567ffffffffffffffff602480358281116101e157366023820112156101e15780600401359061094d826122c5565b9061095b604051928361200e565b828252602092848484019160051b830101913683116101e15785859101915b838310610b7e575050505061098d61291d565b8460005260088252604060002054938415610b44578460005260048352604060002093600f8501926109c360ff8554161561250a565b604051956109d087611ff1565b600c8088528688019261018036853760005b828110610b2f575060005b828110610abc57505050600e01918651938411610aa857600160401b8411610aa857508154838355808410610a8b575b50906000528360002060005b838110610a7957845460ff19166001178555604051868152899089907f0e3122a662ce967aae888ca4853d0add041acf2f2e54ea9ea9d9c1396f22d6a49080610a74818c018d612185565b0390a3005b82518282015591850191600101610a29565b610aa29083600052848760002091820191016122ec565b88610a1d565b634e487b7160e01b60009081526041600452fd5b610ac5826124a6565b5181840390848211610b1a57610ae160019392610ae79261254e565b82612303565b8b610b08610af583836124b3565b5192610b0185846124b3565b51926124b3565b52610b13828d6124b3565b52016109ed565b87634e487b7160e01b60005260116004526000fd5b8080610b3d6001938d6124b3565b52016109e2565b60405162461bcd60e51b81526004810184905260138186015272125b9d985b1a5908159491881c995c5d595cdd606a1b6044820152606490fd5b823581529181019185910161097a565b346101e15760203660031901126101e15760043560005260086020526020604060002054604051908152f35b346101e15760403660031901126101e15760a0610bd5611f74565b60043560005260056020526040600020600180841b0380921660005260205260ff604060002091825416916001810154906003600282015491015491604051948552602085015260408401528181161515606084015260081c1615156080820152f35b346101e1576020806003193601126101e157600435806000526004825260ff600f604060002001541615610c965760005260048152610c7d600e6040600020016123cf565b90610c92604051928284938452830190612185565b0390f35b60405162461bcd60e51b8152600481018390526011602482015270159491881b9bdd08199d5b199a5b1b1959607a1b6044820152606490fd5b346101e15760203660031901126101e157610ce8612420565b5060043560005260046020526040600020604051610d0581611fd4565b81548152610d1560018301612086565b60208201526002828101546001600160a01b0380821660408501529160a082901c60ff1691908210156104c55760ff91606085015260a81c1660048110156104c557610c929360ff92600f926080860152600382015460a0860152600482015460c0860152600582015460e08601526006820154610100860152600782015461012086015260088201546101408601526009820154610160860152600a820154610180860152600b820154166101a0850152600c8101546101c0850152600d8101546101e0850152610de9600e82016123cf565b61020085015201541615156102208201526040519182916020835260208301906121b9565b346101e15760003660031901126101e1576000546040516001600160a01b039091168152602090f35b346101e15760003660031901126101e157602060405160018152f35b346101e157610e61366122af565b90610e6a61291d565b806000526020916004835260026040600020015460ff8160a81c169060048210156104c557610e9d600160ff93146124c7565b60a01c1660028110156104c557610fea5781600052600583526040600020907311111111111111111111111111111111111111119182600052845260ff60036040600020015460081c1615610fb4578260005260058452604060002082600052845260ff60036040600020015416610f78577fc3e4ef85f4b65d6dd6420cb05accfd021c54723907fb3657617ecbc64ba52c40604084926100199684600052600581528260002086600052815260038360002083600182015542600282015501600160ff1982541617905582519182524290820152a36129c8565b60405162461bcd60e51b8152600481018590526014602482015273105248185b1c9958591e4818dbdb5c1b195d195960621b6044820152606490fd5b60405162461bcd60e51b815260048101859052600e60248201526d4149206e6f7420696e2067616d6560901b6044820152606490fd5b60405162461bcd60e51b815260048101849052600e60248201526d4e6f7420616e2041492067616d6560901b6044820152606490fd5b346101e15760003660031901126101e15761103961291d565b600080546001600160a01b0319811682556001600160a01b03167f8be0079c531659141344cd1fd0a4f28419497f9722a3daafe3b4186f6b6457e08280a3005b346101e1576020806003193601126101e1576004358060005260046020526040600020600281019283549060018060a01b0394338684161480156111c3575b1561118d5760ff8360a81c1660048110156104c5576111515760ff60a81b19909216600360a81b179091556000905b83600052600681526040600020805483101561001957828661110d600695600194611f8a565b919054600392831b1c16731111111111111111111111111111111111111111810361113d575b50500191506110e7565b61114a9187015490612949565b8780611133565b60405162461bcd60e51b815260206004820152601460248201527311d85b5948185b1c9958591e481cdd185c9d195960621b6044820152606490fd5b60405162461bcd60e51b815260206004820152600e60248201526d139bdd08185d5d1a1bdc9a5e995960921b6044820152606490fd5b50338660005416146110b8565b346101e15760003660031901126101e1576020604051670de0b6b3a76400008152f35b346101e15760403660031901126101e15760a061120e611f74565b6000608060405161121e81611fb8565b828152826020820152826040820152826060820152015260043560005260056020526040600020600180841b0380921660005260205260406000206040519161126683611fb8565b815416918281526001820154916020820192835260036002820154916040840192835201549260ff6080606085019482871615158652019460081c161515845260405194855251602085015251604084015251151560608301525115156080820152f35b346101e15760003660031901126101e157602060405160058152f35b346101e15760003660031901126101e1576112ff61291d565b6000546100199047906001600160a01b0316612949565b346101e15760003660031901126101e1576020600354604051908152f35b346101e15760003660031901126101e1576020604051600a8152f35b346101e15760003660031901126101e1576000600160028054915b828111156115c55750611396611380846122c5565b9361138e604051958661200e565b8085526122c5565b60209490601f19018560005b8281106115af5750505060009060015b8481111561141857604080518881528751818a01819052600092600582901b83018101918a8c01918c9085015b8287106113ec5785850386f35b909192938280611408600193603f198a820301865288516121b9565b96019201960195929190926113df565b806000526004875260ff8460406000200154908060a892831c1660048110156104c557158015611589575b611458575b5050611453906122dd565b6113b2565b90919384600052600489526040600020916040519061147682611fd4565b8354825261148660018501612086565b828c0152838801546001600160a01b0380821660408501529560a0959180871c8416918b8310156104c557849260608701521c169060048210156104c5576114539661158196600f936080870152600383015490860152600482015460c08601526005820154898601526006820154610100860152600782015461012086015260088201546101408601526009820154610160860152600a820154610180860152600b820154166101a0850152600c8101546101c0850152600d8101546101e0850152611555600e82016123cf565b6102008501520154161515610220820152611570828a6124b3565b5261157b81896124b3565b506122dd565b929088611448565b508260005260048952808660406000200154831c1660048110156104c557600114611443565b6115b7612420565b8282890101520186906113a2565b8060005260206004815260ff83604060002001548160a891821c1660048110156104c5571592831561161d575b505050611608575b611603906122dd565b61136b565b92611615611603916122dd565b9390506115fa565b60049192935084600052528360406000200154901c1660048110156104c5576001148680806115f2565b346101e15760003660031901126101e15760206040517311111111111111111111111111111111111111118152f35b346101e15760003660031901126101e15761168f61291d565b61169761256e565b60035480156116bb5760006003819055546103b591906001600160a01b0316612949565b60405162461bcd60e51b81526020600482015260146024820152734e6f2066756e647320746f20776974686472617760601b6044820152606490fd5b346101e1576020806003193601126101e15760043560005260068152604060002060405190818382549182815201908192600052846000209060005b868282106117925786866117498288038361200e565b604051928392818401908285525180915260408401929160005b82811061177257505050500390f35b83516001600160a01b031685528695509381019392810192600101611763565b83546001600160a01b031685529093019260019283019201611733565b346101e15760203660031901126101e1576001600160a01b036117d0611f5e565b166000526007602052610c926117e960406000206123cf565b604051918291602083526020830190612185565b346101e15760203660031901126101e157600435600052600460205260406000208054906001810161182e90612086565b9060028101549060038101549060048101546005820154600683015460078401546008850154600986015491600a87015493600160a01b60019003600b8901541695600c89015497600d8a015499600f015460ff169a6040519e8f9e8f9161022090835280602084015282016118a39161212b565b6001600160a01b038f1660408301529d6118c76060830160ff60a084901c1661216b565b608082019060a81c60ff16906118dc91612178565b60a0015260c08d015260e08c01526101008b01526101208a01526101408901526101608801526101808701526101a08601526101c08501526101e084015215156102008301520390f35b60803660031901126101e15760043567ffffffffffffffff8082116101e157366023830112156101e157816004013561195e81612030565b9261196c604051948561200e565b81845236602483830101116101e157816000926024602093018387013784010152600260243510156101e1576119a061256e565b670de0b6b3a76400003410611ec1576001604435101580611eb4575b15611e6f5760243515611e03575b6119d56002546122dd565b90816002558160005260046020526040600020908282558351908111611ded57611a02600183015461204c565b601f8111611dad575b50806020601f8211600114611d4057600091611d35575b508160011b916000199060031b1c19161760018201555b60028101805461ffff60a01b1933169069ffffffffffffffffffff60b01b161760ff60a01b60243560a01b161790553460038201553460048201556044356005820155600681016001815542600783015560016024351480611d2a575b15611d1e57610e10806064350290606435820414606435151715611d0857611abe9042612303565b600a8301555b60405190611ad182611fb8565b33825260208201600081526040830160008152606084019060008252611b58600360808701926001845289600052600560205260406000203360005260205260406000209060018060a01b0380995116966001600160601b0360a01b97888454161783555160018301555160028201550192511515839060ff801983541691151516179055565b5115159080549061ff0019918261ff00809560081b169116179055866000526006602052611b8a33604060002061235f565b336000526007602052611ba187604060002061239a565b866024351580611cfc575b611c13575b88907f73f639a997d47bc9ecf8116dac1744591113286ad7fdb2b14682af6efcb58d39611be96040519360808552608085019061212b565b92611bf96020820160243561216b565b34604082015260443560608201528033940390a360018055005b611caa600360029760405190611c2882611fb8565b73111111111111111111111111111111111111111197888352602083019060008252604084019260008452606085019a60008c52608086019860018a52600052600560205260406000209060005260205260406000209451169084541617835551600183015551898201550194511515859060ff801983541691151516179055565b5115159183549260081b169116179055836000526006602052611cd06040600020612310565b556004611ce4600383015482840154612303565b910155611cf081612591565b82808080808086611bb1565b50600160443514611bac565b634e487b7160e01b600052601160045260246000fd5b6000600a830155611ac4565b506064351515611a96565b905084015185611a22565b91506001830160005260206000206000925b601f1983168410611d95576001935082601f19811610611d7c575b5050811b016001820155611a39565b86015160001960f88460031b161c191690558580611d6d565b86810151825560209384019360019092019101611d52565b611ddd90600184016000526020600020601f840160051c81019160208510611de3575b601f0160051c01906122ec565b84611a0b565b9091508190611dd0565b634e487b7160e01b600052604160045260246000fd5b6001604435148015611e63575b6119ca5760405162461bcd60e51b815260206004820152602160248201527f41492067616d6573206d75737420686176652031206f72203220706c617965726044820152607360f81b6064820152608490fd5b50600260443514611e10565b60405162461bcd60e51b815260206004820152601f60248201527f506c6179657273206d757374206265206265747765656e203120616e642035006044820152606490fd5b50600560443511156119bc565b60405162461bcd60e51b815260206004820152601a60248201527f426574206d757374206265206174206c656173742031204d4f4e0000000000006044820152606490fd5b346101e15760403660031901126101e157611f1f611f5e565b6001600160a01b03166000908152600760205260409020805460243591908210156101e157602091611f5091611f8a565b90546040519160031b1c8152f35b600435906001600160a01b03821682036101e157565b602435906001600160a01b03821682036101e157565b8054821015611fa25760005260206000200190600090565b634e487b7160e01b600052603260045260246000fd5b60a0810190811067ffffffffffffffff821117611ded57604052565b610240810190811067ffffffffffffffff821117611ded57604052565b6101a0810190811067ffffffffffffffff821117611ded57604052565b90601f8019910116810190811067ffffffffffffffff821117611ded57604052565b67ffffffffffffffff8111611ded57601f01601f191660200190565b90600182811c9216801561207c575b602083101461206657565b634e487b7160e01b600052602260045260246000fd5b91607f169161205b565b906040519182600082546120998161204c565b9081845260209460019160018116908160001461210957506001146120ca575b5050506120c89250038361200e565b565b600090815285812095935091905b8183106120f15750506120c893508201013880806120b9565b855488840185015294850194879450918301916120d8565b925050506120c894925060ff191682840152151560051b8201013880806120b9565b919082519283825260005b848110612157575050826000602080949584010152601f8019910116010190565b602081830181015184830182015201612136565b9060028210156104c55752565b9060048210156104c55752565b90815180825260208080930193019160005b8281106121a5575050505090565b835185529381019392810192600101612197565b9061229f6121db6102408451845260208501519080602086015284019061212b565b604084015160018060a01b0380911660408501526122016060860151606086019061216b565b61221360808601516080860190612178565b60a085015160a085015260c085015160c085015260e085015160e0850152610100808601519085015261012080860151908501526101408086015190850152610160808601519085015261018080860151908501526101a0908186015116908401526101c080850151908401526101e08085015190840152610200808501519084830390850152612185565b9161022080910151151591015290565b60409060031901126101e1576004359060243590565b67ffffffffffffffff8111611ded5760051b60200190565b6000198114611d085760010190565b8181106122f7575050565b600081556001016122ec565b91908201809211611d0857565b8054600160401b811015611ded5761232d91600182018155611f8a565b81546001600160a01b0360039290921b91821b191673111111111111111111111111111111111111111190911b179055565b8054600160401b811015611ded5761237c91600182018155611f8a565b60018060a09493941b038084549260031b9316831b921b1916179055565b8054600160401b811015611ded576123b791600182018155611f8a565b819291549060031b91821b91600019901b1916179055565b90604051918281549182825260209260208301916000526020600020936000905b828210612406575050506120c89250038361200e565b8554845260019586019588955093810193909101906123f0565b6040519061242d82611fd4565b81610220600091828152606060208201528260408201528260608201528260808201528260a08201528260c08201528260e08201528261010082015282610120820152826101408201528261016082015282610180820152826101a0820152826101c0820152826101e082015260606102008201520152565b805115611fa25760200190565b8051821015611fa25760209160051b010190565b156124ce57565b60405162461bcd60e51b815260206004820152601460248201527347616d65206e6f7420696e2070726f677265737360601b6044820152606490fd5b1561251157565b60405162461bcd60e51b815260206004820152601560248201527415949188185b1c9958591e48199d5b199a5b1b1959605a1b6044820152606490fd5b8115612558570690565b634e487b7160e01b600052601260045260246000fd5b60026001541461257f576002600155565b604051633ee5aeb560e01b8152600490fd5b806000526004602052604060002090600282019182549260ff8460a81c1660048110156104c5576128df5760068201546005830154116128a55760ff60a81b19909316600160a81b179092554260088301819055604080516020810184815291810192909252446060830152600d939161260e8160808101610735565b51902092839101558160005260086020528060406000205581817fb4a411a01bc386893734d83e17411a973f9dbb12732aff7a88d6964f1360b160600080a381817ff7617d06180c24c92bad8c8436c3ae97409a09e1f5655da6c0807f50c5f96748600080a3806000526004602052604060002061269360ff600f830154161561250a565b604051906040820182811067ffffffffffffffff821117611ded576040526001825260203681840137604080516020810185815244928201929092524260608201524360808201526126e88160a08101610735565b5190206126f4836124a6565b526040519161270283611ff1565b600c8352602083019061018036833760005b600c8110612890575060005b600c81106127f0575050600e820183519167ffffffffffffffff8311611ded57600160401b8311611ded5781548383558084106127d2575b5090600052602060002060005b8381106127be57505050600f909101805460ff191660011790555060405160208082527f0e3122a662ce967aae888ca4853d0add041acf2f2e54ea9ea9d9c1396f22d6a49282916127b99190830190612185565b0390a3565b600190602084519401938184015501612765565b6127ea908360005284602060002091820191016122ec565b38612758565b6127f9826124a6565b519080600c03600c8111611d0857610ae16128169160019461254e565b8161284f575b61282681886124b3565b519061283d612835848a6124b3565b5191896124b3565b5261284882886124b3565b5201612720565b612858846124a6565b5160408051602081019283529081018490526060810183905261287e8160808101610735565b51902061288a856124a6565b5261281c565b808061289e600193886124b3565b5201612714565b60405162461bcd60e51b81526020600482015260126024820152714e6f7420656e6f75676820706c617965727360701b6044820152606490fd5b60405162461bcd60e51b815260206004820152601660248201527511d85b594818d85b9b9bdd081899481cdd185c9d195960521b6044820152606490fd5b6000546001600160a01b0316330361293157565b60405163118cdaa760e01b8152336004820152602490fd5b6000918291829182916001600160a01b03165af13d156129c3573d61296d81612030565b9061297b604051928361200e565b8152600060203d92013e5b1561298d57565b60405162461bcd60e51b815260206004820152600e60248201526d14185e5b595b9d0819985a5b195960921b6044820152606490fd5b612986565b6000818152602090600460205260409160408220600a810154908115159182612ac9575b5081612a97575b50612a8b5760019291839160019382955b612a1f575b505050509050612a165750565b6120c890612ad4565b868352600682528083208054871015612a8557612a3e8760ff92611f8a565b905489865260058552838620600392831b9190911c6001600160a01b03168652845282852001541615612a75579483019483612a04565b5050925050508038808080612a09565b50612a09565b5050506120c890612ad4565b60ff91506002015460a81c166004811015612ab557600114386129f3565b634e487b7160e01b83526021600452602483fd5b4210159150386129ec565b906000828152600492602084815260409283812093600285019182549560ff9360ff8860a81c16948a861015612f9557612b1160018097146124c7565b83906000199060ff8b60a01c166002811015612f8157889190612ea4575050508784525060068087528484205485518089018a8152446020820152426040820152606081019290925291939160649190612b6e8160808401610735565b51902006849087600019958188905b612e24575b50505060311180612e12575b15612dde5792915b6001600160a01b038416998a15612da957600b830180546001600160a01b0319168c179055600c830184905560ff60a81b1916600160a91b1790554260098201558a0154845190815286810191909152879087907fa3a193cd49fb44d3709b2d13235998e900d960268b8356d3c2233340fd215c38908690a3858252888552828220908982015460ff600284015460a01c166002811015612d9657612cf657507311111111111111111111111111111111111111118803612cb957506003015480931b9280840460021490151715612ca657507fdc1d0b6a7cbfa6f3b2d4325bab5a169b265ad0b2b4022fb550364f0dfeeb6a749394959650612c9b82600354612303565b6003555b51908152a3565b634e487b7160e01b815260118852602490fd5b93507fdc1d0b6a7cbfa6f3b2d4325bab5a169b265ad0b2b4022fb550364f0dfeeb6a749596979850612cf19150600301548093612949565b612c9f565b809550600a9193925002848104600a1485151715612d8357606490049182850391858311612d7057507fdc1d0b6a7cbfa6f3b2d4325bab5a169b265ad0b2b4022fb550364f0dfeeb6a74969798995090612d4f91612949565b80612d5b575b50612c9f565b612d6790600354612303565b60035538612d55565b634e487b7160e01b815260118b52602490fd5b634e487b7160e01b825260118a52602482fd5b634e487b7160e01b855260218c52602485fd5b865162461bcd60e51b8152808e018a9052600f60248201526e139bc81dda5b9b995c88199bdd5b99608a1b6044820152606490fd5b5091507311111111111111111111111111111111111111119187845260058752848420838552875285858520015491612b96565b506001600160a01b0381161515612b8e565b8c8952818c528989208054821015612e9e5781612e4091611f8a565b905460039190911b1c6001600160a01b0316731111111111111111111111111111111111111110198101612e775750820182612b7d565b8d8a5260058d528a8a20818b528d528a8a208c0154985094508a9250389150819050612b82565b50612b82565b600a8694969593950154908115159182612f76575b5087835b612ecb575b50505050612b96565b8c895260068c528c8a8d8b8281208054861015612f6c5788938892612ef1888a94611f8a565b905497825260058652828220600391821b9890981c6001600160a01b031680835297909552209282612f5e575b5050612f5557015480151580612f4c575b612f40575b505083905b0183612ebd565b90985096508338612f34565b50888110612f2f565b50919050612f39565b830154161590508538612f1e565b5050505050612ec2565b421015915038612eb9565b50634e487b7160e01b865260218d52602486fd5b634e487b7160e01b845260218b52602484fdfea264697066735822122011912dbc6445241fd1a7333227977b9c95cdd519eba3352d025bb911ef570b5664736f6c63430008180033","opcodes":"PUSH1 0x80 DUP1 PUSH1 0x40 MSTORE CALLVALUE PUSH2 0x7E JUMPI CALLER ISZERO PUSH2 0x68 JUMPI PUSH1 0x0 DUP1 SLOAD CALLER PUSH1 0x1 PUSH1 0x1 PUSH1 0xA0 SHL SUB NOT DUP3 AND DUP2 OR DUP4 SSTORE PUSH1 0x40 MLOAD SWAP3 SWAP1 SWAP2 PUSH1 0x1 PUSH1 0x1 PUSH1 0xA0 SHL SUB AND SWAP1 PUSH32 0x8BE0079C531659141344CD1FD0A4F28419497F9722A3DAAFE3B4186F6B6457E0 SWAP1 DUP1 LOG3 PUSH1 0x1 DUP1 SSTORE PUSH2 0x2FDE SWAP1 DUP2 PUSH2 0x84 DUP3 CODECOPY RETURN JUMPDEST PUSH4 0x1E4FBDF7 PUSH1 0xE0 SHL DUP2 MSTORE PUSH1 0x0 PUSH1 0x4 DUP3 ADD MSTORE PUSH1 0x24 SWAP1 REVERT JUMPDEST PUSH1 0x0 DUP1 REVERT INVALID PUSH1 0x80 PUSH1 0x40 MSTORE PUSH1 0x4 CALLDATASIZE LT ISZERO PUSH2 0x1B JUMPI JUMPDEST CALLDATASIZE ISZERO PUSH2 0x19 JUMPI PUSH1 0x0 DUP1 REVERT JUMPDEST STOP JUMPDEST PUSH1 0xE0 PUSH1 0x0 CALLDATALOAD PUSH1 0xE0 SHR SWAP1 DUP2 PUSH4 0xA5694C2 EQ PUSH2 0x1F06 JUMPI DUP2 PUSH4 0xCF9B221 EQ PUSH2 0x1926 JUMPI DUP2 PUSH4 0x117A5B90 EQ PUSH2 0x17FD JUMPI DUP2 PUSH4 0x129DAF84 EQ PUSH2 0x17AF JUMPI DUP2 PUSH4 0x15A40F49 EQ PUSH2 0x16F7 JUMPI DUP2 PUSH4 0x166BAB95 EQ PUSH2 0x1676 JUMPI DUP2 PUSH4 0x1939053D EQ PUSH2 0x1647 JUMPI DUP2 PUSH4 0x1B76929C EQ PUSH2 0x1350 JUMPI POP DUP1 PUSH4 0x2C01C2C6 EQ PUSH2 0x1334 JUMPI DUP1 PUSH4 0x313DAB20 EQ PUSH2 0x1316 JUMPI DUP1 PUSH4 0x3CCFD60B EQ PUSH2 0x12E6 JUMPI DUP1 PUSH4 0x4411B3EB EQ PUSH2 0x12CA JUMPI DUP1 PUSH4 0x6454E58D EQ PUSH2 0x11F3 JUMPI DUP1 PUSH4 0x6540742F EQ PUSH2 0x11D0 JUMPI DUP1 PUSH4 0x69958AB9 EQ PUSH2 0x1079 JUMPI DUP1 PUSH4 0x715018A6 EQ PUSH2 0x1020 JUMPI DUP1 PUSH4 0x78300E10 EQ PUSH2 0xE53 JUMPI DUP1 PUSH4 0x85F07BBE EQ PUSH2 0xE37 JUMPI DUP1 PUSH4 0x8DA5CB5B EQ PUSH2 0xE0E JUMPI DUP1 PUSH4 0xA2F77BCC EQ PUSH2 0xCCF JUMPI DUP1 PUSH4 0xA4249EDB EQ PUSH2 0xC38 JUMPI DUP1 PUSH4 0xC0F80921 EQ PUSH2 0xBBA JUMPI DUP1 PUSH4 0xDEC04E5F EQ PUSH2 0xB8E JUMPI DUP1 PUSH4 0xDEC69AFB EQ PUSH2 0x90B JUMPI DUP1 PUSH4 0xDFEFEF9F EQ PUSH2 0x8C1 JUMPI DUP1 PUSH4 0xEB22EBE0 EQ PUSH2 0x5C4 JUMPI DUP1 PUSH4 0xEFAA55A0 EQ PUSH2 0x1E6 JUMPI PUSH4 0xF2FDE38B SUB PUSH2 0xE JUMPI CALLVALUE PUSH2 0x1E1 JUMPI PUSH1 0x20 CALLDATASIZE PUSH1 0x3 NOT ADD SLT PUSH2 0x1E1 JUMPI PUSH2 0x171 PUSH2 0x1F5E JUMP JUMPDEST PUSH2 0x179 PUSH2 0x291D JUMP JUMPDEST PUSH1 0x1 PUSH1 0x1 PUSH1 0xA0 SHL SUB SWAP1 DUP2 AND SWAP1 DUP2 ISZERO PUSH2 0x1C8 JUMPI PUSH1 0x0 SLOAD DUP3 PUSH1 0x1 PUSH1 0x1 PUSH1 0x60 SHL SUB PUSH1 0xA0 SHL DUP3 AND OR PUSH1 0x0 SSTORE AND PUSH32 0x8BE0079C531659141344CD1FD0A4F28419497F9722A3DAAFE3B4186F6B6457E0 PUSH1 0x0 DUP1 LOG3 STOP JUMPDEST PUSH1 0x40 MLOAD PUSH4 0x1E4FBDF7 PUSH1 0xE0 SHL DUP2 MSTORE PUSH1 0x0 PUSH1 0x4 DUP3 ADD MSTORE PUSH1 0x24 SWAP1 REVERT JUMPDEST PUSH1 0x0 DUP1 REVERT JUMPDEST PUSH1 0x20 DUP1 PUSH1 0x3 NOT CALLDATASIZE ADD SLT PUSH2 0x1E1 JUMPI PUSH1 0x4 CALLDATALOAD SWAP1 PUSH2 0x1FF PUSH2 0x256E JUMP JUMPDEST DUP2 PUSH1 0x0 MSTORE PUSH1 0x4 DUP2 MSTORE PUSH1 0x40 PUSH1 0x0 KECCAK256 PUSH1 0x2 DUP2 ADD SLOAD PUSH1 0xFF DUP2 PUSH1 0xA8 SHR AND PUSH1 0x4 DUP2 LT ISZERO PUSH2 0x4C5 JUMPI PUSH2 0x58A JUMPI PUSH1 0x6 DUP3 ADD SWAP2 DUP3 SLOAD SWAP1 PUSH1 0x5 DUP2 ADD SWAP3 DUP4 SLOAD DUP4 LT ISZERO PUSH2 0x556 JUMPI PUSH1 0x3 DUP3 ADD SWAP1 DUP2 SLOAD CALLVALUE LT PUSH2 0x511 JUMPI DUP8 PUSH1 0x0 MSTORE PUSH1 0x5 DUP8 MSTORE PUSH1 0x40 PUSH1 0x0 KECCAK256 CALLER PUSH1 0x0 MSTORE DUP8 MSTORE PUSH1 0xFF PUSH1 0x3 PUSH1 0x40 PUSH1 0x0 KECCAK256 ADD SLOAD PUSH1 0x8 SHR AND PUSH2 0x4DB JUMPI PUSH1 0xA0 SHR PUSH1 0xFF AND SWAP3 PUSH1 0x2 DUP5 LT ISZERO PUSH2 0x4C5 JUMPI PUSH1 0x4 SWAP4 ISZERO SWAP1 DUP2 PUSH2 0x4BA JUMPI JUMPDEST POP PUSH2 0x3CA JUMPI JUMPDEST POP PUSH1 0x40 MLOAD PUSH2 0x29C DUP2 PUSH2 0x1FB8 JUMP JUMPDEST CALLER DUP2 MSTORE DUP6 DUP2 ADD PUSH1 0x0 DUP2 MSTORE PUSH2 0x31D PUSH1 0x3 PUSH1 0x40 DUP5 ADD SWAP4 PUSH1 0x0 DUP6 MSTORE PUSH1 0x60 DUP2 ADD SWAP5 PUSH1 0x0 DUP7 MSTORE PUSH1 0x80 DUP3 ADD SWAP5 PUSH1 0x1 DUP7 MSTORE DUP13 PUSH1 0x0 MSTORE PUSH1 0x5 DUP13 MSTORE PUSH1 0x40 PUSH1 0x0 KECCAK256 CALLER PUSH1 0x0 MSTORE DUP13 MSTORE PUSH1 0x40 PUSH1 0x0 KECCAK256 SWAP3 PUSH1 0x1 DUP1 PUSH1 0xA0 SHL SUB SWAP1 MLOAD AND PUSH1 0x1 PUSH1 0x1 PUSH1 0x60 SHL SUB PUSH1 0xA0 SHL DUP5 SLOAD AND OR DUP4 SSTORE MLOAD PUSH1 0x1 DUP4 ADD SSTORE MLOAD PUSH1 0x2 DUP3 ADD SSTORE ADD SWAP3 MLOAD ISZERO ISZERO DUP4 SWAP1 PUSH1 0xFF DUP1 NOT DUP4 SLOAD AND SWAP2 ISZERO ISZERO AND OR SWAP1 SSTORE JUMP JUMPDEST MLOAD ISZERO ISZERO PUSH2 0xFF00 DUP3 SLOAD SWAP2 PUSH1 0x8 SHL AND SWAP1 PUSH2 0xFF00 NOT AND OR SWAP1 SSTORE DUP6 PUSH1 0x0 MSTORE PUSH1 0x6 DUP6 MSTORE PUSH2 0x349 CALLER PUSH1 0x40 PUSH1 0x0 KECCAK256 PUSH2 0x235F JUMP JUMPDEST CALLER PUSH1 0x0 MSTORE PUSH1 0x7 DUP6 MSTORE PUSH2 0x35F DUP7 PUSH1 0x40 PUSH1 0x0 KECCAK256 PUSH2 0x239A JUMP JUMPDEST PUSH2 0x369 DUP5 SLOAD PUSH2 0x22DD JUMP JUMPDEST DUP1 SWAP5 SSTORE ADD PUSH2 0x378 CALLVALUE DUP3 SLOAD PUSH2 0x2303 JUMP JUMPDEST SWAP1 SSTORE SLOAD SWAP2 DUP3 PUSH1 0x40 MLOAD SWAP2 DUP4 DUP4 MSTORE DUP3 ADD MSTORE DUP4 PUSH32 0x1106C14AAB1F44B1577FD2F42206EE286F0FBF82C72942BBCDC9028AF44216FF PUSH1 0x40 CALLER SWAP4 LOG3 LT ISZERO PUSH2 0x3BB JUMPI JUMPDEST PUSH1 0x1 DUP1 SSTORE STOP JUMPDEST PUSH2 0x3C4 SWAP1 PUSH2 0x2591 JUMP JUMPDEST DUP1 PUSH2 0x3B5 JUMP JUMPDEST DUP6 DUP8 PUSH2 0x46C PUSH1 0x3 PUSH1 0x40 MLOAD PUSH2 0x3DD DUP2 PUSH2 0x1FB8 JUMP JUMPDEST PUSH20 0x1111111111111111111111111111111111111111 DUP1 DUP3 MSTORE DUP6 DUP3 ADD PUSH1 0x0 DUP2 MSTORE PUSH1 0x40 DUP4 ADD SWAP2 PUSH1 0x0 DUP4 MSTORE PUSH1 0x5 PUSH1 0x60 DUP6 ADD SWAP9 PUSH1 0x0 DUP11 MSTORE PUSH1 0x80 DUP7 ADD SWAP9 PUSH1 0x1 DUP11 MSTORE PUSH1 0x0 MSTORE MSTORE PUSH1 0x40 PUSH1 0x0 KECCAK256 SWAP1 PUSH1 0x0 MSTORE DUP14 MSTORE PUSH1 0x40 PUSH1 0x0 KECCAK256 SWAP3 PUSH1 0x1 DUP1 PUSH1 0xA0 SHL SUB SWAP1 MLOAD AND PUSH1 0x1 PUSH1 0x1 PUSH1 0x60 SHL SUB PUSH1 0xA0 SHL DUP5 SLOAD AND OR DUP4 SSTORE MLOAD PUSH1 0x1 DUP4 ADD SSTORE MLOAD PUSH1 0x2 DUP3 ADD SSTORE ADD SWAP3 MLOAD ISZERO ISZERO DUP4 SWAP1 PUSH1 0xFF DUP1 NOT DUP4 SLOAD AND SWAP2 ISZERO ISZERO AND OR SWAP1 SSTORE JUMP JUMPDEST MLOAD ISZERO ISZERO PUSH2 0xFF00 DUP3 SLOAD SWAP2 PUSH1 0x8 SHL AND SWAP1 PUSH2 0xFF00 NOT AND OR SWAP1 SSTORE DUP7 PUSH1 0x0 MSTORE PUSH1 0x6 DUP7 MSTORE PUSH2 0x497 PUSH1 0x40 PUSH1 0x0 KECCAK256 PUSH2 0x2310 JUMP JUMPDEST PUSH2 0x4A1 DUP6 SLOAD PUSH2 0x22DD JUMP JUMPDEST DUP6 SSTORE SLOAD PUSH2 0x4B2 DUP4 DUP4 ADD SWAP2 DUP3 SLOAD PUSH2 0x2303 JUMP JUMPDEST SWAP1 SSTORE DUP7 PUSH2 0x28F JUMP JUMPDEST PUSH1 0x1 SWAP2 POP EQ DUP9 PUSH2 0x289 JUMP JUMPDEST PUSH4 0x4E487B71 PUSH1 0xE0 SHL PUSH1 0x0 MSTORE PUSH1 0x21 PUSH1 0x4 MSTORE PUSH1 0x24 PUSH1 0x0 REVERT JUMPDEST PUSH1 0x40 MLOAD PUSH3 0x461BCD PUSH1 0xE5 SHL DUP2 MSTORE PUSH1 0x4 DUP2 ADD DUP9 SWAP1 MSTORE PUSH1 0xE PUSH1 0x24 DUP3 ADD MSTORE PUSH14 0x105B1C9958591E481A9BDA5B9959 PUSH1 0x92 SHL PUSH1 0x44 DUP3 ADD MSTORE PUSH1 0x64 SWAP1 REVERT JUMPDEST PUSH1 0x40 MLOAD PUSH3 0x461BCD PUSH1 0xE5 SHL DUP2 MSTORE PUSH1 0x4 DUP2 ADD DUP9 SWAP1 MSTORE PUSH1 0x17 PUSH1 0x24 DUP3 ADD MSTORE PUSH32 0x496E73756666696369656E742062657420616D6F756E74000000000000000000 PUSH1 0x44 DUP3 ADD MSTORE PUSH1 0x64 SWAP1 REVERT JUMPDEST PUSH1 0x40 MLOAD PUSH3 0x461BCD PUSH1 0xE5 SHL DUP2 MSTORE PUSH1 0x4 DUP2 ADD DUP8 SWAP1 MSTORE PUSH1 0xC PUSH1 0x24 DUP3 ADD MSTORE PUSH12 0x11D85B59481A5CC8199D5B1B PUSH1 0xA2 SHL PUSH1 0x44 DUP3 ADD MSTORE PUSH1 0x64 SWAP1 REVERT JUMPDEST PUSH1 0x40 MLOAD PUSH3 0x461BCD PUSH1 0xE5 SHL DUP2 MSTORE PUSH1 0x4 DUP2 ADD DUP5 SWAP1 MSTORE PUSH1 0x12 PUSH1 0x24 DUP3 ADD MSTORE PUSH18 0x47616D65206E6F7420617661696C61626C65 PUSH1 0x70 SHL PUSH1 0x44 DUP3 ADD MSTORE PUSH1 0x64 SWAP1 REVERT JUMPDEST CALLVALUE PUSH2 0x1E1 JUMPI PUSH2 0x5D2 CALLDATASIZE PUSH2 0x22AF JUMP JUMPDEST SWAP1 PUSH2 0x5DB PUSH2 0x256E JUMP JUMPDEST DUP1 PUSH1 0x0 MSTORE PUSH1 0x20 SWAP1 PUSH1 0x4 DUP3 MSTORE PUSH1 0x40 PUSH1 0x0 KECCAK256 SWAP3 PUSH1 0x2 DUP5 ADD SWAP3 PUSH1 0xFF SWAP4 DUP5 DUP2 SLOAD PUSH1 0xA8 SHR AND SWAP6 PUSH1 0x4 DUP8 LT ISZERO PUSH2 0x4C5 JUMPI PUSH1 0xF DUP7 SWAP2 PUSH2 0x616 PUSH1 0x1 DUP1 SWAP11 EQ PUSH2 0x24C7 JUMP JUMPDEST ADD SLOAD AND ISZERO PUSH2 0x884 JUMPI DUP4 PUSH1 0x0 MSTORE PUSH1 0x5 SWAP3 DUP4 DUP4 MSTORE PUSH1 0x40 PUSH1 0x0 KECCAK256 CALLER PUSH1 0x0 MSTORE DUP4 MSTORE PUSH1 0x3 SWAP4 DUP7 DUP6 PUSH1 0x40 PUSH1 0x0 KECCAK256 ADD SLOAD PUSH1 0x8 SHR AND ISZERO PUSH2 0x850 JUMPI DUP6 PUSH1 0x0 MSTORE DUP1 DUP5 MSTORE PUSH1 0x40 PUSH1 0x0 KECCAK256 CALLER PUSH1 0x0 MSTORE DUP5 MSTORE DUP7 DUP6 PUSH1 0x40 PUSH1 0x0 KECCAK256 ADD SLOAD AND PUSH2 0x817 JUMPI DUP6 PUSH1 0x0 MSTORE DUP1 DUP5 MSTORE PUSH1 0x40 PUSH1 0x0 KECCAK256 CALLER PUSH1 0x0 MSTORE DUP5 MSTORE DUP5 PUSH1 0x40 PUSH1 0x0 KECCAK256 DUP4 DUP11 DUP3 ADD SSTORE TIMESTAMP PUSH1 0x2 DUP3 ADD SSTORE ADD SWAP4 PUSH1 0xFF NOT SWAP5 DUP10 DUP7 DUP3 SLOAD AND OR SWAP1 SSTORE DUP8 PUSH1 0x40 MLOAD SWAP5 DUP5 DUP7 MSTORE TIMESTAMP DUP4 DUP8 ADD MSTORE PUSH32 0xC3E4EF85F4B65D6DD6420CB05ACCFD021C54723907FB3657617ECBC64BA52C40 SWAP6 DUP10 DUP8 PUSH1 0x40 CALLER SWAP4 LOG3 SLOAD PUSH1 0xA0 SHR AND SWAP5 PUSH1 0x2 DUP7 LT ISZERO PUSH2 0x4C5 JUMPI PUSH2 0x700 SWAP9 DUP9 SWAP7 ISZERO SWAP1 DUP2 PUSH2 0x7DC JUMPI JUMPDEST DUP2 PUSH2 0x7A4 JUMPI JUMPDEST POP PUSH2 0x704 JUMPI JUMPDEST DUP10 DUP10 DUP8 PUSH2 0x29C8 JUMP JUMPDEST DUP1 SSTORE STOP JUMPDEST PUSH1 0x40 DUP1 MLOAD DUP4 DUP2 ADD DUP9 DUP2 MSTORE PREVRANDAO PUSH1 0x20 DUP3 ADD MSTORE TIMESTAMP DUP2 DUP5 ADD MSTORE PUSH1 0x60 DUP2 ADD DUP8 SWAP1 MSTORE SWAP2 SWAP6 PUSH2 0x74D SWAP3 SWAP1 SWAP2 PUSH1 0xB SWAP2 SWAP1 PUSH2 0x743 DUP2 PUSH1 0x80 DUP5 ADD JUMPDEST SUB PUSH1 0x1F NOT DUP2 ADD DUP4 MSTORE DUP3 PUSH2 0x200E JUMP JUMPDEST MLOAD SWAP1 KECCAK256 MOD SWAP1 PUSH2 0x2303 JUMP JUMPDEST SWAP3 DUP7 PUSH1 0x0 MSTORE DUP3 MSTORE DUP10 DUP5 PUSH1 0x0 KECCAK256 SWAP8 PUSH20 0x1111111111111111111111111111111111111111 SWAP9 DUP10 PUSH1 0x0 MSTORE DUP5 MSTORE DUP6 PUSH1 0x0 KECCAK256 DUP6 DUP4 DUP3 ADD SSTORE TIMESTAMP PUSH1 0x2 DUP3 ADD SSTORE ADD SWAP2 DUP3 SLOAD AND OR SWAP1 SSTORE DUP3 MLOAD SWAP2 DUP3 MSTORE TIMESTAMP SWAP1 DUP3 ADD MSTORE LOG3 DUP4 DUP2 DUP2 DUP1 DUP1 DUP1 DUP1 PUSH2 0x6F8 JUMP JUMPDEST SWAP1 POP DUP7 PUSH1 0x0 MSTORE DUP4 DUP4 MSTORE PUSH1 0x40 PUSH1 0x0 KECCAK256 PUSH20 0x1111111111111111111111111111111111111111 PUSH1 0x0 MSTORE DUP4 MSTORE DUP8 PUSH1 0x40 PUSH1 0x0 KECCAK256 ADD SLOAD AND ISZERO DUP12 PUSH2 0x6F2 JUMP JUMPDEST SWAP1 POP DUP7 PUSH1 0x0 MSTORE DUP4 DUP4 MSTORE PUSH1 0x40 PUSH1 0x0 KECCAK256 PUSH20 0x1111111111111111111111111111111111111111 PUSH1 0x0 MSTORE DUP4 MSTORE DUP1 DUP9 PUSH1 0x40 PUSH1 0x0 KECCAK256 ADD SLOAD PUSH1 0x8 SHR AND SWAP1 PUSH2 0x6EC JUMP JUMPDEST PUSH1 0x40 MLOAD PUSH3 0x461BCD PUSH1 0xE5 SHL DUP2 MSTORE PUSH1 0x4 DUP2 ADD DUP6 SWAP1 MSTORE PUSH1 0x11 PUSH1 0x24 DUP3 ADD MSTORE PUSH17 0x105B1C9958591E4818DBDB5C1B195D1959 PUSH1 0x7A SHL PUSH1 0x44 DUP3 ADD MSTORE PUSH1 0x64 SWAP1 REVERT JUMPDEST PUSH1 0x40 MLOAD PUSH3 0x461BCD PUSH1 0xE5 SHL DUP2 MSTORE PUSH1 0x4 DUP2 ADD DUP6 SWAP1 MSTORE PUSH1 0xC PUSH1 0x24 DUP3 ADD MSTORE PUSH12 0x2737BA103090383630BCB2B9 PUSH1 0xA1 SHL PUSH1 0x44 DUP3 ADD MSTORE PUSH1 0x64 SWAP1 REVERT JUMPDEST PUSH1 0x40 MLOAD PUSH3 0x461BCD PUSH1 0xE5 SHL DUP2 MSTORE PUSH1 0x4 DUP2 ADD DUP4 SWAP1 MSTORE PUSH1 0x15 PUSH1 0x24 DUP3 ADD MSTORE PUSH21 0x159491881B9BDD08199D5B199A5B1B1959081E595D PUSH1 0x5A SHL PUSH1 0x44 DUP3 ADD MSTORE PUSH1 0x64 SWAP1 REVERT JUMPDEST CALLVALUE PUSH2 0x1E1 JUMPI PUSH2 0x8CF CALLDATASIZE PUSH2 0x22AF JUMP JUMPDEST SWAP1 PUSH1 0x0 MSTORE PUSH1 0x6 PUSH1 0x20 MSTORE PUSH1 0x40 PUSH1 0x0 KECCAK256 DUP1 SLOAD DUP3 LT ISZERO PUSH2 0x1E1 JUMPI PUSH1 0x20 SWAP2 PUSH2 0x8F2 SWAP2 PUSH2 0x1F8A JUMP JUMPDEST SWAP1 SLOAD PUSH1 0x40 MLOAD PUSH1 0x3 SWAP3 SWAP1 SWAP3 SHL SHR PUSH1 0x1 PUSH1 0x1 PUSH1 0xA0 SHL SUB AND DUP2 MSTORE RETURN JUMPDEST CALLVALUE PUSH2 0x1E1 JUMPI PUSH1 0x40 CALLDATASIZE PUSH1 0x3 NOT ADD SLT PUSH2 0x1E1 JUMPI PUSH1 0x4 CALLDATALOAD PUSH8 0xFFFFFFFFFFFFFFFF PUSH1 0x24 DUP1 CALLDATALOAD DUP3 DUP2 GT PUSH2 0x1E1 JUMPI CALLDATASIZE PUSH1 0x23 DUP3 ADD SLT ISZERO PUSH2 0x1E1 JUMPI DUP1 PUSH1 0x4 ADD CALLDATALOAD SWAP1 PUSH2 0x94D DUP3 PUSH2 0x22C5 JUMP JUMPDEST SWAP1 PUSH2 0x95B PUSH1 0x40 MLOAD SWAP3 DUP4 PUSH2 0x200E JUMP JUMPDEST DUP3 DUP3 MSTORE PUSH1 0x20 SWAP3 DUP5 DUP5 DUP5 ADD SWAP2 PUSH1 0x5 SHL DUP4 ADD ADD SWAP2 CALLDATASIZE DUP4 GT PUSH2 0x1E1 JUMPI DUP6 DUP6 SWAP2 ADD SWAP2 JUMPDEST DUP4 DUP4 LT PUSH2 0xB7E JUMPI POP POP POP POP PUSH2 0x98D PUSH2 0x291D JUMP JUMPDEST DUP5 PUSH1 0x0 MSTORE PUSH1 0x8 DUP3 MSTORE PUSH1 0x40 PUSH1 0x0 KECCAK256 SLOAD SWAP4 DUP5 ISZERO PUSH2 0xB44 JUMPI DUP5 PUSH1 0x0 MSTORE PUSH1 0x4 DUP4 MSTORE PUSH1 0x40 PUSH1 0x0 KECCAK256 SWAP4 PUSH1 0xF DUP6 ADD SWAP3 PUSH2 0x9C3 PUSH1 0xFF DUP6 SLOAD AND ISZERO PUSH2 0x250A JUMP JUMPDEST PUSH1 0x40 MLOAD SWAP6 PUSH2 0x9D0 DUP8 PUSH2 0x1FF1 JUMP JUMPDEST PUSH1 0xC DUP1 DUP9 MSTORE DUP7 DUP9 ADD SWAP3 PUSH2 0x180 CALLDATASIZE DUP6 CALLDATACOPY PUSH1 0x0 JUMPDEST DUP3 DUP2 LT PUSH2 0xB2F JUMPI POP PUSH1 0x0 JUMPDEST DUP3 DUP2 LT PUSH2 0xABC JUMPI POP POP POP PUSH1 0xE ADD SWAP2 DUP7 MLOAD SWAP4 DUP5 GT PUSH2 0xAA8 JUMPI PUSH1 0x1 PUSH1 0x40 SHL DUP5 GT PUSH2 0xAA8 JUMPI POP DUP2 SLOAD DUP4 DUP4 SSTORE DUP1 DUP5 LT PUSH2 0xA8B JUMPI JUMPDEST POP SWAP1 PUSH1 0x0 MSTORE DUP4 PUSH1 0x0 KECCAK256 PUSH1 0x0 JUMPDEST DUP4 DUP2 LT PUSH2 0xA79 JUMPI DUP5 SLOAD PUSH1 0xFF NOT AND PUSH1 0x1 OR DUP6 SSTORE PUSH1 0x40 MLOAD DUP7 DUP2 MSTORE DUP10 SWAP1 DUP10 SWAP1 PUSH32 0xE3122A662CE967AAE888CA4853D0ADD041ACF2F2E54EA9EA9D9C1396F22D6A4 SWAP1 DUP1 PUSH2 0xA74 DUP2 DUP13 ADD DUP14 PUSH2 0x2185 JUMP JUMPDEST SUB SWAP1 LOG3 STOP JUMPDEST DUP3 MLOAD DUP3 DUP3 ADD SSTORE SWAP2 DUP6 ADD SWAP2 PUSH1 0x1 ADD PUSH2 0xA29 JUMP JUMPDEST PUSH2 0xAA2 SWAP1 DUP4 PUSH1 0x0 MSTORE DUP5 DUP8 PUSH1 0x0 KECCAK256 SWAP2 DUP3 ADD SWAP2 ADD PUSH2 0x22EC JUMP JUMPDEST DUP9 PUSH2 0xA1D JUMP JUMPDEST PUSH4 0x4E487B71 PUSH1 0xE0 SHL PUSH1 0x0 SWAP1 DUP2 MSTORE PUSH1 0x41 PUSH1 0x4 MSTORE REVERT JUMPDEST PUSH2 0xAC5 DUP3 PUSH2 0x24A6 JUMP JUMPDEST MLOAD DUP2 DUP5 SUB SWAP1 DUP5 DUP3 GT PUSH2 0xB1A JUMPI PUSH2 0xAE1 PUSH1 0x1 SWAP4 SWAP3 PUSH2 0xAE7 SWAP3 PUSH2 0x254E JUMP JUMPDEST DUP3 PUSH2 0x2303 JUMP JUMPDEST DUP12 PUSH2 0xB08 PUSH2 0xAF5 DUP4 DUP4 PUSH2 0x24B3 JUMP JUMPDEST MLOAD SWAP3 PUSH2 0xB01 DUP6 DUP5 PUSH2 0x24B3 JUMP JUMPDEST MLOAD SWAP3 PUSH2 0x24B3 JUMP JUMPDEST MSTORE PUSH2 0xB13 DUP3 DUP14 PUSH2 0x24B3 JUMP JUMPDEST MSTORE ADD PUSH2 0x9ED JUMP JUMPDEST DUP8 PUSH4 0x4E487B71 PUSH1 0xE0 SHL PUSH1 0x0 MSTORE PUSH1 0x11 PUSH1 0x4 MSTORE PUSH1 0x0 REVERT JUMPDEST DUP1 DUP1 PUSH2 0xB3D PUSH1 0x1 SWAP4 DUP14 PUSH2 0x24B3 JUMP JUMPDEST MSTORE ADD PUSH2 0x9E2 JUMP JUMPDEST PUSH1 0x40 MLOAD PUSH3 0x461BCD PUSH1 0xE5 SHL DUP2 MSTORE PUSH1 0x4 DUP2 ADD DUP5 SWAP1 MSTORE PUSH1 0x13 DUP2 DUP7 ADD MSTORE PUSH19 0x125B9D985B1A5908159491881C995C5D595CDD PUSH1 0x6A SHL PUSH1 0x44 DUP3 ADD MSTORE PUSH1 0x64 SWAP1 REVERT JUMPDEST DUP3 CALLDATALOAD DUP2 MSTORE SWAP2 DUP2 ADD SWAP2 DUP6 SWAP2 ADD PUSH2 0x97A JUMP JUMPDEST CALLVALUE PUSH2 0x1E1 JUMPI PUSH1 0x20 CALLDATASIZE PUSH1 0x3 NOT ADD SLT PUSH2 0x1E1 JUMPI PUSH1 0x4 CALLDATALOAD PUSH1 0x0 MSTORE PUSH1 0x8 PUSH1 0x20 MSTORE PUSH1 0x20 PUSH1 0x40 PUSH1 0x0 KECCAK256 SLOAD PUSH1 0x40 MLOAD SWAP1 DUP2 MSTORE RETURN JUMPDEST CALLVALUE PUSH2 0x1E1 JUMPI PUSH1 0x40 CALLDATASIZE PUSH1 0x3 NOT ADD SLT PUSH2 0x1E1 JUMPI PUSH1 0xA0 PUSH2 0xBD5 PUSH2 0x1F74 JUMP JUMPDEST PUSH1 0x4 CALLDATALOAD PUSH1 0x0 MSTORE PUSH1 0x5 PUSH1 0x20 MSTORE PUSH1 0x40 PUSH1 0x0 KECCAK256 PUSH1 0x1 DUP1 DUP5 SHL SUB DUP1 SWAP3 AND PUSH1 0x0 MSTORE PUSH1 0x20 MSTORE PUSH1 0xFF PUSH1 0x40 PUSH1 0x0 KECCAK256 SWAP2 DUP3 SLOAD AND SWAP2 PUSH1 0x1 DUP2 ADD SLOAD SWAP1 PUSH1 0x3 PUSH1 0x2 DUP3 ADD SLOAD SWAP2 ADD SLOAD SWAP2 PUSH1 0x40 MLOAD SWAP5 DUP6 MSTORE PUSH1 0x20 DUP6 ADD MSTORE PUSH1 0x40 DUP5 ADD MSTORE DUP2 DUP2 AND ISZERO ISZERO PUSH1 0x60 DUP5 ADD MSTORE PUSH1 0x8 SHR AND ISZERO ISZERO PUSH1 0x80 DUP3 ADD MSTORE RETURN JUMPDEST CALLVALUE PUSH2 0x1E1 JUMPI PUSH1 0x20 DUP1 PUSH1 0x3 NOT CALLDATASIZE ADD SLT PUSH2 0x1E1 JUMPI PUSH1 0x4 CALLDATALOAD DUP1 PUSH1 0x0 MSTORE PUSH1 0x4 DUP3 MSTORE PUSH1 0xFF PUSH1 0xF PUSH1 0x40 PUSH1 0x0 KECCAK256 ADD SLOAD AND ISZERO PUSH2 0xC96 JUMPI PUSH1 0x0 MSTORE PUSH1 0x4 DUP2 MSTORE PUSH2 0xC7D PUSH1 0xE PUSH1 0x40 PUSH1 0x0 KECCAK256 ADD PUSH2 0x23CF JUMP JUMPDEST SWAP1 PUSH2 0xC92 PUSH1 0x40 MLOAD SWAP3 DUP3 DUP5 SWAP4 DUP5 MSTORE DUP4 ADD SWAP1 PUSH2 0x2185 JUMP JUMPDEST SUB SWAP1 RETURN JUMPDEST PUSH1 0x40 MLOAD PUSH3 0x461BCD PUSH1 0xE5 SHL DUP2 MSTORE PUSH1 0x4 DUP2 ADD DUP4 SWAP1 MSTORE PUSH1 0x11 PUSH1 0x24 DUP3 ADD MSTORE PUSH17 0x159491881B9BDD08199D5B199A5B1B1959 PUSH1 0x7A SHL PUSH1 0x44 DUP3 ADD MSTORE PUSH1 0x64 SWAP1 REVERT JUMPDEST CALLVALUE PUSH2 0x1E1 JUMPI PUSH1 0x20 CALLDATASIZE PUSH1 0x3 NOT ADD SLT PUSH2 0x1E1 JUMPI PUSH2 0xCE8 PUSH2 0x2420 JUMP JUMPDEST POP PUSH1 0x4 CALLDATALOAD PUSH1 0x0 MSTORE PUSH1 0x4 PUSH1 0x20 MSTORE PUSH1 0x40 PUSH1 0x0 KECCAK256 PUSH1 0x40 MLOAD PUSH2 0xD05 DUP2 PUSH2 0x1FD4 JUMP JUMPDEST DUP2 SLOAD DUP2 MSTORE PUSH2 0xD15 PUSH1 0x1 DUP4 ADD PUSH2 0x2086 JUMP JUMPDEST PUSH1 0x20 DUP3 ADD MSTORE PUSH1 0x2 DUP3 DUP2 ADD SLOAD PUSH1 0x1 PUSH1 0x1 PUSH1 0xA0 SHL SUB DUP1 DUP3 AND PUSH1 0x40 DUP6 ADD MSTORE SWAP2 PUSH1 0xA0 DUP3 SWAP1 SHR PUSH1 0xFF AND SWAP2 SWAP1 DUP3 LT ISZERO PUSH2 0x4C5 JUMPI PUSH1 0xFF SWAP2 PUSH1 0x60 DUP6 ADD MSTORE PUSH1 0xA8 SHR AND PUSH1 0x4 DUP2 LT ISZERO PUSH2 0x4C5 JUMPI PUSH2 0xC92 SWAP4 PUSH1 0xFF SWAP3 PUSH1 0xF SWAP3 PUSH1 0x80 DUP7 ADD MSTORE PUSH1 0x3 DUP3 ADD SLOAD PUSH1 0xA0 DUP7 ADD MSTORE PUSH1 0x4 DUP3 ADD SLOAD PUSH1 0xC0 DUP7 ADD MSTORE PUSH1 0x5 DUP3 ADD SLOAD PUSH1 0xE0 DUP7 ADD MSTORE PUSH1 0x6 DUP3 ADD SLOAD PUSH2 0x100 DUP7 ADD MSTORE PUSH1 0x7 DUP3 ADD SLOAD PUSH2 0x120 DUP7 ADD MSTORE PUSH1 0x8 DUP3 ADD SLOAD PUSH2 0x140 DUP7 ADD MSTORE PUSH1 0x9 DUP3 ADD SLOAD PUSH2 0x160 DUP7 ADD MSTORE PUSH1 0xA DUP3 ADD SLOAD PUSH2 0x180 DUP7 ADD MSTORE PUSH1 0xB DUP3 ADD SLOAD AND PUSH2 0x1A0 DUP6 ADD MSTORE PUSH1 0xC DUP2 ADD SLOAD PUSH2 0x1C0 DUP6 ADD MSTORE PUSH1 0xD DUP2 ADD SLOAD PUSH2 0x1E0 DUP6 ADD MSTORE PUSH2 0xDE9 PUSH1 0xE DUP3 ADD PUSH2 0x23CF JUMP JUMPDEST PUSH2 0x200 DUP6 ADD MSTORE ADD SLOAD AND ISZERO ISZERO PUSH2 0x220 DUP3 ADD MSTORE PUSH1 0x40 MLOAD SWAP2 DUP3 SWAP2 PUSH1 0x20 DUP4 MSTORE PUSH1 0x20 DUP4 ADD SWAP1 PUSH2 0x21B9 JUMP JUMPDEST CALLVALUE PUSH2 0x1E1 JUMPI PUSH1 0x0 CALLDATASIZE PUSH1 0x3 NOT ADD SLT PUSH2 0x1E1 JUMPI PUSH1 0x0 SLOAD PUSH1 0x40 MLOAD PUSH1 0x1 PUSH1 0x1 PUSH1 0xA0 SHL SUB SWAP1 SWAP2 AND DUP2 MSTORE PUSH1 0x20 SWAP1 RETURN JUMPDEST CALLVALUE PUSH2 0x1E1 JUMPI PUSH1 0x0 CALLDATASIZE PUSH1 0x3 NOT ADD SLT PUSH2 0x1E1 JUMPI PUSH1 0x20 PUSH1 0x40 MLOAD PUSH1 0x1 DUP2 MSTORE RETURN JUMPDEST CALLVALUE PUSH2 0x1E1 JUMPI PUSH2 0xE61 CALLDATASIZE PUSH2 0x22AF JUMP JUMPDEST SWAP1 PUSH2 0xE6A PUSH2 0x291D JUMP JUMPDEST DUP1 PUSH1 0x0 MSTORE PUSH1 0x20 SWAP2 PUSH1 0x4 DUP4 MSTORE PUSH1 0x2 PUSH1 0x40 PUSH1 0x0 KECCAK256 ADD SLOAD PUSH1 0xFF DUP2 PUSH1 0xA8 SHR AND SWAP1 PUSH1 0x4 DUP3 LT ISZERO PUSH2 0x4C5 JUMPI PUSH2 0xE9D PUSH1 0x1 PUSH1 0xFF SWAP4 EQ PUSH2 0x24C7 JUMP JUMPDEST PUSH1 0xA0 SHR AND PUSH1 0x2 DUP2 LT ISZERO PUSH2 0x4C5 JUMPI PUSH2 0xFEA JUMPI DUP2 PUSH1 0x0 MSTORE PUSH1 0x5 DUP4 MSTORE PUSH1 0x40 PUSH1 0x0 KECCAK256 SWAP1 PUSH20 0x1111111111111111111111111111111111111111 SWAP2 DUP3 PUSH1 0x0 MSTORE DUP5 MSTORE PUSH1 0xFF PUSH1 0x3 PUSH1 0x40 PUSH1 0x0 KECCAK256 ADD SLOAD PUSH1 0x8 SHR AND ISZERO PUSH2 0xFB4 JUMPI DUP3 PUSH1 0x0 MSTORE PUSH1 0x5 DUP5 MSTORE PUSH1 0x40 PUSH1 0x0 KECCAK256 DUP3 PUSH1 0x0 MSTORE DUP5 MSTORE PUSH1 0xFF PUSH1 0x3 PUSH1 0x40 PUSH1 0x0 KECCAK256 ADD SLOAD AND PUSH2 0xF78 JUMPI PUSH32 0xC3E4EF85F4B65D6DD6420CB05ACCFD021C54723907FB3657617ECBC64BA52C40 PUSH1 0x40 DUP5 SWAP3 PUSH2 0x19 SWAP7 DUP5 PUSH1 0x0 MSTORE PUSH1 0x5 DUP2 MSTORE DUP3 PUSH1 0x0 KECCAK256 DUP7 PUSH1 0x0 MSTORE DUP2 MSTORE PUSH1 0x3 DUP4 PUSH1 0x0 KECCAK256 DUP4 PUSH1 0x1 DUP3 ADD SSTORE TIMESTAMP PUSH1 0x2 DUP3 ADD SSTORE ADD PUSH1 0x1 PUSH1 0xFF NOT DUP3 SLOAD AND OR SWAP1 SSTORE DUP3 MLOAD SWAP2 DUP3 MSTORE TIMESTAMP SWAP1 DUP3 ADD MSTORE LOG3 PUSH2 0x29C8 JUMP JUMPDEST PUSH1 0x40 MLOAD PUSH3 0x461BCD PUSH1 0xE5 SHL DUP2 MSTORE PUSH1 0x4 DUP2 ADD DUP6 SWAP1 MSTORE PUSH1 0x14 PUSH1 0x24 DUP3 ADD MSTORE PUSH20 0x105248185B1C9958591E4818DBDB5C1B195D1959 PUSH1 0x62 SHL PUSH1 0x44 DUP3 ADD MSTORE PUSH1 0x64 SWAP1 REVERT JUMPDEST PUSH1 0x40 MLOAD PUSH3 0x461BCD PUSH1 0xE5 SHL DUP2 MSTORE PUSH1 0x4 DUP2 ADD DUP6 SWAP1 MSTORE PUSH1 0xE PUSH1 0x24 DUP3 ADD MSTORE PUSH14 0x4149206E6F7420696E2067616D65 PUSH1 0x90 SHL PUSH1 0x44 DUP3 ADD MSTORE PUSH1 0x64 SWAP1 REVERT JUMPDEST PUSH1 0x40 MLOAD PUSH3 0x461BCD PUSH1 0xE5 SHL DUP2 MSTORE PUSH1 0x4 DUP2 ADD DUP5 SWAP1 MSTORE PUSH1 0xE PUSH1 0x24 DUP3 ADD MSTORE PUSH14 0x4E6F7420616E2041492067616D65 PUSH1 0x90 SHL PUSH1 0x44 DUP3 ADD MSTORE PUSH1 0x64 SWAP1 REVERT JUMPDEST CALLVALUE PUSH2 0x1E1 JUMPI PUSH1 0x0 CALLDATASIZE PUSH1 0x3 NOT ADD SLT PUSH2 0x1E1 JUMPI PUSH2 0x1039 PUSH2 0x291D JUMP JUMPDEST PUSH1 0x0 DUP1 SLOAD PUSH1 0x1 PUSH1 0x1 PUSH1 0xA0 SHL SUB NOT DUP2 AND DUP3 SSTORE PUSH1 0x1 PUSH1 0x1 PUSH1 0xA0 SHL SUB AND PUSH32 0x8BE0079C531659141344CD1FD0A4F28419497F9722A3DAAFE3B4186F6B6457E0 DUP3 DUP1 LOG3 STOP JUMPDEST CALLVALUE PUSH2 0x1E1 JUMPI PUSH1 0x20 DUP1 PUSH1 0x3 NOT CALLDATASIZE ADD SLT PUSH2 0x1E1 JUMPI PUSH1 0x4 CALLDATALOAD DUP1 PUSH1 0x0 MSTORE PUSH1 0x4 PUSH1 0x20 MSTORE PUSH1 0x40 PUSH1 0x0 KECCAK256 PUSH1 0x2 DUP2 ADD SWAP3 DUP4 SLOAD SWAP1 PUSH1 0x1 DUP1 PUSH1 0xA0 SHL SUB SWAP5 CALLER DUP7 DUP5 AND EQ DUP1 ISZERO PUSH2 0x11C3 JUMPI JUMPDEST ISZERO PUSH2 0x118D JUMPI PUSH1 0xFF DUP4 PUSH1 0xA8 SHR AND PUSH1 0x4 DUP2 LT ISZERO PUSH2 0x4C5 JUMPI PUSH2 0x1151 JUMPI PUSH1 0xFF PUSH1 0xA8 SHL NOT SWAP1 SWAP3 AND PUSH1 0x3 PUSH1 0xA8 SHL OR SWAP1 SWAP2 SSTORE PUSH1 0x0 SWAP1 JUMPDEST DUP4 PUSH1 0x0 MSTORE PUSH1 0x6 DUP2 MSTORE PUSH1 0x40 PUSH1 0x0 KECCAK256 DUP1 SLOAD DUP4 LT ISZERO PUSH2 0x19 JUMPI DUP3 DUP7 PUSH2 0x110D PUSH1 0x6 SWAP6 PUSH1 0x1 SWAP5 PUSH2 0x1F8A JUMP JUMPDEST SWAP2 SWAP1 SLOAD PUSH1 0x3 SWAP3 DUP4 SHL SHR AND PUSH20 0x1111111111111111111111111111111111111111 DUP2 SUB PUSH2 0x113D JUMPI JUMPDEST POP POP ADD SWAP2 POP PUSH2 0x10E7 JUMP JUMPDEST PUSH2 0x114A SWAP2 DUP8 ADD SLOAD SWAP1 PUSH2 0x2949 JUMP JUMPDEST DUP8 DUP1 PUSH2 0x1133 JUMP JUMPDEST PUSH1 0x40 MLOAD PUSH3 0x461BCD PUSH1 0xE5 SHL DUP2 MSTORE PUSH1 0x20 PUSH1 0x4 DUP3 ADD MSTORE PUSH1 0x14 PUSH1 0x24 DUP3 ADD MSTORE PUSH20 0x11D85B5948185B1C9958591E481CDD185C9D1959 PUSH1 0x62 SHL PUSH1 0x44 DUP3 ADD MSTORE PUSH1 0x64 SWAP1 REVERT JUMPDEST PUSH1 0x40 MLOAD PUSH3 0x461BCD PUSH1 0xE5 SHL DUP2 MSTORE PUSH1 0x20 PUSH1 0x4 DUP3 ADD MSTORE PUSH1 0xE PUSH1 0x24 DUP3 ADD MSTORE PUSH14 0x139BDD08185D5D1A1BDC9A5E9959 PUSH1 0x92 SHL PUSH1 0x44 DUP3 ADD MSTORE PUSH1 0x64 SWAP1 REVERT JUMPDEST POP CALLER DUP7 PUSH1 0x0 SLOAD AND EQ PUSH2 0x10B8 JUMP JUMPDEST CALLVALUE PUSH2 0x1E1 JUMPI PUSH1 0x0 CALLDATASIZE PUSH1 0x3 NOT ADD SLT PUSH2 0x1E1 JUMPI PUSH1 0x20 PUSH1 0x40 MLOAD PUSH8 0xDE0B6B3A7640000 DUP2 MSTORE RETURN JUMPDEST CALLVALUE PUSH2 0x1E1 JUMPI PUSH1 0x40 CALLDATASIZE PUSH1 0x3 NOT ADD SLT PUSH2 0x1E1 JUMPI PUSH1 0xA0 PUSH2 0x120E PUSH2 0x1F74 JUMP JUMPDEST PUSH1 0x0 PUSH1 0x80 PUSH1 0x40 MLOAD PUSH2 0x121E DUP2 PUSH2 0x1FB8 JUMP JUMPDEST DUP3 DUP2 MSTORE DUP3 PUSH1 0x20 DUP3 ADD MSTORE DUP3 PUSH1 0x40 DUP3 ADD MSTORE DUP3 PUSH1 0x60 DUP3 ADD MSTORE ADD MSTORE PUSH1 0x4 CALLDATALOAD PUSH1 0x0 MSTORE PUSH1 0x5 PUSH1 0x20 MSTORE PUSH1 0x40 PUSH1 0x0 KECCAK256 PUSH1 0x1 DUP1 DUP5 SHL SUB DUP1 SWAP3 AND PUSH1 0x0 MSTORE PUSH1 0x20 MSTORE PUSH1 0x40 PUSH1 0x0 KECCAK256 PUSH1 0x40 MLOAD SWAP2 PUSH2 0x1266 DUP4 PUSH2 0x1FB8 JUMP JUMPDEST DUP2 SLOAD AND SWAP2 DUP3 DUP2 MSTORE PUSH1 0x1 DUP3 ADD SLOAD SWAP2 PUSH1 0x20 DUP3 ADD SWAP3 DUP4 MSTORE PUSH1 0x3 PUSH1 0x2 DUP3 ADD SLOAD SWAP2 PUSH1 0x40 DUP5 ADD SWAP3 DUP4 MSTORE ADD SLOAD SWAP3 PUSH1 0xFF PUSH1 0x80 PUSH1 0x60 DUP6 ADD SWAP5 DUP3 DUP8 AND ISZERO ISZERO DUP7 MSTORE ADD SWAP5 PUSH1 0x8 SHR AND ISZERO ISZERO DUP5 MSTORE PUSH1 0x40 MLOAD SWAP5 DUP6 MSTORE MLOAD PUSH1 0x20 DUP6 ADD MSTORE MLOAD PUSH1 0x40 DUP5 ADD MSTORE MLOAD ISZERO ISZERO PUSH1 0x60 DUP4 ADD MSTORE MLOAD ISZERO ISZERO PUSH1 0x80 DUP3 ADD MSTORE RETURN JUMPDEST CALLVALUE PUSH2 0x1E1 JUMPI PUSH1 0x0 CALLDATASIZE PUSH1 0x3 NOT ADD SLT PUSH2 0x1E1 JUMPI PUSH1 0x20 PUSH1 0x40 MLOAD PUSH1 0x5 DUP2 MSTORE RETURN JUMPDEST CALLVALUE PUSH2 0x1E1 JUMPI PUSH1 0x0 CALLDATASIZE PUSH1 0x3 NOT ADD SLT PUSH2 0x1E1 JUMPI PUSH2 0x12FF PUSH2 0x291D JUMP JUMPDEST PUSH1 0x0 SLOAD PUSH2 0x19 SWAP1 SELFBALANCE SWAP1 PUSH1 0x1 PUSH1 0x1 PUSH1 0xA0 SHL SUB AND PUSH2 0x2949 JUMP JUMPDEST CALLVALUE PUSH2 0x1E1 JUMPI PUSH1 0x0 CALLDATASIZE PUSH1 0x3 NOT ADD SLT PUSH2 0x1E1 JUMPI PUSH1 0x20 PUSH1 0x3 SLOAD PUSH1 0x40 MLOAD SWAP1 DUP2 MSTORE RETURN JUMPDEST CALLVALUE PUSH2 0x1E1 JUMPI PUSH1 0x0 CALLDATASIZE PUSH1 0x3 NOT ADD SLT PUSH2 0x1E1 JUMPI PUSH1 0x20 PUSH1 0x40 MLOAD PUSH1 0xA DUP2 MSTORE RETURN JUMPDEST CALLVALUE PUSH2 0x1E1 JUMPI PUSH1 0x0 CALLDATASIZE PUSH1 0x3 NOT ADD SLT PUSH2 0x1E1 JUMPI PUSH1 0x0 PUSH1 0x1 PUSH1 0x2 DUP1 SLOAD SWAP2 JUMPDEST DUP3 DUP2 GT ISZERO PUSH2 0x15C5 JUMPI POP PUSH2 0x1396 PUSH2 0x1380 DUP5 PUSH2 0x22C5 JUMP JUMPDEST SWAP4 PUSH2 0x138E PUSH1 0x40 MLOAD SWAP6 DUP7 PUSH2 0x200E JUMP JUMPDEST DUP1 DUP6 MSTORE PUSH2 0x22C5 JUMP JUMPDEST PUSH1 0x20 SWAP5 SWAP1 PUSH1 0x1F NOT ADD DUP6 PUSH1 0x0 JUMPDEST DUP3 DUP2 LT PUSH2 0x15AF JUMPI POP POP POP PUSH1 0x0 SWAP1 PUSH1 0x1 JUMPDEST DUP5 DUP2 GT ISZERO PUSH2 0x1418 JUMPI PUSH1 0x40 DUP1 MLOAD DUP9 DUP2 MSTORE DUP8 MLOAD DUP2 DUP11 ADD DUP2 SWAP1 MSTORE PUSH1 0x0 SWAP3 PUSH1 0x5 DUP3 SWAP1 SHL DUP4 ADD DUP2 ADD SWAP2 DUP11 DUP13 ADD SWAP2 DUP13 SWAP1 DUP6 ADD JUMPDEST DUP3 DUP8 LT PUSH2 0x13EC JUMPI DUP6 DUP6 SUB DUP7 RETURN JUMPDEST SWAP1 SWAP2 SWAP3 SWAP4 DUP3 DUP1 PUSH2 0x1408 PUSH1 0x1 SWAP4 PUSH1 0x3F NOT DUP11 DUP3 SUB ADD DUP7 MSTORE DUP9 MLOAD PUSH2 0x21B9 JUMP JUMPDEST SWAP7 ADD SWAP3 ADD SWAP7 ADD SWAP6 SWAP3 SWAP2 SWAP1 SWAP3 PUSH2 0x13DF JUMP JUMPDEST DUP1 PUSH1 0x0 MSTORE PUSH1 0x4 DUP8 MSTORE PUSH1 0xFF DUP5 PUSH1 0x40 PUSH1 0x0 KECCAK256 ADD SLOAD SWAP1 DUP1 PUSH1 0xA8 SWAP3 DUP4 SHR AND PUSH1 0x4 DUP2 LT ISZERO PUSH2 0x4C5 JUMPI ISZERO DUP1 ISZERO PUSH2 0x1589 JUMPI JUMPDEST PUSH2 0x1458 JUMPI JUMPDEST POP POP PUSH2 0x1453 SWAP1 PUSH2 0x22DD JUMP JUMPDEST PUSH2 0x13B2 JUMP JUMPDEST SWAP1 SWAP2 SWAP4 DUP5 PUSH1 0x0 MSTORE PUSH1 0x4 DUP10 MSTORE PUSH1 0x40 PUSH1 0x0 KECCAK256 SWAP2 PUSH1 0x40 MLOAD SWAP1 PUSH2 0x1476 DUP3 PUSH2 0x1FD4 JUMP JUMPDEST DUP4 SLOAD DUP3 MSTORE PUSH2 0x1486 PUSH1 0x1 DUP6 ADD PUSH2 0x2086 JUMP JUMPDEST DUP3 DUP13 ADD MSTORE DUP4 DUP9 ADD SLOAD PUSH1 0x1 PUSH1 0x1 PUSH1 0xA0 SHL SUB DUP1 DUP3 AND PUSH1 0x40 DUP6 ADD MSTORE SWAP6 PUSH1 0xA0 SWAP6 SWAP2 DUP1 DUP8 SHR DUP5 AND SWAP2 DUP12 DUP4 LT ISZERO PUSH2 0x4C5 JUMPI DUP5 SWAP3 PUSH1 0x60 DUP8 ADD MSTORE SHR AND SWAP1 PUSH1 0x4 DUP3 LT ISZERO PUSH2 0x4C5 JUMPI PUSH2 0x1453 SWAP7 PUSH2 0x1581 SWAP7 PUSH1 0xF SWAP4 PUSH1 0x80 DUP8 ADD MSTORE PUSH1 0x3 DUP4 ADD SLOAD SWAP1 DUP7 ADD MSTORE PUSH1 0x4 DUP3 ADD SLOAD PUSH1 0xC0 DUP7 ADD MSTORE PUSH1 0x5 DUP3 ADD SLOAD DUP10 DUP7 ADD MSTORE PUSH1 0x6 DUP3 ADD SLOAD PUSH2 0x100 DUP7 ADD MSTORE PUSH1 0x7 DUP3 ADD SLOAD PUSH2 0x120 DUP7 ADD MSTORE PUSH1 0x8 DUP3 ADD SLOAD PUSH2 0x140 DUP7 ADD MSTORE PUSH1 0x9 DUP3 ADD SLOAD PUSH2 0x160 DUP7 ADD MSTORE PUSH1 0xA DUP3 ADD SLOAD PUSH2 0x180 DUP7 ADD MSTORE PUSH1 0xB DUP3 ADD SLOAD AND PUSH2 0x1A0 DUP6 ADD MSTORE PUSH1 0xC DUP2 ADD SLOAD PUSH2 0x1C0 DUP6 ADD MSTORE PUSH1 0xD DUP2 ADD SLOAD PUSH2 0x1E0 DUP6 ADD MSTORE PUSH2 0x1555 PUSH1 0xE DUP3 ADD PUSH2 0x23CF JUMP JUMPDEST PUSH2 0x200 DUP6 ADD MSTORE ADD SLOAD AND ISZERO ISZERO PUSH2 0x220 DUP3 ADD MSTORE PUSH2 0x1570 DUP3 DUP11 PUSH2 0x24B3 JUMP JUMPDEST MSTORE PUSH2 0x157B DUP2 DUP10 PUSH2 0x24B3 JUMP JUMPDEST POP PUSH2 0x22DD JUMP JUMPDEST SWAP3 SWAP1 DUP9 PUSH2 0x1448 JUMP JUMPDEST POP DUP3 PUSH1 0x0 MSTORE PUSH1 0x4 DUP10 MSTORE DUP1 DUP7 PUSH1 0x40 PUSH1 0x0 KECCAK256 ADD SLOAD DUP4 SHR AND PUSH1 0x4 DUP2 LT ISZERO PUSH2 0x4C5 JUMPI PUSH1 0x1 EQ PUSH2 0x1443 JUMP JUMPDEST PUSH2 0x15B7 PUSH2 0x2420 JUMP JUMPDEST DUP3 DUP3 DUP10 ADD ADD MSTORE ADD DUP7 SWAP1 PUSH2 0x13A2 JUMP JUMPDEST DUP1 PUSH1 0x0 MSTORE PUSH1 0x20 PUSH1 0x4 DUP2 MSTORE PUSH1 0xFF DUP4 PUSH1 0x40 PUSH1 0x0 KECCAK256 ADD SLOAD DUP2 PUSH1 0xA8 SWAP2 DUP3 SHR AND PUSH1 0x4 DUP2 LT ISZERO PUSH2 0x4C5 JUMPI ISZERO SWAP3 DUP4 ISZERO PUSH2 0x161D JUMPI JUMPDEST POP POP POP PUSH2 0x1608 JUMPI JUMPDEST PUSH2 0x1603 SWAP1 PUSH2 0x22DD JUMP JUMPDEST PUSH2 0x136B JUMP JUMPDEST SWAP3 PUSH2 0x1615 PUSH2 0x1603 SWAP2 PUSH2 0x22DD JUMP JUMPDEST SWAP4 SWAP1 POP PUSH2 0x15FA JUMP JUMPDEST PUSH1 0x4 SWAP2 SWAP3 SWAP4 POP DUP5 PUSH1 0x0 MSTORE MSTORE DUP4 PUSH1 0x40 PUSH1 0x0 KECCAK256 ADD SLOAD SWAP1 SHR AND PUSH1 0x4 DUP2 LT ISZERO PUSH2 0x4C5 JUMPI PUSH1 0x1 EQ DUP7 DUP1 DUP1 PUSH2 0x15F2 JUMP JUMPDEST CALLVALUE PUSH2 0x1E1 JUMPI PUSH1 0x0 CALLDATASIZE PUSH1 0x3 NOT ADD SLT PUSH2 0x1E1 JUMPI PUSH1 0x20 PUSH1 0x40 MLOAD PUSH20 0x1111111111111111111111111111111111111111 DUP2 MSTORE RETURN JUMPDEST CALLVALUE PUSH2 0x1E1 JUMPI PUSH1 0x0 CALLDATASIZE PUSH1 0x3 NOT ADD SLT PUSH2 0x1E1 JUMPI PUSH2 0x168F PUSH2 0x291D JUMP JUMPDEST PUSH2 0x1697 PUSH2 0x256E JUMP JUMPDEST PUSH1 0x3 SLOAD DUP1 ISZERO PUSH2 0x16BB JUMPI PUSH1 0x0 PUSH1 0x3 DUP2 SWAP1 SSTORE SLOAD PUSH2 0x3B5 SWAP2 SWAP1 PUSH1 0x1 PUSH1 0x1 PUSH1 0xA0 SHL SUB AND PUSH2 0x2949 JUMP JUMPDEST PUSH1 0x40 MLOAD PUSH3 0x461BCD PUSH1 0xE5 SHL DUP2 MSTORE PUSH1 0x20 PUSH1 0x4 DUP3 ADD MSTORE PUSH1 0x14 PUSH1 0x24 DUP3 ADD MSTORE PUSH20 0x4E6F2066756E647320746F207769746864726177 PUSH1 0x60 SHL PUSH1 0x44 DUP3 ADD MSTORE PUSH1 0x64 SWAP1 REVERT JUMPDEST CALLVALUE PUSH2 0x1E1 JUMPI PUSH1 0x20 DUP1 PUSH1 0x3 NOT CALLDATASIZE ADD SLT PUSH2 0x1E1 JUMPI PUSH1 0x4 CALLDATALOAD PUSH1 0x0 MSTORE PUSH1 0x6 DUP2 MSTORE PUSH1 0x40 PUSH1 0x0 KECCAK256 PUSH1 0x40 MLOAD SWAP1 DUP2 DUP4 DUP3 SLOAD SWAP2 DUP3 DUP2 MSTORE ADD SWAP1 DUP2 SWAP3 PUSH1 0x0 MSTORE DUP5 PUSH1 0x0 KECCAK256 SWAP1 PUSH1 0x0 JUMPDEST DUP7 DUP3 DUP3 LT PUSH2 0x1792 JUMPI DUP7 DUP7 PUSH2 0x1749 DUP3 DUP9 SUB DUP4 PUSH2 0x200E JUMP JUMPDEST PUSH1 0x40 MLOAD SWAP3 DUP4 SWAP3 DUP2 DUP5 ADD SWAP1 DUP3 DUP6 MSTORE MLOAD DUP1 SWAP2 MSTORE PUSH1 0x40 DUP5 ADD SWAP3 SWAP2 PUSH1 0x0 JUMPDEST DUP3 DUP2 LT PUSH2 0x1772 JUMPI POP POP POP POP SUB SWAP1 RETURN JUMPDEST DUP4 MLOAD PUSH1 0x1 PUSH1 0x1 PUSH1 0xA0 SHL SUB AND DUP6 MSTORE DUP7 SWAP6 POP SWAP4 DUP2 ADD SWAP4 SWAP3 DUP2 ADD SWAP3 PUSH1 0x1 ADD PUSH2 0x1763 JUMP JUMPDEST DUP4 SLOAD PUSH1 0x1 PUSH1 0x1 PUSH1 0xA0 SHL SUB AND DUP6 MSTORE SWAP1 SWAP4 ADD SWAP3 PUSH1 0x1 SWAP3 DUP4 ADD SWAP3 ADD PUSH2 0x1733 JUMP JUMPDEST CALLVALUE PUSH2 0x1E1 JUMPI PUSH1 0x20 CALLDATASIZE PUSH1 0x3 NOT ADD SLT PUSH2 0x1E1 JUMPI PUSH1 0x1 PUSH1 0x1 PUSH1 0xA0 SHL SUB PUSH2 0x17D0 PUSH2 0x1F5E JUMP JUMPDEST AND PUSH1 0x0 MSTORE PUSH1 0x7 PUSH1 0x20 MSTORE PUSH2 0xC92 PUSH2 0x17E9 PUSH1 0x40 PUSH1 0x0 KECCAK256 PUSH2 0x23CF JUMP JUMPDEST PUSH1 0x40 MLOAD SWAP2 DUP3 SWAP2 PUSH1 0x20 DUP4 MSTORE PUSH1 0x20 DUP4 ADD SWAP1 PUSH2 0x2185 JUMP JUMPDEST CALLVALUE PUSH2 0x1E1 JUMPI PUSH1 0x20 CALLDATASIZE PUSH1 0x3 NOT ADD SLT PUSH2 0x1E1 JUMPI PUSH1 0x4 CALLDATALOAD PUSH1 0x0 MSTORE PUSH1 0x4 PUSH1 0x20 MSTORE PUSH1 0x40 PUSH1 0x0 KECCAK256 DUP1 SLOAD SWAP1 PUSH1 0x1 DUP2 ADD PUSH2 0x182E SWAP1 PUSH2 0x2086 JUMP JUMPDEST SWAP1 PUSH1 0x2 DUP2 ADD SLOAD SWAP1 PUSH1 0x3 DUP2 ADD SLOAD SWAP1 PUSH1 0x4 DUP2 ADD SLOAD PUSH1 0x5 DUP3 ADD SLOAD PUSH1 0x6 DUP4 ADD SLOAD PUSH1 0x7 DUP5 ADD SLOAD PUSH1 0x8 DUP6 ADD SLOAD PUSH1 0x9 DUP7 ADD SLOAD SWAP2 PUSH1 0xA DUP8 ADD SLOAD SWAP4 PUSH1 0x1 PUSH1 0xA0 SHL PUSH1 0x1 SWAP1 SUB PUSH1 0xB DUP10 ADD SLOAD AND SWAP6 PUSH1 0xC DUP10 ADD SLOAD SWAP8 PUSH1 0xD DUP11 ADD SLOAD SWAP10 PUSH1 0xF ADD SLOAD PUSH1 0xFF AND SWAP11 PUSH1 0x40 MLOAD SWAP15 DUP16 SWAP15 DUP16 SWAP2 PUSH2 0x220 SWAP1 DUP4 MSTORE DUP1 PUSH1 0x20 DUP5 ADD MSTORE DUP3 ADD PUSH2 0x18A3 SWAP2 PUSH2 0x212B JUMP JUMPDEST PUSH1 0x1 PUSH1 0x1 PUSH1 0xA0 SHL SUB DUP16 AND PUSH1 0x40 DUP4 ADD MSTORE SWAP14 PUSH2 0x18C7 PUSH1 0x60 DUP4 ADD PUSH1 0xFF PUSH1 0xA0 DUP5 SWAP1 SHR AND PUSH2 0x216B JUMP JUMPDEST PUSH1 0x80 DUP3 ADD SWAP1 PUSH1 0xA8 SHR PUSH1 0xFF AND SWAP1 PUSH2 0x18DC SWAP2 PUSH2 0x2178 JUMP JUMPDEST PUSH1 0xA0 ADD MSTORE PUSH1 0xC0 DUP14 ADD MSTORE PUSH1 0xE0 DUP13 ADD MSTORE PUSH2 0x100 DUP12 ADD MSTORE PUSH2 0x120 DUP11 ADD MSTORE PUSH2 0x140 DUP10 ADD MSTORE PUSH2 0x160 DUP9 ADD MSTORE PUSH2 0x180 DUP8 ADD MSTORE PUSH2 0x1A0 DUP7 ADD MSTORE PUSH2 0x1C0 DUP6 ADD MSTORE PUSH2 0x1E0 DUP5 ADD MSTORE ISZERO ISZERO PUSH2 0x200 DUP4 ADD MSTORE SUB SWAP1 RETURN JUMPDEST PUSH1 0x80 CALLDATASIZE PUSH1 0x3 NOT ADD SLT PUSH2 0x1E1 JUMPI PUSH1 0x4 CALLDATALOAD PUSH8 0xFFFFFFFFFFFFFFFF DUP1 DUP3 GT PUSH2 0x1E1 JUMPI CALLDATASIZE PUSH1 0x23 DUP4 ADD SLT ISZERO PUSH2 0x1E1 JUMPI DUP2 PUSH1 0x4 ADD CALLDATALOAD PUSH2 0x195E DUP2 PUSH2 0x2030 JUMP JUMPDEST SWAP3 PUSH2 0x196C PUSH1 0x40 MLOAD SWAP5 DUP6 PUSH2 0x200E JUMP JUMPDEST DUP2 DUP5 MSTORE CALLDATASIZE PUSH1 0x24 DUP4 DUP4 ADD ADD GT PUSH2 0x1E1 JUMPI DUP2 PUSH1 0x0 SWAP3 PUSH1 0x24 PUSH1 0x20 SWAP4 ADD DUP4 DUP8 ADD CALLDATACOPY DUP5 ADD ADD MSTORE PUSH1 0x2 PUSH1 0x24 CALLDATALOAD LT ISZERO PUSH2 0x1E1 JUMPI PUSH2 0x19A0 PUSH2 0x256E JUMP JUMPDEST PUSH8 0xDE0B6B3A7640000 CALLVALUE LT PUSH2 0x1EC1 JUMPI PUSH1 0x1 PUSH1 0x44 CALLDATALOAD LT ISZERO DUP1 PUSH2 0x1EB4 JUMPI JUMPDEST ISZERO PUSH2 0x1E6F JUMPI PUSH1 0x24 CALLDATALOAD ISZERO PUSH2 0x1E03 JUMPI JUMPDEST PUSH2 0x19D5 PUSH1 0x2 SLOAD PUSH2 0x22DD JUMP JUMPDEST SWAP1 DUP2 PUSH1 0x2 SSTORE DUP2 PUSH1 0x0 MSTORE PUSH1 0x4 PUSH1 0x20 MSTORE PUSH1 0x40 PUSH1 0x0 KECCAK256 SWAP1 DUP3 DUP3 SSTORE DUP4 MLOAD SWAP1 DUP2 GT PUSH2 0x1DED JUMPI PUSH2 0x1A02 PUSH1 0x1 DUP4 ADD SLOAD PUSH2 0x204C JUMP JUMPDEST PUSH1 0x1F DUP2 GT PUSH2 0x1DAD JUMPI JUMPDEST POP DUP1 PUSH1 0x20 PUSH1 0x1F DUP3 GT PUSH1 0x1 EQ PUSH2 0x1D40 JUMPI PUSH1 0x0 SWAP2 PUSH2 0x1D35 JUMPI JUMPDEST POP DUP2 PUSH1 0x1 SHL SWAP2 PUSH1 0x0 NOT SWAP1 PUSH1 0x3 SHL SHR NOT AND OR PUSH1 0x1 DUP3 ADD SSTORE JUMPDEST PUSH1 0x2 DUP2 ADD DUP1 SLOAD PUSH2 0xFFFF PUSH1 0xA0 SHL NOT CALLER AND SWAP1 PUSH10 0xFFFFFFFFFFFFFFFFFFFF PUSH1 0xB0 SHL AND OR PUSH1 0xFF PUSH1 0xA0 SHL PUSH1 0x24 CALLDATALOAD PUSH1 0xA0 SHL AND OR SWAP1 SSTORE CALLVALUE PUSH1 0x3 DUP3 ADD SSTORE CALLVALUE PUSH1 0x4 DUP3 ADD SSTORE PUSH1 0x44 CALLDATALOAD PUSH1 0x5 DUP3 ADD SSTORE PUSH1 0x6 DUP2 ADD PUSH1 0x1 DUP2 SSTORE TIMESTAMP PUSH1 0x7 DUP4 ADD SSTORE PUSH1 0x1 PUSH1 0x24 CALLDATALOAD EQ DUP1 PUSH2 0x1D2A JUMPI JUMPDEST ISZERO PUSH2 0x1D1E JUMPI PUSH2 0xE10 DUP1 PUSH1 0x64 CALLDATALOAD MUL SWAP1 PUSH1 0x64 CALLDATALOAD DUP3 DIV EQ PUSH1 0x64 CALLDATALOAD ISZERO OR ISZERO PUSH2 0x1D08 JUMPI PUSH2 0x1ABE SWAP1 TIMESTAMP PUSH2 0x2303 JUMP JUMPDEST PUSH1 0xA DUP4 ADD SSTORE JUMPDEST PUSH1 0x40 MLOAD SWAP1 PUSH2 0x1AD1 DUP3 PUSH2 0x1FB8 JUMP JUMPDEST CALLER DUP3 MSTORE PUSH1 0x20 DUP3 ADD PUSH1 0x0 DUP2 MSTORE PUSH1 0x40 DUP4 ADD PUSH1 0x0 DUP2 MSTORE PUSH1 0x60 DUP5 ADD SWAP1 PUSH1 0x0 DUP3 MSTORE PUSH2 0x1B58 PUSH1 0x3 PUSH1 0x80 DUP8 ADD SWAP3 PUSH1 0x1 DUP5 MSTORE DUP10 PUSH1 0x0 MSTORE PUSH1 0x5 PUSH1 0x20 MSTORE PUSH1 0x40 PUSH1 0x0 KECCAK256 CALLER PUSH1 0x0 MSTORE PUSH1 0x20 MSTORE PUSH1 0x40 PUSH1 0x0 KECCAK256 SWAP1 PUSH1 0x1 DUP1 PUSH1 0xA0 SHL SUB DUP1 SWAP10 MLOAD AND SWAP7 PUSH1 0x1 PUSH1 0x1 PUSH1 0x60 SHL SUB PUSH1 0xA0 SHL SWAP8 DUP9 DUP5 SLOAD AND OR DUP4 SSTORE MLOAD PUSH1 0x1 DUP4 ADD SSTORE MLOAD PUSH1 0x2 DUP3 ADD SSTORE ADD SWAP3 MLOAD ISZERO ISZERO DUP4 SWAP1 PUSH1 0xFF DUP1 NOT DUP4 SLOAD AND SWAP2 ISZERO ISZERO AND OR SWAP1 SSTORE JUMP JUMPDEST MLOAD ISZERO ISZERO SWAP1 DUP1 SLOAD SWAP1 PUSH2 0xFF00 NOT SWAP2 DUP3 PUSH2 0xFF00 DUP1 SWAP6 PUSH1 0x8 SHL AND SWAP2 AND OR SWAP1 SSTORE DUP7 PUSH1 0x0 MSTORE PUSH1 0x6 PUSH1 0x20 MSTORE PUSH2 0x1B8A CALLER PUSH1 0x40 PUSH1 0x0 KECCAK256 PUSH2 0x235F JUMP JUMPDEST CALLER PUSH1 0x0 MSTORE PUSH1 0x7 PUSH1 0x20 MSTORE PUSH2 0x1BA1 DUP8 PUSH1 0x40 PUSH1 0x0 KECCAK256 PUSH2 0x239A JUMP JUMPDEST DUP7 PUSH1 0x24 CALLDATALOAD ISZERO DUP1 PUSH2 0x1CFC JUMPI JUMPDEST PUSH2 0x1C13 JUMPI JUMPDEST DUP9 SWAP1 PUSH32 0x73F639A997D47BC9ECF8116DAC1744591113286AD7FDB2B14682AF6EFCB58D39 PUSH2 0x1BE9 PUSH1 0x40 MLOAD SWAP4 PUSH1 0x80 DUP6 MSTORE PUSH1 0x80 DUP6 ADD SWAP1 PUSH2 0x212B JUMP JUMPDEST SWAP3 PUSH2 0x1BF9 PUSH1 0x20 DUP3 ADD PUSH1 0x24 CALLDATALOAD PUSH2 0x216B JUMP JUMPDEST CALLVALUE PUSH1 0x40 DUP3 ADD MSTORE PUSH1 0x44 CALLDATALOAD PUSH1 0x60 DUP3 ADD MSTORE DUP1 CALLER SWAP5 SUB SWAP1 LOG3 PUSH1 0x1 DUP1 SSTORE STOP JUMPDEST PUSH2 0x1CAA PUSH1 0x3 PUSH1 0x2 SWAP8 PUSH1 0x40 MLOAD SWAP1 PUSH2 0x1C28 DUP3 PUSH2 0x1FB8 JUMP JUMPDEST PUSH20 0x1111111111111111111111111111111111111111 SWAP8 DUP9 DUP4 MSTORE PUSH1 0x20 DUP4 ADD SWAP1 PUSH1 0x0 DUP3 MSTORE PUSH1 0x40 DUP5 ADD SWAP3 PUSH1 0x0 DUP5 MSTORE PUSH1 0x60 DUP6 ADD SWAP11 PUSH1 0x0 DUP13 MSTORE PUSH1 0x80 DUP7 ADD SWAP9 PUSH1 0x1 DUP11 MSTORE PUSH1 0x0 MSTORE PUSH1 0x5 PUSH1 0x20 MSTORE PUSH1 0x40 PUSH1 0x0 KECCAK256 SWAP1 PUSH1 0x0 MSTORE PUSH1 0x20 MSTORE PUSH1 0x40 PUSH1 0x0 KECCAK256 SWAP5 MLOAD AND SWAP1 DUP5 SLOAD AND OR DUP4 SSTORE MLOAD PUSH1 0x1 DUP4 ADD SSTORE MLOAD DUP10 DUP3 ADD SSTORE ADD SWAP5 MLOAD ISZERO ISZERO DUP6 SWAP1 PUSH1 0xFF DUP1 NOT DUP4 SLOAD AND SWAP2 ISZERO ISZERO AND OR SWAP1 SSTORE JUMP JUMPDEST MLOAD ISZERO ISZERO SWAP2 DUP4 SLOAD SWAP3 PUSH1 0x8 SHL AND SWAP2 AND OR SWAP1 SSTORE DUP4 PUSH1 0x0 MSTORE PUSH1 0x6 PUSH1 0x20 MSTORE PUSH2 0x1CD0 PUSH1 0x40 PUSH1 0x0 KECCAK256 PUSH2 0x2310 JUMP JUMPDEST SSTORE PUSH1 0x4 PUSH2 0x1CE4 PUSH1 0x3 DUP4 ADD SLOAD DUP3 DUP5 ADD SLOAD PUSH2 0x2303 JUMP JUMPDEST SWAP2 ADD SSTORE PUSH2 0x1CF0 DUP2 PUSH2 0x2591 JUMP JUMPDEST DUP3 DUP1 DUP1 DUP1 DUP1 DUP1 DUP7 PUSH2 0x1BB1 JUMP JUMPDEST POP PUSH1 0x1 PUSH1 0x44 CALLDATALOAD EQ PUSH2 0x1BAC JUMP JUMPDEST PUSH4 0x4E487B71 PUSH1 0xE0 SHL PUSH1 0x0 MSTORE PUSH1 0x11 PUSH1 0x4 MSTORE PUSH1 0x24 PUSH1 0x0 REVERT JUMPDEST PUSH1 0x0 PUSH1 0xA DUP4 ADD SSTORE PUSH2 0x1AC4 JUMP JUMPDEST POP PUSH1 0x64 CALLDATALOAD ISZERO ISZERO PUSH2 0x1A96 JUMP JUMPDEST SWAP1 POP DUP5 ADD MLOAD DUP6 PUSH2 0x1A22 JUMP JUMPDEST SWAP2 POP PUSH1 0x1 DUP4 ADD PUSH1 0x0 MSTORE PUSH1 0x20 PUSH1 0x0 KECCAK256 PUSH1 0x0 SWAP3 JUMPDEST PUSH1 0x1F NOT DUP4 AND DUP5 LT PUSH2 0x1D95 JUMPI PUSH1 0x1 SWAP4 POP DUP3 PUSH1 0x1F NOT DUP2 AND LT PUSH2 0x1D7C JUMPI JUMPDEST POP POP DUP2 SHL ADD PUSH1 0x1 DUP3 ADD SSTORE PUSH2 0x1A39 JUMP JUMPDEST DUP7 ADD MLOAD PUSH1 0x0 NOT PUSH1 0xF8 DUP5 PUSH1 0x3 SHL AND SHR NOT AND SWAP1 SSTORE DUP6 DUP1 PUSH2 0x1D6D JUMP JUMPDEST DUP7 DUP2 ADD MLOAD DUP3 SSTORE PUSH1 0x20 SWAP4 DUP5 ADD SWAP4 PUSH1 0x1 SWAP1 SWAP3 ADD SWAP2 ADD PUSH2 0x1D52 JUMP JUMPDEST PUSH2 0x1DDD SWAP1 PUSH1 0x1 DUP5 ADD PUSH1 0x0 MSTORE PUSH1 0x20 PUSH1 0x0 KECCAK256 PUSH1 0x1F DUP5 ADD PUSH1 0x5 SHR DUP2 ADD SWAP2 PUSH1 0x20 DUP6 LT PUSH2 0x1DE3 JUMPI JUMPDEST PUSH1 0x1F ADD PUSH1 0x5 SHR ADD SWAP1 PUSH2 0x22EC JUMP JUMPDEST DUP5 PUSH2 0x1A0B JUMP JUMPDEST SWAP1 SWAP2 POP DUP2 SWAP1 PUSH2 0x1DD0 JUMP JUMPDEST PUSH4 0x4E487B71 PUSH1 0xE0 SHL PUSH1 0x0 MSTORE PUSH1 0x41 PUSH1 0x4 MSTORE PUSH1 0x24 PUSH1 0x0 REVERT JUMPDEST PUSH1 0x1 PUSH1 0x44 CALLDATALOAD EQ DUP1 ISZERO PUSH2 0x1E63 JUMPI JUMPDEST PUSH2 0x19CA JUMPI PUSH1 0x40 MLOAD PUSH3 0x461BCD PUSH1 0xE5 SHL DUP2 MSTORE PUSH1 0x20 PUSH1 0x4 DUP3 ADD MSTORE PUSH1 0x21 PUSH1 0x24 DUP3 ADD MSTORE PUSH32 0x41492067616D6573206D75737420686176652031206F72203220706C61796572 PUSH1 0x44 DUP3 ADD MSTORE PUSH1 0x73 PUSH1 0xF8 SHL PUSH1 0x64 DUP3 ADD MSTORE PUSH1 0x84 SWAP1 REVERT JUMPDEST POP PUSH1 0x2 PUSH1 0x44 CALLDATALOAD EQ PUSH2 0x1E10 JUMP JUMPDEST PUSH1 0x40 MLOAD PUSH3 0x461BCD PUSH1 0xE5 SHL DUP2 MSTORE PUSH1 0x20 PUSH1 0x4 DUP3 ADD MSTORE PUSH1 0x1F PUSH1 0x24 DUP3 ADD MSTORE PUSH32 0x506C6179657273206D757374206265206265747765656E203120616E64203500 PUSH1 0x44 DUP3 ADD MSTORE PUSH1 0x64 SWAP1 REVERT JUMPDEST POP PUSH1 0x5 PUSH1 0x44 CALLDATALOAD GT ISZERO PUSH2 0x19BC JUMP JUMPDEST PUSH1 0x40 MLOAD PUSH3 0x461BCD PUSH1 0xE5 SHL DUP2 MSTORE PUSH1 0x20 PUSH1 0x4 DUP3 ADD MSTORE PUSH1 0x1A PUSH1 0x24 DUP3 ADD MSTORE PUSH32 0x426574206D757374206265206174206C656173742031204D4F4E000000000000 PUSH1 0x44 DUP3 ADD MSTORE PUSH1 0x64 SWAP1 REVERT JUMPDEST CALLVALUE PUSH2 0x1E1 JUMPI PUSH1 0x40 CALLDATASIZE PUSH1 0x3 NOT ADD SLT PUSH2 0x1E1 JUMPI PUSH2 0x1F1F PUSH2 0x1F5E JUMP JUMPDEST PUSH1 0x1 PUSH1 0x1 PUSH1 0xA0 SHL SUB AND PUSH1 0x0 SWAP1 DUP2 MSTORE PUSH1 0x7 PUSH1 0x20 MSTORE PUSH1 0x40 SWAP1 KECCAK256 DUP1 SLOAD PUSH1 0x24 CALLDATALOAD SWAP2 SWAP1 DUP3 LT ISZERO PUSH2 0x1E1 JUMPI PUSH1 0x20 SWAP2 PUSH2 0x1F50 SWAP2 PUSH2 0x1F8A JUMP JUMPDEST SWAP1 SLOAD PUSH1 0x40 MLOAD SWAP2 PUSH1 0x3 SHL SHR DUP2 MSTORE RETURN JUMPDEST PUSH1 0x4 CALLDATALOAD SWAP1 PUSH1 0x1 PUSH1 0x1 PUSH1 0xA0 SHL SUB DUP3 AND DUP3 SUB PUSH2 0x1E1 JUMPI JUMP JUMPDEST PUSH1 0x24 CALLDATALOAD SWAP1 PUSH1 0x1 PUSH1 0x1 PUSH1 0xA0 SHL SUB DUP3 AND DUP3 SUB PUSH2 0x1E1 JUMPI JUMP JUMPDEST DUP1 SLOAD DUP3 LT ISZERO PUSH2 0x1FA2 JUMPI PUSH1 0x0 MSTORE PUSH1 0x20 PUSH1 0x0 KECCAK256 ADD SWAP1 PUSH1 0x0 SWAP1 JUMP JUMPDEST PUSH4 0x4E487B71 PUSH1 0xE0 SHL PUSH1 0x0 MSTORE PUSH1 0x32 PUSH1 0x4 MSTORE PUSH1 0x24 PUSH1 0x0 REVERT JUMPDEST PUSH1 0xA0 DUP2 ADD SWAP1 DUP2 LT PUSH8 0xFFFFFFFFFFFFFFFF DUP3 GT OR PUSH2 0x1DED JUMPI PUSH1 0x40 MSTORE JUMP JUMPDEST PUSH2 0x240 DUP2 ADD SWAP1 DUP2 LT PUSH8 0xFFFFFFFFFFFFFFFF DUP3 GT OR PUSH2 0x1DED JUMPI PUSH1 0x40 MSTORE JUMP JUMPDEST PUSH2 0x1A0 DUP2 ADD SWAP1 DUP2 LT PUSH8 0xFFFFFFFFFFFFFFFF DUP3 GT OR PUSH2 0x1DED JUMPI PUSH1 0x40 MSTORE JUMP JUMPDEST SWAP1 PUSH1 0x1F DUP1 NOT SWAP2 ADD AND DUP2 ADD SWAP1 DUP2 LT PUSH8 0xFFFFFFFFFFFFFFFF DUP3 GT OR PUSH2 0x1DED JUMPI PUSH1 0x40 MSTORE JUMP JUMPDEST PUSH8 0xFFFFFFFFFFFFFFFF DUP2 GT PUSH2 0x1DED JUMPI PUSH1 0x1F ADD PUSH1 0x1F NOT AND PUSH1 0x20 ADD SWAP1 JUMP JUMPDEST SWAP1 PUSH1 0x1 DUP3 DUP2 SHR SWAP3 AND DUP1 ISZERO PUSH2 0x207C JUMPI JUMPDEST PUSH1 0x20 DUP4 LT EQ PUSH2 0x2066 JUMPI JUMP JUMPDEST PUSH4 0x4E487B71 PUSH1 0xE0 SHL PUSH1 0x0 MSTORE PUSH1 0x22 PUSH1 0x4 MSTORE PUSH1 0x24 PUSH1 0x0 REVERT JUMPDEST SWAP2 PUSH1 0x7F AND SWAP2 PUSH2 0x205B JUMP JUMPDEST SWAP1 PUSH1 0x40 MLOAD SWAP2 DUP3 PUSH1 0x0 DUP3 SLOAD PUSH2 0x2099 DUP2 PUSH2 0x204C JUMP JUMPDEST SWAP1 DUP2 DUP5 MSTORE PUSH1 0x20 SWAP5 PUSH1 0x1 SWAP2 PUSH1 0x1 DUP2 AND SWAP1 DUP2 PUSH1 0x0 EQ PUSH2 0x2109 JUMPI POP PUSH1 0x1 EQ PUSH2 0x20CA JUMPI JUMPDEST POP POP POP PUSH2 0x20C8 SWAP3 POP SUB DUP4 PUSH2 0x200E JUMP JUMPDEST JUMP JUMPDEST PUSH1 0x0 SWAP1 DUP2 MSTORE DUP6 DUP2 KECCAK256 SWAP6 SWAP4 POP SWAP2 SWAP1 JUMPDEST DUP2 DUP4 LT PUSH2 0x20F1 JUMPI POP POP PUSH2 0x20C8 SWAP4 POP DUP3 ADD ADD CODESIZE DUP1 DUP1 PUSH2 0x20B9 JUMP JUMPDEST DUP6 SLOAD DUP9 DUP5 ADD DUP6 ADD MSTORE SWAP5 DUP6 ADD SWAP5 DUP8 SWAP5 POP SWAP2 DUP4 ADD SWAP2 PUSH2 0x20D8 JUMP JUMPDEST SWAP3 POP POP POP PUSH2 0x20C8 SWAP5 SWAP3 POP PUSH1 0xFF NOT AND DUP3 DUP5 ADD MSTORE ISZERO ISZERO PUSH1 0x5 SHL DUP3 ADD ADD CODESIZE DUP1 DUP1 PUSH2 0x20B9 JUMP JUMPDEST SWAP2 SWAP1 DUP3 MLOAD SWAP3 DUP4 DUP3 MSTORE PUSH1 0x0 JUMPDEST DUP5 DUP2 LT PUSH2 0x2157 JUMPI POP POP DUP3 PUSH1 0x0 PUSH1 0x20 DUP1 SWAP5 SWAP6 DUP5 ADD ADD MSTORE PUSH1 0x1F DUP1 NOT SWAP2 ADD AND ADD ADD SWAP1 JUMP JUMPDEST PUSH1 0x20 DUP2 DUP4 ADD DUP2 ADD MLOAD DUP5 DUP4 ADD DUP3 ADD MSTORE ADD PUSH2 0x2136 JUMP JUMPDEST SWAP1 PUSH1 0x2 DUP3 LT ISZERO PUSH2 0x4C5 JUMPI MSTORE JUMP JUMPDEST SWAP1 PUSH1 0x4 DUP3 LT ISZERO PUSH2 0x4C5 JUMPI MSTORE JUMP JUMPDEST SWAP1 DUP2 MLOAD DUP1 DUP3 MSTORE PUSH1 0x20 DUP1 DUP1 SWAP4 ADD SWAP4 ADD SWAP2 PUSH1 0x0 JUMPDEST DUP3 DUP2 LT PUSH2 0x21A5 JUMPI POP POP POP POP SWAP1 JUMP JUMPDEST DUP4 MLOAD DUP6 MSTORE SWAP4 DUP2 ADD SWAP4 SWAP3 DUP2 ADD SWAP3 PUSH1 0x1 ADD PUSH2 0x2197 JUMP JUMPDEST SWAP1 PUSH2 0x229F PUSH2 0x21DB PUSH2 0x240 DUP5 MLOAD DUP5 MSTORE PUSH1 0x20 DUP6 ADD MLOAD SWAP1 DUP1 PUSH1 0x20 DUP7 ADD MSTORE DUP5 ADD SWAP1 PUSH2 0x212B JUMP JUMPDEST PUSH1 0x40 DUP5 ADD MLOAD PUSH1 0x1 DUP1 PUSH1 0xA0 SHL SUB DUP1 SWAP2 AND PUSH1 0x40 DUP6 ADD MSTORE PUSH2 0x2201 PUSH1 0x60 DUP7 ADD MLOAD PUSH1 0x60 DUP7 ADD SWAP1 PUSH2 0x216B JUMP JUMPDEST PUSH2 0x2213 PUSH1 0x80 DUP7 ADD MLOAD PUSH1 0x80 DUP7 ADD SWAP1 PUSH2 0x2178 JUMP JUMPDEST PUSH1 0xA0 DUP6 ADD MLOAD PUSH1 0xA0 DUP6 ADD MSTORE PUSH1 0xC0 DUP6 ADD MLOAD PUSH1 0xC0 DUP6 ADD MSTORE PUSH1 0xE0 DUP6 ADD MLOAD PUSH1 0xE0 DUP6 ADD MSTORE PUSH2 0x100 DUP1 DUP7 ADD MLOAD SWAP1 DUP6 ADD MSTORE PUSH2 0x120 DUP1 DUP7 ADD MLOAD SWAP1 DUP6 ADD MSTORE PUSH2 0x140 DUP1 DUP7 ADD MLOAD SWAP1 DUP6 ADD MSTORE PUSH2 0x160 DUP1 DUP7 ADD MLOAD SWAP1 DUP6 ADD MSTORE PUSH2 0x180 DUP1 DUP7 ADD MLOAD SWAP1 DUP6 ADD MSTORE PUSH2 0x1A0 SWAP1 DUP2 DUP7 ADD MLOAD AND SWAP1 DUP5 ADD MSTORE PUSH2 0x1C0 DUP1 DUP6 ADD MLOAD SWAP1 DUP5 ADD MSTORE PUSH2 0x1E0 DUP1 DUP6 ADD MLOAD SWAP1 DUP5 ADD MSTORE PUSH2 0x200 DUP1 DUP6 ADD MLOAD SWAP1 DUP5 DUP4 SUB SWAP1 DUP6 ADD MSTORE PUSH2 0x2185 JUMP JUMPDEST SWAP2 PUSH2 0x220 DUP1 SWAP2 ADD MLOAD ISZERO ISZERO SWAP2 ADD MSTORE SWAP1 JUMP JUMPDEST PUSH1 0x40 SWAP1 PUSH1 0x3 NOT ADD SLT PUSH2 0x1E1 JUMPI PUSH1 0x4 CALLDATALOAD SWAP1 PUSH1 0x24 CALLDATALOAD SWAP1 JUMP JUMPDEST PUSH8 0xFFFFFFFFFFFFFFFF DUP2 GT PUSH2 0x1DED JUMPI PUSH1 0x5 SHL PUSH1 0x20 ADD SWAP1 JUMP JUMPDEST PUSH1 0x0 NOT DUP2 EQ PUSH2 0x1D08 JUMPI PUSH1 0x1 ADD SWAP1 JUMP JUMPDEST DUP2 DUP2 LT PUSH2 0x22F7 JUMPI POP POP JUMP JUMPDEST PUSH1 0x0 DUP2 SSTORE PUSH1 0x1 ADD PUSH2 0x22EC JUMP JUMPDEST SWAP2 SWAP1 DUP3 ADD DUP1 SWAP3 GT PUSH2 0x1D08 JUMPI JUMP JUMPDEST DUP1 SLOAD PUSH1 0x1 PUSH1 0x40 SHL DUP2 LT ISZERO PUSH2 0x1DED JUMPI PUSH2 0x232D SWAP2 PUSH1 0x1 DUP3 ADD DUP2 SSTORE PUSH2 0x1F8A JUMP JUMPDEST DUP2 SLOAD PUSH1 0x1 PUSH1 0x1 PUSH1 0xA0 SHL SUB PUSH1 0x3 SWAP3 SWAP1 SWAP3 SHL SWAP2 DUP3 SHL NOT AND PUSH20 0x1111111111111111111111111111111111111111 SWAP1 SWAP2 SHL OR SWAP1 SSTORE JUMP JUMPDEST DUP1 SLOAD PUSH1 0x1 PUSH1 0x40 SHL DUP2 LT ISZERO PUSH2 0x1DED JUMPI PUSH2 0x237C SWAP2 PUSH1 0x1 DUP3 ADD DUP2 SSTORE PUSH2 0x1F8A JUMP JUMPDEST PUSH1 0x1 DUP1 PUSH1 0xA0 SWAP5 SWAP4 SWAP5 SHL SUB DUP1 DUP5 SLOAD SWAP3 PUSH1 0x3 SHL SWAP4 AND DUP4 SHL SWAP3 SHL NOT AND OR SWAP1 SSTORE JUMP JUMPDEST DUP1 SLOAD PUSH1 0x1 PUSH1 0x40 SHL DUP2 LT ISZERO PUSH2 0x1DED JUMPI PUSH2 0x23B7 SWAP2 PUSH1 0x1 DUP3 ADD DUP2 SSTORE PUSH2 0x1F8A JUMP JUMPDEST DUP2 SWAP3 SWAP2 SLOAD SWAP1 PUSH1 0x3 SHL SWAP2 DUP3 SHL SWAP2 PUSH1 0x0 NOT SWAP1 SHL NOT AND OR SWAP1 SSTORE JUMP JUMPDEST SWAP1 PUSH1 0x40 MLOAD SWAP2 DUP3 DUP2 SLOAD SWAP2 DUP3 DUP3 MSTORE PUSH1 0x20 SWAP3 PUSH1 0x20 DUP4 ADD SWAP2 PUSH1 0x0 MSTORE PUSH1 0x20 PUSH1 0x0 KECCAK256 SWAP4 PUSH1 0x0 SWAP1 JUMPDEST DUP3 DUP3 LT PUSH2 0x2406 JUMPI POP POP POP PUSH2 0x20C8 SWAP3 POP SUB DUP4 PUSH2 0x200E JUMP JUMPDEST DUP6 SLOAD DUP5 MSTORE PUSH1 0x1 SWAP6 DUP7 ADD SWAP6 DUP9 SWAP6 POP SWAP4 DUP2 ADD SWAP4 SWAP1 SWAP2 ADD SWAP1 PUSH2 0x23F0 JUMP JUMPDEST PUSH1 0x40 MLOAD SWAP1 PUSH2 0x242D DUP3 PUSH2 0x1FD4 JUMP JUMPDEST DUP2 PUSH2 0x220 PUSH1 0x0 SWAP2 DUP3 DUP2 MSTORE PUSH1 0x60 PUSH1 0x20 DUP3 ADD MSTORE DUP3 PUSH1 0x40 DUP3 ADD MSTORE DUP3 PUSH1 0x60 DUP3 ADD MSTORE DUP3 PUSH1 0x80 DUP3 ADD MSTORE DUP3 PUSH1 0xA0 DUP3 ADD MSTORE DUP3 PUSH1 0xC0 DUP3 ADD MSTORE DUP3 PUSH1 0xE0 DUP3 ADD MSTORE DUP3 PUSH2 0x100 DUP3 ADD MSTORE DUP3 PUSH2 0x120 DUP3 ADD MSTORE DUP3 PUSH2 0x140 DUP3 ADD MSTORE DUP3 PUSH2 0x160 DUP3 ADD MSTORE DUP3 PUSH2 0x180 DUP3 ADD MSTORE DUP3 PUSH2 0x1A0 DUP3 ADD MSTORE DUP3 PUSH2 0x1C0 DUP3 ADD MSTORE DUP3 PUSH2 0x1E0 DUP3 ADD MSTORE PUSH1 0x60 PUSH2 0x200 DUP3 ADD MSTORE ADD MSTORE JUMP JUMPDEST DUP1 MLOAD ISZERO PUSH2 0x1FA2 JUMPI PUSH1 0x20 ADD SWAP1 JUMP JUMPDEST DUP1 MLOAD DUP3 LT ISZERO PUSH2 0x1FA2 JUMPI PUSH1 0x20 SWAP2 PUSH1 0x5 SHL ADD ADD SWAP1 JUMP JUMPDEST ISZERO PUSH2 0x24CE JUMPI JUMP JUMPDEST PUSH1 0x40 MLOAD PUSH3 0x461BCD PUSH1 0xE5 SHL DUP2 MSTORE PUSH1 0x20 PUSH1 0x4 DUP3 ADD MSTORE PUSH1 0x14 PUSH1 0x24 DUP3 ADD MSTORE PUSH20 0x47616D65206E6F7420696E2070726F6772657373 PUSH1 0x60 SHL PUSH1 0x44 DUP3 ADD MSTORE PUSH1 0x64 SWAP1 REVERT JUMPDEST ISZERO PUSH2 0x2511 JUMPI JUMP JUMPDEST PUSH1 0x40 MLOAD PUSH3 0x461BCD PUSH1 0xE5 SHL DUP2 MSTORE PUSH1 0x20 PUSH1 0x4 DUP3 ADD MSTORE PUSH1 0x15 PUSH1 0x24 DUP3 ADD MSTORE PUSH21 0x15949188185B1C9958591E48199D5B199A5B1B1959 PUSH1 0x5A SHL PUSH1 0x44 DUP3 ADD MSTORE PUSH1 0x64 SWAP1 REVERT JUMPDEST DUP2 ISZERO PUSH2 0x2558 JUMPI MOD SWAP1 JUMP JUMPDEST PUSH4 0x4E487B71 PUSH1 0xE0 SHL PUSH1 0x0 MSTORE PUSH1 0x12 PUSH1 0x4 MSTORE PUSH1 0x24 PUSH1 0x0 REVERT JUMPDEST PUSH1 0x2 PUSH1 0x1 SLOAD EQ PUSH2 0x257F JUMPI PUSH1 0x2 PUSH1 0x1 SSTORE JUMP JUMPDEST PUSH1 0x40 MLOAD PUSH4 0x3EE5AEB5 PUSH1 0xE0 SHL DUP2 MSTORE PUSH1 0x4 SWAP1 REVERT JUMPDEST DUP1 PUSH1 0x0 MSTORE PUSH1 0x4 PUSH1 0x20 MSTORE PUSH1 0x40 PUSH1 0x0 KECCAK256 SWAP1 PUSH1 0x2 DUP3 ADD SWAP2 DUP3 SLOAD SWAP3 PUSH1 0xFF DUP5 PUSH1 0xA8 SHR AND PUSH1 0x4 DUP2 LT ISZERO PUSH2 0x4C5 JUMPI PUSH2 0x28DF JUMPI PUSH1 0x6 DUP3 ADD SLOAD PUSH1 0x5 DUP4 ADD SLOAD GT PUSH2 0x28A5 JUMPI PUSH1 0xFF PUSH1 0xA8 SHL NOT SWAP1 SWAP4 AND PUSH1 0x1 PUSH1 0xA8 SHL OR SWAP1 SWAP3 SSTORE TIMESTAMP PUSH1 0x8 DUP4 ADD DUP2 SWAP1 SSTORE PUSH1 0x40 DUP1 MLOAD PUSH1 0x20 DUP2 ADD DUP5 DUP2 MSTORE SWAP2 DUP2 ADD SWAP3 SWAP1 SWAP3 MSTORE PREVRANDAO PUSH1 0x60 DUP4 ADD MSTORE PUSH1 0xD SWAP4 SWAP2 PUSH2 0x260E DUP2 PUSH1 0x80 DUP2 ADD PUSH2 0x735 JUMP JUMPDEST MLOAD SWAP1 KECCAK256 SWAP3 DUP4 SWAP2 ADD SSTORE DUP2 PUSH1 0x0 MSTORE PUSH1 0x8 PUSH1 0x20 MSTORE DUP1 PUSH1 0x40 PUSH1 0x0 KECCAK256 SSTORE DUP2 DUP2 PUSH32 0xB4A411A01BC386893734D83E17411A973F9DBB12732AFF7A88D6964F1360B160 PUSH1 0x0 DUP1 LOG3 DUP2 DUP2 PUSH32 0xF7617D06180C24C92BAD8C8436C3AE97409A09E1F5655DA6C0807F50C5F96748 PUSH1 0x0 DUP1 LOG3 DUP1 PUSH1 0x0 MSTORE PUSH1 0x4 PUSH1 0x20 MSTORE PUSH1 0x40 PUSH1 0x0 KECCAK256 PUSH2 0x2693 PUSH1 0xFF PUSH1 0xF DUP4 ADD SLOAD AND ISZERO PUSH2 0x250A JUMP JUMPDEST PUSH1 0x40 MLOAD SWAP1 PUSH1 0x40 DUP3 ADD DUP3 DUP2 LT PUSH8 0xFFFFFFFFFFFFFFFF DUP3 GT OR PUSH2 0x1DED JUMPI PUSH1 0x40 MSTORE PUSH1 0x1 DUP3 MSTORE PUSH1 0x20 CALLDATASIZE DUP2 DUP5 ADD CALLDATACOPY PUSH1 0x40 DUP1 MLOAD PUSH1 0x20 DUP2 ADD DUP6 DUP2 MSTORE PREVRANDAO SWAP3 DUP3 ADD SWAP3 SWAP1 SWAP3 MSTORE TIMESTAMP PUSH1 0x60 DUP3 ADD MSTORE NUMBER PUSH1 0x80 DUP3 ADD MSTORE PUSH2 0x26E8 DUP2 PUSH1 0xA0 DUP2 ADD PUSH2 0x735 JUMP JUMPDEST MLOAD SWAP1 KECCAK256 PUSH2 0x26F4 DUP4 PUSH2 0x24A6 JUMP JUMPDEST MSTORE PUSH1 0x40 MLOAD SWAP2 PUSH2 0x2702 DUP4 PUSH2 0x1FF1 JUMP JUMPDEST PUSH1 0xC DUP4 MSTORE PUSH1 0x20 DUP4 ADD SWAP1 PUSH2 0x180 CALLDATASIZE DUP4 CALLDATACOPY PUSH1 0x0 JUMPDEST PUSH1 0xC DUP2 LT PUSH2 0x2890 JUMPI POP PUSH1 0x0 JUMPDEST PUSH1 0xC DUP2 LT PUSH2 0x27F0 JUMPI POP POP PUSH1 0xE DUP3 ADD DUP4 MLOAD SWAP2 PUSH8 0xFFFFFFFFFFFFFFFF DUP4 GT PUSH2 0x1DED JUMPI PUSH1 0x1 PUSH1 0x40 SHL DUP4 GT PUSH2 0x1DED JUMPI DUP2 SLOAD DUP4 DUP4 SSTORE DUP1 DUP5 LT PUSH2 0x27D2 JUMPI JUMPDEST POP SWAP1 PUSH1 0x0 MSTORE PUSH1 0x20 PUSH1 0x0 KECCAK256 PUSH1 0x0 JUMPDEST DUP4 DUP2 LT PUSH2 0x27BE JUMPI POP POP POP PUSH1 0xF SWAP1 SWAP2 ADD DUP1 SLOAD PUSH1 0xFF NOT AND PUSH1 0x1 OR SWAP1 SSTORE POP PUSH1 0x40 MLOAD PUSH1 0x20 DUP1 DUP3 MSTORE PUSH32 0xE3122A662CE967AAE888CA4853D0ADD041ACF2F2E54EA9EA9D9C1396F22D6A4 SWAP3 DUP3 SWAP2 PUSH2 0x27B9 SWAP2 SWAP1 DUP4 ADD SWAP1 PUSH2 0x2185 JUMP JUMPDEST SUB SWAP1 LOG3 JUMP JUMPDEST PUSH1 0x1 SWAP1 PUSH1 0x20 DUP5 MLOAD SWAP5 ADD SWAP4 DUP2 DUP5 ADD SSTORE ADD PUSH2 0x2765 JUMP JUMPDEST PUSH2 0x27EA SWAP1 DUP4 PUSH1 0x0 MSTORE DUP5 PUSH1 0x20 PUSH1 0x0 KECCAK256 SWAP2 DUP3 ADD SWAP2 ADD PUSH2 0x22EC JUMP JUMPDEST CODESIZE PUSH2 0x2758 JUMP JUMPDEST PUSH2 0x27F9 DUP3 PUSH2 0x24A6 JUMP JUMPDEST MLOAD SWAP1 DUP1 PUSH1 0xC SUB PUSH1 0xC DUP2 GT PUSH2 0x1D08 JUMPI PUSH2 0xAE1 PUSH2 0x2816 SWAP2 PUSH1 0x1 SWAP5 PUSH2 0x254E JUMP JUMPDEST DUP2 PUSH2 0x284F JUMPI JUMPDEST PUSH2 0x2826 DUP2 DUP9 PUSH2 0x24B3 JUMP JUMPDEST MLOAD SWAP1 PUSH2 0x283D PUSH2 0x2835 DUP5 DUP11 PUSH2 0x24B3 JUMP JUMPDEST MLOAD SWAP2 DUP10 PUSH2 0x24B3 JUMP JUMPDEST MSTORE PUSH2 0x2848 DUP3 DUP9 PUSH2 0x24B3 JUMP JUMPDEST MSTORE ADD PUSH2 0x2720 JUMP JUMPDEST PUSH2 0x2858 DUP5 PUSH2 0x24A6 JUMP JUMPDEST MLOAD PUSH1 0x40 DUP1 MLOAD PUSH1 0x20 DUP2 ADD SWAP3 DUP4 MSTORE SWAP1 DUP2 ADD DUP5 SWAP1 MSTORE PUSH1 0x60 DUP2 ADD DUP4 SWAP1 MSTORE PUSH2 0x287E DUP2 PUSH1 0x80 DUP2 ADD PUSH2 0x735 JUMP JUMPDEST MLOAD SWAP1 KECCAK256 PUSH2 0x288A DUP6 PUSH2 0x24A6 JUMP JUMPDEST MSTORE PUSH2 0x281C JUMP JUMPDEST DUP1 DUP1 PUSH2 0x289E PUSH1 0x1 SWAP4 DUP9 PUSH2 0x24B3 JUMP JUMPDEST MSTORE ADD PUSH2 0x2714 JUMP JUMPDEST PUSH1 0x40 MLOAD PUSH3 0x461BCD PUSH1 0xE5 SHL DUP2 MSTORE PUSH1 0x20 PUSH1 0x4 DUP3 ADD MSTORE PUSH1 0x12 PUSH1 0x24 DUP3 ADD MSTORE PUSH18 0x4E6F7420656E6F75676820706C6179657273 PUSH1 0x70 SHL PUSH1 0x44 DUP3 ADD MSTORE PUSH1 0x64 SWAP1 REVERT JUMPDEST PUSH1 0x40 MLOAD PUSH3 0x461BCD PUSH1 0xE5 SHL DUP2 MSTORE PUSH1 0x20 PUSH1 0x4 DUP3 ADD MSTORE PUSH1 0x16 PUSH1 0x24 DUP3 ADD MSTORE PUSH22 0x11D85B594818D85B9B9BDD081899481CDD185C9D1959 PUSH1 0x52 SHL PUSH1 0x44 DUP3 ADD MSTORE PUSH1 0x64 SWAP1 REVERT JUMPDEST PUSH1 0x0 SLOAD PUSH1 0x1 PUSH1 0x1 PUSH1 0xA0 SHL SUB AND CALLER SUB PUSH2 0x2931 JUMPI JUMP JUMPDEST PUSH1 0x40 MLOAD PUSH4 0x118CDAA7 PUSH1 0xE0 SHL DUP2 MSTORE CALLER PUSH1 0x4 DUP3 ADD MSTORE PUSH1 0x24 SWAP1 REVERT JUMPDEST PUSH1 0x0 SWAP2 DUP3 SWAP2 DUP3 SWAP2 DUP3 SWAP2 PUSH1 0x1 PUSH1 0x1 PUSH1 0xA0 SHL SUB AND GAS CALL RETURNDATASIZE ISZERO PUSH2 0x29C3 JUMPI RETURNDATASIZE PUSH2 0x296D DUP2 PUSH2 0x2030 JUMP JUMPDEST SWAP1 PUSH2 0x297B PUSH1 0x40 MLOAD SWAP3 DUP4 PUSH2 0x200E JUMP JUMPDEST DUP2 MSTORE PUSH1 0x0 PUSH1 0x20 RETURNDATASIZE SWAP3 ADD RETURNDATACOPY JUMPDEST ISZERO PUSH2 0x298D JUMPI JUMP JUMPDEST PUSH1 0x40 MLOAD PUSH3 0x461BCD PUSH1 0xE5 SHL DUP2 MSTORE PUSH1 0x20 PUSH1 0x4 DUP3 ADD MSTORE PUSH1 0xE PUSH1 0x24 DUP3 ADD MSTORE PUSH14 0x14185E5B595B9D0819985A5B1959 PUSH1 0x92 SHL PUSH1 0x44 DUP3 ADD MSTORE PUSH1 0x64 SWAP1 REVERT JUMPDEST PUSH2 0x2986 JUMP JUMPDEST PUSH1 0x0 DUP2 DUP2 MSTORE PUSH1 0x20 SWAP1 PUSH1 0x4 PUSH1 0x20 MSTORE PUSH1 0x40 SWAP2 PUSH1 0x40 DUP3 KECCAK256 PUSH1 0xA DUP2 ADD SLOAD SWAP1 DUP2 ISZERO ISZERO SWAP2 DUP3 PUSH2 0x2AC9 JUMPI JUMPDEST POP DUP2 PUSH2 0x2A97 JUMPI JUMPDEST POP PUSH2 0x2A8B JUMPI PUSH1 0x1 SWAP3 SWAP2 DUP4 SWAP2 PUSH1 0x1 SWAP4 DUP3 SWAP6 JUMPDEST PUSH2 0x2A1F JUMPI JUMPDEST POP POP POP POP SWAP1 POP PUSH2 0x2A16 JUMPI POP JUMP JUMPDEST PUSH2 0x20C8 SWAP1 PUSH2 0x2AD4 JUMP JUMPDEST DUP7 DUP4 MSTORE PUSH1 0x6 DUP3 MSTORE DUP1 DUP4 KECCAK256 DUP1 SLOAD DUP8 LT ISZERO PUSH2 0x2A85 JUMPI PUSH2 0x2A3E DUP8 PUSH1 0xFF SWAP3 PUSH2 0x1F8A JUMP JUMPDEST SWAP1 SLOAD DUP10 DUP7 MSTORE PUSH1 0x5 DUP6 MSTORE DUP4 DUP7 KECCAK256 PUSH1 0x3 SWAP3 DUP4 SHL SWAP2 SWAP1 SWAP2 SHR PUSH1 0x1 PUSH1 0x1 PUSH1 0xA0 SHL SUB AND DUP7 MSTORE DUP5 MSTORE DUP3 DUP6 KECCAK256 ADD SLOAD AND ISZERO PUSH2 0x2A75 JUMPI SWAP5 DUP4 ADD SWAP5 DUP4 PUSH2 0x2A04 JUMP JUMPDEST POP POP SWAP3 POP POP POP DUP1 CODESIZE DUP1 DUP1 DUP1 PUSH2 0x2A09 JUMP JUMPDEST POP PUSH2 0x2A09 JUMP JUMPDEST POP POP POP PUSH2 0x20C8 SWAP1 PUSH2 0x2AD4 JUMP JUMPDEST PUSH1 0xFF SWAP2 POP PUSH1 0x2 ADD SLOAD PUSH1 0xA8 SHR AND PUSH1 0x4 DUP2 LT ISZERO PUSH2 0x2AB5 JUMPI PUSH1 0x1 EQ CODESIZE PUSH2 0x29F3 JUMP JUMPDEST PUSH4 0x4E487B71 PUSH1 0xE0 SHL DUP4 MSTORE PUSH1 0x21 PUSH1 0x4 MSTORE PUSH1 0x24 DUP4 REVERT JUMPDEST TIMESTAMP LT ISZERO SWAP2 POP CODESIZE PUSH2 0x29EC JUMP JUMPDEST SWAP1 PUSH1 0x0 DUP3 DUP2 MSTORE PUSH1 0x4 SWAP3 PUSH1 0x20 DUP5 DUP2 MSTORE PUSH1 0x40 SWAP3 DUP4 DUP2 KECCAK256 SWAP4 PUSH1 0x2 DUP6 ADD SWAP2 DUP3 SLOAD SWAP6 PUSH1 0xFF SWAP4 PUSH1 0xFF DUP9 PUSH1 0xA8 SHR AND SWAP5 DUP11 DUP7 LT ISZERO PUSH2 0x2F95 JUMPI PUSH2 0x2B11 PUSH1 0x1 DUP1 SWAP8 EQ PUSH2 0x24C7 JUMP JUMPDEST DUP4 SWAP1 PUSH1 0x0 NOT SWAP1 PUSH1 0xFF DUP12 PUSH1 0xA0 SHR AND PUSH1 0x2 DUP2 LT ISZERO PUSH2 0x2F81 JUMPI DUP9 SWAP2 SWAP1 PUSH2 0x2EA4 JUMPI POP POP POP DUP8 DUP5 MSTORE POP PUSH1 0x6 DUP1 DUP8 MSTORE DUP5 DUP5 KECCAK256 SLOAD DUP6 MLOAD DUP1 DUP10 ADD DUP11 DUP2 MSTORE PREVRANDAO PUSH1 0x20 DUP3 ADD MSTORE TIMESTAMP PUSH1 0x40 DUP3 ADD MSTORE PUSH1 0x60 DUP2 ADD SWAP3 SWAP1 SWAP3 MSTORE SWAP2 SWAP4 SWAP2 PUSH1 0x64 SWAP2 SWAP1 PUSH2 0x2B6E DUP2 PUSH1 0x80 DUP5 ADD PUSH2 0x735 JUMP JUMPDEST MLOAD SWAP1 KECCAK256 MOD DUP5 SWAP1 DUP8 PUSH1 0x0 NOT SWAP6 DUP2 DUP9 SWAP1 JUMPDEST PUSH2 0x2E24 JUMPI JUMPDEST POP POP POP PUSH1 0x31 GT DUP1 PUSH2 0x2E12 JUMPI JUMPDEST ISZERO PUSH2 0x2DDE JUMPI SWAP3 SWAP2 JUMPDEST PUSH1 0x1 PUSH1 0x1 PUSH1 0xA0 SHL SUB DUP5 AND SWAP10 DUP11 ISZERO PUSH2 0x2DA9 JUMPI PUSH1 0xB DUP4 ADD DUP1 SLOAD PUSH1 0x1 PUSH1 0x1 PUSH1 0xA0 SHL SUB NOT AND DUP13 OR SWAP1 SSTORE PUSH1 0xC DUP4 ADD DUP5 SWAP1 SSTORE PUSH1 0xFF PUSH1 0xA8 SHL NOT AND PUSH1 0x1 PUSH1 0xA9 SHL OR SWAP1 SSTORE TIMESTAMP PUSH1 0x9 DUP3 ADD SSTORE DUP11 ADD SLOAD DUP5 MLOAD SWAP1 DUP2 MSTORE DUP7 DUP2 ADD SWAP2 SWAP1 SWAP2 MSTORE DUP8 SWAP1 DUP8 SWAP1 PUSH32 0xA3A193CD49FB44D3709B2D13235998E900D960268B8356D3C2233340FD215C38 SWAP1 DUP7 SWAP1 LOG3 DUP6 DUP3 MSTORE DUP9 DUP6 MSTORE DUP3 DUP3 KECCAK256 SWAP1 DUP10 DUP3 ADD SLOAD PUSH1 0xFF PUSH1 0x2 DUP5 ADD SLOAD PUSH1 0xA0 SHR AND PUSH1 0x2 DUP2 LT ISZERO PUSH2 0x2D96 JUMPI PUSH2 0x2CF6 JUMPI POP PUSH20 0x1111111111111111111111111111111111111111 DUP9 SUB PUSH2 0x2CB9 JUMPI POP PUSH1 0x3 ADD SLOAD DUP1 SWAP4 SHL SWAP3 DUP1 DUP5 DIV PUSH1 0x2 EQ SWAP1 ISZERO OR ISZERO PUSH2 0x2CA6 JUMPI POP PUSH32 0xDC1D0B6A7CBFA6F3B2D4325BAB5A169B265AD0B2B4022FB550364F0DFEEB6A74 SWAP4 SWAP5 SWAP6 SWAP7 POP PUSH2 0x2C9B DUP3 PUSH1 0x3 SLOAD PUSH2 0x2303 JUMP JUMPDEST PUSH1 0x3 SSTORE JUMPDEST MLOAD SWAP1 DUP2 MSTORE LOG3 JUMP JUMPDEST PUSH4 0x4E487B71 PUSH1 0xE0 SHL DUP2 MSTORE PUSH1 0x11 DUP9 MSTORE PUSH1 0x24 SWAP1 REVERT JUMPDEST SWAP4 POP PUSH32 0xDC1D0B6A7CBFA6F3B2D4325BAB5A169B265AD0B2B4022FB550364F0DFEEB6A74 SWAP6 SWAP7 SWAP8 SWAP9 POP PUSH2 0x2CF1 SWAP2 POP PUSH1 0x3 ADD SLOAD DUP1 SWAP4 PUSH2 0x2949 JUMP JUMPDEST PUSH2 0x2C9F JUMP JUMPDEST DUP1 SWAP6 POP PUSH1 0xA SWAP2 SWAP4 SWAP3 POP MUL DUP5 DUP2 DIV PUSH1 0xA EQ DUP6 ISZERO OR ISZERO PUSH2 0x2D83 JUMPI PUSH1 0x64 SWAP1 DIV SWAP2 DUP3 DUP6 SUB SWAP2 DUP6 DUP4 GT PUSH2 0x2D70 JUMPI POP PUSH32 0xDC1D0B6A7CBFA6F3B2D4325BAB5A169B265AD0B2B4022FB550364F0DFEEB6A74 SWAP7 SWAP8 SWAP9 SWAP10 POP SWAP1 PUSH2 0x2D4F SWAP2 PUSH2 0x2949 JUMP JUMPDEST DUP1 PUSH2 0x2D5B JUMPI JUMPDEST POP PUSH2 0x2C9F JUMP JUMPDEST PUSH2 0x2D67 SWAP1 PUSH1 0x3 SLOAD PUSH2 0x2303 JUMP JUMPDEST PUSH1 0x3 SSTORE CODESIZE PUSH2 0x2D55 JUMP JUMPDEST PUSH4 0x4E487B71 PUSH1 0xE0 SHL DUP2 MSTORE PUSH1 0x11 DUP12 MSTORE PUSH1 0x24 SWAP1 REVERT JUMPDEST PUSH4 0x4E487B71 PUSH1 0xE0 SHL DUP3 MSTORE PUSH1 0x11 DUP11 MSTORE PUSH1 0x24 DUP3 REVERT JUMPDEST PUSH4 0x4E487B71 PUSH1 0xE0 SHL DUP6 MSTORE PUSH1 0x21 DUP13 MSTORE PUSH1 0x24 DUP6 REVERT JUMPDEST DUP7 MLOAD PUSH3 0x461BCD PUSH1 0xE5 SHL DUP2 MSTORE DUP1 DUP15 ADD DUP11 SWAP1 MSTORE PUSH1 0xF PUSH1 0x24 DUP3 ADD MSTORE PUSH15 0x139BC81DDA5B9B995C88199BDD5B99 PUSH1 0x8A SHL PUSH1 0x44 DUP3 ADD MSTORE PUSH1 0x64 SWAP1 REVERT JUMPDEST POP SWAP2 POP PUSH20 0x1111111111111111111111111111111111111111 SWAP2 DUP8 DUP5 MSTORE PUSH1 0x5 DUP8 MSTORE DUP5 DUP5 KECCAK256 DUP4 DUP6 MSTORE DUP8 MSTORE DUP6 DUP6 DUP6 KECCAK256 ADD SLOAD SWAP2 PUSH2 0x2B96 JUMP JUMPDEST POP PUSH1 0x1 PUSH1 0x1 PUSH1 0xA0 SHL SUB DUP2 AND ISZERO ISZERO PUSH2 0x2B8E JUMP JUMPDEST DUP13 DUP10 MSTORE DUP2 DUP13 MSTORE DUP10 DUP10 KECCAK256 DUP1 SLOAD DUP3 LT ISZERO PUSH2 0x2E9E JUMPI DUP2 PUSH2 0x2E40 SWAP2 PUSH2 0x1F8A JUMP JUMPDEST SWAP1 SLOAD PUSH1 0x3 SWAP2 SWAP1 SWAP2 SHL SHR PUSH1 0x1 PUSH1 0x1 PUSH1 0xA0 SHL SUB AND PUSH20 0x1111111111111111111111111111111111111110 NOT DUP2 ADD PUSH2 0x2E77 JUMPI POP DUP3 ADD DUP3 PUSH2 0x2B7D JUMP JUMPDEST DUP14 DUP11 MSTORE PUSH1 0x5 DUP14 MSTORE DUP11 DUP11 KECCAK256 DUP2 DUP12 MSTORE DUP14 MSTORE DUP11 DUP11 KECCAK256 DUP13 ADD SLOAD SWAP9 POP SWAP5 POP DUP11 SWAP3 POP CODESIZE SWAP2 POP DUP2 SWAP1 POP PUSH2 0x2B82 JUMP JUMPDEST POP PUSH2 0x2B82 JUMP JUMPDEST PUSH1 0xA DUP7 SWAP5 SWAP7 SWAP6 SWAP4 SWAP6 ADD SLOAD SWAP1 DUP2 ISZERO ISZERO SWAP2 DUP3 PUSH2 0x2F76 JUMPI JUMPDEST POP DUP8 DUP4 JUMPDEST PUSH2 0x2ECB JUMPI JUMPDEST POP POP POP POP PUSH2 0x2B96 JUMP JUMPDEST DUP13 DUP10 MSTORE PUSH1 0x6 DUP13 MSTORE DUP13 DUP11 DUP14 DUP12 DUP3 DUP2 KECCAK256 DUP1 SLOAD DUP7 LT ISZERO PUSH2 0x2F6C JUMPI DUP9 SWAP4 DUP9 SWAP3 PUSH2 0x2EF1 DUP9 DUP11 SWAP5 PUSH2 0x1F8A JUMP JUMPDEST SWAP1 SLOAD SWAP8 DUP3 MSTORE PUSH1 0x5 DUP7 MSTORE DUP3 DUP3 KECCAK256 PUSH1 0x3 SWAP2 DUP3 SHL SWAP9 SWAP1 SWAP9 SHR PUSH1 0x1 PUSH1 0x1 PUSH1 0xA0 SHL SUB AND DUP1 DUP4 MSTORE SWAP8 SWAP1 SWAP6 MSTORE KECCAK256 SWAP3 DUP3 PUSH2 0x2F5E JUMPI JUMPDEST POP POP PUSH2 0x2F55 JUMPI ADD SLOAD DUP1 ISZERO ISZERO DUP1 PUSH2 0x2F4C JUMPI JUMPDEST PUSH2 0x2F40 JUMPI JUMPDEST POP POP DUP4 SWAP1 JUMPDEST ADD DUP4 PUSH2 0x2EBD JUMP JUMPDEST SWAP1 SWAP9 POP SWAP7 POP DUP4 CODESIZE PUSH2 0x2F34 JUMP JUMPDEST POP DUP9 DUP2 LT PUSH2 0x2F2F JUMP JUMPDEST POP SWAP2 SWAP1 POP PUSH2 0x2F39 JUMP JUMPDEST DUP4 ADD SLOAD AND ISZERO SWAP1 POP DUP6 CODESIZE PUSH2 0x2F1E JUMP JUMPDEST POP POP POP POP POP PUSH2 0x2EC2 JUMP JUMPDEST TIMESTAMP LT ISZERO SWAP2 POP CODESIZE PUSH2 0x2EB9 JUMP JUMPDEST POP PUSH4 0x4E487B71 PUSH1 0xE0 SHL DUP7 MSTORE PUSH1 0x21 DUP14 MSTORE PUSH1 0x24 DUP7 REVERT JUMPDEST PUSH4 0x4E487B71 PUSH1 0xE0 SHL DUP5 MSTORE PUSH1 0x21 DUP12 MSTORE PUSH1 0x24 DUP5 REVERT INVALID LOG2 PUSH5 0x6970667358 0x22 SLT KECCAK256 GT SWAP2 0x2D 0xBC PUSH5 0x45241FD1A7 CALLER ORIGIN 0x27 SWAP8 PUSH28 0x9C95CDD519EBA3352D025BB911EF570B5664736F6C63430008180033 "},"methodIdentifiers":{"AI_ADDRESS()":"1939053d","COMMISSION_PCT()":"2c01c2c6","MAX_PLAYERS()":"4411b3eb","MIN_BET()":"6540742f","MIN_PLAYERS()":"85f07bbe","cancelGame(uint256)":"69958ab9","createGame(string,uint8,uint256,uint256)":"0cf9b221","fulfillVRF(bytes32,uint256[])":"dec69afb","gamePlayers(uint256,uint256)":"dfefef9f","games(uint256)":"117a5b90","getActiveGames()":"1b76929c","getCardOrder(uint256)":"a4249edb","getGame(uint256)":"a2f77bcc","getGamePlayers(uint256)":"15a40f49","getPlayer(uint256,address)":"6454e58d","getPlayerGames(address)":"129daf84","joinGame(uint256)":"efaa55a0","owner()":"8da5cb5b","playerGames(address,uint256)":"0a5694c2","players(uint256,address)":"c0f80921","renounceOwnership()":"715018a6","submitAICompletion(uint256,uint256)":"78300e10","submitCompletion(uint256,uint256)":"eb22ebe0","transferOwnership(address)":"f2fde38b","treasuryBalance()":"313dab20","vrfRequests(bytes32)":"dec04e5f","withdraw()":"3ccfd60b","withdrawTreasury()":"166bab95"}}}}}