{"contracts/casino/Slots.sol":{"Slots":{"abi":[{"inputs":[{"internalType":"address","name":"_owner","type":"address"},{"internalType":"address","name":"_token","type":"address"}],"stateMutability":"nonpayable","type":"constructor"},{"inputs":[],"name":"BetTooHigh","type":"error"},{"inputs":[],"name":"BetTooLow","type":"error"},{"inputs":[{"internalType":"address","name":"owner","type":"address"}],"name":"OwnableInvalidOwner","type":"error"},{"inputs":[{"internalType":"address","name":"account","type":"address"}],"name":"OwnableUnauthorizedAccount","type":"error"},{"inputs":[],"name":"ReentrancyGuardReentrantCall","type":"error"},{"inputs":[{"internalType":"address","name":"token","type":"address"}],"name":"SafeERC20FailedOperation","type":"error"},{"anonymous":false,"inputs":[{"indexed":true,"internalType":"address","name":"player","type":"address"},{"indexed":true,"internalType":"uint256","name":"gameId","type":"uint256"},{"indexed":false,"internalType":"uint256","name":"betAmount","type":"uint256"},{"indexed":false,"internalType":"uint8","name":"reel1","type":"uint8"},{"indexed":false,"internalType":"uint8","name":"reel2","type":"uint8"},{"indexed":false,"internalType":"uint8","name":"reel3","type":"uint8"},{"indexed":false,"internalType":"uint256","name":"payout","type":"uint256"}],"name":"GamePlayed","type":"event"},{"anonymous":false,"inputs":[{"indexed":true,"internalType":"address","name":"player","type":"address"},{"indexed":true,"internalType":"uint256","name":"gameId","type":"uint256"},{"indexed":false,"internalType":"uint256","name":"betAmount","type":"uint256"},{"indexed":false,"internalType":"uint256","name":"result","type":"uint256"},{"indexed":false,"internalType":"uint256","name":"payout","type":"uint256"}],"name":"GamePlayed","type":"event"},{"anonymous":false,"inputs":[{"indexed":true,"internalType":"address","name":"previousOwner","type":"address"},{"indexed":true,"internalType":"address","name":"newOwner","type":"address"}],"name":"OwnershipTransferred","type":"event"},{"inputs":[],"name":"config","outputs":[{"internalType":"address","name":"treasury","type":"address"},{"internalType":"uint256","name":"minBet","type":"uint256"},{"internalType":"uint256","name":"maxBet","type":"uint256"},{"internalType":"uint16","name":"houseEdgeBps","type":"uint16"},{"internalType":"bool","name":"paused","type":"bool"}],"stateMutability":"view","type":"function"},{"inputs":[],"name":"gameCounter","outputs":[{"internalType":"uint256","name":"","type":"uint256"}],"stateMutability":"view","type":"function"},{"inputs":[{"internalType":"uint256","name":"","type":"uint256"}],"name":"games","outputs":[{"internalType":"address","name":"player","type":"address"},{"internalType":"uint256","name":"betAmount","type":"uint256"},{"internalType":"uint256","name":"gameId","type":"uint256"},{"internalType":"uint256","name":"timestamp","type":"uint256"},{"internalType":"bool","name":"settled","type":"bool"},{"internalType":"uint256","name":"result","type":"uint256"},{"internalType":"uint256","name":"payout","type":"uint256"}],"stateMutability":"view","type":"function"},{"inputs":[{"internalType":"address","name":"treasury","type":"address"},{"internalType":"uint256","name":"minBet","type":"uint256"},{"internalType":"uint256","name":"maxBet","type":"uint256"},{"internalType":"uint16","name":"houseEdgeBps","type":"uint16"}],"name":"initialize","outputs":[],"stateMutability":"nonpayable","type":"function"},{"inputs":[],"name":"owner","outputs":[{"internalType":"address","name":"","type":"address"}],"stateMutability":"view","type":"function"},{"inputs":[],"name":"pause","outputs":[],"stateMutability":"nonpayable","type":"function"},{"inputs":[],"name":"renounceOwnership","outputs":[],"stateMutability":"nonpayable","type":"function"},{"inputs":[{"internalType":"uint256","name":"betAmount","type":"uint256"}],"name":"spin","outputs":[],"stateMutability":"nonpayable","type":"function"},{"inputs":[],"name":"token","outputs":[{"internalType":"contract IERC20","name":"","type":"address"}],"stateMutability":"view","type":"function"},{"inputs":[{"internalType":"address","name":"newOwner","type":"address"}],"name":"transferOwnership","outputs":[],"stateMutability":"nonpayable","type":"function"},{"inputs":[],"name":"unpause","outputs":[],"stateMutability":"nonpayable","type":"function"}],"evm":{"bytecode":{"linkReferences":{},"object":"6080346100d857601f6109ab38819003918201601f19168301916001600160401b038311848410176100dd5780849260409485528339810103126100d857610052602061004b836100f3565b92016100f3565b906001600160a01b039081169081156100bf576000549260018060a01b03199280848616176000558260405195167f8be0079c531659141344cd1fd0a4f28419497f9722a3daafe3b4186f6b6457e0600080a360018055169060085416176008556108a390816101088239f35b604051631e4fbdf760e01b815260006004820152602490fd5b600080fd5b634e487b7160e01b600052604160045260246000fd5b51906001600160a01b03821682036100d85756fe608080604052600436101561001357600080fd5b60003560e01c908163117a5b9014610617575080632e0be39a146105f95780633f4ba83a146105d2578063715018a61461057957806379502c55146105295780638456cb59146104fd5780638da5cb5b146104d4578063a5b6ea8f146101e9578063cbb6d6bd1461014f578063f2fde38b146100c65763fc0c546a1461009857600080fd5b346100c15760003660031901126100c1576008546040516001600160a01b039091168152602090f35b600080fd5b346100c15760203660031901126100c1576100df61068e565b6100e76106c0565b6001600160a01b0390811690811561013657600054826001600160601b0360a01b821617600055167f8be0079c531659141344cd1fd0a4f28419497f9722a3daafe3b4186f6b6457e0600080a3005b604051631e4fbdf760e01b815260006004820152602490fd5b346100c15760803660031901126100c15761016861068e565b6064359061ffff82168092036100c1576101806106c0565b60405167ffffffffffffffff60a082019182109111176101d35760018060a01b03166001600160601b0360a01b600254161760025560243560035560443560045562ffffff196005541617600555600080f35b634e487b7160e01b600052604160045260246000fd5b346100c15760203660031901126100c1576002600154146104c257600260015560ff60055460101c1661048f57600354600454906004351061047d576004351161046b5760085460025461024f91600435916001600160a01b03908116913391166106ec565b60405160208101904282524460408201523360601b606082015260548152610276816106a4565b51902061028281610797565b906001810180821161042e5761029790610797565b906002810180911161042e576102ae60ff91610797565b166102c08160ff841660ff86166107c4565b6102dc6102e461ffff600554169261271092839160043561085a565b04928361085a565b0490808281031161042e57818103610444575b60075492600019841461042e57600184016007556040518060e081011067ffffffffffffffff60e0830111176101d3576001958160e060ff9301604052338152600435602082015287870160408201524260608201528760808201528361ff008360081b1662ff00008b60101b16171760a0820152600660c0820187870381528989016000528160205260a06040600020938b80831b038151166001600160601b03831b86541617855560208101518c860155604081015160028601556060810151600386015560048501608082015115158880198354169116179055015160058401555191015581604051986004358a52166020890152166040870152606086015203608084015201907facb74f159b50d2ac1bcd33a514d24357de007dcc8884e80a858496fcd99f99d860a03392a360018055005b634e487b7160e01b600052601160045260246000fd5b600854600254610466918484039133916001600160a01b0391821691166106ec565b6102f7565b604051631765320160e11b8152600490fd5b60405163989e301760e01b8152600490fd5b60405162461bcd60e51b815260206004820152600b60248201526a11d85b59481c185d5cd95960aa1b6044820152606490fd5b604051633ee5aeb560e01b8152600490fd5b346100c15760003660031901126100c1576000546040516001600160a01b039091168152602090f35b346100c15760003660031901126100c1576105166106c0565b6005805462ff0000191662010000179055005b346100c15760003660031901126100c15760a0600180821b036002541660ff600354600454600554916040519485526020850152604084015261ffff8116606084015260101c1615156080820152f35b346100c15760003660031901126100c1576105926106c0565b600080546001600160a01b0319811682556001600160a01b03167f8be0079c531659141344cd1fd0a4f28419497f9722a3daafe3b4186f6b6457e08280a3005b346100c15760003660031901126100c1576105eb6106c0565b6005805462ff000019169055005b346100c15760003660031901126100c1576020600754604051908152f35b346100c15760203660031901126100c15760e0906004356000526006602052604060002060018060a01b03815416906001810154600282015460038301549060ff60048501541692600660058601549501549587526020870152604086015260608501521515608084015260a083015260c0820152f35b600435906001600160a01b03821682036100c157565b6080810190811067ffffffffffffffff8211176101d357604052565b6000546001600160a01b031633036106d457565b60405163118cdaa760e01b8152336004820152602490fd5b6040516323b872dd60e01b602082019081526001600160a01b039384166024830152938316604482015260648082019590955293845292909160a082019067ffffffffffffffff8211838310176101d357602092600092604052519082865af11561078b576000513d61078257508082163b155b610768575050565b604051635274afe760e01b81529116600482015260249150fd5b60011415610760565b6040513d6000823e3d90fd5b60079060405160208101914283524460408301526060820152606081526107bd816106a4565b5190200690565b60ff90811691168181149290838061084e575b1561081357505090506006811461080b5760058114610803576004146107fd57614e2090565b61c35090565b50620186a090565b506203d09090565b8315610841575b508215610834575b50501561082f5761271090565b600090565b60ff161490503880610822565b60ff82161492503861081a565b5060ff821681146107d7565b8181029291811591840414171561042e5756fea264697066735822122078c53f346e51c18e8e80193343db4a7a24ffad106d6158f983ff9b9415caf0b564736f6c63430008180033","opcodes":"PUSH1 0x80 CALLVALUE PUSH2 0xD8 JUMPI PUSH1 0x1F PUSH2 0x9AB CODESIZE DUP2 SWAP1 SUB SWAP2 DUP3 ADD PUSH1 0x1F NOT AND DUP4 ADD SWAP2 PUSH1 0x1 PUSH1 0x1 PUSH1 0x40 SHL SUB DUP4 GT DUP5 DUP5 LT OR PUSH2 0xDD JUMPI DUP1 DUP5 SWAP3 PUSH1 0x40 SWAP5 DUP6 MSTORE DUP4 CODECOPY DUP2 ADD SUB SLT PUSH2 0xD8 JUMPI PUSH2 0x52 PUSH1 0x20 PUSH2 0x4B DUP4 PUSH2 0xF3 JUMP JUMPDEST SWAP3 ADD PUSH2 0xF3 JUMP JUMPDEST SWAP1 PUSH1 0x1 PUSH1 0x1 PUSH1 0xA0 SHL SUB SWAP1 DUP2 AND SWAP1 DUP2 ISZERO PUSH2 0xBF JUMPI PUSH1 0x0 SLOAD SWAP3 PUSH1 0x1 DUP1 PUSH1 0xA0 SHL SUB NOT SWAP3 DUP1 DUP5 DUP7 AND OR PUSH1 0x0 SSTORE DUP3 PUSH1 0x40 MLOAD SWAP6 AND PUSH32 0x8BE0079C531659141344CD1FD0A4F28419497F9722A3DAAFE3B4186F6B6457E0 PUSH1 0x0 DUP1 LOG3 PUSH1 0x1 DUP1 SSTORE AND SWAP1 PUSH1 0x8 SLOAD AND OR PUSH1 0x8 SSTORE PUSH2 0x8A3 SWAP1 DUP2 PUSH2 0x108 DUP3 CODECOPY RETURN JUMPDEST PUSH1 0x40 MLOAD PUSH4 0x1E4FBDF7 PUSH1 0xE0 SHL DUP2 MSTORE PUSH1 0x0 PUSH1 0x4 DUP3 ADD MSTORE PUSH1 0x24 SWAP1 REVERT JUMPDEST PUSH1 0x0 DUP1 REVERT JUMPDEST PUSH4 0x4E487B71 PUSH1 0xE0 SHL PUSH1 0x0 MSTORE PUSH1 0x41 PUSH1 0x4 MSTORE PUSH1 0x24 PUSH1 0x0 REVERT JUMPDEST MLOAD SWAP1 PUSH1 0x1 PUSH1 0x1 PUSH1 0xA0 SHL SUB DUP3 AND DUP3 SUB PUSH2 0xD8 JUMPI JUMP INVALID PUSH1 0x80 DUP1 PUSH1 0x40 MSTORE PUSH1 0x4 CALLDATASIZE LT ISZERO PUSH2 0x13 JUMPI PUSH1 0x0 DUP1 REVERT JUMPDEST PUSH1 0x0 CALLDATALOAD PUSH1 0xE0 SHR SWAP1 DUP2 PUSH4 0x117A5B90 EQ PUSH2 0x617 JUMPI POP DUP1 PUSH4 0x2E0BE39A EQ PUSH2 0x5F9 JUMPI DUP1 PUSH4 0x3F4BA83A EQ PUSH2 0x5D2 JUMPI DUP1 PUSH4 0x715018A6 EQ PUSH2 0x579 JUMPI DUP1 PUSH4 0x79502C55 EQ PUSH2 0x529 JUMPI DUP1 PUSH4 0x8456CB59 EQ PUSH2 0x4FD JUMPI DUP1 PUSH4 0x8DA5CB5B EQ PUSH2 0x4D4 JUMPI DUP1 PUSH4 0xA5B6EA8F EQ PUSH2 0x1E9 JUMPI DUP1 PUSH4 0xCBB6D6BD EQ PUSH2 0x14F JUMPI DUP1 PUSH4 0xF2FDE38B EQ PUSH2 0xC6 JUMPI PUSH4 0xFC0C546A EQ PUSH2 0x98 JUMPI PUSH1 0x0 DUP1 REVERT JUMPDEST CALLVALUE PUSH2 0xC1 JUMPI PUSH1 0x0 CALLDATASIZE PUSH1 0x3 NOT ADD SLT PUSH2 0xC1 JUMPI PUSH1 0x8 SLOAD PUSH1 0x40 MLOAD PUSH1 0x1 PUSH1 0x1 PUSH1 0xA0 SHL SUB SWAP1 SWAP2 AND DUP2 MSTORE PUSH1 0x20 SWAP1 RETURN JUMPDEST PUSH1 0x0 DUP1 REVERT JUMPDEST CALLVALUE PUSH2 0xC1 JUMPI PUSH1 0x20 CALLDATASIZE PUSH1 0x3 NOT ADD SLT PUSH2 0xC1 JUMPI PUSH2 0xDF PUSH2 0x68E JUMP JUMPDEST PUSH2 0xE7 PUSH2 0x6C0 JUMP JUMPDEST PUSH1 0x1 PUSH1 0x1 PUSH1 0xA0 SHL SUB SWAP1 DUP2 AND SWAP1 DUP2 ISZERO PUSH2 0x136 JUMPI PUSH1 0x0 SLOAD DUP3 PUSH1 0x1 PUSH1 0x1 PUSH1 0x60 SHL SUB PUSH1 0xA0 SHL DUP3 AND OR PUSH1 0x0 SSTORE AND PUSH32 0x8BE0079C531659141344CD1FD0A4F28419497F9722A3DAAFE3B4186F6B6457E0 PUSH1 0x0 DUP1 LOG3 STOP JUMPDEST PUSH1 0x40 MLOAD PUSH4 0x1E4FBDF7 PUSH1 0xE0 SHL DUP2 MSTORE PUSH1 0x0 PUSH1 0x4 DUP3 ADD MSTORE PUSH1 0x24 SWAP1 REVERT JUMPDEST CALLVALUE PUSH2 0xC1 JUMPI PUSH1 0x80 CALLDATASIZE PUSH1 0x3 NOT ADD SLT PUSH2 0xC1 JUMPI PUSH2 0x168 PUSH2 0x68E JUMP JUMPDEST PUSH1 0x64 CALLDATALOAD SWAP1 PUSH2 0xFFFF DUP3 AND DUP1 SWAP3 SUB PUSH2 0xC1 JUMPI PUSH2 0x180 PUSH2 0x6C0 JUMP JUMPDEST PUSH1 0x40 MLOAD PUSH8 0xFFFFFFFFFFFFFFFF PUSH1 0xA0 DUP3 ADD SWAP2 DUP3 LT SWAP2 GT OR PUSH2 0x1D3 JUMPI PUSH1 0x1 DUP1 PUSH1 0xA0 SHL SUB AND PUSH1 0x1 PUSH1 0x1 PUSH1 0x60 SHL SUB PUSH1 0xA0 SHL PUSH1 0x2 SLOAD AND OR PUSH1 0x2 SSTORE PUSH1 0x24 CALLDATALOAD PUSH1 0x3 SSTORE PUSH1 0x44 CALLDATALOAD PUSH1 0x4 SSTORE PUSH3 0xFFFFFF NOT PUSH1 0x5 SLOAD AND OR PUSH1 0x5 SSTORE PUSH1 0x0 DUP1 RETURN JUMPDEST PUSH4 0x4E487B71 PUSH1 0xE0 SHL PUSH1 0x0 MSTORE PUSH1 0x41 PUSH1 0x4 MSTORE PUSH1 0x24 PUSH1 0x0 REVERT JUMPDEST CALLVALUE PUSH2 0xC1 JUMPI PUSH1 0x20 CALLDATASIZE PUSH1 0x3 NOT ADD SLT PUSH2 0xC1 JUMPI PUSH1 0x2 PUSH1 0x1 SLOAD EQ PUSH2 0x4C2 JUMPI PUSH1 0x2 PUSH1 0x1 SSTORE PUSH1 0xFF PUSH1 0x5 SLOAD PUSH1 0x10 SHR AND PUSH2 0x48F JUMPI PUSH1 0x3 SLOAD PUSH1 0x4 SLOAD SWAP1 PUSH1 0x4 CALLDATALOAD LT PUSH2 0x47D JUMPI PUSH1 0x4 CALLDATALOAD GT PUSH2 0x46B JUMPI PUSH1 0x8 SLOAD PUSH1 0x2 SLOAD PUSH2 0x24F SWAP2 PUSH1 0x4 CALLDATALOAD SWAP2 PUSH1 0x1 PUSH1 0x1 PUSH1 0xA0 SHL SUB SWAP1 DUP2 AND SWAP2 CALLER SWAP2 AND PUSH2 0x6EC JUMP JUMPDEST PUSH1 0x40 MLOAD PUSH1 0x20 DUP2 ADD SWAP1 TIMESTAMP DUP3 MSTORE PREVRANDAO PUSH1 0x40 DUP3 ADD MSTORE CALLER PUSH1 0x60 SHL PUSH1 0x60 DUP3 ADD MSTORE PUSH1 0x54 DUP2 MSTORE PUSH2 0x276 DUP2 PUSH2 0x6A4 JUMP JUMPDEST MLOAD SWAP1 KECCAK256 PUSH2 0x282 DUP2 PUSH2 0x797 JUMP JUMPDEST SWAP1 PUSH1 0x1 DUP2 ADD DUP1 DUP3 GT PUSH2 0x42E JUMPI PUSH2 0x297 SWAP1 PUSH2 0x797 JUMP JUMPDEST SWAP1 PUSH1 0x2 DUP2 ADD DUP1 SWAP2 GT PUSH2 0x42E JUMPI PUSH2 0x2AE PUSH1 0xFF SWAP2 PUSH2 0x797 JUMP JUMPDEST AND PUSH2 0x2C0 DUP2 PUSH1 0xFF DUP5 AND PUSH1 0xFF DUP7 AND PUSH2 0x7C4 JUMP JUMPDEST PUSH2 0x2DC PUSH2 0x2E4 PUSH2 0xFFFF PUSH1 0x5 SLOAD AND SWAP3 PUSH2 0x2710 SWAP3 DUP4 SWAP2 PUSH1 0x4 CALLDATALOAD PUSH2 0x85A JUMP JUMPDEST DIV SWAP3 DUP4 PUSH2 0x85A JUMP JUMPDEST DIV SWAP1 DUP1 DUP3 DUP2 SUB GT PUSH2 0x42E JUMPI DUP2 DUP2 SUB PUSH2 0x444 JUMPI JUMPDEST PUSH1 0x7 SLOAD SWAP3 PUSH1 0x0 NOT DUP5 EQ PUSH2 0x42E JUMPI PUSH1 0x1 DUP5 ADD PUSH1 0x7 SSTORE PUSH1 0x40 MLOAD DUP1 PUSH1 0xE0 DUP2 ADD LT PUSH8 0xFFFFFFFFFFFFFFFF PUSH1 0xE0 DUP4 ADD GT OR PUSH2 0x1D3 JUMPI PUSH1 0x1 SWAP6 DUP2 PUSH1 0xE0 PUSH1 0xFF SWAP4 ADD PUSH1 0x40 MSTORE CALLER DUP2 MSTORE PUSH1 0x4 CALLDATALOAD PUSH1 0x20 DUP3 ADD MSTORE DUP8 DUP8 ADD PUSH1 0x40 DUP3 ADD MSTORE TIMESTAMP PUSH1 0x60 DUP3 ADD MSTORE DUP8 PUSH1 0x80 DUP3 ADD MSTORE DUP4 PUSH2 0xFF00 DUP4 PUSH1 0x8 SHL AND PUSH3 0xFF0000 DUP12 PUSH1 0x10 SHL AND OR OR PUSH1 0xA0 DUP3 ADD MSTORE PUSH1 0x6 PUSH1 0xC0 DUP3 ADD DUP8 DUP8 SUB DUP2 MSTORE DUP10 DUP10 ADD PUSH1 0x0 MSTORE DUP2 PUSH1 0x20 MSTORE PUSH1 0xA0 PUSH1 0x40 PUSH1 0x0 KECCAK256 SWAP4 DUP12 DUP1 DUP4 SHL SUB DUP2 MLOAD AND PUSH1 0x1 PUSH1 0x1 PUSH1 0x60 SHL SUB DUP4 SHL DUP7 SLOAD AND OR DUP6 SSTORE PUSH1 0x20 DUP2 ADD MLOAD DUP13 DUP7 ADD SSTORE PUSH1 0x40 DUP2 ADD MLOAD PUSH1 0x2 DUP7 ADD SSTORE PUSH1 0x60 DUP2 ADD MLOAD PUSH1 0x3 DUP7 ADD SSTORE PUSH1 0x4 DUP6 ADD PUSH1 0x80 DUP3 ADD MLOAD ISZERO ISZERO DUP9 DUP1 NOT DUP4 SLOAD AND SWAP2 AND OR SWAP1 SSTORE ADD MLOAD PUSH1 0x5 DUP5 ADD SSTORE MLOAD SWAP2 ADD SSTORE DUP2 PUSH1 0x40 MLOAD SWAP9 PUSH1 0x4 CALLDATALOAD DUP11 MSTORE AND PUSH1 0x20 DUP10 ADD MSTORE AND PUSH1 0x40 DUP8 ADD MSTORE PUSH1 0x60 DUP7 ADD MSTORE SUB PUSH1 0x80 DUP5 ADD MSTORE ADD SWAP1 PUSH32 0xACB74F159B50D2AC1BCD33A514D24357DE007DCC8884E80A858496FCD99F99D8 PUSH1 0xA0 CALLER SWAP3 LOG3 PUSH1 0x1 DUP1 SSTORE STOP JUMPDEST PUSH4 0x4E487B71 PUSH1 0xE0 SHL PUSH1 0x0 MSTORE PUSH1 0x11 PUSH1 0x4 MSTORE PUSH1 0x24 PUSH1 0x0 REVERT JUMPDEST PUSH1 0x8 SLOAD PUSH1 0x2 SLOAD PUSH2 0x466 SWAP2 DUP5 DUP5 SUB SWAP2 CALLER SWAP2 PUSH1 0x1 PUSH1 0x1 PUSH1 0xA0 SHL SUB SWAP2 DUP3 AND SWAP2 AND PUSH2 0x6EC JUMP JUMPDEST PUSH2 0x2F7 JUMP JUMPDEST PUSH1 0x40 MLOAD PUSH4 0x17653201 PUSH1 0xE1 SHL DUP2 MSTORE PUSH1 0x4 SWAP1 REVERT JUMPDEST PUSH1 0x40 MLOAD PUSH4 0x989E3017 PUSH1 0xE0 SHL DUP2 MSTORE PUSH1 0x4 SWAP1 REVERT JUMPDEST PUSH1 0x40 MLOAD PUSH3 0x461BCD PUSH1 0xE5 SHL DUP2 MSTORE PUSH1 0x20 PUSH1 0x4 DUP3 ADD MSTORE PUSH1 0xB PUSH1 0x24 DUP3 ADD MSTORE PUSH11 0x11D85B59481C185D5CD959 PUSH1 0xAA SHL PUSH1 0x44 DUP3 ADD MSTORE PUSH1 0x64 SWAP1 REVERT JUMPDEST PUSH1 0x40 MLOAD PUSH4 0x3EE5AEB5 PUSH1 0xE0 SHL DUP2 MSTORE PUSH1 0x4 SWAP1 REVERT JUMPDEST CALLVALUE PUSH2 0xC1 JUMPI PUSH1 0x0 CALLDATASIZE PUSH1 0x3 NOT ADD SLT PUSH2 0xC1 JUMPI PUSH1 0x0 SLOAD PUSH1 0x40 MLOAD PUSH1 0x1 PUSH1 0x1 PUSH1 0xA0 SHL SUB SWAP1 SWAP2 AND DUP2 MSTORE PUSH1 0x20 SWAP1 RETURN JUMPDEST CALLVALUE PUSH2 0xC1 JUMPI PUSH1 0x0 CALLDATASIZE PUSH1 0x3 NOT ADD SLT PUSH2 0xC1 JUMPI PUSH2 0x516 PUSH2 0x6C0 JUMP JUMPDEST PUSH1 0x5 DUP1 SLOAD PUSH3 0xFF0000 NOT AND PUSH3 0x10000 OR SWAP1 SSTORE STOP JUMPDEST CALLVALUE PUSH2 0xC1 JUMPI PUSH1 0x0 CALLDATASIZE PUSH1 0x3 NOT ADD SLT PUSH2 0xC1 JUMPI PUSH1 0xA0 PUSH1 0x1 DUP1 DUP3 SHL SUB PUSH1 0x2 SLOAD AND PUSH1 0xFF PUSH1 0x3 SLOAD PUSH1 0x4 SLOAD PUSH1 0x5 SLOAD SWAP2 PUSH1 0x40 MLOAD SWAP5 DUP6 MSTORE PUSH1 0x20 DUP6 ADD MSTORE PUSH1 0x40 DUP5 ADD MSTORE PUSH2 0xFFFF DUP2 AND PUSH1 0x60 DUP5 ADD MSTORE PUSH1 0x10 SHR AND ISZERO ISZERO PUSH1 0x80 DUP3 ADD MSTORE RETURN JUMPDEST CALLVALUE PUSH2 0xC1 JUMPI PUSH1 0x0 CALLDATASIZE PUSH1 0x3 NOT ADD SLT PUSH2 0xC1 JUMPI PUSH2 0x592 PUSH2 0x6C0 JUMP JUMPDEST PUSH1 0x0 DUP1 SLOAD PUSH1 0x1 PUSH1 0x1 PUSH1 0xA0 SHL SUB NOT DUP2 AND DUP3 SSTORE PUSH1 0x1 PUSH1 0x1 PUSH1 0xA0 SHL SUB AND PUSH32 0x8BE0079C531659141344CD1FD0A4F28419497F9722A3DAAFE3B4186F6B6457E0 DUP3 DUP1 LOG3 STOP JUMPDEST CALLVALUE PUSH2 0xC1 JUMPI PUSH1 0x0 CALLDATASIZE PUSH1 0x3 NOT ADD SLT PUSH2 0xC1 JUMPI PUSH2 0x5EB PUSH2 0x6C0 JUMP JUMPDEST PUSH1 0x5 DUP1 SLOAD PUSH3 0xFF0000 NOT AND SWAP1 SSTORE STOP JUMPDEST CALLVALUE PUSH2 0xC1 JUMPI PUSH1 0x0 CALLDATASIZE PUSH1 0x3 NOT ADD SLT PUSH2 0xC1 JUMPI PUSH1 0x20 PUSH1 0x7 SLOAD PUSH1 0x40 MLOAD SWAP1 DUP2 MSTORE RETURN JUMPDEST CALLVALUE PUSH2 0xC1 JUMPI PUSH1 0x20 CALLDATASIZE PUSH1 0x3 NOT ADD SLT PUSH2 0xC1 JUMPI PUSH1 0xE0 SWAP1 PUSH1 0x4 CALLDATALOAD PUSH1 0x0 MSTORE PUSH1 0x6 PUSH1 0x20 MSTORE PUSH1 0x40 PUSH1 0x0 KECCAK256 PUSH1 0x1 DUP1 PUSH1 0xA0 SHL SUB DUP2 SLOAD AND SWAP1 PUSH1 0x1 DUP2 ADD SLOAD PUSH1 0x2 DUP3 ADD SLOAD PUSH1 0x3 DUP4 ADD SLOAD SWAP1 PUSH1 0xFF PUSH1 0x4 DUP6 ADD SLOAD AND SWAP3 PUSH1 0x6 PUSH1 0x5 DUP7 ADD SLOAD SWAP6 ADD SLOAD SWAP6 DUP8 MSTORE PUSH1 0x20 DUP8 ADD MSTORE PUSH1 0x40 DUP7 ADD MSTORE PUSH1 0x60 DUP6 ADD MSTORE ISZERO ISZERO PUSH1 0x80 DUP5 ADD MSTORE PUSH1 0xA0 DUP4 ADD MSTORE PUSH1 0xC0 DUP3 ADD MSTORE RETURN JUMPDEST PUSH1 0x4 CALLDATALOAD SWAP1 PUSH1 0x1 PUSH1 0x1 PUSH1 0xA0 SHL SUB DUP3 AND DUP3 SUB PUSH2 0xC1 JUMPI JUMP JUMPDEST PUSH1 0x80 DUP2 ADD SWAP1 DUP2 LT PUSH8 0xFFFFFFFFFFFFFFFF DUP3 GT OR PUSH2 0x1D3 JUMPI PUSH1 0x40 MSTORE JUMP JUMPDEST PUSH1 0x0 SLOAD PUSH1 0x1 PUSH1 0x1 PUSH1 0xA0 SHL SUB AND CALLER SUB PUSH2 0x6D4 JUMPI JUMP JUMPDEST PUSH1 0x40 MLOAD PUSH4 0x118CDAA7 PUSH1 0xE0 SHL DUP2 MSTORE CALLER PUSH1 0x4 DUP3 ADD MSTORE PUSH1 0x24 SWAP1 REVERT JUMPDEST PUSH1 0x40 MLOAD PUSH4 0x23B872DD PUSH1 0xE0 SHL PUSH1 0x20 DUP3 ADD SWAP1 DUP2 MSTORE PUSH1 0x1 PUSH1 0x1 PUSH1 0xA0 SHL SUB SWAP4 DUP5 AND PUSH1 0x24 DUP4 ADD MSTORE SWAP4 DUP4 AND PUSH1 0x44 DUP3 ADD MSTORE PUSH1 0x64 DUP1 DUP3 ADD SWAP6 SWAP1 SWAP6 MSTORE SWAP4 DUP5 MSTORE SWAP3 SWAP1 SWAP2 PUSH1 0xA0 DUP3 ADD SWAP1 PUSH8 0xFFFFFFFFFFFFFFFF DUP3 GT DUP4 DUP4 LT OR PUSH2 0x1D3 JUMPI PUSH1 0x20 SWAP3 PUSH1 0x0 SWAP3 PUSH1 0x40 MSTORE MLOAD SWAP1 DUP3 DUP7 GAS CALL ISZERO PUSH2 0x78B JUMPI PUSH1 0x0 MLOAD RETURNDATASIZE PUSH2 0x782 JUMPI POP DUP1 DUP3 AND EXTCODESIZE ISZERO JUMPDEST PUSH2 0x768 JUMPI POP POP JUMP JUMPDEST PUSH1 0x40 MLOAD PUSH4 0x5274AFE7 PUSH1 0xE0 SHL DUP2 MSTORE SWAP2 AND PUSH1 0x4 DUP3 ADD MSTORE PUSH1 0x24 SWAP2 POP REVERT JUMPDEST PUSH1 0x1 EQ ISZERO PUSH2 0x760 JUMP JUMPDEST PUSH1 0x40 MLOAD RETURNDATASIZE PUSH1 0x0 DUP3 RETURNDATACOPY RETURNDATASIZE SWAP1 REVERT JUMPDEST PUSH1 0x7 SWAP1 PUSH1 0x40 MLOAD PUSH1 0x20 DUP2 ADD SWAP2 TIMESTAMP DUP4 MSTORE PREVRANDAO PUSH1 0x40 DUP4 ADD MSTORE PUSH1 0x60 DUP3 ADD MSTORE PUSH1 0x60 DUP2 MSTORE PUSH2 0x7BD DUP2 PUSH2 0x6A4 JUMP JUMPDEST MLOAD SWAP1 KECCAK256 MOD SWAP1 JUMP JUMPDEST PUSH1 0xFF SWAP1 DUP2 AND SWAP2 AND DUP2 DUP2 EQ SWAP3 SWAP1 DUP4 DUP1 PUSH2 0x84E JUMPI JUMPDEST ISZERO PUSH2 0x813 JUMPI POP POP SWAP1 POP PUSH1 0x6 DUP2 EQ PUSH2 0x80B JUMPI PUSH1 0x5 DUP2 EQ PUSH2 0x803 JUMPI PUSH1 0x4 EQ PUSH2 0x7FD JUMPI PUSH2 0x4E20 SWAP1 JUMP JUMPDEST PUSH2 0xC350 SWAP1 JUMP JUMPDEST POP PUSH3 0x186A0 SWAP1 JUMP JUMPDEST POP PUSH3 0x3D090 SWAP1 JUMP JUMPDEST DUP4 ISZERO PUSH2 0x841 JUMPI JUMPDEST POP DUP3 ISZERO PUSH2 0x834 JUMPI JUMPDEST POP POP ISZERO PUSH2 0x82F JUMPI PUSH2 0x2710 SWAP1 JUMP JUMPDEST PUSH1 0x0 SWAP1 JUMP JUMPDEST PUSH1 0xFF AND EQ SWAP1 POP CODESIZE DUP1 PUSH2 0x822 JUMP JUMPDEST PUSH1 0xFF DUP3 AND EQ SWAP3 POP CODESIZE PUSH2 0x81A JUMP JUMPDEST POP PUSH1 0xFF DUP3 AND DUP2 EQ PUSH2 0x7D7 JUMP JUMPDEST DUP2 DUP2 MUL SWAP3 SWAP2 DUP2 ISZERO SWAP2 DUP5 DIV EQ OR ISZERO PUSH2 0x42E JUMPI JUMP INVALID LOG2 PUSH5 0x6970667358 0x22 SLT KECCAK256 PUSH25 0xC53F346E51C18E8E80193343DB4A7A24FFAD106D6158F983FF SWAP12 SWAP5 ISZERO 0xCA CREATE 0xB5 PUSH5 0x736F6C6343 STOP ADDMOD XOR STOP CALLER "},"methodIdentifiers":{"config()":"79502c55","gameCounter()":"2e0be39a","games(uint256)":"117a5b90","initialize(address,uint256,uint256,uint16)":"cbb6d6bd","owner()":"8da5cb5b","pause()":"8456cb59","renounceOwnership()":"715018a6","spin(uint256)":"a5b6ea8f","token()":"fc0c546a","transferOwnership(address)":"f2fde38b","unpause()":"3f4ba83a"}}}}}