{"contracts/casino/Plinko.sol":{"Plinko":{"abi":[{"inputs":[{"internalType":"address","name":"_owner","type":"address"},{"internalType":"address","name":"_token","type":"address"}],"stateMutability":"nonpayable","type":"constructor"},{"inputs":[],"name":"BetTooHigh","type":"error"},{"inputs":[],"name":"BetTooLow","type":"error"},{"inputs":[{"internalType":"address","name":"owner","type":"address"}],"name":"OwnableInvalidOwner","type":"error"},{"inputs":[{"internalType":"address","name":"account","type":"address"}],"name":"OwnableUnauthorizedAccount","type":"error"},{"inputs":[],"name":"ReentrancyGuardReentrantCall","type":"error"},{"inputs":[{"internalType":"address","name":"token","type":"address"}],"name":"SafeERC20FailedOperation","type":"error"},{"anonymous":false,"inputs":[{"indexed":true,"internalType":"address","name":"player","type":"address"},{"indexed":true,"internalType":"uint256","name":"gameId","type":"uint256"},{"indexed":false,"internalType":"uint256","name":"betAmount","type":"uint256"},{"indexed":false,"internalType":"uint8","name":"rows","type":"uint8"},{"indexed":false,"internalType":"int256","name":"position","type":"int256"},{"indexed":false,"internalType":"uint256","name":"payout","type":"uint256"}],"name":"GamePlayed","type":"event"},{"anonymous":false,"inputs":[{"indexed":true,"internalType":"address","name":"player","type":"address"},{"indexed":true,"internalType":"uint256","name":"gameId","type":"uint256"},{"indexed":false,"internalType":"uint256","name":"betAmount","type":"uint256"},{"indexed":false,"internalType":"uint256","name":"result","type":"uint256"},{"indexed":false,"internalType":"uint256","name":"payout","type":"uint256"}],"name":"GamePlayed","type":"event"},{"anonymous":false,"inputs":[{"indexed":true,"internalType":"address","name":"previousOwner","type":"address"},{"indexed":true,"internalType":"address","name":"newOwner","type":"address"}],"name":"OwnershipTransferred","type":"event"},{"inputs":[],"name":"config","outputs":[{"internalType":"address","name":"treasury","type":"address"},{"internalType":"uint256","name":"minBet","type":"uint256"},{"internalType":"uint256","name":"maxBet","type":"uint256"},{"internalType":"uint16","name":"houseEdgeBps","type":"uint16"},{"internalType":"bool","name":"paused","type":"bool"}],"stateMutability":"view","type":"function"},{"inputs":[],"name":"gameCounter","outputs":[{"internalType":"uint256","name":"","type":"uint256"}],"stateMutability":"view","type":"function"},{"inputs":[{"internalType":"uint256","name":"","type":"uint256"}],"name":"games","outputs":[{"internalType":"address","name":"player","type":"address"},{"internalType":"uint256","name":"betAmount","type":"uint256"},{"internalType":"uint256","name":"gameId","type":"uint256"},{"internalType":"uint256","name":"timestamp","type":"uint256"},{"internalType":"bool","name":"settled","type":"bool"},{"internalType":"uint256","name":"result","type":"uint256"},{"internalType":"uint256","name":"payout","type":"uint256"}],"stateMutability":"view","type":"function"},{"inputs":[{"internalType":"address","name":"treasury","type":"address"},{"internalType":"uint256","name":"minBet","type":"uint256"},{"internalType":"uint256","name":"maxBet","type":"uint256"},{"internalType":"uint16","name":"houseEdgeBps","type":"uint16"}],"name":"initialize","outputs":[],"stateMutability":"nonpayable","type":"function"},{"inputs":[],"name":"owner","outputs":[{"internalType":"address","name":"","type":"address"}],"stateMutability":"view","type":"function"},{"inputs":[],"name":"pause","outputs":[],"stateMutability":"nonpayable","type":"function"},{"inputs":[{"internalType":"uint256","name":"betAmount","type":"uint256"},{"internalType":"uint8","name":"rows","type":"uint8"}],"name":"play","outputs":[],"stateMutability":"nonpayable","type":"function"},{"inputs":[],"name":"renounceOwnership","outputs":[],"stateMutability":"nonpayable","type":"function"},{"inputs":[],"name":"token","outputs":[{"internalType":"contract IERC20","name":"","type":"address"}],"stateMutability":"view","type":"function"},{"inputs":[{"internalType":"address","name":"newOwner","type":"address"}],"name":"transferOwnership","outputs":[],"stateMutability":"nonpayable","type":"function"},{"inputs":[],"name":"unpause","outputs":[],"stateMutability":"nonpayable","type":"function"}],"evm":{"bytecode":{"linkReferences":{},"object":"6080346100d857601f610a6838819003918201601f19168301916001600160401b038311848410176100dd5780849260409485528339810103126100d857610052602061004b836100f3565b92016100f3565b906001600160a01b039081169081156100bf576000549260018060a01b03199280848616176000558260405195167f8be0079c531659141344cd1fd0a4f28419497f9722a3daafe3b4186f6b6457e0600080a3600180551690600854161760085561096090816101088239f35b604051631e4fbdf760e01b815260006004820152602490fd5b600080fd5b634e487b7160e01b600052604160045260246000fd5b51906001600160a01b03821682036100d85756fe608060408181526004918236101561001657600080fd5b600092833560e01c918263117a5b90146106ce575081632e0be39a146106af5781633f4ba83a146106875781635cd7692e146102f4578163715018a61461029a57816379502c55146102495781638456cb59146102195781638da5cb5b146101f1578163cbb6d6bd14610154578163f2fde38b146100c9575063fc0c546a1461009e57600080fd5b346100c557816003193601126100c55760085490516001600160a01b039091168152602090f35b5080fd5b905034610150576020366003190112610150576100e4610746565b906100ed6107ba565b6001600160a01b0391821692831561013a57505082546001600160a01b0319811683178455167f8be0079c531659141344cd1fd0a4f28419497f9722a3daafe3b4186f6b6457e08380a380f35b51631e4fbdf760e01b8152908101849052602490fd5b8280fd5b9050346101505760803660031901126101505761016f610746565b6064359261ffff84168094036101ed576101876107ba565b5167ffffffffffffffff60a082019182109111176101da5760018060a01b03166bffffffffffffffffffffffff60a01b6002541617600255602435600355604435905562ffffff19600554161760055580f35b634e487b7160e01b845260418252602484fd5b8480fd5b5050346100c557816003193601126100c557905490516001600160a01b039091168152602090f35b83346102465780600319360112610246576102326107ba565b6201000062ff000019600554161760055580f35b80fd5b8284346102465780600319360112610246575060ff60a092600180851b036002541692600354915490600554928151958652602086015284015261ffff8116606084015260101c1615156080820152f35b83346102465780600319360112610246576102b36107ba565b80546001600160a01b03198116825581906001600160a01b03167f8be0079c531659141344cd1fd0a4f28419497f9722a3daafe3b4186f6b6457e08280a380f35b9050346101505781600319360112610150578035602480359060ff808316809303610683576001956002875414610674576002875560ff60055460101c166106455760088410158061063a575b1561060a5760035486549086106105fa5785116105eb5760018060a01b039361037686866008541687600254169033906107e6565b8151938860209460208701428152448689015260609733891b89820152605481526103a081610761565b519020958c968d935b61054f575b505050506103bc8285610891565b956103d76103df61ffff60055416986127109283918c610917565b049889610917565b048088039780891161053d5703610522575b6007546000198114610510578a016007819055988b86126105015785915b85519360e085019085821067ffffffffffffffff8311176104f0575089928c8f8f8e600698968c8f948c988252338952602089019384528189019587875289019642885260c060808b019a878c5260a081019c8d52019b8c5281528b602052209a51166bffffffffffffffffffffffff60a01b8b5416178a55519089015551600288015551600387015585019051151560ff8019835416911617905551600584015551910155815195865260208601528401528201527f3667a15653b3f4b4d7754f152ce4f501e40ecfb85f8d57c6c1f6fa0dc874b43560803392a3805580f35b634e487b7160e01b8f52604184528efd5b61050a86610793565b9161040f565b634e487b7160e01b8c5260118a52828cfd5b61053887826008541633908460025416906107e6565b6103f1565b634e487b7160e01b8d5260118b52838dfd5b90919296838816868110156105e45782018083116105d257908d8f92895186810191428352448c8301528d8201528c815261058981610761565b519020166105cb57600019915b82820192831291129080158216911516176105b957968c0183169291908c6103a9565b634e487b7160e01b8e5260118c52848efd5b8d91610596565b634e487b7160e01b8f5260118d52858ffd5b50966103ae565b51631765320160e11b81528590fd5b815163989e301760e01b81528790fd5b5162461bcd60e51b8152602081870152600c818401526b496e76616c696420726f777360a01b6044820152606490fd5b506010841115610341565b5162461bcd60e51b8152602081870152600b818401526a11d85b59481c185d5cd95960aa1b6044820152606490fd5b51633ee5aeb560e01b81528590fd5b8680fd5b83346102465780600319360112610246576106a06107ba565b62ff0000196005541660055580f35b5050346100c557816003193601126100c5576020906007549051908152f35b84918434610742576020366003190112610742578060e094833581526006602052209060018060a01b038254169260018301549160028401549060ff600386015493860154169360066005870154960154968852602088015286015260608501521515608084015260a083015260c0820152f35b8380fd5b600435906001600160a01b038216820361075c57565b600080fd5b6080810190811067ffffffffffffffff82111761077d57604052565b634e487b7160e01b600052604160045260246000fd5b600160ff1b81146107a45760000390565b634e487b7160e01b600052601160045260246000fd5b6000546001600160a01b031633036107ce57565b60405163118cdaa760e01b8152336004820152602490fd5b6040516323b872dd60e01b602082019081526001600160a01b039384166024830152938316604482015260648082019590955293845292909160a082019067ffffffffffffffff82118383101761077d57602092600092604052519082865af115610885576000513d61087c57508082163b155b610862575050565b604051635274afe760e01b81529116600482015260249150fd5b6001141561085a565b6040513d6000823e3d90fd5b6000811215610912576108a390610793565b806108b15750506298968090565b6207a120808202918205036107a45781156108fc57600160ff1b81146000198314166107a4570562989680908082116000146108f35781039081116107a45790565b5050620186a090565b634e487b7160e01b600052601260045260246000fd5b6108a3565b818102929181159184041417156107a45756fea264697066735822122036cfd8fb4272a053defdd49f25f26c6cfe71eed6d91644ef064636f950e12b6f64736f6c63430008180033","opcodes":"PUSH1 0x80 CALLVALUE PUSH2 0xD8 JUMPI PUSH1 0x1F PUSH2 0xA68 CODESIZE DUP2 SWAP1 SUB SWAP2 DUP3 ADD PUSH1 0x1F NOT AND DUP4 ADD SWAP2 PUSH1 0x1 PUSH1 0x1 PUSH1 0x40 SHL SUB DUP4 GT DUP5 DUP5 LT OR PUSH2 0xDD JUMPI DUP1 DUP5 SWAP3 PUSH1 0x40 SWAP5 DUP6 MSTORE DUP4 CODECOPY DUP2 ADD SUB SLT PUSH2 0xD8 JUMPI PUSH2 0x52 PUSH1 0x20 PUSH2 0x4B DUP4 PUSH2 0xF3 JUMP JUMPDEST SWAP3 ADD PUSH2 0xF3 JUMP JUMPDEST SWAP1 PUSH1 0x1 PUSH1 0x1 PUSH1 0xA0 SHL SUB SWAP1 DUP2 AND SWAP1 DUP2 ISZERO PUSH2 0xBF JUMPI PUSH1 0x0 SLOAD SWAP3 PUSH1 0x1 DUP1 PUSH1 0xA0 SHL SUB NOT SWAP3 DUP1 DUP5 DUP7 AND OR PUSH1 0x0 SSTORE DUP3 PUSH1 0x40 MLOAD SWAP6 AND PUSH32 0x8BE0079C531659141344CD1FD0A4F28419497F9722A3DAAFE3B4186F6B6457E0 PUSH1 0x0 DUP1 LOG3 PUSH1 0x1 DUP1 SSTORE AND SWAP1 PUSH1 0x8 SLOAD AND OR PUSH1 0x8 SSTORE PUSH2 0x960 SWAP1 DUP2 PUSH2 0x108 DUP3 CODECOPY RETURN JUMPDEST PUSH1 0x40 MLOAD PUSH4 0x1E4FBDF7 PUSH1 0xE0 SHL DUP2 MSTORE PUSH1 0x0 PUSH1 0x4 DUP3 ADD MSTORE PUSH1 0x24 SWAP1 REVERT JUMPDEST PUSH1 0x0 DUP1 REVERT JUMPDEST PUSH4 0x4E487B71 PUSH1 0xE0 SHL PUSH1 0x0 MSTORE PUSH1 0x41 PUSH1 0x4 MSTORE PUSH1 0x24 PUSH1 0x0 REVERT JUMPDEST MLOAD SWAP1 PUSH1 0x1 PUSH1 0x1 PUSH1 0xA0 SHL SUB DUP3 AND DUP3 SUB PUSH2 0xD8 JUMPI JUMP INVALID PUSH1 0x80 PUSH1 0x40 DUP2 DUP2 MSTORE PUSH1 0x4 SWAP2 DUP3 CALLDATASIZE LT ISZERO PUSH2 0x16 JUMPI PUSH1 0x0 DUP1 REVERT JUMPDEST PUSH1 0x0 SWAP3 DUP4 CALLDATALOAD PUSH1 0xE0 SHR SWAP2 DUP3 PUSH4 0x117A5B90 EQ PUSH2 0x6CE JUMPI POP DUP2 PUSH4 0x2E0BE39A EQ PUSH2 0x6AF JUMPI DUP2 PUSH4 0x3F4BA83A EQ PUSH2 0x687 JUMPI DUP2 PUSH4 0x5CD7692E EQ PUSH2 0x2F4 JUMPI DUP2 PUSH4 0x715018A6 EQ PUSH2 0x29A JUMPI DUP2 PUSH4 0x79502C55 EQ PUSH2 0x249 JUMPI DUP2 PUSH4 0x8456CB59 EQ PUSH2 0x219 JUMPI DUP2 PUSH4 0x8DA5CB5B EQ PUSH2 0x1F1 JUMPI DUP2 PUSH4 0xCBB6D6BD EQ PUSH2 0x154 JUMPI DUP2 PUSH4 0xF2FDE38B EQ PUSH2 0xC9 JUMPI POP PUSH4 0xFC0C546A EQ PUSH2 0x9E JUMPI PUSH1 0x0 DUP1 REVERT JUMPDEST CALLVALUE PUSH2 0xC5 JUMPI DUP2 PUSH1 0x3 NOT CALLDATASIZE ADD SLT PUSH2 0xC5 JUMPI PUSH1 0x8 SLOAD SWAP1 MLOAD PUSH1 0x1 PUSH1 0x1 PUSH1 0xA0 SHL SUB SWAP1 SWAP2 AND DUP2 MSTORE PUSH1 0x20 SWAP1 RETURN JUMPDEST POP DUP1 REVERT JUMPDEST SWAP1 POP CALLVALUE PUSH2 0x150 JUMPI PUSH1 0x20 CALLDATASIZE PUSH1 0x3 NOT ADD SLT PUSH2 0x150 JUMPI PUSH2 0xE4 PUSH2 0x746 JUMP JUMPDEST SWAP1 PUSH2 0xED PUSH2 0x7BA JUMP JUMPDEST PUSH1 0x1 PUSH1 0x1 PUSH1 0xA0 SHL SUB SWAP2 DUP3 AND SWAP3 DUP4 ISZERO PUSH2 0x13A JUMPI POP POP DUP3 SLOAD PUSH1 0x1 PUSH1 0x1 PUSH1 0xA0 SHL SUB NOT DUP2 AND DUP4 OR DUP5 SSTORE AND PUSH32 0x8BE0079C531659141344CD1FD0A4F28419497F9722A3DAAFE3B4186F6B6457E0 DUP4 DUP1 LOG3 DUP1 RETURN JUMPDEST MLOAD PUSH4 0x1E4FBDF7 PUSH1 0xE0 SHL DUP2 MSTORE SWAP1 DUP2 ADD DUP5 SWAP1 MSTORE PUSH1 0x24 SWAP1 REVERT JUMPDEST DUP3 DUP1 REVERT JUMPDEST SWAP1 POP CALLVALUE PUSH2 0x150 JUMPI PUSH1 0x80 CALLDATASIZE PUSH1 0x3 NOT ADD SLT PUSH2 0x150 JUMPI PUSH2 0x16F PUSH2 0x746 JUMP JUMPDEST PUSH1 0x64 CALLDATALOAD SWAP3 PUSH2 0xFFFF DUP5 AND DUP1 SWAP5 SUB PUSH2 0x1ED JUMPI PUSH2 0x187 PUSH2 0x7BA JUMP JUMPDEST MLOAD PUSH8 0xFFFFFFFFFFFFFFFF PUSH1 0xA0 DUP3 ADD SWAP2 DUP3 LT SWAP2 GT OR PUSH2 0x1DA JUMPI PUSH1 0x1 DUP1 PUSH1 0xA0 SHL SUB AND PUSH12 0xFFFFFFFFFFFFFFFFFFFFFFFF PUSH1 0xA0 SHL PUSH1 0x2 SLOAD AND OR PUSH1 0x2 SSTORE PUSH1 0x24 CALLDATALOAD PUSH1 0x3 SSTORE PUSH1 0x44 CALLDATALOAD SWAP1 SSTORE PUSH3 0xFFFFFF NOT PUSH1 0x5 SLOAD AND OR PUSH1 0x5 SSTORE DUP1 RETURN JUMPDEST PUSH4 0x4E487B71 PUSH1 0xE0 SHL DUP5 MSTORE PUSH1 0x41 DUP3 MSTORE PUSH1 0x24 DUP5 REVERT JUMPDEST DUP5 DUP1 REVERT JUMPDEST POP POP CALLVALUE PUSH2 0xC5 JUMPI DUP2 PUSH1 0x3 NOT CALLDATASIZE ADD SLT PUSH2 0xC5 JUMPI SWAP1 SLOAD SWAP1 MLOAD PUSH1 0x1 PUSH1 0x1 PUSH1 0xA0 SHL SUB SWAP1 SWAP2 AND DUP2 MSTORE PUSH1 0x20 SWAP1 RETURN JUMPDEST DUP4 CALLVALUE PUSH2 0x246 JUMPI DUP1 PUSH1 0x3 NOT CALLDATASIZE ADD SLT PUSH2 0x246 JUMPI PUSH2 0x232 PUSH2 0x7BA JUMP JUMPDEST PUSH3 0x10000 PUSH3 0xFF0000 NOT PUSH1 0x5 SLOAD AND OR PUSH1 0x5 SSTORE DUP1 RETURN JUMPDEST DUP1 REVERT JUMPDEST DUP3 DUP5 CALLVALUE PUSH2 0x246 JUMPI DUP1 PUSH1 0x3 NOT CALLDATASIZE ADD SLT PUSH2 0x246 JUMPI POP PUSH1 0xFF PUSH1 0xA0 SWAP3 PUSH1 0x1 DUP1 DUP6 SHL SUB PUSH1 0x2 SLOAD AND SWAP3 PUSH1 0x3 SLOAD SWAP2 SLOAD SWAP1 PUSH1 0x5 SLOAD SWAP3 DUP2 MLOAD SWAP6 DUP7 MSTORE PUSH1 0x20 DUP7 ADD MSTORE DUP5 ADD MSTORE PUSH2 0xFFFF DUP2 AND PUSH1 0x60 DUP5 ADD MSTORE PUSH1 0x10 SHR AND ISZERO ISZERO PUSH1 0x80 DUP3 ADD MSTORE RETURN JUMPDEST DUP4 CALLVALUE PUSH2 0x246 JUMPI DUP1 PUSH1 0x3 NOT CALLDATASIZE ADD SLT PUSH2 0x246 JUMPI PUSH2 0x2B3 PUSH2 0x7BA JUMP JUMPDEST DUP1 SLOAD PUSH1 0x1 PUSH1 0x1 PUSH1 0xA0 SHL SUB NOT DUP2 AND DUP3 SSTORE DUP2 SWAP1 PUSH1 0x1 PUSH1 0x1 PUSH1 0xA0 SHL SUB AND PUSH32 0x8BE0079C531659141344CD1FD0A4F28419497F9722A3DAAFE3B4186F6B6457E0 DUP3 DUP1 LOG3 DUP1 RETURN JUMPDEST SWAP1 POP CALLVALUE PUSH2 0x150 JUMPI DUP2 PUSH1 0x3 NOT CALLDATASIZE ADD SLT PUSH2 0x150 JUMPI DUP1 CALLDATALOAD PUSH1 0x24 DUP1 CALLDATALOAD SWAP1 PUSH1 0xFF DUP1 DUP4 AND DUP1 SWAP4 SUB PUSH2 0x683 JUMPI PUSH1 0x1 SWAP6 PUSH1 0x2 DUP8 SLOAD EQ PUSH2 0x674 JUMPI PUSH1 0x2 DUP8 SSTORE PUSH1 0xFF PUSH1 0x5 SLOAD PUSH1 0x10 SHR AND PUSH2 0x645 JUMPI PUSH1 0x8 DUP5 LT ISZERO DUP1 PUSH2 0x63A JUMPI JUMPDEST ISZERO PUSH2 0x60A JUMPI PUSH1 0x3 SLOAD DUP7 SLOAD SWAP1 DUP7 LT PUSH2 0x5FA JUMPI DUP6 GT PUSH2 0x5EB JUMPI PUSH1 0x1 DUP1 PUSH1 0xA0 SHL SUB SWAP4 PUSH2 0x376 DUP7 DUP7 PUSH1 0x8 SLOAD AND DUP8 PUSH1 0x2 SLOAD AND SWAP1 CALLER SWAP1 PUSH2 0x7E6 JUMP JUMPDEST DUP2 MLOAD SWAP4 DUP9 PUSH1 0x20 SWAP5 PUSH1 0x20 DUP8 ADD TIMESTAMP DUP2 MSTORE PREVRANDAO DUP7 DUP10 ADD MSTORE PUSH1 0x60 SWAP8 CALLER DUP10 SHL DUP10 DUP3 ADD MSTORE PUSH1 0x54 DUP2 MSTORE PUSH2 0x3A0 DUP2 PUSH2 0x761 JUMP JUMPDEST MLOAD SWAP1 KECCAK256 SWAP6 DUP13 SWAP7 DUP14 SWAP4 JUMPDEST PUSH2 0x54F JUMPI JUMPDEST POP POP POP POP PUSH2 0x3BC DUP3 DUP6 PUSH2 0x891 JUMP JUMPDEST SWAP6 PUSH2 0x3D7 PUSH2 0x3DF PUSH2 0xFFFF PUSH1 0x5 SLOAD AND SWAP9 PUSH2 0x2710 SWAP3 DUP4 SWAP2 DUP13 PUSH2 0x917 JUMP JUMPDEST DIV SWAP9 DUP10 PUSH2 0x917 JUMP JUMPDEST DIV DUP1 DUP9 SUB SWAP8 DUP1 DUP10 GT PUSH2 0x53D JUMPI SUB PUSH2 0x522 JUMPI JUMPDEST PUSH1 0x7 SLOAD PUSH1 0x0 NOT DUP2 EQ PUSH2 0x510 JUMPI DUP11 ADD PUSH1 0x7 DUP2 SWAP1 SSTORE SWAP9 DUP12 DUP7 SLT PUSH2 0x501 JUMPI DUP6 SWAP2 JUMPDEST DUP6 MLOAD SWAP4 PUSH1 0xE0 DUP6 ADD SWAP1 DUP6 DUP3 LT PUSH8 0xFFFFFFFFFFFFFFFF DUP4 GT OR PUSH2 0x4F0 JUMPI POP DUP10 SWAP3 DUP13 DUP16 DUP16 DUP15 PUSH1 0x6 SWAP9 SWAP7 DUP13 DUP16 SWAP5 DUP13 SWAP9 DUP3 MSTORE CALLER DUP10 MSTORE PUSH1 0x20 DUP10 ADD SWAP4 DUP5 MSTORE DUP2 DUP10 ADD SWAP6 DUP8 DUP8 MSTORE DUP10 ADD SWAP7 TIMESTAMP DUP9 MSTORE PUSH1 0xC0 PUSH1 0x80 DUP12 ADD SWAP11 DUP8 DUP13 MSTORE PUSH1 0xA0 DUP2 ADD SWAP13 DUP14 MSTORE ADD SWAP12 DUP13 MSTORE DUP2 MSTORE DUP12 PUSH1 0x20 MSTORE KECCAK256 SWAP11 MLOAD AND PUSH12 0xFFFFFFFFFFFFFFFFFFFFFFFF PUSH1 0xA0 SHL DUP12 SLOAD AND OR DUP11 SSTORE MLOAD SWAP1 DUP10 ADD SSTORE MLOAD PUSH1 0x2 DUP9 ADD SSTORE MLOAD PUSH1 0x3 DUP8 ADD SSTORE DUP6 ADD SWAP1 MLOAD ISZERO ISZERO PUSH1 0xFF DUP1 NOT DUP4 SLOAD AND SWAP2 AND OR SWAP1 SSTORE MLOAD PUSH1 0x5 DUP5 ADD SSTORE MLOAD SWAP2 ADD SSTORE DUP2 MLOAD SWAP6 DUP7 MSTORE PUSH1 0x20 DUP7 ADD MSTORE DUP5 ADD MSTORE DUP3 ADD MSTORE PUSH32 0x3667A15653B3F4B4D7754F152CE4F501E40ECFB85F8D57C6C1F6FA0DC874B435 PUSH1 0x80 CALLER SWAP3 LOG3 DUP1 SSTORE DUP1 RETURN JUMPDEST PUSH4 0x4E487B71 PUSH1 0xE0 SHL DUP16 MSTORE PUSH1 0x41 DUP5 MSTORE DUP15 REVERT JUMPDEST PUSH2 0x50A DUP7 PUSH2 0x793 JUMP JUMPDEST SWAP2 PUSH2 0x40F JUMP JUMPDEST PUSH4 0x4E487B71 PUSH1 0xE0 SHL DUP13 MSTORE PUSH1 0x11 DUP11 MSTORE DUP3 DUP13 REVERT JUMPDEST PUSH2 0x538 DUP8 DUP3 PUSH1 0x8 SLOAD AND CALLER SWAP1 DUP5 PUSH1 0x2 SLOAD AND SWAP1 PUSH2 0x7E6 JUMP JUMPDEST PUSH2 0x3F1 JUMP JUMPDEST PUSH4 0x4E487B71 PUSH1 0xE0 SHL DUP14 MSTORE PUSH1 0x11 DUP12 MSTORE DUP4 DUP14 REVERT JUMPDEST SWAP1 SWAP2 SWAP3 SWAP7 DUP4 DUP9 AND DUP7 DUP2 LT ISZERO PUSH2 0x5E4 JUMPI DUP3 ADD DUP1 DUP4 GT PUSH2 0x5D2 JUMPI SWAP1 DUP14 DUP16 SWAP3 DUP10 MLOAD DUP7 DUP2 ADD SWAP2 TIMESTAMP DUP4 MSTORE PREVRANDAO DUP13 DUP4 ADD MSTORE DUP14 DUP3 ADD MSTORE DUP13 DUP2 MSTORE PUSH2 0x589 DUP2 PUSH2 0x761 JUMP JUMPDEST MLOAD SWAP1 KECCAK256 AND PUSH2 0x5CB JUMPI PUSH1 0x0 NOT SWAP2 JUMPDEST DUP3 DUP3 ADD SWAP3 DUP4 SLT SWAP2 SLT SWAP1 DUP1 ISZERO DUP3 AND SWAP2 ISZERO AND OR PUSH2 0x5B9 JUMPI SWAP7 DUP13 ADD DUP4 AND SWAP3 SWAP2 SWAP1 DUP13 PUSH2 0x3A9 JUMP JUMPDEST PUSH4 0x4E487B71 PUSH1 0xE0 SHL DUP15 MSTORE PUSH1 0x11 DUP13 MSTORE DUP5 DUP15 REVERT JUMPDEST DUP14 SWAP2 PUSH2 0x596 JUMP JUMPDEST PUSH4 0x4E487B71 PUSH1 0xE0 SHL DUP16 MSTORE PUSH1 0x11 DUP14 MSTORE DUP6 DUP16 REVERT JUMPDEST POP SWAP7 PUSH2 0x3AE JUMP JUMPDEST MLOAD PUSH4 0x17653201 PUSH1 0xE1 SHL DUP2 MSTORE DUP6 SWAP1 REVERT JUMPDEST DUP2 MLOAD PUSH4 0x989E3017 PUSH1 0xE0 SHL DUP2 MSTORE DUP8 SWAP1 REVERT JUMPDEST MLOAD PUSH3 0x461BCD PUSH1 0xE5 SHL DUP2 MSTORE PUSH1 0x20 DUP2 DUP8 ADD MSTORE PUSH1 0xC DUP2 DUP5 ADD MSTORE PUSH12 0x496E76616C696420726F7773 PUSH1 0xA0 SHL PUSH1 0x44 DUP3 ADD MSTORE PUSH1 0x64 SWAP1 REVERT JUMPDEST POP PUSH1 0x10 DUP5 GT ISZERO PUSH2 0x341 JUMP JUMPDEST MLOAD PUSH3 0x461BCD PUSH1 0xE5 SHL DUP2 MSTORE PUSH1 0x20 DUP2 DUP8 ADD MSTORE PUSH1 0xB DUP2 DUP5 ADD MSTORE PUSH11 0x11D85B59481C185D5CD959 PUSH1 0xAA SHL PUSH1 0x44 DUP3 ADD MSTORE PUSH1 0x64 SWAP1 REVERT JUMPDEST MLOAD PUSH4 0x3EE5AEB5 PUSH1 0xE0 SHL DUP2 MSTORE DUP6 SWAP1 REVERT JUMPDEST DUP7 DUP1 REVERT JUMPDEST DUP4 CALLVALUE PUSH2 0x246 JUMPI DUP1 PUSH1 0x3 NOT CALLDATASIZE ADD SLT PUSH2 0x246 JUMPI PUSH2 0x6A0 PUSH2 0x7BA JUMP JUMPDEST PUSH3 0xFF0000 NOT PUSH1 0x5 SLOAD AND PUSH1 0x5 SSTORE DUP1 RETURN JUMPDEST POP POP CALLVALUE PUSH2 0xC5 JUMPI DUP2 PUSH1 0x3 NOT CALLDATASIZE ADD SLT PUSH2 0xC5 JUMPI PUSH1 0x20 SWAP1 PUSH1 0x7 SLOAD SWAP1 MLOAD SWAP1 DUP2 MSTORE RETURN JUMPDEST DUP5 SWAP2 DUP5 CALLVALUE PUSH2 0x742 JUMPI PUSH1 0x20 CALLDATASIZE PUSH1 0x3 NOT ADD SLT PUSH2 0x742 JUMPI DUP1 PUSH1 0xE0 SWAP5 DUP4 CALLDATALOAD DUP2 MSTORE PUSH1 0x6 PUSH1 0x20 MSTORE KECCAK256 SWAP1 PUSH1 0x1 DUP1 PUSH1 0xA0 SHL SUB DUP3 SLOAD AND SWAP3 PUSH1 0x1 DUP4 ADD SLOAD SWAP2 PUSH1 0x2 DUP5 ADD SLOAD SWAP1 PUSH1 0xFF PUSH1 0x3 DUP7 ADD SLOAD SWAP4 DUP7 ADD SLOAD AND SWAP4 PUSH1 0x6 PUSH1 0x5 DUP8 ADD SLOAD SWAP7 ADD SLOAD SWAP7 DUP9 MSTORE PUSH1 0x20 DUP9 ADD MSTORE DUP7 ADD MSTORE PUSH1 0x60 DUP6 ADD MSTORE ISZERO ISZERO PUSH1 0x80 DUP5 ADD MSTORE PUSH1 0xA0 DUP4 ADD MSTORE PUSH1 0xC0 DUP3 ADD MSTORE RETURN JUMPDEST DUP4 DUP1 REVERT JUMPDEST PUSH1 0x4 CALLDATALOAD SWAP1 PUSH1 0x1 PUSH1 0x1 PUSH1 0xA0 SHL SUB DUP3 AND DUP3 SUB PUSH2 0x75C JUMPI JUMP JUMPDEST PUSH1 0x0 DUP1 REVERT JUMPDEST PUSH1 0x80 DUP2 ADD SWAP1 DUP2 LT PUSH8 0xFFFFFFFFFFFFFFFF DUP3 GT OR PUSH2 0x77D JUMPI PUSH1 0x40 MSTORE JUMP JUMPDEST PUSH4 0x4E487B71 PUSH1 0xE0 SHL PUSH1 0x0 MSTORE PUSH1 0x41 PUSH1 0x4 MSTORE PUSH1 0x24 PUSH1 0x0 REVERT JUMPDEST PUSH1 0x1 PUSH1 0xFF SHL DUP2 EQ PUSH2 0x7A4 JUMPI PUSH1 0x0 SUB SWAP1 JUMP JUMPDEST PUSH4 0x4E487B71 PUSH1 0xE0 SHL PUSH1 0x0 MSTORE PUSH1 0x11 PUSH1 0x4 MSTORE PUSH1 0x24 PUSH1 0x0 REVERT JUMPDEST PUSH1 0x0 SLOAD PUSH1 0x1 PUSH1 0x1 PUSH1 0xA0 SHL SUB AND CALLER SUB PUSH2 0x7CE JUMPI JUMP JUMPDEST PUSH1 0x40 MLOAD PUSH4 0x118CDAA7 PUSH1 0xE0 SHL DUP2 MSTORE CALLER PUSH1 0x4 DUP3 ADD MSTORE PUSH1 0x24 SWAP1 REVERT JUMPDEST PUSH1 0x40 MLOAD PUSH4 0x23B872DD PUSH1 0xE0 SHL PUSH1 0x20 DUP3 ADD SWAP1 DUP2 MSTORE PUSH1 0x1 PUSH1 0x1 PUSH1 0xA0 SHL SUB SWAP4 DUP5 AND PUSH1 0x24 DUP4 ADD MSTORE SWAP4 DUP4 AND PUSH1 0x44 DUP3 ADD MSTORE PUSH1 0x64 DUP1 DUP3 ADD SWAP6 SWAP1 SWAP6 MSTORE SWAP4 DUP5 MSTORE SWAP3 SWAP1 SWAP2 PUSH1 0xA0 DUP3 ADD SWAP1 PUSH8 0xFFFFFFFFFFFFFFFF DUP3 GT DUP4 DUP4 LT OR PUSH2 0x77D JUMPI PUSH1 0x20 SWAP3 PUSH1 0x0 SWAP3 PUSH1 0x40 MSTORE MLOAD SWAP1 DUP3 DUP7 GAS CALL ISZERO PUSH2 0x885 JUMPI PUSH1 0x0 MLOAD RETURNDATASIZE PUSH2 0x87C JUMPI POP DUP1 DUP3 AND EXTCODESIZE ISZERO JUMPDEST PUSH2 0x862 JUMPI POP POP JUMP JUMPDEST PUSH1 0x40 MLOAD PUSH4 0x5274AFE7 PUSH1 0xE0 SHL DUP2 MSTORE SWAP2 AND PUSH1 0x4 DUP3 ADD MSTORE PUSH1 0x24 SWAP2 POP REVERT JUMPDEST PUSH1 0x1 EQ ISZERO PUSH2 0x85A JUMP JUMPDEST PUSH1 0x40 MLOAD RETURNDATASIZE PUSH1 0x0 DUP3 RETURNDATACOPY RETURNDATASIZE SWAP1 REVERT JUMPDEST PUSH1 0x0 DUP2 SLT ISZERO PUSH2 0x912 JUMPI PUSH2 0x8A3 SWAP1 PUSH2 0x793 JUMP JUMPDEST DUP1 PUSH2 0x8B1 JUMPI POP POP PUSH3 0x989680 SWAP1 JUMP JUMPDEST PUSH3 0x7A120 DUP1 DUP3 MUL SWAP2 DUP3 SDIV SUB PUSH2 0x7A4 JUMPI DUP2 ISZERO PUSH2 0x8FC JUMPI PUSH1 0x1 PUSH1 0xFF SHL DUP2 EQ PUSH1 0x0 NOT DUP4 EQ AND PUSH2 0x7A4 JUMPI SDIV PUSH3 0x989680 SWAP1 DUP1 DUP3 GT PUSH1 0x0 EQ PUSH2 0x8F3 JUMPI DUP2 SUB SWAP1 DUP2 GT PUSH2 0x7A4 JUMPI SWAP1 JUMP JUMPDEST POP POP PUSH3 0x186A0 SWAP1 JUMP JUMPDEST PUSH4 0x4E487B71 PUSH1 0xE0 SHL PUSH1 0x0 MSTORE PUSH1 0x12 PUSH1 0x4 MSTORE PUSH1 0x24 PUSH1 0x0 REVERT JUMPDEST PUSH2 0x8A3 JUMP JUMPDEST DUP2 DUP2 MUL SWAP3 SWAP2 DUP2 ISZERO SWAP2 DUP5 DIV EQ OR ISZERO PUSH2 0x7A4 JUMPI JUMP INVALID LOG2 PUSH5 0x6970667358 0x22 SLT KECCAK256 CALLDATASIZE 0xCF 0xD8 0xFB TIMESTAMP PUSH19 0xA053DEFDD49F25F26C6CFE71EED6D91644EF06 CHAINID CALLDATASIZE 0xF9 POP 0xE1 0x2B PUSH16 0x64736F6C634300081800330000000000 "},"methodIdentifiers":{"config()":"79502c55","gameCounter()":"2e0be39a","games(uint256)":"117a5b90","initialize(address,uint256,uint256,uint16)":"cbb6d6bd","owner()":"8da5cb5b","pause()":"8456cb59","play(uint256,uint8)":"5cd7692e","renounceOwnership()":"715018a6","token()":"fc0c546a","transferOwnership(address)":"f2fde38b","unpause()":"3f4ba83a"}}}}}