{"contracts/casino/Dice.sol":{"Dice":{"abi":[{"inputs":[{"internalType":"address","name":"_owner","type":"address"},{"internalType":"address","name":"_token","type":"address"}],"stateMutability":"nonpayable","type":"constructor"},{"inputs":[],"name":"BetTooHigh","type":"error"},{"inputs":[],"name":"BetTooLow","type":"error"},{"inputs":[{"internalType":"address","name":"owner","type":"address"}],"name":"OwnableInvalidOwner","type":"error"},{"inputs":[{"internalType":"address","name":"account","type":"address"}],"name":"OwnableUnauthorizedAccount","type":"error"},{"inputs":[],"name":"ReentrancyGuardReentrantCall","type":"error"},{"inputs":[{"internalType":"address","name":"token","type":"address"}],"name":"SafeERC20FailedOperation","type":"error"},{"anonymous":false,"inputs":[{"indexed":true,"internalType":"address","name":"player","type":"address"},{"indexed":true,"internalType":"uint256","name":"gameId","type":"uint256"},{"indexed":false,"internalType":"uint256","name":"betAmount","type":"uint256"},{"indexed":false,"internalType":"uint8","name":"target","type":"uint8"},{"indexed":false,"internalType":"bool","name":"rollUnder","type":"bool"},{"indexed":false,"internalType":"uint256","name":"roll","type":"uint256"},{"indexed":false,"internalType":"uint256","name":"payout","type":"uint256"}],"name":"GamePlayed","type":"event"},{"anonymous":false,"inputs":[{"indexed":true,"internalType":"address","name":"player","type":"address"},{"indexed":true,"internalType":"uint256","name":"gameId","type":"uint256"},{"indexed":false,"internalType":"uint256","name":"betAmount","type":"uint256"},{"indexed":false,"internalType":"uint256","name":"result","type":"uint256"},{"indexed":false,"internalType":"uint256","name":"payout","type":"uint256"}],"name":"GamePlayed","type":"event"},{"anonymous":false,"inputs":[{"indexed":true,"internalType":"address","name":"previousOwner","type":"address"},{"indexed":true,"internalType":"address","name":"newOwner","type":"address"}],"name":"OwnershipTransferred","type":"event"},{"inputs":[],"name":"config","outputs":[{"internalType":"address","name":"treasury","type":"address"},{"internalType":"uint256","name":"minBet","type":"uint256"},{"internalType":"uint256","name":"maxBet","type":"uint256"},{"internalType":"uint16","name":"houseEdgeBps","type":"uint16"},{"internalType":"bool","name":"paused","type":"bool"}],"stateMutability":"view","type":"function"},{"inputs":[],"name":"gameCounter","outputs":[{"internalType":"uint256","name":"","type":"uint256"}],"stateMutability":"view","type":"function"},{"inputs":[{"internalType":"uint256","name":"","type":"uint256"}],"name":"games","outputs":[{"internalType":"address","name":"player","type":"address"},{"internalType":"uint256","name":"betAmount","type":"uint256"},{"internalType":"uint256","name":"gameId","type":"uint256"},{"internalType":"uint256","name":"timestamp","type":"uint256"},{"internalType":"bool","name":"settled","type":"bool"},{"internalType":"uint256","name":"result","type":"uint256"},{"internalType":"uint256","name":"payout","type":"uint256"}],"stateMutability":"view","type":"function"},{"inputs":[{"internalType":"address","name":"treasury","type":"address"},{"internalType":"uint256","name":"minBet","type":"uint256"},{"internalType":"uint256","name":"maxBet","type":"uint256"},{"internalType":"uint16","name":"houseEdgeBps","type":"uint16"}],"name":"initialize","outputs":[],"stateMutability":"nonpayable","type":"function"},{"inputs":[],"name":"owner","outputs":[{"internalType":"address","name":"","type":"address"}],"stateMutability":"view","type":"function"},{"inputs":[],"name":"pause","outputs":[],"stateMutability":"nonpayable","type":"function"},{"inputs":[{"internalType":"uint256","name":"betAmount","type":"uint256"},{"internalType":"uint8","name":"target","type":"uint8"},{"internalType":"bool","name":"rollUnder","type":"bool"}],"name":"play","outputs":[],"stateMutability":"nonpayable","type":"function"},{"inputs":[],"name":"renounceOwnership","outputs":[],"stateMutability":"nonpayable","type":"function"},{"inputs":[],"name":"token","outputs":[{"internalType":"contract IERC20","name":"","type":"address"}],"stateMutability":"view","type":"function"},{"inputs":[{"internalType":"address","name":"newOwner","type":"address"}],"name":"transferOwnership","outputs":[],"stateMutability":"nonpayable","type":"function"},{"inputs":[],"name":"unpause","outputs":[],"stateMutability":"nonpayable","type":"function"}],"evm":{"bytecode":{"linkReferences":{},"object":"6080346100d857601f6109c238819003918201601f19168301916001600160401b038311848410176100dd5780849260409485528339810103126100d857610052602061004b836100f3565b92016100f3565b906001600160a01b039081169081156100bf576000549260018060a01b03199280848616176000558260405195167f8be0079c531659141344cd1fd0a4f28419497f9722a3daafe3b4186f6b6457e0600080a360018055169060085416176008556108ba90816101088239f35b604051631e4fbdf760e01b815260006004820152602490fd5b600080fd5b634e487b7160e01b600052604160045260246000fd5b51906001600160a01b03821682036100d85756fe608060408181526004918236101561001657600080fd5b600092833560e01c918263117a5b90146106c3575081632e0be39a146106a45781633f4ba83a1461067c578163715018a61461062257816379502c55146105d15781638456cb59146105a15781638da5cb5b14610579578163caf50828146101f1578163cbb6d6bd14610154578163f2fde38b146100c9575063fc0c546a1461009e57600080fd5b346100c557816003193601126100c55760085490516001600160a01b039091168152602090f35b5080fd5b905034610150576020366003190112610150576100e4610737565b906100ed610784565b6001600160a01b0391821692831561013a57505082546001600160a01b0319811683178455167f8be0079c531659141344cd1fd0a4f28419497f9722a3daafe3b4186f6b6457e08380a380f35b51631e4fbdf760e01b8152908101849052602490fd5b8280fd5b9050346101505760803660031901126101505761016f610737565b6064359261ffff84168094036101ed57610187610784565b5167ffffffffffffffff60a082019182109111176101da5760018060a01b03166bffffffffffffffffffffffff60a01b6002541617600255602435600355604435905562ffffff19600554161760055580f35b634e487b7160e01b845260418252602484fd5b8480fd5b9190503461015057606090816003193601126105755782359060249384359360ff9485811680910361057157604435938415159182860361056d5760019860028a541461055d5760028a558860055460101c1661052d5781151580610523575b156104f05760035486549089106104e05788116104d05760018060a01b0398610286898b600854168c600254169033906107b0565b606484516020810190428252448782015233891b89820152605481526102ab81610752565b519020855160208101914283524488830152898201528881526102cd81610752565b51902006968b880180981161047f5788156104c757838810985b8d99610411575b5060075460001981146103ff578c019a8b60075585519360e085019085821067ffffffffffffffff8311176103ee57506006938f938f8f908f908f97918f978f938e908d998252338a5260208a01938452818a01958787528a019642885260c060808c019b878d5260a081019d8e52019c8d5281528c602052209b51166bffffffffffffffffffffffff60a01b8c5416178b5551908a01555160028901555160038801558601915115159060ff198354169116179055516005840155519101558151968752602087015285015283015260808201527fbbf4dd49c6be36ec9401f629ed72fcf3d7ab8b116f54761fc0a4f41fa2f48a1c60a03392a3805580f35b8f604185634e487b7160e01b835252fd5b634e487b7160e01b8e5260118252838efd5b909850156104b55760001983018181116104a35781905b16978815610491578961045961ffff600554169a6104516127109384926305f5e100049061085b565b049a8b61085b565b04890398891161047f57610479898c8060085416339160025416906107b0565b386102ee565b634e487b7160e01b8d5260119052818cfd5b634e487b7160e01b8d5260129052818cfd5b634e487b7160e01b8d5260118952828dfd5b826064038181116104a3578190610428565b838811986102e7565b8251631765320160e11b81528690fd5b835163989e301760e01b81528790fd5b85600e606492602086519362461bcd60e51b85528401528201526d125b9d985b1a59081d185c99d95d60921b6044820152fd5b5060648210610251565b85600b606492602086519362461bcd60e51b85528401528201526a11d85b59481c185d5cd95960aa1b6044820152fd5b8251633ee5aeb560e01b81528690fd5b8980fd5b8780fd5b8380fd5b5050346100c557816003193601126100c557905490516001600160a01b039091168152602090f35b83346105ce57806003193601126105ce576105ba610784565b6201000062ff000019600554161760055580f35b80fd5b8284346105ce57806003193601126105ce575060ff60a092600180851b036002541692600354915490600554928151958652602086015284015261ffff8116606084015260101c1615156080820152f35b83346105ce57806003193601126105ce5761063b610784565b80546001600160a01b03198116825581906001600160a01b03167f8be0079c531659141344cd1fd0a4f28419497f9722a3daafe3b4186f6b6457e08280a380f35b83346105ce57806003193601126105ce57610695610784565b62ff0000196005541660055580f35b5050346100c557816003193601126100c5576020906007549051908152f35b84918434610575576020366003190112610575578060e094833581526006602052209060018060a01b038254169260018301549160028401549060ff600386015493860154169360066005870154960154968852602088015286015260608501521515608084015260a083015260c0820152f35b600435906001600160a01b038216820361074d57565b600080fd5b6080810190811067ffffffffffffffff82111761076e57604052565b634e487b7160e01b600052604160045260246000fd5b6000546001600160a01b0316330361079857565b60405163118cdaa760e01b8152336004820152602490fd5b6040516323b872dd60e01b602082019081526001600160a01b039384166024830152938316604482015260648082019590955293845292909160a082019067ffffffffffffffff82118383101761076e57602092600092604052519082865af11561084f576000513d61084657508082163b155b61082c575050565b604051635274afe760e01b81529116600482015260249150fd5b60011415610824565b6040513d6000823e3d90fd5b8181029291811591840414171561086e57565b634e487b7160e01b600052601160045260246000fdfea2646970667358221220628b376e8c2169a952a6cc621b76dee17c79f264df0b00b46447f8ec2180959164736f6c63430008180033","opcodes":"PUSH1 0x80 CALLVALUE PUSH2 0xD8 JUMPI PUSH1 0x1F PUSH2 0x9C2 CODESIZE DUP2 SWAP1 SUB SWAP2 DUP3 ADD PUSH1 0x1F NOT AND DUP4 ADD SWAP2 PUSH1 0x1 PUSH1 0x1 PUSH1 0x40 SHL SUB DUP4 GT DUP5 DUP5 LT OR PUSH2 0xDD JUMPI DUP1 DUP5 SWAP3 PUSH1 0x40 SWAP5 DUP6 MSTORE DUP4 CODECOPY DUP2 ADD SUB SLT PUSH2 0xD8 JUMPI PUSH2 0x52 PUSH1 0x20 PUSH2 0x4B DUP4 PUSH2 0xF3 JUMP JUMPDEST SWAP3 ADD PUSH2 0xF3 JUMP JUMPDEST SWAP1 PUSH1 0x1 PUSH1 0x1 PUSH1 0xA0 SHL SUB SWAP1 DUP2 AND SWAP1 DUP2 ISZERO PUSH2 0xBF JUMPI PUSH1 0x0 SLOAD SWAP3 PUSH1 0x1 DUP1 PUSH1 0xA0 SHL SUB NOT SWAP3 DUP1 DUP5 DUP7 AND OR PUSH1 0x0 SSTORE DUP3 PUSH1 0x40 MLOAD SWAP6 AND PUSH32 0x8BE0079C531659141344CD1FD0A4F28419497F9722A3DAAFE3B4186F6B6457E0 PUSH1 0x0 DUP1 LOG3 PUSH1 0x1 DUP1 SSTORE AND SWAP1 PUSH1 0x8 SLOAD AND OR PUSH1 0x8 SSTORE PUSH2 0x8BA SWAP1 DUP2 PUSH2 0x108 DUP3 CODECOPY RETURN JUMPDEST PUSH1 0x40 MLOAD PUSH4 0x1E4FBDF7 PUSH1 0xE0 SHL DUP2 MSTORE PUSH1 0x0 PUSH1 0x4 DUP3 ADD MSTORE PUSH1 0x24 SWAP1 REVERT JUMPDEST PUSH1 0x0 DUP1 REVERT JUMPDEST PUSH4 0x4E487B71 PUSH1 0xE0 SHL PUSH1 0x0 MSTORE PUSH1 0x41 PUSH1 0x4 MSTORE PUSH1 0x24 PUSH1 0x0 REVERT JUMPDEST MLOAD SWAP1 PUSH1 0x1 PUSH1 0x1 PUSH1 0xA0 SHL SUB DUP3 AND DUP3 SUB PUSH2 0xD8 JUMPI JUMP INVALID PUSH1 0x80 PUSH1 0x40 DUP2 DUP2 MSTORE PUSH1 0x4 SWAP2 DUP3 CALLDATASIZE LT ISZERO PUSH2 0x16 JUMPI PUSH1 0x0 DUP1 REVERT JUMPDEST PUSH1 0x0 SWAP3 DUP4 CALLDATALOAD PUSH1 0xE0 SHR SWAP2 DUP3 PUSH4 0x117A5B90 EQ PUSH2 0x6C3 JUMPI POP DUP2 PUSH4 0x2E0BE39A EQ PUSH2 0x6A4 JUMPI DUP2 PUSH4 0x3F4BA83A EQ PUSH2 0x67C JUMPI DUP2 PUSH4 0x715018A6 EQ PUSH2 0x622 JUMPI DUP2 PUSH4 0x79502C55 EQ PUSH2 0x5D1 JUMPI DUP2 PUSH4 0x8456CB59 EQ PUSH2 0x5A1 JUMPI DUP2 PUSH4 0x8DA5CB5B EQ PUSH2 0x579 JUMPI DUP2 PUSH4 0xCAF50828 EQ PUSH2 0x1F1 JUMPI DUP2 PUSH4 0xCBB6D6BD EQ PUSH2 0x154 JUMPI DUP2 PUSH4 0xF2FDE38B EQ PUSH2 0xC9 JUMPI POP PUSH4 0xFC0C546A EQ PUSH2 0x9E JUMPI PUSH1 0x0 DUP1 REVERT JUMPDEST CALLVALUE PUSH2 0xC5 JUMPI DUP2 PUSH1 0x3 NOT CALLDATASIZE ADD SLT PUSH2 0xC5 JUMPI PUSH1 0x8 SLOAD SWAP1 MLOAD PUSH1 0x1 PUSH1 0x1 PUSH1 0xA0 SHL SUB SWAP1 SWAP2 AND DUP2 MSTORE PUSH1 0x20 SWAP1 RETURN JUMPDEST POP DUP1 REVERT JUMPDEST SWAP1 POP CALLVALUE PUSH2 0x150 JUMPI PUSH1 0x20 CALLDATASIZE PUSH1 0x3 NOT ADD SLT PUSH2 0x150 JUMPI PUSH2 0xE4 PUSH2 0x737 JUMP JUMPDEST SWAP1 PUSH2 0xED PUSH2 0x784 JUMP JUMPDEST PUSH1 0x1 PUSH1 0x1 PUSH1 0xA0 SHL SUB SWAP2 DUP3 AND SWAP3 DUP4 ISZERO PUSH2 0x13A JUMPI POP POP DUP3 SLOAD PUSH1 0x1 PUSH1 0x1 PUSH1 0xA0 SHL SUB NOT DUP2 AND DUP4 OR DUP5 SSTORE AND PUSH32 0x8BE0079C531659141344CD1FD0A4F28419497F9722A3DAAFE3B4186F6B6457E0 DUP4 DUP1 LOG3 DUP1 RETURN JUMPDEST MLOAD PUSH4 0x1E4FBDF7 PUSH1 0xE0 SHL DUP2 MSTORE SWAP1 DUP2 ADD DUP5 SWAP1 MSTORE PUSH1 0x24 SWAP1 REVERT JUMPDEST DUP3 DUP1 REVERT JUMPDEST SWAP1 POP CALLVALUE PUSH2 0x150 JUMPI PUSH1 0x80 CALLDATASIZE PUSH1 0x3 NOT ADD SLT PUSH2 0x150 JUMPI PUSH2 0x16F PUSH2 0x737 JUMP JUMPDEST PUSH1 0x64 CALLDATALOAD SWAP3 PUSH2 0xFFFF DUP5 AND DUP1 SWAP5 SUB PUSH2 0x1ED JUMPI PUSH2 0x187 PUSH2 0x784 JUMP JUMPDEST MLOAD PUSH8 0xFFFFFFFFFFFFFFFF PUSH1 0xA0 DUP3 ADD SWAP2 DUP3 LT SWAP2 GT OR PUSH2 0x1DA JUMPI PUSH1 0x1 DUP1 PUSH1 0xA0 SHL SUB AND PUSH12 0xFFFFFFFFFFFFFFFFFFFFFFFF PUSH1 0xA0 SHL PUSH1 0x2 SLOAD AND OR PUSH1 0x2 SSTORE PUSH1 0x24 CALLDATALOAD PUSH1 0x3 SSTORE PUSH1 0x44 CALLDATALOAD SWAP1 SSTORE PUSH3 0xFFFFFF NOT PUSH1 0x5 SLOAD AND OR PUSH1 0x5 SSTORE DUP1 RETURN JUMPDEST PUSH4 0x4E487B71 PUSH1 0xE0 SHL DUP5 MSTORE PUSH1 0x41 DUP3 MSTORE PUSH1 0x24 DUP5 REVERT JUMPDEST DUP5 DUP1 REVERT JUMPDEST SWAP2 SWAP1 POP CALLVALUE PUSH2 0x150 JUMPI PUSH1 0x60 SWAP1 DUP2 PUSH1 0x3 NOT CALLDATASIZE ADD SLT PUSH2 0x575 JUMPI DUP3 CALLDATALOAD SWAP1 PUSH1 0x24 SWAP4 DUP5 CALLDATALOAD SWAP4 PUSH1 0xFF SWAP5 DUP6 DUP2 AND DUP1 SWAP2 SUB PUSH2 0x571 JUMPI PUSH1 0x44 CALLDATALOAD SWAP4 DUP5 ISZERO ISZERO SWAP2 DUP3 DUP7 SUB PUSH2 0x56D JUMPI PUSH1 0x1 SWAP9 PUSH1 0x2 DUP11 SLOAD EQ PUSH2 0x55D JUMPI PUSH1 0x2 DUP11 SSTORE DUP9 PUSH1 0x5 SLOAD PUSH1 0x10 SHR AND PUSH2 0x52D JUMPI DUP2 ISZERO ISZERO DUP1 PUSH2 0x523 JUMPI JUMPDEST ISZERO PUSH2 0x4F0 JUMPI PUSH1 0x3 SLOAD DUP7 SLOAD SWAP1 DUP10 LT PUSH2 0x4E0 JUMPI DUP9 GT PUSH2 0x4D0 JUMPI PUSH1 0x1 DUP1 PUSH1 0xA0 SHL SUB SWAP9 PUSH2 0x286 DUP10 DUP12 PUSH1 0x8 SLOAD AND DUP13 PUSH1 0x2 SLOAD AND SWAP1 CALLER SWAP1 PUSH2 0x7B0 JUMP JUMPDEST PUSH1 0x64 DUP5 MLOAD PUSH1 0x20 DUP2 ADD SWAP1 TIMESTAMP DUP3 MSTORE PREVRANDAO DUP8 DUP3 ADD MSTORE CALLER DUP10 SHL DUP10 DUP3 ADD MSTORE PUSH1 0x54 DUP2 MSTORE PUSH2 0x2AB DUP2 PUSH2 0x752 JUMP JUMPDEST MLOAD SWAP1 KECCAK256 DUP6 MLOAD PUSH1 0x20 DUP2 ADD SWAP2 TIMESTAMP DUP4 MSTORE PREVRANDAO DUP9 DUP4 ADD MSTORE DUP10 DUP3 ADD MSTORE DUP9 DUP2 MSTORE PUSH2 0x2CD DUP2 PUSH2 0x752 JUMP JUMPDEST MLOAD SWAP1 KECCAK256 MOD SWAP7 DUP12 DUP9 ADD DUP1 SWAP9 GT PUSH2 0x47F JUMPI DUP9 ISZERO PUSH2 0x4C7 JUMPI DUP4 DUP9 LT SWAP9 JUMPDEST DUP14 SWAP10 PUSH2 0x411 JUMPI JUMPDEST POP PUSH1 0x7 SLOAD PUSH1 0x0 NOT DUP2 EQ PUSH2 0x3FF JUMPI DUP13 ADD SWAP11 DUP12 PUSH1 0x7 SSTORE DUP6 MLOAD SWAP4 PUSH1 0xE0 DUP6 ADD SWAP1 DUP6 DUP3 LT PUSH8 0xFFFFFFFFFFFFFFFF DUP4 GT OR PUSH2 0x3EE JUMPI POP PUSH1 0x6 SWAP4 DUP16 SWAP4 DUP16 DUP16 SWAP1 DUP16 SWAP1 DUP16 SWAP8 SWAP2 DUP16 SWAP8 DUP16 SWAP4 DUP15 SWAP1 DUP14 SWAP10 DUP3 MSTORE CALLER DUP11 MSTORE PUSH1 0x20 DUP11 ADD SWAP4 DUP5 MSTORE DUP2 DUP11 ADD SWAP6 DUP8 DUP8 MSTORE DUP11 ADD SWAP7 TIMESTAMP DUP9 MSTORE PUSH1 0xC0 PUSH1 0x80 DUP13 ADD SWAP12 DUP8 DUP14 MSTORE PUSH1 0xA0 DUP2 ADD SWAP14 DUP15 MSTORE ADD SWAP13 DUP14 MSTORE DUP2 MSTORE DUP13 PUSH1 0x20 MSTORE KECCAK256 SWAP12 MLOAD AND PUSH12 0xFFFFFFFFFFFFFFFFFFFFFFFF PUSH1 0xA0 SHL DUP13 SLOAD AND OR DUP12 SSTORE MLOAD SWAP1 DUP11 ADD SSTORE MLOAD PUSH1 0x2 DUP10 ADD SSTORE MLOAD PUSH1 0x3 DUP9 ADD SSTORE DUP7 ADD SWAP2 MLOAD ISZERO ISZERO SWAP1 PUSH1 0xFF NOT DUP4 SLOAD AND SWAP2 AND OR SWAP1 SSTORE MLOAD PUSH1 0x5 DUP5 ADD SSTORE MLOAD SWAP2 ADD SSTORE DUP2 MLOAD SWAP7 DUP8 MSTORE PUSH1 0x20 DUP8 ADD MSTORE DUP6 ADD MSTORE DUP4 ADD MSTORE PUSH1 0x80 DUP3 ADD MSTORE PUSH32 0xBBF4DD49C6BE36EC9401F629ED72FCF3D7AB8B116F54761FC0A4F41FA2F48A1C PUSH1 0xA0 CALLER SWAP3 LOG3 DUP1 SSTORE DUP1 RETURN JUMPDEST DUP16 PUSH1 0x41 DUP6 PUSH4 0x4E487B71 PUSH1 0xE0 SHL DUP4 MSTORE MSTORE REVERT JUMPDEST PUSH4 0x4E487B71 PUSH1 0xE0 SHL DUP15 MSTORE PUSH1 0x11 DUP3 MSTORE DUP4 DUP15 REVERT JUMPDEST SWAP1 SWAP9 POP ISZERO PUSH2 0x4B5 JUMPI PUSH1 0x0 NOT DUP4 ADD DUP2 DUP2 GT PUSH2 0x4A3 JUMPI DUP2 SWAP1 JUMPDEST AND SWAP8 DUP9 ISZERO PUSH2 0x491 JUMPI DUP10 PUSH2 0x459 PUSH2 0xFFFF PUSH1 0x5 SLOAD AND SWAP11 PUSH2 0x451 PUSH2 0x2710 SWAP4 DUP5 SWAP3 PUSH4 0x5F5E100 DIV SWAP1 PUSH2 0x85B JUMP JUMPDEST DIV SWAP11 DUP12 PUSH2 0x85B JUMP JUMPDEST DIV DUP10 SUB SWAP9 DUP10 GT PUSH2 0x47F JUMPI PUSH2 0x479 DUP10 DUP13 DUP1 PUSH1 0x8 SLOAD AND CALLER SWAP2 PUSH1 0x2 SLOAD AND SWAP1 PUSH2 0x7B0 JUMP JUMPDEST CODESIZE PUSH2 0x2EE JUMP JUMPDEST PUSH4 0x4E487B71 PUSH1 0xE0 SHL DUP14 MSTORE PUSH1 0x11 SWAP1 MSTORE DUP2 DUP13 REVERT JUMPDEST PUSH4 0x4E487B71 PUSH1 0xE0 SHL DUP14 MSTORE PUSH1 0x12 SWAP1 MSTORE DUP2 DUP13 REVERT JUMPDEST PUSH4 0x4E487B71 PUSH1 0xE0 SHL DUP14 MSTORE PUSH1 0x11 DUP10 MSTORE DUP3 DUP14 REVERT JUMPDEST DUP3 PUSH1 0x64 SUB DUP2 DUP2 GT PUSH2 0x4A3 JUMPI DUP2 SWAP1 PUSH2 0x428 JUMP JUMPDEST DUP4 DUP9 GT SWAP9 PUSH2 0x2E7 JUMP JUMPDEST DUP3 MLOAD PUSH4 0x17653201 PUSH1 0xE1 SHL DUP2 MSTORE DUP7 SWAP1 REVERT JUMPDEST DUP4 MLOAD PUSH4 0x989E3017 PUSH1 0xE0 SHL DUP2 MSTORE DUP8 SWAP1 REVERT JUMPDEST DUP6 PUSH1 0xE PUSH1 0x64 SWAP3 PUSH1 0x20 DUP7 MLOAD SWAP4 PUSH3 0x461BCD PUSH1 0xE5 SHL DUP6 MSTORE DUP5 ADD MSTORE DUP3 ADD MSTORE PUSH14 0x125B9D985B1A59081D185C99D95D PUSH1 0x92 SHL PUSH1 0x44 DUP3 ADD MSTORE REVERT JUMPDEST POP PUSH1 0x64 DUP3 LT PUSH2 0x251 JUMP JUMPDEST DUP6 PUSH1 0xB PUSH1 0x64 SWAP3 PUSH1 0x20 DUP7 MLOAD SWAP4 PUSH3 0x461BCD PUSH1 0xE5 SHL DUP6 MSTORE DUP5 ADD MSTORE DUP3 ADD MSTORE PUSH11 0x11D85B59481C185D5CD959 PUSH1 0xAA SHL PUSH1 0x44 DUP3 ADD MSTORE REVERT JUMPDEST DUP3 MLOAD PUSH4 0x3EE5AEB5 PUSH1 0xE0 SHL DUP2 MSTORE DUP7 SWAP1 REVERT JUMPDEST DUP10 DUP1 REVERT JUMPDEST DUP8 DUP1 REVERT JUMPDEST DUP4 DUP1 REVERT JUMPDEST POP POP CALLVALUE PUSH2 0xC5 JUMPI DUP2 PUSH1 0x3 NOT CALLDATASIZE ADD SLT PUSH2 0xC5 JUMPI SWAP1 SLOAD SWAP1 MLOAD PUSH1 0x1 PUSH1 0x1 PUSH1 0xA0 SHL SUB SWAP1 SWAP2 AND DUP2 MSTORE PUSH1 0x20 SWAP1 RETURN JUMPDEST DUP4 CALLVALUE PUSH2 0x5CE JUMPI DUP1 PUSH1 0x3 NOT CALLDATASIZE ADD SLT PUSH2 0x5CE JUMPI PUSH2 0x5BA PUSH2 0x784 JUMP JUMPDEST PUSH3 0x10000 PUSH3 0xFF0000 NOT PUSH1 0x5 SLOAD AND OR PUSH1 0x5 SSTORE DUP1 RETURN JUMPDEST DUP1 REVERT JUMPDEST DUP3 DUP5 CALLVALUE PUSH2 0x5CE JUMPI DUP1 PUSH1 0x3 NOT CALLDATASIZE ADD SLT PUSH2 0x5CE JUMPI POP PUSH1 0xFF PUSH1 0xA0 SWAP3 PUSH1 0x1 DUP1 DUP6 SHL SUB PUSH1 0x2 SLOAD AND SWAP3 PUSH1 0x3 SLOAD SWAP2 SLOAD SWAP1 PUSH1 0x5 SLOAD SWAP3 DUP2 MLOAD SWAP6 DUP7 MSTORE PUSH1 0x20 DUP7 ADD MSTORE DUP5 ADD MSTORE PUSH2 0xFFFF DUP2 AND PUSH1 0x60 DUP5 ADD MSTORE PUSH1 0x10 SHR AND ISZERO ISZERO PUSH1 0x80 DUP3 ADD MSTORE RETURN JUMPDEST DUP4 CALLVALUE PUSH2 0x5CE JUMPI DUP1 PUSH1 0x3 NOT CALLDATASIZE ADD SLT PUSH2 0x5CE JUMPI PUSH2 0x63B PUSH2 0x784 JUMP JUMPDEST DUP1 SLOAD PUSH1 0x1 PUSH1 0x1 PUSH1 0xA0 SHL SUB NOT DUP2 AND DUP3 SSTORE DUP2 SWAP1 PUSH1 0x1 PUSH1 0x1 PUSH1 0xA0 SHL SUB AND PUSH32 0x8BE0079C531659141344CD1FD0A4F28419497F9722A3DAAFE3B4186F6B6457E0 DUP3 DUP1 LOG3 DUP1 RETURN JUMPDEST DUP4 CALLVALUE PUSH2 0x5CE JUMPI DUP1 PUSH1 0x3 NOT CALLDATASIZE ADD SLT PUSH2 0x5CE JUMPI PUSH2 0x695 PUSH2 0x784 JUMP JUMPDEST PUSH3 0xFF0000 NOT PUSH1 0x5 SLOAD AND PUSH1 0x5 SSTORE DUP1 RETURN JUMPDEST POP POP CALLVALUE PUSH2 0xC5 JUMPI DUP2 PUSH1 0x3 NOT CALLDATASIZE ADD SLT PUSH2 0xC5 JUMPI PUSH1 0x20 SWAP1 PUSH1 0x7 SLOAD SWAP1 MLOAD SWAP1 DUP2 MSTORE RETURN JUMPDEST DUP5 SWAP2 DUP5 CALLVALUE PUSH2 0x575 JUMPI PUSH1 0x20 CALLDATASIZE PUSH1 0x3 NOT ADD SLT PUSH2 0x575 JUMPI DUP1 PUSH1 0xE0 SWAP5 DUP4 CALLDATALOAD DUP2 MSTORE PUSH1 0x6 PUSH1 0x20 MSTORE KECCAK256 SWAP1 PUSH1 0x1 DUP1 PUSH1 0xA0 SHL SUB DUP3 SLOAD AND SWAP3 PUSH1 0x1 DUP4 ADD SLOAD SWAP2 PUSH1 0x2 DUP5 ADD SLOAD SWAP1 PUSH1 0xFF PUSH1 0x3 DUP7 ADD SLOAD SWAP4 DUP7 ADD SLOAD AND SWAP4 PUSH1 0x6 PUSH1 0x5 DUP8 ADD SLOAD SWAP7 ADD SLOAD SWAP7 DUP9 MSTORE PUSH1 0x20 DUP9 ADD MSTORE DUP7 ADD MSTORE PUSH1 0x60 DUP6 ADD MSTORE ISZERO ISZERO PUSH1 0x80 DUP5 ADD MSTORE PUSH1 0xA0 DUP4 ADD MSTORE PUSH1 0xC0 DUP3 ADD MSTORE RETURN JUMPDEST PUSH1 0x4 CALLDATALOAD SWAP1 PUSH1 0x1 PUSH1 0x1 PUSH1 0xA0 SHL SUB DUP3 AND DUP3 SUB PUSH2 0x74D JUMPI JUMP JUMPDEST PUSH1 0x0 DUP1 REVERT JUMPDEST PUSH1 0x80 DUP2 ADD SWAP1 DUP2 LT PUSH8 0xFFFFFFFFFFFFFFFF DUP3 GT OR PUSH2 0x76E JUMPI PUSH1 0x40 MSTORE JUMP JUMPDEST PUSH4 0x4E487B71 PUSH1 0xE0 SHL PUSH1 0x0 MSTORE PUSH1 0x41 PUSH1 0x4 MSTORE PUSH1 0x24 PUSH1 0x0 REVERT JUMPDEST PUSH1 0x0 SLOAD PUSH1 0x1 PUSH1 0x1 PUSH1 0xA0 SHL SUB AND CALLER SUB PUSH2 0x798 JUMPI JUMP JUMPDEST PUSH1 0x40 MLOAD PUSH4 0x118CDAA7 PUSH1 0xE0 SHL DUP2 MSTORE CALLER PUSH1 0x4 DUP3 ADD MSTORE PUSH1 0x24 SWAP1 REVERT JUMPDEST PUSH1 0x40 MLOAD PUSH4 0x23B872DD PUSH1 0xE0 SHL PUSH1 0x20 DUP3 ADD SWAP1 DUP2 MSTORE PUSH1 0x1 PUSH1 0x1 PUSH1 0xA0 SHL SUB SWAP4 DUP5 AND PUSH1 0x24 DUP4 ADD MSTORE SWAP4 DUP4 AND PUSH1 0x44 DUP3 ADD MSTORE PUSH1 0x64 DUP1 DUP3 ADD SWAP6 SWAP1 SWAP6 MSTORE SWAP4 DUP5 MSTORE SWAP3 SWAP1 SWAP2 PUSH1 0xA0 DUP3 ADD SWAP1 PUSH8 0xFFFFFFFFFFFFFFFF DUP3 GT DUP4 DUP4 LT OR PUSH2 0x76E JUMPI PUSH1 0x20 SWAP3 PUSH1 0x0 SWAP3 PUSH1 0x40 MSTORE MLOAD SWAP1 DUP3 DUP7 GAS CALL ISZERO PUSH2 0x84F JUMPI PUSH1 0x0 MLOAD RETURNDATASIZE PUSH2 0x846 JUMPI POP DUP1 DUP3 AND EXTCODESIZE ISZERO JUMPDEST PUSH2 0x82C JUMPI POP POP JUMP JUMPDEST PUSH1 0x40 MLOAD PUSH4 0x5274AFE7 PUSH1 0xE0 SHL DUP2 MSTORE SWAP2 AND PUSH1 0x4 DUP3 ADD MSTORE PUSH1 0x24 SWAP2 POP REVERT JUMPDEST PUSH1 0x1 EQ ISZERO PUSH2 0x824 JUMP JUMPDEST PUSH1 0x40 MLOAD RETURNDATASIZE PUSH1 0x0 DUP3 RETURNDATACOPY RETURNDATASIZE SWAP1 REVERT JUMPDEST DUP2 DUP2 MUL SWAP3 SWAP2 DUP2 ISZERO SWAP2 DUP5 DIV EQ OR ISZERO PUSH2 0x86E JUMPI JUMP JUMPDEST PUSH4 0x4E487B71 PUSH1 0xE0 SHL PUSH1 0x0 MSTORE PUSH1 0x11 PUSH1 0x4 MSTORE PUSH1 0x24 PUSH1 0x0 REVERT INVALID LOG2 PUSH5 0x6970667358 0x22 SLT KECCAK256 PUSH3 0x8B376E DUP13 0x21 PUSH10 0xA952A6CC621B76DEE17C PUSH26 0xF264DF0B00B46447F8EC2180959164736F6C6343000818003300 "},"methodIdentifiers":{"config()":"79502c55","gameCounter()":"2e0be39a","games(uint256)":"117a5b90","initialize(address,uint256,uint256,uint16)":"cbb6d6bd","owner()":"8da5cb5b","pause()":"8456cb59","play(uint256,uint8,bool)":"caf50828","renounceOwnership()":"715018a6","token()":"fc0c546a","transferOwnership(address)":"f2fde38b","unpause()":"3f4ba83a"}}}}}