{"contracts/casino/Dice.sol":{"Dice":{"abi":[{"inputs":[{"internalType":"address","name":"_owner","type":"address"},{"internalType":"address","name":"_token","type":"address"}],"stateMutability":"nonpayable","type":"constructor"},{"inputs":[],"name":"BetTooHigh","type":"error"},{"inputs":[],"name":"BetTooLow","type":"error"},{"inputs":[{"internalType":"address","name":"owner","type":"address"}],"name":"OwnableInvalidOwner","type":"error"},{"inputs":[{"internalType":"address","name":"account","type":"address"}],"name":"OwnableUnauthorizedAccount","type":"error"},{"inputs":[],"name":"ReentrancyGuardReentrantCall","type":"error"},{"inputs":[{"internalType":"address","name":"token","type":"address"}],"name":"SafeERC20FailedOperation","type":"error"},{"anonymous":false,"inputs":[{"indexed":true,"internalType":"address","name":"player","type":"address"},{"indexed":true,"internalType":"uint256","name":"gameId","type":"uint256"},{"indexed":false,"internalType":"uint256","name":"betAmount","type":"uint256"},{"indexed":false,"internalType":"uint8","name":"target","type":"uint8"},{"indexed":false,"internalType":"bool","name":"rollUnder","type":"bool"},{"indexed":false,"internalType":"uint256","name":"roll","type":"uint256"},{"indexed":false,"internalType":"uint256","name":"payout","type":"uint256"}],"name":"GamePlayed","type":"event"},{"anonymous":false,"inputs":[{"indexed":true,"internalType":"address","name":"player","type":"address"},{"indexed":true,"internalType":"uint256","name":"gameId","type":"uint256"},{"indexed":false,"internalType":"uint256","name":"betAmount","type":"uint256"},{"indexed":false,"internalType":"uint256","name":"result","type":"uint256"},{"indexed":false,"internalType":"uint256","name":"payout","type":"uint256"}],"name":"GamePlayed","type":"event"},{"anonymous":false,"inputs":[{"indexed":true,"internalType":"address","name":"previousOwner","type":"address"},{"indexed":true,"internalType":"address","name":"newOwner","type":"address"}],"name":"OwnershipTransferred","type":"event"},{"inputs":[],"name":"config","outputs":[{"internalType":"address","name":"treasury","type":"address"},{"internalType":"uint256","name":"minBet","type":"uint256"},{"internalType":"uint256","name":"maxBet","type":"uint256"},{"internalType":"uint16","name":"houseEdgeBps","type":"uint16"},{"internalType":"bool","name":"paused","type":"bool"}],"stateMutability":"view","type":"function"},{"inputs":[],"name":"gameCounter","outputs":[{"internalType":"uint256","name":"","type":"uint256"}],"stateMutability":"view","type":"function"},{"inputs":[{"internalType":"uint256","name":"","type":"uint256"}],"name":"games","outputs":[{"internalType":"address","name":"player","type":"address"},{"internalType":"uint256","name":"betAmount","type":"uint256"},{"internalType":"uint256","name":"gameId","type":"uint256"},{"internalType":"uint256","name":"timestamp","type":"uint256"},{"internalType":"bool","name":"settled","type":"bool"},{"internalType":"uint256","name":"result","type":"uint256"},{"internalType":"uint256","name":"payout","type":"uint256"}],"stateMutability":"view","type":"function"},{"inputs":[{"internalType":"address","name":"treasury","type":"address"},{"internalType":"uint256","name":"minBet","type":"uint256"},{"internalType":"uint256","name":"maxBet","type":"uint256"},{"internalType":"uint16","name":"houseEdgeBps","type":"uint16"}],"name":"initialize","outputs":[],"stateMutability":"nonpayable","type":"function"},{"inputs":[],"name":"owner","outputs":[{"internalType":"address","name":"","type":"address"}],"stateMutability":"view","type":"function"},{"inputs":[],"name":"pause","outputs":[],"stateMutability":"nonpayable","type":"function"},{"inputs":[{"internalType":"uint256","name":"betAmount","type":"uint256"},{"internalType":"uint8","name":"target","type":"uint8"},{"internalType":"bool","name":"rollUnder","type":"bool"}],"name":"play","outputs":[],"stateMutability":"payable","type":"function"},{"inputs":[],"name":"renounceOwnership","outputs":[],"stateMutability":"nonpayable","type":"function"},{"inputs":[],"name":"token","outputs":[{"internalType":"address","name":"","type":"address"}],"stateMutability":"view","type":"function"},{"inputs":[{"internalType":"address","name":"newOwner","type":"address"}],"name":"transferOwnership","outputs":[],"stateMutability":"nonpayable","type":"function"},{"inputs":[],"name":"unpause","outputs":[],"stateMutability":"nonpayable","type":"function"}],"evm":{"bytecode":{"linkReferences":{},"object":"6080346100d857601f610b4b38819003918201601f19168301916001600160401b038311848410176100dd5780849260409485528339810103126100d857610052602061004b836100f3565b92016100f3565b906001600160a01b039081169081156100bf576000549260018060a01b03199280848616176000558260405195167f8be0079c531659141344cd1fd0a4f28419497f9722a3daafe3b4186f6b6457e0600080a36001805516906008541617600855610a4390816101088239f35b604051631e4fbdf760e01b815260006004820152602490fd5b600080fd5b634e487b7160e01b600052604160045260246000fd5b51906001600160a01b03821682036100d85756fe608060408181526004918236101561001657600080fd5b600092833560e01c918263117a5b90146108d1575081632e0be39a146108b25781633f4ba83a1461088a578163715018a61461083057816379502c55146107df5781638456cb59146107af5781638da5cb5b14610787578163caf508281461022a578163cbb6d6bd1461015e578163f2fde38b146100c9575063fc0c546a1461009e57600080fd5b346100c557816003193601126100c55760085490516001600160a01b039091168152602090f35b5080fd5b90503461015a57602036600319011261015a576100e4610949565b906100ed6109b8565b6001600160a01b03918216928315610144575050600054826bffffffffffffffffffffffff60a01b821617600055167f8be0079c531659141344cd1fd0a4f28419497f9722a3daafe3b4186f6b6457e0600080a380f35b51631e4fbdf760e01b8152908101849052602490fd5b8280fd5b9190503461015a57608036600319011261015a5761017a610949565b91602435604435926064359461ffff86168096036102265761019a6109b8565b81519060a0820182811067ffffffffffffffff8211176102115783526001600160a01b03168082526020820184905291810185905260608101869052608001869052600280546001600160a01b0319169091179055600355556005805462ffffff191690911782151560101b62ff00001617905580f35b604186634e487b7160e01b6000525260246000fd5b8680fd5b8391506060908160031936011261015a578035602480359360ff94858116809103610226576044359788151591828a0361078357600294600198868a541461077357868a558060055460101c166107435782151580610739575b156107065760035489549089106106f65788116106e6576008546001600160a01b0399908a16888d8b8d84610651575092505050340361061d578b8080808c8e8d54165af13d15610618573d67ffffffffffffffff8111610606578651906102f6601f8201601f191660200183610996565b81528d60203d92013e5b156105d2575b6064855160208101904282524488820152338a1b8a8201526054815261032b81610964565b5190208651602081019142835244898301528a82015289815261034d81610964565b51902006978b89018099116105c0578c9d8d9a9b9c9d50806000146105b757858a109a5b9a61049d575b50600754600019811461048b578d019b8c60075586519460e086019086821067ffffffffffffffff8311176104785750938f938f928f948f8f978f97918f92948e89938e9760069e83523389526020890194855260c0838a01978289528a0199428b52608081019d8e5260a081019e8f52019d8e5281528d602052209c51166bffffffffffffffffffffffff60a01b8d5416178c5551908b015551908901555160038801558601915115159060ff198354169116179055516005840155519101558151968752602087015285015283015260808201527fbbf4dd49c6be36ec9401f629ed72fcf3d7ab8b116f54761fc0a4f41fa2f48a1c60a03392a3805580f35b634e487b7160e01b600090815260418652fd5b634e487b7160e01b8f5260118352848ffd5b909950156105a55760001984018281116105815782905b16988915610593578a6104e561ffff600554169b6104dd6127109384926305f5e10004906109e4565b049b8c6109e4565b048a03998a11610581578b8e8b82845416926008541692803b1561015a57895163a00c695160e01b81526001600160a01b039094168685019081523360208201526040810192909252839182908490829060600103925af1801561057557156103775767ffffffffffffffff919e9181116105635786529c8e610377565b5060418492634e487b7160e01b835252fd5b8f8851903d90823e3d90fd5b634e487b7160e01b8e5260118252838efd5b634e487b7160e01b8e5260128252838efd5b836064038281116105815782906104b4565b858a119a610371565b634e487b7160e01b8d5260118252838dfd5b606490600f84602088519362461bcd60e51b85528401528201526e151c985b9cd9995c8819985a5b1959608a1b6044820152fd5b634e487b7160e01b8e5260418352848efd5b610300565b606490600f84602088519362461bcd60e51b85528401528201526e082dadeeadce840dad2e6dac2e8c6d608b1b6044820152fd5b925489516323b872dd60e01b6020808301918252338b8401908152939096166001600160a01b03168387015260408301939093529061069d90829060600103601f198101835282610996565b519082855af1156106dc578c518c903d6106d5575050803b155b6106c15750610306565b8551635274afe760e01b8152918201529050fd5b14156106b7565b85513d8e823e3d90fd5b8351631765320160e11b81528990fd5b845163989e301760e01b81528a90fd5b835162461bcd60e51b81526020818b0152600e818401526d125b9d985b1a59081d185c99d95d60921b6044820152606490fd5b5060648310610284565b835162461bcd60e51b81526020818b0152600b818401526a11d85b59481c185d5cd95960aa1b6044820152606490fd5b8351633ee5aeb560e01b81528990fd5b8880fd5b5050346100c557816003193601126100c557905490516001600160a01b039091168152602090f35b83346107dc57806003193601126107dc576107c86109b8565b6201000062ff000019600554161760055580f35b80fd5b8284346107dc57806003193601126107dc575060ff60a092600180851b036002541692600354915490600554928151958652602086015284015261ffff8116606084015260101c1615156080820152f35b83346107dc57806003193601126107dc576108496109b8565b80546001600160a01b03198116825581906001600160a01b03167f8be0079c531659141344cd1fd0a4f28419497f9722a3daafe3b4186f6b6457e08280a380f35b83346107dc57806003193601126107dc576108a36109b8565b62ff0000196005541660055580f35b5050346100c557816003193601126100c5576020906007549051908152f35b84918434610945576020366003190112610945578060e094833581526006602052209060018060a01b038254169260018301549160028401549060ff600386015493860154169360066005870154960154968852602088015286015260608501521515608084015260a083015260c0820152f35b8380fd5b600435906001600160a01b038216820361095f57565b600080fd5b6080810190811067ffffffffffffffff82111761098057604052565b634e487b7160e01b600052604160045260246000fd5b90601f8019910116810190811067ffffffffffffffff82111761098057604052565b6000546001600160a01b031633036109cc57565b60405163118cdaa760e01b8152336004820152602490fd5b818102929181159184041417156109f757565b634e487b7160e01b600052601160045260246000fdfea264697066735822122079eab451296d013980afc06225596280a7e624cdb6e5505f092fc562cc51c48b64736f6c63430008180033","opcodes":"PUSH1 0x80 CALLVALUE PUSH2 0xD8 JUMPI PUSH1 0x1F PUSH2 0xB4B CODESIZE DUP2 SWAP1 SUB SWAP2 DUP3 ADD PUSH1 0x1F NOT AND DUP4 ADD SWAP2 PUSH1 0x1 PUSH1 0x1 PUSH1 0x40 SHL SUB DUP4 GT DUP5 DUP5 LT OR PUSH2 0xDD JUMPI DUP1 DUP5 SWAP3 PUSH1 0x40 SWAP5 DUP6 MSTORE DUP4 CODECOPY DUP2 ADD SUB SLT PUSH2 0xD8 JUMPI PUSH2 0x52 PUSH1 0x20 PUSH2 0x4B DUP4 PUSH2 0xF3 JUMP JUMPDEST SWAP3 ADD PUSH2 0xF3 JUMP JUMPDEST SWAP1 PUSH1 0x1 PUSH1 0x1 PUSH1 0xA0 SHL SUB SWAP1 DUP2 AND SWAP1 DUP2 ISZERO PUSH2 0xBF JUMPI PUSH1 0x0 SLOAD SWAP3 PUSH1 0x1 DUP1 PUSH1 0xA0 SHL SUB NOT SWAP3 DUP1 DUP5 DUP7 AND OR PUSH1 0x0 SSTORE DUP3 PUSH1 0x40 MLOAD SWAP6 AND PUSH32 0x8BE0079C531659141344CD1FD0A4F28419497F9722A3DAAFE3B4186F6B6457E0 PUSH1 0x0 DUP1 LOG3 PUSH1 0x1 DUP1 SSTORE AND SWAP1 PUSH1 0x8 SLOAD AND OR PUSH1 0x8 SSTORE PUSH2 0xA43 SWAP1 DUP2 PUSH2 0x108 DUP3 CODECOPY RETURN JUMPDEST PUSH1 0x40 MLOAD PUSH4 0x1E4FBDF7 PUSH1 0xE0 SHL DUP2 MSTORE PUSH1 0x0 PUSH1 0x4 DUP3 ADD MSTORE PUSH1 0x24 SWAP1 REVERT JUMPDEST PUSH1 0x0 DUP1 REVERT JUMPDEST PUSH4 0x4E487B71 PUSH1 0xE0 SHL PUSH1 0x0 MSTORE PUSH1 0x41 PUSH1 0x4 MSTORE PUSH1 0x24 PUSH1 0x0 REVERT JUMPDEST MLOAD SWAP1 PUSH1 0x1 PUSH1 0x1 PUSH1 0xA0 SHL SUB DUP3 AND DUP3 SUB PUSH2 0xD8 JUMPI JUMP INVALID PUSH1 0x80 PUSH1 0x40 DUP2 DUP2 MSTORE PUSH1 0x4 SWAP2 DUP3 CALLDATASIZE LT ISZERO PUSH2 0x16 JUMPI PUSH1 0x0 DUP1 REVERT JUMPDEST PUSH1 0x0 SWAP3 DUP4 CALLDATALOAD PUSH1 0xE0 SHR SWAP2 DUP3 PUSH4 0x117A5B90 EQ PUSH2 0x8D1 JUMPI POP DUP2 PUSH4 0x2E0BE39A EQ PUSH2 0x8B2 JUMPI DUP2 PUSH4 0x3F4BA83A EQ PUSH2 0x88A JUMPI DUP2 PUSH4 0x715018A6 EQ PUSH2 0x830 JUMPI DUP2 PUSH4 0x79502C55 EQ PUSH2 0x7DF JUMPI DUP2 PUSH4 0x8456CB59 EQ PUSH2 0x7AF JUMPI DUP2 PUSH4 0x8DA5CB5B EQ PUSH2 0x787 JUMPI DUP2 PUSH4 0xCAF50828 EQ PUSH2 0x22A JUMPI DUP2 PUSH4 0xCBB6D6BD EQ PUSH2 0x15E JUMPI DUP2 PUSH4 0xF2FDE38B EQ PUSH2 0xC9 JUMPI POP PUSH4 0xFC0C546A EQ PUSH2 0x9E JUMPI PUSH1 0x0 DUP1 REVERT JUMPDEST CALLVALUE PUSH2 0xC5 JUMPI DUP2 PUSH1 0x3 NOT CALLDATASIZE ADD SLT PUSH2 0xC5 JUMPI PUSH1 0x8 SLOAD SWAP1 MLOAD PUSH1 0x1 PUSH1 0x1 PUSH1 0xA0 SHL SUB SWAP1 SWAP2 AND DUP2 MSTORE PUSH1 0x20 SWAP1 RETURN JUMPDEST POP DUP1 REVERT JUMPDEST SWAP1 POP CALLVALUE PUSH2 0x15A JUMPI PUSH1 0x20 CALLDATASIZE PUSH1 0x3 NOT ADD SLT PUSH2 0x15A JUMPI PUSH2 0xE4 PUSH2 0x949 JUMP JUMPDEST SWAP1 PUSH2 0xED PUSH2 0x9B8 JUMP JUMPDEST PUSH1 0x1 PUSH1 0x1 PUSH1 0xA0 SHL SUB SWAP2 DUP3 AND SWAP3 DUP4 ISZERO PUSH2 0x144 JUMPI POP POP PUSH1 0x0 SLOAD DUP3 PUSH12 0xFFFFFFFFFFFFFFFFFFFFFFFF PUSH1 0xA0 SHL DUP3 AND OR PUSH1 0x0 SSTORE AND PUSH32 0x8BE0079C531659141344CD1FD0A4F28419497F9722A3DAAFE3B4186F6B6457E0 PUSH1 0x0 DUP1 LOG3 DUP1 RETURN JUMPDEST MLOAD PUSH4 0x1E4FBDF7 PUSH1 0xE0 SHL DUP2 MSTORE SWAP1 DUP2 ADD DUP5 SWAP1 MSTORE PUSH1 0x24 SWAP1 REVERT JUMPDEST DUP3 DUP1 REVERT JUMPDEST SWAP2 SWAP1 POP CALLVALUE PUSH2 0x15A JUMPI PUSH1 0x80 CALLDATASIZE PUSH1 0x3 NOT ADD SLT PUSH2 0x15A JUMPI PUSH2 0x17A PUSH2 0x949 JUMP JUMPDEST SWAP2 PUSH1 0x24 CALLDATALOAD PUSH1 0x44 CALLDATALOAD SWAP3 PUSH1 0x64 CALLDATALOAD SWAP5 PUSH2 0xFFFF DUP7 AND DUP1 SWAP7 SUB PUSH2 0x226 JUMPI PUSH2 0x19A PUSH2 0x9B8 JUMP JUMPDEST DUP2 MLOAD SWAP1 PUSH1 0xA0 DUP3 ADD DUP3 DUP2 LT PUSH8 0xFFFFFFFFFFFFFFFF DUP3 GT OR PUSH2 0x211 JUMPI DUP4 MSTORE PUSH1 0x1 PUSH1 0x1 PUSH1 0xA0 SHL SUB AND DUP1 DUP3 MSTORE PUSH1 0x20 DUP3 ADD DUP5 SWAP1 MSTORE SWAP2 DUP2 ADD DUP6 SWAP1 MSTORE PUSH1 0x60 DUP2 ADD DUP7 SWAP1 MSTORE PUSH1 0x80 ADD DUP7 SWAP1 MSTORE PUSH1 0x2 DUP1 SLOAD PUSH1 0x1 PUSH1 0x1 PUSH1 0xA0 SHL SUB NOT AND SWAP1 SWAP2 OR SWAP1 SSTORE PUSH1 0x3 SSTORE SSTORE PUSH1 0x5 DUP1 SLOAD PUSH3 0xFFFFFF NOT AND SWAP1 SWAP2 OR DUP3 ISZERO ISZERO PUSH1 0x10 SHL PUSH3 0xFF0000 AND OR SWAP1 SSTORE DUP1 RETURN JUMPDEST PUSH1 0x41 DUP7 PUSH4 0x4E487B71 PUSH1 0xE0 SHL PUSH1 0x0 MSTORE MSTORE PUSH1 0x24 PUSH1 0x0 REVERT JUMPDEST DUP7 DUP1 REVERT JUMPDEST DUP4 SWAP2 POP PUSH1 0x60 SWAP1 DUP2 PUSH1 0x3 NOT CALLDATASIZE ADD SLT PUSH2 0x15A JUMPI DUP1 CALLDATALOAD PUSH1 0x24 DUP1 CALLDATALOAD SWAP4 PUSH1 0xFF SWAP5 DUP6 DUP2 AND DUP1 SWAP2 SUB PUSH2 0x226 JUMPI PUSH1 0x44 CALLDATALOAD SWAP8 DUP9 ISZERO ISZERO SWAP2 DUP3 DUP11 SUB PUSH2 0x783 JUMPI PUSH1 0x2 SWAP5 PUSH1 0x1 SWAP9 DUP7 DUP11 SLOAD EQ PUSH2 0x773 JUMPI DUP7 DUP11 SSTORE DUP1 PUSH1 0x5 SLOAD PUSH1 0x10 SHR AND PUSH2 0x743 JUMPI DUP3 ISZERO ISZERO DUP1 PUSH2 0x739 JUMPI JUMPDEST ISZERO PUSH2 0x706 JUMPI PUSH1 0x3 SLOAD DUP10 SLOAD SWAP1 DUP10 LT PUSH2 0x6F6 JUMPI DUP9 GT PUSH2 0x6E6 JUMPI PUSH1 0x8 SLOAD PUSH1 0x1 PUSH1 0x1 PUSH1 0xA0 SHL SUB SWAP10 SWAP1 DUP11 AND DUP9 DUP14 DUP12 DUP14 DUP5 PUSH2 0x651 JUMPI POP SWAP3 POP POP POP CALLVALUE SUB PUSH2 0x61D JUMPI DUP12 DUP1 DUP1 DUP1 DUP13 DUP15 DUP14 SLOAD AND GAS CALL RETURNDATASIZE ISZERO PUSH2 0x618 JUMPI RETURNDATASIZE PUSH8 0xFFFFFFFFFFFFFFFF DUP2 GT PUSH2 0x606 JUMPI DUP7 MLOAD SWAP1 PUSH2 0x2F6 PUSH1 0x1F DUP3 ADD PUSH1 0x1F NOT AND PUSH1 0x20 ADD DUP4 PUSH2 0x996 JUMP JUMPDEST DUP2 MSTORE DUP14 PUSH1 0x20 RETURNDATASIZE SWAP3 ADD RETURNDATACOPY JUMPDEST ISZERO PUSH2 0x5D2 JUMPI JUMPDEST PUSH1 0x64 DUP6 MLOAD PUSH1 0x20 DUP2 ADD SWAP1 TIMESTAMP DUP3 MSTORE PREVRANDAO DUP9 DUP3 ADD MSTORE CALLER DUP11 SHL DUP11 DUP3 ADD MSTORE PUSH1 0x54 DUP2 MSTORE PUSH2 0x32B DUP2 PUSH2 0x964 JUMP JUMPDEST MLOAD SWAP1 KECCAK256 DUP7 MLOAD PUSH1 0x20 DUP2 ADD SWAP2 TIMESTAMP DUP4 MSTORE PREVRANDAO DUP10 DUP4 ADD MSTORE DUP11 DUP3 ADD MSTORE DUP10 DUP2 MSTORE PUSH2 0x34D DUP2 PUSH2 0x964 JUMP JUMPDEST MLOAD SWAP1 KECCAK256 MOD SWAP8 DUP12 DUP10 ADD DUP1 SWAP10 GT PUSH2 0x5C0 JUMPI DUP13 SWAP14 DUP14 SWAP11 SWAP12 SWAP13 SWAP14 POP DUP1 PUSH1 0x0 EQ PUSH2 0x5B7 JUMPI DUP6 DUP11 LT SWAP11 JUMPDEST SWAP11 PUSH2 0x49D JUMPI JUMPDEST POP PUSH1 0x7 SLOAD PUSH1 0x0 NOT DUP2 EQ PUSH2 0x48B JUMPI DUP14 ADD SWAP12 DUP13 PUSH1 0x7 SSTORE DUP7 MLOAD SWAP5 PUSH1 0xE0 DUP7 ADD SWAP1 DUP7 DUP3 LT PUSH8 0xFFFFFFFFFFFFFFFF DUP4 GT OR PUSH2 0x478 JUMPI POP SWAP4 DUP16 SWAP4 DUP16 SWAP3 DUP16 SWAP5 DUP16 DUP16 SWAP8 DUP16 SWAP8 SWAP2 DUP16 SWAP3 SWAP5 DUP15 DUP10 SWAP4 DUP15 SWAP8 PUSH1 0x6 SWAP15 DUP4 MSTORE CALLER DUP10 MSTORE PUSH1 0x20 DUP10 ADD SWAP5 DUP6 MSTORE PUSH1 0xC0 DUP4 DUP11 ADD SWAP8 DUP3 DUP10 MSTORE DUP11 ADD SWAP10 TIMESTAMP DUP12 MSTORE PUSH1 0x80 DUP2 ADD SWAP14 DUP15 MSTORE PUSH1 0xA0 DUP2 ADD SWAP15 DUP16 MSTORE ADD SWAP14 DUP15 MSTORE DUP2 MSTORE DUP14 PUSH1 0x20 MSTORE KECCAK256 SWAP13 MLOAD AND PUSH12 0xFFFFFFFFFFFFFFFFFFFFFFFF PUSH1 0xA0 SHL DUP14 SLOAD AND OR DUP13 SSTORE MLOAD SWAP1 DUP12 ADD SSTORE MLOAD SWAP1 DUP10 ADD SSTORE MLOAD PUSH1 0x3 DUP9 ADD SSTORE DUP7 ADD SWAP2 MLOAD ISZERO ISZERO SWAP1 PUSH1 0xFF NOT DUP4 SLOAD AND SWAP2 AND OR SWAP1 SSTORE MLOAD PUSH1 0x5 DUP5 ADD SSTORE MLOAD SWAP2 ADD SSTORE DUP2 MLOAD SWAP7 DUP8 MSTORE PUSH1 0x20 DUP8 ADD MSTORE DUP6 ADD MSTORE DUP4 ADD MSTORE PUSH1 0x80 DUP3 ADD MSTORE PUSH32 0xBBF4DD49C6BE36EC9401F629ED72FCF3D7AB8B116F54761FC0A4F41FA2F48A1C PUSH1 0xA0 CALLER SWAP3 LOG3 DUP1 SSTORE DUP1 RETURN JUMPDEST PUSH4 0x4E487B71 PUSH1 0xE0 SHL PUSH1 0x0 SWAP1 DUP2 MSTORE PUSH1 0x41 DUP7 MSTORE REVERT JUMPDEST PUSH4 0x4E487B71 PUSH1 0xE0 SHL DUP16 MSTORE PUSH1 0x11 DUP4 MSTORE DUP5 DUP16 REVERT JUMPDEST SWAP1 SWAP10 POP ISZERO PUSH2 0x5A5 JUMPI PUSH1 0x0 NOT DUP5 ADD DUP3 DUP2 GT PUSH2 0x581 JUMPI DUP3 SWAP1 JUMPDEST AND SWAP9 DUP10 ISZERO PUSH2 0x593 JUMPI DUP11 PUSH2 0x4E5 PUSH2 0xFFFF PUSH1 0x5 SLOAD AND SWAP12 PUSH2 0x4DD PUSH2 0x2710 SWAP4 DUP5 SWAP3 PUSH4 0x5F5E100 DIV SWAP1 PUSH2 0x9E4 JUMP JUMPDEST DIV SWAP12 DUP13 PUSH2 0x9E4 JUMP JUMPDEST DIV DUP11 SUB SWAP10 DUP11 GT PUSH2 0x581 JUMPI DUP12 DUP15 DUP12 DUP3 DUP5 SLOAD AND SWAP3 PUSH1 0x8 SLOAD AND SWAP3 DUP1 EXTCODESIZE ISZERO PUSH2 0x15A JUMPI DUP10 MLOAD PUSH4 0xA00C6951 PUSH1 0xE0 SHL DUP2 MSTORE PUSH1 0x1 PUSH1 0x1 PUSH1 0xA0 SHL SUB SWAP1 SWAP5 AND DUP7 DUP6 ADD SWAP1 DUP2 MSTORE CALLER PUSH1 0x20 DUP3 ADD MSTORE PUSH1 0x40 DUP2 ADD SWAP3 SWAP1 SWAP3 MSTORE DUP4 SWAP2 DUP3 SWAP1 DUP5 SWAP1 DUP3 SWAP1 PUSH1 0x60 ADD SUB SWAP3 GAS CALL DUP1 ISZERO PUSH2 0x575 JUMPI ISZERO PUSH2 0x377 JUMPI PUSH8 0xFFFFFFFFFFFFFFFF SWAP2 SWAP15 SWAP2 DUP2 GT PUSH2 0x563 JUMPI DUP7 MSTORE SWAP13 DUP15 PUSH2 0x377 JUMP JUMPDEST POP PUSH1 0x41 DUP5 SWAP3 PUSH4 0x4E487B71 PUSH1 0xE0 SHL DUP4 MSTORE MSTORE REVERT JUMPDEST DUP16 DUP9 MLOAD SWAP1 RETURNDATASIZE SWAP1 DUP3 RETURNDATACOPY RETURNDATASIZE SWAP1 REVERT JUMPDEST PUSH4 0x4E487B71 PUSH1 0xE0 SHL DUP15 MSTORE PUSH1 0x11 DUP3 MSTORE DUP4 DUP15 REVERT JUMPDEST PUSH4 0x4E487B71 PUSH1 0xE0 SHL DUP15 MSTORE PUSH1 0x12 DUP3 MSTORE DUP4 DUP15 REVERT JUMPDEST DUP4 PUSH1 0x64 SUB DUP3 DUP2 GT PUSH2 0x581 JUMPI DUP3 SWAP1 PUSH2 0x4B4 JUMP JUMPDEST DUP6 DUP11 GT SWAP11 PUSH2 0x371 JUMP JUMPDEST PUSH4 0x4E487B71 PUSH1 0xE0 SHL DUP14 MSTORE PUSH1 0x11 DUP3 MSTORE DUP4 DUP14 REVERT JUMPDEST PUSH1 0x64 SWAP1 PUSH1 0xF DUP5 PUSH1 0x20 DUP9 MLOAD SWAP4 PUSH3 0x461BCD PUSH1 0xE5 SHL DUP6 MSTORE DUP5 ADD MSTORE DUP3 ADD MSTORE PUSH15 0x151C985B9CD9995C8819985A5B1959 PUSH1 0x8A SHL PUSH1 0x44 DUP3 ADD MSTORE REVERT JUMPDEST PUSH4 0x4E487B71 PUSH1 0xE0 SHL DUP15 MSTORE PUSH1 0x41 DUP4 MSTORE DUP5 DUP15 REVERT JUMPDEST PUSH2 0x300 JUMP JUMPDEST PUSH1 0x64 SWAP1 PUSH1 0xF DUP5 PUSH1 0x20 DUP9 MLOAD SWAP4 PUSH3 0x461BCD PUSH1 0xE5 SHL DUP6 MSTORE DUP5 ADD MSTORE DUP3 ADD MSTORE PUSH15 0x82DADEEADCE840DAD2E6DAC2E8C6D PUSH1 0x8B SHL PUSH1 0x44 DUP3 ADD MSTORE REVERT JUMPDEST SWAP3 SLOAD DUP10 MLOAD PUSH4 0x23B872DD PUSH1 0xE0 SHL PUSH1 0x20 DUP1 DUP4 ADD SWAP2 DUP3 MSTORE CALLER DUP12 DUP5 ADD SWAP1 DUP2 MSTORE SWAP4 SWAP1 SWAP7 AND PUSH1 0x1 PUSH1 0x1 PUSH1 0xA0 SHL SUB AND DUP4 DUP8 ADD MSTORE PUSH1 0x40 DUP4 ADD SWAP4 SWAP1 SWAP4 MSTORE SWAP1 PUSH2 0x69D SWAP1 DUP3 SWAP1 PUSH1 0x60 ADD SUB PUSH1 0x1F NOT DUP2 ADD DUP4 MSTORE DUP3 PUSH2 0x996 JUMP JUMPDEST MLOAD SWAP1 DUP3 DUP6 GAS CALL ISZERO PUSH2 0x6DC JUMPI DUP13 MLOAD DUP13 SWAP1 RETURNDATASIZE PUSH2 0x6D5 JUMPI POP POP DUP1 EXTCODESIZE ISZERO JUMPDEST PUSH2 0x6C1 JUMPI POP PUSH2 0x306 JUMP JUMPDEST DUP6 MLOAD PUSH4 0x5274AFE7 PUSH1 0xE0 SHL DUP2 MSTORE SWAP2 DUP3 ADD MSTORE SWAP1 POP REVERT JUMPDEST EQ ISZERO PUSH2 0x6B7 JUMP JUMPDEST DUP6 MLOAD RETURNDATASIZE DUP15 DUP3 RETURNDATACOPY RETURNDATASIZE SWAP1 REVERT JUMPDEST DUP4 MLOAD PUSH4 0x17653201 PUSH1 0xE1 SHL DUP2 MSTORE DUP10 SWAP1 REVERT JUMPDEST DUP5 MLOAD PUSH4 0x989E3017 PUSH1 0xE0 SHL DUP2 MSTORE DUP11 SWAP1 REVERT JUMPDEST DUP4 MLOAD PUSH3 0x461BCD PUSH1 0xE5 SHL DUP2 MSTORE PUSH1 0x20 DUP2 DUP12 ADD MSTORE PUSH1 0xE DUP2 DUP5 ADD MSTORE PUSH14 0x125B9D985B1A59081D185C99D95D PUSH1 0x92 SHL PUSH1 0x44 DUP3 ADD MSTORE PUSH1 0x64 SWAP1 REVERT JUMPDEST POP PUSH1 0x64 DUP4 LT PUSH2 0x284 JUMP JUMPDEST DUP4 MLOAD PUSH3 0x461BCD PUSH1 0xE5 SHL DUP2 MSTORE PUSH1 0x20 DUP2 DUP12 ADD MSTORE PUSH1 0xB DUP2 DUP5 ADD MSTORE PUSH11 0x11D85B59481C185D5CD959 PUSH1 0xAA SHL PUSH1 0x44 DUP3 ADD MSTORE PUSH1 0x64 SWAP1 REVERT JUMPDEST DUP4 MLOAD PUSH4 0x3EE5AEB5 PUSH1 0xE0 SHL DUP2 MSTORE DUP10 SWAP1 REVERT JUMPDEST DUP9 DUP1 REVERT JUMPDEST POP POP CALLVALUE PUSH2 0xC5 JUMPI DUP2 PUSH1 0x3 NOT CALLDATASIZE ADD SLT PUSH2 0xC5 JUMPI SWAP1 SLOAD SWAP1 MLOAD PUSH1 0x1 PUSH1 0x1 PUSH1 0xA0 SHL SUB SWAP1 SWAP2 AND DUP2 MSTORE PUSH1 0x20 SWAP1 RETURN JUMPDEST DUP4 CALLVALUE PUSH2 0x7DC JUMPI DUP1 PUSH1 0x3 NOT CALLDATASIZE ADD SLT PUSH2 0x7DC JUMPI PUSH2 0x7C8 PUSH2 0x9B8 JUMP JUMPDEST PUSH3 0x10000 PUSH3 0xFF0000 NOT PUSH1 0x5 SLOAD AND OR PUSH1 0x5 SSTORE DUP1 RETURN JUMPDEST DUP1 REVERT JUMPDEST DUP3 DUP5 CALLVALUE PUSH2 0x7DC JUMPI DUP1 PUSH1 0x3 NOT CALLDATASIZE ADD SLT PUSH2 0x7DC JUMPI POP PUSH1 0xFF PUSH1 0xA0 SWAP3 PUSH1 0x1 DUP1 DUP6 SHL SUB PUSH1 0x2 SLOAD AND SWAP3 PUSH1 0x3 SLOAD SWAP2 SLOAD SWAP1 PUSH1 0x5 SLOAD SWAP3 DUP2 MLOAD SWAP6 DUP7 MSTORE PUSH1 0x20 DUP7 ADD MSTORE DUP5 ADD MSTORE PUSH2 0xFFFF DUP2 AND PUSH1 0x60 DUP5 ADD MSTORE PUSH1 0x10 SHR AND ISZERO ISZERO PUSH1 0x80 DUP3 ADD MSTORE RETURN JUMPDEST DUP4 CALLVALUE PUSH2 0x7DC JUMPI DUP1 PUSH1 0x3 NOT CALLDATASIZE ADD SLT PUSH2 0x7DC JUMPI PUSH2 0x849 PUSH2 0x9B8 JUMP JUMPDEST DUP1 SLOAD PUSH1 0x1 PUSH1 0x1 PUSH1 0xA0 SHL SUB NOT DUP2 AND DUP3 SSTORE DUP2 SWAP1 PUSH1 0x1 PUSH1 0x1 PUSH1 0xA0 SHL SUB AND PUSH32 0x8BE0079C531659141344CD1FD0A4F28419497F9722A3DAAFE3B4186F6B6457E0 DUP3 DUP1 LOG3 DUP1 RETURN JUMPDEST DUP4 CALLVALUE PUSH2 0x7DC JUMPI DUP1 PUSH1 0x3 NOT CALLDATASIZE ADD SLT PUSH2 0x7DC JUMPI PUSH2 0x8A3 PUSH2 0x9B8 JUMP JUMPDEST PUSH3 0xFF0000 NOT PUSH1 0x5 SLOAD AND PUSH1 0x5 SSTORE DUP1 RETURN JUMPDEST POP POP CALLVALUE PUSH2 0xC5 JUMPI DUP2 PUSH1 0x3 NOT CALLDATASIZE ADD SLT PUSH2 0xC5 JUMPI PUSH1 0x20 SWAP1 PUSH1 0x7 SLOAD SWAP1 MLOAD SWAP1 DUP2 MSTORE RETURN JUMPDEST DUP5 SWAP2 DUP5 CALLVALUE PUSH2 0x945 JUMPI PUSH1 0x20 CALLDATASIZE PUSH1 0x3 NOT ADD SLT PUSH2 0x945 JUMPI DUP1 PUSH1 0xE0 SWAP5 DUP4 CALLDATALOAD DUP2 MSTORE PUSH1 0x6 PUSH1 0x20 MSTORE KECCAK256 SWAP1 PUSH1 0x1 DUP1 PUSH1 0xA0 SHL SUB DUP3 SLOAD AND SWAP3 PUSH1 0x1 DUP4 ADD SLOAD SWAP2 PUSH1 0x2 DUP5 ADD SLOAD SWAP1 PUSH1 0xFF PUSH1 0x3 DUP7 ADD SLOAD SWAP4 DUP7 ADD SLOAD AND SWAP4 PUSH1 0x6 PUSH1 0x5 DUP8 ADD SLOAD SWAP7 ADD SLOAD SWAP7 DUP9 MSTORE PUSH1 0x20 DUP9 ADD MSTORE DUP7 ADD MSTORE PUSH1 0x60 DUP6 ADD MSTORE ISZERO ISZERO PUSH1 0x80 DUP5 ADD MSTORE PUSH1 0xA0 DUP4 ADD MSTORE PUSH1 0xC0 DUP3 ADD MSTORE RETURN JUMPDEST DUP4 DUP1 REVERT JUMPDEST PUSH1 0x4 CALLDATALOAD SWAP1 PUSH1 0x1 PUSH1 0x1 PUSH1 0xA0 SHL SUB DUP3 AND DUP3 SUB PUSH2 0x95F JUMPI JUMP JUMPDEST PUSH1 0x0 DUP1 REVERT JUMPDEST PUSH1 0x80 DUP2 ADD SWAP1 DUP2 LT PUSH8 0xFFFFFFFFFFFFFFFF DUP3 GT OR PUSH2 0x980 JUMPI PUSH1 0x40 MSTORE JUMP JUMPDEST PUSH4 0x4E487B71 PUSH1 0xE0 SHL PUSH1 0x0 MSTORE PUSH1 0x41 PUSH1 0x4 MSTORE PUSH1 0x24 PUSH1 0x0 REVERT JUMPDEST SWAP1 PUSH1 0x1F DUP1 NOT SWAP2 ADD AND DUP2 ADD SWAP1 DUP2 LT PUSH8 0xFFFFFFFFFFFFFFFF DUP3 GT OR PUSH2 0x980 JUMPI PUSH1 0x40 MSTORE JUMP JUMPDEST PUSH1 0x0 SLOAD PUSH1 0x1 PUSH1 0x1 PUSH1 0xA0 SHL SUB AND CALLER SUB PUSH2 0x9CC JUMPI JUMP JUMPDEST PUSH1 0x40 MLOAD PUSH4 0x118CDAA7 PUSH1 0xE0 SHL DUP2 MSTORE CALLER PUSH1 0x4 DUP3 ADD MSTORE PUSH1 0x24 SWAP1 REVERT JUMPDEST DUP2 DUP2 MUL SWAP3 SWAP2 DUP2 ISZERO SWAP2 DUP5 DIV EQ OR ISZERO PUSH2 0x9F7 JUMPI JUMP JUMPDEST PUSH4 0x4E487B71 PUSH1 0xE0 SHL PUSH1 0x0 MSTORE PUSH1 0x11 PUSH1 0x4 MSTORE PUSH1 0x24 PUSH1 0x0 REVERT INVALID LOG2 PUSH5 0x6970667358 0x22 SLT KECCAK256 PUSH26 0xEAB451296D013980AFC06225596280A7E624CDB6E5505F092FC5 PUSH3 0xCC51C4 DUP12 PUSH5 0x736F6C6343 STOP ADDMOD XOR STOP CALLER "},"methodIdentifiers":{"config()":"79502c55","gameCounter()":"2e0be39a","games(uint256)":"117a5b90","initialize(address,uint256,uint256,uint16)":"cbb6d6bd","owner()":"8da5cb5b","pause()":"8456cb59","play(uint256,uint8,bool)":"caf50828","renounceOwnership()":"715018a6","token()":"fc0c546a","transferOwnership(address)":"f2fde38b","unpause()":"3f4ba83a"}}}}}