{"contracts/casino/CasinoTreasury.sol":{"CasinoTreasury":{"abi":[{"inputs":[{"internalType":"address","name":"_owner","type":"address"}],"stateMutability":"nonpayable","type":"constructor"},{"inputs":[{"internalType":"address","name":"owner","type":"address"}],"name":"OwnableInvalidOwner","type":"error"},{"inputs":[{"internalType":"address","name":"account","type":"address"}],"name":"OwnableUnauthorizedAccount","type":"error"},{"inputs":[],"name":"ReentrancyGuardReentrantCall","type":"error"},{"inputs":[{"internalType":"address","name":"token","type":"address"}],"name":"SafeERC20FailedOperation","type":"error"},{"anonymous":false,"inputs":[{"indexed":true,"internalType":"address","name":"token","type":"address"},{"indexed":false,"internalType":"uint256","name":"amount","type":"uint256"}],"name":"FundsDeposited","type":"event"},{"anonymous":false,"inputs":[{"indexed":true,"internalType":"address","name":"token","type":"address"},{"indexed":false,"internalType":"uint256","name":"amount","type":"uint256"},{"indexed":false,"internalType":"address","name":"to","type":"address"}],"name":"FundsWithdrawn","type":"event"},{"anonymous":false,"inputs":[{"indexed":true,"internalType":"address","name":"game","type":"address"}],"name":"GameAuthorized","type":"event"},{"anonymous":false,"inputs":[{"indexed":true,"internalType":"address","name":"game","type":"address"}],"name":"GameRevoked","type":"event"},{"anonymous":false,"inputs":[{"indexed":true,"internalType":"address","name":"previousOwner","type":"address"},{"indexed":true,"internalType":"address","name":"newOwner","type":"address"}],"name":"OwnershipTransferred","type":"event"},{"anonymous":false,"inputs":[],"name":"Paused","type":"event"},{"anonymous":false,"inputs":[],"name":"Unpaused","type":"event"},{"inputs":[{"internalType":"address","name":"game","type":"address"}],"name":"authorizeGame","outputs":[],"stateMutability":"nonpayable","type":"function"},{"inputs":[{"internalType":"address","name":"","type":"address"}],"name":"authorizedGames","outputs":[{"internalType":"bool","name":"","type":"bool"}],"stateMutability":"view","type":"function"},{"inputs":[{"internalType":"address","name":"token","type":"address"},{"internalType":"uint256","name":"amount","type":"uint256"}],"name":"deposit","outputs":[],"stateMutability":"payable","type":"function"},{"inputs":[{"internalType":"address","name":"token","type":"address"}],"name":"getBalance","outputs":[{"internalType":"uint256","name":"","type":"uint256"}],"stateMutability":"view","type":"function"},{"inputs":[],"name":"owner","outputs":[{"internalType":"address","name":"","type":"address"}],"stateMutability":"view","type":"function"},{"inputs":[],"name":"pause","outputs":[],"stateMutability":"nonpayable","type":"function"},{"inputs":[],"name":"paused","outputs":[{"internalType":"bool","name":"","type":"bool"}],"stateMutability":"view","type":"function"},{"inputs":[{"internalType":"address","name":"token","type":"address"},{"internalType":"address","name":"recipient","type":"address"},{"internalType":"uint256","name":"amount","type":"uint256"}],"name":"payOut","outputs":[],"stateMutability":"nonpayable","type":"function"},{"inputs":[],"name":"renounceOwnership","outputs":[],"stateMutability":"nonpayable","type":"function"},{"inputs":[{"internalType":"address","name":"game","type":"address"}],"name":"revokeGame","outputs":[],"stateMutability":"nonpayable","type":"function"},{"inputs":[{"internalType":"address","name":"newOwner","type":"address"}],"name":"transferOwnership","outputs":[],"stateMutability":"nonpayable","type":"function"},{"inputs":[{"internalType":"address","name":"token","type":"address"},{"internalType":"address","name":"game","type":"address"},{"internalType":"uint256","name":"amount","type":"uint256"}],"name":"transferToGame","outputs":[],"stateMutability":"nonpayable","type":"function"},{"inputs":[],"name":"unpause","outputs":[],"stateMutability":"nonpayable","type":"function"},{"inputs":[{"internalType":"address","name":"token","type":"address"},{"internalType":"uint256","name":"amount","type":"uint256"},{"internalType":"address","name":"to","type":"address"}],"name":"withdraw","outputs":[],"stateMutability":"nonpayable","type":"function"},{"stateMutability":"payable","type":"receive"}],"evm":{"bytecode":{"linkReferences":{},"object":"6080346100c957601f610c2138819003918201601f19168301916001600160401b038311848410176100ce578084926020946040528339810103126100c957516001600160a01b0390818116908190036100c95780156100b057600080546001600160a01b03198116831782556040519316907f8be0079c531659141344cd1fd0a4f28419497f9722a3daafe3b4186f6b6457e09080a36001805560ff1960035416600355610b3c90816100e58239f35b604051631e4fbdf760e01b815260006004820152602490fd5b600080fd5b634e487b7160e01b600052604160045260246000fdfe604060808152600480361015610049575b50361561001c57600080fd5b7f543ba50a5eec5e6178218e364b1d0f396157b3c8fa278522c2cb7fd99407d474602060009251348152a2005b600090813560e01c90816301e086e1146107875781633f4ba83a1461073d57816347e7ef241461060b5781635c975abb146105e75781635e4402df1461057e57816369328dec14610467578163715018a61461040d5781638456cb59146103bd5781638da5cb5b146103955781639e492b9914610357578163a00c69511461023d578163c6650265146101a8578163f2fde38b1461011c575063f8b2cb4f036100105790346101185760203660031901126101185760209061011161010c6107ed565b6109ae565b9051908152f35b5080fd5b839150346101a45760203660031901126101a4576101386107ed565b90610141610a2c565b6001600160a01b0391821692831561018e57505082546001600160a01b0319811683178455167f8be0079c531659141344cd1fd0a4f28419497f9722a3daafe3b4186f6b6457e08380a380f35b51631e4fbdf760e01b8152908101849052602490fd5b8280fd5b8280853461023a5760ff906101bc36610808565b939091923386526002602052852054168015610227575b6101dc90610971565b6101eb60ff600354161561083d565b6001600160a01b039182168061021a575092808093819361021796165af16102116108f3565b50610933565b80f35b9091506102179350610a58565b5083546001600160a01b031633146101d3565b50fd5b905082346101a45761024e36610808565b9190338652600260205260ff84872054168015610344575b61026f90610971565b61027e60ff600354161561083d565b6001600160a01b038181169261029584151561087b565b16806103355750508147106102f2578480809381935af16102b46108f3565b50156102bf57505080f35b906020606492519162461bcd60e51b8352820152600d60248201526c14185e5bdd5d0819985a5b1959609a1b6044820152fd5b825162461bcd60e51b8152602081860152601d60248201527f496e73756666696369656e742074726561737572792062616c616e63650000006044820152606490fd5b91509192506102179350610a58565b5085546001600160a01b03163314610266565b8284346101185760203660031901126101185760209160ff9082906001600160a01b036103826107ed565b1681526002855220541690519015158152f35b828434610118578160031936011261011857905490516001600160a01b039091168152602090f35b823461040a578060031936011261040a576103d6610a2c565b600160ff1960035416176003557f9e87fac88ff661f02d44f95383c817fece4bce600a3dab7a54406878b965e7528180a180f35b80fd5b823461040a578060031936011261040a57610426610a2c565b80546001600160a01b03198116825581906001600160a01b03167f8be0079c531659141344cd1fd0a4f28419497f9722a3daafe3b4186f6b6457e08280a380f35b828434610118576060366003190112610118576104826107ed565b60443590602435906001600160a01b038084169182850361057a576104a5610a2c565b60026001541461056a5786975060026001979697556104c583151561087b565b168061052e575083946105058580807fe9171aeff46c37ab955b8aff908e14ae9732bd06634fa131226cfe5c25bfd2fb9887610523975af16102116108f3565b519182526001600160a01b0390921660208201529081906040820190565b0390a25b6001805580f35b947fe9171aeff46c37ab955b8aff908e14ae9732bd06634fa131226cfe5c25bfd2fb94506105629150610505838588610a58565b0390a2610527565b8551633ee5aeb560e01b81528890fd5b8680fd5b828434610118576020366003190112610118576105996107ed565b6105a1610a2c565b6001600160a01b03168083526002602052908220805460ff191660011790557f84a81ad072505ad49c4e9a66bfcdb55a2cff07cb4ea59ec7dc9cb27a38196a4d8280a280f35b82843461011857816003193601126101185760209060ff6003541690519015158152f35b905082600319360112610118576106206107ed565b906024359161063460ff600354161561083d565b6001600160a01b0316806106ae5750813403610679575060207f543ba50a5eec5e6178218e364b1d0f396157b3c8fa278522c2cb7fd99407d47491839451908152a280f35b606490602085519162461bcd60e51b8352820152600f60248201526e082dadeeadce840dad2e6dac2e8c6d608b1b6044820152fd5b9293908151906323b872dd60e01b60208301523360248301523060448301528360648301526064825260a082019082821067ffffffffffffffff83111761072a5750916107227f543ba50a5eec5e6178218e364b1d0f396157b3c8fa278522c2cb7fd99407d4749492602094835286610aaa565b51908152a280f35b634e487b7160e01b875260419052602486fd5b823461040a578060031936011261040a57610756610a2c565b60ff19600354166003557fa45f47fdea8a1efdd9029a5691c7f759c32b7c698632b563573e155625d169338180a180f35b828434610118576020366003190112610118576107a26107ed565b6107aa610a2c565b6001600160a01b03168083526002602052908220805460ff191690557f78b7f19de299af2e39976ccb793c72d123a2a5960c69bfde2f8c8e53437fdb1b8280a280f35b600435906001600160a01b038216820361080357565b600080fd5b6060906003190112610803576001600160a01b0390600435828116810361080357916024359081168103610803579060443590565b1561084457565b60405162461bcd60e51b815260206004820152600f60248201526e151c99585cdd5c9e481c185d5cd959608a1b6044820152606490fd5b1561088257565b60405162461bcd60e51b8152602060048201526011602482015270125b9d985b1a59081c9958da5c1a595b9d607a1b6044820152606490fd5b90601f8019910116810190811067ffffffffffffffff8211176108dd57604052565b634e487b7160e01b600052604160045260246000fd5b3d1561092e573d9067ffffffffffffffff82116108dd5760405191610922601f8201601f1916602001846108bb565b82523d6000602084013e565b606090565b1561093a57565b60405162461bcd60e51b815260206004820152600f60248201526e151c985b9cd9995c8819985a5b1959608a1b6044820152606490fd5b1561097857565b60405162461bcd60e51b815260206004820152600e60248201526d139bdd08185d5d1a1bdc9a5e995960921b6044820152606490fd5b6001600160a01b0316806109c157504790565b6020602491604051928380926370a0823160e01b82523060048301525afa908115610a20576000916109f1575090565b90506020813d602011610a18575b81610a0c602093836108bb565b81010312610803575190565b3d91506109ff565b6040513d6000823e3d90fd5b6000546001600160a01b03163303610a4057565b60405163118cdaa760e01b8152336004820152602490fd5b60405163a9059cbb60e01b60208201526001600160a01b039092166024830152604480830193909352918152608081019167ffffffffffffffff8311828410176108dd57610aa892604052610aaa565b565b906000602091828151910182855af115610a20576000513d610afd57506001600160a01b0381163b155b610adb5750565b604051635274afe760e01b81526001600160a01b039091166004820152602490fd5b60011415610ad456fea2646970667358221220227f4ad41a71f97fd558955858671554f20853c95a32550b95f0dcd53cd0999a64736f6c63430008180033","opcodes":"PUSH1 0x80 CALLVALUE PUSH2 0xC9 JUMPI PUSH1 0x1F PUSH2 0xC21 CODESIZE DUP2 SWAP1 SUB SWAP2 DUP3 ADD PUSH1 0x1F NOT AND DUP4 ADD SWAP2 PUSH1 0x1 PUSH1 0x1 PUSH1 0x40 SHL SUB DUP4 GT DUP5 DUP5 LT OR PUSH2 0xCE JUMPI DUP1 DUP5 SWAP3 PUSH1 0x20 SWAP5 PUSH1 0x40 MSTORE DUP4 CODECOPY DUP2 ADD SUB SLT PUSH2 0xC9 JUMPI MLOAD PUSH1 0x1 PUSH1 0x1 PUSH1 0xA0 SHL SUB SWAP1 DUP2 DUP2 AND SWAP1 DUP2 SWAP1 SUB PUSH2 0xC9 JUMPI DUP1 ISZERO PUSH2 0xB0 JUMPI PUSH1 0x0 DUP1 SLOAD PUSH1 0x1 PUSH1 0x1 PUSH1 0xA0 SHL SUB NOT DUP2 AND DUP4 OR DUP3 SSTORE PUSH1 0x40 MLOAD SWAP4 AND SWAP1 PUSH32 0x8BE0079C531659141344CD1FD0A4F28419497F9722A3DAAFE3B4186F6B6457E0 SWAP1 DUP1 LOG3 PUSH1 0x1 DUP1 SSTORE PUSH1 0xFF NOT PUSH1 0x3 SLOAD AND PUSH1 0x3 SSTORE PUSH2 0xB3C SWAP1 DUP2 PUSH2 0xE5 DUP3 CODECOPY RETURN JUMPDEST PUSH1 0x40 MLOAD PUSH4 0x1E4FBDF7 PUSH1 0xE0 SHL DUP2 MSTORE PUSH1 0x0 PUSH1 0x4 DUP3 ADD MSTORE PUSH1 0x24 SWAP1 REVERT JUMPDEST PUSH1 0x0 DUP1 REVERT JUMPDEST PUSH4 0x4E487B71 PUSH1 0xE0 SHL PUSH1 0x0 MSTORE PUSH1 0x41 PUSH1 0x4 MSTORE PUSH1 0x24 PUSH1 0x0 REVERT INVALID PUSH1 0x40 PUSH1 0x80 DUP2 MSTORE PUSH1 0x4 DUP1 CALLDATASIZE LT ISZERO PUSH2 0x49 JUMPI JUMPDEST POP CALLDATASIZE ISZERO PUSH2 0x1C JUMPI PUSH1 0x0 DUP1 REVERT JUMPDEST PUSH32 0x543BA50A5EEC5E6178218E364B1D0F396157B3C8FA278522C2CB7FD99407D474 PUSH1 0x20 PUSH1 0x0 SWAP3 MLOAD CALLVALUE DUP2 MSTORE LOG2 STOP JUMPDEST PUSH1 0x0 SWAP1 DUP2 CALLDATALOAD PUSH1 0xE0 SHR SWAP1 DUP2 PUSH4 0x1E086E1 EQ PUSH2 0x787 JUMPI DUP2 PUSH4 0x3F4BA83A EQ PUSH2 0x73D JUMPI DUP2 PUSH4 0x47E7EF24 EQ PUSH2 0x60B JUMPI DUP2 PUSH4 0x5C975ABB EQ PUSH2 0x5E7 JUMPI DUP2 PUSH4 0x5E4402DF EQ PUSH2 0x57E JUMPI DUP2 PUSH4 0x69328DEC EQ PUSH2 0x467 JUMPI DUP2 PUSH4 0x715018A6 EQ PUSH2 0x40D JUMPI DUP2 PUSH4 0x8456CB59 EQ PUSH2 0x3BD JUMPI DUP2 PUSH4 0x8DA5CB5B EQ PUSH2 0x395 JUMPI DUP2 PUSH4 0x9E492B99 EQ PUSH2 0x357 JUMPI DUP2 PUSH4 0xA00C6951 EQ PUSH2 0x23D JUMPI DUP2 PUSH4 0xC6650265 EQ PUSH2 0x1A8 JUMPI DUP2 PUSH4 0xF2FDE38B EQ PUSH2 0x11C JUMPI POP PUSH4 0xF8B2CB4F SUB PUSH2 0x10 JUMPI SWAP1 CALLVALUE PUSH2 0x118 JUMPI PUSH1 0x20 CALLDATASIZE PUSH1 0x3 NOT ADD SLT PUSH2 0x118 JUMPI PUSH1 0x20 SWAP1 PUSH2 0x111 PUSH2 0x10C PUSH2 0x7ED JUMP JUMPDEST PUSH2 0x9AE JUMP JUMPDEST SWAP1 MLOAD SWAP1 DUP2 MSTORE RETURN JUMPDEST POP DUP1 REVERT JUMPDEST DUP4 SWAP2 POP CALLVALUE PUSH2 0x1A4 JUMPI PUSH1 0x20 CALLDATASIZE PUSH1 0x3 NOT ADD SLT PUSH2 0x1A4 JUMPI PUSH2 0x138 PUSH2 0x7ED JUMP JUMPDEST SWAP1 PUSH2 0x141 PUSH2 0xA2C JUMP JUMPDEST PUSH1 0x1 PUSH1 0x1 PUSH1 0xA0 SHL SUB SWAP2 DUP3 AND SWAP3 DUP4 ISZERO PUSH2 0x18E JUMPI POP POP DUP3 SLOAD PUSH1 0x1 PUSH1 0x1 PUSH1 0xA0 SHL SUB NOT DUP2 AND DUP4 OR DUP5 SSTORE AND PUSH32 0x8BE0079C531659141344CD1FD0A4F28419497F9722A3DAAFE3B4186F6B6457E0 DUP4 DUP1 LOG3 DUP1 RETURN JUMPDEST MLOAD PUSH4 0x1E4FBDF7 PUSH1 0xE0 SHL DUP2 MSTORE SWAP1 DUP2 ADD DUP5 SWAP1 MSTORE PUSH1 0x24 SWAP1 REVERT JUMPDEST DUP3 DUP1 REVERT JUMPDEST DUP3 DUP1 DUP6 CALLVALUE PUSH2 0x23A JUMPI PUSH1 0xFF SWAP1 PUSH2 0x1BC CALLDATASIZE PUSH2 0x808 JUMP JUMPDEST SWAP4 SWAP1 SWAP2 SWAP3 CALLER DUP7 MSTORE PUSH1 0x2 PUSH1 0x20 MSTORE DUP6 KECCAK256 SLOAD AND DUP1 ISZERO PUSH2 0x227 JUMPI JUMPDEST PUSH2 0x1DC SWAP1 PUSH2 0x971 JUMP JUMPDEST PUSH2 0x1EB PUSH1 0xFF PUSH1 0x3 SLOAD AND ISZERO PUSH2 0x83D JUMP JUMPDEST PUSH1 0x1 PUSH1 0x1 PUSH1 0xA0 SHL SUB SWAP2 DUP3 AND DUP1 PUSH2 0x21A JUMPI POP SWAP3 DUP1 DUP1 SWAP4 DUP2 SWAP4 PUSH2 0x217 SWAP7 AND GAS CALL PUSH2 0x211 PUSH2 0x8F3 JUMP JUMPDEST POP PUSH2 0x933 JUMP JUMPDEST DUP1 RETURN JUMPDEST SWAP1 SWAP2 POP PUSH2 0x217 SWAP4 POP PUSH2 0xA58 JUMP JUMPDEST POP DUP4 SLOAD PUSH1 0x1 PUSH1 0x1 PUSH1 0xA0 SHL SUB AND CALLER EQ PUSH2 0x1D3 JUMP JUMPDEST POP REVERT JUMPDEST SWAP1 POP DUP3 CALLVALUE PUSH2 0x1A4 JUMPI PUSH2 0x24E CALLDATASIZE PUSH2 0x808 JUMP JUMPDEST SWAP2 SWAP1 CALLER DUP7 MSTORE PUSH1 0x2 PUSH1 0x20 MSTORE PUSH1 0xFF DUP5 DUP8 KECCAK256 SLOAD AND DUP1 ISZERO PUSH2 0x344 JUMPI JUMPDEST PUSH2 0x26F SWAP1 PUSH2 0x971 JUMP JUMPDEST PUSH2 0x27E PUSH1 0xFF PUSH1 0x3 SLOAD AND ISZERO PUSH2 0x83D JUMP JUMPDEST PUSH1 0x1 PUSH1 0x1 PUSH1 0xA0 SHL SUB DUP2 DUP2 AND SWAP3 PUSH2 0x295 DUP5 ISZERO ISZERO PUSH2 0x87B JUMP JUMPDEST AND DUP1 PUSH2 0x335 JUMPI POP POP DUP2 SELFBALANCE LT PUSH2 0x2F2 JUMPI DUP5 DUP1 DUP1 SWAP4 DUP2 SWAP4 GAS CALL PUSH2 0x2B4 PUSH2 0x8F3 JUMP JUMPDEST POP ISZERO PUSH2 0x2BF JUMPI POP POP DUP1 RETURN JUMPDEST SWAP1 PUSH1 0x20 PUSH1 0x64 SWAP3 MLOAD SWAP2 PUSH3 0x461BCD PUSH1 0xE5 SHL DUP4 MSTORE DUP3 ADD MSTORE PUSH1 0xD PUSH1 0x24 DUP3 ADD MSTORE PUSH13 0x14185E5BDD5D0819985A5B1959 PUSH1 0x9A SHL PUSH1 0x44 DUP3 ADD MSTORE REVERT JUMPDEST DUP3 MLOAD PUSH3 0x461BCD PUSH1 0xE5 SHL DUP2 MSTORE PUSH1 0x20 DUP2 DUP7 ADD MSTORE PUSH1 0x1D PUSH1 0x24 DUP3 ADD MSTORE PUSH32 0x496E73756666696369656E742074726561737572792062616C616E6365000000 PUSH1 0x44 DUP3 ADD MSTORE PUSH1 0x64 SWAP1 REVERT JUMPDEST SWAP2 POP SWAP2 SWAP3 POP PUSH2 0x217 SWAP4 POP PUSH2 0xA58 JUMP JUMPDEST POP DUP6 SLOAD PUSH1 0x1 PUSH1 0x1 PUSH1 0xA0 SHL SUB AND CALLER EQ PUSH2 0x266 JUMP JUMPDEST DUP3 DUP5 CALLVALUE PUSH2 0x118 JUMPI PUSH1 0x20 CALLDATASIZE PUSH1 0x3 NOT ADD SLT PUSH2 0x118 JUMPI PUSH1 0x20 SWAP2 PUSH1 0xFF SWAP1 DUP3 SWAP1 PUSH1 0x1 PUSH1 0x1 PUSH1 0xA0 SHL SUB PUSH2 0x382 PUSH2 0x7ED JUMP JUMPDEST AND DUP2 MSTORE PUSH1 0x2 DUP6 MSTORE KECCAK256 SLOAD AND SWAP1 MLOAD SWAP1 ISZERO ISZERO DUP2 MSTORE RETURN JUMPDEST DUP3 DUP5 CALLVALUE PUSH2 0x118 JUMPI DUP2 PUSH1 0x3 NOT CALLDATASIZE ADD SLT PUSH2 0x118 JUMPI SWAP1 SLOAD SWAP1 MLOAD PUSH1 0x1 PUSH1 0x1 PUSH1 0xA0 SHL SUB SWAP1 SWAP2 AND DUP2 MSTORE PUSH1 0x20 SWAP1 RETURN JUMPDEST DUP3 CALLVALUE PUSH2 0x40A JUMPI DUP1 PUSH1 0x3 NOT CALLDATASIZE ADD SLT PUSH2 0x40A JUMPI PUSH2 0x3D6 PUSH2 0xA2C JUMP JUMPDEST PUSH1 0x1 PUSH1 0xFF NOT PUSH1 0x3 SLOAD AND OR PUSH1 0x3 SSTORE PUSH32 0x9E87FAC88FF661F02D44F95383C817FECE4BCE600A3DAB7A54406878B965E752 DUP2 DUP1 LOG1 DUP1 RETURN JUMPDEST DUP1 REVERT JUMPDEST DUP3 CALLVALUE PUSH2 0x40A JUMPI DUP1 PUSH1 0x3 NOT CALLDATASIZE ADD SLT PUSH2 0x40A JUMPI PUSH2 0x426 PUSH2 0xA2C JUMP JUMPDEST DUP1 SLOAD PUSH1 0x1 PUSH1 0x1 PUSH1 0xA0 SHL SUB NOT DUP2 AND DUP3 SSTORE DUP2 SWAP1 PUSH1 0x1 PUSH1 0x1 PUSH1 0xA0 SHL SUB AND PUSH32 0x8BE0079C531659141344CD1FD0A4F28419497F9722A3DAAFE3B4186F6B6457E0 DUP3 DUP1 LOG3 DUP1 RETURN JUMPDEST DUP3 DUP5 CALLVALUE PUSH2 0x118 JUMPI PUSH1 0x60 CALLDATASIZE PUSH1 0x3 NOT ADD SLT PUSH2 0x118 JUMPI PUSH2 0x482 PUSH2 0x7ED JUMP JUMPDEST PUSH1 0x44 CALLDATALOAD SWAP1 PUSH1 0x24 CALLDATALOAD SWAP1 PUSH1 0x1 PUSH1 0x1 PUSH1 0xA0 SHL SUB DUP1 DUP5 AND SWAP2 DUP3 DUP6 SUB PUSH2 0x57A JUMPI PUSH2 0x4A5 PUSH2 0xA2C JUMP JUMPDEST PUSH1 0x2 PUSH1 0x1 SLOAD EQ PUSH2 0x56A JUMPI DUP7 SWAP8 POP PUSH1 0x2 PUSH1 0x1 SWAP8 SWAP7 SWAP8 SSTORE PUSH2 0x4C5 DUP4 ISZERO ISZERO PUSH2 0x87B JUMP JUMPDEST AND DUP1 PUSH2 0x52E JUMPI POP DUP4 SWAP5 PUSH2 0x505 DUP6 DUP1 DUP1 PUSH32 0xE9171AEFF46C37AB955B8AFF908E14AE9732BD06634FA131226CFE5C25BFD2FB SWAP9 DUP8 PUSH2 0x523 SWAP8 GAS CALL PUSH2 0x211 PUSH2 0x8F3 JUMP JUMPDEST MLOAD SWAP2 DUP3 MSTORE PUSH1 0x1 PUSH1 0x1 PUSH1 0xA0 SHL SUB SWAP1 SWAP3 AND PUSH1 0x20 DUP3 ADD MSTORE SWAP1 DUP2 SWAP1 PUSH1 0x40 DUP3 ADD SWAP1 JUMP JUMPDEST SUB SWAP1 LOG2 JUMPDEST PUSH1 0x1 DUP1 SSTORE DUP1 RETURN JUMPDEST SWAP5 PUSH32 0xE9171AEFF46C37AB955B8AFF908E14AE9732BD06634FA131226CFE5C25BFD2FB SWAP5 POP PUSH2 0x562 SWAP2 POP PUSH2 0x505 DUP4 DUP6 DUP9 PUSH2 0xA58 JUMP JUMPDEST SUB SWAP1 LOG2 PUSH2 0x527 JUMP JUMPDEST DUP6 MLOAD PUSH4 0x3EE5AEB5 PUSH1 0xE0 SHL DUP2 MSTORE DUP9 SWAP1 REVERT JUMPDEST DUP7 DUP1 REVERT JUMPDEST DUP3 DUP5 CALLVALUE PUSH2 0x118 JUMPI PUSH1 0x20 CALLDATASIZE PUSH1 0x3 NOT ADD SLT PUSH2 0x118 JUMPI PUSH2 0x599 PUSH2 0x7ED JUMP JUMPDEST PUSH2 0x5A1 PUSH2 0xA2C JUMP JUMPDEST PUSH1 0x1 PUSH1 0x1 PUSH1 0xA0 SHL SUB AND DUP1 DUP4 MSTORE PUSH1 0x2 PUSH1 0x20 MSTORE SWAP1 DUP3 KECCAK256 DUP1 SLOAD PUSH1 0xFF NOT AND PUSH1 0x1 OR SWAP1 SSTORE PUSH32 0x84A81AD072505AD49C4E9A66BFCDB55A2CFF07CB4EA59EC7DC9CB27A38196A4D DUP3 DUP1 LOG2 DUP1 RETURN JUMPDEST DUP3 DUP5 CALLVALUE PUSH2 0x118 JUMPI DUP2 PUSH1 0x3 NOT CALLDATASIZE ADD SLT PUSH2 0x118 JUMPI PUSH1 0x20 SWAP1 PUSH1 0xFF PUSH1 0x3 SLOAD AND SWAP1 MLOAD SWAP1 ISZERO ISZERO DUP2 MSTORE RETURN JUMPDEST SWAP1 POP DUP3 PUSH1 0x3 NOT CALLDATASIZE ADD SLT PUSH2 0x118 JUMPI PUSH2 0x620 PUSH2 0x7ED JUMP JUMPDEST SWAP1 PUSH1 0x24 CALLDATALOAD SWAP2 PUSH2 0x634 PUSH1 0xFF PUSH1 0x3 SLOAD AND ISZERO PUSH2 0x83D JUMP JUMPDEST PUSH1 0x1 PUSH1 0x1 PUSH1 0xA0 SHL SUB AND DUP1 PUSH2 0x6AE JUMPI POP DUP2 CALLVALUE SUB PUSH2 0x679 JUMPI POP PUSH1 0x20 PUSH32 0x543BA50A5EEC5E6178218E364B1D0F396157B3C8FA278522C2CB7FD99407D474 SWAP2 DUP4 SWAP5 MLOAD SWAP1 DUP2 MSTORE LOG2 DUP1 RETURN JUMPDEST PUSH1 0x64 SWAP1 PUSH1 0x20 DUP6 MLOAD SWAP2 PUSH3 0x461BCD PUSH1 0xE5 SHL DUP4 MSTORE DUP3 ADD MSTORE PUSH1 0xF PUSH1 0x24 DUP3 ADD MSTORE PUSH15 0x82DADEEADCE840DAD2E6DAC2E8C6D PUSH1 0x8B SHL PUSH1 0x44 DUP3 ADD MSTORE REVERT JUMPDEST SWAP3 SWAP4 SWAP1 DUP2 MLOAD SWAP1 PUSH4 0x23B872DD PUSH1 0xE0 SHL PUSH1 0x20 DUP4 ADD MSTORE CALLER PUSH1 0x24 DUP4 ADD MSTORE ADDRESS PUSH1 0x44 DUP4 ADD MSTORE DUP4 PUSH1 0x64 DUP4 ADD MSTORE PUSH1 0x64 DUP3 MSTORE PUSH1 0xA0 DUP3 ADD SWAP1 DUP3 DUP3 LT PUSH8 0xFFFFFFFFFFFFFFFF DUP4 GT OR PUSH2 0x72A JUMPI POP SWAP2 PUSH2 0x722 PUSH32 0x543BA50A5EEC5E6178218E364B1D0F396157B3C8FA278522C2CB7FD99407D474 SWAP5 SWAP3 PUSH1 0x20 SWAP5 DUP4 MSTORE DUP7 PUSH2 0xAAA JUMP JUMPDEST MLOAD SWAP1 DUP2 MSTORE LOG2 DUP1 RETURN JUMPDEST PUSH4 0x4E487B71 PUSH1 0xE0 SHL DUP8 MSTORE PUSH1 0x41 SWAP1 MSTORE PUSH1 0x24 DUP7 REVERT JUMPDEST DUP3 CALLVALUE PUSH2 0x40A JUMPI DUP1 PUSH1 0x3 NOT CALLDATASIZE ADD SLT PUSH2 0x40A JUMPI PUSH2 0x756 PUSH2 0xA2C JUMP JUMPDEST PUSH1 0xFF NOT PUSH1 0x3 SLOAD AND PUSH1 0x3 SSTORE PUSH32 0xA45F47FDEA8A1EFDD9029A5691C7F759C32B7C698632B563573E155625D16933 DUP2 DUP1 LOG1 DUP1 RETURN JUMPDEST DUP3 DUP5 CALLVALUE PUSH2 0x118 JUMPI PUSH1 0x20 CALLDATASIZE PUSH1 0x3 NOT ADD SLT PUSH2 0x118 JUMPI PUSH2 0x7A2 PUSH2 0x7ED JUMP JUMPDEST PUSH2 0x7AA PUSH2 0xA2C JUMP JUMPDEST PUSH1 0x1 PUSH1 0x1 PUSH1 0xA0 SHL SUB AND DUP1 DUP4 MSTORE PUSH1 0x2 PUSH1 0x20 MSTORE SWAP1 DUP3 KECCAK256 DUP1 SLOAD PUSH1 0xFF NOT AND SWAP1 SSTORE PUSH32 0x78B7F19DE299AF2E39976CCB793C72D123A2A5960C69BFDE2F8C8E53437FDB1B DUP3 DUP1 LOG2 DUP1 RETURN JUMPDEST PUSH1 0x4 CALLDATALOAD SWAP1 PUSH1 0x1 PUSH1 0x1 PUSH1 0xA0 SHL SUB DUP3 AND DUP3 SUB PUSH2 0x803 JUMPI JUMP JUMPDEST PUSH1 0x0 DUP1 REVERT JUMPDEST PUSH1 0x60 SWAP1 PUSH1 0x3 NOT ADD SLT PUSH2 0x803 JUMPI PUSH1 0x1 PUSH1 0x1 PUSH1 0xA0 SHL SUB SWAP1 PUSH1 0x4 CALLDATALOAD DUP3 DUP2 AND DUP2 SUB PUSH2 0x803 JUMPI SWAP2 PUSH1 0x24 CALLDATALOAD SWAP1 DUP2 AND DUP2 SUB PUSH2 0x803 JUMPI SWAP1 PUSH1 0x44 CALLDATALOAD SWAP1 JUMP JUMPDEST ISZERO PUSH2 0x844 JUMPI JUMP JUMPDEST PUSH1 0x40 MLOAD PUSH3 0x461BCD PUSH1 0xE5 SHL DUP2 MSTORE PUSH1 0x20 PUSH1 0x4 DUP3 ADD MSTORE PUSH1 0xF PUSH1 0x24 DUP3 ADD MSTORE PUSH15 0x151C99585CDD5C9E481C185D5CD959 PUSH1 0x8A SHL PUSH1 0x44 DUP3 ADD MSTORE PUSH1 0x64 SWAP1 REVERT JUMPDEST ISZERO PUSH2 0x882 JUMPI JUMP JUMPDEST PUSH1 0x40 MLOAD PUSH3 0x461BCD PUSH1 0xE5 SHL DUP2 MSTORE PUSH1 0x20 PUSH1 0x4 DUP3 ADD MSTORE PUSH1 0x11 PUSH1 0x24 DUP3 ADD MSTORE PUSH17 0x125B9D985B1A59081C9958DA5C1A595B9D PUSH1 0x7A SHL PUSH1 0x44 DUP3 ADD MSTORE PUSH1 0x64 SWAP1 REVERT JUMPDEST SWAP1 PUSH1 0x1F DUP1 NOT SWAP2 ADD AND DUP2 ADD SWAP1 DUP2 LT PUSH8 0xFFFFFFFFFFFFFFFF DUP3 GT OR PUSH2 0x8DD JUMPI PUSH1 0x40 MSTORE JUMP JUMPDEST PUSH4 0x4E487B71 PUSH1 0xE0 SHL PUSH1 0x0 MSTORE PUSH1 0x41 PUSH1 0x4 MSTORE PUSH1 0x24 PUSH1 0x0 REVERT JUMPDEST RETURNDATASIZE ISZERO PUSH2 0x92E JUMPI RETURNDATASIZE SWAP1 PUSH8 0xFFFFFFFFFFFFFFFF DUP3 GT PUSH2 0x8DD JUMPI PUSH1 0x40 MLOAD SWAP2 PUSH2 0x922 PUSH1 0x1F DUP3 ADD PUSH1 0x1F NOT AND PUSH1 0x20 ADD DUP5 PUSH2 0x8BB JUMP JUMPDEST DUP3 MSTORE RETURNDATASIZE PUSH1 0x0 PUSH1 0x20 DUP5 ADD RETURNDATACOPY JUMP JUMPDEST PUSH1 0x60 SWAP1 JUMP JUMPDEST ISZERO PUSH2 0x93A JUMPI JUMP JUMPDEST PUSH1 0x40 MLOAD PUSH3 0x461BCD PUSH1 0xE5 SHL DUP2 MSTORE PUSH1 0x20 PUSH1 0x4 DUP3 ADD MSTORE PUSH1 0xF PUSH1 0x24 DUP3 ADD MSTORE PUSH15 0x151C985B9CD9995C8819985A5B1959 PUSH1 0x8A SHL PUSH1 0x44 DUP3 ADD MSTORE PUSH1 0x64 SWAP1 REVERT JUMPDEST ISZERO PUSH2 0x978 JUMPI JUMP JUMPDEST PUSH1 0x40 MLOAD PUSH3 0x461BCD PUSH1 0xE5 SHL DUP2 MSTORE PUSH1 0x20 PUSH1 0x4 DUP3 ADD MSTORE PUSH1 0xE PUSH1 0x24 DUP3 ADD MSTORE PUSH14 0x139BDD08185D5D1A1BDC9A5E9959 PUSH1 0x92 SHL PUSH1 0x44 DUP3 ADD MSTORE PUSH1 0x64 SWAP1 REVERT JUMPDEST PUSH1 0x1 PUSH1 0x1 PUSH1 0xA0 SHL SUB AND DUP1 PUSH2 0x9C1 JUMPI POP SELFBALANCE SWAP1 JUMP JUMPDEST PUSH1 0x20 PUSH1 0x24 SWAP2 PUSH1 0x40 MLOAD SWAP3 DUP4 DUP1 SWAP3 PUSH4 0x70A08231 PUSH1 0xE0 SHL DUP3 MSTORE ADDRESS PUSH1 0x4 DUP4 ADD MSTORE GAS STATICCALL SWAP1 DUP2 ISZERO PUSH2 0xA20 JUMPI PUSH1 0x0 SWAP2 PUSH2 0x9F1 JUMPI POP SWAP1 JUMP JUMPDEST SWAP1 POP PUSH1 0x20 DUP2 RETURNDATASIZE PUSH1 0x20 GT PUSH2 0xA18 JUMPI JUMPDEST DUP2 PUSH2 0xA0C PUSH1 0x20 SWAP4 DUP4 PUSH2 0x8BB JUMP JUMPDEST DUP2 ADD SUB SLT PUSH2 0x803 JUMPI MLOAD SWAP1 JUMP JUMPDEST RETURNDATASIZE SWAP2 POP PUSH2 0x9FF JUMP JUMPDEST PUSH1 0x40 MLOAD RETURNDATASIZE PUSH1 0x0 DUP3 RETURNDATACOPY RETURNDATASIZE SWAP1 REVERT JUMPDEST PUSH1 0x0 SLOAD PUSH1 0x1 PUSH1 0x1 PUSH1 0xA0 SHL SUB AND CALLER SUB PUSH2 0xA40 JUMPI JUMP JUMPDEST PUSH1 0x40 MLOAD PUSH4 0x118CDAA7 PUSH1 0xE0 SHL DUP2 MSTORE CALLER PUSH1 0x4 DUP3 ADD MSTORE PUSH1 0x24 SWAP1 REVERT JUMPDEST PUSH1 0x40 MLOAD PUSH4 0xA9059CBB PUSH1 0xE0 SHL PUSH1 0x20 DUP3 ADD MSTORE PUSH1 0x1 PUSH1 0x1 PUSH1 0xA0 SHL SUB SWAP1 SWAP3 AND PUSH1 0x24 DUP4 ADD MSTORE PUSH1 0x44 DUP1 DUP4 ADD SWAP4 SWAP1 SWAP4 MSTORE SWAP2 DUP2 MSTORE PUSH1 0x80 DUP2 ADD SWAP2 PUSH8 0xFFFFFFFFFFFFFFFF DUP4 GT DUP3 DUP5 LT OR PUSH2 0x8DD JUMPI PUSH2 0xAA8 SWAP3 PUSH1 0x40 MSTORE PUSH2 0xAAA JUMP JUMPDEST JUMP JUMPDEST SWAP1 PUSH1 0x0 PUSH1 0x20 SWAP2 DUP3 DUP2 MLOAD SWAP2 ADD DUP3 DUP6 GAS CALL ISZERO PUSH2 0xA20 JUMPI PUSH1 0x0 MLOAD RETURNDATASIZE PUSH2 0xAFD JUMPI POP PUSH1 0x1 PUSH1 0x1 PUSH1 0xA0 SHL SUB DUP2 AND EXTCODESIZE ISZERO JUMPDEST PUSH2 0xADB JUMPI POP JUMP JUMPDEST PUSH1 0x40 MLOAD PUSH4 0x5274AFE7 PUSH1 0xE0 SHL DUP2 MSTORE PUSH1 0x1 PUSH1 0x1 PUSH1 0xA0 SHL SUB SWAP1 SWAP2 AND PUSH1 0x4 DUP3 ADD MSTORE PUSH1 0x24 SWAP1 REVERT JUMPDEST PUSH1 0x1 EQ ISZERO PUSH2 0xAD4 JUMP INVALID LOG2 PUSH5 0x6970667358 0x22 SLT KECCAK256 0x22 PUSH32 0x4AD41A71F97FD558955858671554F20853C95A32550B95F0DCD53CD0999A6473 PUSH16 0x6C634300081800330000000000000000 "},"methodIdentifiers":{"authorizeGame(address)":"5e4402df","authorizedGames(address)":"9e492b99","deposit(address,uint256)":"47e7ef24","getBalance(address)":"f8b2cb4f","owner()":"8da5cb5b","pause()":"8456cb59","paused()":"5c975abb","payOut(address,address,uint256)":"a00c6951","renounceOwnership()":"715018a6","revokeGame(address)":"01e086e1","transferOwnership(address)":"f2fde38b","transferToGame(address,address,uint256)":"c6650265","unpause()":"3f4ba83a","withdraw(address,uint256,address)":"69328dec"}}}}}