{"contracts/casino/Slots.sol":{"Slots":{"abi":[{"inputs":[{"internalType":"address","name":"_owner","type":"address"},{"internalType":"address","name":"_token","type":"address"}],"stateMutability":"nonpayable","type":"constructor"},{"inputs":[],"name":"BetTooHigh","type":"error"},{"inputs":[],"name":"BetTooLow","type":"error"},{"inputs":[{"internalType":"address","name":"owner","type":"address"}],"name":"OwnableInvalidOwner","type":"error"},{"inputs":[{"internalType":"address","name":"account","type":"address"}],"name":"OwnableUnauthorizedAccount","type":"error"},{"inputs":[],"name":"ReentrancyGuardReentrantCall","type":"error"},{"inputs":[{"internalType":"address","name":"token","type":"address"}],"name":"SafeERC20FailedOperation","type":"error"},{"anonymous":false,"inputs":[{"indexed":true,"internalType":"address","name":"player","type":"address"},{"indexed":true,"internalType":"uint256","name":"gameId","type":"uint256"},{"indexed":false,"internalType":"uint256","name":"betAmount","type":"uint256"},{"indexed":false,"internalType":"uint8","name":"reel1","type":"uint8"},{"indexed":false,"internalType":"uint8","name":"reel2","type":"uint8"},{"indexed":false,"internalType":"uint8","name":"reel3","type":"uint8"},{"indexed":false,"internalType":"uint256","name":"payout","type":"uint256"}],"name":"GamePlayed","type":"event"},{"anonymous":false,"inputs":[{"indexed":true,"internalType":"address","name":"player","type":"address"},{"indexed":true,"internalType":"uint256","name":"gameId","type":"uint256"},{"indexed":false,"internalType":"uint256","name":"betAmount","type":"uint256"},{"indexed":false,"internalType":"uint256","name":"result","type":"uint256"},{"indexed":false,"internalType":"uint256","name":"payout","type":"uint256"}],"name":"GamePlayed","type":"event"},{"anonymous":false,"inputs":[{"indexed":true,"internalType":"address","name":"previousOwner","type":"address"},{"indexed":true,"internalType":"address","name":"newOwner","type":"address"}],"name":"OwnershipTransferred","type":"event"},{"inputs":[],"name":"config","outputs":[{"internalType":"address","name":"treasury","type":"address"},{"internalType":"uint256","name":"minBet","type":"uint256"},{"internalType":"uint256","name":"maxBet","type":"uint256"},{"internalType":"uint16","name":"houseEdgeBps","type":"uint16"},{"internalType":"bool","name":"paused","type":"bool"}],"stateMutability":"view","type":"function"},{"inputs":[],"name":"gameCounter","outputs":[{"internalType":"uint256","name":"","type":"uint256"}],"stateMutability":"view","type":"function"},{"inputs":[{"internalType":"uint256","name":"","type":"uint256"}],"name":"games","outputs":[{"internalType":"address","name":"player","type":"address"},{"internalType":"uint256","name":"betAmount","type":"uint256"},{"internalType":"uint256","name":"gameId","type":"uint256"},{"internalType":"uint256","name":"timestamp","type":"uint256"},{"internalType":"bool","name":"settled","type":"bool"},{"internalType":"uint256","name":"result","type":"uint256"},{"internalType":"uint256","name":"payout","type":"uint256"}],"stateMutability":"view","type":"function"},{"inputs":[{"internalType":"address","name":"treasury","type":"address"},{"internalType":"uint256","name":"minBet","type":"uint256"},{"internalType":"uint256","name":"maxBet","type":"uint256"},{"internalType":"uint16","name":"houseEdgeBps","type":"uint16"}],"name":"initialize","outputs":[],"stateMutability":"nonpayable","type":"function"},{"inputs":[],"name":"owner","outputs":[{"internalType":"address","name":"","type":"address"}],"stateMutability":"view","type":"function"},{"inputs":[],"name":"pause","outputs":[],"stateMutability":"nonpayable","type":"function"},{"inputs":[],"name":"renounceOwnership","outputs":[],"stateMutability":"nonpayable","type":"function"},{"inputs":[{"internalType":"uint256","name":"betAmount","type":"uint256"}],"name":"spin","outputs":[],"stateMutability":"payable","type":"function"},{"inputs":[],"name":"token","outputs":[{"internalType":"address","name":"","type":"address"}],"stateMutability":"view","type":"function"},{"inputs":[{"internalType":"address","name":"newOwner","type":"address"}],"name":"transferOwnership","outputs":[],"stateMutability":"nonpayable","type":"function"},{"inputs":[],"name":"unpause","outputs":[],"stateMutability":"nonpayable","type":"function"}],"evm":{"bytecode":{"linkReferences":{},"object":"6080346100d857601f610b7c38819003918201601f19168301916001600160401b038311848410176100dd5780849260409485528339810103126100d857610052602061004b836100f3565b92016100f3565b906001600160a01b039081169081156100bf576000549260018060a01b03199280848616176000558260405195167f8be0079c531659141344cd1fd0a4f28419497f9722a3daafe3b4186f6b6457e0600080a36001805516906008541617600855610a7490816101088239f35b604051631e4fbdf760e01b815260006004820152602490fd5b600080fd5b634e487b7160e01b600052604160045260246000fd5b51906001600160a01b03821682036100d85756fe608080604052600436101561001357600080fd5b600090813560e01c908163117a5b9014610853575080632e0be39a146108355780633f4ba83a1461080d578063715018a6146107b357806379502c55146107635780638456cb59146107365780638da5cb5b1461070f578063a5b6ea8f1461021d578063cbb6d6bd14610150578063f2fde38b146100c55763fc0c546a1461009a57600080fd5b346100c257806003193601126100c2576008546040516001600160a01b039091168152602090f35b80fd5b50346100c25760203660031901126100c2576100df6108cd565b6100e7610926565b6001600160a01b0390811690811561013757600054826001600160601b0360a01b821617600055167f8be0079c531659141344cd1fd0a4f28419497f9722a3daafe3b4186f6b6457e0600080a380f35b604051631e4fbdf760e01b815260048101849052602490fd5b50346100c25760803660031901126100c25761016a6108cd565b602435604435906064359261ffff841680940361021957610189610926565b6040519060a0820182811067ffffffffffffffff82111761020357869160809160405260018060a01b03169283815284602082015285604082015286606082015201526001600160601b0360a01b60025416176002556003556004556005549062ff000083151560101b169162ffffff1916171760055580f35b634e487b7160e01b600052604160045260246000fd5b8480fd5b5060203660031901126100c2576002600154146106fd57600260015560ff60055460101c166106ca5760035460045490600435106106b857600435116106a6576008546001600160a01b031680610610575060043534036105d9578080808060043560018060a01b03600254165af13d156105d4573d67ffffffffffffffff81116105c057604051906102ba601f8201601f191660200183610904565b81528260203d92013e5b15610589575b60405160208101904282524460408201523360601b6060820152605481526102f1816108e8565b5190206102fd81610952565b90600181018082116105755761031290610952565b90600281018091116105755761032960ff91610952565b1661033b8160ff841660ff861661097f565b61035761035f61ffff6005541692612710928391600435610a15565b049283610a15565b04908082810311610561578181036104bc575b6007549260001984146104a857600184016007556040518060e081011067ffffffffffffffff60e083011117610203576001958160e060ff9301604052338152600435602082015287870160408201524260608201528760808201528361ff008360081b1662ff00008b60101b16171760a0820152600660c0820187870381528989018c528160205260a060408d20938b80831b038151166001600160601b03831b86541617855560208101518c860155604081015160028601556060810151600386015560048501608082015115158880198354169116179055015160058401555191015581604051986004358a52166020890152166040870152606086015203608084015201907facb74f159b50d2ac1bcd33a514d24357de007dcc8884e80a858496fcd99f99d860a03392a36001805580f35b634e487b7160e01b87526011600452602487fd5b60025460085487916001600160a01b039081169116813b1561055d5760405163a00c695160e01b81526001600160a01b03919091166004820152336024820152848403604482015291908290606490829084905af1801561055257610522575b50610372565b67ffffffffffffffff819792971161053e57604052943861051c565b634e487b7160e01b82526041600452602482fd5b6040513d89823e3d90fd5b8280fd5b634e487b7160e01b86526011600452602486fd5b634e487b7160e01b84526011600452602484fd5b60405162461bcd60e51b815260206004820152600f60248201526e151c985b9cd9995c8819985a5b1959608a1b6044820152606490fd5b634e487b7160e01b83526041600452602483fd5b6102c4565b60405162461bcd60e51b815260206004820152600f60248201526e082dadeeadce840dad2e6dac2e8c6d608b1b6044820152606490fd5b6002546040516323b872dd60e01b60208083019182523360248401526001600160a01b03909316604483015260043560648084019190915282528491610657608482610904565b519082855af1156106995781513d6106905750803b155b61067857506102ca565b60249060405190635274afe760e01b82526004820152fd5b6001141561066e565b50604051903d90823e3d90fd5b604051631765320160e11b8152600490fd5b60405163989e301760e01b8152600490fd5b60405162461bcd60e51b815260206004820152600b60248201526a11d85b59481c185d5cd95960aa1b6044820152606490fd5b604051633ee5aeb560e01b8152600490fd5b50346100c257806003193601126100c257546040516001600160a01b039091168152602090f35b50346100c257806003193601126100c25761074f610926565b6201000062ff000019600554161760055580f35b50346100c257806003193601126100c25760a0600180821b036002541660ff600354600454600554916040519485526020850152604084015261ffff8116606084015260101c1615156080820152f35b50346100c257806003193601126100c2576107cc610926565b80546001600160a01b03198116825581906001600160a01b03167f8be0079c531659141344cd1fd0a4f28419497f9722a3daafe3b4186f6b6457e08280a380f35b50346100c257806003193601126100c257610826610926565b62ff0000196005541660055580f35b50346100c257806003193601126100c2576020600754604051908152f35b9050346108c95760203660031901126108c957604060e092600435815260066020522060018060a01b03815416906001810154600282015460038301549060ff60048501541692600660058601549501549587526020870152604086015260608501521515608084015260a083015260c0820152f35b5080fd5b600435906001600160a01b03821682036108e357565b600080fd5b6080810190811067ffffffffffffffff82111761020357604052565b90601f8019910116810190811067ffffffffffffffff82111761020357604052565b6000546001600160a01b0316330361093a57565b60405163118cdaa760e01b8152336004820152602490fd5b6007906040516020810191428352446040830152606082015260608152610978816108e8565b5190200690565b60ff908116911681811492908380610a09575b156109ce5750509050600681146109c657600581146109be576004146109b857614e2090565b61c35090565b50620186a090565b506203d09090565b83156109fc575b5082156109ef575b5050156109ea5761271090565b600090565b60ff1614905038806109dd565b60ff8216149250386109d5565b5060ff82168114610992565b81810292918115918404141715610a2857565b634e487b7160e01b600052601160045260246000fdfea2646970667358221220f6b1da5cc858f4d40d4085461d4a9aabab51468b9c977648d5c5befb62b79f3964736f6c63430008180033","opcodes":"PUSH1 0x80 CALLVALUE PUSH2 0xD8 JUMPI PUSH1 0x1F PUSH2 0xB7C CODESIZE DUP2 SWAP1 SUB SWAP2 DUP3 ADD PUSH1 0x1F NOT AND DUP4 ADD SWAP2 PUSH1 0x1 PUSH1 0x1 PUSH1 0x40 SHL SUB DUP4 GT DUP5 DUP5 LT OR PUSH2 0xDD JUMPI DUP1 DUP5 SWAP3 PUSH1 0x40 SWAP5 DUP6 MSTORE DUP4 CODECOPY DUP2 ADD SUB SLT PUSH2 0xD8 JUMPI PUSH2 0x52 PUSH1 0x20 PUSH2 0x4B DUP4 PUSH2 0xF3 JUMP JUMPDEST SWAP3 ADD PUSH2 0xF3 JUMP JUMPDEST SWAP1 PUSH1 0x1 PUSH1 0x1 PUSH1 0xA0 SHL SUB SWAP1 DUP2 AND SWAP1 DUP2 ISZERO PUSH2 0xBF JUMPI PUSH1 0x0 SLOAD SWAP3 PUSH1 0x1 DUP1 PUSH1 0xA0 SHL SUB NOT SWAP3 DUP1 DUP5 DUP7 AND OR PUSH1 0x0 SSTORE DUP3 PUSH1 0x40 MLOAD SWAP6 AND PUSH32 0x8BE0079C531659141344CD1FD0A4F28419497F9722A3DAAFE3B4186F6B6457E0 PUSH1 0x0 DUP1 LOG3 PUSH1 0x1 DUP1 SSTORE AND SWAP1 PUSH1 0x8 SLOAD AND OR PUSH1 0x8 SSTORE PUSH2 0xA74 SWAP1 DUP2 PUSH2 0x108 DUP3 CODECOPY RETURN JUMPDEST PUSH1 0x40 MLOAD PUSH4 0x1E4FBDF7 PUSH1 0xE0 SHL DUP2 MSTORE PUSH1 0x0 PUSH1 0x4 DUP3 ADD MSTORE PUSH1 0x24 SWAP1 REVERT JUMPDEST PUSH1 0x0 DUP1 REVERT JUMPDEST PUSH4 0x4E487B71 PUSH1 0xE0 SHL PUSH1 0x0 MSTORE PUSH1 0x41 PUSH1 0x4 MSTORE PUSH1 0x24 PUSH1 0x0 REVERT JUMPDEST MLOAD SWAP1 PUSH1 0x1 PUSH1 0x1 PUSH1 0xA0 SHL SUB DUP3 AND DUP3 SUB PUSH2 0xD8 JUMPI JUMP INVALID PUSH1 0x80 DUP1 PUSH1 0x40 MSTORE PUSH1 0x4 CALLDATASIZE LT ISZERO PUSH2 0x13 JUMPI PUSH1 0x0 DUP1 REVERT JUMPDEST PUSH1 0x0 SWAP1 DUP2 CALLDATALOAD PUSH1 0xE0 SHR SWAP1 DUP2 PUSH4 0x117A5B90 EQ PUSH2 0x853 JUMPI POP DUP1 PUSH4 0x2E0BE39A EQ PUSH2 0x835 JUMPI DUP1 PUSH4 0x3F4BA83A EQ PUSH2 0x80D JUMPI DUP1 PUSH4 0x715018A6 EQ PUSH2 0x7B3 JUMPI DUP1 PUSH4 0x79502C55 EQ PUSH2 0x763 JUMPI DUP1 PUSH4 0x8456CB59 EQ PUSH2 0x736 JUMPI DUP1 PUSH4 0x8DA5CB5B EQ PUSH2 0x70F JUMPI DUP1 PUSH4 0xA5B6EA8F EQ PUSH2 0x21D JUMPI DUP1 PUSH4 0xCBB6D6BD EQ PUSH2 0x150 JUMPI DUP1 PUSH4 0xF2FDE38B EQ PUSH2 0xC5 JUMPI PUSH4 0xFC0C546A EQ PUSH2 0x9A JUMPI PUSH1 0x0 DUP1 REVERT JUMPDEST CALLVALUE PUSH2 0xC2 JUMPI DUP1 PUSH1 0x3 NOT CALLDATASIZE ADD SLT PUSH2 0xC2 JUMPI PUSH1 0x8 SLOAD PUSH1 0x40 MLOAD PUSH1 0x1 PUSH1 0x1 PUSH1 0xA0 SHL SUB SWAP1 SWAP2 AND DUP2 MSTORE PUSH1 0x20 SWAP1 RETURN JUMPDEST DUP1 REVERT JUMPDEST POP CALLVALUE PUSH2 0xC2 JUMPI PUSH1 0x20 CALLDATASIZE PUSH1 0x3 NOT ADD SLT PUSH2 0xC2 JUMPI PUSH2 0xDF PUSH2 0x8CD JUMP JUMPDEST PUSH2 0xE7 PUSH2 0x926 JUMP JUMPDEST PUSH1 0x1 PUSH1 0x1 PUSH1 0xA0 SHL SUB SWAP1 DUP2 AND SWAP1 DUP2 ISZERO PUSH2 0x137 JUMPI PUSH1 0x0 SLOAD DUP3 PUSH1 0x1 PUSH1 0x1 PUSH1 0x60 SHL SUB PUSH1 0xA0 SHL DUP3 AND OR PUSH1 0x0 SSTORE AND PUSH32 0x8BE0079C531659141344CD1FD0A4F28419497F9722A3DAAFE3B4186F6B6457E0 PUSH1 0x0 DUP1 LOG3 DUP1 RETURN JUMPDEST PUSH1 0x40 MLOAD PUSH4 0x1E4FBDF7 PUSH1 0xE0 SHL DUP2 MSTORE PUSH1 0x4 DUP2 ADD DUP5 SWAP1 MSTORE PUSH1 0x24 SWAP1 REVERT JUMPDEST POP CALLVALUE PUSH2 0xC2 JUMPI PUSH1 0x80 CALLDATASIZE PUSH1 0x3 NOT ADD SLT PUSH2 0xC2 JUMPI PUSH2 0x16A PUSH2 0x8CD JUMP JUMPDEST PUSH1 0x24 CALLDATALOAD PUSH1 0x44 CALLDATALOAD SWAP1 PUSH1 0x64 CALLDATALOAD SWAP3 PUSH2 0xFFFF DUP5 AND DUP1 SWAP5 SUB PUSH2 0x219 JUMPI PUSH2 0x189 PUSH2 0x926 JUMP JUMPDEST PUSH1 0x40 MLOAD SWAP1 PUSH1 0xA0 DUP3 ADD DUP3 DUP2 LT PUSH8 0xFFFFFFFFFFFFFFFF DUP3 GT OR PUSH2 0x203 JUMPI DUP7 SWAP2 PUSH1 0x80 SWAP2 PUSH1 0x40 MSTORE PUSH1 0x1 DUP1 PUSH1 0xA0 SHL SUB AND SWAP3 DUP4 DUP2 MSTORE DUP5 PUSH1 0x20 DUP3 ADD MSTORE DUP6 PUSH1 0x40 DUP3 ADD MSTORE DUP7 PUSH1 0x60 DUP3 ADD MSTORE ADD MSTORE PUSH1 0x1 PUSH1 0x1 PUSH1 0x60 SHL SUB PUSH1 0xA0 SHL PUSH1 0x2 SLOAD AND OR PUSH1 0x2 SSTORE PUSH1 0x3 SSTORE PUSH1 0x4 SSTORE PUSH1 0x5 SLOAD SWAP1 PUSH3 0xFF0000 DUP4 ISZERO ISZERO PUSH1 0x10 SHL AND SWAP2 PUSH3 0xFFFFFF NOT AND OR OR PUSH1 0x5 SSTORE DUP1 RETURN JUMPDEST PUSH4 0x4E487B71 PUSH1 0xE0 SHL PUSH1 0x0 MSTORE PUSH1 0x41 PUSH1 0x4 MSTORE PUSH1 0x24 PUSH1 0x0 REVERT JUMPDEST DUP5 DUP1 REVERT JUMPDEST POP PUSH1 0x20 CALLDATASIZE PUSH1 0x3 NOT ADD SLT PUSH2 0xC2 JUMPI PUSH1 0x2 PUSH1 0x1 SLOAD EQ PUSH2 0x6FD JUMPI PUSH1 0x2 PUSH1 0x1 SSTORE PUSH1 0xFF PUSH1 0x5 SLOAD PUSH1 0x10 SHR AND PUSH2 0x6CA JUMPI PUSH1 0x3 SLOAD PUSH1 0x4 SLOAD SWAP1 PUSH1 0x4 CALLDATALOAD LT PUSH2 0x6B8 JUMPI PUSH1 0x4 CALLDATALOAD GT PUSH2 0x6A6 JUMPI PUSH1 0x8 SLOAD PUSH1 0x1 PUSH1 0x1 PUSH1 0xA0 SHL SUB AND DUP1 PUSH2 0x610 JUMPI POP PUSH1 0x4 CALLDATALOAD CALLVALUE SUB PUSH2 0x5D9 JUMPI DUP1 DUP1 DUP1 DUP1 PUSH1 0x4 CALLDATALOAD PUSH1 0x1 DUP1 PUSH1 0xA0 SHL SUB PUSH1 0x2 SLOAD AND GAS CALL RETURNDATASIZE ISZERO PUSH2 0x5D4 JUMPI RETURNDATASIZE PUSH8 0xFFFFFFFFFFFFFFFF DUP2 GT PUSH2 0x5C0 JUMPI PUSH1 0x40 MLOAD SWAP1 PUSH2 0x2BA PUSH1 0x1F DUP3 ADD PUSH1 0x1F NOT AND PUSH1 0x20 ADD DUP4 PUSH2 0x904 JUMP JUMPDEST DUP2 MSTORE DUP3 PUSH1 0x20 RETURNDATASIZE SWAP3 ADD RETURNDATACOPY JUMPDEST ISZERO PUSH2 0x589 JUMPI JUMPDEST PUSH1 0x40 MLOAD PUSH1 0x20 DUP2 ADD SWAP1 TIMESTAMP DUP3 MSTORE PREVRANDAO PUSH1 0x40 DUP3 ADD MSTORE CALLER PUSH1 0x60 SHL PUSH1 0x60 DUP3 ADD MSTORE PUSH1 0x54 DUP2 MSTORE PUSH2 0x2F1 DUP2 PUSH2 0x8E8 JUMP JUMPDEST MLOAD SWAP1 KECCAK256 PUSH2 0x2FD DUP2 PUSH2 0x952 JUMP JUMPDEST SWAP1 PUSH1 0x1 DUP2 ADD DUP1 DUP3 GT PUSH2 0x575 JUMPI PUSH2 0x312 SWAP1 PUSH2 0x952 JUMP JUMPDEST SWAP1 PUSH1 0x2 DUP2 ADD DUP1 SWAP2 GT PUSH2 0x575 JUMPI PUSH2 0x329 PUSH1 0xFF SWAP2 PUSH2 0x952 JUMP JUMPDEST AND PUSH2 0x33B DUP2 PUSH1 0xFF DUP5 AND PUSH1 0xFF DUP7 AND PUSH2 0x97F JUMP JUMPDEST PUSH2 0x357 PUSH2 0x35F PUSH2 0xFFFF PUSH1 0x5 SLOAD AND SWAP3 PUSH2 0x2710 SWAP3 DUP4 SWAP2 PUSH1 0x4 CALLDATALOAD PUSH2 0xA15 JUMP JUMPDEST DIV SWAP3 DUP4 PUSH2 0xA15 JUMP JUMPDEST DIV SWAP1 DUP1 DUP3 DUP2 SUB GT PUSH2 0x561 JUMPI DUP2 DUP2 SUB PUSH2 0x4BC JUMPI JUMPDEST PUSH1 0x7 SLOAD SWAP3 PUSH1 0x0 NOT DUP5 EQ PUSH2 0x4A8 JUMPI PUSH1 0x1 DUP5 ADD PUSH1 0x7 SSTORE PUSH1 0x40 MLOAD DUP1 PUSH1 0xE0 DUP2 ADD LT PUSH8 0xFFFFFFFFFFFFFFFF PUSH1 0xE0 DUP4 ADD GT OR PUSH2 0x203 JUMPI PUSH1 0x1 SWAP6 DUP2 PUSH1 0xE0 PUSH1 0xFF SWAP4 ADD PUSH1 0x40 MSTORE CALLER DUP2 MSTORE PUSH1 0x4 CALLDATALOAD PUSH1 0x20 DUP3 ADD MSTORE DUP8 DUP8 ADD PUSH1 0x40 DUP3 ADD MSTORE TIMESTAMP PUSH1 0x60 DUP3 ADD MSTORE DUP8 PUSH1 0x80 DUP3 ADD MSTORE DUP4 PUSH2 0xFF00 DUP4 PUSH1 0x8 SHL AND PUSH3 0xFF0000 DUP12 PUSH1 0x10 SHL AND OR OR PUSH1 0xA0 DUP3 ADD MSTORE PUSH1 0x6 PUSH1 0xC0 DUP3 ADD DUP8 DUP8 SUB DUP2 MSTORE DUP10 DUP10 ADD DUP13 MSTORE DUP2 PUSH1 0x20 MSTORE PUSH1 0xA0 PUSH1 0x40 DUP14 KECCAK256 SWAP4 DUP12 DUP1 DUP4 SHL SUB DUP2 MLOAD AND PUSH1 0x1 PUSH1 0x1 PUSH1 0x60 SHL SUB DUP4 SHL DUP7 SLOAD AND OR DUP6 SSTORE PUSH1 0x20 DUP2 ADD MLOAD DUP13 DUP7 ADD SSTORE PUSH1 0x40 DUP2 ADD MLOAD PUSH1 0x2 DUP7 ADD SSTORE PUSH1 0x60 DUP2 ADD MLOAD PUSH1 0x3 DUP7 ADD SSTORE PUSH1 0x4 DUP6 ADD PUSH1 0x80 DUP3 ADD MLOAD ISZERO ISZERO DUP9 DUP1 NOT DUP4 SLOAD AND SWAP2 AND OR SWAP1 SSTORE ADD MLOAD PUSH1 0x5 DUP5 ADD SSTORE MLOAD SWAP2 ADD SSTORE DUP2 PUSH1 0x40 MLOAD SWAP9 PUSH1 0x4 CALLDATALOAD DUP11 MSTORE AND PUSH1 0x20 DUP10 ADD MSTORE AND PUSH1 0x40 DUP8 ADD MSTORE PUSH1 0x60 DUP7 ADD MSTORE SUB PUSH1 0x80 DUP5 ADD MSTORE ADD SWAP1 PUSH32 0xACB74F159B50D2AC1BCD33A514D24357DE007DCC8884E80A858496FCD99F99D8 PUSH1 0xA0 CALLER SWAP3 LOG3 PUSH1 0x1 DUP1 SSTORE DUP1 RETURN JUMPDEST PUSH4 0x4E487B71 PUSH1 0xE0 SHL DUP8 MSTORE PUSH1 0x11 PUSH1 0x4 MSTORE PUSH1 0x24 DUP8 REVERT JUMPDEST PUSH1 0x2 SLOAD PUSH1 0x8 SLOAD DUP8 SWAP2 PUSH1 0x1 PUSH1 0x1 PUSH1 0xA0 SHL SUB SWAP1 DUP2 AND SWAP2 AND DUP2 EXTCODESIZE ISZERO PUSH2 0x55D JUMPI PUSH1 0x40 MLOAD PUSH4 0xA00C6951 PUSH1 0xE0 SHL DUP2 MSTORE PUSH1 0x1 PUSH1 0x1 PUSH1 0xA0 SHL SUB SWAP2 SWAP1 SWAP2 AND PUSH1 0x4 DUP3 ADD MSTORE CALLER PUSH1 0x24 DUP3 ADD MSTORE DUP5 DUP5 SUB PUSH1 0x44 DUP3 ADD MSTORE SWAP2 SWAP1 DUP3 SWAP1 PUSH1 0x64 SWAP1 DUP3 SWAP1 DUP5 SWAP1 GAS CALL DUP1 ISZERO PUSH2 0x552 JUMPI PUSH2 0x522 JUMPI JUMPDEST POP PUSH2 0x372 JUMP JUMPDEST PUSH8 0xFFFFFFFFFFFFFFFF DUP2 SWAP8 SWAP3 SWAP8 GT PUSH2 0x53E JUMPI PUSH1 0x40 MSTORE SWAP5 CODESIZE PUSH2 0x51C JUMP JUMPDEST PUSH4 0x4E487B71 PUSH1 0xE0 SHL DUP3 MSTORE PUSH1 0x41 PUSH1 0x4 MSTORE PUSH1 0x24 DUP3 REVERT JUMPDEST PUSH1 0x40 MLOAD RETURNDATASIZE DUP10 DUP3 RETURNDATACOPY RETURNDATASIZE SWAP1 REVERT JUMPDEST DUP3 DUP1 REVERT JUMPDEST PUSH4 0x4E487B71 PUSH1 0xE0 SHL DUP7 MSTORE PUSH1 0x11 PUSH1 0x4 MSTORE PUSH1 0x24 DUP7 REVERT JUMPDEST PUSH4 0x4E487B71 PUSH1 0xE0 SHL DUP5 MSTORE PUSH1 0x11 PUSH1 0x4 MSTORE PUSH1 0x24 DUP5 REVERT JUMPDEST PUSH1 0x40 MLOAD PUSH3 0x461BCD PUSH1 0xE5 SHL DUP2 MSTORE PUSH1 0x20 PUSH1 0x4 DUP3 ADD MSTORE PUSH1 0xF PUSH1 0x24 DUP3 ADD MSTORE PUSH15 0x151C985B9CD9995C8819985A5B1959 PUSH1 0x8A SHL PUSH1 0x44 DUP3 ADD MSTORE PUSH1 0x64 SWAP1 REVERT JUMPDEST PUSH4 0x4E487B71 PUSH1 0xE0 SHL DUP4 MSTORE PUSH1 0x41 PUSH1 0x4 MSTORE PUSH1 0x24 DUP4 REVERT JUMPDEST PUSH2 0x2C4 JUMP JUMPDEST PUSH1 0x40 MLOAD PUSH3 0x461BCD PUSH1 0xE5 SHL DUP2 MSTORE PUSH1 0x20 PUSH1 0x4 DUP3 ADD MSTORE PUSH1 0xF PUSH1 0x24 DUP3 ADD MSTORE PUSH15 0x82DADEEADCE840DAD2E6DAC2E8C6D PUSH1 0x8B SHL PUSH1 0x44 DUP3 ADD MSTORE PUSH1 0x64 SWAP1 REVERT JUMPDEST PUSH1 0x2 SLOAD PUSH1 0x40 MLOAD PUSH4 0x23B872DD PUSH1 0xE0 SHL PUSH1 0x20 DUP1 DUP4 ADD SWAP2 DUP3 MSTORE CALLER PUSH1 0x24 DUP5 ADD MSTORE PUSH1 0x1 PUSH1 0x1 PUSH1 0xA0 SHL SUB SWAP1 SWAP4 AND PUSH1 0x44 DUP4 ADD MSTORE PUSH1 0x4 CALLDATALOAD PUSH1 0x64 DUP1 DUP5 ADD SWAP2 SWAP1 SWAP2 MSTORE DUP3 MSTORE DUP5 SWAP2 PUSH2 0x657 PUSH1 0x84 DUP3 PUSH2 0x904 JUMP JUMPDEST MLOAD SWAP1 DUP3 DUP6 GAS CALL ISZERO PUSH2 0x699 JUMPI DUP2 MLOAD RETURNDATASIZE PUSH2 0x690 JUMPI POP DUP1 EXTCODESIZE ISZERO JUMPDEST PUSH2 0x678 JUMPI POP PUSH2 0x2CA JUMP JUMPDEST PUSH1 0x24 SWAP1 PUSH1 0x40 MLOAD SWAP1 PUSH4 0x5274AFE7 PUSH1 0xE0 SHL DUP3 MSTORE PUSH1 0x4 DUP3 ADD MSTORE REVERT JUMPDEST PUSH1 0x1 EQ ISZERO PUSH2 0x66E JUMP JUMPDEST POP PUSH1 0x40 MLOAD SWAP1 RETURNDATASIZE SWAP1 DUP3 RETURNDATACOPY RETURNDATASIZE SWAP1 REVERT JUMPDEST PUSH1 0x40 MLOAD PUSH4 0x17653201 PUSH1 0xE1 SHL DUP2 MSTORE PUSH1 0x4 SWAP1 REVERT JUMPDEST PUSH1 0x40 MLOAD PUSH4 0x989E3017 PUSH1 0xE0 SHL DUP2 MSTORE PUSH1 0x4 SWAP1 REVERT JUMPDEST PUSH1 0x40 MLOAD PUSH3 0x461BCD PUSH1 0xE5 SHL DUP2 MSTORE PUSH1 0x20 PUSH1 0x4 DUP3 ADD MSTORE PUSH1 0xB PUSH1 0x24 DUP3 ADD MSTORE PUSH11 0x11D85B59481C185D5CD959 PUSH1 0xAA SHL PUSH1 0x44 DUP3 ADD MSTORE PUSH1 0x64 SWAP1 REVERT JUMPDEST PUSH1 0x40 MLOAD PUSH4 0x3EE5AEB5 PUSH1 0xE0 SHL DUP2 MSTORE PUSH1 0x4 SWAP1 REVERT JUMPDEST POP CALLVALUE PUSH2 0xC2 JUMPI DUP1 PUSH1 0x3 NOT CALLDATASIZE ADD SLT PUSH2 0xC2 JUMPI SLOAD PUSH1 0x40 MLOAD PUSH1 0x1 PUSH1 0x1 PUSH1 0xA0 SHL SUB SWAP1 SWAP2 AND DUP2 MSTORE PUSH1 0x20 SWAP1 RETURN JUMPDEST POP CALLVALUE PUSH2 0xC2 JUMPI DUP1 PUSH1 0x3 NOT CALLDATASIZE ADD SLT PUSH2 0xC2 JUMPI PUSH2 0x74F PUSH2 0x926 JUMP JUMPDEST PUSH3 0x10000 PUSH3 0xFF0000 NOT PUSH1 0x5 SLOAD AND OR PUSH1 0x5 SSTORE DUP1 RETURN JUMPDEST POP CALLVALUE PUSH2 0xC2 JUMPI DUP1 PUSH1 0x3 NOT CALLDATASIZE ADD SLT PUSH2 0xC2 JUMPI PUSH1 0xA0 PUSH1 0x1 DUP1 DUP3 SHL SUB PUSH1 0x2 SLOAD AND PUSH1 0xFF PUSH1 0x3 SLOAD PUSH1 0x4 SLOAD PUSH1 0x5 SLOAD SWAP2 PUSH1 0x40 MLOAD SWAP5 DUP6 MSTORE PUSH1 0x20 DUP6 ADD MSTORE PUSH1 0x40 DUP5 ADD MSTORE PUSH2 0xFFFF DUP2 AND PUSH1 0x60 DUP5 ADD MSTORE PUSH1 0x10 SHR AND ISZERO ISZERO PUSH1 0x80 DUP3 ADD MSTORE RETURN JUMPDEST POP CALLVALUE PUSH2 0xC2 JUMPI DUP1 PUSH1 0x3 NOT CALLDATASIZE ADD SLT PUSH2 0xC2 JUMPI PUSH2 0x7CC PUSH2 0x926 JUMP JUMPDEST DUP1 SLOAD PUSH1 0x1 PUSH1 0x1 PUSH1 0xA0 SHL SUB NOT DUP2 AND DUP3 SSTORE DUP2 SWAP1 PUSH1 0x1 PUSH1 0x1 PUSH1 0xA0 SHL SUB AND PUSH32 0x8BE0079C531659141344CD1FD0A4F28419497F9722A3DAAFE3B4186F6B6457E0 DUP3 DUP1 LOG3 DUP1 RETURN JUMPDEST POP CALLVALUE PUSH2 0xC2 JUMPI DUP1 PUSH1 0x3 NOT CALLDATASIZE ADD SLT PUSH2 0xC2 JUMPI PUSH2 0x826 PUSH2 0x926 JUMP JUMPDEST PUSH3 0xFF0000 NOT PUSH1 0x5 SLOAD AND PUSH1 0x5 SSTORE DUP1 RETURN JUMPDEST POP CALLVALUE PUSH2 0xC2 JUMPI DUP1 PUSH1 0x3 NOT CALLDATASIZE ADD SLT PUSH2 0xC2 JUMPI PUSH1 0x20 PUSH1 0x7 SLOAD PUSH1 0x40 MLOAD SWAP1 DUP2 MSTORE RETURN JUMPDEST SWAP1 POP CALLVALUE PUSH2 0x8C9 JUMPI PUSH1 0x20 CALLDATASIZE PUSH1 0x3 NOT ADD SLT PUSH2 0x8C9 JUMPI PUSH1 0x40 PUSH1 0xE0 SWAP3 PUSH1 0x4 CALLDATALOAD DUP2 MSTORE PUSH1 0x6 PUSH1 0x20 MSTORE KECCAK256 PUSH1 0x1 DUP1 PUSH1 0xA0 SHL SUB DUP2 SLOAD AND SWAP1 PUSH1 0x1 DUP2 ADD SLOAD PUSH1 0x2 DUP3 ADD SLOAD PUSH1 0x3 DUP4 ADD SLOAD SWAP1 PUSH1 0xFF PUSH1 0x4 DUP6 ADD SLOAD AND SWAP3 PUSH1 0x6 PUSH1 0x5 DUP7 ADD SLOAD SWAP6 ADD SLOAD SWAP6 DUP8 MSTORE PUSH1 0x20 DUP8 ADD MSTORE PUSH1 0x40 DUP7 ADD MSTORE PUSH1 0x60 DUP6 ADD MSTORE ISZERO ISZERO PUSH1 0x80 DUP5 ADD MSTORE PUSH1 0xA0 DUP4 ADD MSTORE PUSH1 0xC0 DUP3 ADD MSTORE RETURN JUMPDEST POP DUP1 REVERT JUMPDEST PUSH1 0x4 CALLDATALOAD SWAP1 PUSH1 0x1 PUSH1 0x1 PUSH1 0xA0 SHL SUB DUP3 AND DUP3 SUB PUSH2 0x8E3 JUMPI JUMP JUMPDEST PUSH1 0x0 DUP1 REVERT JUMPDEST PUSH1 0x80 DUP2 ADD SWAP1 DUP2 LT PUSH8 0xFFFFFFFFFFFFFFFF DUP3 GT OR PUSH2 0x203 JUMPI PUSH1 0x40 MSTORE JUMP JUMPDEST SWAP1 PUSH1 0x1F DUP1 NOT SWAP2 ADD AND DUP2 ADD SWAP1 DUP2 LT PUSH8 0xFFFFFFFFFFFFFFFF DUP3 GT OR PUSH2 0x203 JUMPI PUSH1 0x40 MSTORE JUMP JUMPDEST PUSH1 0x0 SLOAD PUSH1 0x1 PUSH1 0x1 PUSH1 0xA0 SHL SUB AND CALLER SUB PUSH2 0x93A JUMPI JUMP JUMPDEST PUSH1 0x40 MLOAD PUSH4 0x118CDAA7 PUSH1 0xE0 SHL DUP2 MSTORE CALLER PUSH1 0x4 DUP3 ADD MSTORE PUSH1 0x24 SWAP1 REVERT JUMPDEST PUSH1 0x7 SWAP1 PUSH1 0x40 MLOAD PUSH1 0x20 DUP2 ADD SWAP2 TIMESTAMP DUP4 MSTORE PREVRANDAO PUSH1 0x40 DUP4 ADD MSTORE PUSH1 0x60 DUP3 ADD MSTORE PUSH1 0x60 DUP2 MSTORE PUSH2 0x978 DUP2 PUSH2 0x8E8 JUMP JUMPDEST MLOAD SWAP1 KECCAK256 MOD SWAP1 JUMP JUMPDEST PUSH1 0xFF SWAP1 DUP2 AND SWAP2 AND DUP2 DUP2 EQ SWAP3 SWAP1 DUP4 DUP1 PUSH2 0xA09 JUMPI JUMPDEST ISZERO PUSH2 0x9CE JUMPI POP POP SWAP1 POP PUSH1 0x6 DUP2 EQ PUSH2 0x9C6 JUMPI PUSH1 0x5 DUP2 EQ PUSH2 0x9BE JUMPI PUSH1 0x4 EQ PUSH2 0x9B8 JUMPI PUSH2 0x4E20 SWAP1 JUMP JUMPDEST PUSH2 0xC350 SWAP1 JUMP JUMPDEST POP PUSH3 0x186A0 SWAP1 JUMP JUMPDEST POP PUSH3 0x3D090 SWAP1 JUMP JUMPDEST DUP4 ISZERO PUSH2 0x9FC JUMPI JUMPDEST POP DUP3 ISZERO PUSH2 0x9EF JUMPI JUMPDEST POP POP ISZERO PUSH2 0x9EA JUMPI PUSH2 0x2710 SWAP1 JUMP JUMPDEST PUSH1 0x0 SWAP1 JUMP JUMPDEST PUSH1 0xFF AND EQ SWAP1 POP CODESIZE DUP1 PUSH2 0x9DD JUMP JUMPDEST PUSH1 0xFF DUP3 AND EQ SWAP3 POP CODESIZE PUSH2 0x9D5 JUMP JUMPDEST POP PUSH1 0xFF DUP3 AND DUP2 EQ PUSH2 0x992 JUMP JUMPDEST DUP2 DUP2 MUL SWAP3 SWAP2 DUP2 ISZERO SWAP2 DUP5 DIV EQ OR ISZERO PUSH2 0xA28 JUMPI JUMP JUMPDEST PUSH4 0x4E487B71 PUSH1 0xE0 SHL PUSH1 0x0 MSTORE PUSH1 0x11 PUSH1 0x4 MSTORE PUSH1 0x24 PUSH1 0x0 REVERT INVALID LOG2 PUSH5 0x6970667358 0x22 SLT KECCAK256 0xF6 0xB1 0xDA TLOAD 0xC8 PC DELEGATECALL 0xD4 0xD BLOCKHASH DUP6 CHAINID SAR BLOBBASEFEE SWAP11 0xAB 0xAB MLOAD CHAINID DUP12 SWAP13 SWAP8 PUSH23 0x48D5C5BEFB62B79F3964736F6C63430008180033000000 "},"methodIdentifiers":{"config()":"79502c55","gameCounter()":"2e0be39a","games(uint256)":"117a5b90","initialize(address,uint256,uint256,uint16)":"cbb6d6bd","owner()":"8da5cb5b","pause()":"8456cb59","renounceOwnership()":"715018a6","spin(uint256)":"a5b6ea8f","token()":"fc0c546a","transferOwnership(address)":"f2fde38b","unpause()":"3f4ba83a"}}}}}