{"contracts/casino/CoinFlip.sol":{"CoinFlip":{"abi":[{"inputs":[{"internalType":"address","name":"_owner","type":"address"},{"internalType":"address","name":"_token","type":"address"},{"internalType":"address","name":"_pythVRF","type":"address"}],"stateMutability":"nonpayable","type":"constructor"},{"inputs":[],"name":"BetTooHigh","type":"error"},{"inputs":[],"name":"BetTooLow","type":"error"},{"inputs":[{"internalType":"address","name":"owner","type":"address"}],"name":"OwnableInvalidOwner","type":"error"},{"inputs":[{"internalType":"address","name":"account","type":"address"}],"name":"OwnableUnauthorizedAccount","type":"error"},{"inputs":[],"name":"ReentrancyGuardReentrantCall","type":"error"},{"inputs":[{"internalType":"address","name":"token","type":"address"}],"name":"SafeERC20FailedOperation","type":"error"},{"anonymous":false,"inputs":[{"indexed":true,"internalType":"uint256","name":"gameId","type":"uint256"},{"indexed":false,"internalType":"uint256","name":"result","type":"uint256"},{"indexed":false,"internalType":"uint256","name":"reward","type":"uint256"},{"indexed":false,"internalType":"uint8","name":"streak","type":"uint8"},{"indexed":false,"internalType":"uint256","name":"lootRarity","type":"uint256"}],"name":"GameSettled","type":"event"},{"anonymous":false,"inputs":[{"indexed":true,"internalType":"uint256","name":"gameId","type":"uint256"},{"indexed":true,"internalType":"address","name":"player","type":"address"}],"name":"GameStarted","type":"event"},{"anonymous":false,"inputs":[{"indexed":true,"internalType":"address","name":"previousOwner","type":"address"},{"indexed":true,"internalType":"address","name":"newOwner","type":"address"}],"name":"OwnershipTransferred","type":"event"},{"inputs":[],"name":"config","outputs":[{"internalType":"address","name":"treasury","type":"address"},{"internalType":"uint256","name":"minPlay","type":"uint256"},{"internalType":"uint256","name":"maxPlay","type":"uint256"},{"internalType":"uint16","name":"houseEdgeBps","type":"uint16"},{"internalType":"bool","name":"paused","type":"bool"}],"stateMutability":"view","type":"function"},{"inputs":[{"internalType":"bytes32","name":"requestId","type":"bytes32"},{"internalType":"uint256","name":"randomness","type":"uint256"}],"name":"fulfillRandomness","outputs":[],"stateMutability":"nonpayable","type":"function"},{"inputs":[],"name":"gameCounter","outputs":[{"internalType":"uint256","name":"","type":"uint256"}],"stateMutability":"view","type":"function"},{"inputs":[{"internalType":"uint256","name":"","type":"uint256"}],"name":"games","outputs":[{"internalType":"address","name":"player","type":"address"},{"internalType":"uint256","name":"gameId","type":"uint256"},{"internalType":"uint256","name":"result","type":"uint256"},{"internalType":"uint256","name":"reward","type":"uint256"},{"internalType":"uint8","name":"streak","type":"uint8"},{"internalType":"uint256","name":"lootRarity","type":"uint256"}],"stateMutability":"view","type":"function"},{"inputs":[{"internalType":"uint256","name":"gameId","type":"uint256"}],"name":"getGame","outputs":[{"components":[{"internalType":"address","name":"player","type":"address"},{"internalType":"uint256","name":"gameId","type":"uint256"},{"internalType":"uint256","name":"result","type":"uint256"},{"internalType":"uint256","name":"reward","type":"uint256"},{"internalType":"uint8","name":"streak","type":"uint8"},{"internalType":"uint256","name":"lootRarity","type":"uint256"}],"internalType":"struct CoinFlip.GameResult","name":"","type":"tuple"}],"stateMutability":"view","type":"function"},{"inputs":[{"internalType":"uint256","name":"gameId","type":"uint256"}],"name":"getPendingGame","outputs":[{"components":[{"internalType":"address","name":"player","type":"address"},{"internalType":"uint256","name":"amount","type":"uint256"},{"internalType":"uint8","name":"choice","type":"uint8"},{"internalType":"uint8","name":"streak","type":"uint8"},{"internalType":"uint256","name":"multiplierBps","type":"uint256"},{"internalType":"bool","name":"cashOut","type":"bool"}],"internalType":"struct CoinFlip.PendingGame","name":"","type":"tuple"}],"stateMutability":"view","type":"function"},{"inputs":[],"name":"getPrizePool","outputs":[{"internalType":"uint256","name":"","type":"uint256"}],"stateMutability":"view","type":"function"},{"inputs":[{"internalType":"address","name":"treasury","type":"address"},{"internalType":"uint256","name":"minPlay","type":"uint256"},{"internalType":"uint256","name":"maxPlay","type":"uint256"},{"internalType":"uint16","name":"houseEdgeBps","type":"uint16"}],"name":"initialize","outputs":[],"stateMutability":"nonpayable","type":"function"},{"inputs":[],"name":"owner","outputs":[{"internalType":"address","name":"","type":"address"}],"stateMutability":"view","type":"function"},{"inputs":[],"name":"pause","outputs":[],"stateMutability":"nonpayable","type":"function"},{"inputs":[{"internalType":"uint256","name":"","type":"uint256"}],"name":"pendingGames","outputs":[{"internalType":"address","name":"player","type":"address"},{"internalType":"uint256","name":"amount","type":"uint256"},{"internalType":"uint8","name":"choice","type":"uint8"},{"internalType":"uint8","name":"streak","type":"uint8"},{"internalType":"uint256","name":"multiplierBps","type":"uint256"},{"internalType":"bool","name":"cashOut","type":"bool"}],"stateMutability":"view","type":"function"},{"inputs":[{"internalType":"uint256","name":"amount","type":"uint256"},{"internalType":"uint8","name":"choice","type":"uint8"},{"internalType":"bool","name":"cashOut","type":"bool"}],"name":"play","outputs":[],"stateMutability":"payable","type":"function"},{"inputs":[],"name":"prizePool","outputs":[{"internalType":"uint256","name":"","type":"uint256"}],"stateMutability":"view","type":"function"},{"inputs":[],"name":"pythVRF","outputs":[{"internalType":"contract IPythVRF","name":"","type":"address"}],"stateMutability":"view","type":"function"},{"inputs":[],"name":"renounceOwnership","outputs":[],"stateMutability":"nonpayable","type":"function"},{"inputs":[{"internalType":"address","name":"_pythVRF","type":"address"}],"name":"setPythVRF","outputs":[],"stateMutability":"nonpayable","type":"function"},{"inputs":[],"name":"token","outputs":[{"internalType":"address","name":"","type":"address"}],"stateMutability":"view","type":"function"},{"inputs":[{"internalType":"address","name":"newOwner","type":"address"}],"name":"transferOwnership","outputs":[],"stateMutability":"nonpayable","type":"function"},{"inputs":[],"name":"unpause","outputs":[],"stateMutability":"nonpayable","type":"function"},{"inputs":[{"internalType":"bytes32","name":"","type":"bytes32"}],"name":"vrfRequestToGame","outputs":[{"internalType":"uint256","name":"","type":"uint256"}],"stateMutability":"view","type":"function"}],"evm":{"bytecode":{"linkReferences":{},"object":"6080346100f057601f61117538819003918201601f19168301916001600160401b038311848410176100f5578084926060946040528339810103126100f0576100478161010b565b61005f60406100586020850161010b565b930161010b565b6001600160a01b03918216919082156100d757816000549460018060a01b03199480868816176000558260405197167f8be0079c531659141344cd1fd0a4f28419497f9722a3daafe3b4186f6b6457e0600080a360018055168360075416176007551690600654161760065561105590816101208239f35b604051631e4fbdf760e01b815260006004820152602490fd5b600080fd5b634e487b7160e01b600052604160045260246000fd5b51906001600160a01b03821682036100f05756fe608060408181526004918236101561001657600080fd5b600092833560e01c918263117a5b9014610ea4575081631f1f897f14610a465781632e0be39a14610a275781633d598f80146109765781633f4ba83a1461094e578163579e94ee146108e0578163715018a614610886578163719ce73e1461077d578163772d84c41461085d57816379502c551461080c57816383ba98ae146107cc5781638456cb591461079c578163884bf67c1461077d5781638a7626d1146107555781638da5cb5b1461072d578163a2f77bcc14610685578163caf5082814610288578163cbb6d6bd146101bc578163f2fde38b1461012c575063fc0c546a1461010157600080fd5b3461012857816003193601126101285760075490516001600160a01b039091168152602090f35b5080fd5b9050346101b85760203660031901126101b857610147610f0f565b90610150610ff3565b6001600160a01b039182169283156101a2575050600054826001600160601b0360a01b821617600055167f8be0079c531659141344cd1fd0a4f28419497f9722a3daafe3b4186f6b6457e0600080a380f35b51631e4fbdf760e01b8152908101849052602490fd5b8280fd5b919050346101b85760803660031901126101b8576101d8610f0f565b91602435604435926064359461ffff8616809603610284576101f8610ff3565b81519060a0820182811067ffffffffffffffff82111761026f5783526001600160a01b03168082526020820184905291810185905260608101869052608001869052600280546001600160a01b0319169091179055600355556005805462ffffff191690911782151560101b62ff00001617905580f35b604186634e487b7160e01b6000525260246000fd5b8680fd5b8391506060366003190112610128578035602493843560ff811680910361068157604435928315158094036104a9576001946002865414610673576002865560ff60055460101c16610648578583116106155760035481549083106106065782116105f8576007546001600160a01b039081168061054e575082340361051a57610317600a8404600954610f2a565b600955878080808685600254165af13d15610515573d67ffffffffffffffff811161050357865190610353601f8201601f191660200183610f9f565b81528960203d92013e5b156104cf575b600854986000198a146104be57508688990195866008558883875161038781610f6d565b3381528960209889988984019081528b8401918252878c60608601978089526080870195614c2c875260a088019a8b528152600a8d52209451166001600160601b0360a01b855416178455518d84015560028301905160ff169460ff1995868354161782555160ff1661040a919061ff0082549160081b169061ff001916179055565b5160038201550191511515908254169060ff16179055600654169084518098819363f8413b0760e01b83525af180156104b457839495879161047c575b508652600b905284205533907ffadb9547847a0c2c31f4c02590545e318d33d7aae99071caecf3fa4ce3cd7dca8480a3805580f35b82809550819392503d83116104ad575b6104968183610f9f565b810103126104a95751839290600b610447565b8580fd5b503d61048c565b82513d88823e3d90fd5b634e487b7160e01b89526011835288fd5b845162461bcd60e51b8152602081840152600f818b01526e151c985b9cd9995c8819985a5b1959608a1b6044820152606490fd5b634e487b7160e01b8a52604184528a8afd5b61035d565b845162461bcd60e51b8152602081840152600f818b01526e082dadeeadce840dad2e6dac2e8c6d608b1b6044820152606490fd5b61055d600a8504600954610f2a565b60095560025486516323b872dd60e01b6020808301918252338e84019081529386166001600160a01b03168482015260408401889052928c92906105ae90829060600103601f198101835282610f9f565b519082855af1156105ee57885188903d6105e7575050803b155b6105d25750610363565b828a91875191635274afe760e01b8352820152fd5b14156105c8565b85513d8a823e3d90fd5b8351631765320160e11b8152fd5b50835163989e301760e01b8152fd5b606490600e89602087519362461bcd60e51b85528401528201526d496e76616c69642063686f69636560901b6044820152fd5b606490600689602087519362461bcd60e51b85528401528201526514185d5cd95960d21b6044820152fd5b8351633ee5aeb560e01b8152fd5b8480fd5b9050346101b85760203660031901126101b85760ff8260c0946106a6610fc1565b5083358152600c602052208351926106bd84610f6d565b60018060a01b038254169485855260018301546020860190815260028401549082870191825260a060058760038801549660608b01978852880154169660808a019788520154970196875282519788525160208801525190860152516060850152511660808301525160a0820152f35b505034610128578160031936011261012857905490516001600160a01b039091168152602090f35b9050346101b85760203660031901126101b8576020928291358152600b845220549051908152f35b5050346101285781600319360112610128576020906009549051908152f35b83346107c957806003193601126107c9576107b5610ff3565b6201000062ff000019600554161760055580f35b80fd5b83346107c95760203660031901126107c9576107e6610f0f565b6107ee610ff3565b60018060a01b03166001600160601b0360a01b600654161760065580f35b8284346107c957806003193601126107c9575060ff60a092600180851b036002541692600354915490600554928151958652602086015284015261ffff8116606084015260101c1615156080820152f35b50503461012857816003193601126101285760065490516001600160a01b039091168152602090f35b83346107c957806003193601126107c95761089f610ff3565b600080546001600160a01b0319811682556001600160a01b03167f8be0079c531659141344cd1fd0a4f28419497f9722a3daafe3b4186f6b6457e08280a380f35b919050346101b85760203660031901126101b8578060c09383358152600a6020522060ff60018060a01b03825416936001830154938260028501549260038601549501541694815196875260208701528282169086015260081c1660608401526080830152151560a0820152f35b83346107c957806003193601126107c957610967610ff3565b62ff0000196005541660055580f35b9050346101b85760203660031901126101b8578160c093610995610fc1565b5082358152600a6020522060ff8351926109ae84610f6d565b60018060a01b0383541694858552826001850154926020870193845260028601549360a083858a019381881685528160608c019860081c16885260038a01549960808c019a8b520154169801971515885283519889525160208901525116908601525116606084015251608083015251151560a0820152f35b5050346101285781600319360112610128576020906008549051908152f35b839150346101285782600319360112610128576006546001600160a01b0393602480359380359390929087163303610e7757838652602091600b83528187205495868852600a84528288208981541615610e465760018216966103e88a930696600283019283549460ff958b87821614600014610df1575050600185855460081c1601858111610ddf57845461ff00191660089190911b61ff0016178455600381018054906101f48201809211610dcd5791610b338e9f928e9f9e94819055600183015490610b2c61ffff6005541692610b24612710938492610f4d565b049283610f4d565b0490610f60565b978785830154168015610dbc575b610c44575b509460058b7fd5b65df4dc0d2194a29b00663ea8f73bfe23b2752581682c4061c5db55b87a189e948a60809f9e9d9c9b9a998f90878f8f90600c908f949b8b9f9e9c5b54169a549783519b610b9a8d610f6d565b8c52818c0195818752848d0197885260608d0198895260808d019960081c16895260a08c01998a528d52528a209751166001600160601b0360a01b8854161787555160018701555160028601555160038501558885850191511660ff1982541617905551910155600a885286822082815582600182015582600282015582600382015501558b52600b85528a848120555460081c169282519586528501528301526060820152a280f35b92509a9998979b90968160058b109283600014610d84575050600a8102818104600a1482151715610d7157918f92916064610c8b9304915b80610d66575b610d4157610f2a565b918760025416918c89806007541691541693803b156101b8578f5163a00c695160e01b81526001600160a01b0392831688820190815292909516602083015260408201869052849182908490829060600103925af18015610d3557610d01575b508d9b999a9899979891968d9290915081610b46565b67ffffffffffffffff969e929495968211610d2457508b529b939291818b610ceb565b634e487b7160e01b83526041845282fd5b8f8e51903d90823e3d90fd5b90610d609060095490610d58600a83048093610f60565b600955610f2a565b90610f2a565b506009541515610c82565b50634e487b7160e01b8f5260118452828ffd5b909160148c10610d99575b610c8b9293610c7c565b809250600591500281810460051482151715610d71578f91606490910490610d8f565b50600588885460081c161015610b41565b634e487b7160e01b8e5260118452878efd5b634e487b7160e01b8d5260118352868dfd5b8897509460058e9f9b8e9f949e7fd5b65df4dc0d2194a29b00663ea8f73bfe23b2752581682c4061c5db55b87a189f9460809f9e8f909b849f9e9c8f9d600c859f849f8b9f9e9c859161ff0019168d55610b89565b835162461bcd60e51b8152808701869052600c818501526b496e76616c69642067616d6560a01b6044820152606490fd5b606492916020600892519362461bcd60e51b85528401528201526727b7363c902b292360c11b6044820152fd5b92915034610f0b576020366003190112610f0b578160c09482358152600c602052209060018060a01b0382541692600183015490600284015491600560ff6003870154958701541695015495875260208701528501526060840152608083015260a0820152f35b8380fd5b600435906001600160a01b0382168203610f2557565b600080fd5b91908201809211610f3757565b634e487b7160e01b600052601160045260246000fd5b81810292918115918404141715610f3757565b91908203918211610f3757565b60c0810190811067ffffffffffffffff821117610f8957604052565b634e487b7160e01b600052604160045260246000fd5b90601f8019910116810190811067ffffffffffffffff821117610f8957604052565b60405190610fce82610f6d565b8160a06000918281528260208201528260408201528260608201528260808201520152565b6000546001600160a01b0316330361100757565b60405163118cdaa760e01b8152336004820152602490fdfea2646970667358221220e8da46b6183b3ab9c5f794aaaadca1c9fddc73b6bb53fd4fd16bc8ea94a098f164736f6c63430008180033","opcodes":"PUSH1 0x80 CALLVALUE PUSH2 0xF0 JUMPI PUSH1 0x1F PUSH2 0x1175 CODESIZE DUP2 SWAP1 SUB SWAP2 DUP3 ADD PUSH1 0x1F NOT AND DUP4 ADD SWAP2 PUSH1 0x1 PUSH1 0x1 PUSH1 0x40 SHL SUB DUP4 GT DUP5 DUP5 LT OR PUSH2 0xF5 JUMPI DUP1 DUP5 SWAP3 PUSH1 0x60 SWAP5 PUSH1 0x40 MSTORE DUP4 CODECOPY DUP2 ADD SUB SLT PUSH2 0xF0 JUMPI PUSH2 0x47 DUP2 PUSH2 0x10B JUMP JUMPDEST PUSH2 0x5F PUSH1 0x40 PUSH2 0x58 PUSH1 0x20 DUP6 ADD PUSH2 0x10B JUMP JUMPDEST SWAP4 ADD PUSH2 0x10B JUMP JUMPDEST PUSH1 0x1 PUSH1 0x1 PUSH1 0xA0 SHL SUB SWAP2 DUP3 AND SWAP2 SWAP1 DUP3 ISZERO PUSH2 0xD7 JUMPI DUP2 PUSH1 0x0 SLOAD SWAP5 PUSH1 0x1 DUP1 PUSH1 0xA0 SHL SUB NOT SWAP5 DUP1 DUP7 DUP9 AND OR PUSH1 0x0 SSTORE DUP3 PUSH1 0x40 MLOAD SWAP8 AND PUSH32 0x8BE0079C531659141344CD1FD0A4F28419497F9722A3DAAFE3B4186F6B6457E0 PUSH1 0x0 DUP1 LOG3 PUSH1 0x1 DUP1 SSTORE AND DUP4 PUSH1 0x7 SLOAD AND OR PUSH1 0x7 SSTORE AND SWAP1 PUSH1 0x6 SLOAD AND OR PUSH1 0x6 SSTORE PUSH2 0x1055 SWAP1 DUP2 PUSH2 0x120 DUP3 CODECOPY RETURN JUMPDEST PUSH1 0x40 MLOAD PUSH4 0x1E4FBDF7 PUSH1 0xE0 SHL DUP2 MSTORE PUSH1 0x0 PUSH1 0x4 DUP3 ADD MSTORE PUSH1 0x24 SWAP1 REVERT JUMPDEST PUSH1 0x0 DUP1 REVERT JUMPDEST PUSH4 0x4E487B71 PUSH1 0xE0 SHL PUSH1 0x0 MSTORE PUSH1 0x41 PUSH1 0x4 MSTORE PUSH1 0x24 PUSH1 0x0 REVERT JUMPDEST MLOAD SWAP1 PUSH1 0x1 PUSH1 0x1 PUSH1 0xA0 SHL SUB DUP3 AND DUP3 SUB PUSH2 0xF0 JUMPI JUMP INVALID PUSH1 0x80 PUSH1 0x40 DUP2 DUP2 MSTORE PUSH1 0x4 SWAP2 DUP3 CALLDATASIZE LT ISZERO PUSH2 0x16 JUMPI PUSH1 0x0 DUP1 REVERT JUMPDEST PUSH1 0x0 SWAP3 DUP4 CALLDATALOAD PUSH1 0xE0 SHR SWAP2 DUP3 PUSH4 0x117A5B90 EQ PUSH2 0xEA4 JUMPI POP DUP2 PUSH4 0x1F1F897F EQ PUSH2 0xA46 JUMPI DUP2 PUSH4 0x2E0BE39A EQ PUSH2 0xA27 JUMPI DUP2 PUSH4 0x3D598F80 EQ PUSH2 0x976 JUMPI DUP2 PUSH4 0x3F4BA83A EQ PUSH2 0x94E JUMPI DUP2 PUSH4 0x579E94EE EQ PUSH2 0x8E0 JUMPI DUP2 PUSH4 0x715018A6 EQ PUSH2 0x886 JUMPI DUP2 PUSH4 0x719CE73E EQ PUSH2 0x77D JUMPI DUP2 PUSH4 0x772D84C4 EQ PUSH2 0x85D JUMPI DUP2 PUSH4 0x79502C55 EQ PUSH2 0x80C JUMPI DUP2 PUSH4 0x83BA98AE EQ PUSH2 0x7CC JUMPI DUP2 PUSH4 0x8456CB59 EQ PUSH2 0x79C JUMPI DUP2 PUSH4 0x884BF67C EQ PUSH2 0x77D JUMPI DUP2 PUSH4 0x8A7626D1 EQ PUSH2 0x755 JUMPI DUP2 PUSH4 0x8DA5CB5B EQ PUSH2 0x72D JUMPI DUP2 PUSH4 0xA2F77BCC EQ PUSH2 0x685 JUMPI DUP2 PUSH4 0xCAF50828 EQ PUSH2 0x288 JUMPI DUP2 PUSH4 0xCBB6D6BD EQ PUSH2 0x1BC JUMPI DUP2 PUSH4 0xF2FDE38B EQ PUSH2 0x12C JUMPI POP PUSH4 0xFC0C546A EQ PUSH2 0x101 JUMPI PUSH1 0x0 DUP1 REVERT JUMPDEST CALLVALUE PUSH2 0x128 JUMPI DUP2 PUSH1 0x3 NOT CALLDATASIZE ADD SLT PUSH2 0x128 JUMPI PUSH1 0x7 SLOAD SWAP1 MLOAD PUSH1 0x1 PUSH1 0x1 PUSH1 0xA0 SHL SUB SWAP1 SWAP2 AND DUP2 MSTORE PUSH1 0x20 SWAP1 RETURN JUMPDEST POP DUP1 REVERT JUMPDEST SWAP1 POP CALLVALUE PUSH2 0x1B8 JUMPI PUSH1 0x20 CALLDATASIZE PUSH1 0x3 NOT ADD SLT PUSH2 0x1B8 JUMPI PUSH2 0x147 PUSH2 0xF0F JUMP JUMPDEST SWAP1 PUSH2 0x150 PUSH2 0xFF3 JUMP JUMPDEST PUSH1 0x1 PUSH1 0x1 PUSH1 0xA0 SHL SUB SWAP2 DUP3 AND SWAP3 DUP4 ISZERO PUSH2 0x1A2 JUMPI POP POP PUSH1 0x0 SLOAD DUP3 PUSH1 0x1 PUSH1 0x1 PUSH1 0x60 SHL SUB PUSH1 0xA0 SHL DUP3 AND OR PUSH1 0x0 SSTORE AND PUSH32 0x8BE0079C531659141344CD1FD0A4F28419497F9722A3DAAFE3B4186F6B6457E0 PUSH1 0x0 DUP1 LOG3 DUP1 RETURN JUMPDEST MLOAD PUSH4 0x1E4FBDF7 PUSH1 0xE0 SHL DUP2 MSTORE SWAP1 DUP2 ADD DUP5 SWAP1 MSTORE PUSH1 0x24 SWAP1 REVERT JUMPDEST DUP3 DUP1 REVERT JUMPDEST SWAP2 SWAP1 POP CALLVALUE PUSH2 0x1B8 JUMPI PUSH1 0x80 CALLDATASIZE PUSH1 0x3 NOT ADD SLT PUSH2 0x1B8 JUMPI PUSH2 0x1D8 PUSH2 0xF0F JUMP JUMPDEST SWAP2 PUSH1 0x24 CALLDATALOAD PUSH1 0x44 CALLDATALOAD SWAP3 PUSH1 0x64 CALLDATALOAD SWAP5 PUSH2 0xFFFF DUP7 AND DUP1 SWAP7 SUB PUSH2 0x284 JUMPI PUSH2 0x1F8 PUSH2 0xFF3 JUMP JUMPDEST DUP2 MLOAD SWAP1 PUSH1 0xA0 DUP3 ADD DUP3 DUP2 LT PUSH8 0xFFFFFFFFFFFFFFFF DUP3 GT OR PUSH2 0x26F JUMPI DUP4 MSTORE PUSH1 0x1 PUSH1 0x1 PUSH1 0xA0 SHL SUB AND DUP1 DUP3 MSTORE PUSH1 0x20 DUP3 ADD DUP5 SWAP1 MSTORE SWAP2 DUP2 ADD DUP6 SWAP1 MSTORE PUSH1 0x60 DUP2 ADD DUP7 SWAP1 MSTORE PUSH1 0x80 ADD DUP7 SWAP1 MSTORE PUSH1 0x2 DUP1 SLOAD PUSH1 0x1 PUSH1 0x1 PUSH1 0xA0 SHL SUB NOT AND SWAP1 SWAP2 OR SWAP1 SSTORE PUSH1 0x3 SSTORE SSTORE PUSH1 0x5 DUP1 SLOAD PUSH3 0xFFFFFF NOT AND SWAP1 SWAP2 OR DUP3 ISZERO ISZERO PUSH1 0x10 SHL PUSH3 0xFF0000 AND OR SWAP1 SSTORE DUP1 RETURN JUMPDEST PUSH1 0x41 DUP7 PUSH4 0x4E487B71 PUSH1 0xE0 SHL PUSH1 0x0 MSTORE MSTORE PUSH1 0x24 PUSH1 0x0 REVERT JUMPDEST DUP7 DUP1 REVERT JUMPDEST DUP4 SWAP2 POP PUSH1 0x60 CALLDATASIZE PUSH1 0x3 NOT ADD SLT PUSH2 0x128 JUMPI DUP1 CALLDATALOAD PUSH1 0x24 SWAP4 DUP5 CALLDATALOAD PUSH1 0xFF DUP2 AND DUP1 SWAP2 SUB PUSH2 0x681 JUMPI PUSH1 0x44 CALLDATALOAD SWAP3 DUP4 ISZERO ISZERO DUP1 SWAP5 SUB PUSH2 0x4A9 JUMPI PUSH1 0x1 SWAP5 PUSH1 0x2 DUP7 SLOAD EQ PUSH2 0x673 JUMPI PUSH1 0x2 DUP7 SSTORE PUSH1 0xFF PUSH1 0x5 SLOAD PUSH1 0x10 SHR AND PUSH2 0x648 JUMPI DUP6 DUP4 GT PUSH2 0x615 JUMPI PUSH1 0x3 SLOAD DUP2 SLOAD SWAP1 DUP4 LT PUSH2 0x606 JUMPI DUP3 GT PUSH2 0x5F8 JUMPI PUSH1 0x7 SLOAD PUSH1 0x1 PUSH1 0x1 PUSH1 0xA0 SHL SUB SWAP1 DUP2 AND DUP1 PUSH2 0x54E JUMPI POP DUP3 CALLVALUE SUB PUSH2 0x51A JUMPI PUSH2 0x317 PUSH1 0xA DUP5 DIV PUSH1 0x9 SLOAD PUSH2 0xF2A JUMP JUMPDEST PUSH1 0x9 SSTORE DUP8 DUP1 DUP1 DUP1 DUP7 DUP6 PUSH1 0x2 SLOAD AND GAS CALL RETURNDATASIZE ISZERO PUSH2 0x515 JUMPI RETURNDATASIZE PUSH8 0xFFFFFFFFFFFFFFFF DUP2 GT PUSH2 0x503 JUMPI DUP7 MLOAD SWAP1 PUSH2 0x353 PUSH1 0x1F DUP3 ADD PUSH1 0x1F NOT AND PUSH1 0x20 ADD DUP4 PUSH2 0xF9F JUMP JUMPDEST DUP2 MSTORE DUP10 PUSH1 0x20 RETURNDATASIZE SWAP3 ADD RETURNDATACOPY JUMPDEST ISZERO PUSH2 0x4CF JUMPI JUMPDEST PUSH1 0x8 SLOAD SWAP9 PUSH1 0x0 NOT DUP11 EQ PUSH2 0x4BE JUMPI POP DUP7 DUP9 SWAP10 ADD SWAP6 DUP7 PUSH1 0x8 SSTORE DUP9 DUP4 DUP8 MLOAD PUSH2 0x387 DUP2 PUSH2 0xF6D JUMP JUMPDEST CALLER DUP2 MSTORE DUP10 PUSH1 0x20 SWAP9 DUP10 SWAP9 DUP10 DUP5 ADD SWAP1 DUP2 MSTORE DUP12 DUP5 ADD SWAP2 DUP3 MSTORE DUP8 DUP13 PUSH1 0x60 DUP7 ADD SWAP8 DUP1 DUP10 MSTORE PUSH1 0x80 DUP8 ADD SWAP6 PUSH2 0x4C2C DUP8 MSTORE PUSH1 0xA0 DUP9 ADD SWAP11 DUP12 MSTORE DUP2 MSTORE PUSH1 0xA DUP14 MSTORE KECCAK256 SWAP5 MLOAD AND PUSH1 0x1 PUSH1 0x1 PUSH1 0x60 SHL SUB PUSH1 0xA0 SHL DUP6 SLOAD AND OR DUP5 SSTORE MLOAD DUP14 DUP5 ADD SSTORE PUSH1 0x2 DUP4 ADD SWAP1 MLOAD PUSH1 0xFF AND SWAP5 PUSH1 0xFF NOT SWAP6 DUP7 DUP4 SLOAD AND OR DUP3 SSTORE MLOAD PUSH1 0xFF AND PUSH2 0x40A SWAP2 SWAP1 PUSH2 0xFF00 DUP3 SLOAD SWAP2 PUSH1 0x8 SHL AND SWAP1 PUSH2 0xFF00 NOT AND OR SWAP1 SSTORE JUMP JUMPDEST MLOAD PUSH1 0x3 DUP3 ADD SSTORE ADD SWAP2 MLOAD ISZERO ISZERO SWAP1 DUP3 SLOAD AND SWAP1 PUSH1 0xFF AND OR SWAP1 SSTORE PUSH1 0x6 SLOAD AND SWAP1 DUP5 MLOAD DUP1 SWAP9 DUP2 SWAP4 PUSH4 0xF8413B07 PUSH1 0xE0 SHL DUP4 MSTORE GAS CALL DUP1 ISZERO PUSH2 0x4B4 JUMPI DUP4 SWAP5 SWAP6 DUP8 SWAP2 PUSH2 0x47C JUMPI JUMPDEST POP DUP7 MSTORE PUSH1 0xB SWAP1 MSTORE DUP5 KECCAK256 SSTORE CALLER SWAP1 PUSH32 0xFADB9547847A0C2C31F4C02590545E318D33D7AAE99071CAECF3FA4CE3CD7DCA DUP5 DUP1 LOG3 DUP1 SSTORE DUP1 RETURN JUMPDEST DUP3 DUP1 SWAP6 POP DUP2 SWAP4 SWAP3 POP RETURNDATASIZE DUP4 GT PUSH2 0x4AD JUMPI JUMPDEST PUSH2 0x496 DUP2 DUP4 PUSH2 0xF9F JUMP JUMPDEST DUP2 ADD SUB SLT PUSH2 0x4A9 JUMPI MLOAD DUP4 SWAP3 SWAP1 PUSH1 0xB PUSH2 0x447 JUMP JUMPDEST DUP6 DUP1 REVERT JUMPDEST POP RETURNDATASIZE PUSH2 0x48C JUMP JUMPDEST DUP3 MLOAD RETURNDATASIZE DUP9 DUP3 RETURNDATACOPY RETURNDATASIZE SWAP1 REVERT JUMPDEST PUSH4 0x4E487B71 PUSH1 0xE0 SHL DUP10 MSTORE PUSH1 0x11 DUP4 MSTORE DUP9 REVERT JUMPDEST DUP5 MLOAD PUSH3 0x461BCD PUSH1 0xE5 SHL DUP2 MSTORE PUSH1 0x20 DUP2 DUP5 ADD MSTORE PUSH1 0xF DUP2 DUP12 ADD MSTORE PUSH15 0x151C985B9CD9995C8819985A5B1959 PUSH1 0x8A SHL PUSH1 0x44 DUP3 ADD MSTORE PUSH1 0x64 SWAP1 REVERT JUMPDEST PUSH4 0x4E487B71 PUSH1 0xE0 SHL DUP11 MSTORE PUSH1 0x41 DUP5 MSTORE DUP11 DUP11 REVERT JUMPDEST PUSH2 0x35D JUMP JUMPDEST DUP5 MLOAD PUSH3 0x461BCD PUSH1 0xE5 SHL DUP2 MSTORE PUSH1 0x20 DUP2 DUP5 ADD MSTORE PUSH1 0xF DUP2 DUP12 ADD MSTORE PUSH15 0x82DADEEADCE840DAD2E6DAC2E8C6D PUSH1 0x8B SHL PUSH1 0x44 DUP3 ADD MSTORE PUSH1 0x64 SWAP1 REVERT JUMPDEST PUSH2 0x55D PUSH1 0xA DUP6 DIV PUSH1 0x9 SLOAD PUSH2 0xF2A JUMP JUMPDEST PUSH1 0x9 SSTORE PUSH1 0x2 SLOAD DUP7 MLOAD PUSH4 0x23B872DD PUSH1 0xE0 SHL PUSH1 0x20 DUP1 DUP4 ADD SWAP2 DUP3 MSTORE CALLER DUP15 DUP5 ADD SWAP1 DUP2 MSTORE SWAP4 DUP7 AND PUSH1 0x1 PUSH1 0x1 PUSH1 0xA0 SHL SUB AND DUP5 DUP3 ADD MSTORE PUSH1 0x40 DUP5 ADD DUP9 SWAP1 MSTORE SWAP3 DUP13 SWAP3 SWAP1 PUSH2 0x5AE SWAP1 DUP3 SWAP1 PUSH1 0x60 ADD SUB PUSH1 0x1F NOT DUP2 ADD DUP4 MSTORE DUP3 PUSH2 0xF9F JUMP JUMPDEST MLOAD SWAP1 DUP3 DUP6 GAS CALL ISZERO PUSH2 0x5EE JUMPI DUP9 MLOAD DUP9 SWAP1 RETURNDATASIZE PUSH2 0x5E7 JUMPI POP POP DUP1 EXTCODESIZE ISZERO JUMPDEST PUSH2 0x5D2 JUMPI POP PUSH2 0x363 JUMP JUMPDEST DUP3 DUP11 SWAP2 DUP8 MLOAD SWAP2 PUSH4 0x5274AFE7 PUSH1 0xE0 SHL DUP4 MSTORE DUP3 ADD MSTORE REVERT JUMPDEST EQ ISZERO PUSH2 0x5C8 JUMP JUMPDEST DUP6 MLOAD RETURNDATASIZE DUP11 DUP3 RETURNDATACOPY RETURNDATASIZE SWAP1 REVERT JUMPDEST DUP4 MLOAD PUSH4 0x17653201 PUSH1 0xE1 SHL DUP2 MSTORE REVERT JUMPDEST POP DUP4 MLOAD PUSH4 0x989E3017 PUSH1 0xE0 SHL DUP2 MSTORE REVERT JUMPDEST PUSH1 0x64 SWAP1 PUSH1 0xE DUP10 PUSH1 0x20 DUP8 MLOAD SWAP4 PUSH3 0x461BCD PUSH1 0xE5 SHL DUP6 MSTORE DUP5 ADD MSTORE DUP3 ADD MSTORE PUSH14 0x496E76616C69642063686F696365 PUSH1 0x90 SHL PUSH1 0x44 DUP3 ADD MSTORE REVERT JUMPDEST PUSH1 0x64 SWAP1 PUSH1 0x6 DUP10 PUSH1 0x20 DUP8 MLOAD SWAP4 PUSH3 0x461BCD PUSH1 0xE5 SHL DUP6 MSTORE DUP5 ADD MSTORE DUP3 ADD MSTORE PUSH6 0x14185D5CD959 PUSH1 0xD2 SHL PUSH1 0x44 DUP3 ADD MSTORE REVERT JUMPDEST DUP4 MLOAD PUSH4 0x3EE5AEB5 PUSH1 0xE0 SHL DUP2 MSTORE REVERT JUMPDEST DUP5 DUP1 REVERT JUMPDEST SWAP1 POP CALLVALUE PUSH2 0x1B8 JUMPI PUSH1 0x20 CALLDATASIZE PUSH1 0x3 NOT ADD SLT PUSH2 0x1B8 JUMPI PUSH1 0xFF DUP3 PUSH1 0xC0 SWAP5 PUSH2 0x6A6 PUSH2 0xFC1 JUMP JUMPDEST POP DUP4 CALLDATALOAD DUP2 MSTORE PUSH1 0xC PUSH1 0x20 MSTORE KECCAK256 DUP4 MLOAD SWAP3 PUSH2 0x6BD DUP5 PUSH2 0xF6D JUMP JUMPDEST PUSH1 0x1 DUP1 PUSH1 0xA0 SHL SUB DUP3 SLOAD AND SWAP5 DUP6 DUP6 MSTORE PUSH1 0x1 DUP4 ADD SLOAD PUSH1 0x20 DUP7 ADD SWAP1 DUP2 MSTORE PUSH1 0x2 DUP5 ADD SLOAD SWAP1 DUP3 DUP8 ADD SWAP2 DUP3 MSTORE PUSH1 0xA0 PUSH1 0x5 DUP8 PUSH1 0x3 DUP9 ADD SLOAD SWAP7 PUSH1 0x60 DUP12 ADD SWAP8 DUP9 MSTORE DUP9 ADD SLOAD AND SWAP7 PUSH1 0x80 DUP11 ADD SWAP8 DUP9 MSTORE ADD SLOAD SWAP8 ADD SWAP7 DUP8 MSTORE DUP3 MLOAD SWAP8 DUP9 MSTORE MLOAD PUSH1 0x20 DUP9 ADD MSTORE MLOAD SWAP1 DUP7 ADD MSTORE MLOAD PUSH1 0x60 DUP6 ADD MSTORE MLOAD AND PUSH1 0x80 DUP4 ADD MSTORE MLOAD PUSH1 0xA0 DUP3 ADD MSTORE RETURN JUMPDEST POP POP CALLVALUE PUSH2 0x128 JUMPI DUP2 PUSH1 0x3 NOT CALLDATASIZE ADD SLT PUSH2 0x128 JUMPI SWAP1 SLOAD SWAP1 MLOAD PUSH1 0x1 PUSH1 0x1 PUSH1 0xA0 SHL SUB SWAP1 SWAP2 AND DUP2 MSTORE PUSH1 0x20 SWAP1 RETURN JUMPDEST SWAP1 POP CALLVALUE PUSH2 0x1B8 JUMPI PUSH1 0x20 CALLDATASIZE PUSH1 0x3 NOT ADD SLT PUSH2 0x1B8 JUMPI PUSH1 0x20 SWAP3 DUP3 SWAP2 CALLDATALOAD DUP2 MSTORE PUSH1 0xB DUP5 MSTORE KECCAK256 SLOAD SWAP1 MLOAD SWAP1 DUP2 MSTORE RETURN JUMPDEST POP POP CALLVALUE PUSH2 0x128 JUMPI DUP2 PUSH1 0x3 NOT CALLDATASIZE ADD SLT PUSH2 0x128 JUMPI PUSH1 0x20 SWAP1 PUSH1 0x9 SLOAD SWAP1 MLOAD SWAP1 DUP2 MSTORE RETURN JUMPDEST DUP4 CALLVALUE PUSH2 0x7C9 JUMPI DUP1 PUSH1 0x3 NOT CALLDATASIZE ADD SLT PUSH2 0x7C9 JUMPI PUSH2 0x7B5 PUSH2 0xFF3 JUMP JUMPDEST PUSH3 0x10000 PUSH3 0xFF0000 NOT PUSH1 0x5 SLOAD AND OR PUSH1 0x5 SSTORE DUP1 RETURN JUMPDEST DUP1 REVERT JUMPDEST DUP4 CALLVALUE PUSH2 0x7C9 JUMPI PUSH1 0x20 CALLDATASIZE PUSH1 0x3 NOT ADD SLT PUSH2 0x7C9 JUMPI PUSH2 0x7E6 PUSH2 0xF0F JUMP JUMPDEST PUSH2 0x7EE PUSH2 0xFF3 JUMP JUMPDEST PUSH1 0x1 DUP1 PUSH1 0xA0 SHL SUB AND PUSH1 0x1 PUSH1 0x1 PUSH1 0x60 SHL SUB PUSH1 0xA0 SHL PUSH1 0x6 SLOAD AND OR PUSH1 0x6 SSTORE DUP1 RETURN JUMPDEST DUP3 DUP5 CALLVALUE PUSH2 0x7C9 JUMPI DUP1 PUSH1 0x3 NOT CALLDATASIZE ADD SLT PUSH2 0x7C9 JUMPI POP PUSH1 0xFF PUSH1 0xA0 SWAP3 PUSH1 0x1 DUP1 DUP6 SHL SUB PUSH1 0x2 SLOAD AND SWAP3 PUSH1 0x3 SLOAD SWAP2 SLOAD SWAP1 PUSH1 0x5 SLOAD SWAP3 DUP2 MLOAD SWAP6 DUP7 MSTORE PUSH1 0x20 DUP7 ADD MSTORE DUP5 ADD MSTORE PUSH2 0xFFFF DUP2 AND PUSH1 0x60 DUP5 ADD MSTORE PUSH1 0x10 SHR AND ISZERO ISZERO PUSH1 0x80 DUP3 ADD MSTORE RETURN JUMPDEST POP POP CALLVALUE PUSH2 0x128 JUMPI DUP2 PUSH1 0x3 NOT CALLDATASIZE ADD SLT PUSH2 0x128 JUMPI PUSH1 0x6 SLOAD SWAP1 MLOAD PUSH1 0x1 PUSH1 0x1 PUSH1 0xA0 SHL SUB SWAP1 SWAP2 AND DUP2 MSTORE PUSH1 0x20 SWAP1 RETURN JUMPDEST DUP4 CALLVALUE PUSH2 0x7C9 JUMPI DUP1 PUSH1 0x3 NOT CALLDATASIZE ADD SLT PUSH2 0x7C9 JUMPI PUSH2 0x89F PUSH2 0xFF3 JUMP JUMPDEST PUSH1 0x0 DUP1 SLOAD PUSH1 0x1 PUSH1 0x1 PUSH1 0xA0 SHL SUB NOT DUP2 AND DUP3 SSTORE PUSH1 0x1 PUSH1 0x1 PUSH1 0xA0 SHL SUB AND PUSH32 0x8BE0079C531659141344CD1FD0A4F28419497F9722A3DAAFE3B4186F6B6457E0 DUP3 DUP1 LOG3 DUP1 RETURN JUMPDEST SWAP2 SWAP1 POP CALLVALUE PUSH2 0x1B8 JUMPI PUSH1 0x20 CALLDATASIZE PUSH1 0x3 NOT ADD SLT PUSH2 0x1B8 JUMPI DUP1 PUSH1 0xC0 SWAP4 DUP4 CALLDATALOAD DUP2 MSTORE PUSH1 0xA PUSH1 0x20 MSTORE KECCAK256 PUSH1 0xFF PUSH1 0x1 DUP1 PUSH1 0xA0 SHL SUB DUP3 SLOAD AND SWAP4 PUSH1 0x1 DUP4 ADD SLOAD SWAP4 DUP3 PUSH1 0x2 DUP6 ADD SLOAD SWAP3 PUSH1 0x3 DUP7 ADD SLOAD SWAP6 ADD SLOAD AND SWAP5 DUP2 MLOAD SWAP7 DUP8 MSTORE PUSH1 0x20 DUP8 ADD MSTORE DUP3 DUP3 AND SWAP1 DUP7 ADD MSTORE PUSH1 0x8 SHR AND PUSH1 0x60 DUP5 ADD MSTORE PUSH1 0x80 DUP4 ADD MSTORE ISZERO ISZERO PUSH1 0xA0 DUP3 ADD MSTORE RETURN JUMPDEST DUP4 CALLVALUE PUSH2 0x7C9 JUMPI DUP1 PUSH1 0x3 NOT CALLDATASIZE ADD SLT PUSH2 0x7C9 JUMPI PUSH2 0x967 PUSH2 0xFF3 JUMP JUMPDEST PUSH3 0xFF0000 NOT PUSH1 0x5 SLOAD AND PUSH1 0x5 SSTORE DUP1 RETURN JUMPDEST SWAP1 POP CALLVALUE PUSH2 0x1B8 JUMPI PUSH1 0x20 CALLDATASIZE PUSH1 0x3 NOT ADD SLT PUSH2 0x1B8 JUMPI DUP2 PUSH1 0xC0 SWAP4 PUSH2 0x995 PUSH2 0xFC1 JUMP JUMPDEST POP DUP3 CALLDATALOAD DUP2 MSTORE PUSH1 0xA PUSH1 0x20 MSTORE KECCAK256 PUSH1 0xFF DUP4 MLOAD SWAP3 PUSH2 0x9AE DUP5 PUSH2 0xF6D JUMP JUMPDEST PUSH1 0x1 DUP1 PUSH1 0xA0 SHL SUB DUP4 SLOAD AND SWAP5 DUP6 DUP6 MSTORE DUP3 PUSH1 0x1 DUP6 ADD SLOAD SWAP3 PUSH1 0x20 DUP8 ADD SWAP4 DUP5 MSTORE PUSH1 0x2 DUP7 ADD SLOAD SWAP4 PUSH1 0xA0 DUP4 DUP6 DUP11 ADD SWAP4 DUP2 DUP9 AND DUP6 MSTORE DUP2 PUSH1 0x60 DUP13 ADD SWAP9 PUSH1 0x8 SHR AND DUP9 MSTORE PUSH1 0x3 DUP11 ADD SLOAD SWAP10 PUSH1 0x80 DUP13 ADD SWAP11 DUP12 MSTORE ADD SLOAD AND SWAP9 ADD SWAP8 ISZERO ISZERO DUP9 MSTORE DUP4 MLOAD SWAP9 DUP10 MSTORE MLOAD PUSH1 0x20 DUP10 ADD MSTORE MLOAD AND SWAP1 DUP7 ADD MSTORE MLOAD AND PUSH1 0x60 DUP5 ADD MSTORE MLOAD PUSH1 0x80 DUP4 ADD MSTORE MLOAD ISZERO ISZERO PUSH1 0xA0 DUP3 ADD MSTORE RETURN JUMPDEST POP POP CALLVALUE PUSH2 0x128 JUMPI DUP2 PUSH1 0x3 NOT CALLDATASIZE ADD SLT PUSH2 0x128 JUMPI PUSH1 0x20 SWAP1 PUSH1 0x8 SLOAD SWAP1 MLOAD SWAP1 DUP2 MSTORE RETURN JUMPDEST DUP4 SWAP2 POP CALLVALUE PUSH2 0x128 JUMPI DUP3 PUSH1 0x3 NOT CALLDATASIZE ADD SLT PUSH2 0x128 JUMPI PUSH1 0x6 SLOAD PUSH1 0x1 PUSH1 0x1 PUSH1 0xA0 SHL SUB SWAP4 PUSH1 0x24 DUP1 CALLDATALOAD SWAP4 DUP1 CALLDATALOAD SWAP4 SWAP1 SWAP3 SWAP1 DUP8 AND CALLER SUB PUSH2 0xE77 JUMPI DUP4 DUP7 MSTORE PUSH1 0x20 SWAP2 PUSH1 0xB DUP4 MSTORE DUP2 DUP8 KECCAK256 SLOAD SWAP6 DUP7 DUP9 MSTORE PUSH1 0xA DUP5 MSTORE DUP3 DUP9 KECCAK256 DUP10 DUP2 SLOAD AND ISZERO PUSH2 0xE46 JUMPI PUSH1 0x1 DUP3 AND SWAP7 PUSH2 0x3E8 DUP11 SWAP4 MOD SWAP7 PUSH1 0x2 DUP4 ADD SWAP3 DUP4 SLOAD SWAP5 PUSH1 0xFF SWAP6 DUP12 DUP8 DUP3 AND EQ PUSH1 0x0 EQ PUSH2 0xDF1 JUMPI POP POP PUSH1 0x1 DUP6 DUP6 SLOAD PUSH1 0x8 SHR AND ADD DUP6 DUP2 GT PUSH2 0xDDF JUMPI DUP5 SLOAD PUSH2 0xFF00 NOT AND PUSH1 0x8 SWAP2 SWAP1 SWAP2 SHL PUSH2 0xFF00 AND OR DUP5 SSTORE PUSH1 0x3 DUP2 ADD DUP1 SLOAD SWAP1 PUSH2 0x1F4 DUP3 ADD DUP1 SWAP3 GT PUSH2 0xDCD JUMPI SWAP2 PUSH2 0xB33 DUP15 SWAP16 SWAP3 DUP15 SWAP16 SWAP15 SWAP5 DUP2 SWAP1 SSTORE PUSH1 0x1 DUP4 ADD SLOAD SWAP1 PUSH2 0xB2C PUSH2 0xFFFF PUSH1 0x5 SLOAD AND SWAP3 PUSH2 0xB24 PUSH2 0x2710 SWAP4 DUP5 SWAP3 PUSH2 0xF4D JUMP JUMPDEST DIV SWAP3 DUP4 PUSH2 0xF4D JUMP JUMPDEST DIV SWAP1 PUSH2 0xF60 JUMP JUMPDEST SWAP8 DUP8 DUP6 DUP4 ADD SLOAD AND DUP1 ISZERO PUSH2 0xDBC JUMPI JUMPDEST PUSH2 0xC44 JUMPI JUMPDEST POP SWAP5 PUSH1 0x5 DUP12 PUSH32 0xD5B65DF4DC0D2194A29B00663EA8F73BFE23B2752581682C4061C5DB55B87A18 SWAP15 SWAP5 DUP11 PUSH1 0x80 SWAP16 SWAP15 SWAP14 SWAP13 SWAP12 SWAP11 SWAP10 DUP16 SWAP1 DUP8 DUP16 DUP16 SWAP1 PUSH1 0xC SWAP1 DUP16 SWAP5 SWAP12 DUP12 SWAP16 SWAP15 SWAP13 JUMPDEST SLOAD AND SWAP11 SLOAD SWAP8 DUP4 MLOAD SWAP12 PUSH2 0xB9A DUP14 PUSH2 0xF6D JUMP JUMPDEST DUP13 MSTORE DUP2 DUP13 ADD SWAP6 DUP2 DUP8 MSTORE DUP5 DUP14 ADD SWAP8 DUP9 MSTORE PUSH1 0x60 DUP14 ADD SWAP9 DUP10 MSTORE PUSH1 0x80 DUP14 ADD SWAP10 PUSH1 0x8 SHR AND DUP10 MSTORE PUSH1 0xA0 DUP13 ADD SWAP10 DUP11 MSTORE DUP14 MSTORE MSTORE DUP11 KECCAK256 SWAP8 MLOAD AND PUSH1 0x1 PUSH1 0x1 PUSH1 0x60 SHL SUB PUSH1 0xA0 SHL DUP9 SLOAD AND OR DUP8 SSTORE MLOAD PUSH1 0x1 DUP8 ADD SSTORE MLOAD PUSH1 0x2 DUP7 ADD SSTORE MLOAD PUSH1 0x3 DUP6 ADD SSTORE DUP9 DUP6 DUP6 ADD SWAP2 MLOAD AND PUSH1 0xFF NOT DUP3 SLOAD AND OR SWAP1 SSTORE MLOAD SWAP2 ADD SSTORE PUSH1 0xA DUP9 MSTORE DUP7 DUP3 KECCAK256 DUP3 DUP2 SSTORE DUP3 PUSH1 0x1 DUP3 ADD SSTORE DUP3 PUSH1 0x2 DUP3 ADD SSTORE DUP3 PUSH1 0x3 DUP3 ADD SSTORE ADD SSTORE DUP12 MSTORE PUSH1 0xB DUP6 MSTORE DUP11 DUP5 DUP2 KECCAK256 SSTORE SLOAD PUSH1 0x8 SHR AND SWAP3 DUP3 MLOAD SWAP6 DUP7 MSTORE DUP6 ADD MSTORE DUP4 ADD MSTORE PUSH1 0x60 DUP3 ADD MSTORE LOG2 DUP1 RETURN JUMPDEST SWAP3 POP SWAP11 SWAP10 SWAP9 SWAP8 SWAP12 SWAP1 SWAP7 DUP2 PUSH1 0x5 DUP12 LT SWAP3 DUP4 PUSH1 0x0 EQ PUSH2 0xD84 JUMPI POP POP PUSH1 0xA DUP2 MUL DUP2 DUP2 DIV PUSH1 0xA EQ DUP3 ISZERO OR ISZERO PUSH2 0xD71 JUMPI SWAP2 DUP16 SWAP3 SWAP2 PUSH1 0x64 PUSH2 0xC8B SWAP4 DIV SWAP2 JUMPDEST DUP1 PUSH2 0xD66 JUMPI JUMPDEST PUSH2 0xD41 JUMPI PUSH2 0xF2A JUMP JUMPDEST SWAP2 DUP8 PUSH1 0x2 SLOAD AND SWAP2 DUP13 DUP10 DUP1 PUSH1 0x7 SLOAD AND SWAP2 SLOAD AND SWAP4 DUP1 EXTCODESIZE ISZERO PUSH2 0x1B8 JUMPI DUP16 MLOAD PUSH4 0xA00C6951 PUSH1 0xE0 SHL DUP2 MSTORE PUSH1 0x1 PUSH1 0x1 PUSH1 0xA0 SHL SUB SWAP3 DUP4 AND DUP9 DUP3 ADD SWAP1 DUP2 MSTORE SWAP3 SWAP1 SWAP6 AND PUSH1 0x20 DUP4 ADD MSTORE PUSH1 0x40 DUP3 ADD DUP7 SWAP1 MSTORE DUP5 SWAP2 DUP3 SWAP1 DUP5 SWAP1 DUP3 SWAP1 PUSH1 0x60 ADD SUB SWAP3 GAS CALL DUP1 ISZERO PUSH2 0xD35 JUMPI PUSH2 0xD01 JUMPI JUMPDEST POP DUP14 SWAP12 SWAP10 SWAP11 SWAP9 SWAP10 SWAP8 SWAP9 SWAP2 SWAP7 DUP14 SWAP3 SWAP1 SWAP2 POP DUP2 PUSH2 0xB46 JUMP JUMPDEST PUSH8 0xFFFFFFFFFFFFFFFF SWAP7 SWAP15 SWAP3 SWAP5 SWAP6 SWAP7 DUP3 GT PUSH2 0xD24 JUMPI POP DUP12 MSTORE SWAP12 SWAP4 SWAP3 SWAP2 DUP2 DUP12 PUSH2 0xCEB JUMP JUMPDEST PUSH4 0x4E487B71 PUSH1 0xE0 SHL DUP4 MSTORE PUSH1 0x41 DUP5 MSTORE DUP3 REVERT JUMPDEST DUP16 DUP15 MLOAD SWAP1 RETURNDATASIZE SWAP1 DUP3 RETURNDATACOPY RETURNDATASIZE SWAP1 REVERT JUMPDEST SWAP1 PUSH2 0xD60 SWAP1 PUSH1 0x9 SLOAD SWAP1 PUSH2 0xD58 PUSH1 0xA DUP4 DIV DUP1 SWAP4 PUSH2 0xF60 JUMP JUMPDEST PUSH1 0x9 SSTORE PUSH2 0xF2A JUMP JUMPDEST SWAP1 PUSH2 0xF2A JUMP JUMPDEST POP PUSH1 0x9 SLOAD ISZERO ISZERO PUSH2 0xC82 JUMP JUMPDEST POP PUSH4 0x4E487B71 PUSH1 0xE0 SHL DUP16 MSTORE PUSH1 0x11 DUP5 MSTORE DUP3 DUP16 REVERT JUMPDEST SWAP1 SWAP2 PUSH1 0x14 DUP13 LT PUSH2 0xD99 JUMPI JUMPDEST PUSH2 0xC8B SWAP3 SWAP4 PUSH2 0xC7C JUMP JUMPDEST DUP1 SWAP3 POP PUSH1 0x5 SWAP2 POP MUL DUP2 DUP2 DIV PUSH1 0x5 EQ DUP3 ISZERO OR ISZERO PUSH2 0xD71 JUMPI DUP16 SWAP2 PUSH1 0x64 SWAP1 SWAP2 DIV SWAP1 PUSH2 0xD8F JUMP JUMPDEST POP PUSH1 0x5 DUP9 DUP9 SLOAD PUSH1 0x8 SHR AND LT ISZERO PUSH2 0xB41 JUMP JUMPDEST PUSH4 0x4E487B71 PUSH1 0xE0 SHL DUP15 MSTORE PUSH1 0x11 DUP5 MSTORE DUP8 DUP15 REVERT JUMPDEST PUSH4 0x4E487B71 PUSH1 0xE0 SHL DUP14 MSTORE PUSH1 0x11 DUP4 MSTORE DUP7 DUP14 REVERT JUMPDEST DUP9 SWAP8 POP SWAP5 PUSH1 0x5 DUP15 SWAP16 SWAP12 DUP15 SWAP16 SWAP5 SWAP15 PUSH32 0xD5B65DF4DC0D2194A29B00663EA8F73BFE23B2752581682C4061C5DB55B87A18 SWAP16 SWAP5 PUSH1 0x80 SWAP16 SWAP15 DUP16 SWAP1 SWAP12 DUP5 SWAP16 SWAP15 SWAP13 DUP16 SWAP14 PUSH1 0xC DUP6 SWAP16 DUP5 SWAP16 DUP12 SWAP16 SWAP15 SWAP13 DUP6 SWAP2 PUSH2 0xFF00 NOT AND DUP14 SSTORE PUSH2 0xB89 JUMP JUMPDEST DUP4 MLOAD PUSH3 0x461BCD PUSH1 0xE5 SHL DUP2 MSTORE DUP1 DUP8 ADD DUP7 SWAP1 MSTORE PUSH1 0xC DUP2 DUP6 ADD MSTORE PUSH12 0x496E76616C69642067616D65 PUSH1 0xA0 SHL PUSH1 0x44 DUP3 ADD MSTORE PUSH1 0x64 SWAP1 REVERT JUMPDEST PUSH1 0x64 SWAP3 SWAP2 PUSH1 0x20 PUSH1 0x8 SWAP3 MLOAD SWAP4 PUSH3 0x461BCD PUSH1 0xE5 SHL DUP6 MSTORE DUP5 ADD MSTORE DUP3 ADD MSTORE PUSH8 0x27B7363C902B2923 PUSH1 0xC1 SHL PUSH1 0x44 DUP3 ADD MSTORE REVERT JUMPDEST SWAP3 SWAP2 POP CALLVALUE PUSH2 0xF0B JUMPI PUSH1 0x20 CALLDATASIZE PUSH1 0x3 NOT ADD SLT PUSH2 0xF0B JUMPI DUP2 PUSH1 0xC0 SWAP5 DUP3 CALLDATALOAD DUP2 MSTORE PUSH1 0xC PUSH1 0x20 MSTORE KECCAK256 SWAP1 PUSH1 0x1 DUP1 PUSH1 0xA0 SHL SUB DUP3 SLOAD AND SWAP3 PUSH1 0x1 DUP4 ADD SLOAD SWAP1 PUSH1 0x2 DUP5 ADD SLOAD SWAP2 PUSH1 0x5 PUSH1 0xFF PUSH1 0x3 DUP8 ADD SLOAD SWAP6 DUP8 ADD SLOAD AND SWAP6 ADD SLOAD SWAP6 DUP8 MSTORE PUSH1 0x20 DUP8 ADD MSTORE DUP6 ADD MSTORE PUSH1 0x60 DUP5 ADD MSTORE PUSH1 0x80 DUP4 ADD MSTORE PUSH1 0xA0 DUP3 ADD MSTORE RETURN JUMPDEST DUP4 DUP1 REVERT JUMPDEST PUSH1 0x4 CALLDATALOAD SWAP1 PUSH1 0x1 PUSH1 0x1 PUSH1 0xA0 SHL SUB DUP3 AND DUP3 SUB PUSH2 0xF25 JUMPI JUMP JUMPDEST PUSH1 0x0 DUP1 REVERT JUMPDEST SWAP2 SWAP1 DUP3 ADD DUP1 SWAP3 GT PUSH2 0xF37 JUMPI JUMP JUMPDEST PUSH4 0x4E487B71 PUSH1 0xE0 SHL PUSH1 0x0 MSTORE PUSH1 0x11 PUSH1 0x4 MSTORE PUSH1 0x24 PUSH1 0x0 REVERT JUMPDEST DUP2 DUP2 MUL SWAP3 SWAP2 DUP2 ISZERO SWAP2 DUP5 DIV EQ OR ISZERO PUSH2 0xF37 JUMPI JUMP JUMPDEST SWAP2 SWAP1 DUP3 SUB SWAP2 DUP3 GT PUSH2 0xF37 JUMPI JUMP JUMPDEST PUSH1 0xC0 DUP2 ADD SWAP1 DUP2 LT PUSH8 0xFFFFFFFFFFFFFFFF DUP3 GT OR PUSH2 0xF89 JUMPI PUSH1 0x40 MSTORE JUMP JUMPDEST PUSH4 0x4E487B71 PUSH1 0xE0 SHL PUSH1 0x0 MSTORE PUSH1 0x41 PUSH1 0x4 MSTORE PUSH1 0x24 PUSH1 0x0 REVERT JUMPDEST SWAP1 PUSH1 0x1F DUP1 NOT SWAP2 ADD AND DUP2 ADD SWAP1 DUP2 LT PUSH8 0xFFFFFFFFFFFFFFFF DUP3 GT OR PUSH2 0xF89 JUMPI PUSH1 0x40 MSTORE JUMP JUMPDEST PUSH1 0x40 MLOAD SWAP1 PUSH2 0xFCE DUP3 PUSH2 0xF6D JUMP JUMPDEST DUP2 PUSH1 0xA0 PUSH1 0x0 SWAP2 DUP3 DUP2 MSTORE DUP3 PUSH1 0x20 DUP3 ADD MSTORE DUP3 PUSH1 0x40 DUP3 ADD MSTORE DUP3 PUSH1 0x60 DUP3 ADD MSTORE DUP3 PUSH1 0x80 DUP3 ADD MSTORE ADD MSTORE JUMP JUMPDEST PUSH1 0x0 SLOAD PUSH1 0x1 PUSH1 0x1 PUSH1 0xA0 SHL SUB AND CALLER SUB PUSH2 0x1007 JUMPI JUMP JUMPDEST PUSH1 0x40 MLOAD PUSH4 0x118CDAA7 PUSH1 0xE0 SHL DUP2 MSTORE CALLER PUSH1 0x4 DUP3 ADD MSTORE PUSH1 0x24 SWAP1 REVERT INVALID LOG2 PUSH5 0x6970667358 0x22 SLT KECCAK256 0xE8 0xDA CHAINID 0xB6 XOR EXTCODESIZE GASPRICE 0xB9 0xC5 0xF7 SWAP5 0xAA 0xAA 0xDC LOG1 0xC9 REVERT 0xDC PUSH20 0xB6BB53FD4FD16BC8EA94A098F164736F6C634300 ADDMOD XOR STOP CALLER "},"methodIdentifiers":{"config()":"79502c55","fulfillRandomness(bytes32,uint256)":"1f1f897f","gameCounter()":"2e0be39a","games(uint256)":"117a5b90","getGame(uint256)":"a2f77bcc","getPendingGame(uint256)":"3d598f80","getPrizePool()":"884bf67c","initialize(address,uint256,uint256,uint16)":"cbb6d6bd","owner()":"8da5cb5b","pause()":"8456cb59","pendingGames(uint256)":"579e94ee","play(uint256,uint8,bool)":"caf50828","prizePool()":"719ce73e","pythVRF()":"772d84c4","renounceOwnership()":"715018a6","setPythVRF(address)":"83ba98ae","token()":"fc0c546a","transferOwnership(address)":"f2fde38b","unpause()":"3f4ba83a","vrfRequestToGame(bytes32)":"8a7626d1"}}}}}