{"contracts/casino/Dice.sol":{"Dice":{"abi":[{"inputs":[{"internalType":"address","name":"_owner","type":"address"},{"internalType":"address","name":"_token","type":"address"},{"internalType":"address","name":"_pythVRF","type":"address"}],"stateMutability":"nonpayable","type":"constructor"},{"inputs":[],"name":"BetTooHigh","type":"error"},{"inputs":[],"name":"BetTooLow","type":"error"},{"inputs":[{"internalType":"address","name":"owner","type":"address"}],"name":"OwnableInvalidOwner","type":"error"},{"inputs":[{"internalType":"address","name":"account","type":"address"}],"name":"OwnableUnauthorizedAccount","type":"error"},{"inputs":[],"name":"ReentrancyGuardReentrantCall","type":"error"},{"inputs":[{"internalType":"address","name":"token","type":"address"}],"name":"SafeERC20FailedOperation","type":"error"},{"anonymous":false,"inputs":[{"indexed":true,"internalType":"uint256","name":"gameId","type":"uint256"},{"indexed":false,"internalType":"uint256","name":"roll","type":"uint256"},{"indexed":false,"internalType":"uint256","name":"reward","type":"uint256"},{"indexed":false,"internalType":"uint8","name":"streak","type":"uint8"},{"indexed":false,"internalType":"uint256","name":"lootRarity","type":"uint256"}],"name":"GameSettled","type":"event"},{"anonymous":false,"inputs":[{"indexed":true,"internalType":"uint256","name":"gameId","type":"uint256"},{"indexed":true,"internalType":"address","name":"player","type":"address"}],"name":"GameStarted","type":"event"},{"anonymous":false,"inputs":[{"indexed":true,"internalType":"address","name":"previousOwner","type":"address"},{"indexed":true,"internalType":"address","name":"newOwner","type":"address"}],"name":"OwnershipTransferred","type":"event"},{"inputs":[],"name":"config","outputs":[{"internalType":"address","name":"treasury","type":"address"},{"internalType":"uint256","name":"minPlay","type":"uint256"},{"internalType":"uint256","name":"maxPlay","type":"uint256"},{"internalType":"uint16","name":"houseEdgeBps","type":"uint16"},{"internalType":"bool","name":"paused","type":"bool"}],"stateMutability":"view","type":"function"},{"inputs":[{"internalType":"bytes32","name":"requestId","type":"bytes32"},{"internalType":"uint256","name":"randomness","type":"uint256"}],"name":"fulfillRandomness","outputs":[],"stateMutability":"nonpayable","type":"function"},{"inputs":[],"name":"gameCounter","outputs":[{"internalType":"uint256","name":"","type":"uint256"}],"stateMutability":"view","type":"function"},{"inputs":[{"internalType":"uint256","name":"","type":"uint256"}],"name":"games","outputs":[{"internalType":"address","name":"player","type":"address"},{"internalType":"uint256","name":"gameId","type":"uint256"},{"internalType":"uint256","name":"roll","type":"uint256"},{"internalType":"uint256","name":"reward","type":"uint256"},{"internalType":"uint8","name":"streak","type":"uint8"},{"internalType":"uint256","name":"lootRarity","type":"uint256"}],"stateMutability":"view","type":"function"},{"inputs":[{"internalType":"uint256","name":"gameId","type":"uint256"}],"name":"getGame","outputs":[{"components":[{"internalType":"address","name":"player","type":"address"},{"internalType":"uint256","name":"gameId","type":"uint256"},{"internalType":"uint256","name":"roll","type":"uint256"},{"internalType":"uint256","name":"reward","type":"uint256"},{"internalType":"uint8","name":"streak","type":"uint8"},{"internalType":"uint256","name":"lootRarity","type":"uint256"}],"internalType":"struct Dice.GameResult","name":"","type":"tuple"}],"stateMutability":"view","type":"function"},{"inputs":[{"internalType":"uint256","name":"gameId","type":"uint256"}],"name":"getPendingGame","outputs":[{"components":[{"internalType":"address","name":"player","type":"address"},{"internalType":"uint256","name":"amount","type":"uint256"},{"internalType":"uint8","name":"target","type":"uint8"},{"internalType":"bool","name":"rollUnder","type":"bool"},{"internalType":"uint8","name":"streak","type":"uint8"},{"internalType":"uint256","name":"multiplierBps","type":"uint256"}],"internalType":"struct Dice.PendingGame","name":"","type":"tuple"}],"stateMutability":"view","type":"function"},{"inputs":[],"name":"getPrizePool","outputs":[{"internalType":"uint256","name":"","type":"uint256"}],"stateMutability":"view","type":"function"},{"inputs":[{"internalType":"address","name":"treasury","type":"address"},{"internalType":"uint256","name":"minPlay","type":"uint256"},{"internalType":"uint256","name":"maxPlay","type":"uint256"},{"internalType":"uint16","name":"houseEdgeBps","type":"uint16"}],"name":"initialize","outputs":[],"stateMutability":"nonpayable","type":"function"},{"inputs":[],"name":"owner","outputs":[{"internalType":"address","name":"","type":"address"}],"stateMutability":"view","type":"function"},{"inputs":[],"name":"pause","outputs":[],"stateMutability":"nonpayable","type":"function"},{"inputs":[{"internalType":"uint256","name":"","type":"uint256"}],"name":"pendingGames","outputs":[{"internalType":"address","name":"player","type":"address"},{"internalType":"uint256","name":"amount","type":"uint256"},{"internalType":"uint8","name":"target","type":"uint8"},{"internalType":"bool","name":"rollUnder","type":"bool"},{"internalType":"uint8","name":"streak","type":"uint8"},{"internalType":"uint256","name":"multiplierBps","type":"uint256"}],"stateMutability":"view","type":"function"},{"inputs":[{"internalType":"uint256","name":"amount","type":"uint256"},{"internalType":"uint8","name":"target","type":"uint8"},{"internalType":"bool","name":"rollUnder","type":"bool"}],"name":"play","outputs":[],"stateMutability":"payable","type":"function"},{"inputs":[],"name":"prizePool","outputs":[{"internalType":"uint256","name":"","type":"uint256"}],"stateMutability":"view","type":"function"},{"inputs":[],"name":"pythVRF","outputs":[{"internalType":"contract IPythVRF","name":"","type":"address"}],"stateMutability":"view","type":"function"},{"inputs":[],"name":"renounceOwnership","outputs":[],"stateMutability":"nonpayable","type":"function"},{"inputs":[{"internalType":"address","name":"_pythVRF","type":"address"}],"name":"setPythVRF","outputs":[],"stateMutability":"nonpayable","type":"function"},{"inputs":[],"name":"token","outputs":[{"internalType":"address","name":"","type":"address"}],"stateMutability":"view","type":"function"},{"inputs":[{"internalType":"address","name":"newOwner","type":"address"}],"name":"transferOwnership","outputs":[],"stateMutability":"nonpayable","type":"function"},{"inputs":[],"name":"unpause","outputs":[],"stateMutability":"nonpayable","type":"function"},{"inputs":[{"internalType":"bytes32","name":"","type":"bytes32"}],"name":"vrfRequestToGame","outputs":[{"internalType":"uint256","name":"","type":"uint256"}],"stateMutability":"view","type":"function"}],"evm":{"bytecode":{"linkReferences":{},"object":"6080346100f057601f6111f538819003918201601f19168301916001600160401b038311848410176100f5578084926060946040528339810103126100f0576100478161010b565b61005f60406100586020850161010b565b930161010b565b6001600160a01b03918216919082156100d757816000549460018060a01b03199480868816176000558260405197167f8be0079c531659141344cd1fd0a4f28419497f9722a3daafe3b4186f6b6457e0600080a36001805516836007541617600755169060065416176006556110d590816101208239f35b604051631e4fbdf760e01b815260006004820152602490fd5b600080fd5b634e487b7160e01b600052604160045260246000fd5b51906001600160a01b03821682036100f05756fe608060408181526004918236101561001657600080fd5b600092833560e01c918263117a5b9014610f24575081631f1f897f14610a545781632e0be39a14610a355781633d598f80146109835781633f4ba83a1461095b578163579e94ee146108ed578163715018a614610893578163719ce73e1461078a578163772d84c41461086a57816379502c551461081957816383ba98ae146107d95781638456cb59146107a9578163884bf67c1461078a5781638a7626d1146107625781638da5cb5b1461073a578163a2f77bcc14610692578163caf5082814610288578163cbb6d6bd146101bc578163f2fde38b1461012c575063fc0c546a1461010157600080fd5b3461012857816003193601126101285760075490516001600160a01b039091168152602090f35b5080fd5b9050346101b85760203660031901126101b857610147610f8f565b90610150611073565b6001600160a01b039182169283156101a2575050600054826001600160601b0360a01b821617600055167f8be0079c531659141344cd1fd0a4f28419497f9722a3daafe3b4186f6b6457e0600080a380f35b51631e4fbdf760e01b8152908101849052602490fd5b8280fd5b919050346101b85760803660031901126101b8576101d8610f8f565b91602435604435926064359461ffff8616809603610284576101f8611073565b81519060a0820182811067ffffffffffffffff82111761026f5783526001600160a01b03168082526020820184905291810185905260608101869052608001869052600280546001600160a01b0319169091179055600355556005805462ffffff191690911782151560101b62ff00001617905580f35b604186634e487b7160e01b6000525260246000fd5b8680fd5b839150606036600319011261012857803560249384359160ff831680930361068e57604435908115158092036104ac576001946002865414610680576002865560ff60055460101c16610655578415158061064b575b156106185760035481549083106106095782116105fb576007546001600160a01b0390811680610551575082340361051d5761031f600a8404600954610faa565b600955878080808685600254165af13d15610518573d67ffffffffffffffff81116105065786519061035b601f8201601f19166020018361101f565b81528960203d92013e5b156104d2575b600854986000198a146104c157508688990195866008558686519161038f83610fed565b3383528a60209788978886019081528a860193845260608601918252868b608088019480865260a08901978189528152600a8c52209651166001600160601b0360a01b875416178655518c86015560028501925160ff1683549151151560081b61ff00169161ffff1916171782555160ff1661041d919062ff000082549160101b169062ff00001916179055565b519060030155600654169084518098819363f8413b0760e01b83525af180156104b757839495879161047f575b508652600b905284205533907ffadb9547847a0c2c31f4c02590545e318d33d7aae99071caecf3fa4ce3cd7dca8480a3805580f35b82809550819392503d83116104b0575b610499818361101f565b810103126104ac5751839290600b61044a565b8580fd5b503d61048f565b82513d88823e3d90fd5b634e487b7160e01b89526011835288fd5b845162461bcd60e51b8152602081840152600f818b01526e151c985b9cd9995c8819985a5b1959608a1b6044820152606490fd5b634e487b7160e01b8a52604184528a8afd5b610365565b845162461bcd60e51b8152602081840152600f818b01526e082dadeeadce840dad2e6dac2e8c6d608b1b6044820152606490fd5b610560600a8504600954610faa565b60095560025486516323b872dd60e01b6020808301918252338e84019081529386166001600160a01b03168482015260408401889052928c92906105b190829060600103601f19810183528261101f565b519082855af1156105f157885188903d6105ea575050803b155b6105d5575061036b565b828a91875191635274afe760e01b8352820152fd5b14156105cb565b85513d8a823e3d90fd5b8351631765320160e11b8152fd5b50835163989e301760e01b8152fd5b606490600e89602087519362461bcd60e51b85528401528201526d125b9d985b1a59081d185c99d95d60921b6044820152fd5b50606485106102de565b606490600689602087519362461bcd60e51b85528401528201526514185d5cd95960d21b6044820152fd5b8351633ee5aeb560e01b8152fd5b8480fd5b9050346101b85760203660031901126101b85760ff8260c0946106b3611041565b5083358152600c602052208351926106ca84610fed565b60018060a01b038254169485855260018301546020860190815260028401549082870191825260a060058760038801549660608b01978852880154169660808a019788520154970196875282519788525160208801525190860152516060850152511660808301525160a0820152f35b505034610128578160031936011261012857905490516001600160a01b039091168152602090f35b9050346101b85760203660031901126101b8576020928291358152600b845220549051908152f35b5050346101285781600319360112610128576020906009549051908152f35b83346107d657806003193601126107d6576107c2611073565b6201000062ff000019600554161760055580f35b80fd5b83346107d65760203660031901126107d6576107f3610f8f565b6107fb611073565b60018060a01b03166001600160601b0360a01b600654161760065580f35b8284346107d657806003193601126107d6575060ff60a092600180851b036002541692600354915490600554928151958652602086015284015261ffff8116606084015260101c1615156080820152f35b50503461012857816003193601126101285760065490516001600160a01b039091168152602090f35b83346107d657806003193601126107d6576108ac611073565b600080546001600160a01b0319811682556001600160a01b03167f8be0079c531659141344cd1fd0a4f28419497f9722a3daafe3b4186f6b6457e08280a380f35b9050346101b85760203660031901126101b85760c0928291358152600a602052209060ff60018060a01b038354169260018101549260036002830154920154938151958652602086015282821690850152818160081c161515606085015260101c16608083015260a0820152f35b83346107d657806003193601126107d657610974611073565b62ff0000196005541660055580f35b9050346101b85760203660031901126101b85760c09282916109a3611041565b50358152600a602052209060ff8151916109bc83610fed565b60018060a01b0384541693848452600181015491602085019283528360028301549382870190828616825260a0600360608a0196858960081c16151588528560808c019960101c1689520154980197885283519889525160208901525116908601525115156060850152511660808301525160a0820152f35b5050346101285781600319360112610128576020906008549051908152f35b919050346101b857806003193601126101b857600654602491823591843591906001600160a01b039081163303610ef757828752602092600b84528288205496878952600a85528389208381541615610ec657606487069760018901809911610eb5579189939189936103e88d9a06998d8b8b600286019889549a8d60ff9c8d8160081c16600014610eab578d811684105b15610e8c575050505050505050600186865460101c1601868111610e7a57855462ff0000191660109190911b62ff0000161785558454868160081c16600014610e665780871660001901878111610e545787905b1660058110610e26578015610e14576305f5e100048761c350808311610e0a575b5061ffff9260101c166101f40282811691908203610dbd57918f92610bb492610b8391610faa565b806003870155610bad6001870154926005541692610ba5612710938492610fcd565b049283610fcd565b0490610fe0565b60058c1091808d8415610dd057505050600a8102818104600a1482151715610dbd57918f92916064610bf29304915b80610db2575b610d8d57610faa565b918860025416918960075416928a86541690803b156101b8578c5163a00c695160e01b81526001600160a01b0395861689820190815292909516602083015260408201869052849182908490829060600103925af18015610d8157610d43575b5050858d938b938d8f8b8d8f979d8e955b5416998c549882519b610c758d610fed565b8c52808c0194808652838d01968752898d60608101998a526080019b60101c168b5260a08d019b8c528252600c9052209851166001600160601b0360a01b895416178855516001880155516002870155516003860155840191511660ff19825416179055519060050155600a865289858120818155816001820155816002820155600301558952600b855288848120555460101c16928251958652850152830152606082015260807fd5b65df4dc0d2194a29b00663ea8f73bfe23b2752581682c4061c5db55b87a1891a280f35b67ffffffffffffffff949e9294829e9d9c9b9a9e11610d7057508c529b999a989997989697918589610c52565b634e487b7160e01b835260418f5282fd5b8f8b51903d90823e3d90fd5b90610dac9060095490610da4600a83048093610fe0565b600955610faa565b90610faa565b506009541515610be9565b50634e487b7160e01b8f5260118552828ffd5b6014909391929310610de7575b610bf29293610be3565b809250600591500281810460051482151715610dbd578f91606490910490610ddd565b91506101f4610b5b565b634e487b7160e01b8f5260128552828ffd5b895162461bcd60e51b81528086018c905260098185015268546f6f207269736b7960b81b6044820152606490fd5b634e487b7160e01b8f5260118552828ffd5b868116606403878111610e54578790610b3a565b50634e487b7160e01b8d52601183528cfd5b8e92939498509d879e998d8f99979b62ff00009d999d19169055610c63565b8d81168411610ae6565b634e487b7160e01b8b52601183528afd5b845162461bcd60e51b8152808301879052600c818a01526b496e76616c69642067616d6560a01b6044820152606490fd5b815162461bcd60e51b81526020818801526008818701526727b7363c902b292360c11b6044820152606490fd5b92915034610f8b576020366003190112610f8b578160c09482358152600c602052209060018060a01b0382541692600183015490600284015491600560ff6003870154958701541695015495875260208701528501526060840152608083015260a0820152f35b8380fd5b600435906001600160a01b0382168203610fa557565b600080fd5b91908201809211610fb757565b634e487b7160e01b600052601160045260246000fd5b81810292918115918404141715610fb757565b91908203918211610fb757565b60c0810190811067ffffffffffffffff82111761100957604052565b634e487b7160e01b600052604160045260246000fd5b90601f8019910116810190811067ffffffffffffffff82111761100957604052565b6040519061104e82610fed565b8160a06000918281528260208201528260408201528260608201528260808201520152565b6000546001600160a01b0316330361108757565b60405163118cdaa760e01b8152336004820152602490fdfea26469706673582212209a16118ec1cb3df13e4a012ce768c62be270908e286cfabd79212abec746f7ff64736f6c63430008180033","opcodes":"PUSH1 0x80 CALLVALUE PUSH2 0xF0 JUMPI PUSH1 0x1F PUSH2 0x11F5 CODESIZE DUP2 SWAP1 SUB SWAP2 DUP3 ADD PUSH1 0x1F NOT AND DUP4 ADD SWAP2 PUSH1 0x1 PUSH1 0x1 PUSH1 0x40 SHL SUB DUP4 GT DUP5 DUP5 LT OR PUSH2 0xF5 JUMPI DUP1 DUP5 SWAP3 PUSH1 0x60 SWAP5 PUSH1 0x40 MSTORE DUP4 CODECOPY DUP2 ADD SUB SLT PUSH2 0xF0 JUMPI PUSH2 0x47 DUP2 PUSH2 0x10B JUMP JUMPDEST PUSH2 0x5F PUSH1 0x40 PUSH2 0x58 PUSH1 0x20 DUP6 ADD PUSH2 0x10B JUMP JUMPDEST SWAP4 ADD PUSH2 0x10B JUMP JUMPDEST PUSH1 0x1 PUSH1 0x1 PUSH1 0xA0 SHL SUB SWAP2 DUP3 AND SWAP2 SWAP1 DUP3 ISZERO PUSH2 0xD7 JUMPI DUP2 PUSH1 0x0 SLOAD SWAP5 PUSH1 0x1 DUP1 PUSH1 0xA0 SHL SUB NOT SWAP5 DUP1 DUP7 DUP9 AND OR PUSH1 0x0 SSTORE DUP3 PUSH1 0x40 MLOAD SWAP8 AND PUSH32 0x8BE0079C531659141344CD1FD0A4F28419497F9722A3DAAFE3B4186F6B6457E0 PUSH1 0x0 DUP1 LOG3 PUSH1 0x1 DUP1 SSTORE AND DUP4 PUSH1 0x7 SLOAD AND OR PUSH1 0x7 SSTORE AND SWAP1 PUSH1 0x6 SLOAD AND OR PUSH1 0x6 SSTORE PUSH2 0x10D5 SWAP1 DUP2 PUSH2 0x120 DUP3 CODECOPY RETURN JUMPDEST PUSH1 0x40 MLOAD PUSH4 0x1E4FBDF7 PUSH1 0xE0 SHL DUP2 MSTORE PUSH1 0x0 PUSH1 0x4 DUP3 ADD MSTORE PUSH1 0x24 SWAP1 REVERT JUMPDEST PUSH1 0x0 DUP1 REVERT JUMPDEST PUSH4 0x4E487B71 PUSH1 0xE0 SHL PUSH1 0x0 MSTORE PUSH1 0x41 PUSH1 0x4 MSTORE PUSH1 0x24 PUSH1 0x0 REVERT JUMPDEST MLOAD SWAP1 PUSH1 0x1 PUSH1 0x1 PUSH1 0xA0 SHL SUB DUP3 AND DUP3 SUB PUSH2 0xF0 JUMPI JUMP INVALID PUSH1 0x80 PUSH1 0x40 DUP2 DUP2 MSTORE PUSH1 0x4 SWAP2 DUP3 CALLDATASIZE LT ISZERO PUSH2 0x16 JUMPI PUSH1 0x0 DUP1 REVERT JUMPDEST PUSH1 0x0 SWAP3 DUP4 CALLDATALOAD PUSH1 0xE0 SHR SWAP2 DUP3 PUSH4 0x117A5B90 EQ PUSH2 0xF24 JUMPI POP DUP2 PUSH4 0x1F1F897F EQ PUSH2 0xA54 JUMPI DUP2 PUSH4 0x2E0BE39A EQ PUSH2 0xA35 JUMPI DUP2 PUSH4 0x3D598F80 EQ PUSH2 0x983 JUMPI DUP2 PUSH4 0x3F4BA83A EQ PUSH2 0x95B JUMPI DUP2 PUSH4 0x579E94EE EQ PUSH2 0x8ED JUMPI DUP2 PUSH4 0x715018A6 EQ PUSH2 0x893 JUMPI DUP2 PUSH4 0x719CE73E EQ PUSH2 0x78A JUMPI DUP2 PUSH4 0x772D84C4 EQ PUSH2 0x86A JUMPI DUP2 PUSH4 0x79502C55 EQ PUSH2 0x819 JUMPI DUP2 PUSH4 0x83BA98AE EQ PUSH2 0x7D9 JUMPI DUP2 PUSH4 0x8456CB59 EQ PUSH2 0x7A9 JUMPI DUP2 PUSH4 0x884BF67C EQ PUSH2 0x78A JUMPI DUP2 PUSH4 0x8A7626D1 EQ PUSH2 0x762 JUMPI DUP2 PUSH4 0x8DA5CB5B EQ PUSH2 0x73A JUMPI DUP2 PUSH4 0xA2F77BCC EQ PUSH2 0x692 JUMPI DUP2 PUSH4 0xCAF50828 EQ PUSH2 0x288 JUMPI DUP2 PUSH4 0xCBB6D6BD EQ PUSH2 0x1BC JUMPI DUP2 PUSH4 0xF2FDE38B EQ PUSH2 0x12C JUMPI POP PUSH4 0xFC0C546A EQ PUSH2 0x101 JUMPI PUSH1 0x0 DUP1 REVERT JUMPDEST CALLVALUE PUSH2 0x128 JUMPI DUP2 PUSH1 0x3 NOT CALLDATASIZE ADD SLT PUSH2 0x128 JUMPI PUSH1 0x7 SLOAD SWAP1 MLOAD PUSH1 0x1 PUSH1 0x1 PUSH1 0xA0 SHL SUB SWAP1 SWAP2 AND DUP2 MSTORE PUSH1 0x20 SWAP1 RETURN JUMPDEST POP DUP1 REVERT JUMPDEST SWAP1 POP CALLVALUE PUSH2 0x1B8 JUMPI PUSH1 0x20 CALLDATASIZE PUSH1 0x3 NOT ADD SLT PUSH2 0x1B8 JUMPI PUSH2 0x147 PUSH2 0xF8F JUMP JUMPDEST SWAP1 PUSH2 0x150 PUSH2 0x1073 JUMP JUMPDEST PUSH1 0x1 PUSH1 0x1 PUSH1 0xA0 SHL SUB SWAP2 DUP3 AND SWAP3 DUP4 ISZERO PUSH2 0x1A2 JUMPI POP POP PUSH1 0x0 SLOAD DUP3 PUSH1 0x1 PUSH1 0x1 PUSH1 0x60 SHL SUB PUSH1 0xA0 SHL DUP3 AND OR PUSH1 0x0 SSTORE AND PUSH32 0x8BE0079C531659141344CD1FD0A4F28419497F9722A3DAAFE3B4186F6B6457E0 PUSH1 0x0 DUP1 LOG3 DUP1 RETURN JUMPDEST MLOAD PUSH4 0x1E4FBDF7 PUSH1 0xE0 SHL DUP2 MSTORE SWAP1 DUP2 ADD DUP5 SWAP1 MSTORE PUSH1 0x24 SWAP1 REVERT JUMPDEST DUP3 DUP1 REVERT JUMPDEST SWAP2 SWAP1 POP CALLVALUE PUSH2 0x1B8 JUMPI PUSH1 0x80 CALLDATASIZE PUSH1 0x3 NOT ADD SLT PUSH2 0x1B8 JUMPI PUSH2 0x1D8 PUSH2 0xF8F JUMP JUMPDEST SWAP2 PUSH1 0x24 CALLDATALOAD PUSH1 0x44 CALLDATALOAD SWAP3 PUSH1 0x64 CALLDATALOAD SWAP5 PUSH2 0xFFFF DUP7 AND DUP1 SWAP7 SUB PUSH2 0x284 JUMPI PUSH2 0x1F8 PUSH2 0x1073 JUMP JUMPDEST DUP2 MLOAD SWAP1 PUSH1 0xA0 DUP3 ADD DUP3 DUP2 LT PUSH8 0xFFFFFFFFFFFFFFFF DUP3 GT OR PUSH2 0x26F JUMPI DUP4 MSTORE PUSH1 0x1 PUSH1 0x1 PUSH1 0xA0 SHL SUB AND DUP1 DUP3 MSTORE PUSH1 0x20 DUP3 ADD DUP5 SWAP1 MSTORE SWAP2 DUP2 ADD DUP6 SWAP1 MSTORE PUSH1 0x60 DUP2 ADD DUP7 SWAP1 MSTORE PUSH1 0x80 ADD DUP7 SWAP1 MSTORE PUSH1 0x2 DUP1 SLOAD PUSH1 0x1 PUSH1 0x1 PUSH1 0xA0 SHL SUB NOT AND SWAP1 SWAP2 OR SWAP1 SSTORE PUSH1 0x3 SSTORE SSTORE PUSH1 0x5 DUP1 SLOAD PUSH3 0xFFFFFF NOT AND SWAP1 SWAP2 OR DUP3 ISZERO ISZERO PUSH1 0x10 SHL PUSH3 0xFF0000 AND OR SWAP1 SSTORE DUP1 RETURN JUMPDEST PUSH1 0x41 DUP7 PUSH4 0x4E487B71 PUSH1 0xE0 SHL PUSH1 0x0 MSTORE MSTORE PUSH1 0x24 PUSH1 0x0 REVERT JUMPDEST DUP7 DUP1 REVERT JUMPDEST DUP4 SWAP2 POP PUSH1 0x60 CALLDATASIZE PUSH1 0x3 NOT ADD SLT PUSH2 0x128 JUMPI DUP1 CALLDATALOAD PUSH1 0x24 SWAP4 DUP5 CALLDATALOAD SWAP2 PUSH1 0xFF DUP4 AND DUP1 SWAP4 SUB PUSH2 0x68E JUMPI PUSH1 0x44 CALLDATALOAD SWAP1 DUP2 ISZERO ISZERO DUP1 SWAP3 SUB PUSH2 0x4AC JUMPI PUSH1 0x1 SWAP5 PUSH1 0x2 DUP7 SLOAD EQ PUSH2 0x680 JUMPI PUSH1 0x2 DUP7 SSTORE PUSH1 0xFF PUSH1 0x5 SLOAD PUSH1 0x10 SHR AND PUSH2 0x655 JUMPI DUP5 ISZERO ISZERO DUP1 PUSH2 0x64B JUMPI JUMPDEST ISZERO PUSH2 0x618 JUMPI PUSH1 0x3 SLOAD DUP2 SLOAD SWAP1 DUP4 LT PUSH2 0x609 JUMPI DUP3 GT PUSH2 0x5FB JUMPI PUSH1 0x7 SLOAD PUSH1 0x1 PUSH1 0x1 PUSH1 0xA0 SHL SUB SWAP1 DUP2 AND DUP1 PUSH2 0x551 JUMPI POP DUP3 CALLVALUE SUB PUSH2 0x51D JUMPI PUSH2 0x31F PUSH1 0xA DUP5 DIV PUSH1 0x9 SLOAD PUSH2 0xFAA JUMP JUMPDEST PUSH1 0x9 SSTORE DUP8 DUP1 DUP1 DUP1 DUP7 DUP6 PUSH1 0x2 SLOAD AND GAS CALL RETURNDATASIZE ISZERO PUSH2 0x518 JUMPI RETURNDATASIZE PUSH8 0xFFFFFFFFFFFFFFFF DUP2 GT PUSH2 0x506 JUMPI DUP7 MLOAD SWAP1 PUSH2 0x35B PUSH1 0x1F DUP3 ADD PUSH1 0x1F NOT AND PUSH1 0x20 ADD DUP4 PUSH2 0x101F JUMP JUMPDEST DUP2 MSTORE DUP10 PUSH1 0x20 RETURNDATASIZE SWAP3 ADD RETURNDATACOPY JUMPDEST ISZERO PUSH2 0x4D2 JUMPI JUMPDEST PUSH1 0x8 SLOAD SWAP9 PUSH1 0x0 NOT DUP11 EQ PUSH2 0x4C1 JUMPI POP DUP7 DUP9 SWAP10 ADD SWAP6 DUP7 PUSH1 0x8 SSTORE DUP7 DUP7 MLOAD SWAP2 PUSH2 0x38F DUP4 PUSH2 0xFED JUMP JUMPDEST CALLER DUP4 MSTORE DUP11 PUSH1 0x20 SWAP8 DUP9 SWAP8 DUP9 DUP7 ADD SWAP1 DUP2 MSTORE DUP11 DUP7 ADD SWAP4 DUP5 MSTORE PUSH1 0x60 DUP7 ADD SWAP2 DUP3 MSTORE DUP7 DUP12 PUSH1 0x80 DUP9 ADD SWAP5 DUP1 DUP7 MSTORE PUSH1 0xA0 DUP10 ADD SWAP8 DUP2 DUP10 MSTORE DUP2 MSTORE PUSH1 0xA DUP13 MSTORE KECCAK256 SWAP7 MLOAD AND PUSH1 0x1 PUSH1 0x1 PUSH1 0x60 SHL SUB PUSH1 0xA0 SHL DUP8 SLOAD AND OR DUP7 SSTORE MLOAD DUP13 DUP7 ADD SSTORE PUSH1 0x2 DUP6 ADD SWAP3 MLOAD PUSH1 0xFF AND DUP4 SLOAD SWAP2 MLOAD ISZERO ISZERO PUSH1 0x8 SHL PUSH2 0xFF00 AND SWAP2 PUSH2 0xFFFF NOT AND OR OR DUP3 SSTORE MLOAD PUSH1 0xFF AND PUSH2 0x41D SWAP2 SWAP1 PUSH3 0xFF0000 DUP3 SLOAD SWAP2 PUSH1 0x10 SHL AND SWAP1 PUSH3 0xFF0000 NOT AND OR SWAP1 SSTORE JUMP JUMPDEST MLOAD SWAP1 PUSH1 0x3 ADD SSTORE PUSH1 0x6 SLOAD AND SWAP1 DUP5 MLOAD DUP1 SWAP9 DUP2 SWAP4 PUSH4 0xF8413B07 PUSH1 0xE0 SHL DUP4 MSTORE GAS CALL DUP1 ISZERO PUSH2 0x4B7 JUMPI DUP4 SWAP5 SWAP6 DUP8 SWAP2 PUSH2 0x47F JUMPI JUMPDEST POP DUP7 MSTORE PUSH1 0xB SWAP1 MSTORE DUP5 KECCAK256 SSTORE CALLER SWAP1 PUSH32 0xFADB9547847A0C2C31F4C02590545E318D33D7AAE99071CAECF3FA4CE3CD7DCA DUP5 DUP1 LOG3 DUP1 SSTORE DUP1 RETURN JUMPDEST DUP3 DUP1 SWAP6 POP DUP2 SWAP4 SWAP3 POP RETURNDATASIZE DUP4 GT PUSH2 0x4B0 JUMPI JUMPDEST PUSH2 0x499 DUP2 DUP4 PUSH2 0x101F JUMP JUMPDEST DUP2 ADD SUB SLT PUSH2 0x4AC JUMPI MLOAD DUP4 SWAP3 SWAP1 PUSH1 0xB PUSH2 0x44A JUMP JUMPDEST DUP6 DUP1 REVERT JUMPDEST POP RETURNDATASIZE PUSH2 0x48F JUMP JUMPDEST DUP3 MLOAD RETURNDATASIZE DUP9 DUP3 RETURNDATACOPY RETURNDATASIZE SWAP1 REVERT JUMPDEST PUSH4 0x4E487B71 PUSH1 0xE0 SHL DUP10 MSTORE PUSH1 0x11 DUP4 MSTORE DUP9 REVERT JUMPDEST DUP5 MLOAD PUSH3 0x461BCD PUSH1 0xE5 SHL DUP2 MSTORE PUSH1 0x20 DUP2 DUP5 ADD MSTORE PUSH1 0xF DUP2 DUP12 ADD MSTORE PUSH15 0x151C985B9CD9995C8819985A5B1959 PUSH1 0x8A SHL PUSH1 0x44 DUP3 ADD MSTORE PUSH1 0x64 SWAP1 REVERT JUMPDEST PUSH4 0x4E487B71 PUSH1 0xE0 SHL DUP11 MSTORE PUSH1 0x41 DUP5 MSTORE DUP11 DUP11 REVERT JUMPDEST PUSH2 0x365 JUMP JUMPDEST DUP5 MLOAD PUSH3 0x461BCD PUSH1 0xE5 SHL DUP2 MSTORE PUSH1 0x20 DUP2 DUP5 ADD MSTORE PUSH1 0xF DUP2 DUP12 ADD MSTORE PUSH15 0x82DADEEADCE840DAD2E6DAC2E8C6D PUSH1 0x8B SHL PUSH1 0x44 DUP3 ADD MSTORE PUSH1 0x64 SWAP1 REVERT JUMPDEST PUSH2 0x560 PUSH1 0xA DUP6 DIV PUSH1 0x9 SLOAD PUSH2 0xFAA JUMP JUMPDEST PUSH1 0x9 SSTORE PUSH1 0x2 SLOAD DUP7 MLOAD PUSH4 0x23B872DD PUSH1 0xE0 SHL PUSH1 0x20 DUP1 DUP4 ADD SWAP2 DUP3 MSTORE CALLER DUP15 DUP5 ADD SWAP1 DUP2 MSTORE SWAP4 DUP7 AND PUSH1 0x1 PUSH1 0x1 PUSH1 0xA0 SHL SUB AND DUP5 DUP3 ADD MSTORE PUSH1 0x40 DUP5 ADD DUP9 SWAP1 MSTORE SWAP3 DUP13 SWAP3 SWAP1 PUSH2 0x5B1 SWAP1 DUP3 SWAP1 PUSH1 0x60 ADD SUB PUSH1 0x1F NOT DUP2 ADD DUP4 MSTORE DUP3 PUSH2 0x101F JUMP JUMPDEST MLOAD SWAP1 DUP3 DUP6 GAS CALL ISZERO PUSH2 0x5F1 JUMPI DUP9 MLOAD DUP9 SWAP1 RETURNDATASIZE PUSH2 0x5EA JUMPI POP POP DUP1 EXTCODESIZE ISZERO JUMPDEST PUSH2 0x5D5 JUMPI POP PUSH2 0x36B JUMP JUMPDEST DUP3 DUP11 SWAP2 DUP8 MLOAD SWAP2 PUSH4 0x5274AFE7 PUSH1 0xE0 SHL DUP4 MSTORE DUP3 ADD MSTORE REVERT JUMPDEST EQ ISZERO PUSH2 0x5CB JUMP JUMPDEST DUP6 MLOAD RETURNDATASIZE DUP11 DUP3 RETURNDATACOPY RETURNDATASIZE SWAP1 REVERT JUMPDEST DUP4 MLOAD PUSH4 0x17653201 PUSH1 0xE1 SHL DUP2 MSTORE REVERT JUMPDEST POP DUP4 MLOAD PUSH4 0x989E3017 PUSH1 0xE0 SHL DUP2 MSTORE REVERT JUMPDEST PUSH1 0x64 SWAP1 PUSH1 0xE DUP10 PUSH1 0x20 DUP8 MLOAD SWAP4 PUSH3 0x461BCD PUSH1 0xE5 SHL DUP6 MSTORE DUP5 ADD MSTORE DUP3 ADD MSTORE PUSH14 0x125B9D985B1A59081D185C99D95D PUSH1 0x92 SHL PUSH1 0x44 DUP3 ADD MSTORE REVERT JUMPDEST POP PUSH1 0x64 DUP6 LT PUSH2 0x2DE JUMP JUMPDEST PUSH1 0x64 SWAP1 PUSH1 0x6 DUP10 PUSH1 0x20 DUP8 MLOAD SWAP4 PUSH3 0x461BCD PUSH1 0xE5 SHL DUP6 MSTORE DUP5 ADD MSTORE DUP3 ADD MSTORE PUSH6 0x14185D5CD959 PUSH1 0xD2 SHL PUSH1 0x44 DUP3 ADD MSTORE REVERT JUMPDEST DUP4 MLOAD PUSH4 0x3EE5AEB5 PUSH1 0xE0 SHL DUP2 MSTORE REVERT JUMPDEST DUP5 DUP1 REVERT JUMPDEST SWAP1 POP CALLVALUE PUSH2 0x1B8 JUMPI PUSH1 0x20 CALLDATASIZE PUSH1 0x3 NOT ADD SLT PUSH2 0x1B8 JUMPI PUSH1 0xFF DUP3 PUSH1 0xC0 SWAP5 PUSH2 0x6B3 PUSH2 0x1041 JUMP JUMPDEST POP DUP4 CALLDATALOAD DUP2 MSTORE PUSH1 0xC PUSH1 0x20 MSTORE KECCAK256 DUP4 MLOAD SWAP3 PUSH2 0x6CA DUP5 PUSH2 0xFED JUMP JUMPDEST PUSH1 0x1 DUP1 PUSH1 0xA0 SHL SUB DUP3 SLOAD AND SWAP5 DUP6 DUP6 MSTORE PUSH1 0x1 DUP4 ADD SLOAD PUSH1 0x20 DUP7 ADD SWAP1 DUP2 MSTORE PUSH1 0x2 DUP5 ADD SLOAD SWAP1 DUP3 DUP8 ADD SWAP2 DUP3 MSTORE PUSH1 0xA0 PUSH1 0x5 DUP8 PUSH1 0x3 DUP9 ADD SLOAD SWAP7 PUSH1 0x60 DUP12 ADD SWAP8 DUP9 MSTORE DUP9 ADD SLOAD AND SWAP7 PUSH1 0x80 DUP11 ADD SWAP8 DUP9 MSTORE ADD SLOAD SWAP8 ADD SWAP7 DUP8 MSTORE DUP3 MLOAD SWAP8 DUP9 MSTORE MLOAD PUSH1 0x20 DUP9 ADD MSTORE MLOAD SWAP1 DUP7 ADD MSTORE MLOAD PUSH1 0x60 DUP6 ADD MSTORE MLOAD AND PUSH1 0x80 DUP4 ADD MSTORE MLOAD PUSH1 0xA0 DUP3 ADD MSTORE RETURN JUMPDEST POP POP CALLVALUE PUSH2 0x128 JUMPI DUP2 PUSH1 0x3 NOT CALLDATASIZE ADD SLT PUSH2 0x128 JUMPI SWAP1 SLOAD SWAP1 MLOAD PUSH1 0x1 PUSH1 0x1 PUSH1 0xA0 SHL SUB SWAP1 SWAP2 AND DUP2 MSTORE PUSH1 0x20 SWAP1 RETURN JUMPDEST SWAP1 POP CALLVALUE PUSH2 0x1B8 JUMPI PUSH1 0x20 CALLDATASIZE PUSH1 0x3 NOT ADD SLT PUSH2 0x1B8 JUMPI PUSH1 0x20 SWAP3 DUP3 SWAP2 CALLDATALOAD DUP2 MSTORE PUSH1 0xB DUP5 MSTORE KECCAK256 SLOAD SWAP1 MLOAD SWAP1 DUP2 MSTORE RETURN JUMPDEST POP POP CALLVALUE PUSH2 0x128 JUMPI DUP2 PUSH1 0x3 NOT CALLDATASIZE ADD SLT PUSH2 0x128 JUMPI PUSH1 0x20 SWAP1 PUSH1 0x9 SLOAD SWAP1 MLOAD SWAP1 DUP2 MSTORE RETURN JUMPDEST DUP4 CALLVALUE PUSH2 0x7D6 JUMPI DUP1 PUSH1 0x3 NOT CALLDATASIZE ADD SLT PUSH2 0x7D6 JUMPI PUSH2 0x7C2 PUSH2 0x1073 JUMP JUMPDEST PUSH3 0x10000 PUSH3 0xFF0000 NOT PUSH1 0x5 SLOAD AND OR PUSH1 0x5 SSTORE DUP1 RETURN JUMPDEST DUP1 REVERT JUMPDEST DUP4 CALLVALUE PUSH2 0x7D6 JUMPI PUSH1 0x20 CALLDATASIZE PUSH1 0x3 NOT ADD SLT PUSH2 0x7D6 JUMPI PUSH2 0x7F3 PUSH2 0xF8F JUMP JUMPDEST PUSH2 0x7FB PUSH2 0x1073 JUMP JUMPDEST PUSH1 0x1 DUP1 PUSH1 0xA0 SHL SUB AND PUSH1 0x1 PUSH1 0x1 PUSH1 0x60 SHL SUB PUSH1 0xA0 SHL PUSH1 0x6 SLOAD AND OR PUSH1 0x6 SSTORE DUP1 RETURN JUMPDEST DUP3 DUP5 CALLVALUE PUSH2 0x7D6 JUMPI DUP1 PUSH1 0x3 NOT CALLDATASIZE ADD SLT PUSH2 0x7D6 JUMPI POP PUSH1 0xFF PUSH1 0xA0 SWAP3 PUSH1 0x1 DUP1 DUP6 SHL SUB PUSH1 0x2 SLOAD AND SWAP3 PUSH1 0x3 SLOAD SWAP2 SLOAD SWAP1 PUSH1 0x5 SLOAD SWAP3 DUP2 MLOAD SWAP6 DUP7 MSTORE PUSH1 0x20 DUP7 ADD MSTORE DUP5 ADD MSTORE PUSH2 0xFFFF DUP2 AND PUSH1 0x60 DUP5 ADD MSTORE PUSH1 0x10 SHR AND ISZERO ISZERO PUSH1 0x80 DUP3 ADD MSTORE RETURN JUMPDEST POP POP CALLVALUE PUSH2 0x128 JUMPI DUP2 PUSH1 0x3 NOT CALLDATASIZE ADD SLT PUSH2 0x128 JUMPI PUSH1 0x6 SLOAD SWAP1 MLOAD PUSH1 0x1 PUSH1 0x1 PUSH1 0xA0 SHL SUB SWAP1 SWAP2 AND DUP2 MSTORE PUSH1 0x20 SWAP1 RETURN JUMPDEST DUP4 CALLVALUE PUSH2 0x7D6 JUMPI DUP1 PUSH1 0x3 NOT CALLDATASIZE ADD SLT PUSH2 0x7D6 JUMPI PUSH2 0x8AC PUSH2 0x1073 JUMP JUMPDEST PUSH1 0x0 DUP1 SLOAD PUSH1 0x1 PUSH1 0x1 PUSH1 0xA0 SHL SUB NOT DUP2 AND DUP3 SSTORE PUSH1 0x1 PUSH1 0x1 PUSH1 0xA0 SHL SUB AND PUSH32 0x8BE0079C531659141344CD1FD0A4F28419497F9722A3DAAFE3B4186F6B6457E0 DUP3 DUP1 LOG3 DUP1 RETURN JUMPDEST SWAP1 POP CALLVALUE PUSH2 0x1B8 JUMPI PUSH1 0x20 CALLDATASIZE PUSH1 0x3 NOT ADD SLT PUSH2 0x1B8 JUMPI PUSH1 0xC0 SWAP3 DUP3 SWAP2 CALLDATALOAD DUP2 MSTORE PUSH1 0xA PUSH1 0x20 MSTORE KECCAK256 SWAP1 PUSH1 0xFF PUSH1 0x1 DUP1 PUSH1 0xA0 SHL SUB DUP4 SLOAD AND SWAP3 PUSH1 0x1 DUP2 ADD SLOAD SWAP3 PUSH1 0x3 PUSH1 0x2 DUP4 ADD SLOAD SWAP3 ADD SLOAD SWAP4 DUP2 MLOAD SWAP6 DUP7 MSTORE PUSH1 0x20 DUP7 ADD MSTORE DUP3 DUP3 AND SWAP1 DUP6 ADD MSTORE DUP2 DUP2 PUSH1 0x8 SHR AND ISZERO ISZERO PUSH1 0x60 DUP6 ADD MSTORE PUSH1 0x10 SHR AND PUSH1 0x80 DUP4 ADD MSTORE PUSH1 0xA0 DUP3 ADD MSTORE RETURN JUMPDEST DUP4 CALLVALUE PUSH2 0x7D6 JUMPI DUP1 PUSH1 0x3 NOT CALLDATASIZE ADD SLT PUSH2 0x7D6 JUMPI PUSH2 0x974 PUSH2 0x1073 JUMP JUMPDEST PUSH3 0xFF0000 NOT PUSH1 0x5 SLOAD AND PUSH1 0x5 SSTORE DUP1 RETURN JUMPDEST SWAP1 POP CALLVALUE PUSH2 0x1B8 JUMPI PUSH1 0x20 CALLDATASIZE PUSH1 0x3 NOT ADD SLT PUSH2 0x1B8 JUMPI PUSH1 0xC0 SWAP3 DUP3 SWAP2 PUSH2 0x9A3 PUSH2 0x1041 JUMP JUMPDEST POP CALLDATALOAD DUP2 MSTORE PUSH1 0xA PUSH1 0x20 MSTORE KECCAK256 SWAP1 PUSH1 0xFF DUP2 MLOAD SWAP2 PUSH2 0x9BC DUP4 PUSH2 0xFED JUMP JUMPDEST PUSH1 0x1 DUP1 PUSH1 0xA0 SHL SUB DUP5 SLOAD AND SWAP4 DUP5 DUP5 MSTORE PUSH1 0x1 DUP2 ADD SLOAD SWAP2 PUSH1 0x20 DUP6 ADD SWAP3 DUP4 MSTORE DUP4 PUSH1 0x2 DUP4 ADD SLOAD SWAP4 DUP3 DUP8 ADD SWAP1 DUP3 DUP7 AND DUP3 MSTORE PUSH1 0xA0 PUSH1 0x3 PUSH1 0x60 DUP11 ADD SWAP7 DUP6 DUP10 PUSH1 0x8 SHR AND ISZERO ISZERO DUP9 MSTORE DUP6 PUSH1 0x80 DUP13 ADD SWAP10 PUSH1 0x10 SHR AND DUP10 MSTORE ADD SLOAD SWAP9 ADD SWAP8 DUP9 MSTORE DUP4 MLOAD SWAP9 DUP10 MSTORE MLOAD PUSH1 0x20 DUP10 ADD MSTORE MLOAD AND SWAP1 DUP7 ADD MSTORE MLOAD ISZERO ISZERO PUSH1 0x60 DUP6 ADD MSTORE MLOAD AND PUSH1 0x80 DUP4 ADD MSTORE MLOAD PUSH1 0xA0 DUP3 ADD MSTORE RETURN JUMPDEST POP POP CALLVALUE PUSH2 0x128 JUMPI DUP2 PUSH1 0x3 NOT CALLDATASIZE ADD SLT PUSH2 0x128 JUMPI PUSH1 0x20 SWAP1 PUSH1 0x8 SLOAD SWAP1 MLOAD SWAP1 DUP2 MSTORE RETURN JUMPDEST SWAP2 SWAP1 POP CALLVALUE PUSH2 0x1B8 JUMPI DUP1 PUSH1 0x3 NOT CALLDATASIZE ADD SLT PUSH2 0x1B8 JUMPI PUSH1 0x6 SLOAD PUSH1 0x24 SWAP2 DUP3 CALLDATALOAD SWAP2 DUP5 CALLDATALOAD SWAP2 SWAP1 PUSH1 0x1 PUSH1 0x1 PUSH1 0xA0 SHL SUB SWAP1 DUP2 AND CALLER SUB PUSH2 0xEF7 JUMPI DUP3 DUP8 MSTORE PUSH1 0x20 SWAP3 PUSH1 0xB DUP5 MSTORE DUP3 DUP9 KECCAK256 SLOAD SWAP7 DUP8 DUP10 MSTORE PUSH1 0xA DUP6 MSTORE DUP4 DUP10 KECCAK256 DUP4 DUP2 SLOAD AND ISZERO PUSH2 0xEC6 JUMPI PUSH1 0x64 DUP8 MOD SWAP8 PUSH1 0x1 DUP10 ADD DUP1 SWAP10 GT PUSH2 0xEB5 JUMPI SWAP2 DUP10 SWAP4 SWAP2 DUP10 SWAP4 PUSH2 0x3E8 DUP14 SWAP11 MOD SWAP10 DUP14 DUP12 DUP12 PUSH1 0x2 DUP7 ADD SWAP9 DUP10 SLOAD SWAP11 DUP14 PUSH1 0xFF SWAP13 DUP14 DUP2 PUSH1 0x8 SHR AND PUSH1 0x0 EQ PUSH2 0xEAB JUMPI DUP14 DUP2 AND DUP5 LT JUMPDEST ISZERO PUSH2 0xE8C JUMPI POP POP POP POP POP POP POP POP PUSH1 0x1 DUP7 DUP7 SLOAD PUSH1 0x10 SHR AND ADD DUP7 DUP2 GT PUSH2 0xE7A JUMPI DUP6 SLOAD PUSH3 0xFF0000 NOT AND PUSH1 0x10 SWAP2 SWAP1 SWAP2 SHL PUSH3 0xFF0000 AND OR DUP6 SSTORE DUP5 SLOAD DUP7 DUP2 PUSH1 0x8 SHR AND PUSH1 0x0 EQ PUSH2 0xE66 JUMPI DUP1 DUP8 AND PUSH1 0x0 NOT ADD DUP8 DUP2 GT PUSH2 0xE54 JUMPI DUP8 SWAP1 JUMPDEST AND PUSH1 0x5 DUP2 LT PUSH2 0xE26 JUMPI DUP1 ISZERO PUSH2 0xE14 JUMPI PUSH4 0x5F5E100 DIV DUP8 PUSH2 0xC350 DUP1 DUP4 GT PUSH2 0xE0A JUMPI JUMPDEST POP PUSH2 0xFFFF SWAP3 PUSH1 0x10 SHR AND PUSH2 0x1F4 MUL DUP3 DUP2 AND SWAP2 SWAP1 DUP3 SUB PUSH2 0xDBD JUMPI SWAP2 DUP16 SWAP3 PUSH2 0xBB4 SWAP3 PUSH2 0xB83 SWAP2 PUSH2 0xFAA JUMP JUMPDEST DUP1 PUSH1 0x3 DUP8 ADD SSTORE PUSH2 0xBAD PUSH1 0x1 DUP8 ADD SLOAD SWAP3 PUSH1 0x5 SLOAD AND SWAP3 PUSH2 0xBA5 PUSH2 0x2710 SWAP4 DUP5 SWAP3 PUSH2 0xFCD JUMP JUMPDEST DIV SWAP3 DUP4 PUSH2 0xFCD JUMP JUMPDEST DIV SWAP1 PUSH2 0xFE0 JUMP JUMPDEST PUSH1 0x5 DUP13 LT SWAP2 DUP1 DUP14 DUP5 ISZERO PUSH2 0xDD0 JUMPI POP POP POP PUSH1 0xA DUP2 MUL DUP2 DUP2 DIV PUSH1 0xA EQ DUP3 ISZERO OR ISZERO PUSH2 0xDBD JUMPI SWAP2 DUP16 SWAP3 SWAP2 PUSH1 0x64 PUSH2 0xBF2 SWAP4 DIV SWAP2 JUMPDEST DUP1 PUSH2 0xDB2 JUMPI JUMPDEST PUSH2 0xD8D JUMPI PUSH2 0xFAA JUMP JUMPDEST SWAP2 DUP9 PUSH1 0x2 SLOAD AND SWAP2 DUP10 PUSH1 0x7 SLOAD AND SWAP3 DUP11 DUP7 SLOAD AND SWAP1 DUP1 EXTCODESIZE ISZERO PUSH2 0x1B8 JUMPI DUP13 MLOAD PUSH4 0xA00C6951 PUSH1 0xE0 SHL DUP2 MSTORE PUSH1 0x1 PUSH1 0x1 PUSH1 0xA0 SHL SUB SWAP6 DUP7 AND DUP10 DUP3 ADD SWAP1 DUP2 MSTORE SWAP3 SWAP1 SWAP6 AND PUSH1 0x20 DUP4 ADD MSTORE PUSH1 0x40 DUP3 ADD DUP7 SWAP1 MSTORE DUP5 SWAP2 DUP3 SWAP1 DUP5 SWAP1 DUP3 SWAP1 PUSH1 0x60 ADD SUB SWAP3 GAS CALL DUP1 ISZERO PUSH2 0xD81 JUMPI PUSH2 0xD43 JUMPI JUMPDEST POP POP DUP6 DUP14 SWAP4 DUP12 SWAP4 DUP14 DUP16 DUP12 DUP14 DUP16 SWAP8 SWAP14 DUP15 SWAP6 JUMPDEST SLOAD AND SWAP10 DUP13 SLOAD SWAP9 DUP3 MLOAD SWAP12 PUSH2 0xC75 DUP14 PUSH2 0xFED JUMP JUMPDEST DUP13 MSTORE DUP1 DUP13 ADD SWAP5 DUP1 DUP7 MSTORE DUP4 DUP14 ADD SWAP7 DUP8 MSTORE DUP10 DUP14 PUSH1 0x60 DUP2 ADD SWAP10 DUP11 MSTORE PUSH1 0x80 ADD SWAP12 PUSH1 0x10 SHR AND DUP12 MSTORE PUSH1 0xA0 DUP14 ADD SWAP12 DUP13 MSTORE DUP3 MSTORE PUSH1 0xC SWAP1 MSTORE KECCAK256 SWAP9 MLOAD AND PUSH1 0x1 PUSH1 0x1 PUSH1 0x60 SHL SUB PUSH1 0xA0 SHL DUP10 SLOAD AND OR DUP9 SSTORE MLOAD PUSH1 0x1 DUP9 ADD SSTORE MLOAD PUSH1 0x2 DUP8 ADD SSTORE MLOAD PUSH1 0x3 DUP7 ADD SSTORE DUP5 ADD SWAP2 MLOAD AND PUSH1 0xFF NOT DUP3 SLOAD AND OR SWAP1 SSTORE MLOAD SWAP1 PUSH1 0x5 ADD SSTORE PUSH1 0xA DUP7 MSTORE DUP10 DUP6 DUP2 KECCAK256 DUP2 DUP2 SSTORE DUP2 PUSH1 0x1 DUP3 ADD SSTORE DUP2 PUSH1 0x2 DUP3 ADD SSTORE PUSH1 0x3 ADD SSTORE DUP10 MSTORE PUSH1 0xB DUP6 MSTORE DUP9 DUP5 DUP2 KECCAK256 SSTORE SLOAD PUSH1 0x10 SHR AND SWAP3 DUP3 MLOAD SWAP6 DUP7 MSTORE DUP6 ADD MSTORE DUP4 ADD MSTORE PUSH1 0x60 DUP3 ADD MSTORE PUSH1 0x80 PUSH32 0xD5B65DF4DC0D2194A29B00663EA8F73BFE23B2752581682C4061C5DB55B87A18 SWAP2 LOG2 DUP1 RETURN JUMPDEST PUSH8 0xFFFFFFFFFFFFFFFF SWAP5 SWAP15 SWAP3 SWAP5 DUP3 SWAP15 SWAP14 SWAP13 SWAP12 SWAP11 SWAP15 GT PUSH2 0xD70 JUMPI POP DUP13 MSTORE SWAP12 SWAP10 SWAP11 SWAP9 SWAP10 SWAP8 SWAP9 SWAP7 SWAP8 SWAP2 DUP6 DUP10 PUSH2 0xC52 JUMP JUMPDEST PUSH4 0x4E487B71 PUSH1 0xE0 SHL DUP4 MSTORE PUSH1 0x41 DUP16 MSTORE DUP3 REVERT JUMPDEST DUP16 DUP12 MLOAD SWAP1 RETURNDATASIZE SWAP1 DUP3 RETURNDATACOPY RETURNDATASIZE SWAP1 REVERT JUMPDEST SWAP1 PUSH2 0xDAC SWAP1 PUSH1 0x9 SLOAD SWAP1 PUSH2 0xDA4 PUSH1 0xA DUP4 DIV DUP1 SWAP4 PUSH2 0xFE0 JUMP JUMPDEST PUSH1 0x9 SSTORE PUSH2 0xFAA JUMP JUMPDEST SWAP1 PUSH2 0xFAA JUMP JUMPDEST POP PUSH1 0x9 SLOAD ISZERO ISZERO PUSH2 0xBE9 JUMP JUMPDEST POP PUSH4 0x4E487B71 PUSH1 0xE0 SHL DUP16 MSTORE PUSH1 0x11 DUP6 MSTORE DUP3 DUP16 REVERT JUMPDEST PUSH1 0x14 SWAP1 SWAP4 SWAP2 SWAP3 SWAP4 LT PUSH2 0xDE7 JUMPI JUMPDEST PUSH2 0xBF2 SWAP3 SWAP4 PUSH2 0xBE3 JUMP JUMPDEST DUP1 SWAP3 POP PUSH1 0x5 SWAP2 POP MUL DUP2 DUP2 DIV PUSH1 0x5 EQ DUP3 ISZERO OR ISZERO PUSH2 0xDBD JUMPI DUP16 SWAP2 PUSH1 0x64 SWAP1 SWAP2 DIV SWAP1 PUSH2 0xDDD JUMP JUMPDEST SWAP2 POP PUSH2 0x1F4 PUSH2 0xB5B JUMP JUMPDEST PUSH4 0x4E487B71 PUSH1 0xE0 SHL DUP16 MSTORE PUSH1 0x12 DUP6 MSTORE DUP3 DUP16 REVERT JUMPDEST DUP10 MLOAD PUSH3 0x461BCD PUSH1 0xE5 SHL DUP2 MSTORE DUP1 DUP7 ADD DUP13 SWAP1 MSTORE PUSH1 0x9 DUP2 DUP6 ADD MSTORE PUSH9 0x546F6F207269736B79 PUSH1 0xB8 SHL PUSH1 0x44 DUP3 ADD MSTORE PUSH1 0x64 SWAP1 REVERT JUMPDEST PUSH4 0x4E487B71 PUSH1 0xE0 SHL DUP16 MSTORE PUSH1 0x11 DUP6 MSTORE DUP3 DUP16 REVERT JUMPDEST DUP7 DUP2 AND PUSH1 0x64 SUB DUP8 DUP2 GT PUSH2 0xE54 JUMPI DUP8 SWAP1 PUSH2 0xB3A JUMP JUMPDEST POP PUSH4 0x4E487B71 PUSH1 0xE0 SHL DUP14 MSTORE PUSH1 0x11 DUP4 MSTORE DUP13 REVERT JUMPDEST DUP15 SWAP3 SWAP4 SWAP5 SWAP9 POP SWAP14 DUP8 SWAP15 SWAP10 DUP14 DUP16 SWAP10 SWAP8 SWAP12 PUSH3 0xFF0000 SWAP14 SWAP10 SWAP14 NOT AND SWAP1 SSTORE PUSH2 0xC63 JUMP JUMPDEST DUP14 DUP2 AND DUP5 GT PUSH2 0xAE6 JUMP JUMPDEST PUSH4 0x4E487B71 PUSH1 0xE0 SHL DUP12 MSTORE PUSH1 0x11 DUP4 MSTORE DUP11 REVERT JUMPDEST DUP5 MLOAD PUSH3 0x461BCD PUSH1 0xE5 SHL DUP2 MSTORE DUP1 DUP4 ADD DUP8 SWAP1 MSTORE PUSH1 0xC DUP2 DUP11 ADD MSTORE PUSH12 0x496E76616C69642067616D65 PUSH1 0xA0 SHL PUSH1 0x44 DUP3 ADD MSTORE PUSH1 0x64 SWAP1 REVERT JUMPDEST DUP2 MLOAD PUSH3 0x461BCD PUSH1 0xE5 SHL DUP2 MSTORE PUSH1 0x20 DUP2 DUP9 ADD MSTORE PUSH1 0x8 DUP2 DUP8 ADD MSTORE PUSH8 0x27B7363C902B2923 PUSH1 0xC1 SHL PUSH1 0x44 DUP3 ADD MSTORE PUSH1 0x64 SWAP1 REVERT JUMPDEST SWAP3 SWAP2 POP CALLVALUE PUSH2 0xF8B JUMPI PUSH1 0x20 CALLDATASIZE PUSH1 0x3 NOT ADD SLT PUSH2 0xF8B JUMPI DUP2 PUSH1 0xC0 SWAP5 DUP3 CALLDATALOAD DUP2 MSTORE PUSH1 0xC PUSH1 0x20 MSTORE KECCAK256 SWAP1 PUSH1 0x1 DUP1 PUSH1 0xA0 SHL SUB DUP3 SLOAD AND SWAP3 PUSH1 0x1 DUP4 ADD SLOAD SWAP1 PUSH1 0x2 DUP5 ADD SLOAD SWAP2 PUSH1 0x5 PUSH1 0xFF PUSH1 0x3 DUP8 ADD SLOAD SWAP6 DUP8 ADD SLOAD AND SWAP6 ADD SLOAD SWAP6 DUP8 MSTORE PUSH1 0x20 DUP8 ADD MSTORE DUP6 ADD MSTORE PUSH1 0x60 DUP5 ADD MSTORE PUSH1 0x80 DUP4 ADD MSTORE PUSH1 0xA0 DUP3 ADD MSTORE RETURN JUMPDEST DUP4 DUP1 REVERT JUMPDEST PUSH1 0x4 CALLDATALOAD SWAP1 PUSH1 0x1 PUSH1 0x1 PUSH1 0xA0 SHL SUB DUP3 AND DUP3 SUB PUSH2 0xFA5 JUMPI JUMP JUMPDEST PUSH1 0x0 DUP1 REVERT JUMPDEST SWAP2 SWAP1 DUP3 ADD DUP1 SWAP3 GT PUSH2 0xFB7 JUMPI JUMP JUMPDEST PUSH4 0x4E487B71 PUSH1 0xE0 SHL PUSH1 0x0 MSTORE PUSH1 0x11 PUSH1 0x4 MSTORE PUSH1 0x24 PUSH1 0x0 REVERT JUMPDEST DUP2 DUP2 MUL SWAP3 SWAP2 DUP2 ISZERO SWAP2 DUP5 DIV EQ OR ISZERO PUSH2 0xFB7 JUMPI JUMP JUMPDEST SWAP2 SWAP1 DUP3 SUB SWAP2 DUP3 GT PUSH2 0xFB7 JUMPI JUMP JUMPDEST PUSH1 0xC0 DUP2 ADD SWAP1 DUP2 LT PUSH8 0xFFFFFFFFFFFFFFFF DUP3 GT OR PUSH2 0x1009 JUMPI PUSH1 0x40 MSTORE JUMP JUMPDEST PUSH4 0x4E487B71 PUSH1 0xE0 SHL PUSH1 0x0 MSTORE PUSH1 0x41 PUSH1 0x4 MSTORE PUSH1 0x24 PUSH1 0x0 REVERT JUMPDEST SWAP1 PUSH1 0x1F DUP1 NOT SWAP2 ADD AND DUP2 ADD SWAP1 DUP2 LT PUSH8 0xFFFFFFFFFFFFFFFF DUP3 GT OR PUSH2 0x1009 JUMPI PUSH1 0x40 MSTORE JUMP JUMPDEST PUSH1 0x40 MLOAD SWAP1 PUSH2 0x104E DUP3 PUSH2 0xFED JUMP JUMPDEST DUP2 PUSH1 0xA0 PUSH1 0x0 SWAP2 DUP3 DUP2 MSTORE DUP3 PUSH1 0x20 DUP3 ADD MSTORE DUP3 PUSH1 0x40 DUP3 ADD MSTORE DUP3 PUSH1 0x60 DUP3 ADD MSTORE DUP3 PUSH1 0x80 DUP3 ADD MSTORE ADD MSTORE JUMP JUMPDEST PUSH1 0x0 SLOAD PUSH1 0x1 PUSH1 0x1 PUSH1 0xA0 SHL SUB AND CALLER SUB PUSH2 0x1087 JUMPI JUMP JUMPDEST PUSH1 0x40 MLOAD PUSH4 0x118CDAA7 PUSH1 0xE0 SHL DUP2 MSTORE CALLER PUSH1 0x4 DUP3 ADD MSTORE PUSH1 0x24 SWAP1 REVERT INVALID LOG2 PUSH5 0x6970667358 0x22 SLT KECCAK256 SWAP11 AND GT DUP15 0xC1 0xCB RETURNDATASIZE CALL RETURNDATACOPY BLOBBASEFEE ADD 0x2C 0xE7 PUSH9 0xC62BE270908E286CFA 0xBD PUSH26 0x212ABEC746F7FF64736F6C634300081800330000000000000000 "},"methodIdentifiers":{"config()":"79502c55","fulfillRandomness(bytes32,uint256)":"1f1f897f","gameCounter()":"2e0be39a","games(uint256)":"117a5b90","getGame(uint256)":"a2f77bcc","getPendingGame(uint256)":"3d598f80","getPrizePool()":"884bf67c","initialize(address,uint256,uint256,uint16)":"cbb6d6bd","owner()":"8da5cb5b","pause()":"8456cb59","pendingGames(uint256)":"579e94ee","play(uint256,uint8,bool)":"caf50828","prizePool()":"719ce73e","pythVRF()":"772d84c4","renounceOwnership()":"715018a6","setPythVRF(address)":"83ba98ae","token()":"fc0c546a","transferOwnership(address)":"f2fde38b","unpause()":"3f4ba83a","vrfRequestToGame(bytes32)":"8a7626d1"}}}}}