{"contracts/casino/Crash.sol":{"Crash":{"abi":[{"inputs":[{"internalType":"address","name":"_owner","type":"address"},{"internalType":"address","name":"_token","type":"address"},{"internalType":"address","name":"_pythVRF","type":"address"}],"stateMutability":"nonpayable","type":"constructor"},{"inputs":[],"name":"BetTooHigh","type":"error"},{"inputs":[],"name":"BetTooLow","type":"error"},{"inputs":[{"internalType":"address","name":"owner","type":"address"}],"name":"OwnableInvalidOwner","type":"error"},{"inputs":[{"internalType":"address","name":"account","type":"address"}],"name":"OwnableUnauthorizedAccount","type":"error"},{"inputs":[],"name":"ReentrancyGuardReentrantCall","type":"error"},{"inputs":[{"internalType":"address","name":"token","type":"address"}],"name":"SafeERC20FailedOperation","type":"error"},{"anonymous":false,"inputs":[{"indexed":true,"internalType":"uint256","name":"gameId","type":"uint256"},{"indexed":false,"internalType":"uint256","name":"multiplier","type":"uint256"},{"indexed":false,"internalType":"uint256","name":"payout","type":"uint256"}],"name":"Cashout","type":"event"},{"anonymous":false,"inputs":[{"indexed":true,"internalType":"uint256","name":"gameId","type":"uint256"},{"indexed":false,"internalType":"uint256","name":"crashPoint","type":"uint256"}],"name":"GameCrashed","type":"event"},{"anonymous":false,"inputs":[{"indexed":true,"internalType":"uint256","name":"gameId","type":"uint256"},{"indexed":false,"internalType":"uint256","name":"crashPoint","type":"uint256"},{"indexed":false,"internalType":"uint256","name":"cashoutPoint","type":"uint256"},{"indexed":false,"internalType":"uint256","name":"reward","type":"uint256"},{"indexed":false,"internalType":"uint256","name":"lootRarity","type":"uint256"}],"name":"GameSettled","type":"event"},{"anonymous":false,"inputs":[{"indexed":true,"internalType":"uint256","name":"gameId","type":"uint256"},{"indexed":true,"internalType":"address","name":"player","type":"address"}],"name":"GameStarted","type":"event"},{"anonymous":false,"inputs":[{"indexed":true,"internalType":"address","name":"previousOwner","type":"address"},{"indexed":true,"internalType":"address","name":"newOwner","type":"address"}],"name":"OwnershipTransferred","type":"event"},{"inputs":[],"name":"MULTIPLIER_PER_SECOND","outputs":[{"internalType":"uint256","name":"","type":"uint256"}],"stateMutability":"view","type":"function"},{"inputs":[{"internalType":"uint256","name":"","type":"uint256"}],"name":"activeGames","outputs":[{"internalType":"address","name":"player","type":"address"},{"internalType":"uint256","name":"amount","type":"uint256"},{"internalType":"uint256","name":"crashPoint","type":"uint256"},{"internalType":"uint256","name":"gameStartedAt","type":"uint256"},{"internalType":"uint256","name":"autoCashout","type":"uint256"},{"internalType":"bool","name":"cashedOut","type":"bool"},{"internalType":"bool","name":"crashed","type":"bool"}],"stateMutability":"view","type":"function"},{"inputs":[{"internalType":"uint256","name":"gameId","type":"uint256"}],"name":"cashout","outputs":[],"stateMutability":"nonpayable","type":"function"},{"inputs":[{"internalType":"uint256","name":"gameId","type":"uint256"}],"name":"checkAutoCashout","outputs":[],"stateMutability":"nonpayable","type":"function"},{"inputs":[],"name":"config","outputs":[{"internalType":"address","name":"treasury","type":"address"},{"internalType":"uint256","name":"minPlay","type":"uint256"},{"internalType":"uint256","name":"maxPlay","type":"uint256"},{"internalType":"uint16","name":"houseEdgeBps","type":"uint16"},{"internalType":"bool","name":"paused","type":"bool"}],"stateMutability":"view","type":"function"},{"inputs":[{"internalType":"bytes32","name":"requestId","type":"bytes32"},{"internalType":"uint256","name":"randomness","type":"uint256"}],"name":"fulfillRandomness","outputs":[],"stateMutability":"nonpayable","type":"function"},{"inputs":[],"name":"gameCounter","outputs":[{"internalType":"uint256","name":"","type":"uint256"}],"stateMutability":"view","type":"function"},{"inputs":[{"internalType":"uint256","name":"","type":"uint256"}],"name":"games","outputs":[{"internalType":"address","name":"player","type":"address"},{"internalType":"uint256","name":"gameId","type":"uint256"},{"internalType":"uint256","name":"crashPoint","type":"uint256"},{"internalType":"uint256","name":"cashoutPoint","type":"uint256"},{"internalType":"uint256","name":"reward","type":"uint256"},{"internalType":"uint256","name":"lootRarity","type":"uint256"}],"stateMutability":"view","type":"function"},{"inputs":[{"internalType":"uint256","name":"gameId","type":"uint256"}],"name":"getActiveGame","outputs":[{"components":[{"internalType":"address","name":"player","type":"address"},{"internalType":"uint256","name":"amount","type":"uint256"},{"internalType":"uint256","name":"crashPoint","type":"uint256"},{"internalType":"uint256","name":"gameStartedAt","type":"uint256"},{"internalType":"uint256","name":"autoCashout","type":"uint256"},{"internalType":"bool","name":"cashedOut","type":"bool"},{"internalType":"bool","name":"crashed","type":"bool"}],"internalType":"struct Crash.ActiveGame","name":"","type":"tuple"}],"stateMutability":"view","type":"function"},{"inputs":[{"internalType":"uint256","name":"gameId","type":"uint256"}],"name":"getCurrentMultiplier","outputs":[{"internalType":"uint256","name":"","type":"uint256"}],"stateMutability":"view","type":"function"},{"inputs":[{"internalType":"uint256","name":"gameId","type":"uint256"}],"name":"getGame","outputs":[{"components":[{"internalType":"address","name":"player","type":"address"},{"internalType":"uint256","name":"gameId","type":"uint256"},{"internalType":"uint256","name":"crashPoint","type":"uint256"},{"internalType":"uint256","name":"cashoutPoint","type":"uint256"},{"internalType":"uint256","name":"reward","type":"uint256"},{"internalType":"uint256","name":"lootRarity","type":"uint256"}],"internalType":"struct Crash.GameResult","name":"","type":"tuple"}],"stateMutability":"view","type":"function"},{"inputs":[],"name":"getPrizePool","outputs":[{"internalType":"uint256","name":"","type":"uint256"}],"stateMutability":"view","type":"function"},{"inputs":[{"internalType":"address","name":"treasury","type":"address"},{"internalType":"uint256","name":"minPlay","type":"uint256"},{"internalType":"uint256","name":"maxPlay","type":"uint256"},{"internalType":"uint16","name":"houseEdgeBps","type":"uint16"}],"name":"initialize","outputs":[],"stateMutability":"nonpayable","type":"function"},{"inputs":[],"name":"owner","outputs":[{"internalType":"address","name":"","type":"address"}],"stateMutability":"view","type":"function"},{"inputs":[],"name":"pause","outputs":[],"stateMutability":"nonpayable","type":"function"},{"inputs":[{"internalType":"uint256","name":"amount","type":"uint256"},{"internalType":"uint256","name":"autoCashout","type":"uint256"}],"name":"placeBet","outputs":[],"stateMutability":"payable","type":"function"},{"inputs":[],"name":"prizePool","outputs":[{"internalType":"uint256","name":"","type":"uint256"}],"stateMutability":"view","type":"function"},{"inputs":[],"name":"pythVRF","outputs":[{"internalType":"contract IPythVRF","name":"","type":"address"}],"stateMutability":"view","type":"function"},{"inputs":[],"name":"renounceOwnership","outputs":[],"stateMutability":"nonpayable","type":"function"},{"inputs":[{"internalType":"address","name":"_pythVRF","type":"address"}],"name":"setPythVRF","outputs":[],"stateMutability":"nonpayable","type":"function"},{"inputs":[],"name":"token","outputs":[{"internalType":"address","name":"","type":"address"}],"stateMutability":"view","type":"function"},{"inputs":[{"internalType":"address","name":"newOwner","type":"address"}],"name":"transferOwnership","outputs":[],"stateMutability":"nonpayable","type":"function"},{"inputs":[],"name":"unpause","outputs":[],"stateMutability":"nonpayable","type":"function"},{"inputs":[{"internalType":"bytes32","name":"","type":"bytes32"}],"name":"vrfRequestToGame","outputs":[{"internalType":"uint256","name":"","type":"uint256"}],"stateMutability":"view","type":"function"}],"evm":{"bytecode":{"linkReferences":{},"object":"608034620000fc57601f62001a8738819003918201601f19168301916001600160401b038311848410176200010157808492606094604052833981010312620000fc576200004d8162000117565b620000696040620000616020850162000117565b930162000117565b6001600160a01b0391821691908215620000e357816000549460018060a01b03199480868816176000558260405197167f8be0079c531659141344cd1fd0a4f28419497f9722a3daafe3b4186f6b6457e0600080a360018055168360075416176007551690600654161760065561195a90816200012d8239f35b604051631e4fbdf760e01b815260006004820152602490fd5b600080fd5b634e487b7160e01b600052604160045260246000fd5b51906001600160a01b0382168203620000fc5756fe608060408181526004918236101561001657600080fd5b600092833560e01c918263117a5b90146115715750816313e4c714146114f85781631f1f897f146112735781632b452427146112565781632e0be39a146112375781633f4ba83a1461120f5781634afe62b514610e3e578163715018a614610de4578163719ce73e14610bf5578163772d84c414610dbb5781637825065814610cd257816379502c5514610c8157816383ba98ae14610c415781638456cb5914610c14578163884bf67c14610bf55781638a7626d114610bcd5781638b25e8c114610ba35781638da5cb5b14610b7b578163a2f77bcc14610ab7578163a9e732bb146106db578163cbb6d6bd1461060f578163f2fde38b14610583578163fbe995e714610158575063fc0c546a1461012d57600080fd5b3461015457816003193601126101545760075490516001600160a01b039091168152602090f35b5080fd5b9190503461057f5760208060031936011261057b578235808552600a825282852080546001600160a01b0390811695919086156105475760058201918254936101a460ff8616156117c5565b6101b460ff8660081c1615611806565b60028201948554996101c78b1515611849565b6101e060038501546101da811515611849565b426116b3565b9a6103e8928c8481029d8e04851490151715610534576127109c8d01809d1161053457908d9392918587019d8e54811015610219578580f35b82111561042f5750505061023a60018501548c5461ffff60055416916118d7565b95600160ff19825416179055846002541685600754168686541690823b1561042b578c5163a00c695160e01b81526001600160a01b039182168782019081529290911660208301526040820189905291849183919082908490829060600103925af18015610421576103f8575b50936103e59a88600589968996839b9a8f9e600a9f98819f9d898b6000805160206119058339815191529f6103b89d51868101908c825242848201528381526102ef81611675565b519020069b8c985416925493600c8c549683519c8d9661030e88611613565b875260a082880197828952868101998a52606081019a8b52608081019b8c52019b8c52835252209851166001600160601b0360a01b8954161788555160018801555160028701555160038601555190840155519101555493867fd66dbc1b5a153f9d6f370eabb4d4e003a977e0eaf0b4208d3aaa5643adadaec68c8051888152878d820152a254928a51948594859094939260609260808301968352602083015260408201520152565b0390a25b855252822060056000918281558260018201558260028201558260038201558260048201550155565b3880808080808080808981808080808580f35b9161040b819a9998959692979493611661565b61041d579392959697909194386102a7565b8880fd5b8b513d85823e3d90fd5b8480fd5b6103e59d5060809650946005928b8e938e600a9f9e9d9897839d6101016000805160206119058339815191529e9c61ffff1916179055865182810190858252428982015288815261047f81611675565b5190200699868b9751998a9661049488611613565b8752600c848801948786528389019687526060890197838952608060a0908b019a858c52019b8c52835252209851166001600160601b0360a01b8954161788555160018801555160028701555160038601555190840155519101555490847f3d8fdd92f5ba5b88f5fd67b85aa9626921ca9ac90511f3f3948c40fe0c1f86b4888b51858152a288519182528a878301528a898301526060820152a26103bc565b634e487b7160e01b8e526011855260248efd5b855162461bcd60e51b8152808401869052600e60248201526d11d85b59481b9bdd08199bdd5b9960921b6044820152606490fd5b8380fd5b8280fd5b90503461057f57602036600319011261057f5761059e6115d5565b906105a7611888565b6001600160a01b039182169283156105f9575050600054826001600160601b0360a01b821617600055167f8be0079c531659141344cd1fd0a4f28419497f9722a3daafe3b4186f6b6457e0600080a380f35b51631e4fbdf760e01b8152908101849052602490fd5b9190503461057f57608036600319011261057f5761062b6115d5565b91602435604435926064359461ffff86168096036106d75761064b611888565b81519060a0820182811067ffffffffffffffff8211176106c25783526001600160a01b03168082526020820184905291810185905260608101869052608001869052600280546001600160a01b0319169091179055600355556005805462ffffff191690911782151560101b62ff00001617905580f35b604186634e487b7160e01b6000525260246000fd5b8680fd5b9190503461057f5760208060031936011261057b5782356106fa6118b4565b808552600a8252828520805490946001600160a01b0391821691338303610a8457600587019182549161073060ff8416156117c5565b61074060ff8460081c1615611806565b6002890198895495610753871515611849565b61076660038301546101da811515611849565b966103e89586890298808a04881490151715610a7157612710988901809911610a71578d929190818a1015610a2257505050506107af60018201548761ffff60055416916118d7565b94600160ff198254161790558160025416938b8360075416958484541696813b1561057f578c5163a00c695160e01b8082526001600160a01b03928316898301908152929099166020830152604082018a90529291839182908490829060600103925af18015610a1857610a01575b50908b92918a518a8101908a8252428d8201528c815261083d81611675565b519020069460058610806109f6575b610946575b509361093f9a886005838a978a8f9c600a9f9e9d8f909a8a889f9c6000805160206119058339815191529f9c6103b89d541692600c8c549583519c8d9661089788611613565b875260a082880197828952868101998a52606081019a8b52608081019b8c52019b8c52835252209851166001600160601b0360a01b895416178855516001880155516002870155516003860155519084015551910155867fd66dbc1b5a153f9d6f370eabb4d4e003a977e0eaf0b4208d3aaa5643adadaec68c8051888152878d820152a254928a51948594859094939260609260808301968352602083015260408201520152565b6001805580f35b61096661095e9760095490600a8204998a80936116b3565b6009556115f0565b9683600254168460075416908585541693813b156109f2578e519081526001600160a01b03928316818a0190815292909416602083015260408201929092528591839182908490829060600103925af180156109e8571561085157926109d581969297949a999895939a611661565b61042b5793919438989193969798610851565b8b513d86823e3d90fd5b8780fd5b50600954151561084c565b610a0f909c9193929c611661565b9a90913861081e565b8b513d8f823e3d90fd5b8a995061093f9d9450956005928a8e938e600a9f9e9c9b6000805160206119058339815191529c61010160809d61ffff1916179055865182810190858252428982015288815261047f81611675565b634e487b7160e01b8e526011865260248efd5b855162461bcd60e51b8152808301869052600d60248201526c4e6f7420796f75722067616d6560981b6044820152606490fd5b90503461057f57602036600319011261057f57818360c09460a08351610adc81611613565b8281528260208201528285820152826060820152826080820152015282358152600c60205220825191610b0e83611613565b60018060a01b038254169384845260018301546020850190815260028401549082860191825260a0600560038701549560608901968752870154966080890197885201549601958652825196875251602087015251908501525160608401525160808301525160a0820152f35b505034610154578160031936011261015457905490516001600160a01b039091168152602090f35b828434610bca576020366003190112610bca5750610bc3602092356116d3565b9051908152f35b80fd5b90503461057f57602036600319011261057f576020928291358152600b845220549051908152f35b5050346101545781600319360112610154576020906009549051908152f35b8334610bca5780600319360112610bca57610c2d611888565b6201000062ff000019600554161760055580f35b8334610bca576020366003190112610bca57610c5b6115d5565b610c63611888565b60018060a01b03166001600160601b0360a01b600654161760065580f35b828434610bca5780600319360112610bca575060ff60a092600180851b036002541692600354915490600554928151958652602086015284015261ffff8116606084015260101c1615156080820152f35b9190503461057f57602036600319011261057f57808360e09460c08351610cf881611645565b82815282602082015282858201528260608201528260808201528260a0820152015283358152600a60205220815190610d3082611645565b60018060a01b0381541693848352600182015493602084019485526002830154818501908152600560038501549360608701948552850154946080870195865201549560ff60c060a0880197828a1615158952019760081c16151587528251978852516020880152519086015251606085015251608084015251151560a083015251151560c0820152f35b50503461015457816003193601126101545760065490516001600160a01b039091168152602090f35b8334610bca5780600319360112610bca57610dfd611888565b80546001600160a01b03198116825581906001600160a01b03167f8be0079c531659141344cd1fd0a4f28419497f9722a3daafe3b4186f6b6457e08280a380f35b90508160031936011261057f5780356024918235610e5a6118b4565b60ff60055460101c166111e457612710811015806111d7575b156111a3576003548254908410611193578311611184576007546001600160a01b0394908516806110db57508334036110a757610eb5600a85046009546115f0565b600955868080808789600254165af13d156110a2573d67ffffffffffffffff811161109057875190610ef1601f8201601f191660200183611691565b81528860203d92013e5b1561105c575b60085490600019821461104b57509186949291600186959301968760085584600654169481519563f8413b0760e01b875286858160209b8c945af18015611041578790611013575b600596508752600b88528882882055815194610f6486611645565b33865288860190815282860191888352606087019389855260808801958652600a60a089019b8b8d528d8c60c08c019d8e5252528c209651166001600160601b0360a01b875416178655516001860155516002850155516003840155519082015501915115159060ff61ff0084549251151560081b1692169061ffff19161717905533907ffadb9547847a0c2c31f4c02590545e318d33d7aae99071caecf3fa4ce3cd7dca8380a36001805580f35b508786813d831161103a575b6110298183611691565b810103126106d75760059551610f49565b503d61101f565b82513d89823e3d90fd5b634e487b7160e01b88526011845287fd5b82600f606492602089519362461bcd60e51b85528401528201526e151c985b9cd9995c8819985a5b1959608a1b6044820152fd5b634e487b7160e01b8952604185528289fd5b610efb565b82600f606492602089519362461bcd60e51b85528401528201526e082dadeeadce840dad2e6dac2e8c6d608b1b6044820152fd5b6110ea600a86046009546115f0565b60095560025487516323b872dd60e01b602080830191825233868401908152938a166001600160a01b03168482015260408401899052928b929061113b90829060600103601f198101835282611691565b519082855af11561117a5787513d6111715750803b155b61115c5750610f01565b8651635274afe760e01b815280850191909152fd5b60011415611152565b86513d89823e3d90fd5b508351631765320160e11b8152fd5b855163989e301760e01b81528390fd5b845162461bcd60e51b8152602081840152600f818601526e125b9d985b1a590818d85cda1bdd5d608a1b6044820152606490fd5b50620186a0811115610e73565b845162461bcd60e51b81526020818401526006818601526514185d5cd95960d21b6044820152606490fd5b8334610bca5780600319360112610bca57611228611888565b62ff0000196005541660055580f35b5050346101545781600319360112610154576020906008549051908152f35b505034610154578160031936011261015457602090516103e88152f35b838334610154578060031936011261015457600654602435936001600160a01b039291813590841633036114ca57808552602091600b83528386205494858752600a8452848720918183541680156114985760028401998a54611461576127109462015f908206860180961161144e57858b9c9b9a9b554260038201558584820154101560001461141857938960058a60008051602061190583398151915296608096600b9d9e9f8b8e6103e8839e9a88859f0161010061ff00198254161790550698868a9751998a9661134688611613565b8752600c848801948786528389019687526060890197838952608060a0908b019a858c52019b8c52835252209851166001600160601b0360a01b895416178855516001880155516002870155516003860155519084015551910155847f3d8fdd92f5ba5b88f5fd67b85aa9626921ca9ac90511f3f3948c40fe0c1f86b4898c51858152a289519182528a888301528a8a8301526060820152a28552600a825261140f84862060056000918281558260018201558260028201558260038201558260048201550155565b84525281205580f35b505050505050507fd66dbc1b5a153f9d6f370eabb4d4e003a977e0eaf0b4208d3aaa5643adadaec692825191818352820152a280f35b634e487b7160e01b8b526011845260248bfd5b875162461bcd60e51b81528084018890526011602482015270105b1c9958591e48199d5b199a5b1b1959607a1b6044820152606490fd5b865162461bcd60e51b8152808301879052600c60248201526b496e76616c69642067616d6560a01b6044820152606490fd5b506020606492519162461bcd60e51b8352820152600860248201526727b7363c902b292360c11b6044820152fd5b9190503461057f57602036600319011261057f578060ff9160e09484358152600a6020522060018060a01b03815416936001820154926002830154906005600385015493850154940154948151978852602088015286015260608501526080840152818116151560a084015260081c16151560c0820152f35b9291503461057b57602036600319011261057b578160c09482358152600c602052209060018060a01b0382541692600183015490600284015491600560038601549486015495015495875260208701528501526060840152608083015260a0820152f35b600435906001600160a01b03821682036115eb57565b600080fd5b919082018092116115fd57565b634e487b7160e01b600052601160045260246000fd5b60c0810190811067ffffffffffffffff82111761162f57604052565b634e487b7160e01b600052604160045260246000fd5b60e0810190811067ffffffffffffffff82111761162f57604052565b67ffffffffffffffff811161162f57604052565b6060810190811067ffffffffffffffff82111761162f57604052565b90601f8019910116810190811067ffffffffffffffff82111761162f57604052565b919082039182116115fd57565b818102929181159184041417156115fd57565b6000908152600a602052604081206040516116ed81611645565b60018060a01b03825416815260018201546020820152600282015490816040820152600560038401549384606084015260048101546080840152015460c060ff8083161515928360a086015260081c16159283159182910152841580156117bd575b6117b157916117a9575b506117a3575061176990426116b3565b906103e89182810292818404149015171561178f5761271091820180921161178f575090565b634e487b7160e01b81526011600452602490fd5b91505090565b905038611759565b50505050505061271090565b50831561174f565b156117cc57565b60405162461bcd60e51b8152602060048201526012602482015271105b1c9958591e4818d85cda1959081bdd5d60721b6044820152606490fd5b1561180d57565b60405162461bcd60e51b815260206004820152601460248201527311d85b5948185b1c9958591e4818dc985cda195960621b6044820152606490fd5b1561185057565b60405162461bcd60e51b815260206004820152601060248201526f11d85b59481b9bdd081cdd185c9d195960821b6044820152606490fd5b6000546001600160a01b0316330361189c57565b60405163118cdaa760e01b8152336004820152602490fd5b6002600154146118c5576002600155565b604051633ee5aeb560e01b8152600490fd5b906118fa61ffff61190194936118f16127109485926116c0565b049316836116c0565b04906116b3565b9056fedfd2ae5741f838130f78e33ffd1d53a7b06c3a5980162496b945d7f09f37aa7da2646970667358221220e96d2b1f1331a3c30c7e6ae384257c0c7cba1ea38502866655c7f5d363c91e1464736f6c63430008180033","opcodes":"PUSH1 0x80 CALLVALUE PUSH3 0xFC JUMPI PUSH1 0x1F PUSH3 0x1A87 CODESIZE DUP2 SWAP1 SUB SWAP2 DUP3 ADD PUSH1 0x1F NOT AND DUP4 ADD SWAP2 PUSH1 0x1 PUSH1 0x1 PUSH1 0x40 SHL SUB DUP4 GT DUP5 DUP5 LT OR PUSH3 0x101 JUMPI DUP1 DUP5 SWAP3 PUSH1 0x60 SWAP5 PUSH1 0x40 MSTORE DUP4 CODECOPY DUP2 ADD SUB SLT PUSH3 0xFC JUMPI PUSH3 0x4D DUP2 PUSH3 0x117 JUMP JUMPDEST PUSH3 0x69 PUSH1 0x40 PUSH3 0x61 PUSH1 0x20 DUP6 ADD PUSH3 0x117 JUMP JUMPDEST SWAP4 ADD PUSH3 0x117 JUMP JUMPDEST PUSH1 0x1 PUSH1 0x1 PUSH1 0xA0 SHL SUB SWAP2 DUP3 AND SWAP2 SWAP1 DUP3 ISZERO PUSH3 0xE3 JUMPI DUP2 PUSH1 0x0 SLOAD SWAP5 PUSH1 0x1 DUP1 PUSH1 0xA0 SHL SUB NOT SWAP5 DUP1 DUP7 DUP9 AND OR PUSH1 0x0 SSTORE DUP3 PUSH1 0x40 MLOAD SWAP8 AND PUSH32 0x8BE0079C531659141344CD1FD0A4F28419497F9722A3DAAFE3B4186F6B6457E0 PUSH1 0x0 DUP1 LOG3 PUSH1 0x1 DUP1 SSTORE AND DUP4 PUSH1 0x7 SLOAD AND OR PUSH1 0x7 SSTORE AND SWAP1 PUSH1 0x6 SLOAD AND OR PUSH1 0x6 SSTORE PUSH2 0x195A SWAP1 DUP2 PUSH3 0x12D DUP3 CODECOPY RETURN JUMPDEST PUSH1 0x40 MLOAD PUSH4 0x1E4FBDF7 PUSH1 0xE0 SHL DUP2 MSTORE PUSH1 0x0 PUSH1 0x4 DUP3 ADD MSTORE PUSH1 0x24 SWAP1 REVERT JUMPDEST PUSH1 0x0 DUP1 REVERT JUMPDEST PUSH4 0x4E487B71 PUSH1 0xE0 SHL PUSH1 0x0 MSTORE PUSH1 0x41 PUSH1 0x4 MSTORE PUSH1 0x24 PUSH1 0x0 REVERT JUMPDEST MLOAD SWAP1 PUSH1 0x1 PUSH1 0x1 PUSH1 0xA0 SHL SUB DUP3 AND DUP3 SUB PUSH3 0xFC JUMPI JUMP INVALID PUSH1 0x80 PUSH1 0x40 DUP2 DUP2 MSTORE PUSH1 0x4 SWAP2 DUP3 CALLDATASIZE LT ISZERO PUSH2 0x16 JUMPI PUSH1 0x0 DUP1 REVERT JUMPDEST PUSH1 0x0 SWAP3 DUP4 CALLDATALOAD PUSH1 0xE0 SHR SWAP2 DUP3 PUSH4 0x117A5B90 EQ PUSH2 0x1571 JUMPI POP DUP2 PUSH4 0x13E4C714 EQ PUSH2 0x14F8 JUMPI DUP2 PUSH4 0x1F1F897F EQ PUSH2 0x1273 JUMPI DUP2 PUSH4 0x2B452427 EQ PUSH2 0x1256 JUMPI DUP2 PUSH4 0x2E0BE39A EQ PUSH2 0x1237 JUMPI DUP2 PUSH4 0x3F4BA83A EQ PUSH2 0x120F JUMPI DUP2 PUSH4 0x4AFE62B5 EQ PUSH2 0xE3E JUMPI DUP2 PUSH4 0x715018A6 EQ PUSH2 0xDE4 JUMPI DUP2 PUSH4 0x719CE73E EQ PUSH2 0xBF5 JUMPI DUP2 PUSH4 0x772D84C4 EQ PUSH2 0xDBB JUMPI DUP2 PUSH4 0x78250658 EQ PUSH2 0xCD2 JUMPI DUP2 PUSH4 0x79502C55 EQ PUSH2 0xC81 JUMPI DUP2 PUSH4 0x83BA98AE EQ PUSH2 0xC41 JUMPI DUP2 PUSH4 0x8456CB59 EQ PUSH2 0xC14 JUMPI DUP2 PUSH4 0x884BF67C EQ PUSH2 0xBF5 JUMPI DUP2 PUSH4 0x8A7626D1 EQ PUSH2 0xBCD JUMPI DUP2 PUSH4 0x8B25E8C1 EQ PUSH2 0xBA3 JUMPI DUP2 PUSH4 0x8DA5CB5B EQ PUSH2 0xB7B JUMPI DUP2 PUSH4 0xA2F77BCC EQ PUSH2 0xAB7 JUMPI DUP2 PUSH4 0xA9E732BB EQ PUSH2 0x6DB JUMPI DUP2 PUSH4 0xCBB6D6BD EQ PUSH2 0x60F JUMPI DUP2 PUSH4 0xF2FDE38B EQ PUSH2 0x583 JUMPI DUP2 PUSH4 0xFBE995E7 EQ PUSH2 0x158 JUMPI POP PUSH4 0xFC0C546A EQ PUSH2 0x12D JUMPI PUSH1 0x0 DUP1 REVERT JUMPDEST CALLVALUE PUSH2 0x154 JUMPI DUP2 PUSH1 0x3 NOT CALLDATASIZE ADD SLT PUSH2 0x154 JUMPI PUSH1 0x7 SLOAD SWAP1 MLOAD PUSH1 0x1 PUSH1 0x1 PUSH1 0xA0 SHL SUB SWAP1 SWAP2 AND DUP2 MSTORE PUSH1 0x20 SWAP1 RETURN JUMPDEST POP DUP1 REVERT JUMPDEST SWAP2 SWAP1 POP CALLVALUE PUSH2 0x57F JUMPI PUSH1 0x20 DUP1 PUSH1 0x3 NOT CALLDATASIZE ADD SLT PUSH2 0x57B JUMPI DUP3 CALLDATALOAD DUP1 DUP6 MSTORE PUSH1 0xA DUP3 MSTORE DUP3 DUP6 KECCAK256 DUP1 SLOAD PUSH1 0x1 PUSH1 0x1 PUSH1 0xA0 SHL SUB SWAP1 DUP2 AND SWAP6 SWAP2 SWAP1 DUP7 ISZERO PUSH2 0x547 JUMPI PUSH1 0x5 DUP3 ADD SWAP2 DUP3 SLOAD SWAP4 PUSH2 0x1A4 PUSH1 0xFF DUP7 AND ISZERO PUSH2 0x17C5 JUMP JUMPDEST PUSH2 0x1B4 PUSH1 0xFF DUP7 PUSH1 0x8 SHR AND ISZERO PUSH2 0x1806 JUMP JUMPDEST PUSH1 0x2 DUP3 ADD SWAP5 DUP6 SLOAD SWAP10 PUSH2 0x1C7 DUP12 ISZERO ISZERO PUSH2 0x1849 JUMP JUMPDEST PUSH2 0x1E0 PUSH1 0x3 DUP6 ADD SLOAD PUSH2 0x1DA DUP2 ISZERO ISZERO PUSH2 0x1849 JUMP JUMPDEST TIMESTAMP PUSH2 0x16B3 JUMP JUMPDEST SWAP11 PUSH2 0x3E8 SWAP3 DUP13 DUP5 DUP2 MUL SWAP14 DUP15 DIV DUP6 EQ SWAP1 ISZERO OR ISZERO PUSH2 0x534 JUMPI PUSH2 0x2710 SWAP13 DUP14 ADD DUP1 SWAP14 GT PUSH2 0x534 JUMPI SWAP1 DUP14 SWAP4 SWAP3 SWAP2 DUP6 DUP8 ADD SWAP14 DUP15 SLOAD DUP2 LT ISZERO PUSH2 0x219 JUMPI DUP6 DUP1 RETURN JUMPDEST DUP3 GT ISZERO PUSH2 0x42F JUMPI POP POP POP PUSH2 0x23A PUSH1 0x1 DUP6 ADD SLOAD DUP13 SLOAD PUSH2 0xFFFF PUSH1 0x5 SLOAD AND SWAP2 PUSH2 0x18D7 JUMP JUMPDEST SWAP6 PUSH1 0x1 PUSH1 0xFF NOT DUP3 SLOAD AND OR SWAP1 SSTORE DUP5 PUSH1 0x2 SLOAD AND DUP6 PUSH1 0x7 SLOAD AND DUP7 DUP7 SLOAD AND SWAP1 DUP3 EXTCODESIZE ISZERO PUSH2 0x42B JUMPI DUP13 MLOAD PUSH4 0xA00C6951 PUSH1 0xE0 SHL DUP2 MSTORE PUSH1 0x1 PUSH1 0x1 PUSH1 0xA0 SHL SUB SWAP2 DUP3 AND DUP8 DUP3 ADD SWAP1 DUP2 MSTORE SWAP3 SWAP1 SWAP2 AND PUSH1 0x20 DUP4 ADD MSTORE PUSH1 0x40 DUP3 ADD DUP10 SWAP1 MSTORE SWAP2 DUP5 SWAP2 DUP4 SWAP2 SWAP1 DUP3 SWAP1 DUP5 SWAP1 DUP3 SWAP1 PUSH1 0x60 ADD SUB SWAP3 GAS CALL DUP1 ISZERO PUSH2 0x421 JUMPI PUSH2 0x3F8 JUMPI JUMPDEST POP SWAP4 PUSH2 0x3E5 SWAP11 DUP9 PUSH1 0x5 DUP10 SWAP7 DUP10 SWAP7 DUP4 SWAP12 SWAP11 DUP16 SWAP15 PUSH1 0xA SWAP16 SWAP9 DUP2 SWAP16 SWAP14 DUP10 DUP12 PUSH1 0x0 DUP1 MLOAD PUSH1 0x20 PUSH2 0x1905 DUP4 CODECOPY DUP2 MLOAD SWAP2 MSTORE SWAP16 PUSH2 0x3B8 SWAP14 MLOAD DUP7 DUP2 ADD SWAP1 DUP13 DUP3 MSTORE TIMESTAMP DUP5 DUP3 ADD MSTORE DUP4 DUP2 MSTORE PUSH2 0x2EF DUP2 PUSH2 0x1675 JUMP JUMPDEST MLOAD SWAP1 KECCAK256 MOD SWAP12 DUP13 SWAP9 SLOAD AND SWAP3 SLOAD SWAP4 PUSH1 0xC DUP13 SLOAD SWAP7 DUP4 MLOAD SWAP13 DUP14 SWAP7 PUSH2 0x30E DUP9 PUSH2 0x1613 JUMP JUMPDEST DUP8 MSTORE PUSH1 0xA0 DUP3 DUP9 ADD SWAP8 DUP3 DUP10 MSTORE DUP7 DUP2 ADD SWAP10 DUP11 MSTORE PUSH1 0x60 DUP2 ADD SWAP11 DUP12 MSTORE PUSH1 0x80 DUP2 ADD SWAP12 DUP13 MSTORE ADD SWAP12 DUP13 MSTORE DUP4 MSTORE MSTORE KECCAK256 SWAP9 MLOAD AND PUSH1 0x1 PUSH1 0x1 PUSH1 0x60 SHL SUB PUSH1 0xA0 SHL DUP10 SLOAD AND OR DUP9 SSTORE MLOAD PUSH1 0x1 DUP9 ADD SSTORE MLOAD PUSH1 0x2 DUP8 ADD SSTORE MLOAD PUSH1 0x3 DUP7 ADD SSTORE MLOAD SWAP1 DUP5 ADD SSTORE MLOAD SWAP2 ADD SSTORE SLOAD SWAP4 DUP7 PUSH32 0xD66DBC1B5A153F9D6F370EABB4D4E003A977E0EAF0B4208D3AAA5643ADADAEC6 DUP13 DUP1 MLOAD DUP9 DUP2 MSTORE DUP8 DUP14 DUP3 ADD MSTORE LOG2 SLOAD SWAP3 DUP11 MLOAD SWAP5 DUP6 SWAP5 DUP6 SWAP1 SWAP5 SWAP4 SWAP3 PUSH1 0x60 SWAP3 PUSH1 0x80 DUP4 ADD SWAP7 DUP4 MSTORE PUSH1 0x20 DUP4 ADD MSTORE PUSH1 0x40 DUP3 ADD MSTORE ADD MSTORE JUMP JUMPDEST SUB SWAP1 LOG2 JUMPDEST DUP6 MSTORE MSTORE DUP3 KECCAK256 PUSH1 0x5 PUSH1 0x0 SWAP2 DUP3 DUP2 SSTORE DUP3 PUSH1 0x1 DUP3 ADD SSTORE DUP3 PUSH1 0x2 DUP3 ADD SSTORE DUP3 PUSH1 0x3 DUP3 ADD SSTORE DUP3 PUSH1 0x4 DUP3 ADD SSTORE ADD SSTORE JUMP JUMPDEST CODESIZE DUP1 DUP1 DUP1 DUP1 DUP1 DUP1 DUP1 DUP1 DUP10 DUP2 DUP1 DUP1 DUP1 DUP1 DUP6 DUP1 RETURN JUMPDEST SWAP2 PUSH2 0x40B DUP2 SWAP11 SWAP10 SWAP9 SWAP6 SWAP7 SWAP3 SWAP8 SWAP5 SWAP4 PUSH2 0x1661 JUMP JUMPDEST PUSH2 0x41D JUMPI SWAP4 SWAP3 SWAP6 SWAP7 SWAP8 SWAP1 SWAP2 SWAP5 CODESIZE PUSH2 0x2A7 JUMP JUMPDEST DUP9 DUP1 REVERT JUMPDEST DUP12 MLOAD RETURNDATASIZE DUP6 DUP3 RETURNDATACOPY RETURNDATASIZE SWAP1 REVERT JUMPDEST DUP5 DUP1 REVERT JUMPDEST PUSH2 0x3E5 SWAP14 POP PUSH1 0x80 SWAP7 POP SWAP5 PUSH1 0x5 SWAP3 DUP12 DUP15 SWAP4 DUP15 PUSH1 0xA SWAP16 SWAP15 SWAP14 SWAP9 SWAP8 DUP4 SWAP14 PUSH2 0x101 PUSH1 0x0 DUP1 MLOAD PUSH1 0x20 PUSH2 0x1905 DUP4 CODECOPY DUP2 MLOAD SWAP2 MSTORE SWAP15 SWAP13 PUSH2 0xFFFF NOT AND OR SWAP1 SSTORE DUP7 MLOAD DUP3 DUP2 ADD SWAP1 DUP6 DUP3 MSTORE TIMESTAMP DUP10 DUP3 ADD MSTORE DUP9 DUP2 MSTORE PUSH2 0x47F DUP2 PUSH2 0x1675 JUMP JUMPDEST MLOAD SWAP1 KECCAK256 MOD SWAP10 DUP7 DUP12 SWAP8 MLOAD SWAP10 DUP11 SWAP7 PUSH2 0x494 DUP9 PUSH2 0x1613 JUMP JUMPDEST DUP8 MSTORE PUSH1 0xC DUP5 DUP9 ADD SWAP5 DUP8 DUP7 MSTORE DUP4 DUP10 ADD SWAP7 DUP8 MSTORE PUSH1 0x60 DUP10 ADD SWAP8 DUP4 DUP10 MSTORE PUSH1 0x80 PUSH1 0xA0 SWAP1 DUP12 ADD SWAP11 DUP6 DUP13 MSTORE ADD SWAP12 DUP13 MSTORE DUP4 MSTORE MSTORE KECCAK256 SWAP9 MLOAD AND PUSH1 0x1 PUSH1 0x1 PUSH1 0x60 SHL SUB PUSH1 0xA0 SHL DUP10 SLOAD AND OR DUP9 SSTORE MLOAD PUSH1 0x1 DUP9 ADD SSTORE MLOAD PUSH1 0x2 DUP8 ADD SSTORE MLOAD PUSH1 0x3 DUP7 ADD SSTORE MLOAD SWAP1 DUP5 ADD SSTORE MLOAD SWAP2 ADD SSTORE SLOAD SWAP1 DUP5 PUSH32 0x3D8FDD92F5BA5B88F5FD67B85AA9626921CA9AC90511F3F3948C40FE0C1F86B4 DUP9 DUP12 MLOAD DUP6 DUP2 MSTORE LOG2 DUP9 MLOAD SWAP2 DUP3 MSTORE DUP11 DUP8 DUP4 ADD MSTORE DUP11 DUP10 DUP4 ADD MSTORE PUSH1 0x60 DUP3 ADD MSTORE LOG2 PUSH2 0x3BC JUMP JUMPDEST PUSH4 0x4E487B71 PUSH1 0xE0 SHL DUP15 MSTORE PUSH1 0x11 DUP6 MSTORE PUSH1 0x24 DUP15 REVERT JUMPDEST DUP6 MLOAD PUSH3 0x461BCD PUSH1 0xE5 SHL DUP2 MSTORE DUP1 DUP5 ADD DUP7 SWAP1 MSTORE PUSH1 0xE PUSH1 0x24 DUP3 ADD MSTORE PUSH14 0x11D85B59481B9BDD08199BDD5B99 PUSH1 0x92 SHL PUSH1 0x44 DUP3 ADD MSTORE PUSH1 0x64 SWAP1 REVERT JUMPDEST DUP4 DUP1 REVERT JUMPDEST DUP3 DUP1 REVERT JUMPDEST SWAP1 POP CALLVALUE PUSH2 0x57F JUMPI PUSH1 0x20 CALLDATASIZE PUSH1 0x3 NOT ADD SLT PUSH2 0x57F JUMPI PUSH2 0x59E PUSH2 0x15D5 JUMP JUMPDEST SWAP1 PUSH2 0x5A7 PUSH2 0x1888 JUMP JUMPDEST PUSH1 0x1 PUSH1 0x1 PUSH1 0xA0 SHL SUB SWAP2 DUP3 AND SWAP3 DUP4 ISZERO PUSH2 0x5F9 JUMPI POP POP PUSH1 0x0 SLOAD DUP3 PUSH1 0x1 PUSH1 0x1 PUSH1 0x60 SHL SUB PUSH1 0xA0 SHL DUP3 AND OR PUSH1 0x0 SSTORE AND PUSH32 0x8BE0079C531659141344CD1FD0A4F28419497F9722A3DAAFE3B4186F6B6457E0 PUSH1 0x0 DUP1 LOG3 DUP1 RETURN JUMPDEST MLOAD PUSH4 0x1E4FBDF7 PUSH1 0xE0 SHL DUP2 MSTORE SWAP1 DUP2 ADD DUP5 SWAP1 MSTORE PUSH1 0x24 SWAP1 REVERT JUMPDEST SWAP2 SWAP1 POP CALLVALUE PUSH2 0x57F JUMPI PUSH1 0x80 CALLDATASIZE PUSH1 0x3 NOT ADD SLT PUSH2 0x57F JUMPI PUSH2 0x62B PUSH2 0x15D5 JUMP JUMPDEST SWAP2 PUSH1 0x24 CALLDATALOAD PUSH1 0x44 CALLDATALOAD SWAP3 PUSH1 0x64 CALLDATALOAD SWAP5 PUSH2 0xFFFF DUP7 AND DUP1 SWAP7 SUB PUSH2 0x6D7 JUMPI PUSH2 0x64B PUSH2 0x1888 JUMP JUMPDEST DUP2 MLOAD SWAP1 PUSH1 0xA0 DUP3 ADD DUP3 DUP2 LT PUSH8 0xFFFFFFFFFFFFFFFF DUP3 GT OR PUSH2 0x6C2 JUMPI DUP4 MSTORE PUSH1 0x1 PUSH1 0x1 PUSH1 0xA0 SHL SUB AND DUP1 DUP3 MSTORE PUSH1 0x20 DUP3 ADD DUP5 SWAP1 MSTORE SWAP2 DUP2 ADD DUP6 SWAP1 MSTORE PUSH1 0x60 DUP2 ADD DUP7 SWAP1 MSTORE PUSH1 0x80 ADD DUP7 SWAP1 MSTORE PUSH1 0x2 DUP1 SLOAD PUSH1 0x1 PUSH1 0x1 PUSH1 0xA0 SHL SUB NOT AND SWAP1 SWAP2 OR SWAP1 SSTORE PUSH1 0x3 SSTORE SSTORE PUSH1 0x5 DUP1 SLOAD PUSH3 0xFFFFFF NOT AND SWAP1 SWAP2 OR DUP3 ISZERO ISZERO PUSH1 0x10 SHL PUSH3 0xFF0000 AND OR SWAP1 SSTORE DUP1 RETURN JUMPDEST PUSH1 0x41 DUP7 PUSH4 0x4E487B71 PUSH1 0xE0 SHL PUSH1 0x0 MSTORE MSTORE PUSH1 0x24 PUSH1 0x0 REVERT JUMPDEST DUP7 DUP1 REVERT JUMPDEST SWAP2 SWAP1 POP CALLVALUE PUSH2 0x57F JUMPI PUSH1 0x20 DUP1 PUSH1 0x3 NOT CALLDATASIZE ADD SLT PUSH2 0x57B JUMPI DUP3 CALLDATALOAD PUSH2 0x6FA PUSH2 0x18B4 JUMP JUMPDEST DUP1 DUP6 MSTORE PUSH1 0xA DUP3 MSTORE DUP3 DUP6 KECCAK256 DUP1 SLOAD SWAP1 SWAP5 PUSH1 0x1 PUSH1 0x1 PUSH1 0xA0 SHL SUB SWAP2 DUP3 AND SWAP2 CALLER DUP4 SUB PUSH2 0xA84 JUMPI PUSH1 0x5 DUP8 ADD SWAP2 DUP3 SLOAD SWAP2 PUSH2 0x730 PUSH1 0xFF DUP5 AND ISZERO PUSH2 0x17C5 JUMP JUMPDEST PUSH2 0x740 PUSH1 0xFF DUP5 PUSH1 0x8 SHR AND ISZERO PUSH2 0x1806 JUMP JUMPDEST PUSH1 0x2 DUP10 ADD SWAP9 DUP10 SLOAD SWAP6 PUSH2 0x753 DUP8 ISZERO ISZERO PUSH2 0x1849 JUMP JUMPDEST PUSH2 0x766 PUSH1 0x3 DUP4 ADD SLOAD PUSH2 0x1DA DUP2 ISZERO ISZERO PUSH2 0x1849 JUMP JUMPDEST SWAP7 PUSH2 0x3E8 SWAP6 DUP7 DUP10 MUL SWAP9 DUP1 DUP11 DIV DUP9 EQ SWAP1 ISZERO OR ISZERO PUSH2 0xA71 JUMPI PUSH2 0x2710 SWAP9 DUP10 ADD DUP1 SWAP10 GT PUSH2 0xA71 JUMPI DUP14 SWAP3 SWAP2 SWAP1 DUP2 DUP11 LT ISZERO PUSH2 0xA22 JUMPI POP POP POP POP PUSH2 0x7AF PUSH1 0x1 DUP3 ADD SLOAD DUP8 PUSH2 0xFFFF PUSH1 0x5 SLOAD AND SWAP2 PUSH2 0x18D7 JUMP JUMPDEST SWAP5 PUSH1 0x1 PUSH1 0xFF NOT DUP3 SLOAD AND OR SWAP1 SSTORE DUP2 PUSH1 0x2 SLOAD AND SWAP4 DUP12 DUP4 PUSH1 0x7 SLOAD AND SWAP6 DUP5 DUP5 SLOAD AND SWAP7 DUP2 EXTCODESIZE ISZERO PUSH2 0x57F JUMPI DUP13 MLOAD PUSH4 0xA00C6951 PUSH1 0xE0 SHL DUP1 DUP3 MSTORE PUSH1 0x1 PUSH1 0x1 PUSH1 0xA0 SHL SUB SWAP3 DUP4 AND DUP10 DUP4 ADD SWAP1 DUP2 MSTORE SWAP3 SWAP1 SWAP10 AND PUSH1 0x20 DUP4 ADD MSTORE PUSH1 0x40 DUP3 ADD DUP11 SWAP1 MSTORE SWAP3 SWAP2 DUP4 SWAP2 DUP3 SWAP1 DUP5 SWAP1 DUP3 SWAP1 PUSH1 0x60 ADD SUB SWAP3 GAS CALL DUP1 ISZERO PUSH2 0xA18 JUMPI PUSH2 0xA01 JUMPI JUMPDEST POP SWAP1 DUP12 SWAP3 SWAP2 DUP11 MLOAD DUP11 DUP2 ADD SWAP1 DUP11 DUP3 MSTORE TIMESTAMP DUP14 DUP3 ADD MSTORE DUP13 DUP2 MSTORE PUSH2 0x83D DUP2 PUSH2 0x1675 JUMP JUMPDEST MLOAD SWAP1 KECCAK256 MOD SWAP5 PUSH1 0x5 DUP7 LT DUP1 PUSH2 0x9F6 JUMPI JUMPDEST PUSH2 0x946 JUMPI JUMPDEST POP SWAP4 PUSH2 0x93F SWAP11 DUP9 PUSH1 0x5 DUP4 DUP11 SWAP8 DUP11 DUP16 SWAP13 PUSH1 0xA SWAP16 SWAP15 SWAP14 DUP16 SWAP1 SWAP11 DUP11 DUP9 SWAP16 SWAP13 PUSH1 0x0 DUP1 MLOAD PUSH1 0x20 PUSH2 0x1905 DUP4 CODECOPY DUP2 MLOAD SWAP2 MSTORE SWAP16 SWAP13 PUSH2 0x3B8 SWAP14 SLOAD AND SWAP3 PUSH1 0xC DUP13 SLOAD SWAP6 DUP4 MLOAD SWAP13 DUP14 SWAP7 PUSH2 0x897 DUP9 PUSH2 0x1613 JUMP JUMPDEST DUP8 MSTORE PUSH1 0xA0 DUP3 DUP9 ADD SWAP8 DUP3 DUP10 MSTORE DUP7 DUP2 ADD SWAP10 DUP11 MSTORE PUSH1 0x60 DUP2 ADD SWAP11 DUP12 MSTORE PUSH1 0x80 DUP2 ADD SWAP12 DUP13 MSTORE ADD SWAP12 DUP13 MSTORE DUP4 MSTORE MSTORE KECCAK256 SWAP9 MLOAD AND PUSH1 0x1 PUSH1 0x1 PUSH1 0x60 SHL SUB PUSH1 0xA0 SHL DUP10 SLOAD AND OR DUP9 SSTORE MLOAD PUSH1 0x1 DUP9 ADD SSTORE MLOAD PUSH1 0x2 DUP8 ADD SSTORE MLOAD PUSH1 0x3 DUP7 ADD SSTORE MLOAD SWAP1 DUP5 ADD SSTORE MLOAD SWAP2 ADD SSTORE DUP7 PUSH32 0xD66DBC1B5A153F9D6F370EABB4D4E003A977E0EAF0B4208D3AAA5643ADADAEC6 DUP13 DUP1 MLOAD DUP9 DUP2 MSTORE DUP8 DUP14 DUP3 ADD MSTORE LOG2 SLOAD SWAP3 DUP11 MLOAD SWAP5 DUP6 SWAP5 DUP6 SWAP1 SWAP5 SWAP4 SWAP3 PUSH1 0x60 SWAP3 PUSH1 0x80 DUP4 ADD SWAP7 DUP4 MSTORE PUSH1 0x20 DUP4 ADD MSTORE PUSH1 0x40 DUP3 ADD MSTORE ADD MSTORE JUMP JUMPDEST PUSH1 0x1 DUP1 SSTORE DUP1 RETURN JUMPDEST PUSH2 0x966 PUSH2 0x95E SWAP8 PUSH1 0x9 SLOAD SWAP1 PUSH1 0xA DUP3 DIV SWAP10 DUP11 DUP1 SWAP4 PUSH2 0x16B3 JUMP JUMPDEST PUSH1 0x9 SSTORE PUSH2 0x15F0 JUMP JUMPDEST SWAP7 DUP4 PUSH1 0x2 SLOAD AND DUP5 PUSH1 0x7 SLOAD AND SWAP1 DUP6 DUP6 SLOAD AND SWAP4 DUP2 EXTCODESIZE ISZERO PUSH2 0x9F2 JUMPI DUP15 MLOAD SWAP1 DUP2 MSTORE PUSH1 0x1 PUSH1 0x1 PUSH1 0xA0 SHL SUB SWAP3 DUP4 AND DUP2 DUP11 ADD SWAP1 DUP2 MSTORE SWAP3 SWAP1 SWAP5 AND PUSH1 0x20 DUP4 ADD MSTORE PUSH1 0x40 DUP3 ADD SWAP3 SWAP1 SWAP3 MSTORE DUP6 SWAP2 DUP4 SWAP2 DUP3 SWAP1 DUP5 SWAP1 DUP3 SWAP1 PUSH1 0x60 ADD SUB SWAP3 GAS CALL DUP1 ISZERO PUSH2 0x9E8 JUMPI ISZERO PUSH2 0x851 JUMPI SWAP3 PUSH2 0x9D5 DUP2 SWAP7 SWAP3 SWAP8 SWAP5 SWAP11 SWAP10 SWAP9 SWAP6 SWAP4 SWAP11 PUSH2 0x1661 JUMP JUMPDEST PUSH2 0x42B JUMPI SWAP4 SWAP2 SWAP5 CODESIZE SWAP9 SWAP2 SWAP4 SWAP7 SWAP8 SWAP9 PUSH2 0x851 JUMP JUMPDEST DUP12 MLOAD RETURNDATASIZE DUP7 DUP3 RETURNDATACOPY RETURNDATASIZE SWAP1 REVERT JUMPDEST DUP8 DUP1 REVERT JUMPDEST POP PUSH1 0x9 SLOAD ISZERO ISZERO PUSH2 0x84C JUMP JUMPDEST PUSH2 0xA0F SWAP1 SWAP13 SWAP2 SWAP4 SWAP3 SWAP13 PUSH2 0x1661 JUMP JUMPDEST SWAP11 SWAP1 SWAP2 CODESIZE PUSH2 0x81E JUMP JUMPDEST DUP12 MLOAD RETURNDATASIZE DUP16 DUP3 RETURNDATACOPY RETURNDATASIZE SWAP1 REVERT JUMPDEST DUP11 SWAP10 POP PUSH2 0x93F SWAP14 SWAP5 POP SWAP6 PUSH1 0x5 SWAP3 DUP11 DUP15 SWAP4 DUP15 PUSH1 0xA SWAP16 SWAP15 SWAP13 SWAP12 PUSH1 0x0 DUP1 MLOAD PUSH1 0x20 PUSH2 0x1905 DUP4 CODECOPY DUP2 MLOAD SWAP2 MSTORE SWAP13 PUSH2 0x101 PUSH1 0x80 SWAP14 PUSH2 0xFFFF NOT AND OR SWAP1 SSTORE DUP7 MLOAD DUP3 DUP2 ADD SWAP1 DUP6 DUP3 MSTORE TIMESTAMP DUP10 DUP3 ADD MSTORE DUP9 DUP2 MSTORE PUSH2 0x47F DUP2 PUSH2 0x1675 JUMP JUMPDEST PUSH4 0x4E487B71 PUSH1 0xE0 SHL DUP15 MSTORE PUSH1 0x11 DUP7 MSTORE PUSH1 0x24 DUP15 REVERT JUMPDEST DUP6 MLOAD PUSH3 0x461BCD PUSH1 0xE5 SHL DUP2 MSTORE DUP1 DUP4 ADD DUP7 SWAP1 MSTORE PUSH1 0xD PUSH1 0x24 DUP3 ADD MSTORE PUSH13 0x4E6F7420796F75722067616D65 PUSH1 0x98 SHL PUSH1 0x44 DUP3 ADD MSTORE PUSH1 0x64 SWAP1 REVERT JUMPDEST SWAP1 POP CALLVALUE PUSH2 0x57F JUMPI PUSH1 0x20 CALLDATASIZE PUSH1 0x3 NOT ADD SLT PUSH2 0x57F JUMPI DUP2 DUP4 PUSH1 0xC0 SWAP5 PUSH1 0xA0 DUP4 MLOAD PUSH2 0xADC DUP2 PUSH2 0x1613 JUMP JUMPDEST DUP3 DUP2 MSTORE DUP3 PUSH1 0x20 DUP3 ADD MSTORE DUP3 DUP6 DUP3 ADD MSTORE DUP3 PUSH1 0x60 DUP3 ADD MSTORE DUP3 PUSH1 0x80 DUP3 ADD MSTORE ADD MSTORE DUP3 CALLDATALOAD DUP2 MSTORE PUSH1 0xC PUSH1 0x20 MSTORE KECCAK256 DUP3 MLOAD SWAP2 PUSH2 0xB0E DUP4 PUSH2 0x1613 JUMP JUMPDEST PUSH1 0x1 DUP1 PUSH1 0xA0 SHL SUB DUP3 SLOAD AND SWAP4 DUP5 DUP5 MSTORE PUSH1 0x1 DUP4 ADD SLOAD PUSH1 0x20 DUP6 ADD SWAP1 DUP2 MSTORE PUSH1 0x2 DUP5 ADD SLOAD SWAP1 DUP3 DUP7 ADD SWAP2 DUP3 MSTORE PUSH1 0xA0 PUSH1 0x5 PUSH1 0x3 DUP8 ADD SLOAD SWAP6 PUSH1 0x60 DUP10 ADD SWAP7 DUP8 MSTORE DUP8 ADD SLOAD SWAP7 PUSH1 0x80 DUP10 ADD SWAP8 DUP9 MSTORE ADD SLOAD SWAP7 ADD SWAP6 DUP7 MSTORE DUP3 MLOAD SWAP7 DUP8 MSTORE MLOAD PUSH1 0x20 DUP8 ADD MSTORE MLOAD SWAP1 DUP6 ADD MSTORE MLOAD PUSH1 0x60 DUP5 ADD MSTORE MLOAD PUSH1 0x80 DUP4 ADD MSTORE MLOAD PUSH1 0xA0 DUP3 ADD MSTORE RETURN JUMPDEST POP POP CALLVALUE PUSH2 0x154 JUMPI DUP2 PUSH1 0x3 NOT CALLDATASIZE ADD SLT PUSH2 0x154 JUMPI SWAP1 SLOAD SWAP1 MLOAD PUSH1 0x1 PUSH1 0x1 PUSH1 0xA0 SHL SUB SWAP1 SWAP2 AND DUP2 MSTORE PUSH1 0x20 SWAP1 RETURN JUMPDEST DUP3 DUP5 CALLVALUE PUSH2 0xBCA JUMPI PUSH1 0x20 CALLDATASIZE PUSH1 0x3 NOT ADD SLT PUSH2 0xBCA JUMPI POP PUSH2 0xBC3 PUSH1 0x20 SWAP3 CALLDATALOAD PUSH2 0x16D3 JUMP JUMPDEST SWAP1 MLOAD SWAP1 DUP2 MSTORE RETURN JUMPDEST DUP1 REVERT JUMPDEST SWAP1 POP CALLVALUE PUSH2 0x57F JUMPI PUSH1 0x20 CALLDATASIZE PUSH1 0x3 NOT ADD SLT PUSH2 0x57F JUMPI PUSH1 0x20 SWAP3 DUP3 SWAP2 CALLDATALOAD DUP2 MSTORE PUSH1 0xB DUP5 MSTORE KECCAK256 SLOAD SWAP1 MLOAD SWAP1 DUP2 MSTORE RETURN JUMPDEST POP POP CALLVALUE PUSH2 0x154 JUMPI DUP2 PUSH1 0x3 NOT CALLDATASIZE ADD SLT PUSH2 0x154 JUMPI PUSH1 0x20 SWAP1 PUSH1 0x9 SLOAD SWAP1 MLOAD SWAP1 DUP2 MSTORE RETURN JUMPDEST DUP4 CALLVALUE PUSH2 0xBCA JUMPI DUP1 PUSH1 0x3 NOT CALLDATASIZE ADD SLT PUSH2 0xBCA JUMPI PUSH2 0xC2D PUSH2 0x1888 JUMP JUMPDEST PUSH3 0x10000 PUSH3 0xFF0000 NOT PUSH1 0x5 SLOAD AND OR PUSH1 0x5 SSTORE DUP1 RETURN JUMPDEST DUP4 CALLVALUE PUSH2 0xBCA JUMPI PUSH1 0x20 CALLDATASIZE PUSH1 0x3 NOT ADD SLT PUSH2 0xBCA JUMPI PUSH2 0xC5B PUSH2 0x15D5 JUMP JUMPDEST PUSH2 0xC63 PUSH2 0x1888 JUMP JUMPDEST PUSH1 0x1 DUP1 PUSH1 0xA0 SHL SUB AND PUSH1 0x1 PUSH1 0x1 PUSH1 0x60 SHL SUB PUSH1 0xA0 SHL PUSH1 0x6 SLOAD AND OR PUSH1 0x6 SSTORE DUP1 RETURN JUMPDEST DUP3 DUP5 CALLVALUE PUSH2 0xBCA JUMPI DUP1 PUSH1 0x3 NOT CALLDATASIZE ADD SLT PUSH2 0xBCA JUMPI POP PUSH1 0xFF PUSH1 0xA0 SWAP3 PUSH1 0x1 DUP1 DUP6 SHL SUB PUSH1 0x2 SLOAD AND SWAP3 PUSH1 0x3 SLOAD SWAP2 SLOAD SWAP1 PUSH1 0x5 SLOAD SWAP3 DUP2 MLOAD SWAP6 DUP7 MSTORE PUSH1 0x20 DUP7 ADD MSTORE DUP5 ADD MSTORE PUSH2 0xFFFF DUP2 AND PUSH1 0x60 DUP5 ADD MSTORE PUSH1 0x10 SHR AND ISZERO ISZERO PUSH1 0x80 DUP3 ADD MSTORE RETURN JUMPDEST SWAP2 SWAP1 POP CALLVALUE PUSH2 0x57F JUMPI PUSH1 0x20 CALLDATASIZE PUSH1 0x3 NOT ADD SLT PUSH2 0x57F JUMPI DUP1 DUP4 PUSH1 0xE0 SWAP5 PUSH1 0xC0 DUP4 MLOAD PUSH2 0xCF8 DUP2 PUSH2 0x1645 JUMP JUMPDEST DUP3 DUP2 MSTORE DUP3 PUSH1 0x20 DUP3 ADD MSTORE DUP3 DUP6 DUP3 ADD MSTORE DUP3 PUSH1 0x60 DUP3 ADD MSTORE DUP3 PUSH1 0x80 DUP3 ADD MSTORE DUP3 PUSH1 0xA0 DUP3 ADD MSTORE ADD MSTORE DUP4 CALLDATALOAD DUP2 MSTORE PUSH1 0xA PUSH1 0x20 MSTORE KECCAK256 DUP2 MLOAD SWAP1 PUSH2 0xD30 DUP3 PUSH2 0x1645 JUMP JUMPDEST PUSH1 0x1 DUP1 PUSH1 0xA0 SHL SUB DUP2 SLOAD AND SWAP4 DUP5 DUP4 MSTORE PUSH1 0x1 DUP3 ADD SLOAD SWAP4 PUSH1 0x20 DUP5 ADD SWAP5 DUP6 MSTORE PUSH1 0x2 DUP4 ADD SLOAD DUP2 DUP6 ADD SWAP1 DUP2 MSTORE PUSH1 0x5 PUSH1 0x3 DUP6 ADD SLOAD SWAP4 PUSH1 0x60 DUP8 ADD SWAP5 DUP6 MSTORE DUP6 ADD SLOAD SWAP5 PUSH1 0x80 DUP8 ADD SWAP6 DUP7 MSTORE ADD SLOAD SWAP6 PUSH1 0xFF PUSH1 0xC0 PUSH1 0xA0 DUP9 ADD SWAP8 DUP3 DUP11 AND ISZERO ISZERO DUP10 MSTORE ADD SWAP8 PUSH1 0x8 SHR AND ISZERO ISZERO DUP8 MSTORE DUP3 MLOAD SWAP8 DUP9 MSTORE MLOAD PUSH1 0x20 DUP9 ADD MSTORE MLOAD SWAP1 DUP7 ADD MSTORE MLOAD PUSH1 0x60 DUP6 ADD MSTORE MLOAD PUSH1 0x80 DUP5 ADD MSTORE MLOAD ISZERO ISZERO PUSH1 0xA0 DUP4 ADD MSTORE MLOAD ISZERO ISZERO PUSH1 0xC0 DUP3 ADD MSTORE RETURN JUMPDEST POP POP CALLVALUE PUSH2 0x154 JUMPI DUP2 PUSH1 0x3 NOT CALLDATASIZE ADD SLT PUSH2 0x154 JUMPI PUSH1 0x6 SLOAD SWAP1 MLOAD PUSH1 0x1 PUSH1 0x1 PUSH1 0xA0 SHL SUB SWAP1 SWAP2 AND DUP2 MSTORE PUSH1 0x20 SWAP1 RETURN JUMPDEST DUP4 CALLVALUE PUSH2 0xBCA JUMPI DUP1 PUSH1 0x3 NOT CALLDATASIZE ADD SLT PUSH2 0xBCA JUMPI PUSH2 0xDFD PUSH2 0x1888 JUMP JUMPDEST DUP1 SLOAD PUSH1 0x1 PUSH1 0x1 PUSH1 0xA0 SHL SUB NOT DUP2 AND DUP3 SSTORE DUP2 SWAP1 PUSH1 0x1 PUSH1 0x1 PUSH1 0xA0 SHL SUB AND PUSH32 0x8BE0079C531659141344CD1FD0A4F28419497F9722A3DAAFE3B4186F6B6457E0 DUP3 DUP1 LOG3 DUP1 RETURN JUMPDEST SWAP1 POP DUP2 PUSH1 0x3 NOT CALLDATASIZE ADD SLT PUSH2 0x57F JUMPI DUP1 CALLDATALOAD PUSH1 0x24 SWAP2 DUP3 CALLDATALOAD PUSH2 0xE5A PUSH2 0x18B4 JUMP JUMPDEST PUSH1 0xFF PUSH1 0x5 SLOAD PUSH1 0x10 SHR AND PUSH2 0x11E4 JUMPI PUSH2 0x2710 DUP2 LT ISZERO DUP1 PUSH2 0x11D7 JUMPI JUMPDEST ISZERO PUSH2 0x11A3 JUMPI PUSH1 0x3 SLOAD DUP3 SLOAD SWAP1 DUP5 LT PUSH2 0x1193 JUMPI DUP4 GT PUSH2 0x1184 JUMPI PUSH1 0x7 SLOAD PUSH1 0x1 PUSH1 0x1 PUSH1 0xA0 SHL SUB SWAP5 SWAP1 DUP6 AND DUP1 PUSH2 0x10DB JUMPI POP DUP4 CALLVALUE SUB PUSH2 0x10A7 JUMPI PUSH2 0xEB5 PUSH1 0xA DUP6 DIV PUSH1 0x9 SLOAD PUSH2 0x15F0 JUMP JUMPDEST PUSH1 0x9 SSTORE DUP7 DUP1 DUP1 DUP1 DUP8 DUP10 PUSH1 0x2 SLOAD AND GAS CALL RETURNDATASIZE ISZERO PUSH2 0x10A2 JUMPI RETURNDATASIZE PUSH8 0xFFFFFFFFFFFFFFFF DUP2 GT PUSH2 0x1090 JUMPI DUP8 MLOAD SWAP1 PUSH2 0xEF1 PUSH1 0x1F DUP3 ADD PUSH1 0x1F NOT AND PUSH1 0x20 ADD DUP4 PUSH2 0x1691 JUMP JUMPDEST DUP2 MSTORE DUP9 PUSH1 0x20 RETURNDATASIZE SWAP3 ADD RETURNDATACOPY JUMPDEST ISZERO PUSH2 0x105C JUMPI JUMPDEST PUSH1 0x8 SLOAD SWAP1 PUSH1 0x0 NOT DUP3 EQ PUSH2 0x104B JUMPI POP SWAP2 DUP7 SWAP5 SWAP3 SWAP2 PUSH1 0x1 DUP7 SWAP6 SWAP4 ADD SWAP7 DUP8 PUSH1 0x8 SSTORE DUP5 PUSH1 0x6 SLOAD AND SWAP5 DUP2 MLOAD SWAP6 PUSH4 0xF8413B07 PUSH1 0xE0 SHL DUP8 MSTORE DUP7 DUP6 DUP2 PUSH1 0x20 SWAP12 DUP13 SWAP5 GAS CALL DUP1 ISZERO PUSH2 0x1041 JUMPI DUP8 SWAP1 PUSH2 0x1013 JUMPI JUMPDEST PUSH1 0x5 SWAP7 POP DUP8 MSTORE PUSH1 0xB DUP9 MSTORE DUP9 DUP3 DUP9 KECCAK256 SSTORE DUP2 MLOAD SWAP5 PUSH2 0xF64 DUP7 PUSH2 0x1645 JUMP JUMPDEST CALLER DUP7 MSTORE DUP9 DUP7 ADD SWAP1 DUP2 MSTORE DUP3 DUP7 ADD SWAP2 DUP9 DUP4 MSTORE PUSH1 0x60 DUP8 ADD SWAP4 DUP10 DUP6 MSTORE PUSH1 0x80 DUP9 ADD SWAP6 DUP7 MSTORE PUSH1 0xA PUSH1 0xA0 DUP10 ADD SWAP12 DUP12 DUP14 MSTORE DUP14 DUP13 PUSH1 0xC0 DUP13 ADD SWAP14 DUP15 MSTORE MSTORE MSTORE DUP13 KECCAK256 SWAP7 MLOAD AND PUSH1 0x1 PUSH1 0x1 PUSH1 0x60 SHL SUB PUSH1 0xA0 SHL DUP8 SLOAD AND OR DUP7 SSTORE MLOAD PUSH1 0x1 DUP7 ADD SSTORE MLOAD PUSH1 0x2 DUP6 ADD SSTORE MLOAD PUSH1 0x3 DUP5 ADD SSTORE MLOAD SWAP1 DUP3 ADD SSTORE ADD SWAP2 MLOAD ISZERO ISZERO SWAP1 PUSH1 0xFF PUSH2 0xFF00 DUP5 SLOAD SWAP3 MLOAD ISZERO ISZERO PUSH1 0x8 SHL AND SWAP3 AND SWAP1 PUSH2 0xFFFF NOT AND OR OR SWAP1 SSTORE CALLER SWAP1 PUSH32 0xFADB9547847A0C2C31F4C02590545E318D33D7AAE99071CAECF3FA4CE3CD7DCA DUP4 DUP1 LOG3 PUSH1 0x1 DUP1 SSTORE DUP1 RETURN JUMPDEST POP DUP8 DUP7 DUP2 RETURNDATASIZE DUP4 GT PUSH2 0x103A JUMPI JUMPDEST PUSH2 0x1029 DUP2 DUP4 PUSH2 0x1691 JUMP JUMPDEST DUP2 ADD SUB SLT PUSH2 0x6D7 JUMPI PUSH1 0x5 SWAP6 MLOAD PUSH2 0xF49 JUMP JUMPDEST POP RETURNDATASIZE PUSH2 0x101F JUMP JUMPDEST DUP3 MLOAD RETURNDATASIZE DUP10 DUP3 RETURNDATACOPY RETURNDATASIZE SWAP1 REVERT JUMPDEST PUSH4 0x4E487B71 PUSH1 0xE0 SHL DUP9 MSTORE PUSH1 0x11 DUP5 MSTORE DUP8 REVERT JUMPDEST DUP3 PUSH1 0xF PUSH1 0x64 SWAP3 PUSH1 0x20 DUP10 MLOAD SWAP4 PUSH3 0x461BCD PUSH1 0xE5 SHL DUP6 MSTORE DUP5 ADD MSTORE DUP3 ADD MSTORE PUSH15 0x151C985B9CD9995C8819985A5B1959 PUSH1 0x8A SHL PUSH1 0x44 DUP3 ADD MSTORE REVERT JUMPDEST PUSH4 0x4E487B71 PUSH1 0xE0 SHL DUP10 MSTORE PUSH1 0x41 DUP6 MSTORE DUP3 DUP10 REVERT JUMPDEST PUSH2 0xEFB JUMP JUMPDEST DUP3 PUSH1 0xF PUSH1 0x64 SWAP3 PUSH1 0x20 DUP10 MLOAD SWAP4 PUSH3 0x461BCD PUSH1 0xE5 SHL DUP6 MSTORE DUP5 ADD MSTORE DUP3 ADD MSTORE PUSH15 0x82DADEEADCE840DAD2E6DAC2E8C6D PUSH1 0x8B SHL PUSH1 0x44 DUP3 ADD MSTORE REVERT JUMPDEST PUSH2 0x10EA PUSH1 0xA DUP7 DIV PUSH1 0x9 SLOAD PUSH2 0x15F0 JUMP JUMPDEST PUSH1 0x9 SSTORE PUSH1 0x2 SLOAD DUP8 MLOAD PUSH4 0x23B872DD PUSH1 0xE0 SHL PUSH1 0x20 DUP1 DUP4 ADD SWAP2 DUP3 MSTORE CALLER DUP7 DUP5 ADD SWAP1 DUP2 MSTORE SWAP4 DUP11 AND PUSH1 0x1 PUSH1 0x1 PUSH1 0xA0 SHL SUB AND DUP5 DUP3 ADD MSTORE PUSH1 0x40 DUP5 ADD DUP10 SWAP1 MSTORE SWAP3 DUP12 SWAP3 SWAP1 PUSH2 0x113B SWAP1 DUP3 SWAP1 PUSH1 0x60 ADD SUB PUSH1 0x1F NOT DUP2 ADD DUP4 MSTORE DUP3 PUSH2 0x1691 JUMP JUMPDEST MLOAD SWAP1 DUP3 DUP6 GAS CALL ISZERO PUSH2 0x117A JUMPI DUP8 MLOAD RETURNDATASIZE PUSH2 0x1171 JUMPI POP DUP1 EXTCODESIZE ISZERO JUMPDEST PUSH2 0x115C JUMPI POP PUSH2 0xF01 JUMP JUMPDEST DUP7 MLOAD PUSH4 0x5274AFE7 PUSH1 0xE0 SHL DUP2 MSTORE DUP1 DUP6 ADD SWAP2 SWAP1 SWAP2 MSTORE REVERT JUMPDEST PUSH1 0x1 EQ ISZERO PUSH2 0x1152 JUMP JUMPDEST DUP7 MLOAD RETURNDATASIZE DUP10 DUP3 RETURNDATACOPY RETURNDATASIZE SWAP1 REVERT JUMPDEST POP DUP4 MLOAD PUSH4 0x17653201 PUSH1 0xE1 SHL DUP2 MSTORE REVERT JUMPDEST DUP6 MLOAD PUSH4 0x989E3017 PUSH1 0xE0 SHL DUP2 MSTORE DUP4 SWAP1 REVERT JUMPDEST DUP5 MLOAD PUSH3 0x461BCD PUSH1 0xE5 SHL DUP2 MSTORE PUSH1 0x20 DUP2 DUP5 ADD MSTORE PUSH1 0xF DUP2 DUP7 ADD MSTORE PUSH15 0x125B9D985B1A590818D85CDA1BDD5D PUSH1 0x8A SHL PUSH1 0x44 DUP3 ADD MSTORE PUSH1 0x64 SWAP1 REVERT JUMPDEST POP PUSH3 0x186A0 DUP2 GT ISZERO PUSH2 0xE73 JUMP JUMPDEST DUP5 MLOAD PUSH3 0x461BCD PUSH1 0xE5 SHL DUP2 MSTORE PUSH1 0x20 DUP2 DUP5 ADD MSTORE PUSH1 0x6 DUP2 DUP7 ADD MSTORE PUSH6 0x14185D5CD959 PUSH1 0xD2 SHL PUSH1 0x44 DUP3 ADD MSTORE PUSH1 0x64 SWAP1 REVERT JUMPDEST DUP4 CALLVALUE PUSH2 0xBCA JUMPI DUP1 PUSH1 0x3 NOT CALLDATASIZE ADD SLT PUSH2 0xBCA JUMPI PUSH2 0x1228 PUSH2 0x1888 JUMP JUMPDEST PUSH3 0xFF0000 NOT PUSH1 0x5 SLOAD AND PUSH1 0x5 SSTORE DUP1 RETURN JUMPDEST POP POP CALLVALUE PUSH2 0x154 JUMPI DUP2 PUSH1 0x3 NOT CALLDATASIZE ADD SLT PUSH2 0x154 JUMPI PUSH1 0x20 SWAP1 PUSH1 0x8 SLOAD SWAP1 MLOAD SWAP1 DUP2 MSTORE RETURN JUMPDEST POP POP CALLVALUE PUSH2 0x154 JUMPI DUP2 PUSH1 0x3 NOT CALLDATASIZE ADD SLT PUSH2 0x154 JUMPI PUSH1 0x20 SWAP1 MLOAD PUSH2 0x3E8 DUP2 MSTORE RETURN JUMPDEST DUP4 DUP4 CALLVALUE PUSH2 0x154 JUMPI DUP1 PUSH1 0x3 NOT CALLDATASIZE ADD SLT PUSH2 0x154 JUMPI PUSH1 0x6 SLOAD PUSH1 0x24 CALLDATALOAD SWAP4 PUSH1 0x1 PUSH1 0x1 PUSH1 0xA0 SHL SUB SWAP3 SWAP2 DUP2 CALLDATALOAD SWAP1 DUP5 AND CALLER SUB PUSH2 0x14CA JUMPI DUP1 DUP6 MSTORE PUSH1 0x20 SWAP2 PUSH1 0xB DUP4 MSTORE DUP4 DUP7 KECCAK256 SLOAD SWAP5 DUP6 DUP8 MSTORE PUSH1 0xA DUP5 MSTORE DUP5 DUP8 KECCAK256 SWAP2 DUP2 DUP4 SLOAD AND DUP1 ISZERO PUSH2 0x1498 JUMPI PUSH1 0x2 DUP5 ADD SWAP10 DUP11 SLOAD PUSH2 0x1461 JUMPI PUSH2 0x2710 SWAP5 PUSH3 0x15F90 DUP3 MOD DUP7 ADD DUP1 SWAP7 GT PUSH2 0x144E JUMPI DUP6 DUP12 SWAP13 SWAP12 SWAP11 SWAP12 SSTORE TIMESTAMP PUSH1 0x3 DUP3 ADD SSTORE DUP6 DUP5 DUP3 ADD SLOAD LT ISZERO PUSH1 0x0 EQ PUSH2 0x1418 JUMPI SWAP4 DUP10 PUSH1 0x5 DUP11 PUSH1 0x0 DUP1 MLOAD PUSH1 0x20 PUSH2 0x1905 DUP4 CODECOPY DUP2 MLOAD SWAP2 MSTORE SWAP7 PUSH1 0x80 SWAP7 PUSH1 0xB SWAP14 SWAP15 SWAP16 DUP12 DUP15 PUSH2 0x3E8 DUP4 SWAP15 SWAP11 DUP9 DUP6 SWAP16 ADD PUSH2 0x100 PUSH2 0xFF00 NOT DUP3 SLOAD AND OR SWAP1 SSTORE MOD SWAP9 DUP7 DUP11 SWAP8 MLOAD SWAP10 DUP11 SWAP7 PUSH2 0x1346 DUP9 PUSH2 0x1613 JUMP JUMPDEST DUP8 MSTORE PUSH1 0xC DUP5 DUP9 ADD SWAP5 DUP8 DUP7 MSTORE DUP4 DUP10 ADD SWAP7 DUP8 MSTORE PUSH1 0x60 DUP10 ADD SWAP8 DUP4 DUP10 MSTORE PUSH1 0x80 PUSH1 0xA0 SWAP1 DUP12 ADD SWAP11 DUP6 DUP13 MSTORE ADD SWAP12 DUP13 MSTORE DUP4 MSTORE MSTORE KECCAK256 SWAP9 MLOAD AND PUSH1 0x1 PUSH1 0x1 PUSH1 0x60 SHL SUB PUSH1 0xA0 SHL DUP10 SLOAD AND OR DUP9 SSTORE MLOAD PUSH1 0x1 DUP9 ADD SSTORE MLOAD PUSH1 0x2 DUP8 ADD SSTORE MLOAD PUSH1 0x3 DUP7 ADD SSTORE MLOAD SWAP1 DUP5 ADD SSTORE MLOAD SWAP2 ADD SSTORE DUP5 PUSH32 0x3D8FDD92F5BA5B88F5FD67B85AA9626921CA9AC90511F3F3948C40FE0C1F86B4 DUP10 DUP13 MLOAD DUP6 DUP2 MSTORE LOG2 DUP10 MLOAD SWAP2 DUP3 MSTORE DUP11 DUP9 DUP4 ADD MSTORE DUP11 DUP11 DUP4 ADD MSTORE PUSH1 0x60 DUP3 ADD MSTORE LOG2 DUP6 MSTORE PUSH1 0xA DUP3 MSTORE PUSH2 0x140F DUP5 DUP7 KECCAK256 PUSH1 0x5 PUSH1 0x0 SWAP2 DUP3 DUP2 SSTORE DUP3 PUSH1 0x1 DUP3 ADD SSTORE DUP3 PUSH1 0x2 DUP3 ADD SSTORE DUP3 PUSH1 0x3 DUP3 ADD SSTORE DUP3 PUSH1 0x4 DUP3 ADD SSTORE ADD SSTORE JUMP JUMPDEST DUP5 MSTORE MSTORE DUP2 KECCAK256 SSTORE DUP1 RETURN JUMPDEST POP POP POP POP POP POP POP PUSH32 0xD66DBC1B5A153F9D6F370EABB4D4E003A977E0EAF0B4208D3AAA5643ADADAEC6 SWAP3 DUP3 MLOAD SWAP2 DUP2 DUP4 MSTORE DUP3 ADD MSTORE LOG2 DUP1 RETURN JUMPDEST PUSH4 0x4E487B71 PUSH1 0xE0 SHL DUP12 MSTORE PUSH1 0x11 DUP5 MSTORE PUSH1 0x24 DUP12 REVERT JUMPDEST DUP8 MLOAD PUSH3 0x461BCD PUSH1 0xE5 SHL DUP2 MSTORE DUP1 DUP5 ADD DUP9 SWAP1 MSTORE PUSH1 0x11 PUSH1 0x24 DUP3 ADD MSTORE PUSH17 0x105B1C9958591E48199D5B199A5B1B1959 PUSH1 0x7A SHL PUSH1 0x44 DUP3 ADD MSTORE PUSH1 0x64 SWAP1 REVERT JUMPDEST DUP7 MLOAD PUSH3 0x461BCD PUSH1 0xE5 SHL DUP2 MSTORE DUP1 DUP4 ADD DUP8 SWAP1 MSTORE PUSH1 0xC PUSH1 0x24 DUP3 ADD MSTORE PUSH12 0x496E76616C69642067616D65 PUSH1 0xA0 SHL PUSH1 0x44 DUP3 ADD MSTORE PUSH1 0x64 SWAP1 REVERT JUMPDEST POP PUSH1 0x20 PUSH1 0x64 SWAP3 MLOAD SWAP2 PUSH3 0x461BCD PUSH1 0xE5 SHL DUP4 MSTORE DUP3 ADD MSTORE PUSH1 0x8 PUSH1 0x24 DUP3 ADD MSTORE PUSH8 0x27B7363C902B2923 PUSH1 0xC1 SHL PUSH1 0x44 DUP3 ADD MSTORE REVERT JUMPDEST SWAP2 SWAP1 POP CALLVALUE PUSH2 0x57F JUMPI PUSH1 0x20 CALLDATASIZE PUSH1 0x3 NOT ADD SLT PUSH2 0x57F JUMPI DUP1 PUSH1 0xFF SWAP2 PUSH1 0xE0 SWAP5 DUP5 CALLDATALOAD DUP2 MSTORE PUSH1 0xA PUSH1 0x20 MSTORE KECCAK256 PUSH1 0x1 DUP1 PUSH1 0xA0 SHL SUB DUP2 SLOAD AND SWAP4 PUSH1 0x1 DUP3 ADD SLOAD SWAP3 PUSH1 0x2 DUP4 ADD SLOAD SWAP1 PUSH1 0x5 PUSH1 0x3 DUP6 ADD SLOAD SWAP4 DUP6 ADD SLOAD SWAP5 ADD SLOAD SWAP5 DUP2 MLOAD SWAP8 DUP9 MSTORE PUSH1 0x20 DUP9 ADD MSTORE DUP7 ADD MSTORE PUSH1 0x60 DUP6 ADD MSTORE PUSH1 0x80 DUP5 ADD MSTORE DUP2 DUP2 AND ISZERO ISZERO PUSH1 0xA0 DUP5 ADD MSTORE PUSH1 0x8 SHR AND ISZERO ISZERO PUSH1 0xC0 DUP3 ADD MSTORE RETURN JUMPDEST SWAP3 SWAP2 POP CALLVALUE PUSH2 0x57B JUMPI PUSH1 0x20 CALLDATASIZE PUSH1 0x3 NOT ADD SLT PUSH2 0x57B JUMPI DUP2 PUSH1 0xC0 SWAP5 DUP3 CALLDATALOAD DUP2 MSTORE PUSH1 0xC PUSH1 0x20 MSTORE KECCAK256 SWAP1 PUSH1 0x1 DUP1 PUSH1 0xA0 SHL SUB DUP3 SLOAD AND SWAP3 PUSH1 0x1 DUP4 ADD SLOAD SWAP1 PUSH1 0x2 DUP5 ADD SLOAD SWAP2 PUSH1 0x5 PUSH1 0x3 DUP7 ADD SLOAD SWAP5 DUP7 ADD SLOAD SWAP6 ADD SLOAD SWAP6 DUP8 MSTORE PUSH1 0x20 DUP8 ADD MSTORE DUP6 ADD MSTORE PUSH1 0x60 DUP5 ADD MSTORE PUSH1 0x80 DUP4 ADD MSTORE PUSH1 0xA0 DUP3 ADD MSTORE RETURN JUMPDEST PUSH1 0x4 CALLDATALOAD SWAP1 PUSH1 0x1 PUSH1 0x1 PUSH1 0xA0 SHL SUB DUP3 AND DUP3 SUB PUSH2 0x15EB JUMPI JUMP JUMPDEST PUSH1 0x0 DUP1 REVERT JUMPDEST SWAP2 SWAP1 DUP3 ADD DUP1 SWAP3 GT PUSH2 0x15FD JUMPI JUMP JUMPDEST PUSH4 0x4E487B71 PUSH1 0xE0 SHL PUSH1 0x0 MSTORE PUSH1 0x11 PUSH1 0x4 MSTORE PUSH1 0x24 PUSH1 0x0 REVERT JUMPDEST PUSH1 0xC0 DUP2 ADD SWAP1 DUP2 LT PUSH8 0xFFFFFFFFFFFFFFFF DUP3 GT OR PUSH2 0x162F JUMPI PUSH1 0x40 MSTORE JUMP JUMPDEST PUSH4 0x4E487B71 PUSH1 0xE0 SHL PUSH1 0x0 MSTORE PUSH1 0x41 PUSH1 0x4 MSTORE PUSH1 0x24 PUSH1 0x0 REVERT JUMPDEST PUSH1 0xE0 DUP2 ADD SWAP1 DUP2 LT PUSH8 0xFFFFFFFFFFFFFFFF DUP3 GT OR PUSH2 0x162F JUMPI PUSH1 0x40 MSTORE JUMP JUMPDEST PUSH8 0xFFFFFFFFFFFFFFFF DUP2 GT PUSH2 0x162F JUMPI PUSH1 0x40 MSTORE JUMP JUMPDEST PUSH1 0x60 DUP2 ADD SWAP1 DUP2 LT PUSH8 0xFFFFFFFFFFFFFFFF DUP3 GT OR PUSH2 0x162F JUMPI PUSH1 0x40 MSTORE JUMP JUMPDEST SWAP1 PUSH1 0x1F DUP1 NOT SWAP2 ADD AND DUP2 ADD SWAP1 DUP2 LT PUSH8 0xFFFFFFFFFFFFFFFF DUP3 GT OR PUSH2 0x162F JUMPI PUSH1 0x40 MSTORE JUMP JUMPDEST SWAP2 SWAP1 DUP3 SUB SWAP2 DUP3 GT PUSH2 0x15FD JUMPI JUMP JUMPDEST DUP2 DUP2 MUL SWAP3 SWAP2 DUP2 ISZERO SWAP2 DUP5 DIV EQ OR ISZERO PUSH2 0x15FD JUMPI JUMP JUMPDEST PUSH1 0x0 SWAP1 DUP2 MSTORE PUSH1 0xA PUSH1 0x20 MSTORE PUSH1 0x40 DUP2 KECCAK256 PUSH1 0x40 MLOAD PUSH2 0x16ED DUP2 PUSH2 0x1645 JUMP JUMPDEST PUSH1 0x1 DUP1 PUSH1 0xA0 SHL SUB DUP3 SLOAD AND DUP2 MSTORE PUSH1 0x1 DUP3 ADD SLOAD PUSH1 0x20 DUP3 ADD MSTORE PUSH1 0x2 DUP3 ADD SLOAD SWAP1 DUP2 PUSH1 0x40 DUP3 ADD MSTORE PUSH1 0x5 PUSH1 0x3 DUP5 ADD SLOAD SWAP4 DUP5 PUSH1 0x60 DUP5 ADD MSTORE PUSH1 0x4 DUP2 ADD SLOAD PUSH1 0x80 DUP5 ADD MSTORE ADD SLOAD PUSH1 0xC0 PUSH1 0xFF DUP1 DUP4 AND ISZERO ISZERO SWAP3 DUP4 PUSH1 0xA0 DUP7 ADD MSTORE PUSH1 0x8 SHR AND ISZERO SWAP3 DUP4 ISZERO SWAP2 DUP3 SWAP2 ADD MSTORE DUP5 ISZERO DUP1 ISZERO PUSH2 0x17BD JUMPI JUMPDEST PUSH2 0x17B1 JUMPI SWAP2 PUSH2 0x17A9 JUMPI JUMPDEST POP PUSH2 0x17A3 JUMPI POP PUSH2 0x1769 SWAP1 TIMESTAMP PUSH2 0x16B3 JUMP JUMPDEST SWAP1 PUSH2 0x3E8 SWAP2 DUP3 DUP2 MUL SWAP3 DUP2 DUP5 DIV EQ SWAP1 ISZERO OR ISZERO PUSH2 0x178F JUMPI PUSH2 0x2710 SWAP2 DUP3 ADD DUP1 SWAP3 GT PUSH2 0x178F JUMPI POP SWAP1 JUMP JUMPDEST PUSH4 0x4E487B71 PUSH1 0xE0 SHL DUP2 MSTORE PUSH1 0x11 PUSH1 0x4 MSTORE PUSH1 0x24 SWAP1 REVERT JUMPDEST SWAP2 POP POP SWAP1 JUMP JUMPDEST SWAP1 POP CODESIZE PUSH2 0x1759 JUMP JUMPDEST POP POP POP POP POP POP PUSH2 0x2710 SWAP1 JUMP JUMPDEST POP DUP4 ISZERO PUSH2 0x174F JUMP JUMPDEST ISZERO PUSH2 0x17CC JUMPI JUMP JUMPDEST PUSH1 0x40 MLOAD PUSH3 0x461BCD PUSH1 0xE5 SHL DUP2 MSTORE PUSH1 0x20 PUSH1 0x4 DUP3 ADD MSTORE PUSH1 0x12 PUSH1 0x24 DUP3 ADD MSTORE PUSH18 0x105B1C9958591E4818D85CDA1959081BDD5D PUSH1 0x72 SHL PUSH1 0x44 DUP3 ADD MSTORE PUSH1 0x64 SWAP1 REVERT JUMPDEST ISZERO PUSH2 0x180D JUMPI JUMP JUMPDEST PUSH1 0x40 MLOAD PUSH3 0x461BCD PUSH1 0xE5 SHL DUP2 MSTORE PUSH1 0x20 PUSH1 0x4 DUP3 ADD MSTORE PUSH1 0x14 PUSH1 0x24 DUP3 ADD MSTORE PUSH20 0x11D85B5948185B1C9958591E4818DC985CDA1959 PUSH1 0x62 SHL PUSH1 0x44 DUP3 ADD MSTORE PUSH1 0x64 SWAP1 REVERT JUMPDEST ISZERO PUSH2 0x1850 JUMPI JUMP JUMPDEST PUSH1 0x40 MLOAD PUSH3 0x461BCD PUSH1 0xE5 SHL DUP2 MSTORE PUSH1 0x20 PUSH1 0x4 DUP3 ADD MSTORE PUSH1 0x10 PUSH1 0x24 DUP3 ADD MSTORE PUSH16 0x11D85B59481B9BDD081CDD185C9D1959 PUSH1 0x82 SHL PUSH1 0x44 DUP3 ADD MSTORE PUSH1 0x64 SWAP1 REVERT JUMPDEST PUSH1 0x0 SLOAD PUSH1 0x1 PUSH1 0x1 PUSH1 0xA0 SHL SUB AND CALLER SUB PUSH2 0x189C JUMPI JUMP JUMPDEST PUSH1 0x40 MLOAD PUSH4 0x118CDAA7 PUSH1 0xE0 SHL DUP2 MSTORE CALLER PUSH1 0x4 DUP3 ADD MSTORE PUSH1 0x24 SWAP1 REVERT JUMPDEST PUSH1 0x2 PUSH1 0x1 SLOAD EQ PUSH2 0x18C5 JUMPI PUSH1 0x2 PUSH1 0x1 SSTORE JUMP JUMPDEST PUSH1 0x40 MLOAD PUSH4 0x3EE5AEB5 PUSH1 0xE0 SHL DUP2 MSTORE PUSH1 0x4 SWAP1 REVERT JUMPDEST SWAP1 PUSH2 0x18FA PUSH2 0xFFFF PUSH2 0x1901 SWAP5 SWAP4 PUSH2 0x18F1 PUSH2 0x2710 SWAP5 DUP6 SWAP3 PUSH2 0x16C0 JUMP JUMPDEST DIV SWAP4 AND DUP4 PUSH2 0x16C0 JUMP JUMPDEST DIV SWAP1 PUSH2 0x16B3 JUMP JUMPDEST SWAP1 JUMP INVALID 0xDF 0xD2 0xAE JUMPI COINBASE 0xF8 CODESIZE SGT 0xF PUSH25 0xE33FFD1D53A7B06C3A5980162496B945D7F09F37AA7DA26469 PUSH17 0x667358221220E96D2B1F1331A3C30C7E6A 0xE3 DUP5 0x25 PUSH29 0xC7CBA1EA38502866655C7F5D363C91E1464736F6C6343000818003300 "},"methodIdentifiers":{"MULTIPLIER_PER_SECOND()":"2b452427","activeGames(uint256)":"13e4c714","cashout(uint256)":"a9e732bb","checkAutoCashout(uint256)":"fbe995e7","config()":"79502c55","fulfillRandomness(bytes32,uint256)":"1f1f897f","gameCounter()":"2e0be39a","games(uint256)":"117a5b90","getActiveGame(uint256)":"78250658","getCurrentMultiplier(uint256)":"8b25e8c1","getGame(uint256)":"a2f77bcc","getPrizePool()":"884bf67c","initialize(address,uint256,uint256,uint16)":"cbb6d6bd","owner()":"8da5cb5b","pause()":"8456cb59","placeBet(uint256,uint256)":"4afe62b5","prizePool()":"719ce73e","pythVRF()":"772d84c4","renounceOwnership()":"715018a6","setPythVRF(address)":"83ba98ae","token()":"fc0c546a","transferOwnership(address)":"f2fde38b","unpause()":"3f4ba83a","vrfRequestToGame(bytes32)":"8a7626d1"}}}}}