{"contracts/casino/Crash.sol":{"Crash":{"abi":[{"inputs":[{"internalType":"address","name":"_owner","type":"address"},{"internalType":"address","name":"_token","type":"address"}],"stateMutability":"nonpayable","type":"constructor"},{"inputs":[],"name":"BetTooHigh","type":"error"},{"inputs":[],"name":"BetTooLow","type":"error"},{"inputs":[{"internalType":"address","name":"owner","type":"address"}],"name":"OwnableInvalidOwner","type":"error"},{"inputs":[{"internalType":"address","name":"account","type":"address"}],"name":"OwnableUnauthorizedAccount","type":"error"},{"inputs":[],"name":"ReentrancyGuardReentrantCall","type":"error"},{"inputs":[{"internalType":"address","name":"token","type":"address"}],"name":"SafeERC20FailedOperation","type":"error"},{"anonymous":false,"inputs":[{"indexed":true,"internalType":"address","name":"player","type":"address"},{"indexed":true,"internalType":"uint256","name":"gameId","type":"uint256"},{"indexed":false,"internalType":"uint256","name":"betAmount","type":"uint256"},{"indexed":false,"internalType":"uint256","name":"autoCashout","type":"uint256"}],"name":"BetPlaced","type":"event"},{"anonymous":false,"inputs":[{"indexed":true,"internalType":"address","name":"player","type":"address"},{"indexed":true,"internalType":"uint256","name":"gameId","type":"uint256"},{"indexed":false,"internalType":"uint256","name":"multiplier","type":"uint256"},{"indexed":false,"internalType":"uint256","name":"payout","type":"uint256"}],"name":"Cashout","type":"event"},{"anonymous":false,"inputs":[{"indexed":true,"internalType":"uint256","name":"gameId","type":"uint256"},{"indexed":false,"internalType":"uint256","name":"multiplier","type":"uint256"}],"name":"Crashed","type":"event"},{"anonymous":false,"inputs":[{"indexed":true,"internalType":"address","name":"player","type":"address"},{"indexed":true,"internalType":"uint256","name":"gameId","type":"uint256"},{"indexed":false,"internalType":"uint256","name":"betAmount","type":"uint256"},{"indexed":false,"internalType":"uint256","name":"result","type":"uint256"},{"indexed":false,"internalType":"uint256","name":"payout","type":"uint256"}],"name":"GamePlayed","type":"event"},{"anonymous":false,"inputs":[{"indexed":true,"internalType":"address","name":"previousOwner","type":"address"},{"indexed":true,"internalType":"address","name":"newOwner","type":"address"}],"name":"OwnershipTransferred","type":"event"},{"inputs":[{"internalType":"uint256","name":"gameId","type":"uint256"},{"internalType":"uint256","name":"currentMultiplier","type":"uint256"}],"name":"cashout","outputs":[],"stateMutability":"nonpayable","type":"function"},{"inputs":[],"name":"config","outputs":[{"internalType":"address","name":"treasury","type":"address"},{"internalType":"uint256","name":"minBet","type":"uint256"},{"internalType":"uint256","name":"maxBet","type":"uint256"},{"internalType":"uint16","name":"houseEdgeBps","type":"uint16"},{"internalType":"bool","name":"paused","type":"bool"}],"stateMutability":"view","type":"function"},{"inputs":[],"name":"gameCounter","outputs":[{"internalType":"uint256","name":"","type":"uint256"}],"stateMutability":"view","type":"function"},{"inputs":[{"internalType":"uint256","name":"","type":"uint256"}],"name":"games","outputs":[{"internalType":"address","name":"player","type":"address"},{"internalType":"uint256","name":"betAmount","type":"uint256"},{"internalType":"uint256","name":"gameId","type":"uint256"},{"internalType":"uint256","name":"timestamp","type":"uint256"},{"internalType":"bool","name":"settled","type":"bool"},{"internalType":"uint256","name":"result","type":"uint256"},{"internalType":"uint256","name":"payout","type":"uint256"}],"stateMutability":"view","type":"function"},{"inputs":[{"internalType":"address","name":"treasury","type":"address"},{"internalType":"uint256","name":"minBet","type":"uint256"},{"internalType":"uint256","name":"maxBet","type":"uint256"},{"internalType":"uint16","name":"houseEdgeBps","type":"uint16"}],"name":"initialize","outputs":[],"stateMutability":"nonpayable","type":"function"},{"inputs":[],"name":"owner","outputs":[{"internalType":"address","name":"","type":"address"}],"stateMutability":"view","type":"function"},{"inputs":[],"name":"pause","outputs":[],"stateMutability":"nonpayable","type":"function"},{"inputs":[{"internalType":"uint256","name":"betAmount","type":"uint256"},{"internalType":"uint256","name":"autoCashout","type":"uint256"}],"name":"placeBet","outputs":[],"stateMutability":"payable","type":"function"},{"inputs":[],"name":"renounceOwnership","outputs":[],"stateMutability":"nonpayable","type":"function"},{"inputs":[{"internalType":"uint256","name":"gameId","type":"uint256"}],"name":"settleCrashed","outputs":[],"stateMutability":"nonpayable","type":"function"},{"inputs":[],"name":"token","outputs":[{"internalType":"address","name":"","type":"address"}],"stateMutability":"view","type":"function"},{"inputs":[{"internalType":"address","name":"newOwner","type":"address"}],"name":"transferOwnership","outputs":[],"stateMutability":"nonpayable","type":"function"},{"inputs":[],"name":"unpause","outputs":[],"stateMutability":"nonpayable","type":"function"}],"evm":{"bytecode":{"linkReferences":{},"object":"6080346100d857601f610ba338819003918201601f19168301916001600160401b038311848410176100dd5780849260409485528339810103126100d857610052602061004b836100f3565b92016100f3565b906001600160a01b039081169081156100bf576000549260018060a01b03199280848616176000558260405195167f8be0079c531659141344cd1fd0a4f28419497f9722a3daafe3b4186f6b6457e0600080a36001805516906008541617600855610a9b90816101088239f35b604051631e4fbdf760e01b815260006004820152602490fd5b600080fd5b634e487b7160e01b600052604160045260246000fd5b51906001600160a01b03821682036100d85756fe608060408181526004918236101561001657600080fd5b600092833560e01c918263117a5b90146108c9575081632e0be39a146108aa5781633f4ba83a146108825781634afe62b51461057857816350fbe099146103be578163715018a61461036457816379502c55146103135781638456cb59146102e35781638da5cb5b146102bb578163cbb6d6bd146101ef578163f2fde38b1461015e578163f51c0cb6146100df575063fc0c546a146100b457600080fd5b346100db57816003193601126100db5760085490516001600160a01b039091168152602090f35b5080fd5b9190503461015a57602036600319011261015a5760207f853431bff47443da128e2c00b779fcd1bb4eecc6e76fa6d843f7a99fb93979c1916005843594610124610a16565b858752600684528287209081016001815461014260ff8216156109aa565b60ff191617905586600682015501549051908152a280f35b8280fd5b90503461015a57602036600319011261015a5761017961095c565b90610182610a16565b6001600160a01b039182169283156101d9575050600054826bffffffffffffffffffffffff60a01b821617600055167f8be0079c531659141344cd1fd0a4f28419497f9722a3daafe3b4186f6b6457e0600080a380f35b51631e4fbdf760e01b8152908101849052602490fd5b9190503461015a57608036600319011261015a5761020b61095c565b91602435604435926064359461ffff86168096036102b75761022b610a16565b81519060a0820182811067ffffffffffffffff8211176102a25783526001600160a01b03168082526020820184905291810185905260608101869052608001869052600280546001600160a01b0319169091179055600355556005805462ffffff191690911782151560101b62ff00001617905580f35b604186634e487b7160e01b6000525260246000fd5b8680fd5b5050346100db57816003193601126100db57905490516001600160a01b039091168152602090f35b83346103105780600319360112610310576102fc610a16565b6201000062ff000019600554161760055580f35b80fd5b8284346103105780600319360112610310575060ff60a092600180851b036002541692600354915490600554928151958652602086015284015261ffff8116606084015260101c1615156080820152f35b833461031057806003193601126103105761037d610a16565b600080546001600160a01b0319811682556001600160a01b03167f8be0079c531659141344cd1fd0a4f28419497f9722a3daafe3b4186f6b6457e08280a380f35b8383346100db576103ce36610941565b90916103d8610a42565b82845260066020528084208581018054916103f660ff8416156109aa565b80546001600160a01b03929083163303610545576064860293868504606414871517156105325760018301549461044461ffff600554169661043c6127109384926109ed565b0496876109ed565b0485039485116105325760ff19166001179055600581018590556006018290556002546008549082169116813b156102b757835163a00c695160e01b81526001600160a01b03909116818901908152336020820152604081018490529091879183919082908490829060600103925af18015610528576104f7575b50907fb47edd38d21a86b846fec29aa7134a8965397adf530b4875e554e735a172848f91815193845260208401523392a36001805580f35b67ffffffffffffffff819692961161051557825293945084866104bf565b634e487b7160e01b825260418752602482fd5b83513d88823e3d90fd5b634e487b7160e01b895260118a52602489fd5b845162461bcd60e51b81526020818b0152600d60248201526c4e6f7420796f75722067616d6560981b6044820152606490fd5b838361058336610941565b9161058c610a42565b60ff60055460101c16610852576003548554908310610842578211610833576008546001600160a01b0393908416806107a6575082340361077157848080808688600254165af13d1561076c573d67ffffffffffffffff811161075957835190610600601f8201601f191660200183610972565b81528660203d92013e5b15610724575b600754600019811461071157600101938460075582519060e0820182811067ffffffffffffffff8211176106fe57958760069282999a7f7363e6581df4db69463222156be4a09656528b9f1302890fa4c0b60819b69fc698998852338652602086018a8152888701858152606088019142835260808901948686528b60a08b01978c895260c08c0199818b5281528a602052209951166bffffffffffffffffffffffff60a01b8a541617895551600189015551600288015551600387015585019051151560ff8019835416911617905551600584015551910155815193845260208401523392a36001805580f35b634e487b7160e01b885260418952602488fd5b634e487b7160e01b865260118752602486fd5b815162461bcd60e51b8152602081880152600f60248201526e151c985b9cd9995c8819985a5b1959608a1b6044820152606490fd5b634e487b7160e01b875260418852602487fd5b61060a565b815162461bcd60e51b8152602081880152600f60248201526e082dadeeadce840dad2e6dac2e8c6d608b1b6044820152606490fd5b60025483516323b872dd60e01b60208083019182523360248401529288166001600160a01b031660448301526064808301889052825288916107e9608482610972565b519082855af1156108295785513d6108205750803b155b61080a5750610610565b86602491845191635274afe760e01b8352820152fd5b60011415610800565b82513d87823e3d90fd5b51631765320160e11b81528490fd5b815163989e301760e01b81528690fd5b5162461bcd60e51b8152602081860152600b60248201526a11d85b59481c185d5cd95960aa1b6044820152606490fd5b833461031057806003193601126103105761089b610a16565b62ff0000196005541660055580f35b5050346100db57816003193601126100db576020906007549051908152f35b8491843461093d57602036600319011261093d578060e094833581526006602052209060018060a01b038254169260018301549160028401549060ff600386015493860154169360066005870154960154968852602088015286015260608501521515608084015260a083015260c0820152f35b8380fd5b6040906003190112610957576004359060243590565b600080fd5b600435906001600160a01b038216820361095757565b90601f8019910116810190811067ffffffffffffffff82111761099457604052565b634e487b7160e01b600052604160045260246000fd5b156109b157565b60405162461bcd60e51b815260206004820152601460248201527311d85b5948185b1c9958591e481cd95d1d1b195960621b6044820152606490fd5b81810292918115918404141715610a0057565b634e487b7160e01b600052601160045260246000fd5b6000546001600160a01b03163303610a2a57565b60405163118cdaa760e01b8152336004820152602490fd5b600260015414610a53576002600155565b604051633ee5aeb560e01b8152600490fdfea2646970667358221220c77633c400d506739897bb435e9306fa7b5387c53320cfdc6ca81dd1fcfa26b964736f6c63430008180033","opcodes":"PUSH1 0x80 CALLVALUE PUSH2 0xD8 JUMPI PUSH1 0x1F PUSH2 0xBA3 CODESIZE DUP2 SWAP1 SUB SWAP2 DUP3 ADD PUSH1 0x1F NOT AND DUP4 ADD SWAP2 PUSH1 0x1 PUSH1 0x1 PUSH1 0x40 SHL SUB DUP4 GT DUP5 DUP5 LT OR PUSH2 0xDD JUMPI DUP1 DUP5 SWAP3 PUSH1 0x40 SWAP5 DUP6 MSTORE DUP4 CODECOPY DUP2 ADD SUB SLT PUSH2 0xD8 JUMPI PUSH2 0x52 PUSH1 0x20 PUSH2 0x4B DUP4 PUSH2 0xF3 JUMP JUMPDEST SWAP3 ADD PUSH2 0xF3 JUMP JUMPDEST SWAP1 PUSH1 0x1 PUSH1 0x1 PUSH1 0xA0 SHL SUB SWAP1 DUP2 AND SWAP1 DUP2 ISZERO PUSH2 0xBF JUMPI PUSH1 0x0 SLOAD SWAP3 PUSH1 0x1 DUP1 PUSH1 0xA0 SHL SUB NOT SWAP3 DUP1 DUP5 DUP7 AND OR PUSH1 0x0 SSTORE DUP3 PUSH1 0x40 MLOAD SWAP6 AND PUSH32 0x8BE0079C531659141344CD1FD0A4F28419497F9722A3DAAFE3B4186F6B6457E0 PUSH1 0x0 DUP1 LOG3 PUSH1 0x1 DUP1 SSTORE AND SWAP1 PUSH1 0x8 SLOAD AND OR PUSH1 0x8 SSTORE PUSH2 0xA9B SWAP1 DUP2 PUSH2 0x108 DUP3 CODECOPY RETURN JUMPDEST PUSH1 0x40 MLOAD PUSH4 0x1E4FBDF7 PUSH1 0xE0 SHL DUP2 MSTORE PUSH1 0x0 PUSH1 0x4 DUP3 ADD MSTORE PUSH1 0x24 SWAP1 REVERT JUMPDEST PUSH1 0x0 DUP1 REVERT JUMPDEST PUSH4 0x4E487B71 PUSH1 0xE0 SHL PUSH1 0x0 MSTORE PUSH1 0x41 PUSH1 0x4 MSTORE PUSH1 0x24 PUSH1 0x0 REVERT JUMPDEST MLOAD SWAP1 PUSH1 0x1 PUSH1 0x1 PUSH1 0xA0 SHL SUB DUP3 AND DUP3 SUB PUSH2 0xD8 JUMPI JUMP INVALID PUSH1 0x80 PUSH1 0x40 DUP2 DUP2 MSTORE PUSH1 0x4 SWAP2 DUP3 CALLDATASIZE LT ISZERO PUSH2 0x16 JUMPI PUSH1 0x0 DUP1 REVERT JUMPDEST PUSH1 0x0 SWAP3 DUP4 CALLDATALOAD PUSH1 0xE0 SHR SWAP2 DUP3 PUSH4 0x117A5B90 EQ PUSH2 0x8C9 JUMPI POP DUP2 PUSH4 0x2E0BE39A EQ PUSH2 0x8AA JUMPI DUP2 PUSH4 0x3F4BA83A EQ PUSH2 0x882 JUMPI DUP2 PUSH4 0x4AFE62B5 EQ PUSH2 0x578 JUMPI DUP2 PUSH4 0x50FBE099 EQ PUSH2 0x3BE JUMPI DUP2 PUSH4 0x715018A6 EQ PUSH2 0x364 JUMPI DUP2 PUSH4 0x79502C55 EQ PUSH2 0x313 JUMPI DUP2 PUSH4 0x8456CB59 EQ PUSH2 0x2E3 JUMPI DUP2 PUSH4 0x8DA5CB5B EQ PUSH2 0x2BB JUMPI DUP2 PUSH4 0xCBB6D6BD EQ PUSH2 0x1EF JUMPI DUP2 PUSH4 0xF2FDE38B EQ PUSH2 0x15E JUMPI DUP2 PUSH4 0xF51C0CB6 EQ PUSH2 0xDF JUMPI POP PUSH4 0xFC0C546A EQ PUSH2 0xB4 JUMPI PUSH1 0x0 DUP1 REVERT JUMPDEST CALLVALUE PUSH2 0xDB JUMPI DUP2 PUSH1 0x3 NOT CALLDATASIZE ADD SLT PUSH2 0xDB JUMPI PUSH1 0x8 SLOAD SWAP1 MLOAD PUSH1 0x1 PUSH1 0x1 PUSH1 0xA0 SHL SUB SWAP1 SWAP2 AND DUP2 MSTORE PUSH1 0x20 SWAP1 RETURN JUMPDEST POP DUP1 REVERT JUMPDEST SWAP2 SWAP1 POP CALLVALUE PUSH2 0x15A JUMPI PUSH1 0x20 CALLDATASIZE PUSH1 0x3 NOT ADD SLT PUSH2 0x15A JUMPI PUSH1 0x20 PUSH32 0x853431BFF47443DA128E2C00B779FCD1BB4EECC6E76FA6D843F7A99FB93979C1 SWAP2 PUSH1 0x5 DUP5 CALLDATALOAD SWAP5 PUSH2 0x124 PUSH2 0xA16 JUMP JUMPDEST DUP6 DUP8 MSTORE PUSH1 0x6 DUP5 MSTORE DUP3 DUP8 KECCAK256 SWAP1 DUP2 ADD PUSH1 0x1 DUP2 SLOAD PUSH2 0x142 PUSH1 0xFF DUP3 AND ISZERO PUSH2 0x9AA JUMP JUMPDEST PUSH1 0xFF NOT AND OR SWAP1 SSTORE DUP7 PUSH1 0x6 DUP3 ADD SSTORE ADD SLOAD SWAP1 MLOAD SWAP1 DUP2 MSTORE LOG2 DUP1 RETURN JUMPDEST DUP3 DUP1 REVERT JUMPDEST SWAP1 POP CALLVALUE PUSH2 0x15A JUMPI PUSH1 0x20 CALLDATASIZE PUSH1 0x3 NOT ADD SLT PUSH2 0x15A JUMPI PUSH2 0x179 PUSH2 0x95C JUMP JUMPDEST SWAP1 PUSH2 0x182 PUSH2 0xA16 JUMP JUMPDEST PUSH1 0x1 PUSH1 0x1 PUSH1 0xA0 SHL SUB SWAP2 DUP3 AND SWAP3 DUP4 ISZERO PUSH2 0x1D9 JUMPI POP POP PUSH1 0x0 SLOAD DUP3 PUSH12 0xFFFFFFFFFFFFFFFFFFFFFFFF PUSH1 0xA0 SHL DUP3 AND OR PUSH1 0x0 SSTORE AND PUSH32 0x8BE0079C531659141344CD1FD0A4F28419497F9722A3DAAFE3B4186F6B6457E0 PUSH1 0x0 DUP1 LOG3 DUP1 RETURN JUMPDEST MLOAD PUSH4 0x1E4FBDF7 PUSH1 0xE0 SHL DUP2 MSTORE SWAP1 DUP2 ADD DUP5 SWAP1 MSTORE PUSH1 0x24 SWAP1 REVERT JUMPDEST SWAP2 SWAP1 POP CALLVALUE PUSH2 0x15A JUMPI PUSH1 0x80 CALLDATASIZE PUSH1 0x3 NOT ADD SLT PUSH2 0x15A JUMPI PUSH2 0x20B PUSH2 0x95C JUMP JUMPDEST SWAP2 PUSH1 0x24 CALLDATALOAD PUSH1 0x44 CALLDATALOAD SWAP3 PUSH1 0x64 CALLDATALOAD SWAP5 PUSH2 0xFFFF DUP7 AND DUP1 SWAP7 SUB PUSH2 0x2B7 JUMPI PUSH2 0x22B PUSH2 0xA16 JUMP JUMPDEST DUP2 MLOAD SWAP1 PUSH1 0xA0 DUP3 ADD DUP3 DUP2 LT PUSH8 0xFFFFFFFFFFFFFFFF DUP3 GT OR PUSH2 0x2A2 JUMPI DUP4 MSTORE PUSH1 0x1 PUSH1 0x1 PUSH1 0xA0 SHL SUB AND DUP1 DUP3 MSTORE PUSH1 0x20 DUP3 ADD DUP5 SWAP1 MSTORE SWAP2 DUP2 ADD DUP6 SWAP1 MSTORE PUSH1 0x60 DUP2 ADD DUP7 SWAP1 MSTORE PUSH1 0x80 ADD DUP7 SWAP1 MSTORE PUSH1 0x2 DUP1 SLOAD PUSH1 0x1 PUSH1 0x1 PUSH1 0xA0 SHL SUB NOT AND SWAP1 SWAP2 OR SWAP1 SSTORE PUSH1 0x3 SSTORE SSTORE PUSH1 0x5 DUP1 SLOAD PUSH3 0xFFFFFF NOT AND SWAP1 SWAP2 OR DUP3 ISZERO ISZERO PUSH1 0x10 SHL PUSH3 0xFF0000 AND OR SWAP1 SSTORE DUP1 RETURN JUMPDEST PUSH1 0x41 DUP7 PUSH4 0x4E487B71 PUSH1 0xE0 SHL PUSH1 0x0 MSTORE MSTORE PUSH1 0x24 PUSH1 0x0 REVERT JUMPDEST DUP7 DUP1 REVERT JUMPDEST POP POP CALLVALUE PUSH2 0xDB JUMPI DUP2 PUSH1 0x3 NOT CALLDATASIZE ADD SLT PUSH2 0xDB JUMPI SWAP1 SLOAD SWAP1 MLOAD PUSH1 0x1 PUSH1 0x1 PUSH1 0xA0 SHL SUB SWAP1 SWAP2 AND DUP2 MSTORE PUSH1 0x20 SWAP1 RETURN JUMPDEST DUP4 CALLVALUE PUSH2 0x310 JUMPI DUP1 PUSH1 0x3 NOT CALLDATASIZE ADD SLT PUSH2 0x310 JUMPI PUSH2 0x2FC PUSH2 0xA16 JUMP JUMPDEST PUSH3 0x10000 PUSH3 0xFF0000 NOT PUSH1 0x5 SLOAD AND OR PUSH1 0x5 SSTORE DUP1 RETURN JUMPDEST DUP1 REVERT JUMPDEST DUP3 DUP5 CALLVALUE PUSH2 0x310 JUMPI DUP1 PUSH1 0x3 NOT CALLDATASIZE ADD SLT PUSH2 0x310 JUMPI POP PUSH1 0xFF PUSH1 0xA0 SWAP3 PUSH1 0x1 DUP1 DUP6 SHL SUB PUSH1 0x2 SLOAD AND SWAP3 PUSH1 0x3 SLOAD SWAP2 SLOAD SWAP1 PUSH1 0x5 SLOAD SWAP3 DUP2 MLOAD SWAP6 DUP7 MSTORE PUSH1 0x20 DUP7 ADD MSTORE DUP5 ADD MSTORE PUSH2 0xFFFF DUP2 AND PUSH1 0x60 DUP5 ADD MSTORE PUSH1 0x10 SHR AND ISZERO ISZERO PUSH1 0x80 DUP3 ADD MSTORE RETURN JUMPDEST DUP4 CALLVALUE PUSH2 0x310 JUMPI DUP1 PUSH1 0x3 NOT CALLDATASIZE ADD SLT PUSH2 0x310 JUMPI PUSH2 0x37D PUSH2 0xA16 JUMP JUMPDEST PUSH1 0x0 DUP1 SLOAD PUSH1 0x1 PUSH1 0x1 PUSH1 0xA0 SHL SUB NOT DUP2 AND DUP3 SSTORE PUSH1 0x1 PUSH1 0x1 PUSH1 0xA0 SHL SUB AND PUSH32 0x8BE0079C531659141344CD1FD0A4F28419497F9722A3DAAFE3B4186F6B6457E0 DUP3 DUP1 LOG3 DUP1 RETURN JUMPDEST DUP4 DUP4 CALLVALUE PUSH2 0xDB JUMPI PUSH2 0x3CE CALLDATASIZE PUSH2 0x941 JUMP JUMPDEST SWAP1 SWAP2 PUSH2 0x3D8 PUSH2 0xA42 JUMP JUMPDEST DUP3 DUP5 MSTORE PUSH1 0x6 PUSH1 0x20 MSTORE DUP1 DUP5 KECCAK256 DUP6 DUP2 ADD DUP1 SLOAD SWAP2 PUSH2 0x3F6 PUSH1 0xFF DUP5 AND ISZERO PUSH2 0x9AA JUMP JUMPDEST DUP1 SLOAD PUSH1 0x1 PUSH1 0x1 PUSH1 0xA0 SHL SUB SWAP3 SWAP1 DUP4 AND CALLER SUB PUSH2 0x545 JUMPI PUSH1 0x64 DUP7 MUL SWAP4 DUP7 DUP6 DIV PUSH1 0x64 EQ DUP8 ISZERO OR ISZERO PUSH2 0x532 JUMPI PUSH1 0x1 DUP4 ADD SLOAD SWAP5 PUSH2 0x444 PUSH2 0xFFFF PUSH1 0x5 SLOAD AND SWAP7 PUSH2 0x43C PUSH2 0x2710 SWAP4 DUP5 SWAP3 PUSH2 0x9ED JUMP JUMPDEST DIV SWAP7 DUP8 PUSH2 0x9ED JUMP JUMPDEST DIV DUP6 SUB SWAP5 DUP6 GT PUSH2 0x532 JUMPI PUSH1 0xFF NOT AND PUSH1 0x1 OR SWAP1 SSTORE PUSH1 0x5 DUP2 ADD DUP6 SWAP1 SSTORE PUSH1 0x6 ADD DUP3 SWAP1 SSTORE PUSH1 0x2 SLOAD PUSH1 0x8 SLOAD SWAP1 DUP3 AND SWAP2 AND DUP2 EXTCODESIZE ISZERO PUSH2 0x2B7 JUMPI DUP4 MLOAD PUSH4 0xA00C6951 PUSH1 0xE0 SHL DUP2 MSTORE PUSH1 0x1 PUSH1 0x1 PUSH1 0xA0 SHL SUB SWAP1 SWAP2 AND DUP2 DUP10 ADD SWAP1 DUP2 MSTORE CALLER PUSH1 0x20 DUP3 ADD MSTORE PUSH1 0x40 DUP2 ADD DUP5 SWAP1 MSTORE SWAP1 SWAP2 DUP8 SWAP2 DUP4 SWAP2 SWAP1 DUP3 SWAP1 DUP5 SWAP1 DUP3 SWAP1 PUSH1 0x60 ADD SUB SWAP3 GAS CALL DUP1 ISZERO PUSH2 0x528 JUMPI PUSH2 0x4F7 JUMPI JUMPDEST POP SWAP1 PUSH32 0xB47EDD38D21A86B846FEC29AA7134A8965397ADF530B4875E554E735A172848F SWAP2 DUP2 MLOAD SWAP4 DUP5 MSTORE PUSH1 0x20 DUP5 ADD MSTORE CALLER SWAP3 LOG3 PUSH1 0x1 DUP1 SSTORE DUP1 RETURN JUMPDEST PUSH8 0xFFFFFFFFFFFFFFFF DUP2 SWAP7 SWAP3 SWAP7 GT PUSH2 0x515 JUMPI DUP3 MSTORE SWAP4 SWAP5 POP DUP5 DUP7 PUSH2 0x4BF JUMP JUMPDEST PUSH4 0x4E487B71 PUSH1 0xE0 SHL DUP3 MSTORE PUSH1 0x41 DUP8 MSTORE PUSH1 0x24 DUP3 REVERT JUMPDEST DUP4 MLOAD RETURNDATASIZE DUP9 DUP3 RETURNDATACOPY RETURNDATASIZE SWAP1 REVERT JUMPDEST PUSH4 0x4E487B71 PUSH1 0xE0 SHL DUP10 MSTORE PUSH1 0x11 DUP11 MSTORE PUSH1 0x24 DUP10 REVERT JUMPDEST DUP5 MLOAD PUSH3 0x461BCD PUSH1 0xE5 SHL DUP2 MSTORE PUSH1 0x20 DUP2 DUP12 ADD MSTORE PUSH1 0xD PUSH1 0x24 DUP3 ADD MSTORE PUSH13 0x4E6F7420796F75722067616D65 PUSH1 0x98 SHL PUSH1 0x44 DUP3 ADD MSTORE PUSH1 0x64 SWAP1 REVERT JUMPDEST DUP4 DUP4 PUSH2 0x583 CALLDATASIZE PUSH2 0x941 JUMP JUMPDEST SWAP2 PUSH2 0x58C PUSH2 0xA42 JUMP JUMPDEST PUSH1 0xFF PUSH1 0x5 SLOAD PUSH1 0x10 SHR AND PUSH2 0x852 JUMPI PUSH1 0x3 SLOAD DUP6 SLOAD SWAP1 DUP4 LT PUSH2 0x842 JUMPI DUP3 GT PUSH2 0x833 JUMPI PUSH1 0x8 SLOAD PUSH1 0x1 PUSH1 0x1 PUSH1 0xA0 SHL SUB SWAP4 SWAP1 DUP5 AND DUP1 PUSH2 0x7A6 JUMPI POP DUP3 CALLVALUE SUB PUSH2 0x771 JUMPI DUP5 DUP1 DUP1 DUP1 DUP7 DUP9 PUSH1 0x2 SLOAD AND GAS CALL RETURNDATASIZE ISZERO PUSH2 0x76C JUMPI RETURNDATASIZE PUSH8 0xFFFFFFFFFFFFFFFF DUP2 GT PUSH2 0x759 JUMPI DUP4 MLOAD SWAP1 PUSH2 0x600 PUSH1 0x1F DUP3 ADD PUSH1 0x1F NOT AND PUSH1 0x20 ADD DUP4 PUSH2 0x972 JUMP JUMPDEST DUP2 MSTORE DUP7 PUSH1 0x20 RETURNDATASIZE SWAP3 ADD RETURNDATACOPY JUMPDEST ISZERO PUSH2 0x724 JUMPI JUMPDEST PUSH1 0x7 SLOAD PUSH1 0x0 NOT DUP2 EQ PUSH2 0x711 JUMPI PUSH1 0x1 ADD SWAP4 DUP5 PUSH1 0x7 SSTORE DUP3 MLOAD SWAP1 PUSH1 0xE0 DUP3 ADD DUP3 DUP2 LT PUSH8 0xFFFFFFFFFFFFFFFF DUP3 GT OR PUSH2 0x6FE JUMPI SWAP6 DUP8 PUSH1 0x6 SWAP3 DUP3 SWAP10 SWAP11 PUSH32 0x7363E6581DF4DB69463222156BE4A09656528B9F1302890FA4C0B60819B69FC6 SWAP9 SWAP10 DUP9 MSTORE CALLER DUP7 MSTORE PUSH1 0x20 DUP7 ADD DUP11 DUP2 MSTORE DUP9 DUP8 ADD DUP6 DUP2 MSTORE PUSH1 0x60 DUP9 ADD SWAP2 TIMESTAMP DUP4 MSTORE PUSH1 0x80 DUP10 ADD SWAP5 DUP7 DUP7 MSTORE DUP12 PUSH1 0xA0 DUP12 ADD SWAP8 DUP13 DUP10 MSTORE PUSH1 0xC0 DUP13 ADD SWAP10 DUP2 DUP12 MSTORE DUP2 MSTORE DUP11 PUSH1 0x20 MSTORE KECCAK256 SWAP10 MLOAD AND PUSH12 0xFFFFFFFFFFFFFFFFFFFFFFFF PUSH1 0xA0 SHL DUP11 SLOAD AND OR DUP10 SSTORE MLOAD PUSH1 0x1 DUP10 ADD SSTORE MLOAD PUSH1 0x2 DUP9 ADD SSTORE MLOAD PUSH1 0x3 DUP8 ADD SSTORE DUP6 ADD SWAP1 MLOAD ISZERO ISZERO PUSH1 0xFF DUP1 NOT DUP4 SLOAD AND SWAP2 AND OR SWAP1 SSTORE MLOAD PUSH1 0x5 DUP5 ADD SSTORE MLOAD SWAP2 ADD SSTORE DUP2 MLOAD SWAP4 DUP5 MSTORE PUSH1 0x20 DUP5 ADD MSTORE CALLER SWAP3 LOG3 PUSH1 0x1 DUP1 SSTORE DUP1 RETURN JUMPDEST PUSH4 0x4E487B71 PUSH1 0xE0 SHL DUP9 MSTORE PUSH1 0x41 DUP10 MSTORE PUSH1 0x24 DUP9 REVERT JUMPDEST PUSH4 0x4E487B71 PUSH1 0xE0 SHL DUP7 MSTORE PUSH1 0x11 DUP8 MSTORE PUSH1 0x24 DUP7 REVERT JUMPDEST DUP2 MLOAD PUSH3 0x461BCD PUSH1 0xE5 SHL DUP2 MSTORE PUSH1 0x20 DUP2 DUP9 ADD MSTORE PUSH1 0xF PUSH1 0x24 DUP3 ADD MSTORE PUSH15 0x151C985B9CD9995C8819985A5B1959 PUSH1 0x8A SHL PUSH1 0x44 DUP3 ADD MSTORE PUSH1 0x64 SWAP1 REVERT JUMPDEST PUSH4 0x4E487B71 PUSH1 0xE0 SHL DUP8 MSTORE PUSH1 0x41 DUP9 MSTORE PUSH1 0x24 DUP8 REVERT JUMPDEST PUSH2 0x60A JUMP JUMPDEST DUP2 MLOAD PUSH3 0x461BCD PUSH1 0xE5 SHL DUP2 MSTORE PUSH1 0x20 DUP2 DUP9 ADD MSTORE PUSH1 0xF PUSH1 0x24 DUP3 ADD MSTORE PUSH15 0x82DADEEADCE840DAD2E6DAC2E8C6D PUSH1 0x8B SHL PUSH1 0x44 DUP3 ADD MSTORE PUSH1 0x64 SWAP1 REVERT JUMPDEST PUSH1 0x2 SLOAD DUP4 MLOAD PUSH4 0x23B872DD PUSH1 0xE0 SHL PUSH1 0x20 DUP1 DUP4 ADD SWAP2 DUP3 MSTORE CALLER PUSH1 0x24 DUP5 ADD MSTORE SWAP3 DUP9 AND PUSH1 0x1 PUSH1 0x1 PUSH1 0xA0 SHL SUB AND PUSH1 0x44 DUP4 ADD MSTORE PUSH1 0x64 DUP1 DUP4 ADD DUP9 SWAP1 MSTORE DUP3 MSTORE DUP9 SWAP2 PUSH2 0x7E9 PUSH1 0x84 DUP3 PUSH2 0x972 JUMP JUMPDEST MLOAD SWAP1 DUP3 DUP6 GAS CALL ISZERO PUSH2 0x829 JUMPI DUP6 MLOAD RETURNDATASIZE PUSH2 0x820 JUMPI POP DUP1 EXTCODESIZE ISZERO JUMPDEST PUSH2 0x80A JUMPI POP PUSH2 0x610 JUMP JUMPDEST DUP7 PUSH1 0x24 SWAP2 DUP5 MLOAD SWAP2 PUSH4 0x5274AFE7 PUSH1 0xE0 SHL DUP4 MSTORE DUP3 ADD MSTORE REVERT JUMPDEST PUSH1 0x1 EQ ISZERO PUSH2 0x800 JUMP JUMPDEST DUP3 MLOAD RETURNDATASIZE DUP8 DUP3 RETURNDATACOPY RETURNDATASIZE SWAP1 REVERT JUMPDEST MLOAD PUSH4 0x17653201 PUSH1 0xE1 SHL DUP2 MSTORE DUP5 SWAP1 REVERT JUMPDEST DUP2 MLOAD PUSH4 0x989E3017 PUSH1 0xE0 SHL DUP2 MSTORE DUP7 SWAP1 REVERT JUMPDEST MLOAD PUSH3 0x461BCD PUSH1 0xE5 SHL DUP2 MSTORE PUSH1 0x20 DUP2 DUP7 ADD MSTORE PUSH1 0xB PUSH1 0x24 DUP3 ADD MSTORE PUSH11 0x11D85B59481C185D5CD959 PUSH1 0xAA SHL PUSH1 0x44 DUP3 ADD MSTORE PUSH1 0x64 SWAP1 REVERT JUMPDEST DUP4 CALLVALUE PUSH2 0x310 JUMPI DUP1 PUSH1 0x3 NOT CALLDATASIZE ADD SLT PUSH2 0x310 JUMPI PUSH2 0x89B PUSH2 0xA16 JUMP JUMPDEST PUSH3 0xFF0000 NOT PUSH1 0x5 SLOAD AND PUSH1 0x5 SSTORE DUP1 RETURN JUMPDEST POP POP CALLVALUE PUSH2 0xDB JUMPI DUP2 PUSH1 0x3 NOT CALLDATASIZE ADD SLT PUSH2 0xDB JUMPI PUSH1 0x20 SWAP1 PUSH1 0x7 SLOAD SWAP1 MLOAD SWAP1 DUP2 MSTORE RETURN JUMPDEST DUP5 SWAP2 DUP5 CALLVALUE PUSH2 0x93D JUMPI PUSH1 0x20 CALLDATASIZE PUSH1 0x3 NOT ADD SLT PUSH2 0x93D JUMPI DUP1 PUSH1 0xE0 SWAP5 DUP4 CALLDATALOAD DUP2 MSTORE PUSH1 0x6 PUSH1 0x20 MSTORE KECCAK256 SWAP1 PUSH1 0x1 DUP1 PUSH1 0xA0 SHL SUB DUP3 SLOAD AND SWAP3 PUSH1 0x1 DUP4 ADD SLOAD SWAP2 PUSH1 0x2 DUP5 ADD SLOAD SWAP1 PUSH1 0xFF PUSH1 0x3 DUP7 ADD SLOAD SWAP4 DUP7 ADD SLOAD AND SWAP4 PUSH1 0x6 PUSH1 0x5 DUP8 ADD SLOAD SWAP7 ADD SLOAD SWAP7 DUP9 MSTORE PUSH1 0x20 DUP9 ADD MSTORE DUP7 ADD MSTORE PUSH1 0x60 DUP6 ADD MSTORE ISZERO ISZERO PUSH1 0x80 DUP5 ADD MSTORE PUSH1 0xA0 DUP4 ADD MSTORE PUSH1 0xC0 DUP3 ADD MSTORE RETURN JUMPDEST DUP4 DUP1 REVERT JUMPDEST PUSH1 0x40 SWAP1 PUSH1 0x3 NOT ADD SLT PUSH2 0x957 JUMPI PUSH1 0x4 CALLDATALOAD SWAP1 PUSH1 0x24 CALLDATALOAD SWAP1 JUMP JUMPDEST PUSH1 0x0 DUP1 REVERT JUMPDEST PUSH1 0x4 CALLDATALOAD SWAP1 PUSH1 0x1 PUSH1 0x1 PUSH1 0xA0 SHL SUB DUP3 AND DUP3 SUB PUSH2 0x957 JUMPI JUMP JUMPDEST SWAP1 PUSH1 0x1F DUP1 NOT SWAP2 ADD AND DUP2 ADD SWAP1 DUP2 LT PUSH8 0xFFFFFFFFFFFFFFFF DUP3 GT OR PUSH2 0x994 JUMPI PUSH1 0x40 MSTORE JUMP JUMPDEST PUSH4 0x4E487B71 PUSH1 0xE0 SHL PUSH1 0x0 MSTORE PUSH1 0x41 PUSH1 0x4 MSTORE PUSH1 0x24 PUSH1 0x0 REVERT JUMPDEST ISZERO PUSH2 0x9B1 JUMPI JUMP JUMPDEST PUSH1 0x40 MLOAD PUSH3 0x461BCD PUSH1 0xE5 SHL DUP2 MSTORE PUSH1 0x20 PUSH1 0x4 DUP3 ADD MSTORE PUSH1 0x14 PUSH1 0x24 DUP3 ADD MSTORE PUSH20 0x11D85B5948185B1C9958591E481CD95D1D1B1959 PUSH1 0x62 SHL PUSH1 0x44 DUP3 ADD MSTORE PUSH1 0x64 SWAP1 REVERT JUMPDEST DUP2 DUP2 MUL SWAP3 SWAP2 DUP2 ISZERO SWAP2 DUP5 DIV EQ OR ISZERO PUSH2 0xA00 JUMPI JUMP JUMPDEST PUSH4 0x4E487B71 PUSH1 0xE0 SHL PUSH1 0x0 MSTORE PUSH1 0x11 PUSH1 0x4 MSTORE PUSH1 0x24 PUSH1 0x0 REVERT JUMPDEST PUSH1 0x0 SLOAD PUSH1 0x1 PUSH1 0x1 PUSH1 0xA0 SHL SUB AND CALLER SUB PUSH2 0xA2A JUMPI JUMP JUMPDEST PUSH1 0x40 MLOAD PUSH4 0x118CDAA7 PUSH1 0xE0 SHL DUP2 MSTORE CALLER PUSH1 0x4 DUP3 ADD MSTORE PUSH1 0x24 SWAP1 REVERT JUMPDEST PUSH1 0x2 PUSH1 0x1 SLOAD EQ PUSH2 0xA53 JUMPI PUSH1 0x2 PUSH1 0x1 SSTORE JUMP JUMPDEST PUSH1 0x40 MLOAD PUSH4 0x3EE5AEB5 PUSH1 0xE0 SHL DUP2 MSTORE PUSH1 0x4 SWAP1 REVERT INVALID LOG2 PUSH5 0x6970667358 0x22 SLT KECCAK256 0xC7 PUSH23 0x33C400D506739897BB435E9306FA7B5387C53320CFDC6C 0xA8 SAR 0xD1 0xFC STATICCALL 0x26 0xB9 PUSH5 0x736F6C6343 STOP ADDMOD XOR STOP CALLER "},"methodIdentifiers":{"cashout(uint256,uint256)":"50fbe099","config()":"79502c55","gameCounter()":"2e0be39a","games(uint256)":"117a5b90","initialize(address,uint256,uint256,uint16)":"cbb6d6bd","owner()":"8da5cb5b","pause()":"8456cb59","placeBet(uint256,uint256)":"4afe62b5","renounceOwnership()":"715018a6","settleCrashed(uint256)":"f51c0cb6","token()":"fc0c546a","transferOwnership(address)":"f2fde38b","unpause()":"3f4ba83a"}}}}}