{"contracts/FlipMatch_MissionX.sol":{"FlipMatch":{"abi":[{"inputs":[{"internalType":"address","name":"_aiAddress","type":"address"},{"internalType":"address","name":"_pythVRF","type":"address"}],"stateMutability":"nonpayable","type":"constructor"},{"inputs":[{"internalType":"address","name":"owner","type":"address"}],"name":"OwnableInvalidOwner","type":"error"},{"inputs":[{"internalType":"address","name":"account","type":"address"}],"name":"OwnableUnauthorizedAccount","type":"error"},{"inputs":[],"name":"ReentrancyGuardReentrantCall","type":"error"},{"anonymous":false,"inputs":[{"indexed":true,"internalType":"uint256","name":"gameId","type":"uint256"},{"indexed":true,"internalType":"address","name":"creator","type":"address"}],"name":"GameCancelled","type":"event"},{"anonymous":false,"inputs":[{"indexed":true,"internalType":"uint256","name":"gameId","type":"uint256"},{"indexed":true,"internalType":"address","name":"winner","type":"address"},{"indexed":false,"internalType":"uint256","name":"prize","type":"uint256"},{"indexed":false,"internalType":"uint256","name":"finalScore","type":"uint256"},{"indexed":false,"internalType":"bytes32","name":"vrfRequestId","type":"bytes32"}],"name":"GameCompleted","type":"event"},{"anonymous":false,"inputs":[{"indexed":true,"internalType":"uint256","name":"gameId","type":"uint256"},{"indexed":false,"internalType":"string","name":"name","type":"string"},{"indexed":true,"internalType":"address","name":"creator","type":"address"},{"indexed":false,"internalType":"enum FlipMatch.GameType","name":"gameType","type":"uint8"},{"indexed":false,"internalType":"uint256","name":"stake","type":"uint256"},{"indexed":false,"internalType":"uint256","name":"maxPlayers","type":"uint256"}],"name":"GameCreated","type":"event"},{"anonymous":false,"inputs":[{"indexed":true,"internalType":"uint256","name":"gameId","type":"uint256"},{"indexed":true,"internalType":"bytes32","name":"vrfRequestId","type":"bytes32"}],"name":"GameStarted","type":"event"},{"anonymous":false,"inputs":[{"indexed":true,"internalType":"uint256","name":"gameId","type":"uint256"}],"name":"GameTied","type":"event"},{"anonymous":false,"inputs":[{"indexed":false,"internalType":"uint256","name":"amount","type":"uint256"},{"indexed":false,"internalType":"uint256","name":"newBalance","type":"uint256"}],"name":"HouseBalanceDeposited","type":"event"},{"anonymous":false,"inputs":[{"indexed":false,"internalType":"uint256","name":"amount","type":"uint256"},{"indexed":false,"internalType":"uint256","name":"newBalance","type":"uint256"}],"name":"HouseBalanceWithdrawn","type":"event"},{"anonymous":false,"inputs":[{"indexed":true,"internalType":"address","name":"previousOwner","type":"address"},{"indexed":true,"internalType":"address","name":"newOwner","type":"address"}],"name":"OwnershipTransferred","type":"event"},{"anonymous":false,"inputs":[{"indexed":true,"internalType":"uint256","name":"gameId","type":"uint256"},{"indexed":true,"internalType":"address","name":"player","type":"address"},{"indexed":false,"internalType":"uint256","name":"flipCount","type":"uint256"},{"indexed":false,"internalType":"uint256","name":"finalScore","type":"uint256"},{"indexed":false,"internalType":"uint256","name":"completedAt","type":"uint256"}],"name":"PlayerCompleted","type":"event"},{"anonymous":false,"inputs":[{"indexed":true,"internalType":"uint256","name":"gameId","type":"uint256"},{"indexed":true,"internalType":"address","name":"player","type":"address"},{"indexed":false,"internalType":"uint256","name":"currentPlayers","type":"uint256"},{"indexed":false,"internalType":"uint256","name":"maxPlayers","type":"uint256"}],"name":"PlayerJoined","type":"event"},{"anonymous":false,"inputs":[{"indexed":true,"internalType":"uint256","name":"gameId","type":"uint256"},{"indexed":true,"internalType":"address","name":"winner","type":"address"},{"indexed":false,"internalType":"uint256","name":"amount","type":"uint256"}],"name":"PrizeDistributed","type":"event"},{"anonymous":false,"inputs":[{"indexed":true,"internalType":"address","name":"to","type":"address"},{"indexed":false,"internalType":"uint256","name":"amount","type":"uint256"}],"name":"TreasuryWithdrawn","type":"event"},{"anonymous":false,"inputs":[{"indexed":true,"internalType":"uint256","name":"gameId","type":"uint256"},{"indexed":true,"internalType":"bytes32","name":"requestId","type":"bytes32"},{"indexed":false,"internalType":"uint256","name":"randomNumber","type":"uint256"},{"indexed":false,"internalType":"uint256[]","name":"cardOrder","type":"uint256[]"}],"name":"VRFFulfilled","type":"event"},{"anonymous":false,"inputs":[{"indexed":true,"internalType":"uint256","name":"gameId","type":"uint256"},{"indexed":true,"internalType":"bytes32","name":"requestId","type":"bytes32"}],"name":"VRFRequested","type":"event"},{"anonymous":false,"inputs":[{"indexed":true,"internalType":"uint256","name":"week","type":"uint256"},{"indexed":false,"internalType":"uint256","name":"topN","type":"uint256"},{"indexed":false,"internalType":"uint256","name":"prizePerWinner","type":"uint256"}],"name":"WeeklyRaffle","type":"event"},{"inputs":[],"name":"AI_ADDRESS","outputs":[{"internalType":"address","name":"","type":"address"}],"stateMutability":"view","type":"function"},{"inputs":[],"name":"COMMISSION_PCT","outputs":[{"internalType":"uint256","name":"","type":"uint256"}],"stateMutability":"view","type":"function"},{"inputs":[],"name":"DIFFICULTY_MODIFIER","outputs":[{"internalType":"uint256","name":"","type":"uint256"}],"stateMutability":"view","type":"function"},{"inputs":[],"name":"HOUSE_EDGE_PCT","outputs":[{"internalType":"uint256","name":"","type":"uint256"}],"stateMutability":"view","type":"function"},{"inputs":[],"name":"MAX_FLIP_COUNT","outputs":[{"internalType":"uint256","name":"","type":"uint256"}],"stateMutability":"view","type":"function"},{"inputs":[],"name":"MAX_PLAYERS","outputs":[{"internalType":"uint256","name":"","type":"uint256"}],"stateMutability":"view","type":"function"},{"inputs":[],"name":"MIN_BET","outputs":[{"internalType":"uint256","name":"","type":"uint256"}],"stateMutability":"view","type":"function"},{"inputs":[],"name":"MIN_FLIP_COUNT","outputs":[{"internalType":"uint256","name":"","type":"uint256"}],"stateMutability":"view","type":"function"},{"inputs":[],"name":"MIN_PLAYERS","outputs":[{"internalType":"uint256","name":"","type":"uint256"}],"stateMutability":"view","type":"function"},{"inputs":[{"internalType":"uint256","name":"_gameId","type":"uint256"}],"name":"cancelGame","outputs":[],"stateMutability":"nonpayable","type":"function"},{"inputs":[{"internalType":"uint256","name":"_gameId","type":"uint256"}],"name":"computeCardOrder","outputs":[{"internalType":"uint256[]","name":"","type":"uint256[]"}],"stateMutability":"view","type":"function"},{"inputs":[{"internalType":"string","name":"_name","type":"string"},{"internalType":"enum FlipMatch.GameType","name":"_gameType","type":"uint8"},{"internalType":"uint256","name":"_maxPlayers","type":"uint256"},{"internalType":"uint256","name":"_durationHours","type":"uint256"},{"internalType":"string","name":"_password","type":"string"}],"name":"createFreeGame","outputs":[],"stateMutability":"nonpayable","type":"function"},{"inputs":[{"internalType":"string","name":"_name","type":"string"},{"internalType":"enum FlipMatch.GameType","name":"_gameType","type":"uint8"},{"internalType":"uint256","name":"_maxPlayers","type":"uint256"},{"internalType":"uint256","name":"_durationHours","type":"uint256"},{"internalType":"string","name":"_password","type":"string"}],"name":"createGame","outputs":[],"stateMutability":"payable","type":"function"},{"inputs":[],"name":"depositHouseBalance","outputs":[],"stateMutability":"payable","type":"function"},{"inputs":[{"internalType":"uint256","name":"_gameId","type":"uint256"}],"name":"forceTieRefund","outputs":[],"stateMutability":"nonpayable","type":"function"},{"inputs":[{"internalType":"bytes32","name":"_requestId","type":"bytes32"}],"name":"fulfillVRF","outputs":[],"stateMutability":"nonpayable","type":"function"},{"inputs":[{"internalType":"uint256","name":"","type":"uint256"},{"internalType":"uint256","name":"","type":"uint256"}],"name":"gamePlayers","outputs":[{"internalType":"address","name":"","type":"address"}],"stateMutability":"view","type":"function"},{"inputs":[{"internalType":"uint256","name":"","type":"uint256"}],"name":"games","outputs":[{"internalType":"uint256","name":"id","type":"uint256"},{"internalType":"string","name":"name","type":"string"},{"internalType":"address","name":"creator","type":"address"},{"internalType":"enum FlipMatch.GameType","name":"gameType","type":"uint8"},{"internalType":"enum FlipMatch.GameStatus","name":"status","type":"uint8"},{"internalType":"enum FlipMatch.PlayMode","name":"playMode","type":"uint8"},{"internalType":"uint256","name":"stake","type":"uint256"},{"internalType":"uint256","name":"totalPrize","type":"uint256"},{"internalType":"uint256","name":"maxPlayers","type":"uint256"},{"internalType":"uint256","name":"currentPlayers","type":"uint256"},{"internalType":"uint256","name":"createdAt","type":"uint256"},{"internalType":"uint256","name":"startedAt","type":"uint256"},{"internalType":"uint256","name":"completedAt","type":"uint256"},{"internalType":"uint256","name":"endTime","type":"uint256"},{"internalType":"address","name":"winner","type":"address"},{"internalType":"uint256","name":"winnerFlipCount","type":"uint256"},{"internalType":"uint256","name":"winnerFinalScore","type":"uint256"},{"internalType":"bytes32","name":"vrfRequestId","type":"bytes32"},{"internalType":"uint256","name":"vrfRandom","type":"uint256"},{"internalType":"bool","name":"vrfFulfilled","type":"bool"},{"internalType":"bytes32","name":"passwordHash","type":"bytes32"}],"stateMutability":"view","type":"function"},{"inputs":[],"name":"getActiveGames","outputs":[{"internalType":"uint256[]","name":"","type":"uint256[]"}],"stateMutability":"view","type":"function"},{"inputs":[{"internalType":"uint256","name":"_gameId","type":"uint256"}],"name":"getGame","outputs":[{"components":[{"internalType":"uint256","name":"id","type":"uint256"},{"internalType":"string","name":"name","type":"string"},{"internalType":"address","name":"creator","type":"address"},{"internalType":"enum FlipMatch.GameType","name":"gameType","type":"uint8"},{"internalType":"enum FlipMatch.GameStatus","name":"status","type":"uint8"},{"internalType":"enum FlipMatch.PlayMode","name":"playMode","type":"uint8"},{"internalType":"uint256","name":"stake","type":"uint256"},{"internalType":"uint256","name":"totalPrize","type":"uint256"},{"internalType":"uint256","name":"maxPlayers","type":"uint256"},{"internalType":"uint256","name":"currentPlayers","type":"uint256"},{"internalType":"uint256","name":"createdAt","type":"uint256"},{"internalType":"uint256","name":"startedAt","type":"uint256"},{"internalType":"uint256","name":"completedAt","type":"uint256"},{"internalType":"uint256","name":"endTime","type":"uint256"},{"internalType":"address","name":"winner","type":"address"},{"internalType":"uint256","name":"winnerFlipCount","type":"uint256"},{"internalType":"uint256","name":"winnerFinalScore","type":"uint256"},{"internalType":"bytes32","name":"vrfRequestId","type":"bytes32"},{"internalType":"uint256","name":"vrfRandom","type":"uint256"},{"internalType":"uint256[]","name":"cardOrder","type":"uint256[]"},{"internalType":"bool","name":"vrfFulfilled","type":"bool"},{"internalType":"bytes32","name":"passwordHash","type":"bytes32"}],"internalType":"struct FlipMatch.Game","name":"","type":"tuple"}],"stateMutability":"view","type":"function"},{"inputs":[],"name":"getGameCount","outputs":[{"internalType":"uint256","name":"","type":"uint256"}],"stateMutability":"view","type":"function"},{"inputs":[{"internalType":"uint256","name":"_gameId","type":"uint256"}],"name":"getGamePlayers","outputs":[{"internalType":"address[]","name":"","type":"address[]"}],"stateMutability":"view","type":"function"},{"inputs":[{"internalType":"address","name":"_player","type":"address"}],"name":"getLeaderboardEntry","outputs":[{"components":[{"internalType":"address","name":"player","type":"address"},{"internalType":"uint256","name":"totalWins","type":"uint256"},{"internalType":"uint256","name":"bestFinalScore","type":"uint256"},{"internalType":"uint256","name":"totalGames","type":"uint256"},{"internalType":"uint256","name":"weeklyPoints","type":"uint256"},{"internalType":"uint256","name":"lastUpdated","type":"uint256"}],"internalType":"struct FlipMatch.LeaderboardEntry","name":"","type":"tuple"}],"stateMutability":"view","type":"function"},{"inputs":[{"internalType":"uint256","name":"_gameId","type":"uint256"},{"internalType":"address","name":"_player","type":"address"}],"name":"getPlayer","outputs":[{"components":[{"internalType":"address","name":"playerAddress","type":"address"},{"internalType":"uint256","name":"flipCount","type":"uint256"},{"internalType":"uint256","name":"finalScore","type":"uint256"},{"internalType":"uint256","name":"completedAt","type":"uint256"},{"internalType":"bool","name":"hasCompleted","type":"bool"},{"internalType":"bool","name":"hasJoined","type":"bool"}],"internalType":"struct FlipMatch.Player","name":"","type":"tuple"}],"stateMutability":"view","type":"function"},{"inputs":[{"internalType":"address","name":"_player","type":"address"}],"name":"getPlayerGames","outputs":[{"internalType":"uint256[]","name":"","type":"uint256[]"}],"stateMutability":"view","type":"function"},{"inputs":[],"name":"houseBalance","outputs":[{"internalType":"uint256","name":"","type":"uint256"}],"stateMutability":"view","type":"function"},{"inputs":[{"internalType":"uint256","name":"_gameId","type":"uint256"},{"internalType":"string","name":"_password","type":"string"}],"name":"joinGame","outputs":[],"stateMutability":"payable","type":"function"},{"inputs":[{"internalType":"address","name":"","type":"address"}],"name":"leaderboard","outputs":[{"internalType":"address","name":"player","type":"address"},{"internalType":"uint256","name":"totalWins","type":"uint256"},{"internalType":"uint256","name":"bestFinalScore","type":"uint256"},{"internalType":"uint256","name":"totalGames","type":"uint256"},{"internalType":"uint256","name":"weeklyPoints","type":"uint256"},{"internalType":"uint256","name":"lastUpdated","type":"uint256"}],"stateMutability":"view","type":"function"},{"inputs":[],"name":"owner","outputs":[{"internalType":"address","name":"","type":"address"}],"stateMutability":"view","type":"function"},{"inputs":[{"internalType":"address","name":"","type":"address"},{"internalType":"uint256","name":"","type":"uint256"}],"name":"playerGames","outputs":[{"internalType":"uint256","name":"","type":"uint256"}],"stateMutability":"view","type":"function"},{"inputs":[{"internalType":"uint256","name":"","type":"uint256"},{"internalType":"address","name":"","type":"address"}],"name":"players","outputs":[{"internalType":"address","name":"playerAddress","type":"address"},{"internalType":"uint256","name":"flipCount","type":"uint256"},{"internalType":"uint256","name":"finalScore","type":"uint256"},{"internalType":"uint256","name":"completedAt","type":"uint256"},{"internalType":"bool","name":"hasCompleted","type":"bool"},{"internalType":"bool","name":"hasJoined","type":"bool"}],"stateMutability":"view","type":"function"},{"inputs":[],"name":"pythVRF","outputs":[{"internalType":"contract IPythVRF","name":"","type":"address"}],"stateMutability":"view","type":"function"},{"inputs":[],"name":"renounceOwnership","outputs":[],"stateMutability":"nonpayable","type":"function"},{"inputs":[{"internalType":"uint256","name":"_gameId","type":"uint256"},{"internalType":"uint256","name":"_flipCount","type":"uint256"}],"name":"submitCompletion","outputs":[],"stateMutability":"nonpayable","type":"function"},{"inputs":[{"internalType":"address","name":"newOwner","type":"address"}],"name":"transferOwnership","outputs":[],"stateMutability":"nonpayable","type":"function"},{"inputs":[],"name":"treasuryBalance","outputs":[{"internalType":"uint256","name":"","type":"uint256"}],"stateMutability":"view","type":"function"},{"inputs":[{"internalType":"bytes32","name":"","type":"bytes32"}],"name":"vrfRequests","outputs":[{"internalType":"uint256","name":"","type":"uint256"}],"stateMutability":"view","type":"function"},{"inputs":[{"internalType":"uint256","name":"_topN","type":"uint256"},{"internalType":"uint256","name":"_prizePerWinner","type":"uint256"}],"name":"weeklyRaffle","outputs":[],"stateMutability":"nonpayable","type":"function"},{"inputs":[{"internalType":"uint256","name":"","type":"uint256"},{"internalType":"uint256","name":"","type":"uint256"}],"name":"weeklyTopPlayers","outputs":[{"internalType":"address","name":"","type":"address"}],"stateMutability":"view","type":"function"},{"inputs":[{"internalType":"uint256","name":"_amount","type":"uint256"}],"name":"withdrawHouseBalance","outputs":[],"stateMutability":"nonpayable","type":"function"},{"inputs":[],"name":"withdrawTreasury","outputs":[],"stateMutability":"nonpayable","type":"function"}],"evm":{"bytecode":{"linkReferences":{},"object":"60c034620001c35762003fb590601f38839003908101601f19168201906001600160401b03821183831017620001c85780839160409586948552833981010312620001c3576200005d60206200005583620001de565b9201620001de565b3315620001ab5760008054336001600160a01b031982168117835585516001600160a01b03949390928516907f8be0079c531659141344cd1fd0a4f28419497f9722a3daafe3b4186f6b6457e09080a3600180558284161562000174575016908115620001305760805260a05251613dc19081620001f48239608051818181610503015281816106b501528181610bc5015281816112a901528181612500015281816131bb0152818161341b015281816139990152613c3a015260a05181818161179701528181611bed01526132660152f35b825162461bcd60e51b815260206004820152601960248201527f50797468205652462061646472657373207265717569726564000000000000006044820152606490fd5b62461bcd60e51b8152602060048201526012602482015271496e76616c6964204149206164647265737360701b6044820152606490fd5b8251631e4fbdf760e01b815260006004820152602490fd5b600080fd5b634e487b7160e01b600052604160045260246000fd5b51906001600160a01b0382168203620001c35756fe610120604052600436101561001357600080fd5b60003560e01c806214cdd5146128da5780630a5694c214612882578063117a5b90146126be578063129daf841461268457806315a40f49146125cc578063166bab951461252f5780631939053d146124ea5780631b76929c146123b257806322377d9e146123965780632c01c2c61461237a578063313dab201461235c57806332b72f9c146123405780633ba80729146123245780633ef25c11146122715780634411b3eb146114225780636454e58d146121a55780636540742f1461218357806367084eb31461216557806368880a2614611d8757806369958ab914611c75578063715018a614611c1c578063772d84c414611bd757806379ae877914611a6b57806385f07bbe14611a4f5780638da5cb5b14611a2657806396dbbbe814611778578063a2f77bcc14611427578063b241b5ec14611422578063bbf3954414611032578063c0f8092114610fa9578063c8ab99c714610f1a578063d1d33d2014610ea6578063d35aea0a1461093b578063dddb07b314610897578063dec04e5f1461086b578063dfefef9f1461083a578063e87c0ee61461081c578063e93362e2146107e5578063eb22ebe0146102b7578063f2fde38b1461022e5763f3154298146101df57600080fd5b34610229576101ed36612c86565b90600052600b602052604060002080548210156102295760209161021091612999565b905460405160039290921b1c6001600160a01b03168152f35b600080fd5b346102295760203660031901126102295761024761296d565b61024f61304e565b6001600160a01b0390811690811561029e57600054826001600160601b0360a01b821617600055167f8be0079c531659141344cd1fd0a4f28419497f9722a3daafe3b4186f6b6457e0600080a3005b604051631e4fbdf760e01b815260006004820152602490fd5b34610229576102c536612c86565b906102ce6130f9565b80600052602090600582526040600020600281019360ff9384865460a81c1692600693848110156107cf5760026103059114612feb565b61031486601183015416612e58565b8460005283825260406000203360005282528560046040600020015460081c161561079b5784600052838252604060002033600052825285600460406000200154166107625783831061072857606483116106ef5790856103806032600f610442969501540684612e4b565b97866000528583526040600020336000528352600198848a6040600020015587600052868452604060002033600052845280600260406000200155876000528684526040600020336000528452426003604060002001558760005286845260406000203360005284528760046040600020019560ff19968c88825416179055604051807f106ab7fefb82ae9482e45da193781eb91dd8310c7f56ccd099fcd5eacffd962f998a9333964291846040919493926060820195825260208201520152565b0390a35460a01c1661045381612b62565b15806106a5575b61046d575b86610469866135ab565b8055005b84600052600581526040600020958482526040600020336000528252604060002090600482015416156106625787015495861561060657600f0154916014606484040696886103e8850416156000146105c85761046997879594939291818111156105ba5760326104e26104ec938293612cdf565b955b040684612e4b565b918560005286815260406000209660018060a01b037f00000000000000000000000000000000000000000000000000000000000000001697886000528252848b6040600020015586600052808252604060002088600052825283600260406000200155866000528082526040600020886000528252426003604060002001558660005281526040600020908760005252886004604060002001918254161790556105ae6040519283924291846040919493926060820195825260208201520152565b0390a38380808061045f565b50506104ec6032808b6104e2565b939291908885018095116105f0576104ec6032806105ea6104699b8b99612e4b565b956104e4565b634e487b7160e01b600052601160045260246000fd5b60405162461bcd60e51b815260048101839052602e60248201527f48756d616e20706c6179657220666c697020636f756e74206d7573742062652060448201526d067726561746572207468616e20360941b6064820152608490fd5b6064826040519062461bcd60e51b825280600483015260248201527f48756d616e20706c61796572206d75737420636f6d706c6574652066697273746044820152fd5b50600085815284825260408082207f00000000000000000000000000000000000000000000000000000000000000006001600160a01b03168352835290206004015486161561045a565b60405162461bcd60e51b8152600481018390526011602482015270556e7265616c69737469632073636f726560781b6044820152606490fd5b60405162461bcd60e51b8152600481018390526012602482015271466c697020636f756e7420746f6f206c6f7760701b6044820152606490fd5b60405162461bcd60e51b8152600481018390526011602482015270105b1c9958591e4818dbdb5c1b195d1959607a1b6044820152606490fd5b60405162461bcd60e51b815260048101839052600c60248201526b2737ba103090383630bcb2b960a11b6044820152606490fd5b634e487b7160e01b600052602160045260246000fd5b3461022957602036600319011261022957610818610804600435612fac565b604051918291602083526020830190612b79565b0390f35b34610229576000366003190112610229576020600254604051908152f35b346102295761084836612c86565b906000526007602052604060002080548210156102295760209161021091612999565b346102295760203660031901126102295760043560005260096020526020604060002054604051908152f35b34610229576108a536612c86565b6108ad61304e565b600354828202908282048414831517156105f057106108fe5760405191825260208201527f18e7a4e7f6243e8ed111828ec35dd85ba10a00253b56e9e6e42b07f03d858bca604062093a80420492a2005b60405162461bcd60e51b8152602060048201526015602482015274496e73756666696369656e7420747265617375727960581b6044820152606490fd5b61094436612c2b565b929390916109506130f9565b662386f26fc100003410610e6157600181101580610e56575b61097290612ec5565b61097b85612b62565b8415610e21575b61098d600254612d86565b938460025584600052600560205260406000209085825583516001600160401b038111610e0b576109c160018401546129c7565b601f8111610dcb575b50806020601f8211600114610d5e57600091610d53575b508160011b916000199060031b1c19161760018301555b600282018054610a0789612b62565b600161ff0160a81b0319163362ff00ff60a01b19161760a089901b60ff60a01b1617600160b01b1760ff60a81b19169055346003830181905560048301556005820183905560016006830155426007830155805180610d1a575b5050610a6c86612b62565b6001861480610d11575b610cd9575b50600080516020613d6c8339815191529250604051610a9981612a01565b3381526020810160008152610b2b6004604084019360008552606081016000815260808201956000875260a0830195600187528b600052600660205260406000203360005260205260406000209360018060a01b039051166001600160601b0360a01b8554161784555160018401555160028301555160038201550192511515839060ff801983541691151516179055565b51151561ff0082549160081b169061ff001916179055836000526007602052610b58336040600020612ddb565b336000526008602052610b6f846040600020612e16565b610b7885612b62565b841580610ccf575b610bc0575b610b9a60405192608084526080840190612b3d565b94610ba481612b62565b602083015234604083015260608201528033940390a360018055005b610cc17f0000000000000000000000000000000000000000000000000000000000000000604051610bf081612a01565b60018060a01b03821681526000602082015260006040820152600060608201526000608082015260a0810160018152876000526006602052604060002060018060a01b038416600052602052610c9960806004604060002060018060a01b038651166001600160601b0360a01b825416178155602086015160018201556040860151600282015560608601516003820155019301511515839060ff801983541691151516179055565b51815461ff00191690151560081b61ff00161790556000868152600760205260409020612ddb565b610cca8461315d565b610b85565b5060018114610b80565b610e10938481029481860414901517156105f057600a610d08600080516020613d6c8339815191529542612e4b565b91015585610a7b565b50831515610a76565b610d446020809383610d3760405195869385850198899101612b1a565b8101038084520182612a54565b51902060128201558680610a61565b9050850151896109e1565b91506001840160005260206000206000925b601f1983168410610db3576001935082601f19811610610d9a575b5050811b0160018301556109f8565b87015160001960f88460031b161c191690558980610d8b565b87810151825560209384019360019092019101610d70565b610dfb90600185016000526020600020601f840160051c81019160208510610e01575b601f0160051c0190612eae565b886109ca565b9091508190610dee565b634e487b7160e01b600052604160045260246000fd5b610e2d60018214612f08565b610e516064610e3b34612e98565b04610e4a600454913490612cdf565b1115612f60565b610982565b506005811115610969565b60405162461bcd60e51b815260206004820152601a60248201527f426574206d757374206265206174206c656173742031204d4f4e0000000000006044820152606490fd5b346102295760203660031901126102295760c06001600160a01b0380610eca61296d565b16600052600a6020526040600020908154169060018101549060028101546003820154906005600484015493015493604051958652602086015260408501526060840152608083015260a0820152f35b600036600319011261022957610f2e61304e565b3415610f75577f6632e6796459f03dd0eb041bea9eb12e023cda96e59a02d7f5ee12cc8344a6f46040610f6334600454612e4b565b806004558151903482526020820152a1005b60405162461bcd60e51b815260206004820152600c60248201526b135d5cdd0819195c1bdcda5d60a21b6044820152606490fd5b346102295760403660031901126102295760c0610fc4612983565b6004356000526006602052604060002060018060a01b0380921660005260205260ff60406000209182541691600181015490600281015460046003830154920154926040519586526020860152604085015260608401528181161515608084015260081c16151560a0820152f35b346102295761104036612c2b565b9293909161104c6130f9565b600181101580611417575b61106090612ec5565b61106985612b62565b8415611406575b61107b600254612d86565b938460025584600052600560205260406000209085825583516001600160401b038111610e0b576110af60018401546129c7565b601f81116113d1575b50806020601f821160011461136457600091611359575b508160011b916000199060031b1c19161760018301555b6002820180546110f589612b62565b60a089901b60ff60a01b166001600160b81b03199091163362ffffff60a01b1916171790556000600383018190556004830155600582018390556001600683015542600783015580518061132d575b505061114f86612b62565b6001861480611324575b6112ec575b50600080516020613d6c833981519152925060405161117c81612a01565b338152602081016000815261120e6004604084019360008552606081016000815260808201956000875260a0830195600187528b600052600660205260406000203360005260205260406000209360018060a01b039051166001600160601b0360a01b8554161784555160018401555160028301555160038201550192511515839060ff801983541691151516179055565b51151561ff0082549160081b169061ff00191617905583600052600760205261123b336040600020612ddb565b336000526008602052611252846040600020612e16565b61125b85612b62565b8415806112e2575b6112a4575b61127d60405192608084526080840190612b3d565b9461128781612b62565b60208301526000604083015260608201528033940390a360018055005b6112d47f0000000000000000000000000000000000000000000000000000000000000000604051610bf081612a01565b6112dd8461315d565b611268565b5060018114611263565b610e10938481029481860414901517156105f057600a61131b600080516020613d6c8339815191529542612e4b565b9101558561115e565b50831515611159565b61134a6020809383610d3760405195869385850198899101612b1a565b51902060128201558680611144565b9050850151896110cf565b91506001840160005260206000206000925b601f19831684106113b9576001935082601f198116106113a0575b5050811b0160018301556110e6565b87015160001960f88460031b161c191690558980611391565b87810151825560209384019360019092019101611376565b61140090600185016000526020600020601f840160051c81019160208510610e0157601f0160051c0190612eae565b886110b8565b61141260018214612f08565b611070565b506005811115611057565b612bad565b346102295760203660031901126102295760006102a060405161144981612a1c565b828152606060208201528260408201528260608201528260808201528260a08201528260c08201528260e08201528261010082015282610120820152826101408201528261016082015282610180820152826101a0820152826101c0820152826101e0820152826102008201528261022082015282610240820152606061026082015282610280820152015260043560005260056020526040600020604051906114f282612a1c565b8054825261150260018201612a75565b602083015260028101546001600160a01b03811660408401529060a082901c60ff1661152d81612b62565b6060840152600660ff8360a81c1610156107cf5760ff828160129460a81c16608086015261155f828260b01c16612b62565b60b01c1660a0840152600381015460c0840152600481015460e084015260058101546101008401526006810154610120840152600781015461014084015260088101546101608401526009810154610180840152600a8101546101a0840152600b8101546001600160a01b03166101c0840152600c8101546101e0840152600d810154610200840152600e810154610220840152600f81015461024084015261160a60108201612cec565b61026084015260ff601182015416151561028084015201546102a0820152604051809160208252805160208301526102a061175f61165960208401516102c060408701526102e0860190612b3d565b60408401516001600160a01b031660608681019190915284015161167c81612b62565b6080860152611693608085015160a0870190612b6c565b60a08401516116a181612b62565b60c086015260c084015160e086015260e08401516101008601526101008401516101208601526101208401516101408601526101408401516101608601526101608401516101808601526101808401516101a08601526101a08401516101c086015260018060a01b036101c0850151166101e08601526101e0840151610200860152610200840151610220860152610220840151610240860152610240840151610260860152610260840151601f1986830301610280870152612b79565b9161028081015115158285015201516102c08301520390f35b3461022957602080600319360112610229576004356117956130f9565b7f00000000000000000000000000000000000000000000000000000000000000006001600160a01b031691338390036119e25781600052600981526040600020549081156119a957816000526005815260406000206011810180549560ff87166119705790606060249392604051948580926302d8ca0160e11b82528a60048301525afa80156119645760009360009161191e575b5061183490612e58565b82600f8301556001809760ff191617905561184e8261349b565b95601082018751906001600160401b038211610e0b57600160401b8211610e0b578054828255808310611901575b50858901906000528560002060005b8381106118f0575088887f76870250771fe5bcc9b4ec83f635583a81b6d2e870819e4134563ab8bca7800e89896118e78f60028c01600160a91b60ff60a81b198254161790556040805194859485528401526040830190612b79565b0390a360018055005b82518282015591870191840161188b565b611918908260005283886000209182019101612eae565b8961187c565b9350506060833d60601161195c575b8161193a60609383612a54565b810103126102295760408351930151928315158403610229579261183461182a565b3d915061192d565b6040513d6000823e3d90fd5b60405162461bcd60e51b8152600481018590526011602482015270105b1c9958591e48199d5b199a5b1b1959607a1b6044820152606490fd5b6064906040519062461bcd60e51b825260048201526012602482015271125b9d985b1a59081c995c5d595cdd08125160721b6044820152fd5b6064906040519062461bcd60e51b82526004820152601960248201527f4f6e6c792050797468205652462063616e2066756c66696c6c000000000000006044820152fd5b34610229576000366003190112610229576000546040516001600160a01b039091168152602090f35b3461022957600036600319011261022957602060405160018152f35b3461022957602036600319011261022957600435611a8761304e565b8060005260056020526040600020906002820180549260ff8460a81c1660068110156107cf57600103611b9b576008810154610e1081018091116105f0574210611b56576011015460ff16611b195760ff60a81b19909216600560a81b17909155611b1790807f6735b98d5d75eb6a72ff7cbd805fc91d5ee18e1b5d11043b0e649b6f22c9cab8600080a26133f7565b005b60405162461bcd60e51b815260206004820152601560248201527415949188185b1c9958591e48199d5b199a5b1b1959605a1b6044820152606490fd5b60405162461bcd60e51b815260206004820152601760248201527f5652462074696d656f7574206e6f7420726561636865640000000000000000006044820152606490fd5b60405162461bcd60e51b815260206004820152601460248201527313db9b1e48199bdc88159491881d1a5b595bdd5d60621b6044820152606490fd5b34610229576000366003190112610229576040517f00000000000000000000000000000000000000000000000000000000000000006001600160a01b03168152602090f35b3461022957600036600319011261022957611c3561304e565b600080546001600160a01b0319811682556001600160a01b03167f8be0079c531659141344cd1fd0a4f28419497f9722a3daafe3b4186f6b6457e08280a3005b3461022957602036600319011261022957600435611c916130f9565b60008181526005602052604090206002018054336001600160a01b03821603611d425760ff8160a81c1660068110156107cf57611d0d5760ff60a81b1916600160aa1b179055611ce0816133f7565b33907f58f64e02b3a6d2a3bd28b7700a0a0d6699545bcb55bf917ac0ff670f3a509efb600080a360018055005b60405162461bcd60e51b815260206004820152600d60248201526c10d85b9b9bdd0818d85b98d95b609a1b6044820152606490fd5b60405162461bcd60e51b815260206004820152601760248201527f4f6e6c792063726561746f722063616e2063616e63656c0000000000000000006044820152606490fd5b604036600319011261022957602460043581356001600160401b03811161022957611db6903690600401612be4565b91611dbf6130f9565b81600052602090600582526040600020600281019081549160ff8360a81c166006811015612150576121175760068201938454936005840194855411156120e4578760005260068752604060002033600052875260ff60046040600020015460081c166120af5760b01c60ff1697611e3689612b62565b600198890361205f576003840154341061202857908892915b60128501549081611fbd575b50505060ff908688611efb6004604051611e7481612a01565b33815284810160008152604082016000815260608301916000835260808401976000895260a08501978c895260005260068152604060002090336000525260406000209360018060a01b039051166001600160601b0360a01b855416178455518a8401555160028301555160038201550192511515839060ff801983541691151516179055565b51151561ff0082549160081b169061ff0019161790558760005260078752611f27336040600020612ddb565b3360005260088752611f3d886040600020612e16565b611f478654612d86565b8096555460b01c16611f5881612b62565b14611fa7575b5054918260405191838352820152837f1106c14aab1f44b1577fd2f42206ee286f0fbf82c72942bbcdc9028af44216ff60403393a31015611f9e57508055005b6104699061315d565b600401611fb5348254612e4b565b905585611f5e565b9091929350604051611fde898281610d378183019687815193849201612b1a565b51902003611ff0579081808993611e5b565b8560126064926040519262461bcd60e51b8452600484015282015271125b98dbdc9c9958dd081c185cdcdddbdc9960721b6044820152fd5b60405162461bcd60e51b8152600481018890526010818401526f125b9cdd59999a58da595b9d0818995d60821b6044820152606490fd5b3461206d5790889291611e4f565b606482886040519162461bcd60e51b83528160048401528201527f467265652067616d657320646f6e27742072657175697265207061796d656e746044820152fd5b60405162461bcd60e51b815260048101889052600e818401526d105b1c9958591e481a9bda5b995960921b6044820152606490fd5b60405162461bcd60e51b815260048101889052600c818401526b11d85b59481a5cc8199d5b1b60a21b6044820152606490fd5b60405162461bcd60e51b8152600481018690526012818601527147616d65206e6f7420617661696c61626c6560701b6044820152606490fd5b84634e487b7160e01b60005260216004526000fd5b34610229576000366003190112610229576020600454604051908152f35b34610229576000366003190112610229576020604051662386f26fc100008152f35b346102295760403660031901126102295760c06121c0612983565b6121c8612da9565b506004356000526006602052604060002060018060a01b038092166000526020526040600020604051916121fb83612a01565b815416918281526001820154916020820192835260028101546040830190815260046003830154926060850193845201549360ff60a0608086019582881615158752019560081c1615158552604051958652516020860152516040850152516060840152511515608083015251151560a0820152f35b346102295760203660031901126102295760c061228c61296d565b612294612da9565b5060018060a01b03809116600052600a602052604060002090604051906122ba82612a01565b825416918282526001810154602083019081526002820154604084019081526003830154916060850192835260a0600560048601549560808801968752015495019485526040519586525160208601525160408501525160608401525160808301525160a0820152f35b3461022957600036600319011261022957602060405160068152f35b3461022957600036600319011261022957602060405160648152f35b34610229576000366003190112610229576020600354604051908152f35b34610229576000366003190112610229576020604051600a8152f35b3461022957600036600319011261022957602060405160328152f35b3461022957600036600319011261022957600280546123d081612d54565b9160009160015b8181111561242b575050506123eb81612d54565b9160005b82811061240c576040516020808252819061081890820187612b79565b8061241960019284612d95565b516124248287612d95565b52016123ef565b80600052600560209080825260ff85604060002001548160a891821c1692600693848110156107cf57159485156124c5575b851561249d575b505050505061247c575b61247790612d86565b6123d7565b92612495818561248f6124779489612d95565b52612d86565b93905061246e565b600087815291905260409020870154901c1691508110156107cf576001148680808080612464565b945085600052808552828860406000200154831c16848110156107cf5788149461245d565b34610229576000366003190112610229576040517f00000000000000000000000000000000000000000000000000000000000000006001600160a01b03168152602090f35b346102295760003660031901126102295761254861304e565b600354801561259c5760006003557f41fdd680478135993bc53fb2ffaf9560951b57ef62ff6badd02b61e018b4f17f602060018060a01b0361258e84826000541661307a565b6000541692604051908152a2005b60405162461bcd60e51b81526020600482015260086024820152674e6f2066756e647360c01b6044820152606490fd5b34610229576020806003193601126102295760043560005260078152604060002060405190818382549182815201908192600052846000209060005b8682821061266757868661261e82880383612a54565b604051928392818401908285525180915260408401929160005b82811061264757505050500390f35b83516001600160a01b031685528695509381019392810192600101612638565b83546001600160a01b031685529093019260019283019201612608565b34610229576020366003190112610229576001600160a01b036126a561296d565b1660005260086020526108186108046040600020612cec565b346102295760203660031901126102295760043560005260056020526040600020805490600181016126ef90612a75565b60e052600281015460a05260038101546101005260048101549160058201546006830154600784015460088501546009860154600a87015490600160a01b60019003600b8901541692600c89015494600d8a015496600e8b015498600f8c01549a60118d015460ff169c6012015460805260405160c0526102a09060c051528060c0516020015260c0510160e0519061278791612b3d565b9c600160a01b6001900360a0511660c0516040015260a05160a01c60ff166127ae90612b62565b60a05160a01c60ff1660c0516060015260c05160800160a05160a81c60ff16906127d791612b6c565b60a05160b01c60ff166127e990612b62565b60a05160b01c60ff1660c05160a001526101005160c05160c0015260c05160e0015260c051610100015260c051610120015260c051610140015260c051610160015260c051610180015260c0516101a0015260c0516101c0015260c0516101e0015260c051610200015260c051610220015260c0516102400152151560c051610260015260805160c051610280015260c051900360c051f35b346102295760403660031901126102295761289b61296d565b6001600160a01b0316600090815260086020526040902080546024359190821015610229576020916128cc91612999565b90546040519160031b1c8152f35b34610229576020366003190112610229577ffcc9e1bab18876e9da15b014af31492eb0229b8bc33b8edde9689afe3617f67b604060043561291961304e565b80151580612961575b61292b90612c9c565b61293781600454612cdf565b6004556000546129519082906001600160a01b031661307a565b60045482519182526020820152a1005b50600454811115612922565b600435906001600160a01b038216820361022957565b602435906001600160a01b038216820361022957565b80548210156129b15760005260206000200190600090565b634e487b7160e01b600052603260045260246000fd5b90600182811c921680156129f7575b60208310146129e157565b634e487b7160e01b600052602260045260246000fd5b91607f16916129d6565b60c081019081106001600160401b03821117610e0b57604052565b6102c081019081106001600160401b03821117610e0b57604052565b6101a081019081106001600160401b03821117610e0b57604052565b90601f801991011681019081106001600160401b03821117610e0b57604052565b90604051918260008254612a88816129c7565b90818452602094600191600181169081600014612af85750600114612ab9575b505050612ab792500383612a54565b565b600090815285812095935091905b818310612ae0575050612ab79350820101388080612aa8565b85548884018501529485019487945091830191612ac7565b92505050612ab794925060ff191682840152151560051b820101388080612aa8565b60005b838110612b2d5750506000910152565b8181015183820152602001612b1d565b90602091612b5681518092818552858086019101612b1a565b601f01601f1916010190565b600211156107cf57565b9060068210156107cf5752565b90815180825260208080930193019160005b828110612b99575050505090565b835185529381019392810192600101612b8b565b3461022957600036600319011261022957602060405160058152f35b6001600160401b038111610e0b57601f01601f191660200190565b81601f8201121561022957803590612bfb82612bc9565b92612c096040519485612a54565b8284526020838301011161022957816000926020809301838601378301015290565b9060a0600319830112610229576001600160401b036004358181116102295783612c5791600401612be4565b9260243560028110156102295792604435926064359260843591821161022957612c8391600401612be4565b90565b6040906003190112610229576004359060243590565b15612ca357565b60405162461bcd60e51b8152602060048201526014602482015273496e73756666696369656e742062616c616e636560601b6044820152606490fd5b919082039182116105f057565b90604051918281549182825260209260208301916000526020600020936000905b828210612d2357505050612ab792500383612a54565b855484526001958601958895509381019390910190612d0d565b6001600160401b038111610e0b5760051b60200190565b90612d5e82612d3d565b612d6b6040519182612a54565b8281528092612d7c601f1991612d3d565b0190602036910137565b60001981146105f05760010190565b80518210156129b15760209160051b010190565b60405190612db682612a01565b8160a06000918281528260208201528260408201528260608201528260808201520152565b8054600160401b811015610e0b57612df891600182018155612999565b60018060a09493941b038084549260031b9316831b921b1916179055565b8054600160401b811015610e0b57612e3391600182018155612999565b819291549060031b91821b91600019901b1916179055565b919082018092116105f057565b15612e5f57565b60405162461bcd60e51b8152602060048201526011602482015270159491881b9bdd08199d5b199a5b1b1959607a1b6044820152606490fd5b9060c382029180830460c314901517156105f057565b818110612eb9575050565b60008155600101612eae565b15612ecc57565b60405162461bcd60e51b8152602060048201526014602482015273125b9d985b1a59081c1b185e595c8818dbdd5b9d60621b6044820152606490fd5b15612f0f57565b60405162461bcd60e51b815260206004820152602360248201527f41492067616d6573206d75737420686176652065786163746c79203120706c616044820152623cb2b960e91b6064820152608490fd5b15612f6757565b60405162461bcd60e51b815260206004820152601a60248201527f496e73756666696369656e7420686f7573652062616c616e63650000000000006044820152606490fd5b60005260056020526040600020612fc960ff601183015416612e58565b601081018054612fe15750600f612c8391015461349b565b612c839150612cec565b15612ff257565b60405162461bcd60e51b815260206004820152601460248201527347616d65206e6f7420696e2070726f677265737360601b6044820152606490fd5b8115613038570690565b634e487b7160e01b600052601260045260246000fd5b6000546001600160a01b0316330361306257565b60405163118cdaa760e01b8152336004820152602490fd5b6000918291829182916001600160a01b03165af13d156130f4573d61309e81612bc9565b906130ac6040519283612a54565b8152600060203d92013e5b156130be57565b60405162461bcd60e51b815260206004820152600e60248201526d14185e5b595b9d0819985a5b195960921b6044820152606490fd5b6130b7565b60026001541461310a576002600155565b604051633ee5aeb560e01b8152600490fd5b1561312357565b60405162461bcd60e51b81526020600482015260126024820152714e6f7420656e6f75676820706c617965727360701b6044820152606490fd5b6000908082526020916005835260408082209060028201805460ff8160a81c1660068110156133e3576133a65760ff8160a01c1661319a81612b62565b61338d576131af60016006860154101561311c565b858552600687528285207f00000000000000000000000000000000000000000000000000000000000000006001600160a01b0316865287528285206004015460081c60ff1615613354575b60ff60a81b1916600160a81b17905542600883015580516808c9892a09a82a886960bb1b8682019081526029808301879052825290959060608701906001600160401b038211888310176133405781845287519020635e3b709f60e01b825260648801528181602481887f00000000000000000000000000000000000000000000000000000000000000006001600160a01b03165af19687156133365785976132fe575b505083928587936009600e94867fb4a411a01bc386893734d83e17411a973f9dbb12732aff7a88d6964f1360b16099525285205582867ff7617d06180c24c92bad8c8436c3ae97409a09e1f5655da6c0807f50c5f967488680a3015580a3565b82809699985091923d831161332f575b6133188185612a54565b8101031261332b5751949592828561329e565b8680fd5b503d61330e565b83513d87823e3d90fd5b634e487b7160e01b86526041600452602486fd5b825162461bcd60e51b81526004810188905260126024820152711052481b9bdd081a5b9a5d1a585b1a5e995960721b6044820152606490fd5b6133a160068501546005860154111561311c565b6131fa565b825162461bcd60e51b815260048101889052601660248201527511d85b594818d85b9b9bdd081899481cdd185c9d195960521b6044820152606490fd5b634e487b7160e01b86526021600452602486fd5b6000816000526020600560205260409160406000209260009160018060a01b0392837f000000000000000000000000000000000000000000000000000000000000000016945b878352600781528383208054831015613490578286613460600795600194612999565b919054600392831b1c1689810361347c575b505001915061343d565b613489918b01549061307a565b3880613472565b505050505050505050565b9060408051906134aa82612a38565b600c90600c83526020906101809586366020870137604051966134cc88612a38565b600c885236602089013760005b848110613596575091600b805b61351e575050505060005b8181106134ff575090925050565b8061350c60019287612d95565b516135178286612d95565b52016134f1565b600181018082116105f057613533908561302e565b9383518381019182528381528481018181106001600160401b03821117610e0b57855251902093613585613567838b612d95565b5191613573818c612d95565b5161357e858d612d95565b528a612d95565b5280156105f05760001901806134e6565b80806135a46001938b612d95565b52016134d9565b60008181526020906005602052604090604081209160ff9060ff600285015460a01c16936135d885612b62565b600180951490816136a2575b81613693575b5061368557919360019392859291845b613616575b5050505050905061360d5750565b612ab7906136b0565b87845260078082528285205488101561367f576006825282852090825261363f88848720612999565b905460039190911b1c6001600160a01b0316855281528184206004015483161561366d5795840195846135fa565b505050925050508038808080806135ff565b506135ff565b5050505050612ab7906136b0565b600a91500154421015386135ea565b600a810154151591506135e4565b80600052600560205260406000209060028201549160ff8360a81c1660068110156107cf5760026136e5919592949514612feb565b6136f560ff601185015416612e58565b60008281526007602052604081205494600019908261372c61371689612d3d565b986137246040519a8b612a54565b808a52612d3d565b601f19013660208a01376000906000935b87600052600760205260406000208054861015613830578561375e91612999565b60018060a01b0391549060031b1c1695886000526006602052604060002087600052602052604060002060ff600482015416158015613824575b6138135760020154938b838610156137d25750505050509383966001948951156129b15760208a0152600185945b0193919597909761373d565b91979096928099959b949b146137ed575b50506001906137c6565b956001929661248f82613803613809959b612d86565b9a612d95565b94905089386137e3565b5095509591936001909891986137c6565b50600281015415613798565b50959895976001600160a01b03969095919450909186851615613bf4576000198914613baf57600187931180613ba5575b613b55575b505050600360a81b9060ff60a81b19161794856002840155426009840155600160ff600b85019786851698896001600160601b0360a01b8254161790558760005260066020526040600020896000526020528260406000200154600c87015587600052600660205260406000208960005260205288887f5f5c334197520a152f092df6690f941be7e48ac07124cf867206738cac4a6a3b6060600260406000200154998a600d82015560049a600e8c8301549201549060405192835260208301526040820152a360b01c1661393a81612b62565b03613b4657508360005260056020526040600020908515613b1157479360ff600284015460a01c1661396b81612b62565b613a555791602093917fdc1d0b6a7cbfa6f3b2d4325bab5a169b265ad0b2b4022fb550364f0dfeeb6a7495937f00000000000000000000000000000000000000000000000000000000000000001688146000146139eb575060036139d491015480931015612c9c565b6139df828254612e4b565b90555b604051908152a3565b91906003613a3591015493613a2f6064613a0487612e98565b0495613a2987865494613a22613a1a8584612cdf565b871015612f60565b1015612c9c565b86612cdf565b90612cdf565b90558180613a45575b50506139e2565b613a4e9161307a565b3881613a3e565b509180910154908115613ae257600a820290828204600a03613acd575091613abd7fdc1d0b6a7cbfa6f3b2d4325bab5a169b265ad0b2b4022fb550364f0dfeeb6a749492613ab5613aac6064602097048093612cdf565b80951015612c9c565b600354612e4b565b6003558180613a455750506139e2565b601190634e487b7160e01b6000525260246000fd5b60649060206040519162461bcd60e51b835282015260086024820152674e6f207072697a6560c01b6044820152fd5b60405162461bcd60e51b8152602081850152600e60248201526d24b73b30b634b2103bb4b73732b960911b6044820152606490fd5b9350915050612ab79250613c2b565b613b7492939450613b6e90612710600f8801540461302e565b90612d95565b511690847f6735b98d5d75eb6a72ff7cbd805fc91d5ee18e1b5d11043b0e649b6f22c9cab8600080a2833880613866565b5060018111613861565b60405162461bcd60e51b815260206004820152601a60248201527f4e6f20636f6d706c6574656420706c617965727320666f756e640000000000006044820152606490fd5b60405162461bcd60e51b815260206004820152600f60248201526e139bc81dda5b9b995c88199bdd5b99608a1b6044820152606490fd5b6001600160a01b0390811691907f0000000000000000000000000000000000000000000000000000000000000000168214613d67576000828152600a60205260408120926001600160601b0360a01b84541617835560018301613c8e8154612d86565b905560038301613c9e8154612d86565b9055816002840180548015908115613d5d575b50613d55575b5050606491600a811115613ce1575b5050613cd760048301918254612e4b565b9055600542910155565b80919250600b0390600b8211613d4157600a8202918204600a1490600b141715613d2d576064019081606411613d1957503880613cc6565b634e487b7160e01b81526011600452602490fd5b634e487b7160e01b82526011600452602482fd5b634e487b7160e01b83526011600452602483fd5b558138613cb7565b9050821038613cb1565b505056fe73f639a997d47bc9ecf8116dac1744591113286ad7fdb2b14682af6efcb58d39a26469706673582212206a9a14134fb073a726d0e5cb4d495bcf68924237cdf2867812fa7cb7fe429d8064736f6c63430008180033","opcodes":"PUSH1 0xC0 CALLVALUE PUSH3 0x1C3 JUMPI PUSH3 0x3FB5 SWAP1 PUSH1 0x1F CODESIZE DUP4 SWAP1 SUB SWAP1 DUP2 ADD PUSH1 0x1F NOT AND DUP3 ADD SWAP1 PUSH1 0x1 PUSH1 0x1 PUSH1 0x40 SHL SUB DUP3 GT DUP4 DUP4 LT OR PUSH3 0x1C8 JUMPI DUP1 DUP4 SWAP2 PUSH1 0x40 SWAP6 DUP7 SWAP5 DUP6 MSTORE DUP4 CODECOPY DUP2 ADD SUB SLT PUSH3 0x1C3 JUMPI PUSH3 0x5D PUSH1 0x20 PUSH3 0x55 DUP4 PUSH3 0x1DE JUMP JUMPDEST SWAP3 ADD PUSH3 0x1DE JUMP JUMPDEST CALLER ISZERO PUSH3 0x1AB JUMPI PUSH1 0x0 DUP1 SLOAD CALLER PUSH1 0x1 PUSH1 0x1 PUSH1 0xA0 SHL SUB NOT DUP3 AND DUP2 OR DUP4 SSTORE DUP6 MLOAD PUSH1 0x1 PUSH1 0x1 PUSH1 0xA0 SHL SUB SWAP5 SWAP4 SWAP1 SWAP3 DUP6 AND SWAP1 PUSH32 0x8BE0079C531659141344CD1FD0A4F28419497F9722A3DAAFE3B4186F6B6457E0 SWAP1 DUP1 LOG3 PUSH1 0x1 DUP1 SSTORE DUP3 DUP5 AND ISZERO PUSH3 0x174 JUMPI POP AND SWAP1 DUP2 ISZERO PUSH3 0x130 JUMPI PUSH1 0x80 MSTORE PUSH1 0xA0 MSTORE MLOAD PUSH2 0x3DC1 SWAP1 DUP2 PUSH3 0x1F4 DUP3 CODECOPY PUSH1 0x80 MLOAD DUP2 DUP2 DUP2 PUSH2 0x503 ADD MSTORE DUP2 DUP2 PUSH2 0x6B5 ADD MSTORE DUP2 DUP2 PUSH2 0xBC5 ADD MSTORE DUP2 DUP2 PUSH2 0x12A9 ADD MSTORE DUP2 DUP2 PUSH2 0x2500 ADD MSTORE DUP2 DUP2 PUSH2 0x31BB ADD MSTORE DUP2 DUP2 PUSH2 0x341B ADD MSTORE DUP2 DUP2 PUSH2 0x3999 ADD MSTORE PUSH2 0x3C3A ADD MSTORE PUSH1 0xA0 MLOAD DUP2 DUP2 DUP2 PUSH2 0x1797 ADD MSTORE DUP2 DUP2 PUSH2 0x1BED ADD MSTORE PUSH2 0x3266 ADD MSTORE RETURN JUMPDEST DUP3 MLOAD PUSH3 0x461BCD PUSH1 0xE5 SHL DUP2 MSTORE PUSH1 0x20 PUSH1 0x4 DUP3 ADD MSTORE PUSH1 0x19 PUSH1 0x24 DUP3 ADD MSTORE PUSH32 0x5079746820565246206164647265737320726571756972656400000000000000 PUSH1 0x44 DUP3 ADD MSTORE PUSH1 0x64 SWAP1 REVERT JUMPDEST PUSH3 0x461BCD PUSH1 0xE5 SHL DUP2 MSTORE PUSH1 0x20 PUSH1 0x4 DUP3 ADD MSTORE PUSH1 0x12 PUSH1 0x24 DUP3 ADD MSTORE PUSH18 0x496E76616C69642041492061646472657373 PUSH1 0x70 SHL PUSH1 0x44 DUP3 ADD MSTORE PUSH1 0x64 SWAP1 REVERT JUMPDEST DUP3 MLOAD PUSH4 0x1E4FBDF7 PUSH1 0xE0 SHL DUP2 MSTORE PUSH1 0x0 PUSH1 0x4 DUP3 ADD MSTORE PUSH1 0x24 SWAP1 REVERT JUMPDEST PUSH1 0x0 DUP1 REVERT JUMPDEST PUSH4 0x4E487B71 PUSH1 0xE0 SHL PUSH1 0x0 MSTORE PUSH1 0x41 PUSH1 0x4 MSTORE PUSH1 0x24 PUSH1 0x0 REVERT JUMPDEST MLOAD SWAP1 PUSH1 0x1 PUSH1 0x1 PUSH1 0xA0 SHL SUB DUP3 AND DUP3 SUB PUSH3 0x1C3 JUMPI JUMP INVALID PUSH2 0x120 PUSH1 0x40 MSTORE PUSH1 0x4 CALLDATASIZE LT ISZERO PUSH2 0x13 JUMPI PUSH1 0x0 DUP1 REVERT JUMPDEST PUSH1 0x0 CALLDATALOAD PUSH1 0xE0 SHR DUP1 PUSH3 0x14CDD5 EQ PUSH2 0x28DA JUMPI DUP1 PUSH4 0xA5694C2 EQ PUSH2 0x2882 JUMPI DUP1 PUSH4 0x117A5B90 EQ PUSH2 0x26BE JUMPI DUP1 PUSH4 0x129DAF84 EQ PUSH2 0x2684 JUMPI DUP1 PUSH4 0x15A40F49 EQ PUSH2 0x25CC JUMPI DUP1 PUSH4 0x166BAB95 EQ PUSH2 0x252F JUMPI DUP1 PUSH4 0x1939053D EQ PUSH2 0x24EA JUMPI DUP1 PUSH4 0x1B76929C EQ PUSH2 0x23B2 JUMPI DUP1 PUSH4 0x22377D9E EQ PUSH2 0x2396 JUMPI DUP1 PUSH4 0x2C01C2C6 EQ PUSH2 0x237A JUMPI DUP1 PUSH4 0x313DAB20 EQ PUSH2 0x235C JUMPI DUP1 PUSH4 0x32B72F9C EQ PUSH2 0x2340 JUMPI DUP1 PUSH4 0x3BA80729 EQ PUSH2 0x2324 JUMPI DUP1 PUSH4 0x3EF25C11 EQ PUSH2 0x2271 JUMPI DUP1 PUSH4 0x4411B3EB EQ PUSH2 0x1422 JUMPI DUP1 PUSH4 0x6454E58D EQ PUSH2 0x21A5 JUMPI DUP1 PUSH4 0x6540742F EQ PUSH2 0x2183 JUMPI DUP1 PUSH4 0x67084EB3 EQ PUSH2 0x2165 JUMPI DUP1 PUSH4 0x68880A26 EQ PUSH2 0x1D87 JUMPI DUP1 PUSH4 0x69958AB9 EQ PUSH2 0x1C75 JUMPI DUP1 PUSH4 0x715018A6 EQ PUSH2 0x1C1C JUMPI DUP1 PUSH4 0x772D84C4 EQ PUSH2 0x1BD7 JUMPI DUP1 PUSH4 0x79AE8779 EQ PUSH2 0x1A6B JUMPI DUP1 PUSH4 0x85F07BBE EQ PUSH2 0x1A4F JUMPI DUP1 PUSH4 0x8DA5CB5B EQ PUSH2 0x1A26 JUMPI DUP1 PUSH4 0x96DBBBE8 EQ PUSH2 0x1778 JUMPI DUP1 PUSH4 0xA2F77BCC EQ PUSH2 0x1427 JUMPI DUP1 PUSH4 0xB241B5EC EQ PUSH2 0x1422 JUMPI DUP1 PUSH4 0xBBF39544 EQ PUSH2 0x1032 JUMPI DUP1 PUSH4 0xC0F80921 EQ PUSH2 0xFA9 JUMPI DUP1 PUSH4 0xC8AB99C7 EQ PUSH2 0xF1A JUMPI DUP1 PUSH4 0xD1D33D20 EQ PUSH2 0xEA6 JUMPI DUP1 PUSH4 0xD35AEA0A EQ PUSH2 0x93B JUMPI DUP1 PUSH4 0xDDDB07B3 EQ PUSH2 0x897 JUMPI DUP1 PUSH4 0xDEC04E5F EQ PUSH2 0x86B JUMPI DUP1 PUSH4 0xDFEFEF9F EQ PUSH2 0x83A JUMPI DUP1 PUSH4 0xE87C0EE6 EQ PUSH2 0x81C JUMPI DUP1 PUSH4 0xE93362E2 EQ PUSH2 0x7E5 JUMPI DUP1 PUSH4 0xEB22EBE0 EQ PUSH2 0x2B7 JUMPI DUP1 PUSH4 0xF2FDE38B EQ PUSH2 0x22E JUMPI PUSH4 0xF3154298 EQ PUSH2 0x1DF JUMPI PUSH1 0x0 DUP1 REVERT JUMPDEST CALLVALUE PUSH2 0x229 JUMPI PUSH2 0x1ED CALLDATASIZE PUSH2 0x2C86 JUMP JUMPDEST SWAP1 PUSH1 0x0 MSTORE PUSH1 0xB PUSH1 0x20 MSTORE PUSH1 0x40 PUSH1 0x0 KECCAK256 DUP1 SLOAD DUP3 LT ISZERO PUSH2 0x229 JUMPI PUSH1 0x20 SWAP2 PUSH2 0x210 SWAP2 PUSH2 0x2999 JUMP JUMPDEST SWAP1 SLOAD PUSH1 0x40 MLOAD PUSH1 0x3 SWAP3 SWAP1 SWAP3 SHL SHR PUSH1 0x1 PUSH1 0x1 PUSH1 0xA0 SHL SUB AND DUP2 MSTORE RETURN JUMPDEST PUSH1 0x0 DUP1 REVERT JUMPDEST CALLVALUE PUSH2 0x229 JUMPI PUSH1 0x20 CALLDATASIZE PUSH1 0x3 NOT ADD SLT PUSH2 0x229 JUMPI PUSH2 0x247 PUSH2 0x296D JUMP JUMPDEST PUSH2 0x24F PUSH2 0x304E JUMP JUMPDEST PUSH1 0x1 PUSH1 0x1 PUSH1 0xA0 SHL SUB SWAP1 DUP2 AND SWAP1 DUP2 ISZERO PUSH2 0x29E JUMPI PUSH1 0x0 SLOAD DUP3 PUSH1 0x1 PUSH1 0x1 PUSH1 0x60 SHL SUB PUSH1 0xA0 SHL DUP3 AND OR PUSH1 0x0 SSTORE AND PUSH32 0x8BE0079C531659141344CD1FD0A4F28419497F9722A3DAAFE3B4186F6B6457E0 PUSH1 0x0 DUP1 LOG3 STOP JUMPDEST PUSH1 0x40 MLOAD PUSH4 0x1E4FBDF7 PUSH1 0xE0 SHL DUP2 MSTORE PUSH1 0x0 PUSH1 0x4 DUP3 ADD MSTORE PUSH1 0x24 SWAP1 REVERT JUMPDEST CALLVALUE PUSH2 0x229 JUMPI PUSH2 0x2C5 CALLDATASIZE PUSH2 0x2C86 JUMP JUMPDEST SWAP1 PUSH2 0x2CE PUSH2 0x30F9 JUMP JUMPDEST DUP1 PUSH1 0x0 MSTORE PUSH1 0x20 SWAP1 PUSH1 0x5 DUP3 MSTORE PUSH1 0x40 PUSH1 0x0 KECCAK256 PUSH1 0x2 DUP2 ADD SWAP4 PUSH1 0xFF SWAP4 DUP5 DUP7 SLOAD PUSH1 0xA8 SHR AND SWAP3 PUSH1 0x6 SWAP4 DUP5 DUP2 LT ISZERO PUSH2 0x7CF JUMPI PUSH1 0x2 PUSH2 0x305 SWAP2 EQ PUSH2 0x2FEB JUMP JUMPDEST PUSH2 0x314 DUP7 PUSH1 0x11 DUP4 ADD SLOAD AND PUSH2 0x2E58 JUMP JUMPDEST DUP5 PUSH1 0x0 MSTORE DUP4 DUP3 MSTORE PUSH1 0x40 PUSH1 0x0 KECCAK256 CALLER PUSH1 0x0 MSTORE DUP3 MSTORE DUP6 PUSH1 0x4 PUSH1 0x40 PUSH1 0x0 KECCAK256 ADD SLOAD PUSH1 0x8 SHR AND ISZERO PUSH2 0x79B JUMPI DUP5 PUSH1 0x0 MSTORE DUP4 DUP3 MSTORE PUSH1 0x40 PUSH1 0x0 KECCAK256 CALLER PUSH1 0x0 MSTORE DUP3 MSTORE DUP6 PUSH1 0x4 PUSH1 0x40 PUSH1 0x0 KECCAK256 ADD SLOAD AND PUSH2 0x762 JUMPI DUP4 DUP4 LT PUSH2 0x728 JUMPI PUSH1 0x64 DUP4 GT PUSH2 0x6EF JUMPI SWAP1 DUP6 PUSH2 0x380 PUSH1 0x32 PUSH1 0xF PUSH2 0x442 SWAP7 SWAP6 ADD SLOAD MOD DUP5 PUSH2 0x2E4B JUMP JUMPDEST SWAP8 DUP7 PUSH1 0x0 MSTORE DUP6 DUP4 MSTORE PUSH1 0x40 PUSH1 0x0 KECCAK256 CALLER PUSH1 0x0 MSTORE DUP4 MSTORE PUSH1 0x1 SWAP9 DUP5 DUP11 PUSH1 0x40 PUSH1 0x0 KECCAK256 ADD SSTORE DUP8 PUSH1 0x0 MSTORE DUP7 DUP5 MSTORE PUSH1 0x40 PUSH1 0x0 KECCAK256 CALLER PUSH1 0x0 MSTORE DUP5 MSTORE DUP1 PUSH1 0x2 PUSH1 0x40 PUSH1 0x0 KECCAK256 ADD SSTORE DUP8 PUSH1 0x0 MSTORE DUP7 DUP5 MSTORE PUSH1 0x40 PUSH1 0x0 KECCAK256 CALLER PUSH1 0x0 MSTORE DUP5 MSTORE TIMESTAMP PUSH1 0x3 PUSH1 0x40 PUSH1 0x0 KECCAK256 ADD SSTORE DUP8 PUSH1 0x0 MSTORE DUP7 DUP5 MSTORE PUSH1 0x40 PUSH1 0x0 KECCAK256 CALLER PUSH1 0x0 MSTORE DUP5 MSTORE DUP8 PUSH1 0x4 PUSH1 0x40 PUSH1 0x0 KECCAK256 ADD SWAP6 PUSH1 0xFF NOT SWAP7 DUP13 DUP9 DUP3 SLOAD AND OR SWAP1 SSTORE PUSH1 0x40 MLOAD DUP1 PUSH32 0x106AB7FEFB82AE9482E45DA193781EB91DD8310C7F56CCD099FCD5EACFFD962F SWAP10 DUP11 SWAP4 CALLER SWAP7 TIMESTAMP SWAP2 DUP5 PUSH1 0x40 SWAP2 SWAP5 SWAP4 SWAP3 PUSH1 0x60 DUP3 ADD SWAP6 DUP3 MSTORE PUSH1 0x20 DUP3 ADD MSTORE ADD MSTORE JUMP JUMPDEST SUB SWAP1 LOG3 SLOAD PUSH1 0xA0 SHR AND PUSH2 0x453 DUP2 PUSH2 0x2B62 JUMP JUMPDEST ISZERO DUP1 PUSH2 0x6A5 JUMPI JUMPDEST PUSH2 0x46D JUMPI JUMPDEST DUP7 PUSH2 0x469 DUP7 PUSH2 0x35AB JUMP JUMPDEST DUP1 SSTORE STOP JUMPDEST DUP5 PUSH1 0x0 MSTORE PUSH1 0x5 DUP2 MSTORE PUSH1 0x40 PUSH1 0x0 KECCAK256 SWAP6 DUP5 DUP3 MSTORE PUSH1 0x40 PUSH1 0x0 KECCAK256 CALLER PUSH1 0x0 MSTORE DUP3 MSTORE PUSH1 0x40 PUSH1 0x0 KECCAK256 SWAP1 PUSH1 0x4 DUP3 ADD SLOAD AND ISZERO PUSH2 0x662 JUMPI DUP8 ADD SLOAD SWAP6 DUP7 ISZERO PUSH2 0x606 JUMPI PUSH1 0xF ADD SLOAD SWAP2 PUSH1 0x14 PUSH1 0x64 DUP5 DIV MOD SWAP7 DUP9 PUSH2 0x3E8 DUP6 DIV AND ISZERO PUSH1 0x0 EQ PUSH2 0x5C8 JUMPI PUSH2 0x469 SWAP8 DUP8 SWAP6 SWAP5 SWAP4 SWAP3 SWAP2 DUP2 DUP2 GT ISZERO PUSH2 0x5BA JUMPI PUSH1 0x32 PUSH2 0x4E2 PUSH2 0x4EC SWAP4 DUP3 SWAP4 PUSH2 0x2CDF JUMP JUMPDEST SWAP6 JUMPDEST DIV MOD DUP5 PUSH2 0x2E4B JUMP JUMPDEST SWAP2 DUP6 PUSH1 0x0 MSTORE DUP7 DUP2 MSTORE PUSH1 0x40 PUSH1 0x0 KECCAK256 SWAP7 PUSH1 0x1 DUP1 PUSH1 0xA0 SHL SUB PUSH32 0x0 AND SWAP8 DUP9 PUSH1 0x0 MSTORE DUP3 MSTORE DUP5 DUP12 PUSH1 0x40 PUSH1 0x0 KECCAK256 ADD SSTORE DUP7 PUSH1 0x0 MSTORE DUP1 DUP3 MSTORE PUSH1 0x40 PUSH1 0x0 KECCAK256 DUP9 PUSH1 0x0 MSTORE DUP3 MSTORE DUP4 PUSH1 0x2 PUSH1 0x40 PUSH1 0x0 KECCAK256 ADD SSTORE DUP7 PUSH1 0x0 MSTORE DUP1 DUP3 MSTORE PUSH1 0x40 PUSH1 0x0 KECCAK256 DUP9 PUSH1 0x0 MSTORE DUP3 MSTORE TIMESTAMP PUSH1 0x3 PUSH1 0x40 PUSH1 0x0 KECCAK256 ADD SSTORE DUP7 PUSH1 0x0 MSTORE DUP2 MSTORE PUSH1 0x40 PUSH1 0x0 KECCAK256 SWAP1 DUP8 PUSH1 0x0 MSTORE MSTORE DUP9 PUSH1 0x4 PUSH1 0x40 PUSH1 0x0 KECCAK256 ADD SWAP2 DUP3 SLOAD AND OR SWAP1 SSTORE PUSH2 0x5AE PUSH1 0x40 MLOAD SWAP3 DUP4 SWAP3 TIMESTAMP SWAP2 DUP5 PUSH1 0x40 SWAP2 SWAP5 SWAP4 SWAP3 PUSH1 0x60 DUP3 ADD SWAP6 DUP3 MSTORE PUSH1 0x20 DUP3 ADD MSTORE ADD MSTORE JUMP JUMPDEST SUB SWAP1 LOG3 DUP4 DUP1 DUP1 DUP1 PUSH2 0x45F JUMP JUMPDEST POP POP PUSH2 0x4EC PUSH1 0x32 DUP1 DUP12 PUSH2 0x4E2 JUMP JUMPDEST SWAP4 SWAP3 SWAP2 SWAP1 DUP9 DUP6 ADD DUP1 SWAP6 GT PUSH2 0x5F0 JUMPI PUSH2 0x4EC PUSH1 0x32 DUP1 PUSH2 0x5EA PUSH2 0x469 SWAP12 DUP12 SWAP10 PUSH2 0x2E4B JUMP JUMPDEST SWAP6 PUSH2 0x4E4 JUMP JUMPDEST PUSH4 0x4E487B71 PUSH1 0xE0 SHL PUSH1 0x0 MSTORE PUSH1 0x11 PUSH1 0x4 MSTORE PUSH1 0x24 PUSH1 0x0 REVERT JUMPDEST PUSH1 0x40 MLOAD PUSH3 0x461BCD PUSH1 0xE5 SHL DUP2 MSTORE PUSH1 0x4 DUP2 ADD DUP4 SWAP1 MSTORE PUSH1 0x2E PUSH1 0x24 DUP3 ADD MSTORE PUSH32 0x48756D616E20706C6179657220666C697020636F756E74206D75737420626520 PUSH1 0x44 DUP3 ADD MSTORE PUSH14 0x67726561746572207468616E203 PUSH1 0x94 SHL PUSH1 0x64 DUP3 ADD MSTORE PUSH1 0x84 SWAP1 REVERT JUMPDEST PUSH1 0x64 DUP3 PUSH1 0x40 MLOAD SWAP1 PUSH3 0x461BCD PUSH1 0xE5 SHL DUP3 MSTORE DUP1 PUSH1 0x4 DUP4 ADD MSTORE PUSH1 0x24 DUP3 ADD MSTORE PUSH32 0x48756D616E20706C61796572206D75737420636F6D706C657465206669727374 PUSH1 0x44 DUP3 ADD MSTORE REVERT JUMPDEST POP PUSH1 0x0 DUP6 DUP2 MSTORE DUP5 DUP3 MSTORE PUSH1 0x40 DUP1 DUP3 KECCAK256 PUSH32 0x0 PUSH1 0x1 PUSH1 0x1 PUSH1 0xA0 SHL SUB AND DUP4 MSTORE DUP4 MSTORE SWAP1 KECCAK256 PUSH1 0x4 ADD SLOAD DUP7 AND ISZERO PUSH2 0x45A JUMP JUMPDEST PUSH1 0x40 MLOAD PUSH3 0x461BCD PUSH1 0xE5 SHL DUP2 MSTORE PUSH1 0x4 DUP2 ADD DUP4 SWAP1 MSTORE PUSH1 0x11 PUSH1 0x24 DUP3 ADD MSTORE PUSH17 0x556E7265616C69737469632073636F7265 PUSH1 0x78 SHL PUSH1 0x44 DUP3 ADD MSTORE PUSH1 0x64 SWAP1 REVERT JUMPDEST PUSH1 0x40 MLOAD PUSH3 0x461BCD PUSH1 0xE5 SHL DUP2 MSTORE PUSH1 0x4 DUP2 ADD DUP4 SWAP1 MSTORE PUSH1 0x12 PUSH1 0x24 DUP3 ADD MSTORE PUSH18 0x466C697020636F756E7420746F6F206C6F77 PUSH1 0x70 SHL PUSH1 0x44 DUP3 ADD MSTORE PUSH1 0x64 SWAP1 REVERT JUMPDEST PUSH1 0x40 MLOAD PUSH3 0x461BCD PUSH1 0xE5 SHL DUP2 MSTORE PUSH1 0x4 DUP2 ADD DUP4 SWAP1 MSTORE PUSH1 0x11 PUSH1 0x24 DUP3 ADD MSTORE PUSH17 0x105B1C9958591E4818DBDB5C1B195D1959 PUSH1 0x7A SHL PUSH1 0x44 DUP3 ADD MSTORE PUSH1 0x64 SWAP1 REVERT JUMPDEST PUSH1 0x40 MLOAD PUSH3 0x461BCD PUSH1 0xE5 SHL DUP2 MSTORE PUSH1 0x4 DUP2 ADD DUP4 SWAP1 MSTORE PUSH1 0xC PUSH1 0x24 DUP3 ADD MSTORE PUSH12 0x2737BA103090383630BCB2B9 PUSH1 0xA1 SHL PUSH1 0x44 DUP3 ADD MSTORE PUSH1 0x64 SWAP1 REVERT JUMPDEST PUSH4 0x4E487B71 PUSH1 0xE0 SHL PUSH1 0x0 MSTORE PUSH1 0x21 PUSH1 0x4 MSTORE PUSH1 0x24 PUSH1 0x0 REVERT JUMPDEST CALLVALUE PUSH2 0x229 JUMPI PUSH1 0x20 CALLDATASIZE PUSH1 0x3 NOT ADD SLT PUSH2 0x229 JUMPI PUSH2 0x818 PUSH2 0x804 PUSH1 0x4 CALLDATALOAD PUSH2 0x2FAC JUMP JUMPDEST PUSH1 0x40 MLOAD SWAP2 DUP3 SWAP2 PUSH1 0x20 DUP4 MSTORE PUSH1 0x20 DUP4 ADD SWAP1 PUSH2 0x2B79 JUMP JUMPDEST SUB SWAP1 RETURN JUMPDEST CALLVALUE PUSH2 0x229 JUMPI PUSH1 0x0 CALLDATASIZE PUSH1 0x3 NOT ADD SLT PUSH2 0x229 JUMPI PUSH1 0x20 PUSH1 0x2 SLOAD PUSH1 0x40 MLOAD SWAP1 DUP2 MSTORE RETURN JUMPDEST CALLVALUE PUSH2 0x229 JUMPI PUSH2 0x848 CALLDATASIZE PUSH2 0x2C86 JUMP JUMPDEST SWAP1 PUSH1 0x0 MSTORE PUSH1 0x7 PUSH1 0x20 MSTORE PUSH1 0x40 PUSH1 0x0 KECCAK256 DUP1 SLOAD DUP3 LT ISZERO PUSH2 0x229 JUMPI PUSH1 0x20 SWAP2 PUSH2 0x210 SWAP2 PUSH2 0x2999 JUMP JUMPDEST CALLVALUE PUSH2 0x229 JUMPI PUSH1 0x20 CALLDATASIZE PUSH1 0x3 NOT ADD SLT PUSH2 0x229 JUMPI PUSH1 0x4 CALLDATALOAD PUSH1 0x0 MSTORE PUSH1 0x9 PUSH1 0x20 MSTORE PUSH1 0x20 PUSH1 0x40 PUSH1 0x0 KECCAK256 SLOAD PUSH1 0x40 MLOAD SWAP1 DUP2 MSTORE RETURN JUMPDEST CALLVALUE PUSH2 0x229 JUMPI PUSH2 0x8A5 CALLDATASIZE PUSH2 0x2C86 JUMP JUMPDEST PUSH2 0x8AD PUSH2 0x304E JUMP JUMPDEST PUSH1 0x3 SLOAD DUP3 DUP3 MUL SWAP1 DUP3 DUP3 DIV DUP5 EQ DUP4 ISZERO OR ISZERO PUSH2 0x5F0 JUMPI LT PUSH2 0x8FE JUMPI PUSH1 0x40 MLOAD SWAP2 DUP3 MSTORE PUSH1 0x20 DUP3 ADD MSTORE PUSH32 0x18E7A4E7F6243E8ED111828EC35DD85BA10A00253B56E9E6E42B07F03D858BCA PUSH1 0x40 PUSH3 0x93A80 TIMESTAMP DIV SWAP3 LOG2 STOP JUMPDEST PUSH1 0x40 MLOAD PUSH3 0x461BCD PUSH1 0xE5 SHL DUP2 MSTORE PUSH1 0x20 PUSH1 0x4 DUP3 ADD MSTORE PUSH1 0x15 PUSH1 0x24 DUP3 ADD MSTORE PUSH21 0x496E73756666696369656E74207472656173757279 PUSH1 0x58 SHL PUSH1 0x44 DUP3 ADD MSTORE PUSH1 0x64 SWAP1 REVERT JUMPDEST PUSH2 0x944 CALLDATASIZE PUSH2 0x2C2B JUMP JUMPDEST SWAP3 SWAP4 SWAP1 SWAP2 PUSH2 0x950 PUSH2 0x30F9 JUMP JUMPDEST PUSH7 0x2386F26FC10000 CALLVALUE LT PUSH2 0xE61 JUMPI PUSH1 0x1 DUP2 LT ISZERO DUP1 PUSH2 0xE56 JUMPI JUMPDEST PUSH2 0x972 SWAP1 PUSH2 0x2EC5 JUMP JUMPDEST PUSH2 0x97B DUP6 PUSH2 0x2B62 JUMP JUMPDEST DUP5 ISZERO PUSH2 0xE21 JUMPI JUMPDEST PUSH2 0x98D PUSH1 0x2 SLOAD PUSH2 0x2D86 JUMP JUMPDEST SWAP4 DUP5 PUSH1 0x2 SSTORE DUP5 PUSH1 0x0 MSTORE PUSH1 0x5 PUSH1 0x20 MSTORE PUSH1 0x40 PUSH1 0x0 KECCAK256 SWAP1 DUP6 DUP3 SSTORE DUP4 MLOAD PUSH1 0x1 PUSH1 0x1 PUSH1 0x40 SHL SUB DUP2 GT PUSH2 0xE0B JUMPI PUSH2 0x9C1 PUSH1 0x1 DUP5 ADD SLOAD PUSH2 0x29C7 JUMP JUMPDEST PUSH1 0x1F DUP2 GT PUSH2 0xDCB JUMPI JUMPDEST POP DUP1 PUSH1 0x20 PUSH1 0x1F DUP3 GT PUSH1 0x1 EQ PUSH2 0xD5E JUMPI PUSH1 0x0 SWAP2 PUSH2 0xD53 JUMPI JUMPDEST POP DUP2 PUSH1 0x1 SHL SWAP2 PUSH1 0x0 NOT SWAP1 PUSH1 0x3 SHL SHR NOT AND OR PUSH1 0x1 DUP4 ADD SSTORE JUMPDEST PUSH1 0x2 DUP3 ADD DUP1 SLOAD PUSH2 0xA07 DUP10 PUSH2 0x2B62 JUMP JUMPDEST PUSH1 0x1 PUSH2 0xFF01 PUSH1 0xA8 SHL SUB NOT AND CALLER PUSH3 0xFF00FF PUSH1 0xA0 SHL NOT AND OR PUSH1 0xA0 DUP10 SWAP1 SHL PUSH1 0xFF PUSH1 0xA0 SHL AND OR PUSH1 0x1 PUSH1 0xB0 SHL OR PUSH1 0xFF PUSH1 0xA8 SHL NOT AND SWAP1 SSTORE CALLVALUE PUSH1 0x3 DUP4 ADD DUP2 SWAP1 SSTORE PUSH1 0x4 DUP4 ADD SSTORE PUSH1 0x5 DUP3 ADD DUP4 SWAP1 SSTORE PUSH1 0x1 PUSH1 0x6 DUP4 ADD SSTORE TIMESTAMP PUSH1 0x7 DUP4 ADD SSTORE DUP1 MLOAD DUP1 PUSH2 0xD1A JUMPI JUMPDEST POP POP PUSH2 0xA6C DUP7 PUSH2 0x2B62 JUMP JUMPDEST PUSH1 0x1 DUP7 EQ DUP1 PUSH2 0xD11 JUMPI JUMPDEST PUSH2 0xCD9 JUMPI JUMPDEST POP PUSH1 0x0 DUP1 MLOAD PUSH1 0x20 PUSH2 0x3D6C DUP4 CODECOPY DUP2 MLOAD SWAP2 MSTORE SWAP3 POP PUSH1 0x40 MLOAD PUSH2 0xA99 DUP2 PUSH2 0x2A01 JUMP JUMPDEST CALLER DUP2 MSTORE PUSH1 0x20 DUP2 ADD PUSH1 0x0 DUP2 MSTORE PUSH2 0xB2B PUSH1 0x4 PUSH1 0x40 DUP5 ADD SWAP4 PUSH1 0x0 DUP6 MSTORE PUSH1 0x60 DUP2 ADD PUSH1 0x0 DUP2 MSTORE PUSH1 0x80 DUP3 ADD SWAP6 PUSH1 0x0 DUP8 MSTORE PUSH1 0xA0 DUP4 ADD SWAP6 PUSH1 0x1 DUP8 MSTORE DUP12 PUSH1 0x0 MSTORE PUSH1 0x6 PUSH1 0x20 MSTORE PUSH1 0x40 PUSH1 0x0 KECCAK256 CALLER PUSH1 0x0 MSTORE PUSH1 0x20 MSTORE PUSH1 0x40 PUSH1 0x0 KECCAK256 SWAP4 PUSH1 0x1 DUP1 PUSH1 0xA0 SHL SUB SWAP1 MLOAD AND PUSH1 0x1 PUSH1 0x1 PUSH1 0x60 SHL SUB PUSH1 0xA0 SHL DUP6 SLOAD AND OR DUP5 SSTORE MLOAD PUSH1 0x1 DUP5 ADD SSTORE MLOAD PUSH1 0x2 DUP4 ADD SSTORE MLOAD PUSH1 0x3 DUP3 ADD SSTORE ADD SWAP3 MLOAD ISZERO ISZERO DUP4 SWAP1 PUSH1 0xFF DUP1 NOT DUP4 SLOAD AND SWAP2 ISZERO ISZERO AND OR SWAP1 SSTORE JUMP JUMPDEST MLOAD ISZERO ISZERO PUSH2 0xFF00 DUP3 SLOAD SWAP2 PUSH1 0x8 SHL AND SWAP1 PUSH2 0xFF00 NOT AND OR SWAP1 SSTORE DUP4 PUSH1 0x0 MSTORE PUSH1 0x7 PUSH1 0x20 MSTORE PUSH2 0xB58 CALLER PUSH1 0x40 PUSH1 0x0 KECCAK256 PUSH2 0x2DDB JUMP JUMPDEST CALLER PUSH1 0x0 MSTORE PUSH1 0x8 PUSH1 0x20 MSTORE PUSH2 0xB6F DUP5 PUSH1 0x40 PUSH1 0x0 KECCAK256 PUSH2 0x2E16 JUMP JUMPDEST PUSH2 0xB78 DUP6 PUSH2 0x2B62 JUMP JUMPDEST DUP5 ISZERO DUP1 PUSH2 0xCCF JUMPI JUMPDEST PUSH2 0xBC0 JUMPI JUMPDEST PUSH2 0xB9A PUSH1 0x40 MLOAD SWAP3 PUSH1 0x80 DUP5 MSTORE PUSH1 0x80 DUP5 ADD SWAP1 PUSH2 0x2B3D JUMP JUMPDEST SWAP5 PUSH2 0xBA4 DUP2 PUSH2 0x2B62 JUMP JUMPDEST PUSH1 0x20 DUP4 ADD MSTORE CALLVALUE PUSH1 0x40 DUP4 ADD MSTORE PUSH1 0x60 DUP3 ADD MSTORE DUP1 CALLER SWAP5 SUB SWAP1 LOG3 PUSH1 0x1 DUP1 SSTORE STOP JUMPDEST PUSH2 0xCC1 PUSH32 0x0 PUSH1 0x40 MLOAD PUSH2 0xBF0 DUP2 PUSH2 0x2A01 JUMP JUMPDEST PUSH1 0x1 DUP1 PUSH1 0xA0 SHL SUB DUP3 AND DUP2 MSTORE PUSH1 0x0 PUSH1 0x20 DUP3 ADD MSTORE PUSH1 0x0 PUSH1 0x40 DUP3 ADD MSTORE PUSH1 0x0 PUSH1 0x60 DUP3 ADD MSTORE PUSH1 0x0 PUSH1 0x80 DUP3 ADD MSTORE PUSH1 0xA0 DUP2 ADD PUSH1 0x1 DUP2 MSTORE DUP8 PUSH1 0x0 MSTORE PUSH1 0x6 PUSH1 0x20 MSTORE PUSH1 0x40 PUSH1 0x0 KECCAK256 PUSH1 0x1 DUP1 PUSH1 0xA0 SHL SUB DUP5 AND PUSH1 0x0 MSTORE PUSH1 0x20 MSTORE PUSH2 0xC99 PUSH1 0x80 PUSH1 0x4 PUSH1 0x40 PUSH1 0x0 KECCAK256 PUSH1 0x1 DUP1 PUSH1 0xA0 SHL SUB DUP7 MLOAD AND PUSH1 0x1 PUSH1 0x1 PUSH1 0x60 SHL SUB PUSH1 0xA0 SHL DUP3 SLOAD AND OR DUP2 SSTORE PUSH1 0x20 DUP7 ADD MLOAD PUSH1 0x1 DUP3 ADD SSTORE PUSH1 0x40 DUP7 ADD MLOAD PUSH1 0x2 DUP3 ADD SSTORE PUSH1 0x60 DUP7 ADD MLOAD PUSH1 0x3 DUP3 ADD SSTORE ADD SWAP4 ADD MLOAD ISZERO ISZERO DUP4 SWAP1 PUSH1 0xFF DUP1 NOT DUP4 SLOAD AND SWAP2 ISZERO ISZERO AND OR SWAP1 SSTORE JUMP JUMPDEST MLOAD DUP2 SLOAD PUSH2 0xFF00 NOT AND SWAP1 ISZERO ISZERO PUSH1 0x8 SHL PUSH2 0xFF00 AND OR SWAP1 SSTORE PUSH1 0x0 DUP7 DUP2 MSTORE PUSH1 0x7 PUSH1 0x20 MSTORE PUSH1 0x40 SWAP1 KECCAK256 PUSH2 0x2DDB JUMP JUMPDEST PUSH2 0xCCA DUP5 PUSH2 0x315D JUMP JUMPDEST PUSH2 0xB85 JUMP JUMPDEST POP PUSH1 0x1 DUP2 EQ PUSH2 0xB80 JUMP JUMPDEST PUSH2 0xE10 SWAP4 DUP5 DUP2 MUL SWAP5 DUP2 DUP7 DIV EQ SWAP1 ISZERO OR ISZERO PUSH2 0x5F0 JUMPI PUSH1 0xA PUSH2 0xD08 PUSH1 0x0 DUP1 MLOAD PUSH1 0x20 PUSH2 0x3D6C DUP4 CODECOPY DUP2 MLOAD SWAP2 MSTORE SWAP6 TIMESTAMP PUSH2 0x2E4B JUMP JUMPDEST SWAP2 ADD SSTORE DUP6 PUSH2 0xA7B JUMP JUMPDEST POP DUP4 ISZERO ISZERO PUSH2 0xA76 JUMP JUMPDEST PUSH2 0xD44 PUSH1 0x20 DUP1 SWAP4 DUP4 PUSH2 0xD37 PUSH1 0x40 MLOAD SWAP6 DUP7 SWAP4 DUP6 DUP6 ADD SWAP9 DUP10 SWAP2 ADD PUSH2 0x2B1A JUMP JUMPDEST DUP2 ADD SUB DUP1 DUP5 MSTORE ADD DUP3 PUSH2 0x2A54 JUMP JUMPDEST MLOAD SWAP1 KECCAK256 PUSH1 0x12 DUP3 ADD SSTORE DUP7 DUP1 PUSH2 0xA61 JUMP JUMPDEST SWAP1 POP DUP6 ADD MLOAD DUP10 PUSH2 0x9E1 JUMP JUMPDEST SWAP2 POP PUSH1 0x1 DUP5 ADD PUSH1 0x0 MSTORE PUSH1 0x20 PUSH1 0x0 KECCAK256 PUSH1 0x0 SWAP3 JUMPDEST PUSH1 0x1F NOT DUP4 AND DUP5 LT PUSH2 0xDB3 JUMPI PUSH1 0x1 SWAP4 POP DUP3 PUSH1 0x1F NOT DUP2 AND LT PUSH2 0xD9A JUMPI JUMPDEST POP POP DUP2 SHL ADD PUSH1 0x1 DUP4 ADD SSTORE PUSH2 0x9F8 JUMP JUMPDEST DUP8 ADD MLOAD PUSH1 0x0 NOT PUSH1 0xF8 DUP5 PUSH1 0x3 SHL AND SHR NOT AND SWAP1 SSTORE DUP10 DUP1 PUSH2 0xD8B JUMP JUMPDEST DUP8 DUP2 ADD MLOAD DUP3 SSTORE PUSH1 0x20 SWAP4 DUP5 ADD SWAP4 PUSH1 0x1 SWAP1 SWAP3 ADD SWAP2 ADD PUSH2 0xD70 JUMP JUMPDEST PUSH2 0xDFB SWAP1 PUSH1 0x1 DUP6 ADD PUSH1 0x0 MSTORE PUSH1 0x20 PUSH1 0x0 KECCAK256 PUSH1 0x1F DUP5 ADD PUSH1 0x5 SHR DUP2 ADD SWAP2 PUSH1 0x20 DUP6 LT PUSH2 0xE01 JUMPI JUMPDEST PUSH1 0x1F ADD PUSH1 0x5 SHR ADD SWAP1 PUSH2 0x2EAE JUMP JUMPDEST DUP9 PUSH2 0x9CA JUMP JUMPDEST SWAP1 SWAP2 POP DUP2 SWAP1 PUSH2 0xDEE JUMP JUMPDEST PUSH4 0x4E487B71 PUSH1 0xE0 SHL PUSH1 0x0 MSTORE PUSH1 0x41 PUSH1 0x4 MSTORE PUSH1 0x24 PUSH1 0x0 REVERT JUMPDEST PUSH2 0xE2D PUSH1 0x1 DUP3 EQ PUSH2 0x2F08 JUMP JUMPDEST PUSH2 0xE51 PUSH1 0x64 PUSH2 0xE3B CALLVALUE PUSH2 0x2E98 JUMP JUMPDEST DIV PUSH2 0xE4A PUSH1 0x4 SLOAD SWAP2 CALLVALUE SWAP1 PUSH2 0x2CDF JUMP JUMPDEST GT ISZERO PUSH2 0x2F60 JUMP JUMPDEST PUSH2 0x982 JUMP JUMPDEST POP PUSH1 0x5 DUP2 GT ISZERO PUSH2 0x969 JUMP JUMPDEST PUSH1 0x40 MLOAD PUSH3 0x461BCD PUSH1 0xE5 SHL DUP2 MSTORE PUSH1 0x20 PUSH1 0x4 DUP3 ADD MSTORE PUSH1 0x1A PUSH1 0x24 DUP3 ADD MSTORE PUSH32 0x426574206D757374206265206174206C656173742031204D4F4E000000000000 PUSH1 0x44 DUP3 ADD MSTORE PUSH1 0x64 SWAP1 REVERT JUMPDEST CALLVALUE PUSH2 0x229 JUMPI PUSH1 0x20 CALLDATASIZE PUSH1 0x3 NOT ADD SLT PUSH2 0x229 JUMPI PUSH1 0xC0 PUSH1 0x1 PUSH1 0x1 PUSH1 0xA0 SHL SUB DUP1 PUSH2 0xECA PUSH2 0x296D JUMP JUMPDEST AND PUSH1 0x0 MSTORE PUSH1 0xA PUSH1 0x20 MSTORE PUSH1 0x40 PUSH1 0x0 KECCAK256 SWAP1 DUP2 SLOAD AND SWAP1 PUSH1 0x1 DUP2 ADD SLOAD SWAP1 PUSH1 0x2 DUP2 ADD SLOAD PUSH1 0x3 DUP3 ADD SLOAD SWAP1 PUSH1 0x5 PUSH1 0x4 DUP5 ADD SLOAD SWAP4 ADD SLOAD SWAP4 PUSH1 0x40 MLOAD SWAP6 DUP7 MSTORE PUSH1 0x20 DUP7 ADD MSTORE PUSH1 0x40 DUP6 ADD MSTORE PUSH1 0x60 DUP5 ADD MSTORE PUSH1 0x80 DUP4 ADD MSTORE PUSH1 0xA0 DUP3 ADD MSTORE RETURN JUMPDEST PUSH1 0x0 CALLDATASIZE PUSH1 0x3 NOT ADD SLT PUSH2 0x229 JUMPI PUSH2 0xF2E PUSH2 0x304E JUMP JUMPDEST CALLVALUE ISZERO PUSH2 0xF75 JUMPI PUSH32 0x6632E6796459F03DD0EB041BEA9EB12E023CDA96E59A02D7F5EE12CC8344A6F4 PUSH1 0x40 PUSH2 0xF63 CALLVALUE PUSH1 0x4 SLOAD PUSH2 0x2E4B JUMP JUMPDEST DUP1 PUSH1 0x4 SSTORE DUP2 MLOAD SWAP1 CALLVALUE DUP3 MSTORE PUSH1 0x20 DUP3 ADD MSTORE LOG1 STOP JUMPDEST PUSH1 0x40 MLOAD PUSH3 0x461BCD PUSH1 0xE5 SHL DUP2 MSTORE PUSH1 0x20 PUSH1 0x4 DUP3 ADD MSTORE PUSH1 0xC PUSH1 0x24 DUP3 ADD MSTORE PUSH12 0x135D5CDD0819195C1BDCDA5D PUSH1 0xA2 SHL PUSH1 0x44 DUP3 ADD MSTORE PUSH1 0x64 SWAP1 REVERT JUMPDEST CALLVALUE PUSH2 0x229 JUMPI PUSH1 0x40 CALLDATASIZE PUSH1 0x3 NOT ADD SLT PUSH2 0x229 JUMPI PUSH1 0xC0 PUSH2 0xFC4 PUSH2 0x2983 JUMP JUMPDEST PUSH1 0x4 CALLDATALOAD PUSH1 0x0 MSTORE PUSH1 0x6 PUSH1 0x20 MSTORE PUSH1 0x40 PUSH1 0x0 KECCAK256 PUSH1 0x1 DUP1 PUSH1 0xA0 SHL SUB DUP1 SWAP3 AND PUSH1 0x0 MSTORE PUSH1 0x20 MSTORE PUSH1 0xFF PUSH1 0x40 PUSH1 0x0 KECCAK256 SWAP2 DUP3 SLOAD AND SWAP2 PUSH1 0x1 DUP2 ADD SLOAD SWAP1 PUSH1 0x2 DUP2 ADD SLOAD PUSH1 0x4 PUSH1 0x3 DUP4 ADD SLOAD SWAP3 ADD SLOAD SWAP3 PUSH1 0x40 MLOAD SWAP6 DUP7 MSTORE PUSH1 0x20 DUP7 ADD MSTORE PUSH1 0x40 DUP6 ADD MSTORE PUSH1 0x60 DUP5 ADD MSTORE DUP2 DUP2 AND ISZERO ISZERO PUSH1 0x80 DUP5 ADD MSTORE PUSH1 0x8 SHR AND ISZERO ISZERO PUSH1 0xA0 DUP3 ADD MSTORE RETURN JUMPDEST CALLVALUE PUSH2 0x229 JUMPI PUSH2 0x1040 CALLDATASIZE PUSH2 0x2C2B JUMP JUMPDEST SWAP3 SWAP4 SWAP1 SWAP2 PUSH2 0x104C PUSH2 0x30F9 JUMP JUMPDEST PUSH1 0x1 DUP2 LT ISZERO DUP1 PUSH2 0x1417 JUMPI JUMPDEST PUSH2 0x1060 SWAP1 PUSH2 0x2EC5 JUMP JUMPDEST PUSH2 0x1069 DUP6 PUSH2 0x2B62 JUMP JUMPDEST DUP5 ISZERO PUSH2 0x1406 JUMPI JUMPDEST PUSH2 0x107B PUSH1 0x2 SLOAD PUSH2 0x2D86 JUMP JUMPDEST SWAP4 DUP5 PUSH1 0x2 SSTORE DUP5 PUSH1 0x0 MSTORE PUSH1 0x5 PUSH1 0x20 MSTORE PUSH1 0x40 PUSH1 0x0 KECCAK256 SWAP1 DUP6 DUP3 SSTORE DUP4 MLOAD PUSH1 0x1 PUSH1 0x1 PUSH1 0x40 SHL SUB DUP2 GT PUSH2 0xE0B JUMPI PUSH2 0x10AF PUSH1 0x1 DUP5 ADD SLOAD PUSH2 0x29C7 JUMP JUMPDEST PUSH1 0x1F DUP2 GT PUSH2 0x13D1 JUMPI JUMPDEST POP DUP1 PUSH1 0x20 PUSH1 0x1F DUP3 GT PUSH1 0x1 EQ PUSH2 0x1364 JUMPI PUSH1 0x0 SWAP2 PUSH2 0x1359 JUMPI JUMPDEST POP DUP2 PUSH1 0x1 SHL SWAP2 PUSH1 0x0 NOT SWAP1 PUSH1 0x3 SHL SHR NOT AND OR PUSH1 0x1 DUP4 ADD SSTORE JUMPDEST PUSH1 0x2 DUP3 ADD DUP1 SLOAD PUSH2 0x10F5 DUP10 PUSH2 0x2B62 JUMP JUMPDEST PUSH1 0xA0 DUP10 SWAP1 SHL PUSH1 0xFF PUSH1 0xA0 SHL AND PUSH1 0x1 PUSH1 0x1 PUSH1 0xB8 SHL SUB NOT SWAP1 SWAP2 AND CALLER PUSH3 0xFFFFFF PUSH1 0xA0 SHL NOT AND OR OR SWAP1 SSTORE PUSH1 0x0 PUSH1 0x3 DUP4 ADD DUP2 SWAP1 SSTORE PUSH1 0x4 DUP4 ADD SSTORE PUSH1 0x5 DUP3 ADD DUP4 SWAP1 SSTORE PUSH1 0x1 PUSH1 0x6 DUP4 ADD SSTORE TIMESTAMP PUSH1 0x7 DUP4 ADD SSTORE DUP1 MLOAD DUP1 PUSH2 0x132D JUMPI JUMPDEST POP POP PUSH2 0x114F DUP7 PUSH2 0x2B62 JUMP JUMPDEST PUSH1 0x1 DUP7 EQ DUP1 PUSH2 0x1324 JUMPI JUMPDEST PUSH2 0x12EC JUMPI JUMPDEST POP PUSH1 0x0 DUP1 MLOAD PUSH1 0x20 PUSH2 0x3D6C DUP4 CODECOPY DUP2 MLOAD SWAP2 MSTORE SWAP3 POP PUSH1 0x40 MLOAD PUSH2 0x117C DUP2 PUSH2 0x2A01 JUMP JUMPDEST CALLER DUP2 MSTORE PUSH1 0x20 DUP2 ADD PUSH1 0x0 DUP2 MSTORE PUSH2 0x120E PUSH1 0x4 PUSH1 0x40 DUP5 ADD SWAP4 PUSH1 0x0 DUP6 MSTORE PUSH1 0x60 DUP2 ADD PUSH1 0x0 DUP2 MSTORE PUSH1 0x80 DUP3 ADD SWAP6 PUSH1 0x0 DUP8 MSTORE PUSH1 0xA0 DUP4 ADD SWAP6 PUSH1 0x1 DUP8 MSTORE DUP12 PUSH1 0x0 MSTORE PUSH1 0x6 PUSH1 0x20 MSTORE PUSH1 0x40 PUSH1 0x0 KECCAK256 CALLER PUSH1 0x0 MSTORE PUSH1 0x20 MSTORE PUSH1 0x40 PUSH1 0x0 KECCAK256 SWAP4 PUSH1 0x1 DUP1 PUSH1 0xA0 SHL SUB SWAP1 MLOAD AND PUSH1 0x1 PUSH1 0x1 PUSH1 0x60 SHL SUB PUSH1 0xA0 SHL DUP6 SLOAD AND OR DUP5 SSTORE MLOAD PUSH1 0x1 DUP5 ADD SSTORE MLOAD PUSH1 0x2 DUP4 ADD SSTORE MLOAD PUSH1 0x3 DUP3 ADD SSTORE ADD SWAP3 MLOAD ISZERO ISZERO DUP4 SWAP1 PUSH1 0xFF DUP1 NOT DUP4 SLOAD AND SWAP2 ISZERO ISZERO AND OR SWAP1 SSTORE JUMP JUMPDEST MLOAD ISZERO ISZERO PUSH2 0xFF00 DUP3 SLOAD SWAP2 PUSH1 0x8 SHL AND SWAP1 PUSH2 0xFF00 NOT AND OR SWAP1 SSTORE DUP4 PUSH1 0x0 MSTORE PUSH1 0x7 PUSH1 0x20 MSTORE PUSH2 0x123B CALLER PUSH1 0x40 PUSH1 0x0 KECCAK256 PUSH2 0x2DDB JUMP JUMPDEST CALLER PUSH1 0x0 MSTORE PUSH1 0x8 PUSH1 0x20 MSTORE PUSH2 0x1252 DUP5 PUSH1 0x40 PUSH1 0x0 KECCAK256 PUSH2 0x2E16 JUMP JUMPDEST PUSH2 0x125B DUP6 PUSH2 0x2B62 JUMP JUMPDEST DUP5 ISZERO DUP1 PUSH2 0x12E2 JUMPI JUMPDEST PUSH2 0x12A4 JUMPI JUMPDEST PUSH2 0x127D PUSH1 0x40 MLOAD SWAP3 PUSH1 0x80 DUP5 MSTORE PUSH1 0x80 DUP5 ADD SWAP1 PUSH2 0x2B3D JUMP JUMPDEST SWAP5 PUSH2 0x1287 DUP2 PUSH2 0x2B62 JUMP JUMPDEST PUSH1 0x20 DUP4 ADD MSTORE PUSH1 0x0 PUSH1 0x40 DUP4 ADD MSTORE PUSH1 0x60 DUP3 ADD MSTORE DUP1 CALLER SWAP5 SUB SWAP1 LOG3 PUSH1 0x1 DUP1 SSTORE STOP JUMPDEST PUSH2 0x12D4 PUSH32 0x0 PUSH1 0x40 MLOAD PUSH2 0xBF0 DUP2 PUSH2 0x2A01 JUMP JUMPDEST PUSH2 0x12DD DUP5 PUSH2 0x315D JUMP JUMPDEST PUSH2 0x1268 JUMP JUMPDEST POP PUSH1 0x1 DUP2 EQ PUSH2 0x1263 JUMP JUMPDEST PUSH2 0xE10 SWAP4 DUP5 DUP2 MUL SWAP5 DUP2 DUP7 DIV EQ SWAP1 ISZERO OR ISZERO PUSH2 0x5F0 JUMPI PUSH1 0xA PUSH2 0x131B PUSH1 0x0 DUP1 MLOAD PUSH1 0x20 PUSH2 0x3D6C DUP4 CODECOPY DUP2 MLOAD SWAP2 MSTORE SWAP6 TIMESTAMP PUSH2 0x2E4B JUMP JUMPDEST SWAP2 ADD SSTORE DUP6 PUSH2 0x115E JUMP JUMPDEST POP DUP4 ISZERO ISZERO PUSH2 0x1159 JUMP JUMPDEST PUSH2 0x134A PUSH1 0x20 DUP1 SWAP4 DUP4 PUSH2 0xD37 PUSH1 0x40 MLOAD SWAP6 DUP7 SWAP4 DUP6 DUP6 ADD SWAP9 DUP10 SWAP2 ADD PUSH2 0x2B1A JUMP JUMPDEST MLOAD SWAP1 KECCAK256 PUSH1 0x12 DUP3 ADD SSTORE DUP7 DUP1 PUSH2 0x1144 JUMP JUMPDEST SWAP1 POP DUP6 ADD MLOAD DUP10 PUSH2 0x10CF JUMP JUMPDEST SWAP2 POP PUSH1 0x1 DUP5 ADD PUSH1 0x0 MSTORE PUSH1 0x20 PUSH1 0x0 KECCAK256 PUSH1 0x0 SWAP3 JUMPDEST PUSH1 0x1F NOT DUP4 AND DUP5 LT PUSH2 0x13B9 JUMPI PUSH1 0x1 SWAP4 POP DUP3 PUSH1 0x1F NOT DUP2 AND LT PUSH2 0x13A0 JUMPI JUMPDEST POP POP DUP2 SHL ADD PUSH1 0x1 DUP4 ADD SSTORE PUSH2 0x10E6 JUMP JUMPDEST DUP8 ADD MLOAD PUSH1 0x0 NOT PUSH1 0xF8 DUP5 PUSH1 0x3 SHL AND SHR NOT AND SWAP1 SSTORE DUP10 DUP1 PUSH2 0x1391 JUMP JUMPDEST DUP8 DUP2 ADD MLOAD DUP3 SSTORE PUSH1 0x20 SWAP4 DUP5 ADD SWAP4 PUSH1 0x1 SWAP1 SWAP3 ADD SWAP2 ADD PUSH2 0x1376 JUMP JUMPDEST PUSH2 0x1400 SWAP1 PUSH1 0x1 DUP6 ADD PUSH1 0x0 MSTORE PUSH1 0x20 PUSH1 0x0 KECCAK256 PUSH1 0x1F DUP5 ADD PUSH1 0x5 SHR DUP2 ADD SWAP2 PUSH1 0x20 DUP6 LT PUSH2 0xE01 JUMPI PUSH1 0x1F ADD PUSH1 0x5 SHR ADD SWAP1 PUSH2 0x2EAE JUMP JUMPDEST DUP9 PUSH2 0x10B8 JUMP JUMPDEST PUSH2 0x1412 PUSH1 0x1 DUP3 EQ PUSH2 0x2F08 JUMP JUMPDEST PUSH2 0x1070 JUMP JUMPDEST POP PUSH1 0x5 DUP2 GT ISZERO PUSH2 0x1057 JUMP JUMPDEST PUSH2 0x2BAD JUMP JUMPDEST CALLVALUE PUSH2 0x229 JUMPI PUSH1 0x20 CALLDATASIZE PUSH1 0x3 NOT ADD SLT PUSH2 0x229 JUMPI PUSH1 0x0 PUSH2 0x2A0 PUSH1 0x40 MLOAD PUSH2 0x1449 DUP2 PUSH2 0x2A1C JUMP JUMPDEST DUP3 DUP2 MSTORE PUSH1 0x60 PUSH1 0x20 DUP3 ADD MSTORE DUP3 PUSH1 0x40 DUP3 ADD MSTORE DUP3 PUSH1 0x60 DUP3 ADD MSTORE DUP3 PUSH1 0x80 DUP3 ADD MSTORE DUP3 PUSH1 0xA0 DUP3 ADD MSTORE DUP3 PUSH1 0xC0 DUP3 ADD MSTORE DUP3 PUSH1 0xE0 DUP3 ADD MSTORE DUP3 PUSH2 0x100 DUP3 ADD MSTORE DUP3 PUSH2 0x120 DUP3 ADD MSTORE DUP3 PUSH2 0x140 DUP3 ADD MSTORE DUP3 PUSH2 0x160 DUP3 ADD MSTORE DUP3 PUSH2 0x180 DUP3 ADD MSTORE DUP3 PUSH2 0x1A0 DUP3 ADD MSTORE DUP3 PUSH2 0x1C0 DUP3 ADD MSTORE DUP3 PUSH2 0x1E0 DUP3 ADD MSTORE DUP3 PUSH2 0x200 DUP3 ADD MSTORE DUP3 PUSH2 0x220 DUP3 ADD MSTORE DUP3 PUSH2 0x240 DUP3 ADD MSTORE PUSH1 0x60 PUSH2 0x260 DUP3 ADD MSTORE DUP3 PUSH2 0x280 DUP3 ADD MSTORE ADD MSTORE PUSH1 0x4 CALLDATALOAD PUSH1 0x0 MSTORE PUSH1 0x5 PUSH1 0x20 MSTORE PUSH1 0x40 PUSH1 0x0 KECCAK256 PUSH1 0x40 MLOAD SWAP1 PUSH2 0x14F2 DUP3 PUSH2 0x2A1C JUMP JUMPDEST DUP1 SLOAD DUP3 MSTORE PUSH2 0x1502 PUSH1 0x1 DUP3 ADD PUSH2 0x2A75 JUMP JUMPDEST PUSH1 0x20 DUP4 ADD MSTORE PUSH1 0x2 DUP2 ADD SLOAD PUSH1 0x1 PUSH1 0x1 PUSH1 0xA0 SHL SUB DUP2 AND PUSH1 0x40 DUP5 ADD MSTORE SWAP1 PUSH1 0xA0 DUP3 SWAP1 SHR PUSH1 0xFF AND PUSH2 0x152D DUP2 PUSH2 0x2B62 JUMP JUMPDEST PUSH1 0x60 DUP5 ADD MSTORE PUSH1 0x6 PUSH1 0xFF DUP4 PUSH1 0xA8 SHR AND LT ISZERO PUSH2 0x7CF JUMPI PUSH1 0xFF DUP3 DUP2 PUSH1 0x12 SWAP5 PUSH1 0xA8 SHR AND PUSH1 0x80 DUP7 ADD MSTORE PUSH2 0x155F DUP3 DUP3 PUSH1 0xB0 SHR AND PUSH2 0x2B62 JUMP JUMPDEST PUSH1 0xB0 SHR AND PUSH1 0xA0 DUP5 ADD MSTORE PUSH1 0x3 DUP2 ADD SLOAD PUSH1 0xC0 DUP5 ADD MSTORE PUSH1 0x4 DUP2 ADD SLOAD PUSH1 0xE0 DUP5 ADD MSTORE PUSH1 0x5 DUP2 ADD SLOAD PUSH2 0x100 DUP5 ADD MSTORE PUSH1 0x6 DUP2 ADD SLOAD PUSH2 0x120 DUP5 ADD MSTORE PUSH1 0x7 DUP2 ADD SLOAD PUSH2 0x140 DUP5 ADD MSTORE PUSH1 0x8 DUP2 ADD SLOAD PUSH2 0x160 DUP5 ADD MSTORE PUSH1 0x9 DUP2 ADD SLOAD PUSH2 0x180 DUP5 ADD MSTORE PUSH1 0xA DUP2 ADD SLOAD PUSH2 0x1A0 DUP5 ADD MSTORE PUSH1 0xB DUP2 ADD SLOAD PUSH1 0x1 PUSH1 0x1 PUSH1 0xA0 SHL SUB AND PUSH2 0x1C0 DUP5 ADD MSTORE PUSH1 0xC DUP2 ADD SLOAD PUSH2 0x1E0 DUP5 ADD MSTORE PUSH1 0xD DUP2 ADD SLOAD PUSH2 0x200 DUP5 ADD MSTORE PUSH1 0xE DUP2 ADD SLOAD PUSH2 0x220 DUP5 ADD MSTORE PUSH1 0xF DUP2 ADD SLOAD PUSH2 0x240 DUP5 ADD MSTORE PUSH2 0x160A PUSH1 0x10 DUP3 ADD PUSH2 0x2CEC JUMP JUMPDEST PUSH2 0x260 DUP5 ADD MSTORE PUSH1 0xFF PUSH1 0x11 DUP3 ADD SLOAD AND ISZERO ISZERO PUSH2 0x280 DUP5 ADD MSTORE ADD SLOAD PUSH2 0x2A0 DUP3 ADD MSTORE PUSH1 0x40 MLOAD DUP1 SWAP2 PUSH1 0x20 DUP3 MSTORE DUP1 MLOAD PUSH1 0x20 DUP4 ADD MSTORE PUSH2 0x2A0 PUSH2 0x175F PUSH2 0x1659 PUSH1 0x20 DUP5 ADD MLOAD PUSH2 0x2C0 PUSH1 0x40 DUP8 ADD MSTORE PUSH2 0x2E0 DUP7 ADD SWAP1 PUSH2 0x2B3D JUMP JUMPDEST PUSH1 0x40 DUP5 ADD MLOAD PUSH1 0x1 PUSH1 0x1 PUSH1 0xA0 SHL SUB AND PUSH1 0x60 DUP7 DUP2 ADD SWAP2 SWAP1 SWAP2 MSTORE DUP5 ADD MLOAD PUSH2 0x167C DUP2 PUSH2 0x2B62 JUMP JUMPDEST PUSH1 0x80 DUP7 ADD MSTORE PUSH2 0x1693 PUSH1 0x80 DUP6 ADD MLOAD PUSH1 0xA0 DUP8 ADD SWAP1 PUSH2 0x2B6C JUMP JUMPDEST PUSH1 0xA0 DUP5 ADD MLOAD PUSH2 0x16A1 DUP2 PUSH2 0x2B62 JUMP JUMPDEST PUSH1 0xC0 DUP7 ADD MSTORE PUSH1 0xC0 DUP5 ADD MLOAD PUSH1 0xE0 DUP7 ADD MSTORE PUSH1 0xE0 DUP5 ADD MLOAD PUSH2 0x100 DUP7 ADD MSTORE PUSH2 0x100 DUP5 ADD MLOAD PUSH2 0x120 DUP7 ADD MSTORE PUSH2 0x120 DUP5 ADD MLOAD PUSH2 0x140 DUP7 ADD MSTORE PUSH2 0x140 DUP5 ADD MLOAD PUSH2 0x160 DUP7 ADD MSTORE PUSH2 0x160 DUP5 ADD MLOAD PUSH2 0x180 DUP7 ADD MSTORE PUSH2 0x180 DUP5 ADD MLOAD PUSH2 0x1A0 DUP7 ADD MSTORE PUSH2 0x1A0 DUP5 ADD MLOAD PUSH2 0x1C0 DUP7 ADD MSTORE PUSH1 0x1 DUP1 PUSH1 0xA0 SHL SUB PUSH2 0x1C0 DUP6 ADD MLOAD AND PUSH2 0x1E0 DUP7 ADD MSTORE PUSH2 0x1E0 DUP5 ADD MLOAD PUSH2 0x200 DUP7 ADD MSTORE PUSH2 0x200 DUP5 ADD MLOAD PUSH2 0x220 DUP7 ADD MSTORE PUSH2 0x220 DUP5 ADD MLOAD PUSH2 0x240 DUP7 ADD MSTORE PUSH2 0x240 DUP5 ADD MLOAD PUSH2 0x260 DUP7 ADD MSTORE PUSH2 0x260 DUP5 ADD MLOAD PUSH1 0x1F NOT DUP7 DUP4 SUB ADD PUSH2 0x280 DUP8 ADD MSTORE PUSH2 0x2B79 JUMP JUMPDEST SWAP2 PUSH2 0x280 DUP2 ADD MLOAD ISZERO ISZERO DUP3 DUP6 ADD MSTORE ADD MLOAD PUSH2 0x2C0 DUP4 ADD MSTORE SUB SWAP1 RETURN JUMPDEST CALLVALUE PUSH2 0x229 JUMPI PUSH1 0x20 DUP1 PUSH1 0x3 NOT CALLDATASIZE ADD SLT PUSH2 0x229 JUMPI PUSH1 0x4 CALLDATALOAD PUSH2 0x1795 PUSH2 0x30F9 JUMP JUMPDEST PUSH32 0x0 PUSH1 0x1 PUSH1 0x1 PUSH1 0xA0 SHL SUB AND SWAP2 CALLER DUP4 SWAP1 SUB PUSH2 0x19E2 JUMPI DUP2 PUSH1 0x0 MSTORE PUSH1 0x9 DUP2 MSTORE PUSH1 0x40 PUSH1 0x0 KECCAK256 SLOAD SWAP1 DUP2 ISZERO PUSH2 0x19A9 JUMPI DUP2 PUSH1 0x0 MSTORE PUSH1 0x5 DUP2 MSTORE PUSH1 0x40 PUSH1 0x0 KECCAK256 PUSH1 0x11 DUP2 ADD DUP1 SLOAD SWAP6 PUSH1 0xFF DUP8 AND PUSH2 0x1970 JUMPI SWAP1 PUSH1 0x60 PUSH1 0x24 SWAP4 SWAP3 PUSH1 0x40 MLOAD SWAP5 DUP6 DUP1 SWAP3 PUSH4 0x2D8CA01 PUSH1 0xE1 SHL DUP3 MSTORE DUP11 PUSH1 0x4 DUP4 ADD MSTORE GAS STATICCALL DUP1 ISZERO PUSH2 0x1964 JUMPI PUSH1 0x0 SWAP4 PUSH1 0x0 SWAP2 PUSH2 0x191E JUMPI JUMPDEST POP PUSH2 0x1834 SWAP1 PUSH2 0x2E58 JUMP JUMPDEST DUP3 PUSH1 0xF DUP4 ADD SSTORE PUSH1 0x1 DUP1 SWAP8 PUSH1 0xFF NOT AND OR SWAP1 SSTORE PUSH2 0x184E DUP3 PUSH2 0x349B JUMP JUMPDEST SWAP6 PUSH1 0x10 DUP3 ADD DUP8 MLOAD SWAP1 PUSH1 0x1 PUSH1 0x1 PUSH1 0x40 SHL SUB DUP3 GT PUSH2 0xE0B JUMPI PUSH1 0x1 PUSH1 0x40 SHL DUP3 GT PUSH2 0xE0B JUMPI DUP1 SLOAD DUP3 DUP3 SSTORE DUP1 DUP4 LT PUSH2 0x1901 JUMPI JUMPDEST POP DUP6 DUP10 ADD SWAP1 PUSH1 0x0 MSTORE DUP6 PUSH1 0x0 KECCAK256 PUSH1 0x0 JUMPDEST DUP4 DUP2 LT PUSH2 0x18F0 JUMPI POP DUP9 DUP9 PUSH32 0x76870250771FE5BCC9B4EC83F635583A81B6D2E870819E4134563AB8BCA7800E DUP10 DUP10 PUSH2 0x18E7 DUP16 PUSH1 0x2 DUP13 ADD PUSH1 0x1 PUSH1 0xA9 SHL PUSH1 0xFF PUSH1 0xA8 SHL NOT DUP3 SLOAD AND OR SWAP1 SSTORE PUSH1 0x40 DUP1 MLOAD SWAP5 DUP6 SWAP5 DUP6 MSTORE DUP5 ADD MSTORE PUSH1 0x40 DUP4 ADD SWAP1 PUSH2 0x2B79 JUMP JUMPDEST SUB SWAP1 LOG3 PUSH1 0x1 DUP1 SSTORE STOP JUMPDEST DUP3 MLOAD DUP3 DUP3 ADD SSTORE SWAP2 DUP8 ADD SWAP2 DUP5 ADD PUSH2 0x188B JUMP JUMPDEST PUSH2 0x1918 SWAP1 DUP3 PUSH1 0x0 MSTORE DUP4 DUP9 PUSH1 0x0 KECCAK256 SWAP2 DUP3 ADD SWAP2 ADD PUSH2 0x2EAE JUMP JUMPDEST DUP10 PUSH2 0x187C JUMP JUMPDEST SWAP4 POP POP PUSH1 0x60 DUP4 RETURNDATASIZE PUSH1 0x60 GT PUSH2 0x195C JUMPI JUMPDEST DUP2 PUSH2 0x193A PUSH1 0x60 SWAP4 DUP4 PUSH2 0x2A54 JUMP JUMPDEST DUP2 ADD SUB SLT PUSH2 0x229 JUMPI PUSH1 0x40 DUP4 MLOAD SWAP4 ADD MLOAD SWAP3 DUP4 ISZERO ISZERO DUP5 SUB PUSH2 0x229 JUMPI SWAP3 PUSH2 0x1834 PUSH2 0x182A JUMP JUMPDEST RETURNDATASIZE SWAP2 POP PUSH2 0x192D JUMP JUMPDEST PUSH1 0x40 MLOAD RETURNDATASIZE PUSH1 0x0 DUP3 RETURNDATACOPY RETURNDATASIZE SWAP1 REVERT JUMPDEST PUSH1 0x40 MLOAD PUSH3 0x461BCD PUSH1 0xE5 SHL DUP2 MSTORE PUSH1 0x4 DUP2 ADD DUP6 SWAP1 MSTORE PUSH1 0x11 PUSH1 0x24 DUP3 ADD MSTORE PUSH17 0x105B1C9958591E48199D5B199A5B1B1959 PUSH1 0x7A SHL PUSH1 0x44 DUP3 ADD MSTORE PUSH1 0x64 SWAP1 REVERT JUMPDEST PUSH1 0x64 SWAP1 PUSH1 0x40 MLOAD SWAP1 PUSH3 0x461BCD PUSH1 0xE5 SHL DUP3 MSTORE PUSH1 0x4 DUP3 ADD MSTORE PUSH1 0x12 PUSH1 0x24 DUP3 ADD MSTORE PUSH18 0x125B9D985B1A59081C995C5D595CDD081251 PUSH1 0x72 SHL PUSH1 0x44 DUP3 ADD MSTORE REVERT JUMPDEST PUSH1 0x64 SWAP1 PUSH1 0x40 MLOAD SWAP1 PUSH3 0x461BCD PUSH1 0xE5 SHL DUP3 MSTORE PUSH1 0x4 DUP3 ADD MSTORE PUSH1 0x19 PUSH1 0x24 DUP3 ADD MSTORE PUSH32 0x4F6E6C792050797468205652462063616E2066756C66696C6C00000000000000 PUSH1 0x44 DUP3 ADD MSTORE REVERT JUMPDEST CALLVALUE PUSH2 0x229 JUMPI PUSH1 0x0 CALLDATASIZE PUSH1 0x3 NOT ADD SLT PUSH2 0x229 JUMPI PUSH1 0x0 SLOAD PUSH1 0x40 MLOAD PUSH1 0x1 PUSH1 0x1 PUSH1 0xA0 SHL SUB SWAP1 SWAP2 AND DUP2 MSTORE PUSH1 0x20 SWAP1 RETURN JUMPDEST CALLVALUE PUSH2 0x229 JUMPI PUSH1 0x0 CALLDATASIZE PUSH1 0x3 NOT ADD SLT PUSH2 0x229 JUMPI PUSH1 0x20 PUSH1 0x40 MLOAD PUSH1 0x1 DUP2 MSTORE RETURN JUMPDEST CALLVALUE PUSH2 0x229 JUMPI PUSH1 0x20 CALLDATASIZE PUSH1 0x3 NOT ADD SLT PUSH2 0x229 JUMPI PUSH1 0x4 CALLDATALOAD PUSH2 0x1A87 PUSH2 0x304E JUMP JUMPDEST DUP1 PUSH1 0x0 MSTORE PUSH1 0x5 PUSH1 0x20 MSTORE PUSH1 0x40 PUSH1 0x0 KECCAK256 SWAP1 PUSH1 0x2 DUP3 ADD DUP1 SLOAD SWAP3 PUSH1 0xFF DUP5 PUSH1 0xA8 SHR AND PUSH1 0x6 DUP2 LT ISZERO PUSH2 0x7CF JUMPI PUSH1 0x1 SUB PUSH2 0x1B9B JUMPI PUSH1 0x8 DUP2 ADD SLOAD PUSH2 0xE10 DUP2 ADD DUP1 SWAP2 GT PUSH2 0x5F0 JUMPI TIMESTAMP LT PUSH2 0x1B56 JUMPI PUSH1 0x11 ADD SLOAD PUSH1 0xFF AND PUSH2 0x1B19 JUMPI PUSH1 0xFF PUSH1 0xA8 SHL NOT SWAP1 SWAP3 AND PUSH1 0x5 PUSH1 0xA8 SHL OR SWAP1 SWAP2 SSTORE PUSH2 0x1B17 SWAP1 DUP1 PUSH32 0x6735B98D5D75EB6A72FF7CBD805FC91D5EE18E1B5D11043B0E649B6F22C9CAB8 PUSH1 0x0 DUP1 LOG2 PUSH2 0x33F7 JUMP JUMPDEST STOP JUMPDEST PUSH1 0x40 MLOAD PUSH3 0x461BCD PUSH1 0xE5 SHL DUP2 MSTORE PUSH1 0x20 PUSH1 0x4 DUP3 ADD MSTORE PUSH1 0x15 PUSH1 0x24 DUP3 ADD MSTORE PUSH21 0x15949188185B1C9958591E48199D5B199A5B1B1959 PUSH1 0x5A SHL PUSH1 0x44 DUP3 ADD MSTORE PUSH1 0x64 SWAP1 REVERT JUMPDEST PUSH1 0x40 MLOAD PUSH3 0x461BCD PUSH1 0xE5 SHL DUP2 MSTORE PUSH1 0x20 PUSH1 0x4 DUP3 ADD MSTORE PUSH1 0x17 PUSH1 0x24 DUP3 ADD MSTORE PUSH32 0x5652462074696D656F7574206E6F742072656163686564000000000000000000 PUSH1 0x44 DUP3 ADD MSTORE PUSH1 0x64 SWAP1 REVERT JUMPDEST PUSH1 0x40 MLOAD PUSH3 0x461BCD PUSH1 0xE5 SHL DUP2 MSTORE PUSH1 0x20 PUSH1 0x4 DUP3 ADD MSTORE PUSH1 0x14 PUSH1 0x24 DUP3 ADD MSTORE PUSH20 0x13DB9B1E48199BDC88159491881D1A5B595BDD5D PUSH1 0x62 SHL PUSH1 0x44 DUP3 ADD MSTORE PUSH1 0x64 SWAP1 REVERT JUMPDEST CALLVALUE PUSH2 0x229 JUMPI PUSH1 0x0 CALLDATASIZE PUSH1 0x3 NOT ADD SLT PUSH2 0x229 JUMPI PUSH1 0x40 MLOAD PUSH32 0x0 PUSH1 0x1 PUSH1 0x1 PUSH1 0xA0 SHL SUB AND DUP2 MSTORE PUSH1 0x20 SWAP1 RETURN JUMPDEST CALLVALUE PUSH2 0x229 JUMPI PUSH1 0x0 CALLDATASIZE PUSH1 0x3 NOT ADD SLT PUSH2 0x229 JUMPI PUSH2 0x1C35 PUSH2 0x304E JUMP JUMPDEST PUSH1 0x0 DUP1 SLOAD PUSH1 0x1 PUSH1 0x1 PUSH1 0xA0 SHL SUB NOT DUP2 AND DUP3 SSTORE PUSH1 0x1 PUSH1 0x1 PUSH1 0xA0 SHL SUB AND PUSH32 0x8BE0079C531659141344CD1FD0A4F28419497F9722A3DAAFE3B4186F6B6457E0 DUP3 DUP1 LOG3 STOP JUMPDEST CALLVALUE PUSH2 0x229 JUMPI PUSH1 0x20 CALLDATASIZE PUSH1 0x3 NOT ADD SLT PUSH2 0x229 JUMPI PUSH1 0x4 CALLDATALOAD PUSH2 0x1C91 PUSH2 0x30F9 JUMP JUMPDEST PUSH1 0x0 DUP2 DUP2 MSTORE PUSH1 0x5 PUSH1 0x20 MSTORE PUSH1 0x40 SWAP1 KECCAK256 PUSH1 0x2 ADD DUP1 SLOAD CALLER PUSH1 0x1 PUSH1 0x1 PUSH1 0xA0 SHL SUB DUP3 AND SUB PUSH2 0x1D42 JUMPI PUSH1 0xFF DUP2 PUSH1 0xA8 SHR AND PUSH1 0x6 DUP2 LT ISZERO PUSH2 0x7CF JUMPI PUSH2 0x1D0D JUMPI PUSH1 0xFF PUSH1 0xA8 SHL NOT AND PUSH1 0x1 PUSH1 0xAA SHL OR SWAP1 SSTORE PUSH2 0x1CE0 DUP2 PUSH2 0x33F7 JUMP JUMPDEST CALLER SWAP1 PUSH32 0x58F64E02B3A6D2A3BD28B7700A0A0D6699545BCB55BF917AC0FF670F3A509EFB PUSH1 0x0 DUP1 LOG3 PUSH1 0x1 DUP1 SSTORE STOP JUMPDEST PUSH1 0x40 MLOAD PUSH3 0x461BCD PUSH1 0xE5 SHL DUP2 MSTORE PUSH1 0x20 PUSH1 0x4 DUP3 ADD MSTORE PUSH1 0xD PUSH1 0x24 DUP3 ADD MSTORE PUSH13 0x10D85B9B9BDD0818D85B98D95B PUSH1 0x9A SHL PUSH1 0x44 DUP3 ADD MSTORE PUSH1 0x64 SWAP1 REVERT JUMPDEST PUSH1 0x40 MLOAD PUSH3 0x461BCD PUSH1 0xE5 SHL DUP2 MSTORE PUSH1 0x20 PUSH1 0x4 DUP3 ADD MSTORE PUSH1 0x17 PUSH1 0x24 DUP3 ADD MSTORE PUSH32 0x4F6E6C792063726561746F722063616E2063616E63656C000000000000000000 PUSH1 0x44 DUP3 ADD MSTORE PUSH1 0x64 SWAP1 REVERT JUMPDEST PUSH1 0x40 CALLDATASIZE PUSH1 0x3 NOT ADD SLT PUSH2 0x229 JUMPI PUSH1 0x24 PUSH1 0x4 CALLDATALOAD DUP2 CALLDATALOAD PUSH1 0x1 PUSH1 0x1 PUSH1 0x40 SHL SUB DUP2 GT PUSH2 0x229 JUMPI PUSH2 0x1DB6 SWAP1 CALLDATASIZE SWAP1 PUSH1 0x4 ADD PUSH2 0x2BE4 JUMP JUMPDEST SWAP2 PUSH2 0x1DBF PUSH2 0x30F9 JUMP JUMPDEST DUP2 PUSH1 0x0 MSTORE PUSH1 0x20 SWAP1 PUSH1 0x5 DUP3 MSTORE PUSH1 0x40 PUSH1 0x0 KECCAK256 PUSH1 0x2 DUP2 ADD SWAP1 DUP2 SLOAD SWAP2 PUSH1 0xFF DUP4 PUSH1 0xA8 SHR AND PUSH1 0x6 DUP2 LT ISZERO PUSH2 0x2150 JUMPI PUSH2 0x2117 JUMPI PUSH1 0x6 DUP3 ADD SWAP4 DUP5 SLOAD SWAP4 PUSH1 0x5 DUP5 ADD SWAP5 DUP6 SLOAD GT ISZERO PUSH2 0x20E4 JUMPI DUP8 PUSH1 0x0 MSTORE PUSH1 0x6 DUP8 MSTORE PUSH1 0x40 PUSH1 0x0 KECCAK256 CALLER PUSH1 0x0 MSTORE DUP8 MSTORE PUSH1 0xFF PUSH1 0x4 PUSH1 0x40 PUSH1 0x0 KECCAK256 ADD SLOAD PUSH1 0x8 SHR AND PUSH2 0x20AF JUMPI PUSH1 0xB0 SHR PUSH1 0xFF AND SWAP8 PUSH2 0x1E36 DUP10 PUSH2 0x2B62 JUMP JUMPDEST PUSH1 0x1 SWAP9 DUP10 SUB PUSH2 0x205F JUMPI PUSH1 0x3 DUP5 ADD SLOAD CALLVALUE LT PUSH2 0x2028 JUMPI SWAP1 DUP9 SWAP3 SWAP2 JUMPDEST PUSH1 0x12 DUP6 ADD SLOAD SWAP1 DUP2 PUSH2 0x1FBD JUMPI JUMPDEST POP POP POP PUSH1 0xFF SWAP1 DUP7 DUP9 PUSH2 0x1EFB PUSH1 0x4 PUSH1 0x40 MLOAD PUSH2 0x1E74 DUP2 PUSH2 0x2A01 JUMP JUMPDEST CALLER DUP2 MSTORE DUP5 DUP2 ADD PUSH1 0x0 DUP2 MSTORE PUSH1 0x40 DUP3 ADD PUSH1 0x0 DUP2 MSTORE PUSH1 0x60 DUP4 ADD SWAP2 PUSH1 0x0 DUP4 MSTORE PUSH1 0x80 DUP5 ADD SWAP8 PUSH1 0x0 DUP10 MSTORE PUSH1 0xA0 DUP6 ADD SWAP8 DUP13 DUP10 MSTORE PUSH1 0x0 MSTORE PUSH1 0x6 DUP2 MSTORE PUSH1 0x40 PUSH1 0x0 KECCAK256 SWAP1 CALLER PUSH1 0x0 MSTORE MSTORE PUSH1 0x40 PUSH1 0x0 KECCAK256 SWAP4 PUSH1 0x1 DUP1 PUSH1 0xA0 SHL SUB SWAP1 MLOAD AND PUSH1 0x1 PUSH1 0x1 PUSH1 0x60 SHL SUB PUSH1 0xA0 SHL DUP6 SLOAD AND OR DUP5 SSTORE MLOAD DUP11 DUP5 ADD SSTORE MLOAD PUSH1 0x2 DUP4 ADD SSTORE MLOAD PUSH1 0x3 DUP3 ADD SSTORE ADD SWAP3 MLOAD ISZERO ISZERO DUP4 SWAP1 PUSH1 0xFF DUP1 NOT DUP4 SLOAD AND SWAP2 ISZERO ISZERO AND OR SWAP1 SSTORE JUMP JUMPDEST MLOAD ISZERO ISZERO PUSH2 0xFF00 DUP3 SLOAD SWAP2 PUSH1 0x8 SHL AND SWAP1 PUSH2 0xFF00 NOT AND OR SWAP1 SSTORE DUP8 PUSH1 0x0 MSTORE PUSH1 0x7 DUP8 MSTORE PUSH2 0x1F27 CALLER PUSH1 0x40 PUSH1 0x0 KECCAK256 PUSH2 0x2DDB JUMP JUMPDEST CALLER PUSH1 0x0 MSTORE PUSH1 0x8 DUP8 MSTORE PUSH2 0x1F3D DUP9 PUSH1 0x40 PUSH1 0x0 KECCAK256 PUSH2 0x2E16 JUMP JUMPDEST PUSH2 0x1F47 DUP7 SLOAD PUSH2 0x2D86 JUMP JUMPDEST DUP1 SWAP7 SSTORE SLOAD PUSH1 0xB0 SHR AND PUSH2 0x1F58 DUP2 PUSH2 0x2B62 JUMP JUMPDEST EQ PUSH2 0x1FA7 JUMPI JUMPDEST POP SLOAD SWAP2 DUP3 PUSH1 0x40 MLOAD SWAP2 DUP4 DUP4 MSTORE DUP3 ADD MSTORE DUP4 PUSH32 0x1106C14AAB1F44B1577FD2F42206EE286F0FBF82C72942BBCDC9028AF44216FF PUSH1 0x40 CALLER SWAP4 LOG3 LT ISZERO PUSH2 0x1F9E JUMPI POP DUP1 SSTORE STOP JUMPDEST PUSH2 0x469 SWAP1 PUSH2 0x315D JUMP JUMPDEST PUSH1 0x4 ADD PUSH2 0x1FB5 CALLVALUE DUP3 SLOAD PUSH2 0x2E4B JUMP JUMPDEST SWAP1 SSTORE DUP6 PUSH2 0x1F5E JUMP JUMPDEST SWAP1 SWAP2 SWAP3 SWAP4 POP PUSH1 0x40 MLOAD PUSH2 0x1FDE DUP10 DUP3 DUP2 PUSH2 0xD37 DUP2 DUP4 ADD SWAP7 DUP8 DUP2 MLOAD SWAP4 DUP5 SWAP3 ADD PUSH2 0x2B1A JUMP JUMPDEST MLOAD SWAP1 KECCAK256 SUB PUSH2 0x1FF0 JUMPI SWAP1 DUP2 DUP1 DUP10 SWAP4 PUSH2 0x1E5B JUMP JUMPDEST DUP6 PUSH1 0x12 PUSH1 0x64 SWAP3 PUSH1 0x40 MLOAD SWAP3 PUSH3 0x461BCD PUSH1 0xE5 SHL DUP5 MSTORE PUSH1 0x4 DUP5 ADD MSTORE DUP3 ADD MSTORE PUSH18 0x125B98DBDC9C9958DD081C185CDCDDDBDC99 PUSH1 0x72 SHL PUSH1 0x44 DUP3 ADD MSTORE REVERT JUMPDEST PUSH1 0x40 MLOAD PUSH3 0x461BCD PUSH1 0xE5 SHL DUP2 MSTORE PUSH1 0x4 DUP2 ADD DUP9 SWAP1 MSTORE PUSH1 0x10 DUP2 DUP5 ADD MSTORE PUSH16 0x125B9CDD59999A58DA595B9D0818995D PUSH1 0x82 SHL PUSH1 0x44 DUP3 ADD MSTORE PUSH1 0x64 SWAP1 REVERT JUMPDEST CALLVALUE PUSH2 0x206D JUMPI SWAP1 DUP9 SWAP3 SWAP2 PUSH2 0x1E4F JUMP JUMPDEST PUSH1 0x64 DUP3 DUP9 PUSH1 0x40 MLOAD SWAP2 PUSH3 0x461BCD PUSH1 0xE5 SHL DUP4 MSTORE DUP2 PUSH1 0x4 DUP5 ADD MSTORE DUP3 ADD MSTORE PUSH32 0x467265652067616D657320646F6E27742072657175697265207061796D656E74 PUSH1 0x44 DUP3 ADD MSTORE REVERT JUMPDEST PUSH1 0x40 MLOAD PUSH3 0x461BCD PUSH1 0xE5 SHL DUP2 MSTORE PUSH1 0x4 DUP2 ADD DUP9 SWAP1 MSTORE PUSH1 0xE DUP2 DUP5 ADD MSTORE PUSH14 0x105B1C9958591E481A9BDA5B9959 PUSH1 0x92 SHL PUSH1 0x44 DUP3 ADD MSTORE PUSH1 0x64 SWAP1 REVERT JUMPDEST PUSH1 0x40 MLOAD PUSH3 0x461BCD PUSH1 0xE5 SHL DUP2 MSTORE PUSH1 0x4 DUP2 ADD DUP9 SWAP1 MSTORE PUSH1 0xC DUP2 DUP5 ADD MSTORE PUSH12 0x11D85B59481A5CC8199D5B1B PUSH1 0xA2 SHL PUSH1 0x44 DUP3 ADD MSTORE PUSH1 0x64 SWAP1 REVERT JUMPDEST PUSH1 0x40 MLOAD PUSH3 0x461BCD PUSH1 0xE5 SHL DUP2 MSTORE PUSH1 0x4 DUP2 ADD DUP7 SWAP1 MSTORE PUSH1 0x12 DUP2 DUP7 ADD MSTORE PUSH18 0x47616D65206E6F7420617661696C61626C65 PUSH1 0x70 SHL PUSH1 0x44 DUP3 ADD MSTORE PUSH1 0x64 SWAP1 REVERT JUMPDEST DUP5 PUSH4 0x4E487B71 PUSH1 0xE0 SHL PUSH1 0x0 MSTORE PUSH1 0x21 PUSH1 0x4 MSTORE PUSH1 0x0 REVERT JUMPDEST CALLVALUE PUSH2 0x229 JUMPI PUSH1 0x0 CALLDATASIZE PUSH1 0x3 NOT ADD SLT PUSH2 0x229 JUMPI PUSH1 0x20 PUSH1 0x4 SLOAD PUSH1 0x40 MLOAD SWAP1 DUP2 MSTORE RETURN JUMPDEST CALLVALUE PUSH2 0x229 JUMPI PUSH1 0x0 CALLDATASIZE PUSH1 0x3 NOT ADD SLT PUSH2 0x229 JUMPI PUSH1 0x20 PUSH1 0x40 MLOAD PUSH7 0x2386F26FC10000 DUP2 MSTORE RETURN JUMPDEST CALLVALUE PUSH2 0x229 JUMPI PUSH1 0x40 CALLDATASIZE PUSH1 0x3 NOT ADD SLT PUSH2 0x229 JUMPI PUSH1 0xC0 PUSH2 0x21C0 PUSH2 0x2983 JUMP JUMPDEST PUSH2 0x21C8 PUSH2 0x2DA9 JUMP JUMPDEST POP PUSH1 0x4 CALLDATALOAD PUSH1 0x0 MSTORE PUSH1 0x6 PUSH1 0x20 MSTORE PUSH1 0x40 PUSH1 0x0 KECCAK256 PUSH1 0x1 DUP1 PUSH1 0xA0 SHL SUB DUP1 SWAP3 AND PUSH1 0x0 MSTORE PUSH1 0x20 MSTORE PUSH1 0x40 PUSH1 0x0 KECCAK256 PUSH1 0x40 MLOAD SWAP2 PUSH2 0x21FB DUP4 PUSH2 0x2A01 JUMP JUMPDEST DUP2 SLOAD AND SWAP2 DUP3 DUP2 MSTORE PUSH1 0x1 DUP3 ADD SLOAD SWAP2 PUSH1 0x20 DUP3 ADD SWAP3 DUP4 MSTORE PUSH1 0x2 DUP2 ADD SLOAD PUSH1 0x40 DUP4 ADD SWAP1 DUP2 MSTORE PUSH1 0x4 PUSH1 0x3 DUP4 ADD SLOAD SWAP3 PUSH1 0x60 DUP6 ADD SWAP4 DUP5 MSTORE ADD SLOAD SWAP4 PUSH1 0xFF PUSH1 0xA0 PUSH1 0x80 DUP7 ADD SWAP6 DUP3 DUP9 AND ISZERO ISZERO DUP8 MSTORE ADD SWAP6 PUSH1 0x8 SHR AND ISZERO ISZERO DUP6 MSTORE PUSH1 0x40 MLOAD SWAP6 DUP7 MSTORE MLOAD PUSH1 0x20 DUP7 ADD MSTORE MLOAD PUSH1 0x40 DUP6 ADD MSTORE MLOAD PUSH1 0x60 DUP5 ADD MSTORE MLOAD ISZERO ISZERO PUSH1 0x80 DUP4 ADD MSTORE MLOAD ISZERO ISZERO PUSH1 0xA0 DUP3 ADD MSTORE RETURN JUMPDEST CALLVALUE PUSH2 0x229 JUMPI PUSH1 0x20 CALLDATASIZE PUSH1 0x3 NOT ADD SLT PUSH2 0x229 JUMPI PUSH1 0xC0 PUSH2 0x228C PUSH2 0x296D JUMP JUMPDEST PUSH2 0x2294 PUSH2 0x2DA9 JUMP JUMPDEST POP PUSH1 0x1 DUP1 PUSH1 0xA0 SHL SUB DUP1 SWAP2 AND PUSH1 0x0 MSTORE PUSH1 0xA PUSH1 0x20 MSTORE PUSH1 0x40 PUSH1 0x0 KECCAK256 SWAP1 PUSH1 0x40 MLOAD SWAP1 PUSH2 0x22BA DUP3 PUSH2 0x2A01 JUMP JUMPDEST DUP3 SLOAD AND SWAP2 DUP3 DUP3 MSTORE PUSH1 0x1 DUP2 ADD SLOAD PUSH1 0x20 DUP4 ADD SWAP1 DUP2 MSTORE PUSH1 0x2 DUP3 ADD SLOAD PUSH1 0x40 DUP5 ADD SWAP1 DUP2 MSTORE PUSH1 0x3 DUP4 ADD SLOAD SWAP2 PUSH1 0x60 DUP6 ADD SWAP3 DUP4 MSTORE PUSH1 0xA0 PUSH1 0x5 PUSH1 0x4 DUP7 ADD SLOAD SWAP6 PUSH1 0x80 DUP9 ADD SWAP7 DUP8 MSTORE ADD SLOAD SWAP6 ADD SWAP5 DUP6 MSTORE PUSH1 0x40 MLOAD SWAP6 DUP7 MSTORE MLOAD PUSH1 0x20 DUP7 ADD MSTORE MLOAD PUSH1 0x40 DUP6 ADD MSTORE MLOAD PUSH1 0x60 DUP5 ADD MSTORE MLOAD PUSH1 0x80 DUP4 ADD MSTORE MLOAD PUSH1 0xA0 DUP3 ADD MSTORE RETURN JUMPDEST CALLVALUE PUSH2 0x229 JUMPI PUSH1 0x0 CALLDATASIZE PUSH1 0x3 NOT ADD SLT PUSH2 0x229 JUMPI PUSH1 0x20 PUSH1 0x40 MLOAD PUSH1 0x6 DUP2 MSTORE RETURN JUMPDEST CALLVALUE PUSH2 0x229 JUMPI PUSH1 0x0 CALLDATASIZE PUSH1 0x3 NOT ADD SLT PUSH2 0x229 JUMPI PUSH1 0x20 PUSH1 0x40 MLOAD PUSH1 0x64 DUP2 MSTORE RETURN JUMPDEST CALLVALUE PUSH2 0x229 JUMPI PUSH1 0x0 CALLDATASIZE PUSH1 0x3 NOT ADD SLT PUSH2 0x229 JUMPI PUSH1 0x20 PUSH1 0x3 SLOAD PUSH1 0x40 MLOAD SWAP1 DUP2 MSTORE RETURN JUMPDEST CALLVALUE PUSH2 0x229 JUMPI PUSH1 0x0 CALLDATASIZE PUSH1 0x3 NOT ADD SLT PUSH2 0x229 JUMPI PUSH1 0x20 PUSH1 0x40 MLOAD PUSH1 0xA DUP2 MSTORE RETURN JUMPDEST CALLVALUE PUSH2 0x229 JUMPI PUSH1 0x0 CALLDATASIZE PUSH1 0x3 NOT ADD SLT PUSH2 0x229 JUMPI PUSH1 0x20 PUSH1 0x40 MLOAD PUSH1 0x32 DUP2 MSTORE RETURN JUMPDEST CALLVALUE PUSH2 0x229 JUMPI PUSH1 0x0 CALLDATASIZE PUSH1 0x3 NOT ADD SLT PUSH2 0x229 JUMPI PUSH1 0x2 DUP1 SLOAD PUSH2 0x23D0 DUP2 PUSH2 0x2D54 JUMP JUMPDEST SWAP2 PUSH1 0x0 SWAP2 PUSH1 0x1 JUMPDEST DUP2 DUP2 GT ISZERO PUSH2 0x242B JUMPI POP POP POP PUSH2 0x23EB DUP2 PUSH2 0x2D54 JUMP JUMPDEST SWAP2 PUSH1 0x0 JUMPDEST DUP3 DUP2 LT PUSH2 0x240C JUMPI PUSH1 0x40 MLOAD PUSH1 0x20 DUP1 DUP3 MSTORE DUP2 SWAP1 PUSH2 0x818 SWAP1 DUP3 ADD DUP8 PUSH2 0x2B79 JUMP JUMPDEST DUP1 PUSH2 0x2419 PUSH1 0x1 SWAP3 DUP5 PUSH2 0x2D95 JUMP JUMPDEST MLOAD PUSH2 0x2424 DUP3 DUP8 PUSH2 0x2D95 JUMP JUMPDEST MSTORE ADD PUSH2 0x23EF JUMP JUMPDEST DUP1 PUSH1 0x0 MSTORE PUSH1 0x5 PUSH1 0x20 SWAP1 DUP1 DUP3 MSTORE PUSH1 0xFF DUP6 PUSH1 0x40 PUSH1 0x0 KECCAK256 ADD SLOAD DUP2 PUSH1 0xA8 SWAP2 DUP3 SHR AND SWAP3 PUSH1 0x6 SWAP4 DUP5 DUP2 LT ISZERO PUSH2 0x7CF JUMPI ISZERO SWAP5 DUP6 ISZERO PUSH2 0x24C5 JUMPI JUMPDEST DUP6 ISZERO PUSH2 0x249D JUMPI JUMPDEST POP POP POP POP POP PUSH2 0x247C JUMPI JUMPDEST PUSH2 0x2477 SWAP1 PUSH2 0x2D86 JUMP JUMPDEST PUSH2 0x23D7 JUMP JUMPDEST SWAP3 PUSH2 0x2495 DUP2 DUP6 PUSH2 0x248F PUSH2 0x2477 SWAP5 DUP10 PUSH2 0x2D95 JUMP JUMPDEST MSTORE PUSH2 0x2D86 JUMP JUMPDEST SWAP4 SWAP1 POP PUSH2 0x246E JUMP JUMPDEST PUSH1 0x0 DUP8 DUP2 MSTORE SWAP2 SWAP1 MSTORE PUSH1 0x40 SWAP1 KECCAK256 DUP8 ADD SLOAD SWAP1 SHR AND SWAP2 POP DUP2 LT ISZERO PUSH2 0x7CF JUMPI PUSH1 0x1 EQ DUP7 DUP1 DUP1 DUP1 DUP1 PUSH2 0x2464 JUMP JUMPDEST SWAP5 POP DUP6 PUSH1 0x0 MSTORE DUP1 DUP6 MSTORE DUP3 DUP9 PUSH1 0x40 PUSH1 0x0 KECCAK256 ADD SLOAD DUP4 SHR AND DUP5 DUP2 LT ISZERO PUSH2 0x7CF JUMPI DUP9 EQ SWAP5 PUSH2 0x245D JUMP JUMPDEST CALLVALUE PUSH2 0x229 JUMPI PUSH1 0x0 CALLDATASIZE PUSH1 0x3 NOT ADD SLT PUSH2 0x229 JUMPI PUSH1 0x40 MLOAD PUSH32 0x0 PUSH1 0x1 PUSH1 0x1 PUSH1 0xA0 SHL SUB AND DUP2 MSTORE PUSH1 0x20 SWAP1 RETURN JUMPDEST CALLVALUE PUSH2 0x229 JUMPI PUSH1 0x0 CALLDATASIZE PUSH1 0x3 NOT ADD SLT PUSH2 0x229 JUMPI PUSH2 0x2548 PUSH2 0x304E JUMP JUMPDEST PUSH1 0x3 SLOAD DUP1 ISZERO PUSH2 0x259C JUMPI PUSH1 0x0 PUSH1 0x3 SSTORE PUSH32 0x41FDD680478135993BC53FB2FFAF9560951B57EF62FF6BADD02B61E018B4F17F PUSH1 0x20 PUSH1 0x1 DUP1 PUSH1 0xA0 SHL SUB PUSH2 0x258E DUP5 DUP3 PUSH1 0x0 SLOAD AND PUSH2 0x307A JUMP JUMPDEST PUSH1 0x0 SLOAD AND SWAP3 PUSH1 0x40 MLOAD SWAP1 DUP2 MSTORE LOG2 STOP JUMPDEST PUSH1 0x40 MLOAD PUSH3 0x461BCD PUSH1 0xE5 SHL DUP2 MSTORE PUSH1 0x20 PUSH1 0x4 DUP3 ADD MSTORE PUSH1 0x8 PUSH1 0x24 DUP3 ADD MSTORE PUSH8 0x4E6F2066756E6473 PUSH1 0xC0 SHL PUSH1 0x44 DUP3 ADD MSTORE PUSH1 0x64 SWAP1 REVERT JUMPDEST CALLVALUE PUSH2 0x229 JUMPI PUSH1 0x20 DUP1 PUSH1 0x3 NOT CALLDATASIZE ADD SLT PUSH2 0x229 JUMPI PUSH1 0x4 CALLDATALOAD PUSH1 0x0 MSTORE PUSH1 0x7 DUP2 MSTORE PUSH1 0x40 PUSH1 0x0 KECCAK256 PUSH1 0x40 MLOAD SWAP1 DUP2 DUP4 DUP3 SLOAD SWAP2 DUP3 DUP2 MSTORE ADD SWAP1 DUP2 SWAP3 PUSH1 0x0 MSTORE DUP5 PUSH1 0x0 KECCAK256 SWAP1 PUSH1 0x0 JUMPDEST DUP7 DUP3 DUP3 LT PUSH2 0x2667 JUMPI DUP7 DUP7 PUSH2 0x261E DUP3 DUP9 SUB DUP4 PUSH2 0x2A54 JUMP JUMPDEST PUSH1 0x40 MLOAD SWAP3 DUP4 SWAP3 DUP2 DUP5 ADD SWAP1 DUP3 DUP6 MSTORE MLOAD DUP1 SWAP2 MSTORE PUSH1 0x40 DUP5 ADD SWAP3 SWAP2 PUSH1 0x0 JUMPDEST DUP3 DUP2 LT PUSH2 0x2647 JUMPI POP POP POP POP SUB SWAP1 RETURN JUMPDEST DUP4 MLOAD PUSH1 0x1 PUSH1 0x1 PUSH1 0xA0 SHL SUB AND DUP6 MSTORE DUP7 SWAP6 POP SWAP4 DUP2 ADD SWAP4 SWAP3 DUP2 ADD SWAP3 PUSH1 0x1 ADD PUSH2 0x2638 JUMP JUMPDEST DUP4 SLOAD PUSH1 0x1 PUSH1 0x1 PUSH1 0xA0 SHL SUB AND DUP6 MSTORE SWAP1 SWAP4 ADD SWAP3 PUSH1 0x1 SWAP3 DUP4 ADD SWAP3 ADD PUSH2 0x2608 JUMP JUMPDEST CALLVALUE PUSH2 0x229 JUMPI PUSH1 0x20 CALLDATASIZE PUSH1 0x3 NOT ADD SLT PUSH2 0x229 JUMPI PUSH1 0x1 PUSH1 0x1 PUSH1 0xA0 SHL SUB PUSH2 0x26A5 PUSH2 0x296D JUMP JUMPDEST AND PUSH1 0x0 MSTORE PUSH1 0x8 PUSH1 0x20 MSTORE PUSH2 0x818 PUSH2 0x804 PUSH1 0x40 PUSH1 0x0 KECCAK256 PUSH2 0x2CEC JUMP JUMPDEST CALLVALUE PUSH2 0x229 JUMPI PUSH1 0x20 CALLDATASIZE PUSH1 0x3 NOT ADD SLT PUSH2 0x229 JUMPI PUSH1 0x4 CALLDATALOAD PUSH1 0x0 MSTORE PUSH1 0x5 PUSH1 0x20 MSTORE PUSH1 0x40 PUSH1 0x0 KECCAK256 DUP1 SLOAD SWAP1 PUSH1 0x1 DUP2 ADD PUSH2 0x26EF SWAP1 PUSH2 0x2A75 JUMP JUMPDEST PUSH1 0xE0 MSTORE PUSH1 0x2 DUP2 ADD SLOAD PUSH1 0xA0 MSTORE PUSH1 0x3 DUP2 ADD SLOAD PUSH2 0x100 MSTORE PUSH1 0x4 DUP2 ADD SLOAD SWAP2 PUSH1 0x5 DUP3 ADD SLOAD PUSH1 0x6 DUP4 ADD SLOAD PUSH1 0x7 DUP5 ADD SLOAD PUSH1 0x8 DUP6 ADD SLOAD PUSH1 0x9 DUP7 ADD SLOAD PUSH1 0xA DUP8 ADD SLOAD SWAP1 PUSH1 0x1 PUSH1 0xA0 SHL PUSH1 0x1 SWAP1 SUB PUSH1 0xB DUP10 ADD SLOAD AND SWAP3 PUSH1 0xC DUP10 ADD SLOAD SWAP5 PUSH1 0xD DUP11 ADD SLOAD SWAP7 PUSH1 0xE DUP12 ADD SLOAD SWAP9 PUSH1 0xF DUP13 ADD SLOAD SWAP11 PUSH1 0x11 DUP14 ADD SLOAD PUSH1 0xFF AND SWAP13 PUSH1 0x12 ADD SLOAD PUSH1 0x80 MSTORE PUSH1 0x40 MLOAD PUSH1 0xC0 MSTORE PUSH2 0x2A0 SWAP1 PUSH1 0xC0 MLOAD MSTORE DUP1 PUSH1 0xC0 MLOAD PUSH1 0x20 ADD MSTORE PUSH1 0xC0 MLOAD ADD PUSH1 0xE0 MLOAD SWAP1 PUSH2 0x2787 SWAP2 PUSH2 0x2B3D JUMP JUMPDEST SWAP13 PUSH1 0x1 PUSH1 0xA0 SHL PUSH1 0x1 SWAP1 SUB PUSH1 0xA0 MLOAD AND PUSH1 0xC0 MLOAD PUSH1 0x40 ADD MSTORE PUSH1 0xA0 MLOAD PUSH1 0xA0 SHR PUSH1 0xFF AND PUSH2 0x27AE SWAP1 PUSH2 0x2B62 JUMP JUMPDEST PUSH1 0xA0 MLOAD PUSH1 0xA0 SHR PUSH1 0xFF AND PUSH1 0xC0 MLOAD PUSH1 0x60 ADD MSTORE PUSH1 0xC0 MLOAD PUSH1 0x80 ADD PUSH1 0xA0 MLOAD PUSH1 0xA8 SHR PUSH1 0xFF AND SWAP1 PUSH2 0x27D7 SWAP2 PUSH2 0x2B6C JUMP JUMPDEST PUSH1 0xA0 MLOAD PUSH1 0xB0 SHR PUSH1 0xFF AND PUSH2 0x27E9 SWAP1 PUSH2 0x2B62 JUMP JUMPDEST PUSH1 0xA0 MLOAD PUSH1 0xB0 SHR PUSH1 0xFF AND PUSH1 0xC0 MLOAD PUSH1 0xA0 ADD MSTORE PUSH2 0x100 MLOAD PUSH1 0xC0 MLOAD PUSH1 0xC0 ADD MSTORE PUSH1 0xC0 MLOAD PUSH1 0xE0 ADD MSTORE PUSH1 0xC0 MLOAD PUSH2 0x100 ADD MSTORE PUSH1 0xC0 MLOAD PUSH2 0x120 ADD MSTORE PUSH1 0xC0 MLOAD PUSH2 0x140 ADD MSTORE PUSH1 0xC0 MLOAD PUSH2 0x160 ADD MSTORE PUSH1 0xC0 MLOAD PUSH2 0x180 ADD MSTORE PUSH1 0xC0 MLOAD PUSH2 0x1A0 ADD MSTORE PUSH1 0xC0 MLOAD PUSH2 0x1C0 ADD MSTORE PUSH1 0xC0 MLOAD PUSH2 0x1E0 ADD MSTORE PUSH1 0xC0 MLOAD PUSH2 0x200 ADD MSTORE PUSH1 0xC0 MLOAD PUSH2 0x220 ADD MSTORE PUSH1 0xC0 MLOAD PUSH2 0x240 ADD MSTORE ISZERO ISZERO PUSH1 0xC0 MLOAD PUSH2 0x260 ADD MSTORE PUSH1 0x80 MLOAD PUSH1 0xC0 MLOAD PUSH2 0x280 ADD MSTORE PUSH1 0xC0 MLOAD SWAP1 SUB PUSH1 0xC0 MLOAD RETURN JUMPDEST CALLVALUE PUSH2 0x229 JUMPI PUSH1 0x40 CALLDATASIZE PUSH1 0x3 NOT ADD SLT PUSH2 0x229 JUMPI PUSH2 0x289B PUSH2 0x296D JUMP JUMPDEST PUSH1 0x1 PUSH1 0x1 PUSH1 0xA0 SHL SUB AND PUSH1 0x0 SWAP1 DUP2 MSTORE PUSH1 0x8 PUSH1 0x20 MSTORE PUSH1 0x40 SWAP1 KECCAK256 DUP1 SLOAD PUSH1 0x24 CALLDATALOAD SWAP2 SWAP1 DUP3 LT ISZERO PUSH2 0x229 JUMPI PUSH1 0x20 SWAP2 PUSH2 0x28CC SWAP2 PUSH2 0x2999 JUMP JUMPDEST SWAP1 SLOAD PUSH1 0x40 MLOAD SWAP2 PUSH1 0x3 SHL SHR DUP2 MSTORE RETURN JUMPDEST CALLVALUE PUSH2 0x229 JUMPI PUSH1 0x20 CALLDATASIZE PUSH1 0x3 NOT ADD SLT PUSH2 0x229 JUMPI PUSH32 0xFCC9E1BAB18876E9DA15B014AF31492EB0229B8BC33B8EDDE9689AFE3617F67B PUSH1 0x40 PUSH1 0x4 CALLDATALOAD PUSH2 0x2919 PUSH2 0x304E JUMP JUMPDEST DUP1 ISZERO ISZERO DUP1 PUSH2 0x2961 JUMPI JUMPDEST PUSH2 0x292B SWAP1 PUSH2 0x2C9C JUMP JUMPDEST PUSH2 0x2937 DUP2 PUSH1 0x4 SLOAD PUSH2 0x2CDF JUMP JUMPDEST PUSH1 0x4 SSTORE PUSH1 0x0 SLOAD PUSH2 0x2951 SWAP1 DUP3 SWAP1 PUSH1 0x1 PUSH1 0x1 PUSH1 0xA0 SHL SUB AND PUSH2 0x307A JUMP JUMPDEST PUSH1 0x4 SLOAD DUP3 MLOAD SWAP2 DUP3 MSTORE PUSH1 0x20 DUP3 ADD MSTORE LOG1 STOP JUMPDEST POP PUSH1 0x4 SLOAD DUP2 GT ISZERO PUSH2 0x2922 JUMP JUMPDEST PUSH1 0x4 CALLDATALOAD SWAP1 PUSH1 0x1 PUSH1 0x1 PUSH1 0xA0 SHL SUB DUP3 AND DUP3 SUB PUSH2 0x229 JUMPI JUMP JUMPDEST PUSH1 0x24 CALLDATALOAD SWAP1 PUSH1 0x1 PUSH1 0x1 PUSH1 0xA0 SHL SUB DUP3 AND DUP3 SUB PUSH2 0x229 JUMPI JUMP JUMPDEST DUP1 SLOAD DUP3 LT ISZERO PUSH2 0x29B1 JUMPI PUSH1 0x0 MSTORE PUSH1 0x20 PUSH1 0x0 KECCAK256 ADD SWAP1 PUSH1 0x0 SWAP1 JUMP JUMPDEST PUSH4 0x4E487B71 PUSH1 0xE0 SHL PUSH1 0x0 MSTORE PUSH1 0x32 PUSH1 0x4 MSTORE PUSH1 0x24 PUSH1 0x0 REVERT JUMPDEST SWAP1 PUSH1 0x1 DUP3 DUP2 SHR SWAP3 AND DUP1 ISZERO PUSH2 0x29F7 JUMPI JUMPDEST PUSH1 0x20 DUP4 LT EQ PUSH2 0x29E1 JUMPI JUMP JUMPDEST PUSH4 0x4E487B71 PUSH1 0xE0 SHL PUSH1 0x0 MSTORE PUSH1 0x22 PUSH1 0x4 MSTORE PUSH1 0x24 PUSH1 0x0 REVERT JUMPDEST SWAP2 PUSH1 0x7F AND SWAP2 PUSH2 0x29D6 JUMP JUMPDEST PUSH1 0xC0 DUP2 ADD SWAP1 DUP2 LT PUSH1 0x1 PUSH1 0x1 PUSH1 0x40 SHL SUB DUP3 GT OR PUSH2 0xE0B JUMPI PUSH1 0x40 MSTORE JUMP JUMPDEST PUSH2 0x2C0 DUP2 ADD SWAP1 DUP2 LT PUSH1 0x1 PUSH1 0x1 PUSH1 0x40 SHL SUB DUP3 GT OR PUSH2 0xE0B JUMPI PUSH1 0x40 MSTORE JUMP JUMPDEST PUSH2 0x1A0 DUP2 ADD SWAP1 DUP2 LT PUSH1 0x1 PUSH1 0x1 PUSH1 0x40 SHL SUB DUP3 GT OR PUSH2 0xE0B JUMPI PUSH1 0x40 MSTORE JUMP JUMPDEST SWAP1 PUSH1 0x1F DUP1 NOT SWAP2 ADD AND DUP2 ADD SWAP1 DUP2 LT PUSH1 0x1 PUSH1 0x1 PUSH1 0x40 SHL SUB DUP3 GT OR PUSH2 0xE0B JUMPI PUSH1 0x40 MSTORE JUMP JUMPDEST SWAP1 PUSH1 0x40 MLOAD SWAP2 DUP3 PUSH1 0x0 DUP3 SLOAD PUSH2 0x2A88 DUP2 PUSH2 0x29C7 JUMP JUMPDEST SWAP1 DUP2 DUP5 MSTORE PUSH1 0x20 SWAP5 PUSH1 0x1 SWAP2 PUSH1 0x1 DUP2 AND SWAP1 DUP2 PUSH1 0x0 EQ PUSH2 0x2AF8 JUMPI POP PUSH1 0x1 EQ PUSH2 0x2AB9 JUMPI JUMPDEST POP POP POP PUSH2 0x2AB7 SWAP3 POP SUB DUP4 PUSH2 0x2A54 JUMP JUMPDEST JUMP JUMPDEST PUSH1 0x0 SWAP1 DUP2 MSTORE DUP6 DUP2 KECCAK256 SWAP6 SWAP4 POP SWAP2 SWAP1 JUMPDEST DUP2 DUP4 LT PUSH2 0x2AE0 JUMPI POP POP PUSH2 0x2AB7 SWAP4 POP DUP3 ADD ADD CODESIZE DUP1 DUP1 PUSH2 0x2AA8 JUMP JUMPDEST DUP6 SLOAD DUP9 DUP5 ADD DUP6 ADD MSTORE SWAP5 DUP6 ADD SWAP5 DUP8 SWAP5 POP SWAP2 DUP4 ADD SWAP2 PUSH2 0x2AC7 JUMP JUMPDEST SWAP3 POP POP POP PUSH2 0x2AB7 SWAP5 SWAP3 POP PUSH1 0xFF NOT AND DUP3 DUP5 ADD MSTORE ISZERO ISZERO PUSH1 0x5 SHL DUP3 ADD ADD CODESIZE DUP1 DUP1 PUSH2 0x2AA8 JUMP JUMPDEST PUSH1 0x0 JUMPDEST DUP4 DUP2 LT PUSH2 0x2B2D JUMPI POP POP PUSH1 0x0 SWAP2 ADD MSTORE JUMP JUMPDEST DUP2 DUP2 ADD MLOAD DUP4 DUP3 ADD MSTORE PUSH1 0x20 ADD PUSH2 0x2B1D JUMP JUMPDEST SWAP1 PUSH1 0x20 SWAP2 PUSH2 0x2B56 DUP2 MLOAD DUP1 SWAP3 DUP2 DUP6 MSTORE DUP6 DUP1 DUP7 ADD SWAP2 ADD PUSH2 0x2B1A JUMP JUMPDEST PUSH1 0x1F ADD PUSH1 0x1F NOT AND ADD ADD SWAP1 JUMP JUMPDEST PUSH1 0x2 GT ISZERO PUSH2 0x7CF JUMPI JUMP JUMPDEST SWAP1 PUSH1 0x6 DUP3 LT ISZERO PUSH2 0x7CF JUMPI MSTORE JUMP JUMPDEST SWAP1 DUP2 MLOAD DUP1 DUP3 MSTORE PUSH1 0x20 DUP1 DUP1 SWAP4 ADD SWAP4 ADD SWAP2 PUSH1 0x0 JUMPDEST DUP3 DUP2 LT PUSH2 0x2B99 JUMPI POP POP POP POP SWAP1 JUMP JUMPDEST DUP4 MLOAD DUP6 MSTORE SWAP4 DUP2 ADD SWAP4 SWAP3 DUP2 ADD SWAP3 PUSH1 0x1 ADD PUSH2 0x2B8B JUMP JUMPDEST CALLVALUE PUSH2 0x229 JUMPI PUSH1 0x0 CALLDATASIZE PUSH1 0x3 NOT ADD SLT PUSH2 0x229 JUMPI PUSH1 0x20 PUSH1 0x40 MLOAD PUSH1 0x5 DUP2 MSTORE RETURN JUMPDEST PUSH1 0x1 PUSH1 0x1 PUSH1 0x40 SHL SUB DUP2 GT PUSH2 0xE0B JUMPI PUSH1 0x1F ADD PUSH1 0x1F NOT AND PUSH1 0x20 ADD SWAP1 JUMP JUMPDEST DUP2 PUSH1 0x1F DUP3 ADD SLT ISZERO PUSH2 0x229 JUMPI DUP1 CALLDATALOAD SWAP1 PUSH2 0x2BFB DUP3 PUSH2 0x2BC9 JUMP JUMPDEST SWAP3 PUSH2 0x2C09 PUSH1 0x40 MLOAD SWAP5 DUP6 PUSH2 0x2A54 JUMP JUMPDEST DUP3 DUP5 MSTORE PUSH1 0x20 DUP4 DUP4 ADD ADD GT PUSH2 0x229 JUMPI DUP2 PUSH1 0x0 SWAP3 PUSH1 0x20 DUP1 SWAP4 ADD DUP4 DUP7 ADD CALLDATACOPY DUP4 ADD ADD MSTORE SWAP1 JUMP JUMPDEST SWAP1 PUSH1 0xA0 PUSH1 0x3 NOT DUP4 ADD SLT PUSH2 0x229 JUMPI PUSH1 0x1 PUSH1 0x1 PUSH1 0x40 SHL SUB PUSH1 0x4 CALLDATALOAD DUP2 DUP2 GT PUSH2 0x229 JUMPI DUP4 PUSH2 0x2C57 SWAP2 PUSH1 0x4 ADD PUSH2 0x2BE4 JUMP JUMPDEST SWAP3 PUSH1 0x24 CALLDATALOAD PUSH1 0x2 DUP2 LT ISZERO PUSH2 0x229 JUMPI SWAP3 PUSH1 0x44 CALLDATALOAD SWAP3 PUSH1 0x64 CALLDATALOAD SWAP3 PUSH1 0x84 CALLDATALOAD SWAP2 DUP3 GT PUSH2 0x229 JUMPI PUSH2 0x2C83 SWAP2 PUSH1 0x4 ADD PUSH2 0x2BE4 JUMP JUMPDEST SWAP1 JUMP JUMPDEST PUSH1 0x40 SWAP1 PUSH1 0x3 NOT ADD SLT PUSH2 0x229 JUMPI PUSH1 0x4 CALLDATALOAD SWAP1 PUSH1 0x24 CALLDATALOAD SWAP1 JUMP JUMPDEST ISZERO PUSH2 0x2CA3 JUMPI JUMP JUMPDEST PUSH1 0x40 MLOAD PUSH3 0x461BCD PUSH1 0xE5 SHL DUP2 MSTORE PUSH1 0x20 PUSH1 0x4 DUP3 ADD MSTORE PUSH1 0x14 PUSH1 0x24 DUP3 ADD MSTORE PUSH20 0x496E73756666696369656E742062616C616E6365 PUSH1 0x60 SHL PUSH1 0x44 DUP3 ADD MSTORE PUSH1 0x64 SWAP1 REVERT JUMPDEST SWAP2 SWAP1 DUP3 SUB SWAP2 DUP3 GT PUSH2 0x5F0 JUMPI JUMP JUMPDEST SWAP1 PUSH1 0x40 MLOAD SWAP2 DUP3 DUP2 SLOAD SWAP2 DUP3 DUP3 MSTORE PUSH1 0x20 SWAP3 PUSH1 0x20 DUP4 ADD SWAP2 PUSH1 0x0 MSTORE PUSH1 0x20 PUSH1 0x0 KECCAK256 SWAP4 PUSH1 0x0 SWAP1 JUMPDEST DUP3 DUP3 LT PUSH2 0x2D23 JUMPI POP POP POP PUSH2 0x2AB7 SWAP3 POP SUB DUP4 PUSH2 0x2A54 JUMP JUMPDEST DUP6 SLOAD DUP5 MSTORE PUSH1 0x1 SWAP6 DUP7 ADD SWAP6 DUP9 SWAP6 POP SWAP4 DUP2 ADD SWAP4 SWAP1 SWAP2 ADD SWAP1 PUSH2 0x2D0D JUMP JUMPDEST PUSH1 0x1 PUSH1 0x1 PUSH1 0x40 SHL SUB DUP2 GT PUSH2 0xE0B JUMPI PUSH1 0x5 SHL PUSH1 0x20 ADD SWAP1 JUMP JUMPDEST SWAP1 PUSH2 0x2D5E DUP3 PUSH2 0x2D3D JUMP JUMPDEST PUSH2 0x2D6B PUSH1 0x40 MLOAD SWAP2 DUP3 PUSH2 0x2A54 JUMP JUMPDEST DUP3 DUP2 MSTORE DUP1 SWAP3 PUSH2 0x2D7C PUSH1 0x1F NOT SWAP2 PUSH2 0x2D3D JUMP JUMPDEST ADD SWAP1 PUSH1 0x20 CALLDATASIZE SWAP2 ADD CALLDATACOPY JUMP JUMPDEST PUSH1 0x0 NOT DUP2 EQ PUSH2 0x5F0 JUMPI PUSH1 0x1 ADD SWAP1 JUMP JUMPDEST DUP1 MLOAD DUP3 LT ISZERO PUSH2 0x29B1 JUMPI PUSH1 0x20 SWAP2 PUSH1 0x5 SHL ADD ADD SWAP1 JUMP JUMPDEST PUSH1 0x40 MLOAD SWAP1 PUSH2 0x2DB6 DUP3 PUSH2 0x2A01 JUMP JUMPDEST DUP2 PUSH1 0xA0 PUSH1 0x0 SWAP2 DUP3 DUP2 MSTORE DUP3 PUSH1 0x20 DUP3 ADD MSTORE DUP3 PUSH1 0x40 DUP3 ADD MSTORE DUP3 PUSH1 0x60 DUP3 ADD MSTORE DUP3 PUSH1 0x80 DUP3 ADD MSTORE ADD MSTORE JUMP JUMPDEST DUP1 SLOAD PUSH1 0x1 PUSH1 0x40 SHL DUP2 LT ISZERO PUSH2 0xE0B JUMPI PUSH2 0x2DF8 SWAP2 PUSH1 0x1 DUP3 ADD DUP2 SSTORE PUSH2 0x2999 JUMP JUMPDEST PUSH1 0x1 DUP1 PUSH1 0xA0 SWAP5 SWAP4 SWAP5 SHL SUB DUP1 DUP5 SLOAD SWAP3 PUSH1 0x3 SHL SWAP4 AND DUP4 SHL SWAP3 SHL NOT AND OR SWAP1 SSTORE JUMP JUMPDEST DUP1 SLOAD PUSH1 0x1 PUSH1 0x40 SHL DUP2 LT ISZERO PUSH2 0xE0B JUMPI PUSH2 0x2E33 SWAP2 PUSH1 0x1 DUP3 ADD DUP2 SSTORE PUSH2 0x2999 JUMP JUMPDEST DUP2 SWAP3 SWAP2 SLOAD SWAP1 PUSH1 0x3 SHL SWAP2 DUP3 SHL SWAP2 PUSH1 0x0 NOT SWAP1 SHL NOT AND OR SWAP1 SSTORE JUMP JUMPDEST SWAP2 SWAP1 DUP3 ADD DUP1 SWAP3 GT PUSH2 0x5F0 JUMPI JUMP JUMPDEST ISZERO PUSH2 0x2E5F JUMPI JUMP JUMPDEST PUSH1 0x40 MLOAD PUSH3 0x461BCD PUSH1 0xE5 SHL DUP2 MSTORE PUSH1 0x20 PUSH1 0x4 DUP3 ADD MSTORE PUSH1 0x11 PUSH1 0x24 DUP3 ADD MSTORE PUSH17 0x159491881B9BDD08199D5B199A5B1B1959 PUSH1 0x7A SHL PUSH1 0x44 DUP3 ADD MSTORE PUSH1 0x64 SWAP1 REVERT JUMPDEST SWAP1 PUSH1 0xC3 DUP3 MUL SWAP2 DUP1 DUP4 DIV PUSH1 0xC3 EQ SWAP1 ISZERO OR ISZERO PUSH2 0x5F0 JUMPI JUMP JUMPDEST DUP2 DUP2 LT PUSH2 0x2EB9 JUMPI POP POP JUMP JUMPDEST PUSH1 0x0 DUP2 SSTORE PUSH1 0x1 ADD PUSH2 0x2EAE JUMP JUMPDEST ISZERO PUSH2 0x2ECC JUMPI JUMP JUMPDEST PUSH1 0x40 MLOAD PUSH3 0x461BCD PUSH1 0xE5 SHL DUP2 MSTORE PUSH1 0x20 PUSH1 0x4 DUP3 ADD MSTORE PUSH1 0x14 PUSH1 0x24 DUP3 ADD MSTORE PUSH20 0x125B9D985B1A59081C1B185E595C8818DBDD5B9D PUSH1 0x62 SHL PUSH1 0x44 DUP3 ADD MSTORE PUSH1 0x64 SWAP1 REVERT JUMPDEST ISZERO PUSH2 0x2F0F JUMPI JUMP JUMPDEST PUSH1 0x40 MLOAD PUSH3 0x461BCD PUSH1 0xE5 SHL DUP2 MSTORE PUSH1 0x20 PUSH1 0x4 DUP3 ADD MSTORE PUSH1 0x23 PUSH1 0x24 DUP3 ADD MSTORE PUSH32 0x41492067616D6573206D75737420686176652065786163746C79203120706C61 PUSH1 0x44 DUP3 ADD MSTORE PUSH3 0x3CB2B9 PUSH1 0xE9 SHL PUSH1 0x64 DUP3 ADD MSTORE PUSH1 0x84 SWAP1 REVERT JUMPDEST ISZERO PUSH2 0x2F67 JUMPI JUMP JUMPDEST PUSH1 0x40 MLOAD PUSH3 0x461BCD PUSH1 0xE5 SHL DUP2 MSTORE PUSH1 0x20 PUSH1 0x4 DUP3 ADD MSTORE PUSH1 0x1A PUSH1 0x24 DUP3 ADD MSTORE PUSH32 0x496E73756666696369656E7420686F7573652062616C616E6365000000000000 PUSH1 0x44 DUP3 ADD MSTORE PUSH1 0x64 SWAP1 REVERT JUMPDEST PUSH1 0x0 MSTORE PUSH1 0x5 PUSH1 0x20 MSTORE PUSH1 0x40 PUSH1 0x0 KECCAK256 PUSH2 0x2FC9 PUSH1 0xFF PUSH1 0x11 DUP4 ADD SLOAD AND PUSH2 0x2E58 JUMP JUMPDEST PUSH1 0x10 DUP2 ADD DUP1 SLOAD PUSH2 0x2FE1 JUMPI POP PUSH1 0xF PUSH2 0x2C83 SWAP2 ADD SLOAD PUSH2 0x349B JUMP JUMPDEST PUSH2 0x2C83 SWAP2 POP PUSH2 0x2CEC JUMP JUMPDEST ISZERO PUSH2 0x2FF2 JUMPI JUMP JUMPDEST PUSH1 0x40 MLOAD PUSH3 0x461BCD PUSH1 0xE5 SHL DUP2 MSTORE PUSH1 0x20 PUSH1 0x4 DUP3 ADD MSTORE PUSH1 0x14 PUSH1 0x24 DUP3 ADD MSTORE PUSH20 0x47616D65206E6F7420696E2070726F6772657373 PUSH1 0x60 SHL PUSH1 0x44 DUP3 ADD MSTORE PUSH1 0x64 SWAP1 REVERT JUMPDEST DUP2 ISZERO PUSH2 0x3038 JUMPI MOD SWAP1 JUMP JUMPDEST PUSH4 0x4E487B71 PUSH1 0xE0 SHL PUSH1 0x0 MSTORE PUSH1 0x12 PUSH1 0x4 MSTORE PUSH1 0x24 PUSH1 0x0 REVERT JUMPDEST PUSH1 0x0 SLOAD PUSH1 0x1 PUSH1 0x1 PUSH1 0xA0 SHL SUB AND CALLER SUB PUSH2 0x3062 JUMPI JUMP JUMPDEST PUSH1 0x40 MLOAD PUSH4 0x118CDAA7 PUSH1 0xE0 SHL DUP2 MSTORE CALLER PUSH1 0x4 DUP3 ADD MSTORE PUSH1 0x24 SWAP1 REVERT JUMPDEST PUSH1 0x0 SWAP2 DUP3 SWAP2 DUP3 SWAP2 DUP3 SWAP2 PUSH1 0x1 PUSH1 0x1 PUSH1 0xA0 SHL SUB AND GAS CALL RETURNDATASIZE ISZERO PUSH2 0x30F4 JUMPI RETURNDATASIZE PUSH2 0x309E DUP2 PUSH2 0x2BC9 JUMP JUMPDEST SWAP1 PUSH2 0x30AC PUSH1 0x40 MLOAD SWAP3 DUP4 PUSH2 0x2A54 JUMP JUMPDEST DUP2 MSTORE PUSH1 0x0 PUSH1 0x20 RETURNDATASIZE SWAP3 ADD RETURNDATACOPY JUMPDEST ISZERO PUSH2 0x30BE JUMPI JUMP JUMPDEST PUSH1 0x40 MLOAD PUSH3 0x461BCD PUSH1 0xE5 SHL DUP2 MSTORE PUSH1 0x20 PUSH1 0x4 DUP3 ADD MSTORE PUSH1 0xE PUSH1 0x24 DUP3 ADD MSTORE PUSH14 0x14185E5B595B9D0819985A5B1959 PUSH1 0x92 SHL PUSH1 0x44 DUP3 ADD MSTORE PUSH1 0x64 SWAP1 REVERT JUMPDEST PUSH2 0x30B7 JUMP JUMPDEST PUSH1 0x2 PUSH1 0x1 SLOAD EQ PUSH2 0x310A JUMPI PUSH1 0x2 PUSH1 0x1 SSTORE JUMP JUMPDEST PUSH1 0x40 MLOAD PUSH4 0x3EE5AEB5 PUSH1 0xE0 SHL DUP2 MSTORE PUSH1 0x4 SWAP1 REVERT JUMPDEST ISZERO PUSH2 0x3123 JUMPI JUMP JUMPDEST PUSH1 0x40 MLOAD PUSH3 0x461BCD PUSH1 0xE5 SHL DUP2 MSTORE PUSH1 0x20 PUSH1 0x4 DUP3 ADD MSTORE PUSH1 0x12 PUSH1 0x24 DUP3 ADD MSTORE PUSH18 0x4E6F7420656E6F75676820706C6179657273 PUSH1 0x70 SHL PUSH1 0x44 DUP3 ADD MSTORE PUSH1 0x64 SWAP1 REVERT JUMPDEST PUSH1 0x0 SWAP1 DUP1 DUP3 MSTORE PUSH1 0x20 SWAP2 PUSH1 0x5 DUP4 MSTORE PUSH1 0x40 DUP1 DUP3 KECCAK256 SWAP1 PUSH1 0x2 DUP3 ADD DUP1 SLOAD PUSH1 0xFF DUP2 PUSH1 0xA8 SHR AND PUSH1 0x6 DUP2 LT ISZERO PUSH2 0x33E3 JUMPI PUSH2 0x33A6 JUMPI PUSH1 0xFF DUP2 PUSH1 0xA0 SHR AND PUSH2 0x319A DUP2 PUSH2 0x2B62 JUMP JUMPDEST PUSH2 0x338D JUMPI PUSH2 0x31AF PUSH1 0x1 PUSH1 0x6 DUP7 ADD SLOAD LT ISZERO PUSH2 0x311C JUMP JUMPDEST DUP6 DUP6 MSTORE PUSH1 0x6 DUP8 MSTORE DUP3 DUP6 KECCAK256 PUSH32 0x0 PUSH1 0x1 PUSH1 0x1 PUSH1 0xA0 SHL SUB AND DUP7 MSTORE DUP8 MSTORE DUP3 DUP6 KECCAK256 PUSH1 0x4 ADD SLOAD PUSH1 0x8 SHR PUSH1 0xFF AND ISZERO PUSH2 0x3354 JUMPI JUMPDEST PUSH1 0xFF PUSH1 0xA8 SHL NOT AND PUSH1 0x1 PUSH1 0xA8 SHL OR SWAP1 SSTORE TIMESTAMP PUSH1 0x8 DUP4 ADD SSTORE DUP1 MLOAD PUSH9 0x8C9892A09A82A8869 PUSH1 0xBB SHL DUP7 DUP3 ADD SWAP1 DUP2 MSTORE PUSH1 0x29 DUP1 DUP4 ADD DUP8 SWAP1 MSTORE DUP3 MSTORE SWAP1 SWAP6 SWAP1 PUSH1 0x60 DUP8 ADD SWAP1 PUSH1 0x1 PUSH1 0x1 PUSH1 0x40 SHL SUB DUP3 GT DUP9 DUP4 LT OR PUSH2 0x3340 JUMPI DUP2 DUP5 MSTORE DUP8 MLOAD SWAP1 KECCAK256 PUSH4 0x5E3B709F PUSH1 0xE0 SHL DUP3 MSTORE PUSH1 0x64 DUP9 ADD MSTORE DUP2 DUP2 PUSH1 0x24 DUP2 DUP9 PUSH32 0x0 PUSH1 0x1 PUSH1 0x1 PUSH1 0xA0 SHL SUB AND GAS CALL SWAP7 DUP8 ISZERO PUSH2 0x3336 JUMPI DUP6 SWAP8 PUSH2 0x32FE JUMPI JUMPDEST POP POP DUP4 SWAP3 DUP6 DUP8 SWAP4 PUSH1 0x9 PUSH1 0xE SWAP5 DUP7 PUSH32 0xB4A411A01BC386893734D83E17411A973F9DBB12732AFF7A88D6964F1360B160 SWAP10 MSTORE MSTORE DUP6 KECCAK256 SSTORE DUP3 DUP7 PUSH32 0xF7617D06180C24C92BAD8C8436C3AE97409A09E1F5655DA6C0807F50C5F96748 DUP7 DUP1 LOG3 ADD SSTORE DUP1 LOG3 JUMP JUMPDEST DUP3 DUP1 SWAP7 SWAP10 SWAP9 POP SWAP2 SWAP3 RETURNDATASIZE DUP4 GT PUSH2 0x332F JUMPI JUMPDEST PUSH2 0x3318 DUP2 DUP6 PUSH2 0x2A54 JUMP JUMPDEST DUP2 ADD SUB SLT PUSH2 0x332B JUMPI MLOAD SWAP5 SWAP6 SWAP3 DUP3 DUP6 PUSH2 0x329E JUMP JUMPDEST DUP7 DUP1 REVERT JUMPDEST POP RETURNDATASIZE PUSH2 0x330E JUMP JUMPDEST DUP4 MLOAD RETURNDATASIZE DUP8 DUP3 RETURNDATACOPY RETURNDATASIZE SWAP1 REVERT JUMPDEST PUSH4 0x4E487B71 PUSH1 0xE0 SHL DUP7 MSTORE PUSH1 0x41 PUSH1 0x4 MSTORE PUSH1 0x24 DUP7 REVERT JUMPDEST DUP3 MLOAD PUSH3 0x461BCD PUSH1 0xE5 SHL DUP2 MSTORE PUSH1 0x4 DUP2 ADD DUP9 SWAP1 MSTORE PUSH1 0x12 PUSH1 0x24 DUP3 ADD MSTORE PUSH18 0x1052481B9BDD081A5B9A5D1A585B1A5E9959 PUSH1 0x72 SHL PUSH1 0x44 DUP3 ADD MSTORE PUSH1 0x64 SWAP1 REVERT JUMPDEST PUSH2 0x33A1 PUSH1 0x6 DUP6 ADD SLOAD PUSH1 0x5 DUP7 ADD SLOAD GT ISZERO PUSH2 0x311C JUMP JUMPDEST PUSH2 0x31FA JUMP JUMPDEST DUP3 MLOAD PUSH3 0x461BCD PUSH1 0xE5 SHL DUP2 MSTORE PUSH1 0x4 DUP2 ADD DUP9 SWAP1 MSTORE PUSH1 0x16 PUSH1 0x24 DUP3 ADD MSTORE PUSH22 0x11D85B594818D85B9B9BDD081899481CDD185C9D1959 PUSH1 0x52 SHL PUSH1 0x44 DUP3 ADD MSTORE PUSH1 0x64 SWAP1 REVERT JUMPDEST PUSH4 0x4E487B71 PUSH1 0xE0 SHL DUP7 MSTORE PUSH1 0x21 PUSH1 0x4 MSTORE PUSH1 0x24 DUP7 REVERT JUMPDEST PUSH1 0x0 DUP2 PUSH1 0x0 MSTORE PUSH1 0x20 PUSH1 0x5 PUSH1 0x20 MSTORE PUSH1 0x40 SWAP2 PUSH1 0x40 PUSH1 0x0 KECCAK256 SWAP3 PUSH1 0x0 SWAP2 PUSH1 0x1 DUP1 PUSH1 0xA0 SHL SUB SWAP3 DUP4 PUSH32 0x0 AND SWAP5 JUMPDEST DUP8 DUP4 MSTORE PUSH1 0x7 DUP2 MSTORE DUP4 DUP4 KECCAK256 DUP1 SLOAD DUP4 LT ISZERO PUSH2 0x3490 JUMPI DUP3 DUP7 PUSH2 0x3460 PUSH1 0x7 SWAP6 PUSH1 0x1 SWAP5 PUSH2 0x2999 JUMP JUMPDEST SWAP2 SWAP1 SLOAD PUSH1 0x3 SWAP3 DUP4 SHL SHR AND DUP10 DUP2 SUB PUSH2 0x347C JUMPI JUMPDEST POP POP ADD SWAP2 POP PUSH2 0x343D JUMP JUMPDEST PUSH2 0x3489 SWAP2 DUP12 ADD SLOAD SWAP1 PUSH2 0x307A JUMP JUMPDEST CODESIZE DUP1 PUSH2 0x3472 JUMP JUMPDEST POP POP POP POP POP POP POP POP POP JUMP JUMPDEST SWAP1 PUSH1 0x40 DUP1 MLOAD SWAP1 PUSH2 0x34AA DUP3 PUSH2 0x2A38 JUMP JUMPDEST PUSH1 0xC SWAP1 PUSH1 0xC DUP4 MSTORE PUSH1 0x20 SWAP1 PUSH2 0x180 SWAP6 DUP7 CALLDATASIZE PUSH1 0x20 DUP8 ADD CALLDATACOPY PUSH1 0x40 MLOAD SWAP7 PUSH2 0x34CC DUP9 PUSH2 0x2A38 JUMP JUMPDEST PUSH1 0xC DUP9 MSTORE CALLDATASIZE PUSH1 0x20 DUP10 ADD CALLDATACOPY PUSH1 0x0 JUMPDEST DUP5 DUP2 LT PUSH2 0x3596 JUMPI POP SWAP2 PUSH1 0xB DUP1 JUMPDEST PUSH2 0x351E JUMPI POP POP POP POP PUSH1 0x0 JUMPDEST DUP2 DUP2 LT PUSH2 0x34FF JUMPI POP SWAP1 SWAP3 POP POP JUMP JUMPDEST DUP1 PUSH2 0x350C PUSH1 0x1 SWAP3 DUP8 PUSH2 0x2D95 JUMP JUMPDEST MLOAD PUSH2 0x3517 DUP3 DUP7 PUSH2 0x2D95 JUMP JUMPDEST MSTORE ADD PUSH2 0x34F1 JUMP JUMPDEST PUSH1 0x1 DUP2 ADD DUP1 DUP3 GT PUSH2 0x5F0 JUMPI PUSH2 0x3533 SWAP1 DUP6 PUSH2 0x302E JUMP JUMPDEST SWAP4 DUP4 MLOAD DUP4 DUP2 ADD SWAP2 DUP3 MSTORE DUP4 DUP2 MSTORE DUP5 DUP2 ADD DUP2 DUP2 LT PUSH1 0x1 PUSH1 0x1 PUSH1 0x40 SHL SUB DUP3 GT OR PUSH2 0xE0B JUMPI DUP6 MSTORE MLOAD SWAP1 KECCAK256 SWAP4 PUSH2 0x3585 PUSH2 0x3567 DUP4 DUP12 PUSH2 0x2D95 JUMP JUMPDEST MLOAD SWAP2 PUSH2 0x3573 DUP2 DUP13 PUSH2 0x2D95 JUMP JUMPDEST MLOAD PUSH2 0x357E DUP6 DUP14 PUSH2 0x2D95 JUMP JUMPDEST MSTORE DUP11 PUSH2 0x2D95 JUMP JUMPDEST MSTORE DUP1 ISZERO PUSH2 0x5F0 JUMPI PUSH1 0x0 NOT ADD DUP1 PUSH2 0x34E6 JUMP JUMPDEST DUP1 DUP1 PUSH2 0x35A4 PUSH1 0x1 SWAP4 DUP12 PUSH2 0x2D95 JUMP JUMPDEST MSTORE ADD PUSH2 0x34D9 JUMP JUMPDEST PUSH1 0x0 DUP2 DUP2 MSTORE PUSH1 0x20 SWAP1 PUSH1 0x5 PUSH1 0x20 MSTORE PUSH1 0x40 SWAP1 PUSH1 0x40 DUP2 KECCAK256 SWAP2 PUSH1 0xFF SWAP1 PUSH1 0xFF PUSH1 0x2 DUP6 ADD SLOAD PUSH1 0xA0 SHR AND SWAP4 PUSH2 0x35D8 DUP6 PUSH2 0x2B62 JUMP JUMPDEST PUSH1 0x1 DUP1 SWAP6 EQ SWAP1 DUP2 PUSH2 0x36A2 JUMPI JUMPDEST DUP2 PUSH2 0x3693 JUMPI JUMPDEST POP PUSH2 0x3685 JUMPI SWAP2 SWAP4 PUSH1 0x1 SWAP4 SWAP3 DUP6 SWAP3 SWAP2 DUP5 JUMPDEST PUSH2 0x3616 JUMPI JUMPDEST POP POP POP POP POP SWAP1 POP PUSH2 0x360D JUMPI POP JUMP JUMPDEST PUSH2 0x2AB7 SWAP1 PUSH2 0x36B0 JUMP JUMPDEST DUP8 DUP5 MSTORE PUSH1 0x7 DUP1 DUP3 MSTORE DUP3 DUP6 KECCAK256 SLOAD DUP9 LT ISZERO PUSH2 0x367F JUMPI PUSH1 0x6 DUP3 MSTORE DUP3 DUP6 KECCAK256 SWAP1 DUP3 MSTORE PUSH2 0x363F DUP9 DUP5 DUP8 KECCAK256 PUSH2 0x2999 JUMP JUMPDEST SWAP1 SLOAD PUSH1 0x3 SWAP2 SWAP1 SWAP2 SHL SHR PUSH1 0x1 PUSH1 0x1 PUSH1 0xA0 SHL SUB AND DUP6 MSTORE DUP2 MSTORE DUP2 DUP5 KECCAK256 PUSH1 0x4 ADD SLOAD DUP4 AND ISZERO PUSH2 0x366D JUMPI SWAP6 DUP5 ADD SWAP6 DUP5 PUSH2 0x35FA JUMP JUMPDEST POP POP POP SWAP3 POP POP POP DUP1 CODESIZE DUP1 DUP1 DUP1 DUP1 PUSH2 0x35FF JUMP JUMPDEST POP PUSH2 0x35FF JUMP JUMPDEST POP POP POP POP POP PUSH2 0x2AB7 SWAP1 PUSH2 0x36B0 JUMP JUMPDEST PUSH1 0xA SWAP2 POP ADD SLOAD TIMESTAMP LT ISZERO CODESIZE PUSH2 0x35EA JUMP JUMPDEST PUSH1 0xA DUP2 ADD SLOAD ISZERO ISZERO SWAP2 POP PUSH2 0x35E4 JUMP JUMPDEST DUP1 PUSH1 0x0 MSTORE PUSH1 0x5 PUSH1 0x20 MSTORE PUSH1 0x40 PUSH1 0x0 KECCAK256 SWAP1 PUSH1 0x2 DUP3 ADD SLOAD SWAP2 PUSH1 0xFF DUP4 PUSH1 0xA8 SHR AND PUSH1 0x6 DUP2 LT ISZERO PUSH2 0x7CF JUMPI PUSH1 0x2 PUSH2 0x36E5 SWAP2 SWAP6 SWAP3 SWAP5 SWAP6 EQ PUSH2 0x2FEB JUMP JUMPDEST PUSH2 0x36F5 PUSH1 0xFF PUSH1 0x11 DUP6 ADD SLOAD AND PUSH2 0x2E58 JUMP JUMPDEST PUSH1 0x0 DUP3 DUP2 MSTORE PUSH1 0x7 PUSH1 0x20 MSTORE PUSH1 0x40 DUP2 KECCAK256 SLOAD SWAP5 PUSH1 0x0 NOT SWAP1 DUP3 PUSH2 0x372C PUSH2 0x3716 DUP10 PUSH2 0x2D3D JUMP JUMPDEST SWAP9 PUSH2 0x3724 PUSH1 0x40 MLOAD SWAP11 DUP12 PUSH2 0x2A54 JUMP JUMPDEST DUP1 DUP11 MSTORE PUSH2 0x2D3D JUMP JUMPDEST PUSH1 0x1F NOT ADD CALLDATASIZE PUSH1 0x20 DUP11 ADD CALLDATACOPY PUSH1 0x0 SWAP1 PUSH1 0x0 SWAP4 JUMPDEST DUP8 PUSH1 0x0 MSTORE PUSH1 0x7 PUSH1 0x20 MSTORE PUSH1 0x40 PUSH1 0x0 KECCAK256 DUP1 SLOAD DUP7 LT ISZERO PUSH2 0x3830 JUMPI DUP6 PUSH2 0x375E SWAP2 PUSH2 0x2999 JUMP JUMPDEST PUSH1 0x1 DUP1 PUSH1 0xA0 SHL SUB SWAP2 SLOAD SWAP1 PUSH1 0x3 SHL SHR AND SWAP6 DUP9 PUSH1 0x0 MSTORE PUSH1 0x6 PUSH1 0x20 MSTORE PUSH1 0x40 PUSH1 0x0 KECCAK256 DUP8 PUSH1 0x0 MSTORE PUSH1 0x20 MSTORE PUSH1 0x40 PUSH1 0x0 KECCAK256 PUSH1 0xFF PUSH1 0x4 DUP3 ADD SLOAD AND ISZERO DUP1 ISZERO PUSH2 0x3824 JUMPI JUMPDEST PUSH2 0x3813 JUMPI PUSH1 0x2 ADD SLOAD SWAP4 DUP12 DUP4 DUP7 LT ISZERO PUSH2 0x37D2 JUMPI POP POP POP POP POP SWAP4 DUP4 SWAP7 PUSH1 0x1 SWAP5 DUP10 MLOAD ISZERO PUSH2 0x29B1 JUMPI PUSH1 0x20 DUP11 ADD MSTORE PUSH1 0x1 DUP6 SWAP5 JUMPDEST ADD SWAP4 SWAP2 SWAP6 SWAP8 SWAP1 SWAP8 PUSH2 0x373D JUMP JUMPDEST SWAP2 SWAP8 SWAP1 SWAP7 SWAP3 DUP1 SWAP10 SWAP6 SWAP12 SWAP5 SWAP12 EQ PUSH2 0x37ED JUMPI JUMPDEST POP POP PUSH1 0x1 SWAP1 PUSH2 0x37C6 JUMP JUMPDEST SWAP6 PUSH1 0x1 SWAP3 SWAP7 PUSH2 0x248F DUP3 PUSH2 0x3803 PUSH2 0x3809 SWAP6 SWAP12 PUSH2 0x2D86 JUMP JUMPDEST SWAP11 PUSH2 0x2D95 JUMP JUMPDEST SWAP5 SWAP1 POP DUP10 CODESIZE PUSH2 0x37E3 JUMP JUMPDEST POP SWAP6 POP SWAP6 SWAP2 SWAP4 PUSH1 0x1 SWAP1 SWAP9 SWAP2 SWAP9 PUSH2 0x37C6 JUMP JUMPDEST POP PUSH1 0x2 DUP2 ADD SLOAD ISZERO PUSH2 0x3798 JUMP JUMPDEST POP SWAP6 SWAP9 SWAP6 SWAP8 PUSH1 0x1 PUSH1 0x1 PUSH1 0xA0 SHL SUB SWAP7 SWAP1 SWAP6 SWAP2 SWAP5 POP SWAP1 SWAP2 DUP7 DUP6 AND ISZERO PUSH2 0x3BF4 JUMPI PUSH1 0x0 NOT DUP10 EQ PUSH2 0x3BAF JUMPI PUSH1 0x1 DUP8 SWAP4 GT DUP1 PUSH2 0x3BA5 JUMPI JUMPDEST PUSH2 0x3B55 JUMPI JUMPDEST POP POP POP PUSH1 0x3 PUSH1 0xA8 SHL SWAP1 PUSH1 0xFF PUSH1 0xA8 SHL NOT AND OR SWAP5 DUP6 PUSH1 0x2 DUP5 ADD SSTORE TIMESTAMP PUSH1 0x9 DUP5 ADD SSTORE PUSH1 0x1 PUSH1 0xFF PUSH1 0xB DUP6 ADD SWAP8 DUP7 DUP6 AND SWAP9 DUP10 PUSH1 0x1 PUSH1 0x1 PUSH1 0x60 SHL SUB PUSH1 0xA0 SHL DUP3 SLOAD AND OR SWAP1 SSTORE DUP8 PUSH1 0x0 MSTORE PUSH1 0x6 PUSH1 0x20 MSTORE PUSH1 0x40 PUSH1 0x0 KECCAK256 DUP10 PUSH1 0x0 MSTORE PUSH1 0x20 MSTORE DUP3 PUSH1 0x40 PUSH1 0x0 KECCAK256 ADD SLOAD PUSH1 0xC DUP8 ADD SSTORE DUP8 PUSH1 0x0 MSTORE PUSH1 0x6 PUSH1 0x20 MSTORE PUSH1 0x40 PUSH1 0x0 KECCAK256 DUP10 PUSH1 0x0 MSTORE PUSH1 0x20 MSTORE DUP9 DUP9 PUSH32 0x5F5C334197520A152F092DF6690F941BE7E48AC07124CF867206738CAC4A6A3B PUSH1 0x60 PUSH1 0x2 PUSH1 0x40 PUSH1 0x0 KECCAK256 ADD SLOAD SWAP10 DUP11 PUSH1 0xD DUP3 ADD SSTORE PUSH1 0x4 SWAP11 PUSH1 0xE DUP13 DUP4 ADD SLOAD SWAP3 ADD SLOAD SWAP1 PUSH1 0x40 MLOAD SWAP3 DUP4 MSTORE PUSH1 0x20 DUP4 ADD MSTORE PUSH1 0x40 DUP3 ADD MSTORE LOG3 PUSH1 0xB0 SHR AND PUSH2 0x393A DUP2 PUSH2 0x2B62 JUMP JUMPDEST SUB PUSH2 0x3B46 JUMPI POP DUP4 PUSH1 0x0 MSTORE PUSH1 0x5 PUSH1 0x20 MSTORE PUSH1 0x40 PUSH1 0x0 KECCAK256 SWAP1 DUP6 ISZERO PUSH2 0x3B11 JUMPI SELFBALANCE SWAP4 PUSH1 0xFF PUSH1 0x2 DUP5 ADD SLOAD PUSH1 0xA0 SHR AND PUSH2 0x396B DUP2 PUSH2 0x2B62 JUMP JUMPDEST PUSH2 0x3A55 JUMPI SWAP2 PUSH1 0x20 SWAP4 SWAP2 PUSH32 0xDC1D0B6A7CBFA6F3B2D4325BAB5A169B265AD0B2B4022FB550364F0DFEEB6A74 SWAP6 SWAP4 PUSH32 0x0 AND DUP9 EQ PUSH1 0x0 EQ PUSH2 0x39EB JUMPI POP PUSH1 0x3 PUSH2 0x39D4 SWAP2 ADD SLOAD DUP1 SWAP4 LT ISZERO PUSH2 0x2C9C JUMP JUMPDEST PUSH2 0x39DF DUP3 DUP3 SLOAD PUSH2 0x2E4B JUMP JUMPDEST SWAP1 SSTORE JUMPDEST PUSH1 0x40 MLOAD SWAP1 DUP2 MSTORE LOG3 JUMP JUMPDEST SWAP2 SWAP1 PUSH1 0x3 PUSH2 0x3A35 SWAP2 ADD SLOAD SWAP4 PUSH2 0x3A2F PUSH1 0x64 PUSH2 0x3A04 DUP8 PUSH2 0x2E98 JUMP JUMPDEST DIV SWAP6 PUSH2 0x3A29 DUP8 DUP7 SLOAD SWAP5 PUSH2 0x3A22 PUSH2 0x3A1A DUP6 DUP5 PUSH2 0x2CDF JUMP JUMPDEST DUP8 LT ISZERO PUSH2 0x2F60 JUMP JUMPDEST LT ISZERO PUSH2 0x2C9C JUMP JUMPDEST DUP7 PUSH2 0x2CDF JUMP JUMPDEST SWAP1 PUSH2 0x2CDF JUMP JUMPDEST SWAP1 SSTORE DUP2 DUP1 PUSH2 0x3A45 JUMPI JUMPDEST POP POP PUSH2 0x39E2 JUMP JUMPDEST PUSH2 0x3A4E SWAP2 PUSH2 0x307A JUMP JUMPDEST CODESIZE DUP2 PUSH2 0x3A3E JUMP JUMPDEST POP SWAP2 DUP1 SWAP2 ADD SLOAD SWAP1 DUP2 ISZERO PUSH2 0x3AE2 JUMPI PUSH1 0xA DUP3 MUL SWAP1 DUP3 DUP3 DIV PUSH1 0xA SUB PUSH2 0x3ACD JUMPI POP SWAP2 PUSH2 0x3ABD PUSH32 0xDC1D0B6A7CBFA6F3B2D4325BAB5A169B265AD0B2B4022FB550364F0DFEEB6A74 SWAP5 SWAP3 PUSH2 0x3AB5 PUSH2 0x3AAC PUSH1 0x64 PUSH1 0x20 SWAP8 DIV DUP1 SWAP4 PUSH2 0x2CDF JUMP JUMPDEST DUP1 SWAP6 LT ISZERO PUSH2 0x2C9C JUMP JUMPDEST PUSH1 0x3 SLOAD PUSH2 0x2E4B JUMP JUMPDEST PUSH1 0x3 SSTORE DUP2 DUP1 PUSH2 0x3A45 JUMPI POP POP PUSH2 0x39E2 JUMP JUMPDEST PUSH1 0x11 SWAP1 PUSH4 0x4E487B71 PUSH1 0xE0 SHL PUSH1 0x0 MSTORE MSTORE PUSH1 0x24 PUSH1 0x0 REVERT JUMPDEST PUSH1 0x64 SWAP1 PUSH1 0x20 PUSH1 0x40 MLOAD SWAP2 PUSH3 0x461BCD PUSH1 0xE5 SHL DUP4 MSTORE DUP3 ADD MSTORE PUSH1 0x8 PUSH1 0x24 DUP3 ADD MSTORE PUSH8 0x4E6F207072697A65 PUSH1 0xC0 SHL PUSH1 0x44 DUP3 ADD MSTORE REVERT JUMPDEST PUSH1 0x40 MLOAD PUSH3 0x461BCD PUSH1 0xE5 SHL DUP2 MSTORE PUSH1 0x20 DUP2 DUP6 ADD MSTORE PUSH1 0xE PUSH1 0x24 DUP3 ADD MSTORE PUSH14 0x24B73B30B634B2103BB4B73732B9 PUSH1 0x91 SHL PUSH1 0x44 DUP3 ADD MSTORE PUSH1 0x64 SWAP1 REVERT JUMPDEST SWAP4 POP SWAP2 POP POP PUSH2 0x2AB7 SWAP3 POP PUSH2 0x3C2B JUMP JUMPDEST PUSH2 0x3B74 SWAP3 SWAP4 SWAP5 POP PUSH2 0x3B6E SWAP1 PUSH2 0x2710 PUSH1 0xF DUP9 ADD SLOAD DIV PUSH2 0x302E JUMP JUMPDEST SWAP1 PUSH2 0x2D95 JUMP JUMPDEST MLOAD AND SWAP1 DUP5 PUSH32 0x6735B98D5D75EB6A72FF7CBD805FC91D5EE18E1B5D11043B0E649B6F22C9CAB8 PUSH1 0x0 DUP1 LOG2 DUP4 CODESIZE DUP1 PUSH2 0x3866 JUMP JUMPDEST POP PUSH1 0x1 DUP2 GT PUSH2 0x3861 JUMP JUMPDEST PUSH1 0x40 MLOAD PUSH3 0x461BCD PUSH1 0xE5 SHL DUP2 MSTORE PUSH1 0x20 PUSH1 0x4 DUP3 ADD MSTORE PUSH1 0x1A PUSH1 0x24 DUP3 ADD MSTORE PUSH32 0x4E6F20636F6D706C6574656420706C617965727320666F756E64000000000000 PUSH1 0x44 DUP3 ADD MSTORE PUSH1 0x64 SWAP1 REVERT JUMPDEST PUSH1 0x40 MLOAD PUSH3 0x461BCD PUSH1 0xE5 SHL DUP2 MSTORE PUSH1 0x20 PUSH1 0x4 DUP3 ADD MSTORE PUSH1 0xF PUSH1 0x24 DUP3 ADD MSTORE PUSH15 0x139BC81DDA5B9B995C88199BDD5B99 PUSH1 0x8A SHL PUSH1 0x44 DUP3 ADD MSTORE PUSH1 0x64 SWAP1 REVERT JUMPDEST PUSH1 0x1 PUSH1 0x1 PUSH1 0xA0 SHL SUB SWAP1 DUP2 AND SWAP2 SWAP1 PUSH32 0x0 AND DUP3 EQ PUSH2 0x3D67 JUMPI PUSH1 0x0 DUP3 DUP2 MSTORE PUSH1 0xA PUSH1 0x20 MSTORE PUSH1 0x40 DUP2 KECCAK256 SWAP3 PUSH1 0x1 PUSH1 0x1 PUSH1 0x60 SHL SUB PUSH1 0xA0 SHL DUP5 SLOAD AND OR DUP4 SSTORE PUSH1 0x1 DUP4 ADD PUSH2 0x3C8E DUP2 SLOAD PUSH2 0x2D86 JUMP JUMPDEST SWAP1 SSTORE PUSH1 0x3 DUP4 ADD PUSH2 0x3C9E DUP2 SLOAD PUSH2 0x2D86 JUMP JUMPDEST SWAP1 SSTORE DUP2 PUSH1 0x2 DUP5 ADD DUP1 SLOAD DUP1 ISZERO SWAP1 DUP2 ISZERO PUSH2 0x3D5D JUMPI JUMPDEST POP PUSH2 0x3D55 JUMPI JUMPDEST POP POP PUSH1 0x64 SWAP2 PUSH1 0xA DUP2 GT ISZERO PUSH2 0x3CE1 JUMPI JUMPDEST POP POP PUSH2 0x3CD7 PUSH1 0x4 DUP4 ADD SWAP2 DUP3 SLOAD PUSH2 0x2E4B JUMP JUMPDEST SWAP1 SSTORE PUSH1 0x5 TIMESTAMP SWAP2 ADD SSTORE JUMP JUMPDEST DUP1 SWAP2 SWAP3 POP PUSH1 0xB SUB SWAP1 PUSH1 0xB DUP3 GT PUSH2 0x3D41 JUMPI PUSH1 0xA DUP3 MUL SWAP2 DUP3 DIV PUSH1 0xA EQ SWAP1 PUSH1 0xB EQ OR ISZERO PUSH2 0x3D2D JUMPI PUSH1 0x64 ADD SWAP1 DUP2 PUSH1 0x64 GT PUSH2 0x3D19 JUMPI POP CODESIZE DUP1 PUSH2 0x3CC6 JUMP JUMPDEST PUSH4 0x4E487B71 PUSH1 0xE0 SHL DUP2 MSTORE PUSH1 0x11 PUSH1 0x4 MSTORE PUSH1 0x24 SWAP1 REVERT JUMPDEST PUSH4 0x4E487B71 PUSH1 0xE0 SHL DUP3 MSTORE PUSH1 0x11 PUSH1 0x4 MSTORE PUSH1 0x24 DUP3 REVERT JUMPDEST PUSH4 0x4E487B71 PUSH1 0xE0 SHL DUP4 MSTORE PUSH1 0x11 PUSH1 0x4 MSTORE PUSH1 0x24 DUP4 REVERT JUMPDEST SSTORE DUP2 CODESIZE PUSH2 0x3CB7 JUMP JUMPDEST SWAP1 POP DUP3 LT CODESIZE PUSH2 0x3CB1 JUMP JUMPDEST POP POP JUMP INVALID PUSH20 0xF639A997D47BC9ECF8116DAC1744591113286AD7 REVERT 0xB2 0xB1 CHAINID DUP3 0xAF PUSH15 0xFCB58D39A26469706673582212206A SWAP11 EQ SGT 0x4F 0xB0 PUSH20 0xA726D0E5CB4D495BCF68924237CDF2867812FA7C 0xB7 INVALID TIMESTAMP SWAP14 DUP1 PUSH5 0x736F6C6343 STOP ADDMOD XOR STOP CALLER "},"methodIdentifiers":{"AI_ADDRESS()":"1939053d","COMMISSION_PCT()":"2c01c2c6","DIFFICULTY_MODIFIER()":"22377d9e","HOUSE_EDGE_PCT()":"b241b5ec","MAX_FLIP_COUNT()":"32b72f9c","MAX_PLAYERS()":"4411b3eb","MIN_BET()":"6540742f","MIN_FLIP_COUNT()":"3ba80729","MIN_PLAYERS()":"85f07bbe","cancelGame(uint256)":"69958ab9","computeCardOrder(uint256)":"e93362e2","createFreeGame(string,uint8,uint256,uint256,string)":"bbf39544","createGame(string,uint8,uint256,uint256,string)":"d35aea0a","depositHouseBalance()":"c8ab99c7","forceTieRefund(uint256)":"79ae8779","fulfillVRF(bytes32)":"96dbbbe8","gamePlayers(uint256,uint256)":"dfefef9f","games(uint256)":"117a5b90","getActiveGames()":"1b76929c","getGame(uint256)":"a2f77bcc","getGameCount()":"e87c0ee6","getGamePlayers(uint256)":"15a40f49","getLeaderboardEntry(address)":"3ef25c11","getPlayer(uint256,address)":"6454e58d","getPlayerGames(address)":"129daf84","houseBalance()":"67084eb3","joinGame(uint256,string)":"68880a26","leaderboard(address)":"d1d33d20","owner()":"8da5cb5b","playerGames(address,uint256)":"0a5694c2","players(uint256,address)":"c0f80921","pythVRF()":"772d84c4","renounceOwnership()":"715018a6","submitCompletion(uint256,uint256)":"eb22ebe0","transferOwnership(address)":"f2fde38b","treasuryBalance()":"313dab20","vrfRequests(bytes32)":"dec04e5f","weeklyRaffle(uint256,uint256)":"dddb07b3","weeklyTopPlayers(uint256,uint256)":"f3154298","withdrawHouseBalance(uint256)":"0014cdd5","withdrawTreasury()":"166bab95"}}}}}