{
  "_format": "hh-sol-artifact-1",
  "contractName": "CoinFlip",
  "sourceName": "contracts/casino/CoinFlip.sol",
  "abi": [
    {
      "inputs": [
        {
          "internalType": "address",
          "name": "_owner",
          "type": "address"
        },
        {
          "internalType": "address",
          "name": "_token",
          "type": "address"
        },
        {
          "internalType": "address",
          "name": "_pythVRF",
          "type": "address"
        }
      ],
      "stateMutability": "nonpayable",
      "type": "constructor"
    },
    {
      "inputs": [],
      "name": "BetTooHigh",
      "type": "error"
    },
    {
      "inputs": [],
      "name": "BetTooLow",
      "type": "error"
    },
    {
      "inputs": [
        {
          "internalType": "address",
          "name": "owner",
          "type": "address"
        }
      ],
      "name": "OwnableInvalidOwner",
      "type": "error"
    },
    {
      "inputs": [
        {
          "internalType": "address",
          "name": "account",
          "type": "address"
        }
      ],
      "name": "OwnableUnauthorizedAccount",
      "type": "error"
    },
    {
      "inputs": [],
      "name": "ReentrancyGuardReentrantCall",
      "type": "error"
    },
    {
      "inputs": [
        {
          "internalType": "address",
          "name": "token",
          "type": "address"
        }
      ],
      "name": "SafeERC20FailedOperation",
      "type": "error"
    },
    {
      "anonymous": false,
      "inputs": [
        {
          "indexed": true,
          "internalType": "uint256",
          "name": "gameId",
          "type": "uint256"
        },
        {
          "indexed": false,
          "internalType": "uint256",
          "name": "result",
          "type": "uint256"
        },
        {
          "indexed": false,
          "internalType": "uint256",
          "name": "reward",
          "type": "uint256"
        },
        {
          "indexed": false,
          "internalType": "uint8",
          "name": "streak",
          "type": "uint8"
        },
        {
          "indexed": false,
          "internalType": "uint256",
          "name": "lootRarity",
          "type": "uint256"
        }
      ],
      "name": "GameSettled",
      "type": "event"
    },
    {
      "anonymous": false,
      "inputs": [
        {
          "indexed": true,
          "internalType": "uint256",
          "name": "gameId",
          "type": "uint256"
        },
        {
          "indexed": true,
          "internalType": "address",
          "name": "player",
          "type": "address"
        }
      ],
      "name": "GameStarted",
      "type": "event"
    },
    {
      "anonymous": false,
      "inputs": [
        {
          "indexed": true,
          "internalType": "address",
          "name": "previousOwner",
          "type": "address"
        },
        {
          "indexed": true,
          "internalType": "address",
          "name": "newOwner",
          "type": "address"
        }
      ],
      "name": "OwnershipTransferred",
      "type": "event"
    },
    {
      "inputs": [],
      "name": "config",
      "outputs": [
        {
          "internalType": "address",
          "name": "treasury",
          "type": "address"
        },
        {
          "internalType": "uint256",
          "name": "minPlay",
          "type": "uint256"
        },
        {
          "internalType": "uint256",
          "name": "maxPlay",
          "type": "uint256"
        },
        {
          "internalType": "uint16",
          "name": "houseEdgeBps",
          "type": "uint16"
        },
        {
          "internalType": "bool",
          "name": "paused",
          "type": "bool"
        }
      ],
      "stateMutability": "view",
      "type": "function"
    },
    {
      "inputs": [
        {
          "internalType": "bytes32",
          "name": "requestId",
          "type": "bytes32"
        },
        {
          "internalType": "uint256",
          "name": "randomness",
          "type": "uint256"
        }
      ],
      "name": "fulfillRandomness",
      "outputs": [],
      "stateMutability": "nonpayable",
      "type": "function"
    },
    {
      "inputs": [],
      "name": "gameCounter",
      "outputs": [
        {
          "internalType": "uint256",
          "name": "",
          "type": "uint256"
        }
      ],
      "stateMutability": "view",
      "type": "function"
    },
    {
      "inputs": [
        {
          "internalType": "uint256",
          "name": "",
          "type": "uint256"
        }
      ],
      "name": "games",
      "outputs": [
        {
          "internalType": "address",
          "name": "player",
          "type": "address"
        },
        {
          "internalType": "uint256",
          "name": "gameId",
          "type": "uint256"
        },
        {
          "internalType": "uint256",
          "name": "result",
          "type": "uint256"
        },
        {
          "internalType": "uint256",
          "name": "reward",
          "type": "uint256"
        },
        {
          "internalType": "uint8",
          "name": "streak",
          "type": "uint8"
        },
        {
          "internalType": "uint256",
          "name": "lootRarity",
          "type": "uint256"
        }
      ],
      "stateMutability": "view",
      "type": "function"
    },
    {
      "inputs": [
        {
          "internalType": "uint256",
          "name": "gameId",
          "type": "uint256"
        }
      ],
      "name": "getGame",
      "outputs": [
        {
          "components": [
            {
              "internalType": "address",
              "name": "player",
              "type": "address"
            },
            {
              "internalType": "uint256",
              "name": "gameId",
              "type": "uint256"
            },
            {
              "internalType": "uint256",
              "name": "result",
              "type": "uint256"
            },
            {
              "internalType": "uint256",
              "name": "reward",
              "type": "uint256"
            },
            {
              "internalType": "uint8",
              "name": "streak",
              "type": "uint8"
            },
            {
              "internalType": "uint256",
              "name": "lootRarity",
              "type": "uint256"
            }
          ],
          "internalType": "struct CoinFlip.GameResult",
          "name": "",
          "type": "tuple"
        }
      ],
      "stateMutability": "view",
      "type": "function"
    },
    {
      "inputs": [
        {
          "internalType": "uint256",
          "name": "gameId",
          "type": "uint256"
        }
      ],
      "name": "getPendingGame",
      "outputs": [
        {
          "components": [
            {
              "internalType": "address",
              "name": "player",
              "type": "address"
            },
            {
              "internalType": "uint256",
              "name": "amount",
              "type": "uint256"
            },
            {
              "internalType": "uint8",
              "name": "choice",
              "type": "uint8"
            },
            {
              "internalType": "uint8",
              "name": "streak",
              "type": "uint8"
            },
            {
              "internalType": "uint256",
              "name": "multiplierBps",
              "type": "uint256"
            },
            {
              "internalType": "bool",
              "name": "cashOut",
              "type": "bool"
            }
          ],
          "internalType": "struct CoinFlip.PendingGame",
          "name": "",
          "type": "tuple"
        }
      ],
      "stateMutability": "view",
      "type": "function"
    },
    {
      "inputs": [],
      "name": "getPrizePool",
      "outputs": [
        {
          "internalType": "uint256",
          "name": "",
          "type": "uint256"
        }
      ],
      "stateMutability": "view",
      "type": "function"
    },
    {
      "inputs": [
        {
          "internalType": "address",
          "name": "treasury",
          "type": "address"
        },
        {
          "internalType": "uint256",
          "name": "minPlay",
          "type": "uint256"
        },
        {
          "internalType": "uint256",
          "name": "maxPlay",
          "type": "uint256"
        },
        {
          "internalType": "uint16",
          "name": "houseEdgeBps",
          "type": "uint16"
        }
      ],
      "name": "initialize",
      "outputs": [],
      "stateMutability": "nonpayable",
      "type": "function"
    },
    {
      "inputs": [],
      "name": "owner",
      "outputs": [
        {
          "internalType": "address",
          "name": "",
          "type": "address"
        }
      ],
      "stateMutability": "view",
      "type": "function"
    },
    {
      "inputs": [],
      "name": "pause",
      "outputs": [],
      "stateMutability": "nonpayable",
      "type": "function"
    },
    {
      "inputs": [
        {
          "internalType": "uint256",
          "name": "",
          "type": "uint256"
        }
      ],
      "name": "pendingGames",
      "outputs": [
        {
          "internalType": "address",
          "name": "player",
          "type": "address"
        },
        {
          "internalType": "uint256",
          "name": "amount",
          "type": "uint256"
        },
        {
          "internalType": "uint8",
          "name": "choice",
          "type": "uint8"
        },
        {
          "internalType": "uint8",
          "name": "streak",
          "type": "uint8"
        },
        {
          "internalType": "uint256",
          "name": "multiplierBps",
          "type": "uint256"
        },
        {
          "internalType": "bool",
          "name": "cashOut",
          "type": "bool"
        }
      ],
      "stateMutability": "view",
      "type": "function"
    },
    {
      "inputs": [
        {
          "internalType": "uint256",
          "name": "amount",
          "type": "uint256"
        },
        {
          "internalType": "uint8",
          "name": "choice",
          "type": "uint8"
        },
        {
          "internalType": "bool",
          "name": "cashOut",
          "type": "bool"
        }
      ],
      "name": "play",
      "outputs": [],
      "stateMutability": "payable",
      "type": "function"
    },
    {
      "inputs": [],
      "name": "prizePool",
      "outputs": [
        {
          "internalType": "uint256",
          "name": "",
          "type": "uint256"
        }
      ],
      "stateMutability": "view",
      "type": "function"
    },
    {
      "inputs": [],
      "name": "pythVRF",
      "outputs": [
        {
          "internalType": "contract IPythVRF",
          "name": "",
          "type": "address"
        }
      ],
      "stateMutability": "view",
      "type": "function"
    },
    {
      "inputs": [],
      "name": "renounceOwnership",
      "outputs": [],
      "stateMutability": "nonpayable",
      "type": "function"
    },
    {
      "inputs": [
        {
          "internalType": "address",
          "name": "_pythVRF",
          "type": "address"
        }
      ],
      "name": "setPythVRF",
      "outputs": [],
      "stateMutability": "nonpayable",
      "type": "function"
    },
    {
      "inputs": [],
      "name": "token",
      "outputs": [
        {
          "internalType": "address",
          "name": "",
          "type": "address"
        }
      ],
      "stateMutability": "view",
      "type": "function"
    },
    {
      "inputs": [
        {
          "internalType": "address",
          "name": "newOwner",
          "type": "address"
        }
      ],
      "name": "transferOwnership",
      "outputs": [],
      "stateMutability": "nonpayable",
      "type": "function"
    },
    {
      "inputs": [],
      "name": "unpause",
      "outputs": [],
      "stateMutability": "nonpayable",
      "type": "function"
    },
    {
      "inputs": [
        {
          "internalType": "bytes32",
          "name": "",
          "type": "bytes32"
        }
      ],
      "name": "vrfRequestToGame",
      "outputs": [
        {
          "internalType": "uint256",
          "name": "",
          "type": "uint256"
        }
      ],
      "stateMutability": "view",
      "type": "function"
    }
  ],
  "bytecode": "0x6080346100f057601f61117538819003918201601f19168301916001600160401b038311848410176100f5578084926060946040528339810103126100f0576100478161010b565b61005f60406100586020850161010b565b930161010b565b6001600160a01b03918216919082156100d757816000549460018060a01b03199480868816176000558260405197167f8be0079c531659141344cd1fd0a4f28419497f9722a3daafe3b4186f6b6457e0600080a360018055168360075416176007551690600654161760065561105590816101208239f35b604051631e4fbdf760e01b815260006004820152602490fd5b600080fd5b634e487b7160e01b600052604160045260246000fd5b51906001600160a01b03821682036100f05756fe608060408181526004918236101561001657600080fd5b600092833560e01c918263117a5b9014610ea4575081631f1f897f14610a465781632e0be39a14610a275781633d598f80146109765781633f4ba83a1461094e578163579e94ee146108e0578163715018a614610886578163719ce73e1461077d578163772d84c41461085d57816379502c551461080c57816383ba98ae146107cc5781638456cb591461079c578163884bf67c1461077d5781638a7626d1146107555781638da5cb5b1461072d578163a2f77bcc14610685578163caf5082814610288578163cbb6d6bd146101bc578163f2fde38b1461012c575063fc0c546a1461010157600080fd5b3461012857816003193601126101285760075490516001600160a01b039091168152602090f35b5080fd5b9050346101b85760203660031901126101b857610147610f0f565b90610150610ff3565b6001600160a01b039182169283156101a2575050600054826001600160601b0360a01b821617600055167f8be0079c531659141344cd1fd0a4f28419497f9722a3daafe3b4186f6b6457e0600080a380f35b51631e4fbdf760e01b8152908101849052602490fd5b8280fd5b919050346101b85760803660031901126101b8576101d8610f0f565b91602435604435926064359461ffff8616809603610284576101f8610ff3565b81519060a0820182811067ffffffffffffffff82111761026f5783526001600160a01b03168082526020820184905291810185905260608101869052608001869052600280546001600160a01b0319169091179055600355556005805462ffffff191690911782151560101b62ff00001617905580f35b604186634e487b7160e01b6000525260246000fd5b8680fd5b8391506060366003190112610128578035602493843560ff811680910361068157604435928315158094036104a9576001946002865414610673576002865560ff60055460101c16610648578583116106155760035481549083106106065782116105f8576007546001600160a01b039081168061054e575082340361051a57610317600a8404600954610f2a565b600955878080808685600254165af13d15610515573d67ffffffffffffffff811161050357865190610353601f8201601f191660200183610f9f565b81528960203d92013e5b156104cf575b600854986000198a146104be57508688990195866008558883875161038781610f6d565b3381528960209889988984019081528b8401918252878c60608601978089526080870195614c2c875260a088019a8b528152600a8d52209451166001600160601b0360a01b855416178455518d84015560028301905160ff169460ff1995868354161782555160ff1661040a919061ff0082549160081b169061ff001916179055565b5160038201550191511515908254169060ff16179055600654169084518098819363f8413b0760e01b83525af180156104b457839495879161047c575b508652600b905284205533907ffadb9547847a0c2c31f4c02590545e318d33d7aae99071caecf3fa4ce3cd7dca8480a3805580f35b82809550819392503d83116104ad575b6104968183610f9f565b810103126104a95751839290600b610447565b8580fd5b503d61048c565b82513d88823e3d90fd5b634e487b7160e01b89526011835288fd5b845162461bcd60e51b8152602081840152600f818b01526e151c985b9cd9995c8819985a5b1959608a1b6044820152606490fd5b634e487b7160e01b8a52604184528a8afd5b61035d565b845162461bcd60e51b8152602081840152600f818b01526e082dadeeadce840dad2e6dac2e8c6d608b1b6044820152606490fd5b61055d600a8504600954610f2a565b60095560025486516323b872dd60e01b6020808301918252338e84019081529386166001600160a01b03168482015260408401889052928c92906105ae90829060600103601f198101835282610f9f565b519082855af1156105ee57885188903d6105e7575050803b155b6105d25750610363565b828a91875191635274afe760e01b8352820152fd5b14156105c8565b85513d8a823e3d90fd5b8351631765320160e11b8152fd5b50835163989e301760e01b8152fd5b606490600e89602087519362461bcd60e51b85528401528201526d496e76616c69642063686f69636560901b6044820152fd5b606490600689602087519362461bcd60e51b85528401528201526514185d5cd95960d21b6044820152fd5b8351633ee5aeb560e01b8152fd5b8480fd5b9050346101b85760203660031901126101b85760ff8260c0946106a6610fc1565b5083358152600c602052208351926106bd84610f6d565b60018060a01b038254169485855260018301546020860190815260028401549082870191825260a060058760038801549660608b01978852880154169660808a019788520154970196875282519788525160208801525190860152516060850152511660808301525160a0820152f35b505034610128578160031936011261012857905490516001600160a01b039091168152602090f35b9050346101b85760203660031901126101b8576020928291358152600b845220549051908152f35b5050346101285781600319360112610128576020906009549051908152f35b83346107c957806003193601126107c9576107b5610ff3565b6201000062ff000019600554161760055580f35b80fd5b83346107c95760203660031901126107c9576107e6610f0f565b6107ee610ff3565b60018060a01b03166001600160601b0360a01b600654161760065580f35b8284346107c957806003193601126107c9575060ff60a092600180851b036002541692600354915490600554928151958652602086015284015261ffff8116606084015260101c1615156080820152f35b50503461012857816003193601126101285760065490516001600160a01b039091168152602090f35b83346107c957806003193601126107c95761089f610ff3565b600080546001600160a01b0319811682556001600160a01b03167f8be0079c531659141344cd1fd0a4f28419497f9722a3daafe3b4186f6b6457e08280a380f35b919050346101b85760203660031901126101b8578060c09383358152600a6020522060ff60018060a01b03825416936001830154938260028501549260038601549501541694815196875260208701528282169086015260081c1660608401526080830152151560a0820152f35b83346107c957806003193601126107c957610967610ff3565b62ff0000196005541660055580f35b9050346101b85760203660031901126101b8578160c093610995610fc1565b5082358152600a6020522060ff8351926109ae84610f6d565b60018060a01b0383541694858552826001850154926020870193845260028601549360a083858a019381881685528160608c019860081c16885260038a01549960808c019a8b520154169801971515885283519889525160208901525116908601525116606084015251608083015251151560a0820152f35b5050346101285781600319360112610128576020906008549051908152f35b839150346101285782600319360112610128576006546001600160a01b0393602480359380359390929087163303610e7757838652602091600b83528187205495868852600a84528288208981541615610e465760018216966103e88a930696600283019283549460ff958b87821614600014610df1575050600185855460081c1601858111610ddf57845461ff00191660089190911b61ff0016178455600381018054906101f48201809211610dcd5791610b338e9f928e9f9e94819055600183015490610b2c61ffff6005541692610b24612710938492610f4d565b049283610f4d565b0490610f60565b978785830154168015610dbc575b610c44575b509460058b7fd5b65df4dc0d2194a29b00663ea8f73bfe23b2752581682c4061c5db55b87a189e948a60809f9e9d9c9b9a998f90878f8f90600c908f949b8b9f9e9c5b54169a549783519b610b9a8d610f6d565b8c52818c0195818752848d0197885260608d0198895260808d019960081c16895260a08c01998a528d52528a209751166001600160601b0360a01b8854161787555160018701555160028601555160038501558885850191511660ff1982541617905551910155600a885286822082815582600182015582600282015582600382015501558b52600b85528a848120555460081c169282519586528501528301526060820152a280f35b92509a9998979b90968160058b109283600014610d84575050600a8102818104600a1482151715610d7157918f92916064610c8b9304915b80610d66575b610d4157610f2a565b918760025416918c89806007541691541693803b156101b8578f5163a00c695160e01b81526001600160a01b0392831688820190815292909516602083015260408201869052849182908490829060600103925af18015610d3557610d01575b508d9b999a9899979891968d9290915081610b46565b67ffffffffffffffff969e929495968211610d2457508b529b939291818b610ceb565b634e487b7160e01b83526041845282fd5b8f8e51903d90823e3d90fd5b90610d609060095490610d58600a83048093610f60565b600955610f2a565b90610f2a565b506009541515610c82565b50634e487b7160e01b8f5260118452828ffd5b909160148c10610d99575b610c8b9293610c7c565b809250600591500281810460051482151715610d71578f91606490910490610d8f565b50600588885460081c161015610b41565b634e487b7160e01b8e5260118452878efd5b634e487b7160e01b8d5260118352868dfd5b8897509460058e9f9b8e9f949e7fd5b65df4dc0d2194a29b00663ea8f73bfe23b2752581682c4061c5db55b87a189f9460809f9e8f909b849f9e9c8f9d600c859f849f8b9f9e9c859161ff0019168d55610b89565b835162461bcd60e51b8152808701869052600c818501526b496e76616c69642067616d6560a01b6044820152606490fd5b606492916020600892519362461bcd60e51b85528401528201526727b7363c902b292360c11b6044820152fd5b92915034610f0b576020366003190112610f0b578160c09482358152600c602052209060018060a01b0382541692600183015490600284015491600560ff6003870154958701541695015495875260208701528501526060840152608083015260a0820152f35b8380fd5b600435906001600160a01b0382168203610f2557565b600080fd5b91908201809211610f3757565b634e487b7160e01b600052601160045260246000fd5b81810292918115918404141715610f3757565b91908203918211610f3757565b60c0810190811067ffffffffffffffff821117610f8957604052565b634e487b7160e01b600052604160045260246000fd5b90601f8019910116810190811067ffffffffffffffff821117610f8957604052565b60405190610fce82610f6d565b8160a06000918281528260208201528260408201528260608201528260808201520152565b6000546001600160a01b0316330361100757565b60405163118cdaa760e01b8152336004820152602490fdfea2646970667358221220e8da46b6183b3ab9c5f794aaaadca1c9fddc73b6bb53fd4fd16bc8ea94a098f164736f6c63430008180033",
  "linkReferences": {},
  "deployedLinkReferences": {}
}