{
  "_format": "hh-sol-artifact-1",
  "contractName": "Slots",
  "sourceName": "contracts/casino/Slots.sol",
  "abi": [
    {
      "inputs": [
        {
          "internalType": "address",
          "name": "_owner",
          "type": "address"
        },
        {
          "internalType": "address",
          "name": "_token",
          "type": "address"
        },
        {
          "internalType": "address",
          "name": "_pythVRF",
          "type": "address"
        }
      ],
      "stateMutability": "nonpayable",
      "type": "constructor"
    },
    {
      "inputs": [],
      "name": "BetTooHigh",
      "type": "error"
    },
    {
      "inputs": [],
      "name": "BetTooLow",
      "type": "error"
    },
    {
      "inputs": [
        {
          "internalType": "address",
          "name": "owner",
          "type": "address"
        }
      ],
      "name": "OwnableInvalidOwner",
      "type": "error"
    },
    {
      "inputs": [
        {
          "internalType": "address",
          "name": "account",
          "type": "address"
        }
      ],
      "name": "OwnableUnauthorizedAccount",
      "type": "error"
    },
    {
      "inputs": [],
      "name": "ReentrancyGuardReentrantCall",
      "type": "error"
    },
    {
      "inputs": [
        {
          "internalType": "address",
          "name": "token",
          "type": "address"
        }
      ],
      "name": "SafeERC20FailedOperation",
      "type": "error"
    },
    {
      "anonymous": false,
      "inputs": [
        {
          "indexed": true,
          "internalType": "uint256",
          "name": "gameId",
          "type": "uint256"
        },
        {
          "indexed": false,
          "internalType": "uint8",
          "name": "reel1",
          "type": "uint8"
        },
        {
          "indexed": false,
          "internalType": "uint8",
          "name": "reel2",
          "type": "uint8"
        },
        {
          "indexed": false,
          "internalType": "uint8",
          "name": "reel3",
          "type": "uint8"
        },
        {
          "indexed": false,
          "internalType": "uint256",
          "name": "multiplier",
          "type": "uint256"
        },
        {
          "indexed": false,
          "internalType": "uint256",
          "name": "reward",
          "type": "uint256"
        },
        {
          "indexed": false,
          "internalType": "uint8",
          "name": "streak",
          "type": "uint8"
        },
        {
          "indexed": false,
          "internalType": "uint256",
          "name": "lootRarity",
          "type": "uint256"
        }
      ],
      "name": "GameSettled",
      "type": "event"
    },
    {
      "anonymous": false,
      "inputs": [
        {
          "indexed": true,
          "internalType": "uint256",
          "name": "gameId",
          "type": "uint256"
        },
        {
          "indexed": true,
          "internalType": "address",
          "name": "player",
          "type": "address"
        }
      ],
      "name": "GameStarted",
      "type": "event"
    },
    {
      "anonymous": false,
      "inputs": [
        {
          "indexed": true,
          "internalType": "address",
          "name": "previousOwner",
          "type": "address"
        },
        {
          "indexed": true,
          "internalType": "address",
          "name": "newOwner",
          "type": "address"
        }
      ],
      "name": "OwnershipTransferred",
      "type": "event"
    },
    {
      "inputs": [],
      "name": "MAX_MULTIPLIER_BPS",
      "outputs": [
        {
          "internalType": "uint256",
          "name": "",
          "type": "uint256"
        }
      ],
      "stateMutability": "view",
      "type": "function"
    },
    {
      "inputs": [],
      "name": "config",
      "outputs": [
        {
          "internalType": "address",
          "name": "treasury",
          "type": "address"
        },
        {
          "internalType": "uint256",
          "name": "minPlay",
          "type": "uint256"
        },
        {
          "internalType": "uint256",
          "name": "maxPlay",
          "type": "uint256"
        },
        {
          "internalType": "uint16",
          "name": "houseEdgeBps",
          "type": "uint16"
        },
        {
          "internalType": "bool",
          "name": "paused",
          "type": "bool"
        }
      ],
      "stateMutability": "view",
      "type": "function"
    },
    {
      "inputs": [
        {
          "internalType": "bytes32",
          "name": "requestId",
          "type": "bytes32"
        },
        {
          "internalType": "uint256",
          "name": "randomness",
          "type": "uint256"
        }
      ],
      "name": "fulfillRandomness",
      "outputs": [],
      "stateMutability": "nonpayable",
      "type": "function"
    },
    {
      "inputs": [],
      "name": "gameCounter",
      "outputs": [
        {
          "internalType": "uint256",
          "name": "",
          "type": "uint256"
        }
      ],
      "stateMutability": "view",
      "type": "function"
    },
    {
      "inputs": [
        {
          "internalType": "uint256",
          "name": "",
          "type": "uint256"
        }
      ],
      "name": "games",
      "outputs": [
        {
          "internalType": "address",
          "name": "player",
          "type": "address"
        },
        {
          "internalType": "uint256",
          "name": "gameId",
          "type": "uint256"
        },
        {
          "internalType": "uint8",
          "name": "reel1",
          "type": "uint8"
        },
        {
          "internalType": "uint8",
          "name": "reel2",
          "type": "uint8"
        },
        {
          "internalType": "uint8",
          "name": "reel3",
          "type": "uint8"
        },
        {
          "internalType": "uint256",
          "name": "multiplier",
          "type": "uint256"
        },
        {
          "internalType": "uint256",
          "name": "reward",
          "type": "uint256"
        },
        {
          "internalType": "uint8",
          "name": "streak",
          "type": "uint8"
        },
        {
          "internalType": "uint256",
          "name": "lootRarity",
          "type": "uint256"
        }
      ],
      "stateMutability": "view",
      "type": "function"
    },
    {
      "inputs": [
        {
          "internalType": "uint256",
          "name": "gameId",
          "type": "uint256"
        }
      ],
      "name": "getGame",
      "outputs": [
        {
          "components": [
            {
              "internalType": "address",
              "name": "player",
              "type": "address"
            },
            {
              "internalType": "uint256",
              "name": "gameId",
              "type": "uint256"
            },
            {
              "internalType": "uint8",
              "name": "reel1",
              "type": "uint8"
            },
            {
              "internalType": "uint8",
              "name": "reel2",
              "type": "uint8"
            },
            {
              "internalType": "uint8",
              "name": "reel3",
              "type": "uint8"
            },
            {
              "internalType": "uint256",
              "name": "multiplier",
              "type": "uint256"
            },
            {
              "internalType": "uint256",
              "name": "reward",
              "type": "uint256"
            },
            {
              "internalType": "uint8",
              "name": "streak",
              "type": "uint8"
            },
            {
              "internalType": "uint256",
              "name": "lootRarity",
              "type": "uint256"
            }
          ],
          "internalType": "struct Slots.GameResult",
          "name": "",
          "type": "tuple"
        }
      ],
      "stateMutability": "view",
      "type": "function"
    },
    {
      "inputs": [
        {
          "internalType": "uint256",
          "name": "gameId",
          "type": "uint256"
        }
      ],
      "name": "getPendingGame",
      "outputs": [
        {
          "components": [
            {
              "internalType": "address",
              "name": "player",
              "type": "address"
            },
            {
              "internalType": "uint256",
              "name": "amount",
              "type": "uint256"
            }
          ],
          "internalType": "struct Slots.PendingGame",
          "name": "",
          "type": "tuple"
        }
      ],
      "stateMutability": "view",
      "type": "function"
    },
    {
      "inputs": [],
      "name": "getPrizePool",
      "outputs": [
        {
          "internalType": "uint256",
          "name": "",
          "type": "uint256"
        }
      ],
      "stateMutability": "view",
      "type": "function"
    },
    {
      "inputs": [
        {
          "internalType": "address",
          "name": "treasury",
          "type": "address"
        },
        {
          "internalType": "uint256",
          "name": "minPlay",
          "type": "uint256"
        },
        {
          "internalType": "uint256",
          "name": "maxPlay",
          "type": "uint256"
        },
        {
          "internalType": "uint16",
          "name": "houseEdgeBps",
          "type": "uint16"
        }
      ],
      "name": "initialize",
      "outputs": [],
      "stateMutability": "nonpayable",
      "type": "function"
    },
    {
      "inputs": [],
      "name": "owner",
      "outputs": [
        {
          "internalType": "address",
          "name": "",
          "type": "address"
        }
      ],
      "stateMutability": "view",
      "type": "function"
    },
    {
      "inputs": [],
      "name": "pause",
      "outputs": [],
      "stateMutability": "nonpayable",
      "type": "function"
    },
    {
      "inputs": [
        {
          "internalType": "uint256",
          "name": "",
          "type": "uint256"
        }
      ],
      "name": "pendingGames",
      "outputs": [
        {
          "internalType": "address",
          "name": "player",
          "type": "address"
        },
        {
          "internalType": "uint256",
          "name": "amount",
          "type": "uint256"
        }
      ],
      "stateMutability": "view",
      "type": "function"
    },
    {
      "inputs": [
        {
          "internalType": "address",
          "name": "",
          "type": "address"
        }
      ],
      "name": "playerStreaks",
      "outputs": [
        {
          "internalType": "uint8",
          "name": "",
          "type": "uint8"
        }
      ],
      "stateMutability": "view",
      "type": "function"
    },
    {
      "inputs": [],
      "name": "prizePool",
      "outputs": [
        {
          "internalType": "uint256",
          "name": "",
          "type": "uint256"
        }
      ],
      "stateMutability": "view",
      "type": "function"
    },
    {
      "inputs": [],
      "name": "pythVRF",
      "outputs": [
        {
          "internalType": "contract IPythVRF",
          "name": "",
          "type": "address"
        }
      ],
      "stateMutability": "view",
      "type": "function"
    },
    {
      "inputs": [],
      "name": "renounceOwnership",
      "outputs": [],
      "stateMutability": "nonpayable",
      "type": "function"
    },
    {
      "inputs": [
        {
          "internalType": "address",
          "name": "_pythVRF",
          "type": "address"
        }
      ],
      "name": "setPythVRF",
      "outputs": [],
      "stateMutability": "nonpayable",
      "type": "function"
    },
    {
      "inputs": [
        {
          "internalType": "uint256",
          "name": "amount",
          "type": "uint256"
        }
      ],
      "name": "spin",
      "outputs": [],
      "stateMutability": "payable",
      "type": "function"
    },
    {
      "inputs": [],
      "name": "token",
      "outputs": [
        {
          "internalType": "address",
          "name": "",
          "type": "address"
        }
      ],
      "stateMutability": "view",
      "type": "function"
    },
    {
      "inputs": [
        {
          "internalType": "address",
          "name": "newOwner",
          "type": "address"
        }
      ],
      "name": "transferOwnership",
      "outputs": [],
      "stateMutability": "nonpayable",
      "type": "function"
    },
    {
      "inputs": [],
      "name": "unpause",
      "outputs": [],
      "stateMutability": "nonpayable",
      "type": "function"
    },
    {
      "inputs": [
        {
          "internalType": "bytes32",
          "name": "",
          "type": "bytes32"
        }
      ],
      "name": "vrfRequestToGame",
      "outputs": [
        {
          "internalType": "uint256",
          "name": "",
          "type": "uint256"
        }
      ],
      "stateMutability": "view",
      "type": "function"
    }
  ],
  "bytecode": "0x6080346100f057601f6112ba38819003918201601f19168301916001600160401b038311848410176100f5578084926060946040528339810103126100f0576100478161010b565b61005f60406100586020850161010b565b930161010b565b6001600160a01b03918216919082156100d757816000549460018060a01b03199480868816176000558260405197167f8be0079c531659141344cd1fd0a4f28419497f9722a3daafe3b4186f6b6457e0600080a360018055168360075416176007551690600654161760065561119a90816101208239f35b604051631e4fbdf760e01b815260006004820152602490fd5b600080fd5b634e487b7160e01b600052604160045260246000fd5b51906001600160a01b03821682036100f05756fe608080604052600436101561001357600080fd5b600090813560e01c908163117a5b9014610f3f575080631f1f897f146109f85780632e0be39a146109da5780633d598f80146109735780633f4ba83a1461094b578063579e94ee14610910578063715018a6146108b6578063719ce73e146107b2578063772d84c41461088d57806379502c551461083d57806383ba98ae146107fd5780638456cb59146107d0578063884bf67c146107b25780638a7626d1146107885780638da5cb5b14610761578063a2f77bcc1461062c578063a5b6ea8f146102f1578063cbb6d6bd14610224578063ecf2343214610206578063f2fde38b1461017b578063fc0c546a146101525763fee1c5ee1461011357600080fd5b3461014f57602036600319011261014f5760209060ff906040906001600160a01b0361013d610fcd565b168152600a8452205416604051908152f35b80fd5b503461014f578060031936011261014f576007546040516001600160a01b039091168152602090f35b503461014f57602036600319011261014f57610195610fcd565b61019d611138565b6001600160a01b039081169081156101ed57600054826001600160601b0360a01b821617600055167f8be0079c531659141344cd1fd0a4f28419497f9722a3daafe3b4186f6b6457e0600080a380f35b604051631e4fbdf760e01b815260048101849052602490fd5b503461014f578060031936011261014f5760206040516207a1208152f35b503461014f57608036600319011261014f5761023e610fcd565b602435604435906064359261ffff84168094036102ed5761025d611138565b6040519060a0820182811067ffffffffffffffff8211176102d757869160809160405260018060a01b03169283815284602082015285604082015286606082015201526001600160601b0360a01b60025416176002556003556004556005549062ff000083151560101b169162ffffff1916171760055580f35b634e487b7160e01b600052604160045260246000fd5b8480fd5b50602080600319360112610628576004356001916002835414610616576002835560ff60055460101c166105e9576003546004549083106105d75782116105c5576007546001600160a01b039081168061052c57508234036104f55761035c600a8404600954611088565b600955848080808685600254165af13d156104f0573d67ffffffffffffffff81116104dc5760405190610398601f8201601f191686018361103d565b815286843d92013e5b156104a5575b60085460001981146104915791809185879401948560085586604051916103cd83611005565b338352848301908152878752600b855283604088209351166001600160601b0360a01b845416178355519101556006541660046040518095819363f8413b0760e01b83525af18015610486578590610458575b600c925085525280604084205533907ffadb9547847a0c2c31f4c02590545e318d33d7aae99071caecf3fa4ce3cd7dca8480a3805580f35b508082813d831161047f575b61046e818361103d565b810103126102ed57600c9151610420565b503d610464565b6040513d87823e3d90fd5b634e487b7160e01b86526011600452602486fd5b60405162461bcd60e51b815260048101839052600f60248201526e151c985b9cd9995c8819985a5b1959608a1b6044820152606490fd5b634e487b7160e01b87526041600452602487fd5b6103a1565b60405162461bcd60e51b815260048101839052600f60248201526e082dadeeadce840dad2e6dac2e8c6d608b1b6044820152606490fd5b61053b600a8504600954611088565b6009556002546040516323b872dd60e01b8582019081523360248301529184166001600160a01b03166044820152606480820187905281528491889161058260848261103d565b519082855af11561048657855185903d6105be575050803b155b6105a657506103a7565b60249060405190635274afe760e01b82526004820152fd5b141561059c565b604051631765320160e11b8152600490fd5b60405163989e301760e01b8152600490fd5b6064906040519062461bcd60e51b82526004820152600660248201526514185d5cd95960d21b6044820152fd5b604051633ee5aeb560e01b8152600490fd5b5080fd5b503461014f57602036600319011261014f5760408161012092610100835161065381610fe8565b82815282602082015282858201528260608201528260808201528260a08201528260c08201528260e082015201526004358152600d6020522061010060405161069b81610fe8565b600660018060a01b03845416938483526001810154602084015260ff60028201548181166040860152818160081c16606086015260101c166080840152600381015460a0840152600481015460c084015260ff60058201541660e08401520154828201526040519283526020810151602084015260ff604082015116604084015260ff606082015116606084015260ff608082015116608084015260a081015160a084015260c081015160c084015260ff60e08201511660e08401520151610100820152f35b503461014f578060031936011261014f57546040516001600160a01b039091168152602090f35b503461014f57602036600319011261014f5760406020916004358152600c83522054604051908152f35b503461014f578060031936011261014f576020600954604051908152f35b503461014f578060031936011261014f576107e9611138565b6201000062ff000019600554161760055580f35b503461014f57602036600319011261014f57610817610fcd565b61081f611138565b60018060a01b03166001600160601b0360a01b600654161760065580f35b503461014f578060031936011261014f5760a0600180821b036002541660ff600354600454600554916040519485526020850152604084015261ffff8116606084015260101c1615156080820152f35b503461014f578060031936011261014f576006546040516001600160a01b039091168152602090f35b503461014f578060031936011261014f576108cf611138565b600080546001600160a01b0319811682556001600160a01b03167f8be0079c531659141344cd1fd0a4f28419497f9722a3daafe3b4186f6b6457e08280a380f35b503461014f57602036600319011261014f57604080916004358152600b602052206001808060a01b0382541691015482519182526020820152f35b503461014f578060031936011261014f57610964611138565b62ff0000196005541660055580f35b503461014f57602036600319011261014f5760408181926020835161099781611005565b82815201526004358152600b6020522081516109b281611005565b81546001600160a01b0316808252600190920154602091820190815283519283525190820152f35b503461014f578060031936011261014f576020600854604051908152f35b503461014f57604036600319011261014f5760065460243591906001600160a01b03163303610f0f576004358152600c6020526040812054808252600b602052604082209260018060a01b03845416908115610edb5760405160208101908282526001604082015260408152610a6d81611021565b5190209160405160208101908382526002604082015260408152610a9081611021565b5190209060405160208101908482526003604082015260408152610ab381611021565b51902090610ad460ff600784061660ff600786061660ff60078906166110a2565b908115610ec3575087546001600160a01b03168752600a60205260408720805460ff808216600101908111610e565760ff1990911660ff9182161790915588546001600160a01b03168852600a60205260408820546103e8911681810292918115918404141715610eaf57610b56919062030d40808311610ea7575b50611088565b6207a120808211610e9f575b50610b94600189015482610b8d61ffff6005541692610b8561271093849261105f565b04928361105f565b0490611095565b60056103e886061090888215610e6a5750600a8102818104600a1482151715610e5657906064610bd1939204915b80610e4b575b610e2657611088565b9182610d6f575b918160ff6007858282818e9f8e9f7fbfe272ccb2aae70e6aea9a2a87917e1a3bdea7a0d7469f17861bea19081de6ad9f9160e09f9e9c8f6103e89f9d8f90958f8f909760069460409960018060a01b0389541697888b52600a6020528c8c8c205416958c5199610c478b610fe8565b8a5260208a01908082528f8f908f8d0196061685528f8f9060608d0195061684528f8f9060808d01940616835260a08b0195865260c08b0196875260e08b019788526103e86101008c01990689528c52600d6020528c8c209960018060a01b039051166001600160601b0360a01b8b5416178a555160018a01558c60028a0193511662ff000061ff008554945160081b16925160101b169262ffffff191617171790555160038601555160048501558760058501915116881982541617905551910155600b60205281600184822082815501556004358252600c602052818381205560018060a01b039054168152600a6020522054169782826040519d06168c52061660208a0152061660408701526060860152608085015260a08401520660c0820152a280f35b6002546007548a546001600160a01b039081169b929181169116803b15610e225760405163a00c695160e01b81526001600160a01b0392831660048201529b90911660248c015260448b0185905289908b90606490829084905af18015610e1757610ddc575b9850610bd8565b9697909594939867ffffffffffffffff8111610e0357604052969593949293889390610dd5565b634e487b7160e01b82526041600452602482fd5b6040513d8b823e3d90fd5b8a80fd5b90610e459060095490610e3d600a83048093611095565b600955611088565b90611088565b506009541515610bc8565b634e487b7160e01b8a52601160045260248afd5b9060146103e8880610610e81575b610bd192610bc2565b90506005810281810460051482151715610e56576064900490610e78565b905038610b62565b915038610b50565b634e487b7160e01b88526011600452602488fd5b8752600a60205260408720805460ff19169055610b56565b60405162461bcd60e51b815260206004820152600c60248201526b496e76616c69642067616d6560a01b6044820152606490fd5b60405162461bcd60e51b815260206004820152600860248201526727b7363c902b292360c11b6044820152606490fd5b905034610628576020366003190112610628576040610120926004358152600d6020522060018060a01b03815416906001810154600282015460ff60038401549160048501549360068360058801541696015496885260208801528181166040880152818160081c16606088015260101c16608086015260a085015260c084015260e0830152610100820152f35b600435906001600160a01b0382168203610fe357565b600080fd5b610120810190811067ffffffffffffffff8211176102d757604052565b6040810190811067ffffffffffffffff8211176102d757604052565b6060810190811067ffffffffffffffff8211176102d757604052565b90601f8019910116810190811067ffffffffffffffff8211176102d757604052565b8181029291811591840414171561107257565b634e487b7160e01b600052601160045260246000fd5b9190820180921161107257565b9190820391821161107257565b60ff90811691168181149290838061112c575b156110f15750509050600681146110e957600581146110e1576004146110db57614e2090565b61c35090565b50620186a090565b506203d09090565b831561111f575b508215611112575b50501561110d5761271090565b600090565b60ff161490503880611100565b60ff8216149250386110f8565b5060ff821681146110b5565b6000546001600160a01b0316330361114c57565b60405163118cdaa760e01b8152336004820152602490fdfea2646970667358221220397888d6d334171dd0618bd39264091ceb99f93787cd280a127cfe2cb33f57ee64736f6c63430008180033",
  "linkReferences": {},
  "deployedLinkReferences": {}
}