{
  "_format": "hh-sol-artifact-1",
  "contractName": "CasinoTreasury",
  "sourceName": "contracts/casino/CasinoTreasury.sol",
  "abi": [
    {
      "inputs": [
        {
          "internalType": "address",
          "name": "_owner",
          "type": "address"
        }
      ],
      "stateMutability": "nonpayable",
      "type": "constructor"
    },
    {
      "inputs": [
        {
          "internalType": "address",
          "name": "owner",
          "type": "address"
        }
      ],
      "name": "OwnableInvalidOwner",
      "type": "error"
    },
    {
      "inputs": [
        {
          "internalType": "address",
          "name": "account",
          "type": "address"
        }
      ],
      "name": "OwnableUnauthorizedAccount",
      "type": "error"
    },
    {
      "inputs": [],
      "name": "ReentrancyGuardReentrantCall",
      "type": "error"
    },
    {
      "inputs": [
        {
          "internalType": "address",
          "name": "token",
          "type": "address"
        }
      ],
      "name": "SafeERC20FailedOperation",
      "type": "error"
    },
    {
      "anonymous": false,
      "inputs": [
        {
          "indexed": true,
          "internalType": "address",
          "name": "token",
          "type": "address"
        },
        {
          "indexed": false,
          "internalType": "uint256",
          "name": "amount",
          "type": "uint256"
        }
      ],
      "name": "FundsDeposited",
      "type": "event"
    },
    {
      "anonymous": false,
      "inputs": [
        {
          "indexed": true,
          "internalType": "address",
          "name": "token",
          "type": "address"
        },
        {
          "indexed": false,
          "internalType": "uint256",
          "name": "amount",
          "type": "uint256"
        },
        {
          "indexed": false,
          "internalType": "address",
          "name": "to",
          "type": "address"
        }
      ],
      "name": "FundsWithdrawn",
      "type": "event"
    },
    {
      "anonymous": false,
      "inputs": [
        {
          "indexed": true,
          "internalType": "address",
          "name": "game",
          "type": "address"
        }
      ],
      "name": "GameAuthorized",
      "type": "event"
    },
    {
      "anonymous": false,
      "inputs": [
        {
          "indexed": true,
          "internalType": "address",
          "name": "game",
          "type": "address"
        }
      ],
      "name": "GameRevoked",
      "type": "event"
    },
    {
      "anonymous": false,
      "inputs": [
        {
          "indexed": true,
          "internalType": "address",
          "name": "previousOwner",
          "type": "address"
        },
        {
          "indexed": true,
          "internalType": "address",
          "name": "newOwner",
          "type": "address"
        }
      ],
      "name": "OwnershipTransferred",
      "type": "event"
    },
    {
      "anonymous": false,
      "inputs": [],
      "name": "Paused",
      "type": "event"
    },
    {
      "anonymous": false,
      "inputs": [],
      "name": "Unpaused",
      "type": "event"
    },
    {
      "inputs": [
        {
          "internalType": "address",
          "name": "game",
          "type": "address"
        }
      ],
      "name": "authorizeGame",
      "outputs": [],
      "stateMutability": "nonpayable",
      "type": "function"
    },
    {
      "inputs": [
        {
          "internalType": "address",
          "name": "",
          "type": "address"
        }
      ],
      "name": "authorizedGames",
      "outputs": [
        {
          "internalType": "bool",
          "name": "",
          "type": "bool"
        }
      ],
      "stateMutability": "view",
      "type": "function"
    },
    {
      "inputs": [
        {
          "internalType": "address",
          "name": "token",
          "type": "address"
        },
        {
          "internalType": "uint256",
          "name": "amount",
          "type": "uint256"
        }
      ],
      "name": "deposit",
      "outputs": [],
      "stateMutability": "payable",
      "type": "function"
    },
    {
      "inputs": [
        {
          "internalType": "address",
          "name": "token",
          "type": "address"
        }
      ],
      "name": "getBalance",
      "outputs": [
        {
          "internalType": "uint256",
          "name": "",
          "type": "uint256"
        }
      ],
      "stateMutability": "view",
      "type": "function"
    },
    {
      "inputs": [],
      "name": "owner",
      "outputs": [
        {
          "internalType": "address",
          "name": "",
          "type": "address"
        }
      ],
      "stateMutability": "view",
      "type": "function"
    },
    {
      "inputs": [],
      "name": "pause",
      "outputs": [],
      "stateMutability": "nonpayable",
      "type": "function"
    },
    {
      "inputs": [],
      "name": "paused",
      "outputs": [
        {
          "internalType": "bool",
          "name": "",
          "type": "bool"
        }
      ],
      "stateMutability": "view",
      "type": "function"
    },
    {
      "inputs": [
        {
          "internalType": "address",
          "name": "token",
          "type": "address"
        },
        {
          "internalType": "address",
          "name": "recipient",
          "type": "address"
        },
        {
          "internalType": "uint256",
          "name": "amount",
          "type": "uint256"
        }
      ],
      "name": "payOut",
      "outputs": [],
      "stateMutability": "nonpayable",
      "type": "function"
    },
    {
      "inputs": [],
      "name": "renounceOwnership",
      "outputs": [],
      "stateMutability": "nonpayable",
      "type": "function"
    },
    {
      "inputs": [
        {
          "internalType": "address",
          "name": "game",
          "type": "address"
        }
      ],
      "name": "revokeGame",
      "outputs": [],
      "stateMutability": "nonpayable",
      "type": "function"
    },
    {
      "inputs": [
        {
          "internalType": "address",
          "name": "newOwner",
          "type": "address"
        }
      ],
      "name": "transferOwnership",
      "outputs": [],
      "stateMutability": "nonpayable",
      "type": "function"
    },
    {
      "inputs": [
        {
          "internalType": "address",
          "name": "token",
          "type": "address"
        },
        {
          "internalType": "address",
          "name": "game",
          "type": "address"
        },
        {
          "internalType": "uint256",
          "name": "amount",
          "type": "uint256"
        }
      ],
      "name": "transferToGame",
      "outputs": [],
      "stateMutability": "nonpayable",
      "type": "function"
    },
    {
      "inputs": [],
      "name": "unpause",
      "outputs": [],
      "stateMutability": "nonpayable",
      "type": "function"
    },
    {
      "inputs": [
        {
          "internalType": "address",
          "name": "token",
          "type": "address"
        },
        {
          "internalType": "uint256",
          "name": "amount",
          "type": "uint256"
        },
        {
          "internalType": "address",
          "name": "to",
          "type": "address"
        }
      ],
      "name": "withdraw",
      "outputs": [],
      "stateMutability": "nonpayable",
      "type": "function"
    },
    {
      "stateMutability": "payable",
      "type": "receive"
    }
  ],
  "bytecode": "0x6080346100c957601f610c2138819003918201601f19168301916001600160401b038311848410176100ce578084926020946040528339810103126100c957516001600160a01b0390818116908190036100c95780156100b057600080546001600160a01b03198116831782556040519316907f8be0079c531659141344cd1fd0a4f28419497f9722a3daafe3b4186f6b6457e09080a36001805560ff1960035416600355610b3c90816100e58239f35b604051631e4fbdf760e01b815260006004820152602490fd5b600080fd5b634e487b7160e01b600052604160045260246000fdfe604060808152600480361015610049575b50361561001c57600080fd5b7f543ba50a5eec5e6178218e364b1d0f396157b3c8fa278522c2cb7fd99407d474602060009251348152a2005b600090813560e01c90816301e086e1146107875781633f4ba83a1461073d57816347e7ef241461060b5781635c975abb146105e75781635e4402df1461057e57816369328dec14610467578163715018a61461040d5781638456cb59146103bd5781638da5cb5b146103955781639e492b9914610357578163a00c69511461023d578163c6650265146101a8578163f2fde38b1461011c575063f8b2cb4f036100105790346101185760203660031901126101185760209061011161010c6107ed565b6109ae565b9051908152f35b5080fd5b839150346101a45760203660031901126101a4576101386107ed565b90610141610a2c565b6001600160a01b0391821692831561018e57505082546001600160a01b0319811683178455167f8be0079c531659141344cd1fd0a4f28419497f9722a3daafe3b4186f6b6457e08380a380f35b51631e4fbdf760e01b8152908101849052602490fd5b8280fd5b8280853461023a5760ff906101bc36610808565b939091923386526002602052852054168015610227575b6101dc90610971565b6101eb60ff600354161561083d565b6001600160a01b039182168061021a575092808093819361021796165af16102116108f3565b50610933565b80f35b9091506102179350610a58565b5083546001600160a01b031633146101d3565b50fd5b905082346101a45761024e36610808565b9190338652600260205260ff84872054168015610344575b61026f90610971565b61027e60ff600354161561083d565b6001600160a01b038181169261029584151561087b565b16806103355750508147106102f2578480809381935af16102b46108f3565b50156102bf57505080f35b906020606492519162461bcd60e51b8352820152600d60248201526c14185e5bdd5d0819985a5b1959609a1b6044820152fd5b825162461bcd60e51b8152602081860152601d60248201527f496e73756666696369656e742074726561737572792062616c616e63650000006044820152606490fd5b91509192506102179350610a58565b5085546001600160a01b03163314610266565b8284346101185760203660031901126101185760209160ff9082906001600160a01b036103826107ed565b1681526002855220541690519015158152f35b828434610118578160031936011261011857905490516001600160a01b039091168152602090f35b823461040a578060031936011261040a576103d6610a2c565b600160ff1960035416176003557f9e87fac88ff661f02d44f95383c817fece4bce600a3dab7a54406878b965e7528180a180f35b80fd5b823461040a578060031936011261040a57610426610a2c565b80546001600160a01b03198116825581906001600160a01b03167f8be0079c531659141344cd1fd0a4f28419497f9722a3daafe3b4186f6b6457e08280a380f35b828434610118576060366003190112610118576104826107ed565b60443590602435906001600160a01b038084169182850361057a576104a5610a2c565b60026001541461056a5786975060026001979697556104c583151561087b565b168061052e575083946105058580807fe9171aeff46c37ab955b8aff908e14ae9732bd06634fa131226cfe5c25bfd2fb9887610523975af16102116108f3565b519182526001600160a01b0390921660208201529081906040820190565b0390a25b6001805580f35b947fe9171aeff46c37ab955b8aff908e14ae9732bd06634fa131226cfe5c25bfd2fb94506105629150610505838588610a58565b0390a2610527565b8551633ee5aeb560e01b81528890fd5b8680fd5b828434610118576020366003190112610118576105996107ed565b6105a1610a2c565b6001600160a01b03168083526002602052908220805460ff191660011790557f84a81ad072505ad49c4e9a66bfcdb55a2cff07cb4ea59ec7dc9cb27a38196a4d8280a280f35b82843461011857816003193601126101185760209060ff6003541690519015158152f35b905082600319360112610118576106206107ed565b906024359161063460ff600354161561083d565b6001600160a01b0316806106ae5750813403610679575060207f543ba50a5eec5e6178218e364b1d0f396157b3c8fa278522c2cb7fd99407d47491839451908152a280f35b606490602085519162461bcd60e51b8352820152600f60248201526e082dadeeadce840dad2e6dac2e8c6d608b1b6044820152fd5b9293908151906323b872dd60e01b60208301523360248301523060448301528360648301526064825260a082019082821067ffffffffffffffff83111761072a5750916107227f543ba50a5eec5e6178218e364b1d0f396157b3c8fa278522c2cb7fd99407d4749492602094835286610aaa565b51908152a280f35b634e487b7160e01b875260419052602486fd5b823461040a578060031936011261040a57610756610a2c565b60ff19600354166003557fa45f47fdea8a1efdd9029a5691c7f759c32b7c698632b563573e155625d169338180a180f35b828434610118576020366003190112610118576107a26107ed565b6107aa610a2c565b6001600160a01b03168083526002602052908220805460ff191690557f78b7f19de299af2e39976ccb793c72d123a2a5960c69bfde2f8c8e53437fdb1b8280a280f35b600435906001600160a01b038216820361080357565b600080fd5b6060906003190112610803576001600160a01b0390600435828116810361080357916024359081168103610803579060443590565b1561084457565b60405162461bcd60e51b815260206004820152600f60248201526e151c99585cdd5c9e481c185d5cd959608a1b6044820152606490fd5b1561088257565b60405162461bcd60e51b8152602060048201526011602482015270125b9d985b1a59081c9958da5c1a595b9d607a1b6044820152606490fd5b90601f8019910116810190811067ffffffffffffffff8211176108dd57604052565b634e487b7160e01b600052604160045260246000fd5b3d1561092e573d9067ffffffffffffffff82116108dd5760405191610922601f8201601f1916602001846108bb565b82523d6000602084013e565b606090565b1561093a57565b60405162461bcd60e51b815260206004820152600f60248201526e151c985b9cd9995c8819985a5b1959608a1b6044820152606490fd5b1561097857565b60405162461bcd60e51b815260206004820152600e60248201526d139bdd08185d5d1a1bdc9a5e995960921b6044820152606490fd5b6001600160a01b0316806109c157504790565b6020602491604051928380926370a0823160e01b82523060048301525afa908115610a20576000916109f1575090565b90506020813d602011610a18575b81610a0c602093836108bb565b81010312610803575190565b3d91506109ff565b6040513d6000823e3d90fd5b6000546001600160a01b03163303610a4057565b60405163118cdaa760e01b8152336004820152602490fd5b60405163a9059cbb60e01b60208201526001600160a01b039092166024830152604480830193909352918152608081019167ffffffffffffffff8311828410176108dd57610aa892604052610aaa565b565b906000602091828151910182855af115610a20576000513d610afd57506001600160a01b0381163b155b610adb5750565b604051635274afe760e01b81526001600160a01b039091166004820152602490fd5b60011415610ad456fea2646970667358221220227f4ad41a71f97fd558955858671554f20853c95a32550b95f0dcd53cd0999a64736f6c63430008180033",
  "linkReferences": {},
  "deployedLinkReferences": {}
}