{
  "_format": "hh-sol-artifact-1",
  "contractName": "FlipMatch",
  "sourceName": "contracts/FlipMatch.sol",
  "abi": [
    {
      "inputs": [
        {
          "internalType": "address",
          "name": "_aiAddress",
          "type": "address"
        },
        {
          "internalType": "address",
          "name": "_pythVRF",
          "type": "address"
        }
      ],
      "stateMutability": "nonpayable",
      "type": "constructor"
    },
    {
      "inputs": [
        {
          "internalType": "address",
          "name": "owner",
          "type": "address"
        }
      ],
      "name": "OwnableInvalidOwner",
      "type": "error"
    },
    {
      "inputs": [
        {
          "internalType": "address",
          "name": "account",
          "type": "address"
        }
      ],
      "name": "OwnableUnauthorizedAccount",
      "type": "error"
    },
    {
      "inputs": [],
      "name": "ReentrancyGuardReentrantCall",
      "type": "error"
    },
    {
      "anonymous": false,
      "inputs": [
        {
          "indexed": true,
          "internalType": "uint256",
          "name": "gameId",
          "type": "uint256"
        },
        {
          "indexed": true,
          "internalType": "address",
          "name": "player",
          "type": "address"
        },
        {
          "indexed": false,
          "internalType": "uint256",
          "name": "cardId",
          "type": "uint256"
        }
      ],
      "name": "BonusCard",
      "type": "event"
    },
    {
      "anonymous": false,
      "inputs": [
        {
          "indexed": true,
          "internalType": "address",
          "name": "player",
          "type": "address"
        },
        {
          "indexed": false,
          "internalType": "uint256",
          "name": "newLevel",
          "type": "uint256"
        }
      ],
      "name": "CosmeticLevelUp",
      "type": "event"
    },
    {
      "anonymous": false,
      "inputs": [
        {
          "indexed": true,
          "internalType": "uint256",
          "name": "day",
          "type": "uint256"
        },
        {
          "indexed": false,
          "internalType": "uint256",
          "name": "seed",
          "type": "uint256"
        }
      ],
      "name": "DailyChallengeCreated",
      "type": "event"
    },
    {
      "anonymous": false,
      "inputs": [
        {
          "indexed": true,
          "internalType": "uint256",
          "name": "gameId",
          "type": "uint256"
        },
        {
          "indexed": true,
          "internalType": "address",
          "name": "player",
          "type": "address"
        },
        {
          "indexed": false,
          "internalType": "uint256",
          "name": "refundAmount",
          "type": "uint256"
        },
        {
          "indexed": false,
          "internalType": "uint256",
          "name": "refundPct",
          "type": "uint256"
        }
      ],
      "name": "EarlyExit",
      "type": "event"
    },
    {
      "anonymous": false,
      "inputs": [
        {
          "indexed": true,
          "internalType": "uint256",
          "name": "gameId",
          "type": "uint256"
        },
        {
          "indexed": true,
          "internalType": "address",
          "name": "creator",
          "type": "address"
        }
      ],
      "name": "GameCancelled",
      "type": "event"
    },
    {
      "anonymous": false,
      "inputs": [
        {
          "indexed": true,
          "internalType": "uint256",
          "name": "gameId",
          "type": "uint256"
        },
        {
          "indexed": true,
          "internalType": "address",
          "name": "winner",
          "type": "address"
        },
        {
          "indexed": false,
          "internalType": "uint256",
          "name": "prize",
          "type": "uint256"
        },
        {
          "indexed": false,
          "internalType": "uint256",
          "name": "finalScore",
          "type": "uint256"
        },
        {
          "indexed": false,
          "internalType": "bytes32",
          "name": "vrfRequestId",
          "type": "bytes32"
        }
      ],
      "name": "GameCompleted",
      "type": "event"
    },
    {
      "anonymous": false,
      "inputs": [
        {
          "indexed": true,
          "internalType": "uint256",
          "name": "gameId",
          "type": "uint256"
        },
        {
          "indexed": false,
          "internalType": "string",
          "name": "name",
          "type": "string"
        },
        {
          "indexed": true,
          "internalType": "address",
          "name": "creator",
          "type": "address"
        },
        {
          "indexed": false,
          "internalType": "enum FlipMatch.GameType",
          "name": "gameType",
          "type": "uint8"
        },
        {
          "indexed": false,
          "internalType": "uint256",
          "name": "stake",
          "type": "uint256"
        },
        {
          "indexed": false,
          "internalType": "uint256",
          "name": "maxPlayers",
          "type": "uint256"
        }
      ],
      "name": "GameCreated",
      "type": "event"
    },
    {
      "anonymous": false,
      "inputs": [
        {
          "indexed": true,
          "internalType": "uint256",
          "name": "gameId",
          "type": "uint256"
        },
        {
          "indexed": true,
          "internalType": "address",
          "name": "winner",
          "type": "address"
        },
        {
          "indexed": false,
          "internalType": "uint256",
          "name": "finalScore",
          "type": "uint256"
        }
      ],
      "name": "GameFinished",
      "type": "event"
    },
    {
      "anonymous": false,
      "inputs": [
        {
          "indexed": true,
          "internalType": "uint256",
          "name": "gameId",
          "type": "uint256"
        },
        {
          "indexed": true,
          "internalType": "bytes32",
          "name": "vrfRequestId",
          "type": "bytes32"
        }
      ],
      "name": "GameStarted",
      "type": "event"
    },
    {
      "anonymous": false,
      "inputs": [
        {
          "indexed": true,
          "internalType": "uint256",
          "name": "gameId",
          "type": "uint256"
        }
      ],
      "name": "GameTied",
      "type": "event"
    },
    {
      "anonymous": false,
      "inputs": [
        {
          "indexed": false,
          "internalType": "uint256",
          "name": "amount",
          "type": "uint256"
        },
        {
          "indexed": false,
          "internalType": "uint256",
          "name": "newBalance",
          "type": "uint256"
        }
      ],
      "name": "HouseBalanceDeposited",
      "type": "event"
    },
    {
      "anonymous": false,
      "inputs": [
        {
          "indexed": false,
          "internalType": "uint256",
          "name": "amount",
          "type": "uint256"
        },
        {
          "indexed": false,
          "internalType": "uint256",
          "name": "newBalance",
          "type": "uint256"
        }
      ],
      "name": "HouseBalanceWithdrawn",
      "type": "event"
    },
    {
      "anonymous": false,
      "inputs": [
        {
          "indexed": true,
          "internalType": "uint256",
          "name": "gameId",
          "type": "uint256"
        },
        {
          "indexed": false,
          "internalType": "uint256",
          "name": "edgePct",
          "type": "uint256"
        },
        {
          "indexed": false,
          "internalType": "uint256",
          "name": "houseAmount",
          "type": "uint256"
        }
      ],
      "name": "HouseEdgeApplied",
      "type": "event"
    },
    {
      "anonymous": false,
      "inputs": [
        {
          "indexed": true,
          "internalType": "uint256",
          "name": "gameId",
          "type": "uint256"
        },
        {
          "indexed": true,
          "internalType": "address",
          "name": "player",
          "type": "address"
        },
        {
          "indexed": false,
          "internalType": "uint256",
          "name": "bonus",
          "type": "uint256"
        }
      ],
      "name": "LuckyFlip",
      "type": "event"
    },
    {
      "anonymous": false,
      "inputs": [
        {
          "indexed": true,
          "internalType": "address",
          "name": "previousOwner",
          "type": "address"
        },
        {
          "indexed": true,
          "internalType": "address",
          "name": "newOwner",
          "type": "address"
        }
      ],
      "name": "OwnershipTransferred",
      "type": "event"
    },
    {
      "anonymous": false,
      "inputs": [
        {
          "indexed": true,
          "internalType": "address",
          "name": "player",
          "type": "address"
        },
        {
          "indexed": false,
          "internalType": "uint256",
          "name": "passType",
          "type": "uint256"
        }
      ],
      "name": "PassPurchased",
      "type": "event"
    },
    {
      "anonymous": false,
      "inputs": [
        {
          "indexed": true,
          "internalType": "uint256",
          "name": "gameId",
          "type": "uint256"
        },
        {
          "indexed": true,
          "internalType": "address",
          "name": "player",
          "type": "address"
        },
        {
          "indexed": false,
          "internalType": "uint256",
          "name": "flipCount",
          "type": "uint256"
        },
        {
          "indexed": false,
          "internalType": "uint256",
          "name": "finalScore",
          "type": "uint256"
        },
        {
          "indexed": false,
          "internalType": "uint256",
          "name": "completedAt",
          "type": "uint256"
        }
      ],
      "name": "PlayerCompleted",
      "type": "event"
    },
    {
      "anonymous": false,
      "inputs": [
        {
          "indexed": true,
          "internalType": "uint256",
          "name": "gameId",
          "type": "uint256"
        },
        {
          "indexed": true,
          "internalType": "address",
          "name": "player",
          "type": "address"
        },
        {
          "indexed": false,
          "internalType": "uint256",
          "name": "currentPlayers",
          "type": "uint256"
        },
        {
          "indexed": false,
          "internalType": "uint256",
          "name": "maxPlayers",
          "type": "uint256"
        }
      ],
      "name": "PlayerJoined",
      "type": "event"
    },
    {
      "anonymous": false,
      "inputs": [
        {
          "indexed": true,
          "internalType": "uint256",
          "name": "gameId",
          "type": "uint256"
        },
        {
          "indexed": true,
          "internalType": "address",
          "name": "winner",
          "type": "address"
        },
        {
          "indexed": false,
          "internalType": "uint256",
          "name": "amount",
          "type": "uint256"
        }
      ],
      "name": "PrizeDistributed",
      "type": "event"
    },
    {
      "anonymous": false,
      "inputs": [
        {
          "indexed": true,
          "internalType": "uint256",
          "name": "gameId",
          "type": "uint256"
        },
        {
          "indexed": true,
          "internalType": "address",
          "name": "winner",
          "type": "address"
        },
        {
          "indexed": false,
          "internalType": "uint256",
          "name": "amount",
          "type": "uint256"
        }
      ],
      "name": "PrizePoolClaimed",
      "type": "event"
    },
    {
      "anonymous": false,
      "inputs": [
        {
          "indexed": true,
          "internalType": "uint256",
          "name": "gameId",
          "type": "uint256"
        },
        {
          "indexed": true,
          "internalType": "address",
          "name": "sponsor",
          "type": "address"
        },
        {
          "indexed": false,
          "internalType": "uint256",
          "name": "amount",
          "type": "uint256"
        }
      ],
      "name": "PrizePoolCreated",
      "type": "event"
    },
    {
      "anonymous": false,
      "inputs": [
        {
          "indexed": true,
          "internalType": "uint256",
          "name": "gameId",
          "type": "uint256"
        },
        {
          "indexed": false,
          "internalType": "uint256",
          "name": "randomValue",
          "type": "uint256"
        },
        {
          "indexed": true,
          "internalType": "bytes32",
          "name": "requestId",
          "type": "bytes32"
        }
      ],
      "name": "RandomnessFulfilled",
      "type": "event"
    },
    {
      "anonymous": false,
      "inputs": [
        {
          "indexed": true,
          "internalType": "uint256",
          "name": "gameId",
          "type": "uint256"
        },
        {
          "indexed": true,
          "internalType": "bytes32",
          "name": "requestId",
          "type": "bytes32"
        }
      ],
      "name": "RandomnessRequested",
      "type": "event"
    },
    {
      "anonymous": false,
      "inputs": [
        {
          "indexed": true,
          "internalType": "uint256",
          "name": "gameId",
          "type": "uint256"
        },
        {
          "indexed": false,
          "internalType": "string",
          "name": "usage",
          "type": "string"
        },
        {
          "indexed": false,
          "internalType": "uint256",
          "name": "randomValue",
          "type": "uint256"
        }
      ],
      "name": "RandomnessUsed",
      "type": "event"
    },
    {
      "anonymous": false,
      "inputs": [
        {
          "indexed": true,
          "internalType": "uint256",
          "name": "gameId",
          "type": "uint256"
        },
        {
          "indexed": true,
          "internalType": "address",
          "name": "player",
          "type": "address"
        },
        {
          "indexed": false,
          "internalType": "bytes32",
          "name": "hash",
          "type": "bytes32"
        }
      ],
      "name": "ScoreCommitted",
      "type": "event"
    },
    {
      "anonymous": false,
      "inputs": [
        {
          "indexed": true,
          "internalType": "uint256",
          "name": "gameId",
          "type": "uint256"
        },
        {
          "indexed": true,
          "internalType": "address",
          "name": "player",
          "type": "address"
        },
        {
          "indexed": false,
          "internalType": "uint256",
          "name": "flipCount",
          "type": "uint256"
        }
      ],
      "name": "ScoreRevealed",
      "type": "event"
    },
    {
      "anonymous": false,
      "inputs": [
        {
          "indexed": true,
          "internalType": "uint256",
          "name": "season",
          "type": "uint256"
        },
        {
          "indexed": false,
          "internalType": "address[]",
          "name": "topPlayers",
          "type": "address[]"
        }
      ],
      "name": "SeasonEnded",
      "type": "event"
    },
    {
      "anonymous": false,
      "inputs": [
        {
          "indexed": true,
          "internalType": "uint256",
          "name": "season",
          "type": "uint256"
        },
        {
          "indexed": true,
          "internalType": "address",
          "name": "player",
          "type": "address"
        },
        {
          "indexed": false,
          "internalType": "uint256",
          "name": "points",
          "type": "uint256"
        }
      ],
      "name": "SeasonPointsUpdated",
      "type": "event"
    },
    {
      "anonymous": false,
      "inputs": [
        {
          "indexed": true,
          "internalType": "uint256",
          "name": "season",
          "type": "uint256"
        },
        {
          "indexed": false,
          "internalType": "uint256",
          "name": "startTime",
          "type": "uint256"
        }
      ],
      "name": "SeasonStarted",
      "type": "event"
    },
    {
      "anonymous": false,
      "inputs": [
        {
          "indexed": true,
          "internalType": "uint256",
          "name": "gameId",
          "type": "uint256"
        },
        {
          "indexed": false,
          "internalType": "enum FlipMatch.GameStatus",
          "name": "status",
          "type": "uint8"
        }
      ],
      "name": "StatusChanged",
      "type": "event"
    },
    {
      "anonymous": false,
      "inputs": [
        {
          "indexed": true,
          "internalType": "uint256",
          "name": "gameId",
          "type": "uint256"
        },
        {
          "indexed": true,
          "internalType": "address",
          "name": "player",
          "type": "address"
        },
        {
          "indexed": false,
          "internalType": "uint256",
          "name": "duration",
          "type": "uint256"
        }
      ],
      "name": "TimeFreeze",
      "type": "event"
    },
    {
      "anonymous": false,
      "inputs": [
        {
          "indexed": true,
          "internalType": "uint256",
          "name": "gameId",
          "type": "uint256"
        },
        {
          "indexed": true,
          "internalType": "address",
          "name": "player",
          "type": "address"
        },
        {
          "indexed": false,
          "internalType": "uint256",
          "name": "penaltyType",
          "type": "uint256"
        },
        {
          "indexed": false,
          "internalType": "uint256",
          "name": "amount",
          "type": "uint256"
        }
      ],
      "name": "TimeoutPenaltyApplied",
      "type": "event"
    },
    {
      "anonymous": false,
      "inputs": [
        {
          "indexed": true,
          "internalType": "address",
          "name": "to",
          "type": "address"
        },
        {
          "indexed": false,
          "internalType": "uint256",
          "name": "amount",
          "type": "uint256"
        }
      ],
      "name": "TreasuryWithdrawn",
      "type": "event"
    },
    {
      "anonymous": false,
      "inputs": [
        {
          "indexed": true,
          "internalType": "uint256",
          "name": "gameId",
          "type": "uint256"
        },
        {
          "indexed": true,
          "internalType": "bytes32",
          "name": "requestId",
          "type": "bytes32"
        },
        {
          "indexed": false,
          "internalType": "uint256",
          "name": "randomNumber",
          "type": "uint256"
        },
        {
          "indexed": false,
          "internalType": "uint256[]",
          "name": "cardOrder",
          "type": "uint256[]"
        }
      ],
      "name": "VRFFulfilled",
      "type": "event"
    },
    {
      "anonymous": false,
      "inputs": [
        {
          "indexed": true,
          "internalType": "uint256",
          "name": "gameId",
          "type": "uint256"
        },
        {
          "indexed": true,
          "internalType": "bytes32",
          "name": "requestId",
          "type": "bytes32"
        }
      ],
      "name": "VRFRequested",
      "type": "event"
    },
    {
      "anonymous": false,
      "inputs": [
        {
          "indexed": true,
          "internalType": "uint256",
          "name": "week",
          "type": "uint256"
        },
        {
          "indexed": false,
          "internalType": "uint256",
          "name": "seed",
          "type": "uint256"
        }
      ],
      "name": "WeeklyChallengeCreated",
      "type": "event"
    },
    {
      "anonymous": false,
      "inputs": [
        {
          "indexed": true,
          "internalType": "uint256",
          "name": "week",
          "type": "uint256"
        },
        {
          "indexed": false,
          "internalType": "uint256",
          "name": "topN",
          "type": "uint256"
        },
        {
          "indexed": false,
          "internalType": "uint256",
          "name": "prizePerWinner",
          "type": "uint256"
        }
      ],
      "name": "WeeklyRaffle",
      "type": "event"
    },
    {
      "inputs": [],
      "name": "AI_ADDRESS",
      "outputs": [
        {
          "internalType": "address",
          "name": "",
          "type": "address"
        }
      ],
      "stateMutability": "view",
      "type": "function"
    },
    {
      "inputs": [],
      "name": "COMMISSION_PCT",
      "outputs": [
        {
          "internalType": "uint256",
          "name": "",
          "type": "uint256"
        }
      ],
      "stateMutability": "view",
      "type": "function"
    },
    {
      "inputs": [],
      "name": "DIFFICULTY_MODIFIER",
      "outputs": [
        {
          "internalType": "uint256",
          "name": "",
          "type": "uint256"
        }
      ],
      "stateMutability": "view",
      "type": "function"
    },
    {
      "inputs": [],
      "name": "HOUSE_EDGE_PCT",
      "outputs": [
        {
          "internalType": "uint256",
          "name": "",
          "type": "uint256"
        }
      ],
      "stateMutability": "view",
      "type": "function"
    },
    {
      "inputs": [],
      "name": "MAX_FLIP_COUNT",
      "outputs": [
        {
          "internalType": "uint256",
          "name": "",
          "type": "uint256"
        }
      ],
      "stateMutability": "view",
      "type": "function"
    },
    {
      "inputs": [],
      "name": "MAX_PLAYERS",
      "outputs": [
        {
          "internalType": "uint256",
          "name": "",
          "type": "uint256"
        }
      ],
      "stateMutability": "view",
      "type": "function"
    },
    {
      "inputs": [],
      "name": "MIN_BET",
      "outputs": [
        {
          "internalType": "uint256",
          "name": "",
          "type": "uint256"
        }
      ],
      "stateMutability": "view",
      "type": "function"
    },
    {
      "inputs": [],
      "name": "MIN_FLIP_COUNT",
      "outputs": [
        {
          "internalType": "uint256",
          "name": "",
          "type": "uint256"
        }
      ],
      "stateMutability": "view",
      "type": "function"
    },
    {
      "inputs": [],
      "name": "MIN_PLAYERS",
      "outputs": [
        {
          "internalType": "uint256",
          "name": "",
          "type": "uint256"
        }
      ],
      "stateMutability": "view",
      "type": "function"
    },
    {
      "inputs": [],
      "name": "REVEAL_TIMEOUT",
      "outputs": [
        {
          "internalType": "uint256",
          "name": "",
          "type": "uint256"
        }
      ],
      "stateMutability": "view",
      "type": "function"
    },
    {
      "inputs": [
        {
          "internalType": "uint256",
          "name": "_gameId",
          "type": "uint256"
        }
      ],
      "name": "cancelGame",
      "outputs": [],
      "stateMutability": "nonpayable",
      "type": "function"
    },
    {
      "inputs": [
        {
          "internalType": "uint256",
          "name": "_gameId",
          "type": "uint256"
        },
        {
          "internalType": "uint256",
          "name": "_flipCount",
          "type": "uint256"
        },
        {
          "internalType": "uint256",
          "name": "_salt",
          "type": "uint256"
        }
      ],
      "name": "commitAndReveal",
      "outputs": [],
      "stateMutability": "nonpayable",
      "type": "function"
    },
    {
      "inputs": [
        {
          "internalType": "uint256",
          "name": "_gameId",
          "type": "uint256"
        },
        {
          "internalType": "uint256",
          "name": "_flipCount",
          "type": "uint256"
        },
        {
          "internalType": "uint256",
          "name": "_salt",
          "type": "uint256"
        }
      ],
      "name": "commitRevealAndSubmit",
      "outputs": [],
      "stateMutability": "nonpayable",
      "type": "function"
    },
    {
      "inputs": [
        {
          "internalType": "uint256",
          "name": "_gameId",
          "type": "uint256"
        },
        {
          "internalType": "bytes32",
          "name": "_hash",
          "type": "bytes32"
        }
      ],
      "name": "commitScore",
      "outputs": [],
      "stateMutability": "nonpayable",
      "type": "function"
    },
    {
      "inputs": [
        {
          "internalType": "uint256",
          "name": "",
          "type": "uint256"
        },
        {
          "internalType": "address",
          "name": "",
          "type": "address"
        }
      ],
      "name": "commits",
      "outputs": [
        {
          "internalType": "bytes32",
          "name": "hash",
          "type": "bytes32"
        },
        {
          "internalType": "bool",
          "name": "committed",
          "type": "bool"
        },
        {
          "internalType": "bool",
          "name": "revealed",
          "type": "bool"
        },
        {
          "internalType": "uint256",
          "name": "committedAt",
          "type": "uint256"
        }
      ],
      "stateMutability": "view",
      "type": "function"
    },
    {
      "inputs": [
        {
          "internalType": "uint256",
          "name": "_gameId",
          "type": "uint256"
        }
      ],
      "name": "computeCardOrder",
      "outputs": [
        {
          "internalType": "uint256[]",
          "name": "",
          "type": "uint256[]"
        }
      ],
      "stateMutability": "view",
      "type": "function"
    },
    {
      "inputs": [
        {
          "internalType": "address",
          "name": "",
          "type": "address"
        }
      ],
      "name": "cosmeticLevel",
      "outputs": [
        {
          "internalType": "uint256",
          "name": "",
          "type": "uint256"
        }
      ],
      "stateMutability": "view",
      "type": "function"
    },
    {
      "inputs": [
        {
          "internalType": "string",
          "name": "_name",
          "type": "string"
        },
        {
          "internalType": "uint256",
          "name": "_maxPlayers",
          "type": "uint256"
        },
        {
          "internalType": "uint256",
          "name": "_durationHours",
          "type": "uint256"
        }
      ],
      "name": "createDailyChallenge",
      "outputs": [],
      "stateMutability": "nonpayable",
      "type": "function"
    },
    {
      "inputs": [
        {
          "internalType": "string",
          "name": "_name",
          "type": "string"
        },
        {
          "internalType": "enum FlipMatch.GameType",
          "name": "_gameType",
          "type": "uint8"
        },
        {
          "internalType": "uint256",
          "name": "_maxPlayers",
          "type": "uint256"
        },
        {
          "internalType": "uint256",
          "name": "_durationHours",
          "type": "uint256"
        },
        {
          "internalType": "string",
          "name": "_password",
          "type": "string"
        }
      ],
      "name": "createFreeGame",
      "outputs": [],
      "stateMutability": "nonpayable",
      "type": "function"
    },
    {
      "inputs": [
        {
          "internalType": "string",
          "name": "_name",
          "type": "string"
        },
        {
          "internalType": "enum FlipMatch.GameType",
          "name": "_gameType",
          "type": "uint8"
        },
        {
          "internalType": "uint256",
          "name": "_maxPlayers",
          "type": "uint256"
        },
        {
          "internalType": "uint256",
          "name": "_durationHours",
          "type": "uint256"
        },
        {
          "internalType": "string",
          "name": "_password",
          "type": "string"
        }
      ],
      "name": "createGame",
      "outputs": [],
      "stateMutability": "payable",
      "type": "function"
    },
    {
      "inputs": [
        {
          "internalType": "string",
          "name": "_name",
          "type": "string"
        },
        {
          "internalType": "enum FlipMatch.GameType",
          "name": "_gameType",
          "type": "uint8"
        },
        {
          "internalType": "uint256",
          "name": "_maxPlayers",
          "type": "uint256"
        },
        {
          "internalType": "uint256",
          "name": "_durationHours",
          "type": "uint256"
        },
        {
          "internalType": "string",
          "name": "_password",
          "type": "string"
        }
      ],
      "name": "createPrizePoolGame",
      "outputs": [],
      "stateMutability": "payable",
      "type": "function"
    },
    {
      "inputs": [
        {
          "internalType": "string",
          "name": "_name",
          "type": "string"
        },
        {
          "internalType": "uint256",
          "name": "_maxPlayers",
          "type": "uint256"
        },
        {
          "internalType": "uint256",
          "name": "_durationHours",
          "type": "uint256"
        }
      ],
      "name": "createWeeklyChallenge",
      "outputs": [],
      "stateMutability": "nonpayable",
      "type": "function"
    },
    {
      "inputs": [],
      "name": "currentSeason",
      "outputs": [
        {
          "internalType": "uint256",
          "name": "",
          "type": "uint256"
        }
      ],
      "stateMutability": "view",
      "type": "function"
    },
    {
      "inputs": [
        {
          "internalType": "uint256",
          "name": "",
          "type": "uint256"
        }
      ],
      "name": "dailySeed",
      "outputs": [
        {
          "internalType": "uint256",
          "name": "",
          "type": "uint256"
        }
      ],
      "stateMutability": "view",
      "type": "function"
    },
    {
      "inputs": [],
      "name": "depositHouseBalance",
      "outputs": [],
      "stateMutability": "payable",
      "type": "function"
    },
    {
      "inputs": [
        {
          "internalType": "uint256",
          "name": "_gameId",
          "type": "uint256"
        }
      ],
      "name": "drawWinner",
      "outputs": [],
      "stateMutability": "nonpayable",
      "type": "function"
    },
    {
      "inputs": [
        {
          "internalType": "uint256",
          "name": "_gameId",
          "type": "uint256"
        }
      ],
      "name": "earlyExit",
      "outputs": [],
      "stateMutability": "nonpayable",
      "type": "function"
    },
    {
      "inputs": [
        {
          "internalType": "uint256",
          "name": "_gameId",
          "type": "uint256"
        },
        {
          "internalType": "address",
          "name": "_player",
          "type": "address"
        }
      ],
      "name": "forceCommitTimeout",
      "outputs": [],
      "stateMutability": "nonpayable",
      "type": "function"
    },
    {
      "inputs": [
        {
          "internalType": "uint256",
          "name": "_gameId",
          "type": "uint256"
        },
        {
          "internalType": "address",
          "name": "_player",
          "type": "address"
        }
      ],
      "name": "forceRevealTimeout",
      "outputs": [],
      "stateMutability": "nonpayable",
      "type": "function"
    },
    {
      "inputs": [
        {
          "internalType": "uint256",
          "name": "_gameId",
          "type": "uint256"
        }
      ],
      "name": "forceTieRefund",
      "outputs": [],
      "stateMutability": "nonpayable",
      "type": "function"
    },
    {
      "inputs": [
        {
          "internalType": "uint256",
          "name": "_gameId",
          "type": "uint256"
        }
      ],
      "name": "forfeit",
      "outputs": [],
      "stateMutability": "nonpayable",
      "type": "function"
    },
    {
      "inputs": [
        {
          "internalType": "bytes32",
          "name": "_requestId",
          "type": "bytes32"
        }
      ],
      "name": "fulfillVRF",
      "outputs": [],
      "stateMutability": "nonpayable",
      "type": "function"
    },
    {
      "inputs": [
        {
          "internalType": "uint256",
          "name": "",
          "type": "uint256"
        },
        {
          "internalType": "uint256",
          "name": "",
          "type": "uint256"
        }
      ],
      "name": "gamePlayers",
      "outputs": [
        {
          "internalType": "address",
          "name": "",
          "type": "address"
        }
      ],
      "stateMutability": "view",
      "type": "function"
    },
    {
      "inputs": [
        {
          "internalType": "uint256",
          "name": "",
          "type": "uint256"
        }
      ],
      "name": "gameRandomness",
      "outputs": [
        {
          "internalType": "bytes32",
          "name": "requestId",
          "type": "bytes32"
        },
        {
          "internalType": "uint256",
          "name": "randomValue",
          "type": "uint256"
        },
        {
          "internalType": "bool",
          "name": "fulfilled",
          "type": "bool"
        },
        {
          "internalType": "uint256",
          "name": "fulfilledAt",
          "type": "uint256"
        }
      ],
      "stateMutability": "view",
      "type": "function"
    },
    {
      "inputs": [
        {
          "internalType": "uint256",
          "name": "",
          "type": "uint256"
        }
      ],
      "name": "games",
      "outputs": [
        {
          "internalType": "uint256",
          "name": "id",
          "type": "uint256"
        },
        {
          "internalType": "string",
          "name": "name",
          "type": "string"
        },
        {
          "internalType": "address",
          "name": "creator",
          "type": "address"
        },
        {
          "internalType": "enum FlipMatch.GameType",
          "name": "gameType",
          "type": "uint8"
        },
        {
          "internalType": "enum FlipMatch.GameStatus",
          "name": "status",
          "type": "uint8"
        },
        {
          "internalType": "enum FlipMatch.PlayMode",
          "name": "playMode",
          "type": "uint8"
        },
        {
          "internalType": "uint256",
          "name": "stake",
          "type": "uint256"
        },
        {
          "internalType": "uint256",
          "name": "totalPrize",
          "type": "uint256"
        },
        {
          "internalType": "uint256",
          "name": "maxPlayers",
          "type": "uint256"
        },
        {
          "internalType": "uint256",
          "name": "currentPlayers",
          "type": "uint256"
        },
        {
          "internalType": "uint256",
          "name": "completedCount",
          "type": "uint256"
        },
        {
          "internalType": "uint256",
          "name": "createdAt",
          "type": "uint256"
        },
        {
          "internalType": "uint256",
          "name": "startedAt",
          "type": "uint256"
        },
        {
          "internalType": "uint256",
          "name": "completedAt",
          "type": "uint256"
        },
        {
          "internalType": "uint256",
          "name": "endTime",
          "type": "uint256"
        },
        {
          "internalType": "address",
          "name": "winner",
          "type": "address"
        },
        {
          "internalType": "uint256",
          "name": "winnerFlipCount",
          "type": "uint256"
        },
        {
          "internalType": "uint256",
          "name": "winnerFinalScore",
          "type": "uint256"
        },
        {
          "internalType": "bytes32",
          "name": "vrfRequestId",
          "type": "bytes32"
        },
        {
          "internalType": "uint256",
          "name": "vrfRandom",
          "type": "uint256"
        },
        {
          "internalType": "bool",
          "name": "vrfFulfilled",
          "type": "bool"
        },
        {
          "internalType": "bytes32",
          "name": "passwordHash",
          "type": "bytes32"
        }
      ],
      "stateMutability": "view",
      "type": "function"
    },
    {
      "inputs": [],
      "name": "getActiveGames",
      "outputs": [
        {
          "internalType": "uint256[]",
          "name": "",
          "type": "uint256[]"
        }
      ],
      "stateMutability": "view",
      "type": "function"
    },
    {
      "inputs": [
        {
          "internalType": "uint256",
          "name": "_gameId",
          "type": "uint256"
        }
      ],
      "name": "getGame",
      "outputs": [
        {
          "components": [
            {
              "internalType": "uint256",
              "name": "id",
              "type": "uint256"
            },
            {
              "internalType": "string",
              "name": "name",
              "type": "string"
            },
            {
              "internalType": "address",
              "name": "creator",
              "type": "address"
            },
            {
              "internalType": "enum FlipMatch.GameType",
              "name": "gameType",
              "type": "uint8"
            },
            {
              "internalType": "enum FlipMatch.GameStatus",
              "name": "status",
              "type": "uint8"
            },
            {
              "internalType": "enum FlipMatch.PlayMode",
              "name": "playMode",
              "type": "uint8"
            },
            {
              "internalType": "uint256",
              "name": "stake",
              "type": "uint256"
            },
            {
              "internalType": "uint256",
              "name": "totalPrize",
              "type": "uint256"
            },
            {
              "internalType": "uint256",
              "name": "maxPlayers",
              "type": "uint256"
            },
            {
              "internalType": "uint256",
              "name": "currentPlayers",
              "type": "uint256"
            },
            {
              "internalType": "uint256",
              "name": "completedCount",
              "type": "uint256"
            },
            {
              "internalType": "uint256",
              "name": "createdAt",
              "type": "uint256"
            },
            {
              "internalType": "uint256",
              "name": "startedAt",
              "type": "uint256"
            },
            {
              "internalType": "uint256",
              "name": "completedAt",
              "type": "uint256"
            },
            {
              "internalType": "uint256",
              "name": "endTime",
              "type": "uint256"
            },
            {
              "internalType": "address",
              "name": "winner",
              "type": "address"
            },
            {
              "internalType": "uint256",
              "name": "winnerFlipCount",
              "type": "uint256"
            },
            {
              "internalType": "uint256",
              "name": "winnerFinalScore",
              "type": "uint256"
            },
            {
              "internalType": "bytes32",
              "name": "vrfRequestId",
              "type": "bytes32"
            },
            {
              "internalType": "uint256",
              "name": "vrfRandom",
              "type": "uint256"
            },
            {
              "internalType": "uint256[]",
              "name": "cardOrder",
              "type": "uint256[]"
            },
            {
              "internalType": "bool",
              "name": "vrfFulfilled",
              "type": "bool"
            },
            {
              "internalType": "bytes32",
              "name": "passwordHash",
              "type": "bytes32"
            }
          ],
          "internalType": "struct FlipMatch.Game",
          "name": "",
          "type": "tuple"
        }
      ],
      "stateMutability": "view",
      "type": "function"
    },
    {
      "inputs": [],
      "name": "getGameCount",
      "outputs": [
        {
          "internalType": "uint256",
          "name": "",
          "type": "uint256"
        }
      ],
      "stateMutability": "view",
      "type": "function"
    },
    {
      "inputs": [
        {
          "internalType": "uint256",
          "name": "_gameId",
          "type": "uint256"
        }
      ],
      "name": "getGamePlayers",
      "outputs": [
        {
          "internalType": "address[]",
          "name": "",
          "type": "address[]"
        }
      ],
      "stateMutability": "view",
      "type": "function"
    },
    {
      "inputs": [
        {
          "internalType": "uint256",
          "name": "_gameId",
          "type": "uint256"
        }
      ],
      "name": "getGameRandom",
      "outputs": [
        {
          "internalType": "uint256",
          "name": "",
          "type": "uint256"
        }
      ],
      "stateMutability": "view",
      "type": "function"
    },
    {
      "inputs": [
        {
          "internalType": "address",
          "name": "_player",
          "type": "address"
        }
      ],
      "name": "getLeaderboardEntry",
      "outputs": [
        {
          "components": [
            {
              "internalType": "address",
              "name": "player",
              "type": "address"
            },
            {
              "internalType": "uint256",
              "name": "totalWins",
              "type": "uint256"
            },
            {
              "internalType": "uint256",
              "name": "bestFinalScore",
              "type": "uint256"
            },
            {
              "internalType": "uint256",
              "name": "totalGames",
              "type": "uint256"
            },
            {
              "internalType": "uint256",
              "name": "weeklyPoints",
              "type": "uint256"
            },
            {
              "internalType": "uint256",
              "name": "lastUpdated",
              "type": "uint256"
            }
          ],
          "internalType": "struct FlipMatch.LeaderboardEntry",
          "name": "",
          "type": "tuple"
        }
      ],
      "stateMutability": "view",
      "type": "function"
    },
    {
      "inputs": [
        {
          "internalType": "uint256",
          "name": "_gameId",
          "type": "uint256"
        }
      ],
      "name": "getLiveScores",
      "outputs": [
        {
          "components": [
            {
              "internalType": "uint256",
              "name": "moves",
              "type": "uint256"
            },
            {
              "internalType": "uint256",
              "name": "time",
              "type": "uint256"
            },
            {
              "internalType": "uint256",
              "name": "score",
              "type": "uint256"
            },
            {
              "internalType": "uint256",
              "name": "multiplier",
              "type": "uint256"
            }
          ],
          "internalType": "struct FlipMatch.PlayerResult[]",
          "name": "",
          "type": "tuple[]"
        }
      ],
      "stateMutability": "view",
      "type": "function"
    },
    {
      "inputs": [
        {
          "internalType": "uint256",
          "name": "_gameId",
          "type": "uint256"
        },
        {
          "internalType": "address",
          "name": "_player",
          "type": "address"
        }
      ],
      "name": "getPlayer",
      "outputs": [
        {
          "components": [
            {
              "internalType": "address",
              "name": "playerAddress",
              "type": "address"
            },
            {
              "internalType": "uint256",
              "name": "flipCount",
              "type": "uint256"
            },
            {
              "internalType": "uint256",
              "name": "finalScore",
              "type": "uint256"
            },
            {
              "internalType": "uint256",
              "name": "completedAt",
              "type": "uint256"
            },
            {
              "internalType": "bool",
              "name": "hasCompleted",
              "type": "bool"
            },
            {
              "internalType": "bool",
              "name": "hasJoined",
              "type": "bool"
            },
            {
              "internalType": "enum FlipMatch.PlayerState",
              "name": "state",
              "type": "uint8"
            }
          ],
          "internalType": "struct FlipMatch.Player",
          "name": "",
          "type": "tuple"
        }
      ],
      "stateMutability": "view",
      "type": "function"
    },
    {
      "inputs": [
        {
          "internalType": "address",
          "name": "_player",
          "type": "address"
        }
      ],
      "name": "getPlayerGames",
      "outputs": [
        {
          "internalType": "uint256[]",
          "name": "",
          "type": "uint256[]"
        }
      ],
      "stateMutability": "view",
      "type": "function"
    },
    {
      "inputs": [
        {
          "internalType": "uint256",
          "name": "_gameId",
          "type": "uint256"
        }
      ],
      "name": "getRandomnessProof",
      "outputs": [
        {
          "components": [
            {
              "internalType": "bytes32",
              "name": "requestId",
              "type": "bytes32"
            },
            {
              "internalType": "uint256",
              "name": "randomValue",
              "type": "uint256"
            },
            {
              "internalType": "bool",
              "name": "fulfilled",
              "type": "bool"
            },
            {
              "internalType": "uint256",
              "name": "fulfilledAt",
              "type": "uint256"
            }
          ],
          "internalType": "struct FlipMatch.RandomnessProof",
          "name": "",
          "type": "tuple"
        }
      ],
      "stateMutability": "view",
      "type": "function"
    },
    {
      "inputs": [],
      "name": "houseBalance",
      "outputs": [
        {
          "internalType": "uint256",
          "name": "",
          "type": "uint256"
        }
      ],
      "stateMutability": "view",
      "type": "function"
    },
    {
      "inputs": [
        {
          "internalType": "uint256",
          "name": "_gameId",
          "type": "uint256"
        },
        {
          "internalType": "string",
          "name": "_password",
          "type": "string"
        }
      ],
      "name": "joinGame",
      "outputs": [],
      "stateMutability": "payable",
      "type": "function"
    },
    {
      "inputs": [
        {
          "internalType": "address",
          "name": "",
          "type": "address"
        }
      ],
      "name": "lastRageQuit",
      "outputs": [
        {
          "internalType": "uint256",
          "name": "",
          "type": "uint256"
        }
      ],
      "stateMutability": "view",
      "type": "function"
    },
    {
      "inputs": [
        {
          "internalType": "address",
          "name": "",
          "type": "address"
        }
      ],
      "name": "leaderboard",
      "outputs": [
        {
          "internalType": "address",
          "name": "player",
          "type": "address"
        },
        {
          "internalType": "uint256",
          "name": "totalWins",
          "type": "uint256"
        },
        {
          "internalType": "uint256",
          "name": "bestFinalScore",
          "type": "uint256"
        },
        {
          "internalType": "uint256",
          "name": "totalGames",
          "type": "uint256"
        },
        {
          "internalType": "uint256",
          "name": "weeklyPoints",
          "type": "uint256"
        },
        {
          "internalType": "uint256",
          "name": "lastUpdated",
          "type": "uint256"
        }
      ],
      "stateMutability": "view",
      "type": "function"
    },
    {
      "inputs": [],
      "name": "owner",
      "outputs": [
        {
          "internalType": "address",
          "name": "",
          "type": "address"
        }
      ],
      "stateMutability": "view",
      "type": "function"
    },
    {
      "inputs": [
        {
          "internalType": "address",
          "name": "",
          "type": "address"
        }
      ],
      "name": "passType",
      "outputs": [
        {
          "internalType": "uint256",
          "name": "",
          "type": "uint256"
        }
      ],
      "stateMutability": "view",
      "type": "function"
    },
    {
      "inputs": [
        {
          "internalType": "string",
          "name": "_name",
          "type": "string"
        },
        {
          "internalType": "enum FlipMatch.GameType",
          "name": "_gameType",
          "type": "uint8"
        },
        {
          "internalType": "uint256",
          "name": "_maxPlayers",
          "type": "uint256"
        },
        {
          "internalType": "uint256",
          "name": "_durationHours",
          "type": "uint256"
        },
        {
          "internalType": "string",
          "name": "_password",
          "type": "string"
        }
      ],
      "name": "playFree",
      "outputs": [],
      "stateMutability": "nonpayable",
      "type": "function"
    },
    {
      "inputs": [
        {
          "internalType": "address",
          "name": "",
          "type": "address"
        },
        {
          "internalType": "uint256",
          "name": "",
          "type": "uint256"
        }
      ],
      "name": "playerGames",
      "outputs": [
        {
          "internalType": "uint256",
          "name": "",
          "type": "uint256"
        }
      ],
      "stateMutability": "view",
      "type": "function"
    },
    {
      "inputs": [
        {
          "internalType": "uint256",
          "name": "",
          "type": "uint256"
        },
        {
          "internalType": "address",
          "name": "",
          "type": "address"
        }
      ],
      "name": "players",
      "outputs": [
        {
          "internalType": "address",
          "name": "playerAddress",
          "type": "address"
        },
        {
          "internalType": "uint256",
          "name": "flipCount",
          "type": "uint256"
        },
        {
          "internalType": "uint256",
          "name": "finalScore",
          "type": "uint256"
        },
        {
          "internalType": "uint256",
          "name": "completedAt",
          "type": "uint256"
        },
        {
          "internalType": "bool",
          "name": "hasCompleted",
          "type": "bool"
        },
        {
          "internalType": "bool",
          "name": "hasJoined",
          "type": "bool"
        },
        {
          "internalType": "enum FlipMatch.PlayerState",
          "name": "state",
          "type": "uint8"
        }
      ],
      "stateMutability": "view",
      "type": "function"
    },
    {
      "inputs": [
        {
          "internalType": "uint256",
          "name": "",
          "type": "uint256"
        }
      ],
      "name": "prizePools",
      "outputs": [
        {
          "internalType": "uint256",
          "name": "total",
          "type": "uint256"
        },
        {
          "internalType": "bool",
          "name": "claimed",
          "type": "bool"
        },
        {
          "internalType": "address",
          "name": "sponsor",
          "type": "address"
        },
        {
          "internalType": "uint256",
          "name": "createdAt",
          "type": "uint256"
        }
      ],
      "stateMutability": "view",
      "type": "function"
    },
    {
      "inputs": [],
      "name": "pythVRF",
      "outputs": [
        {
          "internalType": "contract IPythVRF",
          "name": "",
          "type": "address"
        }
      ],
      "stateMutability": "view",
      "type": "function"
    },
    {
      "inputs": [
        {
          "internalType": "address",
          "name": "",
          "type": "address"
        }
      ],
      "name": "rageQuitCount",
      "outputs": [
        {
          "internalType": "uint256",
          "name": "",
          "type": "uint256"
        }
      ],
      "stateMutability": "view",
      "type": "function"
    },
    {
      "inputs": [
        {
          "internalType": "uint256",
          "name": "_gameId",
          "type": "uint256"
        }
      ],
      "name": "rematch",
      "outputs": [],
      "stateMutability": "payable",
      "type": "function"
    },
    {
      "inputs": [],
      "name": "renounceOwnership",
      "outputs": [],
      "stateMutability": "nonpayable",
      "type": "function"
    },
    {
      "inputs": [
        {
          "internalType": "uint256",
          "name": "",
          "type": "uint256"
        },
        {
          "internalType": "address",
          "name": "",
          "type": "address"
        }
      ],
      "name": "results",
      "outputs": [
        {
          "internalType": "uint256",
          "name": "moves",
          "type": "uint256"
        },
        {
          "internalType": "uint256",
          "name": "time",
          "type": "uint256"
        },
        {
          "internalType": "uint256",
          "name": "score",
          "type": "uint256"
        },
        {
          "internalType": "uint256",
          "name": "multiplier",
          "type": "uint256"
        }
      ],
      "stateMutability": "view",
      "type": "function"
    },
    {
      "inputs": [
        {
          "internalType": "uint256",
          "name": "_gameId",
          "type": "uint256"
        },
        {
          "internalType": "uint256",
          "name": "_flipCount",
          "type": "uint256"
        },
        {
          "internalType": "uint256",
          "name": "_salt",
          "type": "uint256"
        }
      ],
      "name": "revealScore",
      "outputs": [],
      "stateMutability": "nonpayable",
      "type": "function"
    },
    {
      "inputs": [],
      "name": "rollDailySeed",
      "outputs": [],
      "stateMutability": "nonpayable",
      "type": "function"
    },
    {
      "inputs": [
        {
          "internalType": "uint256",
          "name": "",
          "type": "uint256"
        },
        {
          "internalType": "address",
          "name": "",
          "type": "address"
        }
      ],
      "name": "seasonPoints",
      "outputs": [
        {
          "internalType": "uint256",
          "name": "",
          "type": "uint256"
        }
      ],
      "stateMutability": "view",
      "type": "function"
    },
    {
      "inputs": [
        {
          "internalType": "uint256",
          "name": "",
          "type": "uint256"
        },
        {
          "internalType": "uint256",
          "name": "",
          "type": "uint256"
        }
      ],
      "name": "seasonTopPlayers",
      "outputs": [
        {
          "internalType": "address",
          "name": "",
          "type": "address"
        }
      ],
      "stateMutability": "view",
      "type": "function"
    },
    {
      "inputs": [
        {
          "internalType": "uint256",
          "name": "_gameId",
          "type": "uint256"
        },
        {
          "internalType": "uint256",
          "name": "_flipCount",
          "type": "uint256"
        }
      ],
      "name": "submitCompletion",
      "outputs": [],
      "stateMutability": "nonpayable",
      "type": "function"
    },
    {
      "inputs": [
        {
          "internalType": "uint256",
          "name": "",
          "type": "uint256"
        },
        {
          "internalType": "address",
          "name": "",
          "type": "address"
        }
      ],
      "name": "timeoutPenaltyApplied",
      "outputs": [
        {
          "internalType": "bool",
          "name": "",
          "type": "bool"
        }
      ],
      "stateMutability": "view",
      "type": "function"
    },
    {
      "inputs": [
        {
          "internalType": "address",
          "name": "newOwner",
          "type": "address"
        }
      ],
      "name": "transferOwnership",
      "outputs": [],
      "stateMutability": "nonpayable",
      "type": "function"
    },
    {
      "inputs": [],
      "name": "treasuryBalance",
      "outputs": [
        {
          "internalType": "uint256",
          "name": "",
          "type": "uint256"
        }
      ],
      "stateMutability": "view",
      "type": "function"
    },
    {
      "inputs": [
        {
          "internalType": "bytes32",
          "name": "",
          "type": "bytes32"
        }
      ],
      "name": "vrfRequests",
      "outputs": [
        {
          "internalType": "uint256",
          "name": "",
          "type": "uint256"
        }
      ],
      "stateMutability": "view",
      "type": "function"
    },
    {
      "inputs": [
        {
          "internalType": "uint256",
          "name": "_topN",
          "type": "uint256"
        },
        {
          "internalType": "uint256",
          "name": "_prizePerWinner",
          "type": "uint256"
        }
      ],
      "name": "weeklyRaffle",
      "outputs": [],
      "stateMutability": "nonpayable",
      "type": "function"
    },
    {
      "inputs": [
        {
          "internalType": "uint256",
          "name": "",
          "type": "uint256"
        }
      ],
      "name": "weeklySeed",
      "outputs": [
        {
          "internalType": "uint256",
          "name": "",
          "type": "uint256"
        }
      ],
      "stateMutability": "view",
      "type": "function"
    },
    {
      "inputs": [
        {
          "internalType": "uint256",
          "name": "",
          "type": "uint256"
        },
        {
          "internalType": "uint256",
          "name": "",
          "type": "uint256"
        }
      ],
      "name": "weeklyTopPlayers",
      "outputs": [
        {
          "internalType": "address",
          "name": "",
          "type": "address"
        }
      ],
      "stateMutability": "view",
      "type": "function"
    },
    {
      "inputs": [
        {
          "internalType": "uint256",
          "name": "_amount",
          "type": "uint256"
        }
      ],
      "name": "withdrawHouseBalance",
      "outputs": [],
      "stateMutability": "nonpayable",
      "type": "function"
    },
    {
      "inputs": [],
      "name": "withdrawTreasury",
      "outputs": [],
      "stateMutability": "nonpayable",
      "type": "function"
    }
  ],
  "bytecode": "0x60c034620001ed5762008b5190601f38839003908101601f19168201906001600160401b03821183831017620001f25780839160409586948552833981010312620001ed576200005d6020620000558362000208565b920162000208565b3315620001d55760008054336001600160a01b031982168117835585516001600160a01b03949390928516907f8be0079c531659141344cd1fd0a4f28419497f9722a3daafe3b4186f6b6457e09080a360018055828416156200019e5750169081156200015a5760805260a0525161893390816200021e8239608051818181610cdb01528181610e7301528181611a2301528181612304015281816138780152818161549201528181615ac701528181616f7e01528181617289015281816176b101528181617d4e0152618672015260a05181818161156801528181612f0e015281816133ec015281816151fa01528181615eba01526173790152f35b825162461bcd60e51b815260206004820152601960248201527f50797468205652462061646472657373207265717569726564000000000000006044820152606490fd5b62461bcd60e51b8152602060048201526012602482015271496e76616c6964204149206164647265737360701b6044820152606490fd5b8251631e4fbdf760e01b815260006004820152602490fd5b600080fd5b634e487b7160e01b600052604160045260246000fd5b51906001600160a01b0382168203620001ed5756fe610140604052600436101561001357600080fd5b60003560e01c806214cdd514615fa45780630a5694c214615f4c5780630b8a3bbe14615cf15780630d65ca2f14615863578063117a5b901461568a578063129daf841461565057806315a40f4914615598578063166bab95146154fb578063191a3749146154c15780631939053d1461547c5780631b76929c146153445780632076e1d01461530a5780632122f4c6146152be57806322377d9e146152a25780632c01c2c6146152865780632e9fddd8146151b6578063313dab201461519857806332b72f9c1461517c5780633ba80729146151605780633d6ae3a7146151435780633e6a6bee14614ef55780633ed546ab14614d3b5780633ef25c1114614c645780634411b3eb146129f65780634947bfc91461474a578063530d49f21461455b5780635ab203c51461452a57806360b2a56a146143865780636454e58d146142685780636540742f1461424657806367084eb31461422857806367bc540f146141d557806368880a2614613d4457806369958ab914613c3257806370a90220146134ae578063715018a614613455578063718f838c1461341b578063772d84c4146133d657806377cbc4001461329957806379ae87791461312f578063821d53131461310357806385f07bbe146130e7578063885d68a8146130765780638da5cb5b1461304d57806396dbbbe814612ef057806397a2872c14612d6a578063a2f77bcc146129fb578063b241b5ec146129f6578063b8af3d3e14612778578063bbf395441461271d578063bcb39621146126ff578063bce353f4146126d3578063c0f8092114612635578063c2884e0e146125fb578063c8ab99c71461256c578063cbf8279014611fe1578063d1d33d2014611f6d578063d34603ee14611cfc578063d35aea0a14611771578063dddb07b3146116cd578063dec04e5f146116a1578063dfefef9f14611670578063e488a02714611606578063e7564cf5146111c3578063e87c0ee6146111a5578063e93362e21461116e578063eb22ebe0146107aa578063eddad39414610750578063f2682edd146106cd578063f2fde38b14610644578063f3154298146105fa578063f8aed2c3146105ad578063fc80864d146103975763fe8596791461034a57600080fd5b346103925760403660031901126103925761036361604d565b600435600052601160205260406000209060018060a01b03166000526020526020604060002054604051908152f35b600080fd5b34610392576103a5366163f1565b82600093929352602090600582526040600020600683526040600020336000528352604060002060ff9182600282015460a81c16916006831015610597576104018460126004946103f96002849814616796565b01541661653b565b0154610411828260081c166166f9565b60101c16600381101561059757600161042a9114616aae565b83600052600d8352604060002033600052835280600160406000200154161561055e5783600052600d8352604060002033600052835260016040600020015460081c16610526576040518281019185835260408201526040815261048d81616119565b51902082600052600d82526040600020336000528252604060002054036104f15760008051602061885e8339815191529082600052600d81526040600020336000528152600160406000200161010061ff00198254161790556040519384523393a3005b6064906040519062461bcd60e51b82526004820152600e60248201526d125b9d985b1a59081c995d99585b60921b6044820152fd5b60405162461bcd60e51b815260048101839052601060248201526f105b1c9958591e481c995d99585b195960821b6044820152606490fd5b60405162461bcd60e51b8152600481018490526011602482015270135d5cdd0818dbdb5b5a5d08199a5c9cdd607a1b6044820152606490fd5b634e487b7160e01b600052602160045260246000fd5b34610392576040366003190112610392576105c661604d565b600435600052601560205260406000209060018060a01b0316600052602052602060ff604060002054166040519015158152f35b34610392576106083661640b565b906000526019602052604060002080548210156103925760209161062b91616063565b905460405160039290921b1c6001600160a01b03168152f35b346103925760203660031901126103925761065d616037565b610665616c51565b6001600160a01b039081169081156106b457600054826001600160601b0360a01b821617600055167f8be0079c531659141344cd1fd0a4f28419497f9722a3daafe3b4186f6b6457e0600080a3005b604051631e4fbdf760e01b815260006004820152602490fd5b34610392576020366003190112610392576106e6616995565b50600435600052600a60205260806040600020604051610705816160ac565b8154918282526001810154602083019081526060600360ff60028501541693604086019415158552015493019283526040519384525160208401525115156040830152516060820152f35b3461039257602036600319011261039257600435600052600b60205260806040600020805490600260018201549101549060405192835260ff81161515602084015260018060a01b039060081c1660408301526060820152f35b34610392576107b83661640b565b6107c0616cfc565b816000526005602052604060002090600660205260406000203360005260205260406000209060028301549160ff8360a81c1660068110156105975760028161080f600361081594141561674a565b14616796565b60048101549261082860ff8516156167d9565b600360ff8560101c1610156105975760ff60019161084e6002838860101c161415616825565b61085d8260128901541661653b565b61086b828760081c166166f9565b82828760101c16148015611160575b61088390616871565b60a01c166108908161638a565b14611088575b6108a360068310156168f4565b6108b06064831115616935565b60108401906004620200016108c96032855406866165b9565b9585600185015586600285015542600385015562ff00ff191617910155549060036103e883040691600183018311610da557859261090b600987015442616471565b60408051602081019485523360601b6bffffffffffffffffffffffff19169181019190915290929061094a81605481015b03601f198101835282616150565b51902060056064820610610fab575b91600360008051602061889e83398151915294928685600a606481610a3899040610610f2f575b8360648083040610610eab575b50506040519261099c846160ac565b8484526020840190815260408401908982526001606086019301835288600052600c6020526040600020336000526020526040600020945185555160018501555160028401555191015583600052600660205260406000203360005260205284600260406000200155610a126007870154616518565b600787015560405191829133964291846040919493926060820195825260208201520152565b0390a360ff600282015460a01c16610a4f8161638a565b1580610e5b575b610c33575b600160ff600283015460a01c16610a718161638a565b03610abe576007810154600582015414610a8f575b50505b60018055005b6002015460a81c60ff1690600682101561059757610ab26002610ab79314616673565b6171a8565b8080610a86565b50806000526005602052604060002060028101549160ff8360a01c16610ae38161638a565b610bdf5760019160005b826000526007602052604060002054811015610bd757600660205260406000206007602052610b20826040600020616063565b60018060a01b0391549060031b1c1660005260205260ff6004604060002001541615610b4e57600101610aed565b5090915060005b610b62575b505050610a89565b60ff8360a81c1692600684101561059757610b826002610bcf9514616673565b60ff60a81b1916600360a81b17600282015542600a909101556040516003815281907f365a3d0a71be5f440c8224437355d5bd81a703759bf906e441902272bfbafcb390602090a2617a26565b808080610b5a565b509091610b55565b60405162461bcd60e51b815260206004820152602660248201527f5f636865636b47616d65436f6d706c6574696f6e206f6e6c7920666f722041496044820152652067616d657360d01b6064820152608490fd5b81600052600560205260406000206006602052604060002033600052602052604060002060ff60048201541615610e175760010154908115610dbb57601001549083906103e88304600116610d695760146064840406811115610d4c57610cc0603280610cb660008051602061889e833981519152946014606489040690616471565b955b0406846165b9565b60008381526006602090815260408083206001600160a01b037f00000000000000000000000000000000000000000000000000000000000000001680855290835292819020600181018890556002810185905542600382018190556004909101805462ff00ff1916620200011790558151978852918701939093529185019190915292606090a3610a5b565b5060008051602061889e833981519152610cc06032806001610cb6565b9050600181018111610da55760008051602061889e833981519152610cc0603280610d9f88956001601460648a040691016165b9565b95610cb8565b634e487b7160e01b600052601160045260246000fd5b60405162461bcd60e51b815260206004820152602e60248201527f48756d616e20706c6179657220666c697020636f756e74206d7573742062652060448201526d067726561746572207468616e20360941b6064820152608490fd5b606460405162461bcd60e51b815260206004820152602060248201527f48756d616e20706c61796572206d75737420636f6d706c6574652066697273746044820152fd5b50816000526006602052604060002060018060a01b037f00000000000000000000000000000000000000000000000000000000000000001660005260205260ff6004604060002001541615610a56565b610f256000805160206188de83398151915291604051601e6103e88304068152847fa90c07a1ab973ca48fc3f4dad501a99e0dc8a00e62789f669a230d0a505987e060203393a360405191829182919060408352600b60408401526a74696d655f667265657a6560a81b6060840152602060808401930152565b0390a2868b61098d565b604051600c82068152827fa1dfc4607b4ef6099981b145882f4d59df9320828bdce6a4d418361df804c82f60203393a3816000805160206188de83398151915260405180610fa38582919060408352600a604084015269189bdb9d5cd7d8d85c9960b21b6060840152602060808401930152565b0390a2610980565b949193509091866002841115611068575082600119810111610da55786936003610a38938660008051602061889e83398151915296600119015b9860405160028152827fd67c9ef9ddaf92a36275c3b90e5b262e1fcdb29f027ee01267ee671ca00f6cbf60203393a3816000805160206188de833981519152604051806110588582919060408352600a60408401526906c75636b795f666c69760b41b6060840152602060808401930152565b0390a29395505092945050610959565b9360008051602061889e83398151915293506003610a3893866000610fe5565b84600052600d60205260406000203360005260205260ff600160406000200154161561111b5784600052600d60205260406000203360005260205260ff60016040600020015460081c166108965760405162461bcd60e51b815260206004820152601760248201527f4d7573742072657665616c2073636f72652066697273740000000000000000006044820152606490fd5b60405162461bcd60e51b815260206004820152601760248201527f4d75737420636f6d6d69742073636f72652066697273740000000000000000006044820152606490fd5b50601086901c82161561087a565b34610392576020366003190112610392576111a161118d600435616c12565b6040519182916020835260208301906163a1565b0390f35b34610392576000366003190112610392576020600254604051908152f35b34610392576111d1366161d3565b6111d9616cfc565b62093a8042049182600052602092600f845260406000205415611552575b5060405193611205856160fe565b60008552611214600254616518565b92836002558360005260058552604060002090848255600196878301908451916001600160401b03831161153c57889261124e8254616263565b601f8111611501575b5083601f8211600114611496576000908261148b575b50600019600383901b1c1916908b1b1790555b600284018054600161ff0160a81b0319163362ff00ff60a01b191617600160a01b1760ff60a81b191690556000600385018190556004850181905560058501879055600685018a9055600785015542600885015580519081611453575b5050508015801561142c575b505050604051916112f9836160c7565b338352836113ac866113956004828801976000895260408101600081526060820190600082528d608084019b60008d5260a085019782895260c086019a60008c5260005260068152604060002090336000525260406000209460018060a01b039051166001600160601b0360a01b86541617855551908401555160028301555160038201550196511515879060ff801983541691151516179055565b51855461ff00191690151560081b61ff0016178555565b519260038410156105975760008051602061883e833981519152936113d091616652565b83600052600785526113e6336040600020616a3e565b33600052600885526113fc846040600020616a79565b8561141260405193608085526080850190616365565b958301526000604083015260608201528033940390a38055005b610e10808302928304141715610da557611448600b91426165b9565b9101558580806112e9565b8261147b918361146e60405195869385850198899101616342565b8101038084520182616150565b51902060138301558588806112dd565b90508701518c61126d565b908b91601f1982169084600052866000209160005b8181106114df575083116114c6575b5050811b019055611280565b89015160001960f88460031b161c191690558c806114ba565b939596979194829193868d015181550194019201918d93918d979695936114ab565b61152c908360005285600020601f840160051c810191878510611532575b601f0160051c0190616d1f565b8b611257565b909150819061151f565b634e487b7160e01b600052604160045260246000fd5b60405163f8413b0760e01b8152848160048160007f00000000000000000000000000000000000000000000000000000000000000006001600160a01b03165af19081156115fa5785916115d1575b507f9f7ead40ae1e5c145cdd75ebd5d417147cda3a762bc057d6548912617e7279699060405160008152a2846111f7565b813d83116115f3575b6115e48183616150565b810103126103925783866115a0565b503d6115da565b6040513d6000823e3d90fd5b346103925760403660031901126103925761161f61604d565b600435600052600c60205260406000209060018060a01b0316600052602052608060406000208054906001810154906003600282015491015491604051938452602084015260408301526060820152f35b346103925761167e3661640b565b906000526007602052604060002080548210156103925760209161062b91616063565b346103925760203660031901126103925760043560005260096020526020604060002054604051908152f35b34610392576116db3661640b565b6116e3616c51565b60035482820290828204841483151715610da557106117345760405191825260208201527f18e7a4e7f6243e8ed111828ec35dd85ba10a00253b56e9e6e42b07f03d858bca604062093a80420492a2005b60405162461bcd60e51b8152602060048201526015602482015274496e73756666696369656e7420747265617375727960581b6044820152606490fd5b61177a36616208565b61178694919394616cfc565b662386f26fc100003410611cb757600183101580611cac575b6117a890616b2b565b6117b18561638a565b8415611c77575b6117c3600254616518565b938460025584600052600560205260406000209185835583516001600160401b03811161153c576117f76001850154616263565b601f8111611c42575b50806020601f8211600114611bd557600091611bca575b508160011b916000199060031b1c19161760018401555b60028301805461183d8961638a565b600161ff0160a81b0319163362ff00ff60a01b19161760a089901b60ff60a01b1617600160b01b1760ff60a81b1916905534600384018190556004840155600583018590556001600684015560006007840155426008840155805180611b9e575b50506118a98661638a565b6001861480611b95575b611b6b575b50506040516118c6816160c7565b338152602081016000815261197b6040830160008152611964600460608601956000875260808101966000885260a08201946001865260c0830197600089528c600052600660205260406000203360005260205260406000209360018060a01b039051166001600160601b0360a01b8554161784555160018401555160028301555160038201550194511515859060ff801983541691151516179055565b51835461ff00191690151560081b61ff0016178355565b5160038110156105975761198e91616652565b8260005260076020526119a5336040600020616a3e565b3360005260086020526119bc836040600020616a79565b6119c58461638a565b831580611b61575b611a1d575b60008051602061883e833981519152916119f760405192608084526080840190616365565b94611a018161638a565b602083015234604083015260608201528033940390a360018055005b604051917f0000000000000000000000000000000000000000000000000000000000000000611a4b846160c7565b60018060a01b03811684526000602085015260006040850152600060608501526000608085015260a0840160018152611b1760c086019160008352876000526006602052604060002060018060a01b038516600052602052611b0060806004604060002060018060a01b038b51166001600160601b0360a01b82541617815560208b0151600182015560408b0151600282015560608b01516003820155019801511515889060ff801983541691151516179055565b51865461ff00191690151560081b61ff0016178655565b5190600382101561059757611b3e611b519260008051602061883e83398151915296616652565b8560005260076020526040600020616a3e565b611b5a8461722a565b91506119d2565b50600182146119cd565b610e1090818102918183041490151715610da557611b8b600b91426165b9565b91015584806118b8565b508015156118b3565b611bbb602080938361146e60405195869385850198899101616342565b5190206013830155868061189e565b905085015189611817565b91506001850160005260206000206000925b601f1983168410611c2a576001935082601f19811610611c11575b5050811b01600184015561182e565b87015160001960f88460031b161c191690558980611c02565b87810151825560209384019360019092019101611be7565b611c7190600186016000526020600020601f840160051c8101916020851061153257601f0160051c0190616d1f565b88611800565b611c8360018414616b6e565b611ca76064611c9134616734565b04611ca0600454913490616471565b1115616bc6565b6117b8565b50600583111561179f565b60405162461bcd60e51b815260206004820152601a60248201527f426574206d757374206265206174206c656173742031204d4f4e0000000000006044820152606490fd5b3461039257604036600319011261039257600435611d1861604d565b816000526020600581526040600020600d825260406000209260018060a01b031692836000528252604060002084600052600683526040600020846000528352604060002093600283019182549560ff96878160a81c169060068210156105975788600191611d8c6002611d9f951461657b565b60a01c16611d998161638a565b146166b8565b6001820190611db188835416156168b4565b600986015461012c8101809111610da557421115611f2857620200016004820191825490611de18b8316156165c6565b8b60005260158a526040600020876000528a52611e058b6040600020541615616606565b60001960028201556064600182015560034291015562ff00ff191617905561010161ffff19825416179055600242910155856000526015845260406000208160005284526040600020600160ff19825416179055856000805160206188be83398151915260406007860196611e7a8854616518565b8855846000526017815281600020611e928154616518565b90558460005260168152428260002055848460008051602061887e83398151915283855160008152a3848460008051602061885e83398151915283855160648152a3600082519160048352820152a354916001848460a01c16611ef48161638a565b14611efb57005b600590549101541115611f0b575b005b60a81c1690600682101561059757610ab26002611f099314616673565b60405162461bcd60e51b815260048101889052601a60248201527f436f6d6d69742077696e646f77207374696c6c206163746976650000000000006044820152606490fd5b346103925760203660031901126103925760c06001600160a01b0380611f91616037565b1660005260186020526040600020908154169060018101549060028101546003820154906005600484015493015493604051958652602086015260408501526060840152608083015260a0820152f35b611fea36616208565b93611ff6929192616cfc565b341561252e5760025494600186018611610da55761201386616518565b938460025584600052600560205260406000209185835583516001600160401b03811161153c576120476001850154616263565b601f81116124f9575b50806020601f821160011461248c57600091612481575b508160011b916000199060031b1c19161760018401555b60028301805461208d8961638a565b60a089901b60ff60a01b166001600160b81b03199091163362ffffff60a01b1916171790556000600384018190556004840181905560058401869055600160068501556007840155426008840155805180612455575b50506120ee8661638a565b600186148061244c575b612422575b505060405161210b816160c7565b33815260208101600081526121a96040830160008152611964600460608601956000875260808101966000885260a08201946001865260c0830197600089528c600052600660205260406000203360005260205260406000209360018060a01b039051166001600160601b0360a01b8554161784555160018401555160028301555160038201550194511515859060ff801983541691151516179055565b516003811015610597576121bc91616652565b8260005260076020526121d3336040600020616a3e565b3360005260086020526121ea836040600020616a79565b6121f38461638a565b831580612418575b6122fe575b60008051602061883e8339815191529161222560405192608084526080840190616365565b9461222f8161638a565b60208301526000604083015260608201528033940390a3604051612252816160ac565b348152600260208201600081526040830190338252606084019142835260018601600052600b6020526040600020945185556122a16001860192511515839060ff801983541691151516179055565b518154610100600160a81b03191660089190911b610100600160a81b0316179055519101556040513481523391600101907f8e6aee01c9edef2ca60c96e104f6cf6c1f2509907504078ca4223716c0c869ea90602090a360018055005b604051917f000000000000000000000000000000000000000000000000000000000000000061232c846160c7565b60018060a01b03811684526000602085015260006040850152600060608501526000608085015260a08401600181526123e160c086019160008352876000526006602052604060002060018060a01b038516600052602052611b0060806004604060002060018060a01b038b51166001600160601b0360a01b82541617815560208b0151600182015560408b0151600282015560608b01516003820155019801511515889060ff801983541691151516179055565b5190600382101561059757611b3e6124089260008051602061883e83398151915296616652565b6124118461722a565b9150612200565b50600182146121fb565b610e1090818102918183041490151715610da557612442600b91426165b9565b91015585806120fd565b508015156120f8565b612472602080938361146e60405195869385850198899101616342565b519020601383015587806120e3565b90508501518a612067565b91506001850160005260206000206000925b601f19831684106124e1576001935082601f198116106124c8575b5050811b01600184015561207e565b87015160001960f88460031b161c191690558a806124b9565b8781015182556020938401936001909201910161249e565b61252890600186016000526020600020601f840160051c8101916020851061153257601f0160051c0190616d1f565b89612050565b60405162461bcd60e51b815260206004820152601660248201527505072697a6520706f6f6c206d757374206265203e20360541b6044820152606490fd5b600036600319011261039257612580616c51565b34156125c7577f6632e6796459f03dd0eb041bea9eb12e023cda96e59a02d7f5ee12cc8344a6f460406125b5346004546165b9565b806004558151903482526020820152a1005b60405162461bcd60e51b815260206004820152600c60248201526b135d5cdd0819195c1bdcda5d60a21b6044820152606490fd5b34610392576020366003190112610392576001600160a01b0361261c616037565b1660005260166020526020604060002054604051908152f35b346103925760403660031901126103925760e061265061604d565b6004356000526006602052604060002060018060a01b038092166000526020526126d1604060002091825416916001810154906002810154600460038301549201549260405195865260208601526040850152606084015260ff81161515608084015260ff8160081c16151560a084015260ff60c084019160101c16616421565bf35b3461039257602036600319011261039257600435600052600f6020526020604060002054604051908152f35b34610392576000366003190112610392576020601054604051908152f35b3461039257610a8961272e36616208565b9361273a939193616cfc565b60018310158061276d575b61274e90616b2b565b6127578261638a565b81616d365761276860018414616b6e565b616d36565b506005831115612745565b346103925760208060031936011261039257600435612795616cfc565b806000526005825260406000206006835260406000203360005283526127c860ff60046040600020015460081c166166f9565b816000526006835260406000203360005283526127f060ff60046040600020015416156165c6565b3360005260168352604060002054610e108101809111610da5574211156129b15760009260ff6012830154161560001461291e57605a91600160ff600283015460b01c1661283d8161638a565b1480612911575b6128d6575b6006905b846000528183526040600020336000528352600460406000200161ff001981541690550161287b8154616b1e565b905533600052601681524260406000205560178152604060002061289f8154616518565b90556040519384528301527f258e7558fcdc96887e3834f2ed5fd393fc6dcad095796e4fc2dd78b6482f137560403393a360018055005b9350600384015482810290808204841490151715610da5576064600691049485612902575b9050612849565b61290c8633616c7d565b6128fb565b5060038101541515612844565b603291600160ff600283015460b01c166129378161638a565b14806129a4575b61294b575b60069061284d565b9350600384019384549083820291808304851490151715610da55761297d606460069304809781612995575b54616471565b61298c600483019182546165b9565b90559050612943565b61299f8233616c7d565b612977565b506003810154151561293e565b60405162461bcd60e51b815260048101849052601960248201527f52616765207175697420636f6f6c646f776e20616374697665000000000000006044820152606490fd5b6163d5565b346103925760203660031901126103925760006102c0604051612a1d816160e2565b828152606060208201528260408201528260608201528260808201528260a08201528260c08201528260e08201528261010082015282610120820152826101408201528261016082015282610180820152826101a0820152826101c0820152826101e0820152826102008201528261022082015282610240820152826102608201526060610280820152826102a082015201526004356000526005602052604060002060405190612acd826160e2565b80548252612add6001820161629d565b602083015260028101546001600160a01b03811660408401529060a082901c60ff16612b088161638a565b6060840152600660ff8360a81c1610156105975760ff828160139460a81c166080860152612b3a828260b01c1661638a565b60b01c1660a0840152600381015460c0840152600481015460e084015260058101546101008401526006810154610120840152600781015461014084015260088101546101608401526009810154610180840152600a8101546101a0840152600b8101546101c0840152600c8101546001600160a01b03166101e0840152600d810154610200840152600e810154610220840152600f8101546102408401526010810154610260840152612bf06011820161647e565b61028084015260ff60128201541615156102a084015201546102c0820152604051809160208252805160208301526102c0612d51612c3f60208401516102e06040870152610300860190616365565b60408401516001600160a01b0316606086810191909152840151612c628161638a565b6080860152612c79608085015160a0870190616394565b60a0840151612c878161638a565b60c086015260c084015160e086015260e08401516101008601526101008401516101208601526101208401516101408601526101408401516101608601526101608401516101808601526101808401516101a08601526101a08401516101c08601526101c08401516101e086015260018060a01b036101e085015116610200860152610200840151610220860152610220840151610240860152610240840151610260860152610260840151610280860152610280840151601f19868303016102a08701526163a1565b916102a081015115158285015201516102e08301520390f35b3461039257612d78366163f1565b82600093929352602060058152604060002060068252604060002033600052825260406000209060ff600282015460a81c1691600683101561059757612dcb60ff60126004946103f96002849814616796565b0154612ddb828260081c166166f9565b60101c1691600383101561059757612e04600160008051602061885e8339815191529414616aae565b83600052600d82526040600020336000528252612e2c60ff60016040600020015416156168b4565b60405182810191868352604082015260408152612e4881616119565b519020604051612e57816160ac565b818152600283820160018152612ec7604084019160018352606085019242845289600052600d88526040600020336000528852604060002095518655612eb06001870192511515839060ff801983541691151516179055565b51815461ff00191690151560081b61ff0016179055565b519101556040519081528360008051602061887e833981519152833393a36040519384523393a3005b3461039257602036600319011261039257600435612f0c616cfc565b7f00000000000000000000000000000000000000000000000000000000000000006001600160a01b03163381900361300857816000526009602052604060002054918215612fce576060602492604051938480926302d8ca0160e11b82528560048301525afa9283156115fa57610a8993600093600091612f97575b50612f929061653b565b617731565b612f929450612fbe915060603d606011612fc7575b612fb68183616150565b810190616afa565b91949050612f88565b503d612fac565b60405162461bcd60e51b8152602060048201526012602482015271125b9d985b1a59081c995c5d595cdd08125160721b6044820152606490fd5b60405162461bcd60e51b815260206004820152601960248201527f4f6e6c792050797468205652462063616e2066756c66696c6c000000000000006044820152606490fd5b34610392576000366003190112610392576000546040516001600160a01b039091168152602090f35b346103925760403660031901126103925761308f61604d565b600435600052600d60205260406000209060018060a01b03166000526020526080604060002080549060ff60026001830154920154916040519384528181161515602085015260081c16151560408301526060820152f35b3461039257600036600319011261039257602060405160018152f35b3461039257602036600319011261039257600435600052600e6020526020604060002054604051908152f35b346103925760203660031901126103925760043561314b616c51565b8060005260056020526040600020906002820180549260ff8460a81c1660068110156105975760010361325d5760098101546154608101809111610da5574210613218576012015460ff166131db5760ff60a81b19909216600560a81b17909155611f0990807f6735b98d5d75eb6a72ff7cbd805fc91d5ee18e1b5d11043b0e649b6f22c9cab8600080a261768d565b60405162461bcd60e51b815260206004820152601560248201527415949188185b1c9958591e48199d5b199a5b1b1959605a1b6044820152606490fd5b60405162461bcd60e51b815260206004820152601760248201527f5652462074696d656f7574206e6f7420726561636865640000000000000000006044820152606490fd5b60405162461bcd60e51b815260206004820152601460248201527313db9b1e48199bdc88159491881d1a5b595bdd5d60621b6044820152606490fd5b34610392576040366003190112610392576004356024359080600052602060058152604060002060068252604060002033600052825260406000209060ff600282015460a81c169160068310156105975761330160ff60126004946103f96002849814616796565b0154613311828260081c166166f9565b60101c169060038210156105975761333a600160008051602061887e8339815191529314616aae565b82600052600d8152604060002033600052815261336260ff60016040600020015416156168b4565b60405161336e816160ac565b8481526002828201600181526133c7604084019160008352606085019242845288600052600d87526040600020336000528752604060002095518655612eb06001870192511515839060ff801983541691151516179055565b519101556040519384523393a3005b34610392576000366003190112610392576040517f00000000000000000000000000000000000000000000000000000000000000006001600160a01b03168152602090f35b34610392576020366003190112610392576001600160a01b0361343c616037565b1660005260146020526020604060002054604051908152f35b346103925760003660031901126103925761346e616c51565b600080546001600160a01b0319811682556001600160a01b03167f8be0079c531659141344cd1fd0a4f28419497f9722a3daafe3b4186f6b6457e08280a3005b6020366003190112610392576004356134c5616cfc565b806000526005602052604060002090600282019081549160ff8360a81c1660068110156105975760038114908115613c27575b5015613bee5760ff8360a01c169161350f8361638a565b61351b600184146166b8565b600052600660205260406000203360005260205260ff60046040600020015460081c1615613ba9576001840191604051809360009080549061355c82616263565b9160018116908115613b825750600114613b3e575b50506135999181690405a40a4cadac2e8c6d60b31b600a935203601519810186520184616150565b600b8501548015613b315760ff610e106135ba60019360098a015490616471565b04955b60b01c166135ca8161638a565b03613afe575060038401543410613ab95760059054930154906040516135ef816160fe565b600081526135fe600254616518565b938460025584600052600560205260406000209185835583516001600160401b03811161153c576136326001850154616263565b601f8111613a84575b50806020601f8211600114613a1757600091613a0c575b508160011b916000199060031b1c19161760018401555b60028301805461367e60ff8a60a01c1661638a565b61368d60ff8a60b01c1661638a565b62ffffff60a01b1933166001600160b81b0319919091161760ff60a01b89161760ff60b01b8916179055346003840181905560048401556005830185905560016006840155600060078401554260088401558051806139e0575b50506136f860ff8760a01c1661638a565b600160ff8760a01c1614806139d7575b6139ad575b505060405161371b816160c7565b33815260208101600081526137b96040830160008152611964600460608601956000875260808101966000885260a08201946001865260c0830197600089528c600052600660205260406000203360005260205260406000209360018060a01b039051166001600160601b0360a01b8554161784555160018401555160028301555160038201550194511515859060ff801983541691151516179055565b516003811015610597576137cc91616652565b8260005260076020526137e3336040600020616a3e565b3360005260086020526137fa836040600020616a79565b61380960ff8560a01c1661638a565b60ff8460a01c1615806139a3575b613872575b60008051602061883e8339815191529160ff61384360405193608085526080850190616365565b95613852828260a01c1661638a565b60a01c16602083015234604083015260608201528033940390a360018055005b604051917f00000000000000000000000000000000000000000000000000000000000000006138a0846160c7565b60018060a01b038116845260006020850152600060408501526000606085015260006080850152600160a0850152600060c0850152846000526006602052604060002060018060a01b03821660005260205260c06004604060002060018060a01b038751166001600160601b0360a01b825416178155602087015160018201556040870151600282015560608701516003820155019461395260808201511515879060ff801983541691151516179055565b60a0810151865461ff00191690151560081b61ff0016178655015190600382101561059757611b3e6139939260008051602061883e83398151915296616652565b61399c8461722a565b915061381c565b5060018214613817565b610e1090818102918183041490151715610da5576139cd600b91426165b9565b910155848061370d565b50801515613708565b6139fd602080938361146e60405195869385850198899101616342565b519020601383015586806136e7565b905085015189613652565b91506001850160005260206000206000925b601f1983168410613a6c576001935082601f19811610613a53575b5050811b016001840155613669565b87015160001960f88460031b161c191690558980613a44565b87810151825560209384019360019092019101613a29565b613ab390600186016000526020600020601f840160051c8101916020851061153257601f0160051c0190616d1f565b8861363b565b60405162461bcd60e51b815260206004820152601e60248201527f5374616b65206d757374206d61746368206f726967696e616c2067616d6500006044820152606490fd5b90506005613b2c94613b1394939434156169f3565b01549060405193613b23856160fe565b60008552616d36565b610a89565b50600160ff6018956135bd565b915091506000528360206000206000905b838210613b68575090918201602001905081600a613571565b6020919250806001915483858a0101520191018591613b4f565b600a9450602092506135999593915060ff1916828401528015150282010191819350613571565b60405162461bcd60e51b815260206004820152601d60248201527f4e6f74206120706c6179657220696e206f726967696e616c2067616d650000006044820152606490fd5b60405162461bcd60e51b815260206004820152601160248201527011d85b59481b9bdd08199a5b9a5cda1959607a1b6044820152606490fd5b6005915014856134f8565b3461039257602036600319011261039257600435613c4e616cfc565b60008181526005602052604090206002018054336001600160a01b03821603613cff5760ff8160a81c16600681101561059757613cca5760ff60a81b1916600160aa1b179055613c9d8161768d565b33907f58f64e02b3a6d2a3bd28b7700a0a0d6699545bcb55bf917ac0ff670f3a509efb600080a360018055005b60405162461bcd60e51b815260206004820152600d60248201526c10d85b9b9bdd0818d85b98d95b609a1b6044820152606490fd5b60405162461bcd60e51b815260206004820152601760248201527f4f6e6c792063726561746f722063616e2063616e63656c0000000000000000006044820152606490fd5b6040366003190112610392576024356001600160401b03811161039257613d6f90369060040161618c565b613d77616cfc565b6004356000526005602052604060002090600282015460ff8160a81c166006811015610597576141995760068301546005840154111561416557600435600052600660205260406000203360005260205260ff60046040600020015460081c1661412f57613dea60ff8260b01c1661638a565b600160ff8260b01c161460001461411f5760ff60019160a01c16613e0d8161638a565b036140db5760038201543403614096575b3415614045575b60138201549081613fdf575b5050604051613e3f816160c7565b3381526020810160008152613ede6040830160008152611964600460608601956000875260808101966000885260a08201946001865260c0830197600089528435600052600660205260406000203360005260205260406000209360018060a01b039051166001600160601b0360a01b8554161784555160018401555160028301555160038201550194511515859060ff801983541691151516179055565b51600381101561059757613ef191616652565b6004356000526007602052613f0a336040600020616a3e565b336000526008602052613f236004356040600020616a79565b613f306006820154616518565b90816006820155600160ff600560028401549383838660b01c16613f538161638a565b14613fc9575b01549260405185815284602082015233907f1106c14aab1f44b1577fd2f42206ee286f0fbf82c72942bbcdc9028af44216ff604060043592a360a01c16613f9f8161638a565b149182613fbe575b5050613fb35760018055005b613b2c60043561722a565b101590508180613fa7565b60048101613fd83482546165b9565b9055613f59565b604051613ffc6020828161146e8183019687815193849201616342565b5190200361400b578180613e31565b60405162461bcd60e51b8152602060048201526012602482015271125b98dbdc9c9958dd081c185cdcdddbdc9960721b6044820152606490fd5b60405162461bcd60e51b815260206004820152602360248201527f5374616b6520616d6f756e74206d75737420626520677265617465722074686160448201526206e20360ec1b6064820152608490fd5b60405162461bcd60e51b815260206004820152601e60248201527f5374616b65206d757374206d617463682063726561746f72207374616b6500006044820152606490fd5b6003820154341015613e1e5760405162461bcd60e51b815260206004820152601060248201526f125b9cdd59999a58da595b9d0818995d60821b6044820152606490fd5b5061412a34156169f3565b613e25565b60405162461bcd60e51b815260206004820152600e60248201526d105b1c9958591e481a9bda5b995960921b6044820152606490fd5b60405162461bcd60e51b815260206004820152600c60248201526b11d85b59481a5cc8199d5b1b60a21b6044820152606490fd5b60405162461bcd60e51b815260206004820152601460248201527311d85b5948185b1c9958591e481cdd185c9d195960621b6044820152606490fd5b3461039257602036600319011261039257600435600052600a60205260806040600020805490600181015490600360ff600283015416910154916040519384526020840152151560408301526060820152f35b34610392576000366003190112610392576020600454604051908152f35b34610392576000366003190112610392576020604051662386f26fc100008152f35b346103925760403660031901126103925761428161604d565b600060c0604051614291816160c7565b8281528260208201528260408201528260608201528260808201528260a082015201526004356000526006602052604060002060018060a01b038092166000526020526040600020604051906142e6826160c7565b82815416825260018101546020830190815260028201549160408401928352600460038201549160608601928352015490608085019060ff83161515825260ff60a0870193818160081c161515855260101c169460c087019460038710156105975760e0986126d19787526040519851168852516020880152516040870152516060860152511515608085015251151560a08401525160c0830190616421565b3461039257602080600319360112610392576004356143a3616cfc565b8060005260058252604060002091600b815260ff6002604060002094015460a81c166006811015610597576003036144f157600183019283549360ff85166144b457907f97325efc464900c0d7e3bd53005b12c77f4adb6e2bd7dd12d40b4e1fc7d89d25929184600052600a835261442560ff6002604060002001541661653b565b846000526007835261443d60406000205415156169ba565b84600052600a8352600161447761446582604060002001546007875260406000205490616975565b87600052600786526040600020616063565b828060a01b0391549060031b1c169660ff19161790558054806144a4575b5054604051908152a360018055005b6144ae9086616c7d565b85614495565b60405162461bcd60e51b8152600481018490526015602482015274141c9a5e9948185b1c9958591e4818db185a5b5959605a1b6044820152606490fd5b6064906040519062461bcd60e51b82526004820152601260248201527111d85b59481b9bdd0818dbdb5c1b195d195960721b6044820152fd5b34610392576145383661640b565b906000526012602052604060002080548210156103925760209161062b91616063565b346103925760208060031936011261039257600435806000526005825260ff6012604060002001541615614712578060005260078252604060002091604051808483829654938481520190600052836000209260005b858282106146f3575050506145c892500384616150565b8251926145ed6145d7856164cf565b946145e56040519687616150565b8086526164cf565b601f19018260005b8281106146dd5750505060005b8151811015614682576000848152600c845260409020600191906001600160a01b0361462e8386616527565b511660005284526040600020600360405191614649836160ac565b80548352848101548784015260028101546040840152015460608201526146708288616527565b5261467b8187616527565b5001614602565b604080518481528651818601819052878601928201908660005b8281106146a95784840385f35b855180518552808301518584015260408082015190860152606090810151908501529481019460809093019260010161469c565b6146e5616995565b8282890101520183906145f5565b85546001600160a01b03168452600195860195899550930192016145b1565b60405162461bcd60e51b815260048101839052601060248201526f11d85b59481b9bdd081cdd185c9d195960821b6044820152606490fd5b3461039257614758366163f1565b90614761616cfc565b826000526005602052604060002091600660205260406000203360005260205260406000209060ff600285015460a81c1660068110156105975760028161080f60036147ae94141561674a565b60048201546147c060ff8216156167d9565b600360ff8260101c16101561059757806147e6600260ff61481d9460101c161415616825565b6147f660ff60128801541661653b565b61480560ff8260081c166166f9565b600160ff8260101c1614908115614c55575b50616871565b84600052600d60205260406000203360005260205261484760ff60016040600020015416156168b4565b61485460068410156168f4565b6148616064841115616935565b604051602081019184835260408201526040815261487e81616119565b51902060405161488d816160ac565b818152600260208201600181526148e960408401916001835260608501924284528a600052600d602052604060002033600052602052604060002095518655612eb06001870192511515839060ff801983541691151516179055565b519101556040519081528460008051602061887e83398151915260203393a36040518281528460008051602061885e83398151915260203393a360108301549061493660328306846165b9565b918560405160208101906149688161093c338786909160349282526001600160601b03199060601b1660208201520190565b51902060056064820610614bb6575b600a60648183040610614b3a575b600360648083040610614ab6575b505060036103e86149a8600988015442616471565b92040660018101809111610da557600390604051926149c6846160ac565b8684526020840190815260408401908682526060850192835289600052600c6020526040600020336000526020526040600020945185555160018501555160028401555191015582600182015581600282015542600382015560046202000162ff00ff198284015416179101558360008051602061889e833981519152614a796007860194614a558654616518565b80965560405191829133964291846040919493926060820195825260208201520152565b0390a3600582015414614a8c5760018055005b6002015460a81c60ff1690600682101561059757610ab26002614aaf9314616673565b8080610a89565b614b306000805160206188de83398151915291604051601e6103e88304068152847fa90c07a1ab973ca48fc3f4dad501a99e0dc8a00e62789f669a230d0a505987e060203393a360405191829182919060408352600b60408401526a74696d655f667265657a6560a81b6060840152602060808401930152565b0390a28587614993565b604051600c82068152827fa1dfc4607b4ef6099981b145882f4d59df9320828bdce6a4d418361df804c82f60203393a3816000805160206188de83398151915260405180614bae8582919060408352600a604084015269189bdb9d5cd7d8d85c9960b21b6060840152602060808401930152565b0390a2614985565b9390506002811115614c4c576001198101908111610da55786905b9360405160028152827fd67c9ef9ddaf92a36275c3b90e5b262e1fcdb29f027ee01267ee671ca00f6cbf60203393a3816000805160206188de83398151915260405180614c448582919060408352600a60408401526906c75636b795f666c69760b41b6060840152602060808401930152565b0390a2614977565b50856000614bd1565b60ff915060101c161587614817565b346103925760203660031901126103925760c0614c7f616037565b600060a0604051614c8f81616091565b828152826020820152826040820152826060820152826080820152015260018060a01b03809116600052601860205260406000209060405190614cd182616091565b825416918282526001810154602083019081526002820154604084019081526003830154916060850192835260a0600560048601549560808801968752015495019485526040519586525160208601525160408501525160608401525160808301525160a0820152f35b3461039257602036600319011261039257600435614d57616cfc565b8060005260056020526040600020906006602052604060002033600052602052604060002091600281019081549160ff92838160a81c1690600682101561059757614da5600286931461657b565b60a01c1694614db38661638a565b614dc060018097146166b8565b620200016004820191825490614dda878360081c166166f9565b614de6878316156165c6565b600019600282015560648982015560034291015562ff00ff1916179055549084838360b01c16614e158161638a565b1480614ee8575b614ead575b6007810190614e308254616518565b8092556003810154861c60405190600582526020820152856000805160206188be83398151915260403393a385848460a01c16614e6c8161638a565b14614e7657858055005b600501541115614e88575b8080858055005b60a81c1690600682101561059757610ab26002614ea59314616673565b818080614e81565b6003810154603281029080820460321481151715610da5576064614ed2920490616471565b614ee1600483019182546165b9565b9055614e21565b5060038101541515614e1c565b3461039257604036600319011261039257600435614f1161604d565b816000526020600581526040600020600d825260406000209260018060a01b031692836000528252604060002084600052600683526040600020846000528352604060002093600283019160ff9586845460a81c166006811015610597576002614f7b911461657b565b60018201918254888082169182615135575b5050156150fc576002015461012c8101809111610da5574211156150b757620200016004820191825490614fc38a8316156165c6565b8a600052601589526040600020866000528952614fe78a6040600020541615616606565b60001960028201556064600182015560034291015562ff00ff191617905561010061ff0019825416179055856000526015845260406000208160005284526040600020600160ff19825416179055856000805160206188be833981519152604060078601966150568854616518565b885584600052601781528160002061506e8154616518565b90558460005260168152428260002055848460008051602061885e83398151915283855160648152a3600082519160038352820152a354916001848460a01c16611ef48161638a565b60405162461bcd60e51b815260048101879052601760248201527f52657665616c2074696d65206e6f7420657870697265640000000000000000006044820152606490fd5b60405162461bcd60e51b8152600481018890526011602482015270139bc81c195b991a5b99c81c995d99585b607a1b6044820152606490fd5b60081c16159050888b614f8d565b3461039257600036600319011261039257602060405161012c8152f35b3461039257600036600319011261039257602060405160068152f35b3461039257600036600319011261039257602060405160648152f35b34610392576000366003190112610392576020600354604051908152f35b3461039257600036600319011261039257620151804204806000526020600e8152604060002054156151e457005b60405163f8413b0760e01b8152818160048160007f00000000000000000000000000000000000000000000000000000000000000006001600160a01b03165af180156115fa5761525c575b507fc0e1ee3df0ccc2047d8cfbc4ba1057d58b46fd44d040ae612052e94c48b98b209060405160008152a2005b8190813d831161527f575b6152718183616150565b81010312610392578261522f565b503d615267565b34610392576000366003190112610392576020604051600a8152f35b3461039257600036600319011261039257602060405160328152f35b346103925760203660031901126103925760043580600052600a6020526152ef60ff6002604060002001541661653b565b600052600a6020526020600160406000200154604051908152f35b34610392576020366003190112610392576001600160a01b0361532b616037565b1660005260176020526020604060002054604051908152f35b346103925760003660031901126103925760028054615362816164e6565b9160009160015b818111156153bd5750505061537d816164e6565b9160005b82811061539e57604051602080825281906111a1908201876163a1565b806153ab60019284616527565b516153b68287616527565b5201615381565b80600052600560209080825260ff85604060002001548160a891821c1692600693848110156105975715948515615457575b851561542f575b505050505061540e575b61540990616518565b615369565b9261542781856154216154099489616527565b52616518565b939050615400565b600087815291905260409020870154901c1691508110156105975760011486808080806153f6565b945085600052808552828860406000200154831c1684811015610597578814946153ef565b34610392576000366003190112610392576040517f00000000000000000000000000000000000000000000000000000000000000006001600160a01b03168152602090f35b34610392576020366003190112610392576001600160a01b036154e2616037565b1660005260136020526020604060002054604051908152f35b3461039257600036600319011261039257615514616c51565b60035480156155685760006003557f41fdd680478135993bc53fb2ffaf9560951b57ef62ff6badd02b61e018b4f17f602060018060a01b0361555a848260005416616c7d565b6000541692604051908152a2005b60405162461bcd60e51b81526020600482015260086024820152674e6f2066756e647360c01b6044820152606490fd5b34610392576020806003193601126103925760043560005260078152604060002060405190818382549182815201908192600052846000209060005b868282106156335786866155ea82880383616150565b604051928392818401908285525180915260408401929160005b82811061561357505050500390f35b83516001600160a01b031685528695509381019392810192600101615604565b83546001600160a01b0316855290930192600192830192016155d4565b34610392576020366003190112610392576001600160a01b03615671616037565b1660005260086020526111a161118d604060002061647e565b346103925760203660031901126103925760043560005260056020526040600020805490600181016156bb9061629d565b61010052600281015460e05260038101546101205260048101549160058201546006830154600784015460088501546009860154600a87015490600b88015492600160a01b60019003600c8a01541694600d8a015496600e8b015498600f8c01549a60108d01549c601281015460ff166080526013015460a05260405160c0526102c09060c051528060c0516020015260c05101610100519061575d91616365565b9c600160a01b6001900360e0511660c0516040015260e05160a01c60ff166157849061638a565b60e05160a01c60ff1660c0516060015260c05160800160e05160a81c60ff16906157ad91616394565b60e05160b01c60ff166157bf9061638a565b60e05160b01c60ff1660c05160a001526101205160c05160c0015260c05160e0015260c051610100015260c051610120015260c051610140015260c051610160015260c051610180015260c0516101a0015260c0516101c0015260c0516101e0015260c051610200015260c051610220015260c051610240015260c0516102600152608051151560c051610280015260a05160c0516102a0015260c051900360c051f35b346103925761587136616208565b61587d94919394616cfc565b615888600254616518565b938460025584600052600560205260406000209185835583516001600160401b03811161153c576158bc6001850154616263565b601f8111615cbc575b50806020601f8211600114615c4f57600091615c44575b508160011b916000199060031b1c19161760018401555b6002830180546159028961638a565b60a089901b60ff60a01b166001600160b81b03199091163362ffffff60a01b1916171790556000600384018190556004840181905560058401869055600160068501556007840155426008840155805180615c18575b50506159638661638a565b6001861480615c0f575b615be5575b5050604051615980816160c7565b3381526020810160008152615a1e6040830160008152611964600460608601956000875260808101966000885260a08201946001865260c0830197600089528c600052600660205260406000203360005260205260406000209360018060a01b039051166001600160601b0360a01b8554161784555160018401555160028301555160038201550194511515859060ff801983541691151516179055565b51600381101561059757615a3191616652565b826000526007602052615a48336040600020616a3e565b336000526008602052615a5f836040600020616a79565b615a688461638a565b831580615bdb575b615ac1575b60008051602061883e83398151915291615a9a60405192608084526080840190616365565b94615aa48161638a565b60208301526000604083015260608201528033940390a360018055005b604051917f0000000000000000000000000000000000000000000000000000000000000000615aef846160c7565b60018060a01b03811684526000602085015260006040850152600060608501526000608085015260a0840160018152615ba460c086019160008352876000526006602052604060002060018060a01b038516600052602052611b0060806004604060002060018060a01b038b51166001600160601b0360a01b82541617815560208b0151600182015560408b0151600282015560608b01516003820155019801511515889060ff801983541691151516179055565b5190600382101561059757611b3e615bcb9260008051602061883e83398151915296616652565b615bd48461722a565b9150615a75565b5060018214615a70565b610e1090818102918183041490151715610da557615c05600b91426165b9565b9101558480615972565b5080151561596d565b615c35602080938361146e60405195869385850198899101616342565b51902060138301558680615958565b9050850151896158dc565b91506001850160005260206000206000925b601f1983168410615ca4576001935082601f19811610615c8b575b5050811b0160018401556158f3565b87015160001960f88460031b161c191690558980615c7c565b87810151825560209384019360019092019101615c61565b615ceb90600186016000526020600020601f840160051c8101916020851061153257601f0160051c0190616d1f565b886158c5565b3461039257615cff366161d3565b615d07616cfc565b6201518042049182600052602092600e845260406000205415615ea4575b5060405193615d33856160fe565b60008552615d42600254616518565b92836002558360005260058552604060002090848255600196878301908451916001600160401b03831161153c578892615d7c8254616263565b601f8111615e74575b5083601f8211600114615e23576000908261148b5750600019600383901b1c1916908b1b179055600284018054600161ff0160a81b0319163362ff00ff60a01b191617600160a01b1760ff60a81b191690556000600385018190556004850181905560058501879055600685018a9055600785015542600885015580519081611453575050508015801561142c57505050604051916112f9836160c7565b908b91601f1982169084600052866000209160005b818110615e52575083116114c6575050811b019055611280565b939596979194829193868d015181550194019201918d93918d97969593615e38565b615e9e908360005285600020601f840160051c81019187851061153257601f0160051c0190616d1f565b8b615d85565b60405163f8413b0760e01b8152848160048160007f00000000000000000000000000000000000000000000000000000000000000006001600160a01b03165af19081156115fa578591615f23575b507fc0e1ee3df0ccc2047d8cfbc4ba1057d58b46fd44d040ae612052e94c48b98b209060405160008152a284615d25565b813d8311615f45575b615f368183616150565b81010312610392578386615ef2565b503d615f2c565b3461039257604036600319011261039257615f65616037565b6001600160a01b031660009081526008602052604090208054602435919082101561039257602091615f9691616063565b90546040519160031b1c8152f35b34610392576020366003190112610392577ffcc9e1bab18876e9da15b014af31492eb0229b8bc33b8edde9689afe3617f67b6040600435615fe3616c51565b8015158061602b575b615ff59061642e565b61600181600454616471565b60045560005461601b9082906001600160a01b0316616c7d565b60045482519182526020820152a1005b50600454811115615fec565b600435906001600160a01b038216820361039257565b602435906001600160a01b038216820361039257565b805482101561607b5760005260206000200190600090565b634e487b7160e01b600052603260045260246000fd5b60c081019081106001600160401b0382111761153c57604052565b608081019081106001600160401b0382111761153c57604052565b60e081019081106001600160401b0382111761153c57604052565b6102e081019081106001600160401b0382111761153c57604052565b602081019081106001600160401b0382111761153c57604052565b606081019081106001600160401b0382111761153c57604052565b6101a081019081106001600160401b0382111761153c57604052565b90601f801991011681019081106001600160401b0382111761153c57604052565b6001600160401b03811161153c57601f01601f191660200190565b81601f82011215610392578035906161a382616171565b926161b16040519485616150565b8284526020838301011161039257816000926020809301838601378301015290565b606060031982011261039257600435906001600160401b038211610392576161fd9160040161618c565b906024359060443590565b9060a0600319830112610392576001600160401b0360043581811161039257836162349160040161618c565b92602435600281101561039257926044359260643592608435918211610392576162609160040161618c565b90565b90600182811c92168015616293575b602083101461627d57565b634e487b7160e01b600052602260045260246000fd5b91607f1691616272565b906040519182600082546162b081616263565b9081845260209460019160018116908160001461632057506001146162e1575b5050506162df92500383616150565b565b600090815285812095935091905b8183106163085750506162df93508201013880806162d0565b855488840185015294850194879450918301916162ef565b925050506162df94925060ff191682840152151560051b8201013880806162d0565b60005b8381106163555750506000910152565b8181015183820152602001616345565b9060209161637e81518092818552858086019101616342565b601f01601f1916010190565b6002111561059757565b9060068210156105975752565b90815180825260208080930193019160005b8281106163c1575050505090565b8351855293810193928101926001016163b3565b3461039257600036600319011261039257602060405160058152f35b606090600319011261039257600435906024359060443590565b6040906003190112610392576004359060243590565b9060038210156105975752565b1561643557565b60405162461bcd60e51b8152602060048201526014602482015273496e73756666696369656e742062616c616e636560601b6044820152606490fd5b91908203918211610da557565b90604051918281549182825260209260208301916000526020600020936000905b8282106164b5575050506162df92500383616150565b85548452600195860195889550938101939091019061649f565b6001600160401b03811161153c5760051b60200190565b906164f0826164cf565b6164fd6040519182616150565b828152809261650e601f19916164cf565b0190602036910137565b6000198114610da55760010190565b805182101561607b5760209160051b010190565b1561654257565b60405162461bcd60e51b8152602060048201526011602482015270159491881b9bdd08199d5b199a5b1b1959607a1b6044820152606490fd5b1561658257565b60405162461bcd60e51b815260206004820152600f60248201526e47616d65206e6f742061637469766560881b6044820152606490fd5b91908201809211610da557565b156165cd57565b60405162461bcd60e51b8152602060048201526011602482015270105b1c9958591e4818dbdb5c1b195d1959607a1b6044820152606490fd5b1561660d57565b60405162461bcd60e51b815260206004820152601760248201527f50656e616c747920616c7265616479206170706c6965640000000000000000006044820152606490fd5b9060038110156105975762ff000082549160101b169062ff00001916179055565b1561667a57565b60405162461bcd60e51b815260206004820152601660248201527511d85b5948185b1c9958591e4818dbdb5c1b195d195960521b6044820152606490fd5b156166bf57565b60405162461bcd60e51b81526020600482015260126024820152714f6e6c7920666f72205056502067616d657360701b6044820152606490fd5b1561670057565b60405162461bcd60e51b815260206004820152600c60248201526b2737ba103090383630bcb2b960a11b6044820152606490fd5b9060c382029180830460c31490151715610da557565b1561675157565b60405162461bcd60e51b815260206004820152601960248201527f47616d6520697320616c726561647920636f6d706c65746564000000000000006044820152606490fd5b1561679d57565b60405162461bcd60e51b815260206004820152601460248201527347616d65206e6f7420696e2070726f677265737360601b6044820152606490fd5b156167e057565b60405162461bcd60e51b815260206004820152601860248201527f506c6179657220616c726561647920636f6d706c6574656400000000000000006044820152606490fd5b1561682c57565b60405162461bcd60e51b815260206004820152601860248201527f506c6179657220616c7265616479207375626d697474656400000000000000006044820152606490fd5b1561687857565b60405162461bcd60e51b8152602060048201526014602482015273496e76616c696420706c6179657220737461746560601b6044820152606490fd5b156168bb57565b60405162461bcd60e51b8152602060048201526011602482015270105b1c9958591e4818dbdb5b5a5d1d1959607a1b6044820152606490fd5b156168fb57565b60405162461bcd60e51b8152602060048201526012602482015271466c697020636f756e7420746f6f206c6f7760701b6044820152606490fd5b1561693c57565b60405162461bcd60e51b8152602060048201526011602482015270556e7265616c69737469632073636f726560781b6044820152606490fd5b811561697f570690565b634e487b7160e01b600052601260045260246000fd5b604051906169a2826160ac565b60006060838281528260208201528260408201520152565b156169c157565b60405162461bcd60e51b815260206004820152600a6024820152694e6f20706c617965727360b01b6044820152606490fd5b156169fa57565b606460405162461bcd60e51b815260206004820152602060248201527f467265652067616d657320646f6e27742072657175697265207061796d656e746044820152fd5b8054600160401b81101561153c57616a5b91600182018155616063565b60018060a09493941b038084549260031b9316831b921b1916179055565b8054600160401b81101561153c57616a9691600182018155616063565b819291549060031b91821b91600019901b1916179055565b15616ab557565b60405162461bcd60e51b815260206004820152601b60248201527f506c61796572206e6f7420696e20706c6179696e6720737461746500000000006044820152606490fd5b90816060910312610392578051916040602083015192015180151581036103925790565b8015610da5576000190190565b15616b3257565b60405162461bcd60e51b8152602060048201526014602482015273125b9d985b1a59081c1b185e595c8818dbdd5b9d60621b6044820152606490fd5b15616b7557565b60405162461bcd60e51b815260206004820152602360248201527f41492067616d6573206d75737420686176652065786163746c79203120706c616044820152623cb2b960e91b6064820152608490fd5b15616bcd57565b60405162461bcd60e51b815260206004820152601a60248201527f496e73756666696369656e7420686f7573652062616c616e63650000000000006044820152606490fd5b60005260056020526040600020616c2f60ff60128301541661653b565b601181018054616c4757506010616260910154617912565b616260915061647e565b6000546001600160a01b03163303616c6557565b60405163118cdaa760e01b8152336004820152602490fd5b6000918291829182916001600160a01b03165af13d15616cf7573d616ca181616171565b90616caf6040519283616150565b8152600060203d92013e5b15616cc157565b60405162461bcd60e51b815260206004820152600e60248201526d14185e5b595b9d0819985a5b195960921b6044820152606490fd5b616cba565b600260015414616d0d576002600155565b604051633ee5aeb560e01b8152600490fd5b818110616d2a575050565b60008155600101616d1f565b9093616d43600254616518565b938460025584600052600560205260406000209185835583516001600160401b03811161153c57616d776001850154616263565b601f8111617173575b50806020601f8211600114617106576000916170fb575b508160011b916000199060031b1c19161760018401555b600283018054616dbd8961638a565b60a089901b60ff60a01b166001600160b81b03199091163362ffffff60a01b19161717905560006003840181905560048401819055600584018690556001600685015560078401554260088401558051806170cf575b5050616e1e8661638a565b60018614806170c6575b61709c575b5050604051616e3b816160c7565b3381526020810160008152616ed96040830160008152611964600460608601956000875260808101966000885260a08201946001865260c0830197600089528c600052600660205260406000203360005260205260406000209360018060a01b039051166001600160601b0360a01b8554161784555160018401555160028301555160038201550194511515859060ff801983541691151516179055565b51600381101561059757616eec91616652565b826000526007602052616f03336040600020616a3e565b336000526008602052616f1a836040600020616a79565b616f238461638a565b831580617092575b616f78575b60008051602061883e83398151915291616f5560405192608084526080840190616365565b94616f5f8161638a565b60208301526000604083015260608201528033940390a3565b604051917f0000000000000000000000000000000000000000000000000000000000000000616fa6846160c7565b60018060a01b03811684526000602085015260006040850152600060608501526000608085015260a084016001815261705b60c086019160008352876000526006602052604060002060018060a01b038516600052602052611b0060806004604060002060018060a01b038b51166001600160601b0360a01b82541617815560208b0151600182015560408b0151600282015560608b01516003820155019801511515889060ff801983541691151516179055565b5190600382101561059757611b3e6170829260008051602061883e83398151915296616652565b61708b8461722a565b9150616f30565b5060018214616f2b565b610e1090818102918183041490151715610da5576170bc600b91426165b9565b9101553880616e2d565b50801515616e28565b6170ec602080938361146e60405195869385850198899101616342565b51902060138301553880616e13565b905085015138616d97565b91506001850160005260206000206000925b601f198316841061715b576001935082601f19811610617142575b5050811b016001840155616dae565b87015160001960f88460031b161c191690553880617133565b87810151825560209384019360019092019101617118565b6171a290600186016000526020600020601f840160051c8101916020851061153257601f0160051c0190616d1f565b38616d80565b806000526005602052604060002090600282019182549260ff8460a81c16936006851015610597576171df60026162df9614616796565b60ff60a81b1916600360a81b17905542600a91909101556040516003815281907f365a3d0a71be5f440c8224437355d5bd81a703759bf906e441902272bfbafcb390602090a2617a26565b90600082815260209060058252604090818120946002860193845460ff9560ff8260a81c1691600692838110156176795761763c5760ff8160a01c1661726f8161638a565b6175e9576001838b0154106175b0578486528284528686207f00000000000000000000000000000000000000000000000000000000000000006001600160a01b0316875284528686206004015460081c60ff1615617577575b60ff60a81b1916600160a81b179055426009890155835b83855260078352858520805482101561735e57906172ff81600193616063565b838060a01b0391549060031b1c16858752838552878720818852855260049089828a8a20015460081c16617336575b5050016172df565b868852848652888820908852855287872001805462ff0000191662010000179055388061732e565b5050845163f8413b0760e01b815296979296939550929392507f00000000000000000000000000000000000000000000000000000000000000006001600160a01b03169190808560048189875af194851561756d57918793918793849761750f575b50927f587602b661da57eff43c58d2ebb4b7c66d08862f786faf29f390136b3309a1289287600f6024948960038661744e8c60609c88845260098152818685205585519561740d876160ac565b898752600a828801928684528289019487865260608a019780895252528b2095518655516001860155511515600285019060ff801983541691151516179055565b51910155828a51998a988783837ff7617d06180c24c92bad8c8436c3ae97409a09e1f5655da6c0807f50c5f96748838e9ca380a30155878a7fb4a411a01bc386893734d83e17411a973f9dbb12732aff7a88d6964f1360b1608b80a36302d8ca0160e11b8252600482018890525afa918215617506575083916174df575b506174d657505050565b6162df92617731565b90506174fb91925060603d606011612fc757612fb68183616150565b9291905091386174cc565b513d85823e3d90fd5b92959650935091508281813d8311617566575b61752c8183616150565b810103126175625751939286928692907f587602b661da57eff43c58d2ebb4b7c66d08862f786faf29f390136b3309a1286173c0565b8580fd5b503d617522565b84513d88823e3d90fd5b865162461bcd60e51b81526004810185905260126024820152711052481b9bdd081a5b9a5d1a585b1a5e995960721b6044820152606490fd5b865162461bcd60e51b81526004810185905260126024820152714e6f7420656e6f75676820706c617965727360701b6044820152606490fd5b828a015460058b015411156172c857865162461bcd60e51b815260048101859052601b60248201527f4e6f7420656e6f75676820706c617965727320746f20737461727400000000006044820152606490fd5b865162461bcd60e51b815260048101859052601660248201527511d85b594818d85b9b9bdd081899481cdd185c9d195960521b6044820152606490fd5b634e487b7160e01b87526021600452602487fd5b6000816000526020600560205260409160406000209260009160018060a01b0392837f000000000000000000000000000000000000000000000000000000000000000016945b8783526007815283832080548310156177265782866176f6600795600194616063565b919054600392831b1c16898103617712575b50500191506176d3565b61771f918b015490616c7d565b3880617708565b505050505050505050565b9091600090828252602091600583526040908181206012810180549060ff82166178da578560108401556001809260ff19161790558351617771816160ac565b88815260038782018781526177ba8784016001815260608501924284528c8952600a8c5289892095518655516001860155511515600285019060ff801983541691151516179055565b519101556177c785617912565b92601183018451916001600160401b0383116178c657600160401b83116178c65781548383558084106178ac575b5097969594919289938b9592898501908b52898b205b828c106178935750505050600201805460ff60a81b1916600160a91b17905583518581528681018590527ff08583df698fbc18e549df63e2f88e2920d41a51a461b43c5a65a517db5c64b997507f76870250771fe5bcc9b4ec83f635583a81b6d2e870819e4134563ab8bca7800e91819061788990828801906163a1565b0390a351908152a3565b81518c8201559a83019a8d97508c9650908a019061780b565b8282528982206178c0918101908501616d1f565b386177f5565b634e487b7160e01b81526041600452602490fd5b845162461bcd60e51b8152600481018890526011602482015270105b1c9958591e48199d5b199a5b1b1959607a1b6044820152606490fd5b90604080519061792182616134565b600c90600c835260209061018095863660208701376040519661794388616134565b600c885236602089013760005b848110617a11575090600b91825b617996575050505060005b818110617977575090925050565b8061798460019287616527565b5161798f8286616527565b5201617969565b60018301808411610da5576179ab9082616975565b92825191858301908152858352838301928084106001600160401b0385111761153c57617a0a93855251902093617a046179e5838c616527565b51918b6179fd856179f68484616527565b5192616527565b528b616527565b52616b1e565b918261795e565b8080617a1f6001938b616527565b5201617950565b90816000526005602052604060002090617a4660ff60128401541661653b565b600b820154928315159384618656575b5060008181526007602052604081205494819060001990617a8f617a79896164cf565b98617a876040519a8b616150565b808a526164cf565b601f19013660208a01376000956000936000935b87600052600760205260406000208054861015617bb45785617ac491616063565b60018060a01b0391549060031b1c169688600052600660205260406000208860005260205260406000209960049760ff898d015416158015617ba8575b617b9857617b10600291616518565b9b0154938d84861015617b5857505050505094806001958b5115617b43575060208b0152600185945b0193979495617aa3565b603290634e487b7160e01b6000525260246000fd5b9298509392809991979314617b72575b5050600190617b39565b956001929661542182617b88617b8e959b616518565b9a616527565b9490508a38617b68565b9a50959096506001919750617b39565b5060028c015415617b01565b509698959291999350969381908161864d575b5061836f5761805e575b6001600160a01b03861615618027576000198514617fe25760011080617fd8575b617f7c575b5050600c810180546001600160a01b0319166001600160a01b0385169081179091556000858152600660209081526040808320848452825291829020600181810154600d870155600291820154600e87018190556004870154600f8801548651918252948101829052948501939093529460ff9491939092919089907f5f5c334197520a152f092df6690f941be7e48ac07124cf867206738cac4a6a3b90606090a3604051908152877ff5d92df6ae1a0b46d0a0c57c2e1da0d75d7591d2804ad086cb1e27ba67de7aaf6020878060a01b038a1693a3015460b01c16617cdc8161638a565b03617f7157506000828152600560205260409020906001600160a01b03811615617f3b574783600284019260ff845460a01c16617d188161638a565b617e91577fdc1d0b6a7cbfa6f3b2d4325bab5a169b265ad0b2b4022fb550364f0dfeeb6a74906020906001600160a01b038082167f000000000000000000000000000000000000000000000000000000000000000090911603617e3057617d8660038801548096101561642e565b617d92856004546165b9565b6004555b6040519485526001600160a01b031693a35460ff8160a01c16617db88161638a565b159081617e16575b50617dc9575050565b60030154600581029080820460051490151715610da55760407f6519409340f1ec7d14147fd4e3eeeef8ef0c2bc4a7e5e587357443f1f5f2880891606482519160058352046020820152a2565b6001915060b01c60ff16617e298161638a565b1438617dc0565b617e79600388015495617e736064617e4789616734565b0497617e6d8960045494617e66617e5e8584616471565b871015616bc6565b101561642e565b88616471565b90616471565b6004558415617d9657617e8c8582616c7d565b617d96565b905060048401548015617f0b57600a810290808204600a03610da5578692617ef8602092617ef0617ee760647fdc1d0b6a7cbfa6f3b2d4325bab5a169b265ad0b2b4022fb550364f0dfeeb6a7497048093616471565b8098101561642e565b6003546165b9565b6003558415617d9657617e8c8582616c7d565b60405162461bcd60e51b81526020600482015260086024820152674e6f207072697a6560c01b6044820152606490fd5b60405162461bcd60e51b815260206004820152600e60248201526d24b73b30b634b2103bb4b73732b960911b6044820152606490fd5b906162df9250618661565b600192945060ff91617fa8600292617fa2868060a01b039361271060108b015404616975565b90616527565b511694867f6735b98d5d75eb6a72ff7cbd805fc91d5ee18e1b5d11043b0e649b6f22c9cab8600080a29250617bf7565b5060018211617bf2565b60405162461bcd60e51b815260206004820152601a60248201527f4e6f20636f6d706c6574656420706c617965727320666f756e640000000000006044820152606490fd5b60405162461bcd60e51b815260206004820152600f60248201526e139bc81dda5b9b995c88199bdd5b99608a1b6044820152606490fd5b9390959491969285600052600560205260406000209760005b8760005260076020526040600020805482101561835f578161809891616063565b91905491896000526006602052604060002060018060a01b03848360031b1c166000526020528b60406000208b6000526015602052604060002060018060a01b03868560031b1c1660005260205260ff60406000205416908115618350575b506183455760ff60026001928d60005260156020526040600020848060a01b03888760031b1c166000526020526040600020848419825416179055601760205260406000206181468154616518565b9055838060a01b03878660031b1c16600052601660205242604060002055015460b01c166181738161638a565b1480618338575b156181f05760038c0154906032938285810204851483151715610da55760408c928f926000805160206188be833981519152936181ce60046181c4606460019c8b0204809a616471565b92019182546165b9565b90558251958887526020870152878060a01b039160031b1c1693a35b01618077565b9160105480618294575b5060018060a01b03818460031b1c1660005260186020526004604060002001928a603285541015600014618276575083549384603119810111610da55760408c926000805160206188be833981519152926001976031190190555b8151946002865260326020870152878060a01b039160031b1c1693a36181ea565b9060406000805160206188be83398151915291600060019755618255565b806000526011602052604060002060018060a01b03838660031b1c166000526020526032604060002054101560001461830b57506010546000526011602052604060002060018060a01b03828560031b1c166000526020526040600020805480603119810111610da5576031190190555b386181fa565b6000526011602052604060002060018060a01b03828560031b1c1660005260205260006040812055618305565b5060038c0154151561817a565b5050600191506181ea565b60ff91506004015416386180f7565b5050929596919490939750617bd1565b50505050505050806000526005602052604060002090600160ff600284015460b01c1661839b8161638a565b0361860f57600482015480156185d6576183b78147101561642e565b600a8102818104600a03610da5576183d660646183df92048093616471565b916003546165b9565b60035581600052600760205260406000205480156183fd81156169ba565b61697f5761840b8183616975565b6000905b8282106185385750505060028301549260ff8460a81c16916006831015610597576000847f5f5c334197520a152f092df6690f941be7e48ac07124cf867206738cac4a6a3b6060600f602096859a61848a60027fdc1d0b6a7cbfa6f3b2d4325bab5a169b265ad0b2b4022fb550364f0dfeeb6a749b14616673565b60ff60a81b1916600360a81b17600282015542600a820155600c810180546001600160a01b0319169055600d8101869055600e81018690556040516003815285907f365a3d0a71be5f440c8224437355d5bd81a703759bf906e441902272bfbafcb3908a90a201546040519086825285888301526040820152a384847ff5d92df6ae1a0b46d0a0c57c2e1da0d75d7591d2804ad086cb1e27ba67de7aaf84604051848152a3604051908152a3565b84600052600760205261854f826040600020616063565b90546001600160a01b0360039290921b1c811692908486049082159081156185b4575b5061859c575b92836001939461858c575b5050019061840f565b61859591616c7d565b3880618583565b506185ab6001928587046165b9565b60009250618578565b8415159150816185c6575b5038618572565b90506002890154168414386185bf565b60405162461bcd60e51b81526020600482015260116024820152704e6f207072697a6520746f20736861726560781b6044820152606490fd5b60405162461bcd60e51b81526020600482015260166024820152754f6e6c7920666f7220776167657265642067616d657360501b6044820152606490fd5b90501538617bc7565b421015935038617a56565b6001600160a01b03808216939291907f00000000000000000000000000000000000000000000000000000000000000001684146187b657600093808552601860205260408520906001600160601b0360a01b825416178155600181016186c78154616518565b9055600381016186d78154616518565b9055600a601484106187ae575b6186ee90836187bc565b8260028201805480159081156187a4575b5061879c575b5050606492600a811115618737575b506162df9394506004810161872a8482546165b9565b90556005429101556187bc565b80919350600b0390600b821161878857600a8202918204600a1490600b1417156187745760640180606411618774576162df939450918493618714565b634e487b7160e01b85526011600452602485fd5b634e487b7160e01b86526011600452602486fd5b558238618705565b90508210386186ff565b50600f6186e4565b50509050565b9060105490816187cb57505050565b60009182526011602052604082209260018060a01b0316928383526020526187f8604083209182546165b9565b90557f3830ede34d2e3f029802cd34ac105737edd990282473734067b348a70928a6ec60206040601054938481526011835281812086825283522054604051908152a356fe73f639a997d47bc9ecf8116dac1744591113286ad7fdb2b14682af6efcb58d39e3a512f2b722eba73136c0de5172e96c972b81970c46f27f849721a417c9ed012ecf1060bd564763fe3441b33336591c4f6c10b56b72d6b8a9694c943d73af2f106ab7fefb82ae9482e45da193781eb91dd8310c7f56ccd099fcd5eacffd962fa5ee24466d806c8a4fb12582d05bc3d29b7e6e46e982a9930a2d1be39ba1507a0b0c18893b0f31203ff15126b73a68ad2a3a6f01b9dc95ea78848bdf0cae1500a2646970667358221220efd36c6f5c55a6fc424ee323e6f6b3b0ee265c680b04d5302286153bbde77f0164736f6c63430008180033",
  "linkReferences": {},
  "deployedLinkReferences": {}
}