{
  "_format": "hh-sol-artifact-1",
  "contractName": "Dice",
  "sourceName": "contracts/casino/Dice.sol",
  "abi": [
    {
      "inputs": [
        {
          "internalType": "address",
          "name": "_owner",
          "type": "address"
        },
        {
          "internalType": "address",
          "name": "_token",
          "type": "address"
        },
        {
          "internalType": "address",
          "name": "_pythVRF",
          "type": "address"
        }
      ],
      "stateMutability": "nonpayable",
      "type": "constructor"
    },
    {
      "inputs": [],
      "name": "BetTooHigh",
      "type": "error"
    },
    {
      "inputs": [],
      "name": "BetTooLow",
      "type": "error"
    },
    {
      "inputs": [
        {
          "internalType": "address",
          "name": "owner",
          "type": "address"
        }
      ],
      "name": "OwnableInvalidOwner",
      "type": "error"
    },
    {
      "inputs": [
        {
          "internalType": "address",
          "name": "account",
          "type": "address"
        }
      ],
      "name": "OwnableUnauthorizedAccount",
      "type": "error"
    },
    {
      "inputs": [],
      "name": "ReentrancyGuardReentrantCall",
      "type": "error"
    },
    {
      "inputs": [
        {
          "internalType": "address",
          "name": "token",
          "type": "address"
        }
      ],
      "name": "SafeERC20FailedOperation",
      "type": "error"
    },
    {
      "anonymous": false,
      "inputs": [
        {
          "indexed": true,
          "internalType": "uint256",
          "name": "gameId",
          "type": "uint256"
        },
        {
          "indexed": false,
          "internalType": "uint256",
          "name": "roll",
          "type": "uint256"
        },
        {
          "indexed": false,
          "internalType": "uint256",
          "name": "reward",
          "type": "uint256"
        },
        {
          "indexed": false,
          "internalType": "uint8",
          "name": "streak",
          "type": "uint8"
        },
        {
          "indexed": false,
          "internalType": "uint256",
          "name": "lootRarity",
          "type": "uint256"
        }
      ],
      "name": "GameSettled",
      "type": "event"
    },
    {
      "anonymous": false,
      "inputs": [
        {
          "indexed": true,
          "internalType": "uint256",
          "name": "gameId",
          "type": "uint256"
        },
        {
          "indexed": true,
          "internalType": "address",
          "name": "player",
          "type": "address"
        }
      ],
      "name": "GameStarted",
      "type": "event"
    },
    {
      "anonymous": false,
      "inputs": [
        {
          "indexed": true,
          "internalType": "address",
          "name": "previousOwner",
          "type": "address"
        },
        {
          "indexed": true,
          "internalType": "address",
          "name": "newOwner",
          "type": "address"
        }
      ],
      "name": "OwnershipTransferred",
      "type": "event"
    },
    {
      "inputs": [],
      "name": "config",
      "outputs": [
        {
          "internalType": "address",
          "name": "treasury",
          "type": "address"
        },
        {
          "internalType": "uint256",
          "name": "minPlay",
          "type": "uint256"
        },
        {
          "internalType": "uint256",
          "name": "maxPlay",
          "type": "uint256"
        },
        {
          "internalType": "uint16",
          "name": "houseEdgeBps",
          "type": "uint16"
        },
        {
          "internalType": "bool",
          "name": "paused",
          "type": "bool"
        }
      ],
      "stateMutability": "view",
      "type": "function"
    },
    {
      "inputs": [
        {
          "internalType": "bytes32",
          "name": "requestId",
          "type": "bytes32"
        },
        {
          "internalType": "uint256",
          "name": "randomness",
          "type": "uint256"
        }
      ],
      "name": "fulfillRandomness",
      "outputs": [],
      "stateMutability": "nonpayable",
      "type": "function"
    },
    {
      "inputs": [],
      "name": "gameCounter",
      "outputs": [
        {
          "internalType": "uint256",
          "name": "",
          "type": "uint256"
        }
      ],
      "stateMutability": "view",
      "type": "function"
    },
    {
      "inputs": [
        {
          "internalType": "uint256",
          "name": "",
          "type": "uint256"
        }
      ],
      "name": "games",
      "outputs": [
        {
          "internalType": "address",
          "name": "player",
          "type": "address"
        },
        {
          "internalType": "uint256",
          "name": "gameId",
          "type": "uint256"
        },
        {
          "internalType": "uint256",
          "name": "roll",
          "type": "uint256"
        },
        {
          "internalType": "uint256",
          "name": "reward",
          "type": "uint256"
        },
        {
          "internalType": "uint8",
          "name": "streak",
          "type": "uint8"
        },
        {
          "internalType": "uint256",
          "name": "lootRarity",
          "type": "uint256"
        }
      ],
      "stateMutability": "view",
      "type": "function"
    },
    {
      "inputs": [
        {
          "internalType": "uint256",
          "name": "gameId",
          "type": "uint256"
        }
      ],
      "name": "getGame",
      "outputs": [
        {
          "components": [
            {
              "internalType": "address",
              "name": "player",
              "type": "address"
            },
            {
              "internalType": "uint256",
              "name": "gameId",
              "type": "uint256"
            },
            {
              "internalType": "uint256",
              "name": "roll",
              "type": "uint256"
            },
            {
              "internalType": "uint256",
              "name": "reward",
              "type": "uint256"
            },
            {
              "internalType": "uint8",
              "name": "streak",
              "type": "uint8"
            },
            {
              "internalType": "uint256",
              "name": "lootRarity",
              "type": "uint256"
            }
          ],
          "internalType": "struct Dice.GameResult",
          "name": "",
          "type": "tuple"
        }
      ],
      "stateMutability": "view",
      "type": "function"
    },
    {
      "inputs": [
        {
          "internalType": "uint256",
          "name": "gameId",
          "type": "uint256"
        }
      ],
      "name": "getPendingGame",
      "outputs": [
        {
          "components": [
            {
              "internalType": "address",
              "name": "player",
              "type": "address"
            },
            {
              "internalType": "uint256",
              "name": "amount",
              "type": "uint256"
            },
            {
              "internalType": "uint8",
              "name": "target",
              "type": "uint8"
            },
            {
              "internalType": "bool",
              "name": "rollUnder",
              "type": "bool"
            },
            {
              "internalType": "uint8",
              "name": "streak",
              "type": "uint8"
            },
            {
              "internalType": "uint256",
              "name": "multiplierBps",
              "type": "uint256"
            }
          ],
          "internalType": "struct Dice.PendingGame",
          "name": "",
          "type": "tuple"
        }
      ],
      "stateMutability": "view",
      "type": "function"
    },
    {
      "inputs": [],
      "name": "getPrizePool",
      "outputs": [
        {
          "internalType": "uint256",
          "name": "",
          "type": "uint256"
        }
      ],
      "stateMutability": "view",
      "type": "function"
    },
    {
      "inputs": [
        {
          "internalType": "address",
          "name": "treasury",
          "type": "address"
        },
        {
          "internalType": "uint256",
          "name": "minPlay",
          "type": "uint256"
        },
        {
          "internalType": "uint256",
          "name": "maxPlay",
          "type": "uint256"
        },
        {
          "internalType": "uint16",
          "name": "houseEdgeBps",
          "type": "uint16"
        }
      ],
      "name": "initialize",
      "outputs": [],
      "stateMutability": "nonpayable",
      "type": "function"
    },
    {
      "inputs": [],
      "name": "owner",
      "outputs": [
        {
          "internalType": "address",
          "name": "",
          "type": "address"
        }
      ],
      "stateMutability": "view",
      "type": "function"
    },
    {
      "inputs": [],
      "name": "pause",
      "outputs": [],
      "stateMutability": "nonpayable",
      "type": "function"
    },
    {
      "inputs": [
        {
          "internalType": "uint256",
          "name": "",
          "type": "uint256"
        }
      ],
      "name": "pendingGames",
      "outputs": [
        {
          "internalType": "address",
          "name": "player",
          "type": "address"
        },
        {
          "internalType": "uint256",
          "name": "amount",
          "type": "uint256"
        },
        {
          "internalType": "uint8",
          "name": "target",
          "type": "uint8"
        },
        {
          "internalType": "bool",
          "name": "rollUnder",
          "type": "bool"
        },
        {
          "internalType": "uint8",
          "name": "streak",
          "type": "uint8"
        },
        {
          "internalType": "uint256",
          "name": "multiplierBps",
          "type": "uint256"
        }
      ],
      "stateMutability": "view",
      "type": "function"
    },
    {
      "inputs": [
        {
          "internalType": "uint256",
          "name": "amount",
          "type": "uint256"
        },
        {
          "internalType": "uint8",
          "name": "target",
          "type": "uint8"
        },
        {
          "internalType": "bool",
          "name": "rollUnder",
          "type": "bool"
        }
      ],
      "name": "play",
      "outputs": [],
      "stateMutability": "payable",
      "type": "function"
    },
    {
      "inputs": [],
      "name": "prizePool",
      "outputs": [
        {
          "internalType": "uint256",
          "name": "",
          "type": "uint256"
        }
      ],
      "stateMutability": "view",
      "type": "function"
    },
    {
      "inputs": [],
      "name": "pythVRF",
      "outputs": [
        {
          "internalType": "contract IPythVRF",
          "name": "",
          "type": "address"
        }
      ],
      "stateMutability": "view",
      "type": "function"
    },
    {
      "inputs": [],
      "name": "renounceOwnership",
      "outputs": [],
      "stateMutability": "nonpayable",
      "type": "function"
    },
    {
      "inputs": [
        {
          "internalType": "address",
          "name": "_pythVRF",
          "type": "address"
        }
      ],
      "name": "setPythVRF",
      "outputs": [],
      "stateMutability": "nonpayable",
      "type": "function"
    },
    {
      "inputs": [],
      "name": "token",
      "outputs": [
        {
          "internalType": "address",
          "name": "",
          "type": "address"
        }
      ],
      "stateMutability": "view",
      "type": "function"
    },
    {
      "inputs": [
        {
          "internalType": "address",
          "name": "newOwner",
          "type": "address"
        }
      ],
      "name": "transferOwnership",
      "outputs": [],
      "stateMutability": "nonpayable",
      "type": "function"
    },
    {
      "inputs": [],
      "name": "unpause",
      "outputs": [],
      "stateMutability": "nonpayable",
      "type": "function"
    },
    {
      "inputs": [
        {
          "internalType": "bytes32",
          "name": "",
          "type": "bytes32"
        }
      ],
      "name": "vrfRequestToGame",
      "outputs": [
        {
          "internalType": "uint256",
          "name": "",
          "type": "uint256"
        }
      ],
      "stateMutability": "view",
      "type": "function"
    }
  ],
  "bytecode": "0x6080346100f057601f6111f538819003918201601f19168301916001600160401b038311848410176100f5578084926060946040528339810103126100f0576100478161010b565b61005f60406100586020850161010b565b930161010b565b6001600160a01b03918216919082156100d757816000549460018060a01b03199480868816176000558260405197167f8be0079c531659141344cd1fd0a4f28419497f9722a3daafe3b4186f6b6457e0600080a36001805516836007541617600755169060065416176006556110d590816101208239f35b604051631e4fbdf760e01b815260006004820152602490fd5b600080fd5b634e487b7160e01b600052604160045260246000fd5b51906001600160a01b03821682036100f05756fe608060408181526004918236101561001657600080fd5b600092833560e01c918263117a5b9014610f24575081631f1f897f14610a545781632e0be39a14610a355781633d598f80146109835781633f4ba83a1461095b578163579e94ee146108ed578163715018a614610893578163719ce73e1461078a578163772d84c41461086a57816379502c551461081957816383ba98ae146107d95781638456cb59146107a9578163884bf67c1461078a5781638a7626d1146107625781638da5cb5b1461073a578163a2f77bcc14610692578163caf5082814610288578163cbb6d6bd146101bc578163f2fde38b1461012c575063fc0c546a1461010157600080fd5b3461012857816003193601126101285760075490516001600160a01b039091168152602090f35b5080fd5b9050346101b85760203660031901126101b857610147610f8f565b90610150611073565b6001600160a01b039182169283156101a2575050600054826001600160601b0360a01b821617600055167f8be0079c531659141344cd1fd0a4f28419497f9722a3daafe3b4186f6b6457e0600080a380f35b51631e4fbdf760e01b8152908101849052602490fd5b8280fd5b919050346101b85760803660031901126101b8576101d8610f8f565b91602435604435926064359461ffff8616809603610284576101f8611073565b81519060a0820182811067ffffffffffffffff82111761026f5783526001600160a01b03168082526020820184905291810185905260608101869052608001869052600280546001600160a01b0319169091179055600355556005805462ffffff191690911782151560101b62ff00001617905580f35b604186634e487b7160e01b6000525260246000fd5b8680fd5b839150606036600319011261012857803560249384359160ff831680930361068e57604435908115158092036104ac576001946002865414610680576002865560ff60055460101c16610655578415158061064b575b156106185760035481549083106106095782116105fb576007546001600160a01b0390811680610551575082340361051d5761031f600a8404600954610faa565b600955878080808685600254165af13d15610518573d67ffffffffffffffff81116105065786519061035b601f8201601f19166020018361101f565b81528960203d92013e5b156104d2575b600854986000198a146104c157508688990195866008558686519161038f83610fed565b3383528a60209788978886019081528a860193845260608601918252868b608088019480865260a08901978189528152600a8c52209651166001600160601b0360a01b875416178655518c86015560028501925160ff1683549151151560081b61ff00169161ffff1916171782555160ff1661041d919062ff000082549160101b169062ff00001916179055565b519060030155600654169084518098819363f8413b0760e01b83525af180156104b757839495879161047f575b508652600b905284205533907ffadb9547847a0c2c31f4c02590545e318d33d7aae99071caecf3fa4ce3cd7dca8480a3805580f35b82809550819392503d83116104b0575b610499818361101f565b810103126104ac5751839290600b61044a565b8580fd5b503d61048f565b82513d88823e3d90fd5b634e487b7160e01b89526011835288fd5b845162461bcd60e51b8152602081840152600f818b01526e151c985b9cd9995c8819985a5b1959608a1b6044820152606490fd5b634e487b7160e01b8a52604184528a8afd5b610365565b845162461bcd60e51b8152602081840152600f818b01526e082dadeeadce840dad2e6dac2e8c6d608b1b6044820152606490fd5b610560600a8504600954610faa565b60095560025486516323b872dd60e01b6020808301918252338e84019081529386166001600160a01b03168482015260408401889052928c92906105b190829060600103601f19810183528261101f565b519082855af1156105f157885188903d6105ea575050803b155b6105d5575061036b565b828a91875191635274afe760e01b8352820152fd5b14156105cb565b85513d8a823e3d90fd5b8351631765320160e11b8152fd5b50835163989e301760e01b8152fd5b606490600e89602087519362461bcd60e51b85528401528201526d125b9d985b1a59081d185c99d95d60921b6044820152fd5b50606485106102de565b606490600689602087519362461bcd60e51b85528401528201526514185d5cd95960d21b6044820152fd5b8351633ee5aeb560e01b8152fd5b8480fd5b9050346101b85760203660031901126101b85760ff8260c0946106b3611041565b5083358152600c602052208351926106ca84610fed565b60018060a01b038254169485855260018301546020860190815260028401549082870191825260a060058760038801549660608b01978852880154169660808a019788520154970196875282519788525160208801525190860152516060850152511660808301525160a0820152f35b505034610128578160031936011261012857905490516001600160a01b039091168152602090f35b9050346101b85760203660031901126101b8576020928291358152600b845220549051908152f35b5050346101285781600319360112610128576020906009549051908152f35b83346107d657806003193601126107d6576107c2611073565b6201000062ff000019600554161760055580f35b80fd5b83346107d65760203660031901126107d6576107f3610f8f565b6107fb611073565b60018060a01b03166001600160601b0360a01b600654161760065580f35b8284346107d657806003193601126107d6575060ff60a092600180851b036002541692600354915490600554928151958652602086015284015261ffff8116606084015260101c1615156080820152f35b50503461012857816003193601126101285760065490516001600160a01b039091168152602090f35b83346107d657806003193601126107d6576108ac611073565b600080546001600160a01b0319811682556001600160a01b03167f8be0079c531659141344cd1fd0a4f28419497f9722a3daafe3b4186f6b6457e08280a380f35b9050346101b85760203660031901126101b85760c0928291358152600a602052209060ff60018060a01b038354169260018101549260036002830154920154938151958652602086015282821690850152818160081c161515606085015260101c16608083015260a0820152f35b83346107d657806003193601126107d657610974611073565b62ff0000196005541660055580f35b9050346101b85760203660031901126101b85760c09282916109a3611041565b50358152600a602052209060ff8151916109bc83610fed565b60018060a01b0384541693848452600181015491602085019283528360028301549382870190828616825260a0600360608a0196858960081c16151588528560808c019960101c1689520154980197885283519889525160208901525116908601525115156060850152511660808301525160a0820152f35b5050346101285781600319360112610128576020906008549051908152f35b919050346101b857806003193601126101b857600654602491823591843591906001600160a01b039081163303610ef757828752602092600b84528288205496878952600a85528389208381541615610ec657606487069760018901809911610eb5579189939189936103e88d9a06998d8b8b600286019889549a8d60ff9c8d8160081c16600014610eab578d811684105b15610e8c575050505050505050600186865460101c1601868111610e7a57855462ff0000191660109190911b62ff0000161785558454868160081c16600014610e665780871660001901878111610e545787905b1660058110610e26578015610e14576305f5e100048761c350808311610e0a575b5061ffff9260101c166101f40282811691908203610dbd57918f92610bb492610b8391610faa565b806003870155610bad6001870154926005541692610ba5612710938492610fcd565b049283610fcd565b0490610fe0565b60058c1091808d8415610dd057505050600a8102818104600a1482151715610dbd57918f92916064610bf29304915b80610db2575b610d8d57610faa565b918860025416918960075416928a86541690803b156101b8578c5163a00c695160e01b81526001600160a01b0395861689820190815292909516602083015260408201869052849182908490829060600103925af18015610d8157610d43575b5050858d938b938d8f8b8d8f979d8e955b5416998c549882519b610c758d610fed565b8c52808c0194808652838d01968752898d60608101998a526080019b60101c168b5260a08d019b8c528252600c9052209851166001600160601b0360a01b895416178855516001880155516002870155516003860155840191511660ff19825416179055519060050155600a865289858120818155816001820155816002820155600301558952600b855288848120555460101c16928251958652850152830152606082015260807fd5b65df4dc0d2194a29b00663ea8f73bfe23b2752581682c4061c5db55b87a1891a280f35b67ffffffffffffffff949e9294829e9d9c9b9a9e11610d7057508c529b999a989997989697918589610c52565b634e487b7160e01b835260418f5282fd5b8f8b51903d90823e3d90fd5b90610dac9060095490610da4600a83048093610fe0565b600955610faa565b90610faa565b506009541515610be9565b50634e487b7160e01b8f5260118552828ffd5b6014909391929310610de7575b610bf29293610be3565b809250600591500281810460051482151715610dbd578f91606490910490610ddd565b91506101f4610b5b565b634e487b7160e01b8f5260128552828ffd5b895162461bcd60e51b81528086018c905260098185015268546f6f207269736b7960b81b6044820152606490fd5b634e487b7160e01b8f5260118552828ffd5b868116606403878111610e54578790610b3a565b50634e487b7160e01b8d52601183528cfd5b8e92939498509d879e998d8f99979b62ff00009d999d19169055610c63565b8d81168411610ae6565b634e487b7160e01b8b52601183528afd5b845162461bcd60e51b8152808301879052600c818a01526b496e76616c69642067616d6560a01b6044820152606490fd5b815162461bcd60e51b81526020818801526008818701526727b7363c902b292360c11b6044820152606490fd5b92915034610f8b576020366003190112610f8b578160c09482358152600c602052209060018060a01b0382541692600183015490600284015491600560ff6003870154958701541695015495875260208701528501526060840152608083015260a0820152f35b8380fd5b600435906001600160a01b0382168203610fa557565b600080fd5b91908201809211610fb757565b634e487b7160e01b600052601160045260246000fd5b81810292918115918404141715610fb757565b91908203918211610fb757565b60c0810190811067ffffffffffffffff82111761100957604052565b634e487b7160e01b600052604160045260246000fd5b90601f8019910116810190811067ffffffffffffffff82111761100957604052565b6040519061104e82610fed565b8160a06000918281528260208201528260408201528260608201528260808201520152565b6000546001600160a01b0316330361108757565b60405163118cdaa760e01b8152336004820152602490fdfea26469706673582212209a16118ec1cb3df13e4a012ce768c62be270908e286cfabd79212abec746f7ff64736f6c63430008180033",
  "linkReferences": {},
  "deployedLinkReferences": {}
}