{
  "_format": "hh-sol-artifact-1",
  "contractName": "Jackpot",
  "sourceName": "contracts/casino/Jackpot.sol",
  "abi": [
    {
      "inputs": [
        {
          "internalType": "address",
          "name": "_owner",
          "type": "address"
        },
        {
          "internalType": "address",
          "name": "_token",
          "type": "address"
        },
        {
          "internalType": "address",
          "name": "_pythVRF",
          "type": "address"
        }
      ],
      "stateMutability": "nonpayable",
      "type": "constructor"
    },
    {
      "inputs": [
        {
          "internalType": "address",
          "name": "owner",
          "type": "address"
        }
      ],
      "name": "OwnableInvalidOwner",
      "type": "error"
    },
    {
      "inputs": [
        {
          "internalType": "address",
          "name": "account",
          "type": "address"
        }
      ],
      "name": "OwnableUnauthorizedAccount",
      "type": "error"
    },
    {
      "inputs": [],
      "name": "ReentrancyGuardReentrantCall",
      "type": "error"
    },
    {
      "inputs": [
        {
          "internalType": "address",
          "name": "token",
          "type": "address"
        }
      ],
      "name": "SafeERC20FailedOperation",
      "type": "error"
    },
    {
      "anonymous": false,
      "inputs": [
        {
          "indexed": true,
          "internalType": "uint256",
          "name": "raffleId",
          "type": "uint256"
        },
        {
          "indexed": true,
          "internalType": "address",
          "name": "player",
          "type": "address"
        },
        {
          "indexed": false,
          "internalType": "uint256",
          "name": "amount",
          "type": "uint256"
        },
        {
          "indexed": false,
          "internalType": "uint256",
          "name": "poolContribution",
          "type": "uint256"
        }
      ],
      "name": "EntryPlaced",
      "type": "event"
    },
    {
      "anonymous": false,
      "inputs": [
        {
          "indexed": true,
          "internalType": "address",
          "name": "previousOwner",
          "type": "address"
        },
        {
          "indexed": true,
          "internalType": "address",
          "name": "newOwner",
          "type": "address"
        }
      ],
      "name": "OwnershipTransferred",
      "type": "event"
    },
    {
      "anonymous": false,
      "inputs": [
        {
          "indexed": true,
          "internalType": "uint256",
          "name": "raffleId",
          "type": "uint256"
        }
      ],
      "name": "RaffleCreated",
      "type": "event"
    },
    {
      "anonymous": false,
      "inputs": [
        {
          "indexed": true,
          "internalType": "uint256",
          "name": "raffleId",
          "type": "uint256"
        },
        {
          "indexed": true,
          "internalType": "address",
          "name": "winner",
          "type": "address"
        },
        {
          "indexed": false,
          "internalType": "uint256",
          "name": "prize",
          "type": "uint256"
        }
      ],
      "name": "WinnerDrawn",
      "type": "event"
    },
    {
      "inputs": [
        {
          "internalType": "uint256",
          "name": "raffleId",
          "type": "uint256"
        }
      ],
      "name": "drawWinner",
      "outputs": [],
      "stateMutability": "nonpayable",
      "type": "function"
    },
    {
      "inputs": [
        {
          "internalType": "uint256",
          "name": "",
          "type": "uint256"
        },
        {
          "internalType": "uint256",
          "name": "",
          "type": "uint256"
        }
      ],
      "name": "entries",
      "outputs": [
        {
          "internalType": "address",
          "name": "player",
          "type": "address"
        },
        {
          "internalType": "uint256",
          "name": "amount",
          "type": "uint256"
        },
        {
          "internalType": "uint256",
          "name": "timestamp",
          "type": "uint256"
        }
      ],
      "stateMutability": "view",
      "type": "function"
    },
    {
      "inputs": [
        {
          "internalType": "bytes32",
          "name": "requestId",
          "type": "bytes32"
        },
        {
          "internalType": "uint256",
          "name": "randomness",
          "type": "uint256"
        }
      ],
      "name": "fulfillRandomness",
      "outputs": [],
      "stateMutability": "nonpayable",
      "type": "function"
    },
    {
      "inputs": [
        {
          "internalType": "uint256",
          "name": "raffleId",
          "type": "uint256"
        }
      ],
      "name": "getRaffle",
      "outputs": [
        {
          "components": [
            {
              "internalType": "uint256",
              "name": "raffleId",
              "type": "uint256"
            },
            {
              "internalType": "uint256",
              "name": "totalPool",
              "type": "uint256"
            },
            {
              "internalType": "uint256",
              "name": "totalEntries",
              "type": "uint256"
            },
            {
              "internalType": "address",
              "name": "winner",
              "type": "address"
            },
            {
              "internalType": "bool",
              "name": "drawn",
              "type": "bool"
            },
            {
              "internalType": "bytes32",
              "name": "vrfRequestId",
              "type": "bytes32"
            }
          ],
          "internalType": "struct Jackpot.Raffle",
          "name": "",
          "type": "tuple"
        }
      ],
      "stateMutability": "view",
      "type": "function"
    },
    {
      "inputs": [
        {
          "internalType": "uint256",
          "name": "raffleId",
          "type": "uint256"
        }
      ],
      "name": "getRaffleEntries",
      "outputs": [
        {
          "components": [
            {
              "internalType": "address",
              "name": "player",
              "type": "address"
            },
            {
              "internalType": "uint256",
              "name": "amount",
              "type": "uint256"
            },
            {
              "internalType": "uint256",
              "name": "timestamp",
              "type": "uint256"
            }
          ],
          "internalType": "struct Jackpot.Entry[]",
          "name": "",
          "type": "tuple[]"
        }
      ],
      "stateMutability": "view",
      "type": "function"
    },
    {
      "inputs": [],
      "name": "owner",
      "outputs": [
        {
          "internalType": "address",
          "name": "",
          "type": "address"
        }
      ],
      "stateMutability": "view",
      "type": "function"
    },
    {
      "inputs": [
        {
          "internalType": "uint256",
          "name": "amount",
          "type": "uint256"
        }
      ],
      "name": "placeBet",
      "outputs": [],
      "stateMutability": "payable",
      "type": "function"
    },
    {
      "inputs": [],
      "name": "pythVRF",
      "outputs": [
        {
          "internalType": "contract IPythVRF",
          "name": "",
          "type": "address"
        }
      ],
      "stateMutability": "view",
      "type": "function"
    },
    {
      "inputs": [],
      "name": "raffleCounter",
      "outputs": [
        {
          "internalType": "uint256",
          "name": "",
          "type": "uint256"
        }
      ],
      "stateMutability": "view",
      "type": "function"
    },
    {
      "inputs": [
        {
          "internalType": "uint256",
          "name": "",
          "type": "uint256"
        }
      ],
      "name": "raffles",
      "outputs": [
        {
          "internalType": "uint256",
          "name": "raffleId",
          "type": "uint256"
        },
        {
          "internalType": "uint256",
          "name": "totalPool",
          "type": "uint256"
        },
        {
          "internalType": "uint256",
          "name": "totalEntries",
          "type": "uint256"
        },
        {
          "internalType": "address",
          "name": "winner",
          "type": "address"
        },
        {
          "internalType": "bool",
          "name": "drawn",
          "type": "bool"
        },
        {
          "internalType": "bytes32",
          "name": "vrfRequestId",
          "type": "bytes32"
        }
      ],
      "stateMutability": "view",
      "type": "function"
    },
    {
      "inputs": [],
      "name": "rakeBps",
      "outputs": [
        {
          "internalType": "uint16",
          "name": "",
          "type": "uint16"
        }
      ],
      "stateMutability": "view",
      "type": "function"
    },
    {
      "inputs": [],
      "name": "renounceOwnership",
      "outputs": [],
      "stateMutability": "nonpayable",
      "type": "function"
    },
    {
      "inputs": [
        {
          "internalType": "address",
          "name": "_pythVRF",
          "type": "address"
        }
      ],
      "name": "setPythVRF",
      "outputs": [],
      "stateMutability": "nonpayable",
      "type": "function"
    },
    {
      "inputs": [
        {
          "internalType": "uint16",
          "name": "newRakeBps",
          "type": "uint16"
        }
      ],
      "name": "setRake",
      "outputs": [],
      "stateMutability": "nonpayable",
      "type": "function"
    },
    {
      "inputs": [],
      "name": "startNewRaffle",
      "outputs": [],
      "stateMutability": "nonpayable",
      "type": "function"
    },
    {
      "inputs": [],
      "name": "token",
      "outputs": [
        {
          "internalType": "address",
          "name": "",
          "type": "address"
        }
      ],
      "stateMutability": "view",
      "type": "function"
    },
    {
      "inputs": [],
      "name": "totalEntries",
      "outputs": [
        {
          "internalType": "uint256",
          "name": "",
          "type": "uint256"
        }
      ],
      "stateMutability": "view",
      "type": "function"
    },
    {
      "inputs": [],
      "name": "totalPool",
      "outputs": [
        {
          "internalType": "uint256",
          "name": "",
          "type": "uint256"
        }
      ],
      "stateMutability": "view",
      "type": "function"
    },
    {
      "inputs": [
        {
          "internalType": "address",
          "name": "newOwner",
          "type": "address"
        }
      ],
      "name": "transferOwnership",
      "outputs": [],
      "stateMutability": "nonpayable",
      "type": "function"
    },
    {
      "inputs": [
        {
          "internalType": "bytes32",
          "name": "",
          "type": "bytes32"
        }
      ],
      "name": "vrfRequestToRaffle",
      "outputs": [
        {
          "internalType": "uint256",
          "name": "",
          "type": "uint256"
        }
      ],
      "stateMutability": "view",
      "type": "function"
    }
  ],
  "bytecode": "0x6080346100ff57601f61111138819003918201601f19168301916001600160401b03831184841017610104578084926060946040528339810103126100ff576100478161011a565b61005f60406100586020850161011a565b930161011a565b6001600160a01b03918216919082156100e657816000549460018060a01b03199480868816176000558260405197167f8be0079c531659141344cd1fd0a4f28419497f9722a3daafe3b4186f6b6457e0600080a36001805516836003541617600355169060025416176002556101f461ffff196006541617600655610fe2908161012f8239f35b604051631e4fbdf760e01b815260006004820152602490fd5b600080fd5b634e487b7160e01b600052604160045260246000fd5b51906001600160a01b03821682036100ff5756fe608060408181526004918236101561001657600080fd5b600092833560e01c91826310fe7c4814610a3f5750816317b937e6146109e15781631f1f897f1461076d57816321c9c44a1461074a5781635d4bc0ce146106e157816360b2a56a146105cc578163715018a61461057257816373c7da8c146104f7578163772d84c4146104ce5781637fef036e146104af57816383ba98ae146104665781638cf855181461043e5781638da5cb5b14610416578163a91f3e56146103d2578163c2f306a5146103b3578163dea3f335146102a8578163e4dafec9146101dd578163ecfb49a3146101bf578163f2fde38b1461012c575063fc0c546a1461010157600080fd5b3461012857816003193601126101285760035490516001600160a01b039091168152602090f35b5080fd5b919050346101bb5760203660031901126101bb576001600160a01b038235818116939192908490036101b757610160610f18565b83156101a157505082546001600160a01b0319811683178455167f8be0079c531659141344cd1fd0a4f28419497f9722a3daafe3b4186f6b6457e08380a380f35b51631e4fbdf760e01b8152908101849052602490fd5b8480fd5b8280fd5b9050346101bb57826003193601126101bb5760209250549051908152f35b9050346101bb5760203660031901126101bb57818360c09460a0835161020281610de9565b82815282602082015282858201528260608201528260808201520152823581526009602052209180519161023583610de9565b83549384845260018101549260208501938452600282015481860190815260038301549460a0600180821b03956060890195878916875260ff60808b0199841c161515895201549701968752825197885251602088015251908601525116606084015251151560808301525160a0820152f35b8391503461012857602090816003193601126101bb5780358352600882528383209182549167ffffffffffffffff83116103a0575092908451906102f1858260051b0183610e37565b8082528482018094845285842084915b83831061035d5750505050845193808501918186525180925285850193925b82811061032d5785850386f35b835180516001600160a01b0316865280830151868401528701518786015260609094019392810192600101610320565b6003886001928b9a97989a5161037281610e1b565b848060a01b038654168152848601548382015260028601548d82015281520192019201919096949396610301565b634e487b7160e01b855260419052602484fd5b5050346101285781600319360112610128576020906007549051908152f35b83346104135780600319360112610413576103eb610f18565b60075460001981146104005760010160075580f35b506011602492634e487b7160e01b835252fd5b80fd5b505034610128578160031936011261012857905490516001600160a01b039091168152602090f35b9050346101bb5760203660031901126101bb576020928291358152600a845220549051908152f35b83903461012857602036600319011261012857356001600160a01b0381169081900361012857610494610f18565b6bffffffffffffffffffffffff60a01b600254161760025580f35b5050346101285781600319360112610128576020906005549051908152f35b50503461012857816003193601126101285760025490516001600160a01b039091168152602090f35b9050346101bb5760203660031901126101bb5780359161ffff831680930361056e57610521610f18565b6103e8831161053b57505061ffff19600654161760065580f35b906020606492519162461bcd60e51b8352820152600d60248201526c0a4c2d6ca40e8dede40d0d2ced609b1b6044820152fd5b8380fd5b833461041357806003193601126104135761058b610f18565b80546001600160a01b03198116825581906001600160a01b03167f8be0079c531659141344cd1fd0a4f28419497f9722a3daafe3b4186f6b6457e08280a380f35b919050346101bb5760208060031936011261056e578235926105ec610f18565b8385526009825282852061060285825414610e66565b61061660ff600383015460a01c1615610ea3565b6001810154156106b5579081610633600288959401541515610edf565b600254855163f8413b0760e01b8152948491869185918391906001600160a01b03165af19384156106ab578794610677575b50928091600a94015585525282205580f35b93508284813d83116106a4575b61068e8183610e37565b810103126106a057600a935193610665565b8680fd5b503d610684565b85513d89823e3d90fd5b50915162461bcd60e51b8152918201526007602482015266139bc81c1bdbdb60ca1b6044820152606490fd5b919050346101bb5760203660031901126101bb5760ff8160c094843581526009602052208054936001820154936002830154916003840154930154948151968752602087015285015260018060a01b038116606085015260a01c161515608083015260a0820152f35b50503461012857816003193601126101285760209061ffff600654169051908152f35b9050346101bb57816003193601126101bb576002546001600160a01b039282359160249190851633036109b457828652602092600a8452818720549485885260098552828820936107c087865414610e66565b60038501978854956107d860ff8860a01c1615610ea3565b888b5260088852858b20805480156107f08115610edf565b6109a25791836108096002936108459588350690610d94565b5054169b6001820154998d600160a01b916affffffffffffffffffffff60a81b1617179055610839898754610dc6565b86550154600554610dc6565b600555600354168061091a575088808080888c5af13d15610915573d67ffffffffffffffff811161090357855190610886601f8201601f19168a0183610e37565b81528a883d92013e5b156108cf575050907f9c1e776cbdf221420917b223eb09503e61c8e990a1c09065cbf15bdff06a555e9392915b8752600a8352868181205551908152a380f35b835162461bcd60e51b8152918201869052600f908201526e151c985b9cd9995c8819985a5b1959608a1b6044820152606490fd5b634e487b7160e01b8b5260418452828bfd5b61088f565b90989796959493929183519963a9059cbb60e01b878c015288818c01528560448c015260448b5260808b01918b831067ffffffffffffffff8411176109915750509861098c917f9c1e776cbdf221420917b223eb09503e61c8e990a1c09065cbf15bdff06a555e9798999a8552610f44565b6108bc565b634e487b7160e01b8b526041905289fd5b634e487b7160e01b8d5260128652848dfd5b600860649260208693519362461bcd60e51b85528401528201526727b7363c902b292360c11b6044820152fd5b8284346104135781600319360112610413576024359235815260086020528181209081548410156104135750606092610a1991610d94565b5060018060a01b0381541691600260018301549201549181519384526020840152820152f35b84908460208060031936011261056e578435916001936002855414610d865750600284556003546001600160a01b039290831680610d265750833403610cf2575b61ffff60065416808502908582041485151715610cdf57612710610aa5910485610dc6565b9060075493848852600982528388205415610c37575b83882060ff600382015460a01c16610bfd57808860029201610ade868254610e59565b905501805490888201809211610bea575584885260088252838820845191610b0583610e1b565b338352838301908582528684019242845280549068010000000000000000821015610bd65790610b39918c82018155610d94565b949094610bc4575184546001600160a01b0319169116178355518883015551600291909101558754610b6c908390610e59565b8855600554868101809111610bb157600555825194855284015233927fb0ba8b4c814caa46eeb64521dde09ebd848abcd48587091cf9680813a89a64489190a3805580f35b634e487b7160e01b885260118952602488fd5b634e487b7160e01b8c528b8d5260248cfd5b50634e487b7160e01b8c5260418d5260248cfd5b634e487b7160e01b8a5260118b5260248afd5b845162461bcd60e51b8152808b0184905260146024820152732930b33336329030b63932b0b23c90323930bbb760611b6044820152606490fd5b8351610c4281610de9565b858152898984830181815287840190828252606085019183835260808601918483528a60a08801958087528d815260098b522096518755518d870155516002860155856003860192511682549160ff60a01b9051151560a01b16916affffffffffffffffffffff60a81b161717905551910155847f0b5745354685a046e72f24602bcf00fa0ee07f0bf511afb5f2d3ab636241e41b8980a2610abb565b634e487b7160e01b875260118852602487fd5b8690606492519162461bcd60e51b8352820152600f60248201526e082dadeeadce840dad2e6dac2e8c6d608b1b6044820152fd5b82516323b872dd60e01b83820152336024820152306044820152606480820187905281529060a0820167ffffffffffffffff811183821017610d73578452610d6e9190610f44565b610a80565b634e487b7160e01b895260418a52602489fd5b633ee5aeb560e01b81528690fd5b8054821015610db0576000526003602060002091020190600090565b634e487b7160e01b600052603260045260246000fd5b91908203918211610dd357565b634e487b7160e01b600052601160045260246000fd5b60c0810190811067ffffffffffffffff821117610e0557604052565b634e487b7160e01b600052604160045260246000fd5b6060810190811067ffffffffffffffff821117610e0557604052565b90601f8019910116810190811067ffffffffffffffff821117610e0557604052565b91908201809211610dd357565b15610e6d57565b60405162461bcd60e51b815260206004820152600e60248201526d496e76616c696420726166666c6560901b6044820152606490fd5b15610eaa57565b60405162461bcd60e51b815260206004820152600d60248201526c20b63932b0b23c90323930bbb760991b6044820152606490fd5b15610ee657565b60405162461bcd60e51b815260206004820152600a6024820152694e6f20656e747269657360b01b6044820152606490fd5b6000546001600160a01b03163303610f2c57565b60405163118cdaa760e01b8152336004820152602490fd5b906000602091828151910182855af115610fa0576000513d610f9757506001600160a01b0381163b155b610f755750565b604051635274afe760e01b81526001600160a01b039091166004820152602490fd5b60011415610f6e565b6040513d6000823e3d90fdfea2646970667358221220ec9e7327fb4482b29ed9e4293cd0e3af8ed08229ce0e0a35c522fd2f64ccd6fe64736f6c63430008180033",
  "linkReferences": {},
  "deployedLinkReferences": {}
}