{
  "_format": "hh-sol-artifact-1",
  "contractName": "Crash",
  "sourceName": "contracts/casino/Crash.sol",
  "abi": [
    {
      "inputs": [
        {
          "internalType": "address",
          "name": "_owner",
          "type": "address"
        },
        {
          "internalType": "address",
          "name": "_token",
          "type": "address"
        },
        {
          "internalType": "address",
          "name": "_pythVRF",
          "type": "address"
        }
      ],
      "stateMutability": "nonpayable",
      "type": "constructor"
    },
    {
      "inputs": [],
      "name": "BetTooHigh",
      "type": "error"
    },
    {
      "inputs": [],
      "name": "BetTooLow",
      "type": "error"
    },
    {
      "inputs": [
        {
          "internalType": "address",
          "name": "owner",
          "type": "address"
        }
      ],
      "name": "OwnableInvalidOwner",
      "type": "error"
    },
    {
      "inputs": [
        {
          "internalType": "address",
          "name": "account",
          "type": "address"
        }
      ],
      "name": "OwnableUnauthorizedAccount",
      "type": "error"
    },
    {
      "inputs": [],
      "name": "ReentrancyGuardReentrantCall",
      "type": "error"
    },
    {
      "inputs": [
        {
          "internalType": "address",
          "name": "token",
          "type": "address"
        }
      ],
      "name": "SafeERC20FailedOperation",
      "type": "error"
    },
    {
      "anonymous": false,
      "inputs": [
        {
          "indexed": true,
          "internalType": "uint256",
          "name": "gameId",
          "type": "uint256"
        },
        {
          "indexed": false,
          "internalType": "uint256",
          "name": "multiplier",
          "type": "uint256"
        },
        {
          "indexed": false,
          "internalType": "uint256",
          "name": "payout",
          "type": "uint256"
        }
      ],
      "name": "Cashout",
      "type": "event"
    },
    {
      "anonymous": false,
      "inputs": [
        {
          "indexed": true,
          "internalType": "uint256",
          "name": "gameId",
          "type": "uint256"
        },
        {
          "indexed": false,
          "internalType": "uint256",
          "name": "crashPoint",
          "type": "uint256"
        }
      ],
      "name": "GameCrashed",
      "type": "event"
    },
    {
      "anonymous": false,
      "inputs": [
        {
          "indexed": true,
          "internalType": "uint256",
          "name": "gameId",
          "type": "uint256"
        },
        {
          "indexed": false,
          "internalType": "uint256",
          "name": "crashPoint",
          "type": "uint256"
        },
        {
          "indexed": false,
          "internalType": "uint256",
          "name": "cashoutPoint",
          "type": "uint256"
        },
        {
          "indexed": false,
          "internalType": "uint256",
          "name": "reward",
          "type": "uint256"
        },
        {
          "indexed": false,
          "internalType": "uint256",
          "name": "lootRarity",
          "type": "uint256"
        }
      ],
      "name": "GameSettled",
      "type": "event"
    },
    {
      "anonymous": false,
      "inputs": [
        {
          "indexed": true,
          "internalType": "uint256",
          "name": "gameId",
          "type": "uint256"
        },
        {
          "indexed": true,
          "internalType": "address",
          "name": "player",
          "type": "address"
        }
      ],
      "name": "GameStarted",
      "type": "event"
    },
    {
      "anonymous": false,
      "inputs": [
        {
          "indexed": true,
          "internalType": "address",
          "name": "previousOwner",
          "type": "address"
        },
        {
          "indexed": true,
          "internalType": "address",
          "name": "newOwner",
          "type": "address"
        }
      ],
      "name": "OwnershipTransferred",
      "type": "event"
    },
    {
      "inputs": [],
      "name": "MULTIPLIER_PER_SECOND",
      "outputs": [
        {
          "internalType": "uint256",
          "name": "",
          "type": "uint256"
        }
      ],
      "stateMutability": "view",
      "type": "function"
    },
    {
      "inputs": [
        {
          "internalType": "uint256",
          "name": "",
          "type": "uint256"
        }
      ],
      "name": "activeGames",
      "outputs": [
        {
          "internalType": "address",
          "name": "player",
          "type": "address"
        },
        {
          "internalType": "uint256",
          "name": "amount",
          "type": "uint256"
        },
        {
          "internalType": "uint256",
          "name": "crashPoint",
          "type": "uint256"
        },
        {
          "internalType": "uint256",
          "name": "gameStartedAt",
          "type": "uint256"
        },
        {
          "internalType": "uint256",
          "name": "autoCashout",
          "type": "uint256"
        },
        {
          "internalType": "bool",
          "name": "cashedOut",
          "type": "bool"
        },
        {
          "internalType": "bool",
          "name": "crashed",
          "type": "bool"
        }
      ],
      "stateMutability": "view",
      "type": "function"
    },
    {
      "inputs": [
        {
          "internalType": "uint256",
          "name": "gameId",
          "type": "uint256"
        }
      ],
      "name": "cashout",
      "outputs": [],
      "stateMutability": "nonpayable",
      "type": "function"
    },
    {
      "inputs": [
        {
          "internalType": "uint256",
          "name": "gameId",
          "type": "uint256"
        }
      ],
      "name": "checkAutoCashout",
      "outputs": [],
      "stateMutability": "nonpayable",
      "type": "function"
    },
    {
      "inputs": [],
      "name": "config",
      "outputs": [
        {
          "internalType": "address",
          "name": "treasury",
          "type": "address"
        },
        {
          "internalType": "uint256",
          "name": "minPlay",
          "type": "uint256"
        },
        {
          "internalType": "uint256",
          "name": "maxPlay",
          "type": "uint256"
        },
        {
          "internalType": "uint16",
          "name": "houseEdgeBps",
          "type": "uint16"
        },
        {
          "internalType": "bool",
          "name": "paused",
          "type": "bool"
        }
      ],
      "stateMutability": "view",
      "type": "function"
    },
    {
      "inputs": [
        {
          "internalType": "bytes32",
          "name": "requestId",
          "type": "bytes32"
        },
        {
          "internalType": "uint256",
          "name": "randomness",
          "type": "uint256"
        }
      ],
      "name": "fulfillRandomness",
      "outputs": [],
      "stateMutability": "nonpayable",
      "type": "function"
    },
    {
      "inputs": [],
      "name": "gameCounter",
      "outputs": [
        {
          "internalType": "uint256",
          "name": "",
          "type": "uint256"
        }
      ],
      "stateMutability": "view",
      "type": "function"
    },
    {
      "inputs": [
        {
          "internalType": "uint256",
          "name": "",
          "type": "uint256"
        }
      ],
      "name": "games",
      "outputs": [
        {
          "internalType": "address",
          "name": "player",
          "type": "address"
        },
        {
          "internalType": "uint256",
          "name": "gameId",
          "type": "uint256"
        },
        {
          "internalType": "uint256",
          "name": "crashPoint",
          "type": "uint256"
        },
        {
          "internalType": "uint256",
          "name": "cashoutPoint",
          "type": "uint256"
        },
        {
          "internalType": "uint256",
          "name": "reward",
          "type": "uint256"
        },
        {
          "internalType": "uint256",
          "name": "lootRarity",
          "type": "uint256"
        }
      ],
      "stateMutability": "view",
      "type": "function"
    },
    {
      "inputs": [
        {
          "internalType": "uint256",
          "name": "gameId",
          "type": "uint256"
        }
      ],
      "name": "getActiveGame",
      "outputs": [
        {
          "components": [
            {
              "internalType": "address",
              "name": "player",
              "type": "address"
            },
            {
              "internalType": "uint256",
              "name": "amount",
              "type": "uint256"
            },
            {
              "internalType": "uint256",
              "name": "crashPoint",
              "type": "uint256"
            },
            {
              "internalType": "uint256",
              "name": "gameStartedAt",
              "type": "uint256"
            },
            {
              "internalType": "uint256",
              "name": "autoCashout",
              "type": "uint256"
            },
            {
              "internalType": "bool",
              "name": "cashedOut",
              "type": "bool"
            },
            {
              "internalType": "bool",
              "name": "crashed",
              "type": "bool"
            }
          ],
          "internalType": "struct Crash.ActiveGame",
          "name": "",
          "type": "tuple"
        }
      ],
      "stateMutability": "view",
      "type": "function"
    },
    {
      "inputs": [
        {
          "internalType": "uint256",
          "name": "gameId",
          "type": "uint256"
        }
      ],
      "name": "getCurrentMultiplier",
      "outputs": [
        {
          "internalType": "uint256",
          "name": "",
          "type": "uint256"
        }
      ],
      "stateMutability": "view",
      "type": "function"
    },
    {
      "inputs": [
        {
          "internalType": "uint256",
          "name": "gameId",
          "type": "uint256"
        }
      ],
      "name": "getGame",
      "outputs": [
        {
          "components": [
            {
              "internalType": "address",
              "name": "player",
              "type": "address"
            },
            {
              "internalType": "uint256",
              "name": "gameId",
              "type": "uint256"
            },
            {
              "internalType": "uint256",
              "name": "crashPoint",
              "type": "uint256"
            },
            {
              "internalType": "uint256",
              "name": "cashoutPoint",
              "type": "uint256"
            },
            {
              "internalType": "uint256",
              "name": "reward",
              "type": "uint256"
            },
            {
              "internalType": "uint256",
              "name": "lootRarity",
              "type": "uint256"
            }
          ],
          "internalType": "struct Crash.GameResult",
          "name": "",
          "type": "tuple"
        }
      ],
      "stateMutability": "view",
      "type": "function"
    },
    {
      "inputs": [],
      "name": "getPrizePool",
      "outputs": [
        {
          "internalType": "uint256",
          "name": "",
          "type": "uint256"
        }
      ],
      "stateMutability": "view",
      "type": "function"
    },
    {
      "inputs": [
        {
          "internalType": "address",
          "name": "treasury",
          "type": "address"
        },
        {
          "internalType": "uint256",
          "name": "minPlay",
          "type": "uint256"
        },
        {
          "internalType": "uint256",
          "name": "maxPlay",
          "type": "uint256"
        },
        {
          "internalType": "uint16",
          "name": "houseEdgeBps",
          "type": "uint16"
        }
      ],
      "name": "initialize",
      "outputs": [],
      "stateMutability": "nonpayable",
      "type": "function"
    },
    {
      "inputs": [],
      "name": "owner",
      "outputs": [
        {
          "internalType": "address",
          "name": "",
          "type": "address"
        }
      ],
      "stateMutability": "view",
      "type": "function"
    },
    {
      "inputs": [],
      "name": "pause",
      "outputs": [],
      "stateMutability": "nonpayable",
      "type": "function"
    },
    {
      "inputs": [
        {
          "internalType": "uint256",
          "name": "amount",
          "type": "uint256"
        },
        {
          "internalType": "uint256",
          "name": "autoCashout",
          "type": "uint256"
        }
      ],
      "name": "placeBet",
      "outputs": [],
      "stateMutability": "payable",
      "type": "function"
    },
    {
      "inputs": [],
      "name": "prizePool",
      "outputs": [
        {
          "internalType": "uint256",
          "name": "",
          "type": "uint256"
        }
      ],
      "stateMutability": "view",
      "type": "function"
    },
    {
      "inputs": [],
      "name": "pythVRF",
      "outputs": [
        {
          "internalType": "contract IPythVRF",
          "name": "",
          "type": "address"
        }
      ],
      "stateMutability": "view",
      "type": "function"
    },
    {
      "inputs": [],
      "name": "renounceOwnership",
      "outputs": [],
      "stateMutability": "nonpayable",
      "type": "function"
    },
    {
      "inputs": [
        {
          "internalType": "address",
          "name": "_pythVRF",
          "type": "address"
        }
      ],
      "name": "setPythVRF",
      "outputs": [],
      "stateMutability": "nonpayable",
      "type": "function"
    },
    {
      "inputs": [],
      "name": "token",
      "outputs": [
        {
          "internalType": "address",
          "name": "",
          "type": "address"
        }
      ],
      "stateMutability": "view",
      "type": "function"
    },
    {
      "inputs": [
        {
          "internalType": "address",
          "name": "newOwner",
          "type": "address"
        }
      ],
      "name": "transferOwnership",
      "outputs": [],
      "stateMutability": "nonpayable",
      "type": "function"
    },
    {
      "inputs": [],
      "name": "unpause",
      "outputs": [],
      "stateMutability": "nonpayable",
      "type": "function"
    },
    {
      "inputs": [
        {
          "internalType": "bytes32",
          "name": "",
          "type": "bytes32"
        }
      ],
      "name": "vrfRequestToGame",
      "outputs": [
        {
          "internalType": "uint256",
          "name": "",
          "type": "uint256"
        }
      ],
      "stateMutability": "view",
      "type": "function"
    }
  ],
  "bytecode": "0x608034620000fc57601f62001a8738819003918201601f19168301916001600160401b038311848410176200010157808492606094604052833981010312620000fc576200004d8162000117565b620000696040620000616020850162000117565b930162000117565b6001600160a01b0391821691908215620000e357816000549460018060a01b03199480868816176000558260405197167f8be0079c531659141344cd1fd0a4f28419497f9722a3daafe3b4186f6b6457e0600080a360018055168360075416176007551690600654161760065561195a90816200012d8239f35b604051631e4fbdf760e01b815260006004820152602490fd5b600080fd5b634e487b7160e01b600052604160045260246000fd5b51906001600160a01b0382168203620000fc5756fe608060408181526004918236101561001657600080fd5b600092833560e01c918263117a5b90146115715750816313e4c714146114f85781631f1f897f146112735781632b452427146112565781632e0be39a146112375781633f4ba83a1461120f5781634afe62b514610e3e578163715018a614610de4578163719ce73e14610bf5578163772d84c414610dbb5781637825065814610cd257816379502c5514610c8157816383ba98ae14610c415781638456cb5914610c14578163884bf67c14610bf55781638a7626d114610bcd5781638b25e8c114610ba35781638da5cb5b14610b7b578163a2f77bcc14610ab7578163a9e732bb146106db578163cbb6d6bd1461060f578163f2fde38b14610583578163fbe995e714610158575063fc0c546a1461012d57600080fd5b3461015457816003193601126101545760075490516001600160a01b039091168152602090f35b5080fd5b9190503461057f5760208060031936011261057b578235808552600a825282852080546001600160a01b0390811695919086156105475760058201918254936101a460ff8616156117c5565b6101b460ff8660081c1615611806565b60028201948554996101c78b1515611849565b6101e060038501546101da811515611849565b426116b3565b9a6103e8928c8481029d8e04851490151715610534576127109c8d01809d1161053457908d9392918587019d8e54811015610219578580f35b82111561042f5750505061023a60018501548c5461ffff60055416916118d7565b95600160ff19825416179055846002541685600754168686541690823b1561042b578c5163a00c695160e01b81526001600160a01b039182168782019081529290911660208301526040820189905291849183919082908490829060600103925af18015610421576103f8575b50936103e59a88600589968996839b9a8f9e600a9f98819f9d898b6000805160206119058339815191529f6103b89d51868101908c825242848201528381526102ef81611675565b519020069b8c985416925493600c8c549683519c8d9661030e88611613565b875260a082880197828952868101998a52606081019a8b52608081019b8c52019b8c52835252209851166001600160601b0360a01b8954161788555160018801555160028701555160038601555190840155519101555493867fd66dbc1b5a153f9d6f370eabb4d4e003a977e0eaf0b4208d3aaa5643adadaec68c8051888152878d820152a254928a51948594859094939260609260808301968352602083015260408201520152565b0390a25b855252822060056000918281558260018201558260028201558260038201558260048201550155565b3880808080808080808981808080808580f35b9161040b819a9998959692979493611661565b61041d579392959697909194386102a7565b8880fd5b8b513d85823e3d90fd5b8480fd5b6103e59d5060809650946005928b8e938e600a9f9e9d9897839d6101016000805160206119058339815191529e9c61ffff1916179055865182810190858252428982015288815261047f81611675565b5190200699868b9751998a9661049488611613565b8752600c848801948786528389019687526060890197838952608060a0908b019a858c52019b8c52835252209851166001600160601b0360a01b8954161788555160018801555160028701555160038601555190840155519101555490847f3d8fdd92f5ba5b88f5fd67b85aa9626921ca9ac90511f3f3948c40fe0c1f86b4888b51858152a288519182528a878301528a898301526060820152a26103bc565b634e487b7160e01b8e526011855260248efd5b855162461bcd60e51b8152808401869052600e60248201526d11d85b59481b9bdd08199bdd5b9960921b6044820152606490fd5b8380fd5b8280fd5b90503461057f57602036600319011261057f5761059e6115d5565b906105a7611888565b6001600160a01b039182169283156105f9575050600054826001600160601b0360a01b821617600055167f8be0079c531659141344cd1fd0a4f28419497f9722a3daafe3b4186f6b6457e0600080a380f35b51631e4fbdf760e01b8152908101849052602490fd5b9190503461057f57608036600319011261057f5761062b6115d5565b91602435604435926064359461ffff86168096036106d75761064b611888565b81519060a0820182811067ffffffffffffffff8211176106c25783526001600160a01b03168082526020820184905291810185905260608101869052608001869052600280546001600160a01b0319169091179055600355556005805462ffffff191690911782151560101b62ff00001617905580f35b604186634e487b7160e01b6000525260246000fd5b8680fd5b9190503461057f5760208060031936011261057b5782356106fa6118b4565b808552600a8252828520805490946001600160a01b0391821691338303610a8457600587019182549161073060ff8416156117c5565b61074060ff8460081c1615611806565b6002890198895495610753871515611849565b61076660038301546101da811515611849565b966103e89586890298808a04881490151715610a7157612710988901809911610a71578d929190818a1015610a2257505050506107af60018201548761ffff60055416916118d7565b94600160ff198254161790558160025416938b8360075416958484541696813b1561057f578c5163a00c695160e01b8082526001600160a01b03928316898301908152929099166020830152604082018a90529291839182908490829060600103925af18015610a1857610a01575b50908b92918a518a8101908a8252428d8201528c815261083d81611675565b519020069460058610806109f6575b610946575b509361093f9a886005838a978a8f9c600a9f9e9d8f909a8a889f9c6000805160206119058339815191529f9c6103b89d541692600c8c549583519c8d9661089788611613565b875260a082880197828952868101998a52606081019a8b52608081019b8c52019b8c52835252209851166001600160601b0360a01b895416178855516001880155516002870155516003860155519084015551910155867fd66dbc1b5a153f9d6f370eabb4d4e003a977e0eaf0b4208d3aaa5643adadaec68c8051888152878d820152a254928a51948594859094939260609260808301968352602083015260408201520152565b6001805580f35b61096661095e9760095490600a8204998a80936116b3565b6009556115f0565b9683600254168460075416908585541693813b156109f2578e519081526001600160a01b03928316818a0190815292909416602083015260408201929092528591839182908490829060600103925af180156109e8571561085157926109d581969297949a999895939a611661565b61042b5793919438989193969798610851565b8b513d86823e3d90fd5b8780fd5b50600954151561084c565b610a0f909c9193929c611661565b9a90913861081e565b8b513d8f823e3d90fd5b8a995061093f9d9450956005928a8e938e600a9f9e9c9b6000805160206119058339815191529c61010160809d61ffff1916179055865182810190858252428982015288815261047f81611675565b634e487b7160e01b8e526011865260248efd5b855162461bcd60e51b8152808301869052600d60248201526c4e6f7420796f75722067616d6560981b6044820152606490fd5b90503461057f57602036600319011261057f57818360c09460a08351610adc81611613565b8281528260208201528285820152826060820152826080820152015282358152600c60205220825191610b0e83611613565b60018060a01b038254169384845260018301546020850190815260028401549082860191825260a0600560038701549560608901968752870154966080890197885201549601958652825196875251602087015251908501525160608401525160808301525160a0820152f35b505034610154578160031936011261015457905490516001600160a01b039091168152602090f35b828434610bca576020366003190112610bca5750610bc3602092356116d3565b9051908152f35b80fd5b90503461057f57602036600319011261057f576020928291358152600b845220549051908152f35b5050346101545781600319360112610154576020906009549051908152f35b8334610bca5780600319360112610bca57610c2d611888565b6201000062ff000019600554161760055580f35b8334610bca576020366003190112610bca57610c5b6115d5565b610c63611888565b60018060a01b03166001600160601b0360a01b600654161760065580f35b828434610bca5780600319360112610bca575060ff60a092600180851b036002541692600354915490600554928151958652602086015284015261ffff8116606084015260101c1615156080820152f35b9190503461057f57602036600319011261057f57808360e09460c08351610cf881611645565b82815282602082015282858201528260608201528260808201528260a0820152015283358152600a60205220815190610d3082611645565b60018060a01b0381541693848352600182015493602084019485526002830154818501908152600560038501549360608701948552850154946080870195865201549560ff60c060a0880197828a1615158952019760081c16151587528251978852516020880152519086015251606085015251608084015251151560a083015251151560c0820152f35b50503461015457816003193601126101545760065490516001600160a01b039091168152602090f35b8334610bca5780600319360112610bca57610dfd611888565b80546001600160a01b03198116825581906001600160a01b03167f8be0079c531659141344cd1fd0a4f28419497f9722a3daafe3b4186f6b6457e08280a380f35b90508160031936011261057f5780356024918235610e5a6118b4565b60ff60055460101c166111e457612710811015806111d7575b156111a3576003548254908410611193578311611184576007546001600160a01b0394908516806110db57508334036110a757610eb5600a85046009546115f0565b600955868080808789600254165af13d156110a2573d67ffffffffffffffff811161109057875190610ef1601f8201601f191660200183611691565b81528860203d92013e5b1561105c575b60085490600019821461104b57509186949291600186959301968760085584600654169481519563f8413b0760e01b875286858160209b8c945af18015611041578790611013575b600596508752600b88528882882055815194610f6486611645565b33865288860190815282860191888352606087019389855260808801958652600a60a089019b8b8d528d8c60c08c019d8e5252528c209651166001600160601b0360a01b875416178655516001860155516002850155516003840155519082015501915115159060ff61ff0084549251151560081b1692169061ffff19161717905533907ffadb9547847a0c2c31f4c02590545e318d33d7aae99071caecf3fa4ce3cd7dca8380a36001805580f35b508786813d831161103a575b6110298183611691565b810103126106d75760059551610f49565b503d61101f565b82513d89823e3d90fd5b634e487b7160e01b88526011845287fd5b82600f606492602089519362461bcd60e51b85528401528201526e151c985b9cd9995c8819985a5b1959608a1b6044820152fd5b634e487b7160e01b8952604185528289fd5b610efb565b82600f606492602089519362461bcd60e51b85528401528201526e082dadeeadce840dad2e6dac2e8c6d608b1b6044820152fd5b6110ea600a86046009546115f0565b60095560025487516323b872dd60e01b602080830191825233868401908152938a166001600160a01b03168482015260408401899052928b929061113b90829060600103601f198101835282611691565b519082855af11561117a5787513d6111715750803b155b61115c5750610f01565b8651635274afe760e01b815280850191909152fd5b60011415611152565b86513d89823e3d90fd5b508351631765320160e11b8152fd5b855163989e301760e01b81528390fd5b845162461bcd60e51b8152602081840152600f818601526e125b9d985b1a590818d85cda1bdd5d608a1b6044820152606490fd5b50620186a0811115610e73565b845162461bcd60e51b81526020818401526006818601526514185d5cd95960d21b6044820152606490fd5b8334610bca5780600319360112610bca57611228611888565b62ff0000196005541660055580f35b5050346101545781600319360112610154576020906008549051908152f35b505034610154578160031936011261015457602090516103e88152f35b838334610154578060031936011261015457600654602435936001600160a01b039291813590841633036114ca57808552602091600b83528386205494858752600a8452848720918183541680156114985760028401998a54611461576127109462015f908206860180961161144e57858b9c9b9a9b554260038201558584820154101560001461141857938960058a60008051602061190583398151915296608096600b9d9e9f8b8e6103e8839e9a88859f0161010061ff00198254161790550698868a9751998a9661134688611613565b8752600c848801948786528389019687526060890197838952608060a0908b019a858c52019b8c52835252209851166001600160601b0360a01b895416178855516001880155516002870155516003860155519084015551910155847f3d8fdd92f5ba5b88f5fd67b85aa9626921ca9ac90511f3f3948c40fe0c1f86b4898c51858152a289519182528a888301528a8a8301526060820152a28552600a825261140f84862060056000918281558260018201558260028201558260038201558260048201550155565b84525281205580f35b505050505050507fd66dbc1b5a153f9d6f370eabb4d4e003a977e0eaf0b4208d3aaa5643adadaec692825191818352820152a280f35b634e487b7160e01b8b526011845260248bfd5b875162461bcd60e51b81528084018890526011602482015270105b1c9958591e48199d5b199a5b1b1959607a1b6044820152606490fd5b865162461bcd60e51b8152808301879052600c60248201526b496e76616c69642067616d6560a01b6044820152606490fd5b506020606492519162461bcd60e51b8352820152600860248201526727b7363c902b292360c11b6044820152fd5b9190503461057f57602036600319011261057f578060ff9160e09484358152600a6020522060018060a01b03815416936001820154926002830154906005600385015493850154940154948151978852602088015286015260608501526080840152818116151560a084015260081c16151560c0820152f35b9291503461057b57602036600319011261057b578160c09482358152600c602052209060018060a01b0382541692600183015490600284015491600560038601549486015495015495875260208701528501526060840152608083015260a0820152f35b600435906001600160a01b03821682036115eb57565b600080fd5b919082018092116115fd57565b634e487b7160e01b600052601160045260246000fd5b60c0810190811067ffffffffffffffff82111761162f57604052565b634e487b7160e01b600052604160045260246000fd5b60e0810190811067ffffffffffffffff82111761162f57604052565b67ffffffffffffffff811161162f57604052565b6060810190811067ffffffffffffffff82111761162f57604052565b90601f8019910116810190811067ffffffffffffffff82111761162f57604052565b919082039182116115fd57565b818102929181159184041417156115fd57565b6000908152600a602052604081206040516116ed81611645565b60018060a01b03825416815260018201546020820152600282015490816040820152600560038401549384606084015260048101546080840152015460c060ff8083161515928360a086015260081c16159283159182910152841580156117bd575b6117b157916117a9575b506117a3575061176990426116b3565b906103e89182810292818404149015171561178f5761271091820180921161178f575090565b634e487b7160e01b81526011600452602490fd5b91505090565b905038611759565b50505050505061271090565b50831561174f565b156117cc57565b60405162461bcd60e51b8152602060048201526012602482015271105b1c9958591e4818d85cda1959081bdd5d60721b6044820152606490fd5b1561180d57565b60405162461bcd60e51b815260206004820152601460248201527311d85b5948185b1c9958591e4818dc985cda195960621b6044820152606490fd5b1561185057565b60405162461bcd60e51b815260206004820152601060248201526f11d85b59481b9bdd081cdd185c9d195960821b6044820152606490fd5b6000546001600160a01b0316330361189c57565b60405163118cdaa760e01b8152336004820152602490fd5b6002600154146118c5576002600155565b604051633ee5aeb560e01b8152600490fd5b906118fa61ffff61190194936118f16127109485926116c0565b049316836116c0565b04906116b3565b9056fedfd2ae5741f838130f78e33ffd1d53a7b06c3a5980162496b945d7f09f37aa7da2646970667358221220e96d2b1f1331a3c30c7e6ae384257c0c7cba1ea38502866655c7f5d363c91e1464736f6c63430008180033",
  "linkReferences": {},
  "deployedLinkReferences": {}
}