{
  "_format": "hh-sol-artifact-1",
  "contractName": "MockPythVRF",
  "sourceName": "contracts/MockPythVRF.sol",
  "abi": [
    {
      "anonymous": false,
      "inputs": [
        {
          "indexed": true,
          "internalType": "bytes32",
          "name": "requestId",
          "type": "bytes32"
        },
        {
          "indexed": false,
          "internalType": "uint256",
          "name": "randomNumber",
          "type": "uint256"
        }
      ],
      "name": "RandomnessFulfilled",
      "type": "event"
    },
    {
      "anonymous": false,
      "inputs": [
        {
          "indexed": true,
          "internalType": "bytes32",
          "name": "requestId",
          "type": "bytes32"
        },
        {
          "indexed": false,
          "internalType": "bytes32",
          "name": "seed",
          "type": "bytes32"
        }
      ],
      "name": "RandomnessRequested",
      "type": "event"
    },
    {
      "inputs": [
        {
          "internalType": "bytes32",
          "name": "",
          "type": "bytes32"
        },
        {
          "internalType": "uint256",
          "name": "",
          "type": "uint256"
        }
      ],
      "name": "fulfillRandomness",
      "outputs": [],
      "stateMutability": "pure",
      "type": "function"
    },
    {
      "inputs": [
        {
          "internalType": "bytes32",
          "name": "requestId",
          "type": "bytes32"
        }
      ],
      "name": "getRandomness",
      "outputs": [
        {
          "internalType": "uint256",
          "name": "randomNumber",
          "type": "uint256"
        },
        {
          "internalType": "uint256",
          "name": "blockNumber",
          "type": "uint256"
        },
        {
          "internalType": "bool",
          "name": "fulfilled",
          "type": "bool"
        }
      ],
      "stateMutability": "view",
      "type": "function"
    },
    {
      "inputs": [
        {
          "internalType": "bytes32",
          "name": "",
          "type": "bytes32"
        }
      ],
      "name": "randomnessData",
      "outputs": [
        {
          "internalType": "uint256",
          "name": "randomNumber",
          "type": "uint256"
        },
        {
          "internalType": "uint256",
          "name": "blockNumber",
          "type": "uint256"
        },
        {
          "internalType": "bool",
          "name": "fulfilled",
          "type": "bool"
        }
      ],
      "stateMutability": "view",
      "type": "function"
    },
    {
      "inputs": [],
      "name": "requestRandomness",
      "outputs": [
        {
          "internalType": "bytes32",
          "name": "requestId",
          "type": "bytes32"
        }
      ],
      "stateMutability": "nonpayable",
      "type": "function"
    },
    {
      "inputs": [
        {
          "internalType": "bytes32",
          "name": "requestId",
          "type": "bytes32"
        },
        {
          "internalType": "uint256",
          "name": "randomNumber",
          "type": "uint256"
        },
        {
          "internalType": "bytes",
          "name": "",
          "type": "bytes"
        }
      ],
      "name": "verifyRandomness",
      "outputs": [
        {
          "internalType": "bool",
          "name": "isValid",
          "type": "bool"
        }
      ],
      "stateMutability": "view",
      "type": "function"
    }
  ],
  "bytecode": "0x60808060405234610016576104f7908161001c8239f35b600080fdfe608060408181526004908136101561001657600080fd5b600092833560e01c90816303df8090146103885750806305b194021461031d57806309097053146102d55780631f1f897f146102575763f8413b071461005b57600080fd5b346102535782600319360112610253576001549260001992838514610240576001850180600155835195602096878101913360601b83524260348301524460548301526074820152607481526100b08161045a565b5190209443019043821161022d578451908782019240835242868301524460608301526080820152608081526100e58161045a565b5190209083516100f481610428565b8281526002878201914383528681019260018452888752868a5287872091518255516001820155019051151560ff80198354169116179055847f7469b69c8b7c70c5b64110c261edc79c83286e939f1661476a9046f161724ee1878651868152a2847f9b0aa3f92f46e24caa76b000bdf0dd495b9b390c320cf6585ae10a12b7d09edb878651858152a283519086820192631f1f897f60e01b8452866024840152604483015260448252608082019082821067ffffffffffffffff83111761021a5750839182918652516207a12093823386f16101cf610476565b50156101de575b505051908152f35b8190835182878201916312db777d60e31b83528760248201526024815261020481610428565b51923390f150610212610476565b5038806101d6565b634e487b7160e01b855260419052602484fd5b634e487b7160e01b845260118352602484fd5b634e487b7160e01b825260119052602490fd5b8280fd5b5091346102d257826003193601126102d257506020608492519162461bcd60e51b8352820152603960248201527f546869732073686f756c642062652063616c6c6564206f6e2067616d6520636f60448201527f6e7472616374732c206e6f74205652462070726f7669646572000000000000006064820152fd5b80fd5b509034610253576020366003190112610253573582526020828152918190208054600182015460029092015492519081529283015260ff1615156040820152606090f35b0390f35b5090346102535760203660031901126102535791819235815280602052209061031981519161034b83610428565b83548084526001850154602080860182905260029096015460ff161515948301859052915190815293840152604083019190915281906060820190565b91929050346104205760603660031901126104205760443567ffffffffffffffff8082116104245736602383011215610424578183013590811161042457369101602401116104205735835260208381529282902082916103e881610428565b60ff60028354938484526001810154888501520154161515938491015282610414575b50519015158152f35b6024351491503861040b565b8380fd5b8580fd5b6060810190811067ffffffffffffffff82111761044457604052565b634e487b7160e01b600052604160045260246000fd5b60a0810190811067ffffffffffffffff82111761044457604052565b3d156104bc5767ffffffffffffffff903d8281116104445760405192601f8201601f19908116603f01168401908111848210176104445760405282523d6000602084013e565b60609056fea26469706673582212206ddece1e60cdb8b7177dcda85cf07e626e52859beccc5c33ae4a52ee6c848b4264736f6c63430008180033",
  "linkReferences": {},
  "deployedLinkReferences": {}
}